{
	"PlayLand/PlayLand.sol": {
		"PlayLand": {
			"abi": [
				{
					"inputs": [],
					"stateMutability": "nonpayable",
					"type": "constructor"
				},
				{
					"anonymous": false,
					"inputs": [
						{
							"indexed": false,
							"internalType": "string",
							"name": "",
							"type": "string"
						}
					],
					"name": "event_disableAttraction",
					"type": "event"
				},
				{
					"anonymous": false,
					"inputs": [
						{
							"indexed": false,
							"internalType": "string",
							"name": "",
							"type": "string"
						},
						{
							"indexed": false,
							"internalType": "uint256",
							"name": "",
							"type": "uint256"
						}
					],
					"name": "event_enjoyAttraction",
					"type": "event"
				},
				{
					"anonymous": false,
					"inputs": [
						{
							"indexed": false,
							"internalType": "string",
							"name": "",
							"type": "string"
						},
						{
							"indexed": false,
							"internalType": "uint256",
							"name": "",
							"type": "uint256"
						}
					],
					"name": "event_newAttraction",
					"type": "event"
				},
				{
					"inputs": [
						{
							"internalType": "string",
							"name": "_nameAttraction",
							"type": "string"
						},
						{
							"internalType": "uint256",
							"name": "price",
							"type": "uint256"
						}
					],
					"name": "AddAttraction",
					"outputs": [],
					"stateMutability": "nonpayable",
					"type": "function"
				},
				{
					"inputs": [
						{
							"internalType": "string",
							"name": "_nameAttraction",
							"type": "string"
						}
					],
					"name": "DisableAttraction",
					"outputs": [],
					"stateMutability": "nonpayable",
					"type": "function"
				},
				{
					"inputs": [],
					"name": "EnableAttractions",
					"outputs": [
						{
							"internalType": "string[]",
							"name": "",
							"type": "string[]"
						}
					],
					"stateMutability": "view",
					"type": "function"
				},
				{
					"inputs": [
						{
							"internalType": "string",
							"name": "_nameAtraction",
							"type": "string"
						}
					],
					"name": "EnjoyAttraction",
					"outputs": [],
					"stateMutability": "nonpayable",
					"type": "function"
				},
				{
					"inputs": [
						{
							"internalType": "uint256",
							"name": "_numTokens",
							"type": "uint256"
						}
					],
					"name": "GenerateTokens",
					"outputs": [],
					"stateMutability": "nonpayable",
					"type": "function"
				},
				{
					"inputs": [],
					"name": "Historical",
					"outputs": [
						{
							"internalType": "string[]",
							"name": "",
							"type": "string[]"
						}
					],
					"stateMutability": "view",
					"type": "function"
				},
				{
					"inputs": [
						{
							"internalType": "string",
							"name": "",
							"type": "string"
						}
					],
					"name": "MappingAttractions",
					"outputs": [
						{
							"internalType": "string",
							"name": "name_attraction",
							"type": "string"
						},
						{
							"internalType": "uint256",
							"name": "price_attraction",
							"type": "uint256"
						},
						{
							"internalType": "bool",
							"name": "state_attraction",
							"type": "bool"
						}
					],
					"stateMutability": "view",
					"type": "function"
				},
				{
					"inputs": [],
					"name": "MyTokens",
					"outputs": [
						{
							"internalType": "uint256",
							"name": "",
							"type": "uint256"
						}
					],
					"stateMutability": "view",
					"type": "function"
				},
				{
					"inputs": [
						{
							"internalType": "uint256",
							"name": "_numTokens",
							"type": "uint256"
						}
					],
					"name": "RevertTokens",
					"outputs": [],
					"stateMutability": "payable",
					"type": "function"
				},
				{
					"inputs": [],
					"name": "balanceOf",
					"outputs": [
						{
							"internalType": "uint256",
							"name": "",
							"type": "uint256"
						}
					],
					"stateMutability": "view",
					"type": "function"
				},
				{
					"inputs": [
						{
							"internalType": "address",
							"name": "",
							"type": "address"
						}
					],
					"name": "client_data",
					"outputs": [
						{
							"internalType": "uint256",
							"name": "tokes_purchased",
							"type": "uint256"
						}
					],
					"stateMutability": "view",
					"type": "function"
				},
				{
					"inputs": [],
					"name": "gameToken",
					"outputs": [
						{
							"internalType": "contract ERC20Basic",
							"name": "",
							"type": "address"
						}
					],
					"stateMutability": "view",
					"type": "function"
				},
				{
					"inputs": [],
					"name": "owner",
					"outputs": [
						{
							"internalType": "address payable",
							"name": "",
							"type": "address"
						}
					],
					"stateMutability": "view",
					"type": "function"
				},
				{
					"inputs": [
						{
							"internalType": "uint256",
							"name": "_numTokens",
							"type": "uint256"
						}
					],
					"name": "purchaseToken",
					"outputs": [],
					"stateMutability": "payable",
					"type": "function"
				}
			],
			"devdoc": {
				"kind": "dev",
				"methods": {},
				"version": 1
			},
			"evm": {
				"assembly": "    /* \"PlayLand/PlayLand.sol\":89:4068  contract PlayLand... */\n  mstore(0x40, 0x80)\n    /* \"PlayLand/PlayLand.sol\":274:385  constructor()... */\n  callvalue\n  dup1\n  iszero\n  tag_1\n  jumpi\n  revert(0x00, 0x00)\ntag_1:\n  pop\n    /* \"PlayLand/PlayLand.sol\":331:337  100000 */\n  0x0186a0\n    /* \"PlayLand/PlayLand.sol\":316:338  new ERC20Basic(100000) */\n  mload(0x40)\n  tag_4\n  swap1\n  tag_5\n  jump\t// in\ntag_4:\n  tag_6\n  swap2\n  swap1\n  tag_7\n  jump\t// in\ntag_6:\n  mload(0x40)\n  dup1\n  swap2\n  sub\n  swap1\n  0x00\n  create\n  dup1\n  iszero\n  dup1\n  iszero\n  tag_8\n  jumpi\n  returndatacopy(0x00, 0x00, returndatasize)\n  revert(0x00, returndatasize)\ntag_8:\n  pop\n    /* \"PlayLand/PlayLand.sol\":304:313  gameToken */\n  0x00\n  0x00\n    /* \"PlayLand/PlayLand.sol\":304:338  gameToken = new ERC20Basic(100000) */\n  0x0100\n  exp\n  dup2\n  sload\n  dup2\n  0xffffffffffffffffffffffffffffffffffffffff\n  mul\n  not\n  and\n  swap1\n  dup4\n  0xffffffffffffffffffffffffffffffffffffffff\n  and\n  mul\n  or\n  swap1\n  sstore\n  pop\n    /* \"PlayLand/PlayLand.sol\":365:375  msg.sender */\n  caller\n    /* \"PlayLand/PlayLand.sol\":349:354  owner */\n  0x01\n  0x00\n    /* \"PlayLand/PlayLand.sol\":349:376  owner = payable(msg.sender) */\n  0x0100\n  exp\n  dup2\n  sload\n  dup2\n  0xffffffffffffffffffffffffffffffffffffffff\n  mul\n  not\n  and\n  swap1\n  dup4\n  0xffffffffffffffffffffffffffffffffffffffff\n  and\n  mul\n  or\n  swap1\n  sstore\n  pop\n    /* \"PlayLand/PlayLand.sol\":89:4068  contract PlayLand... */\n  jump(tag_9)\ntag_5:\n  dataSize(sub_1)\n  dup1\n  dataOffset(sub_1)\n  dup4\n  codecopy\n  add\n  swap1\n  jump\t// out\n    /* \"#utility.yul\":7:97   */\ntag_10:\n    /* \"#utility.yul\":57:64   */\n  0x00\n    /* \"#utility.yul\":86:91   */\n  dup2\n    /* \"#utility.yul\":75:91   */\n  swap1\n  pop\n    /* \"#utility.yul\":7:97   */\n  swap2\n  swap1\n  pop\n  jump\t// out\n    /* \"#utility.yul\":103:180   */\ntag_11:\n    /* \"#utility.yul\":140:147   */\n  0x00\n    /* \"#utility.yul\":169:174   */\n  dup2\n    /* \"#utility.yul\":158:174   */\n  swap1\n  pop\n    /* \"#utility.yul\":103:180   */\n  swap2\n  swap1\n  pop\n  jump\t// out\n    /* \"#utility.yul\":186:246   */\ntag_12:\n    /* \"#utility.yul\":214:217   */\n  0x00\n    /* \"#utility.yul\":235:240   */\n  dup2\n    /* \"#utility.yul\":228:240   */\n  swap1\n  pop\n    /* \"#utility.yul\":186:246   */\n  swap2\n  swap1\n  pop\n  jump\t// out\n    /* \"#utility.yul\":252:420   */\ntag_13:\n    /* \"#utility.yul\":315:324   */\n  0x00\n    /* \"#utility.yul\":348:414   */\n  tag_20\n    /* \"#utility.yul\":366:413   */\n  tag_21\n    /* \"#utility.yul\":375:412   */\n  tag_22\n    /* \"#utility.yul\":406:411   */\n  dup5\n    /* \"#utility.yul\":375:412   */\n  tag_10\n  jump\t// in\ntag_22:\n    /* \"#utility.yul\":366:413   */\n  tag_12\n  jump\t// in\ntag_21:\n    /* \"#utility.yul\":348:414   */\n  tag_11\n  jump\t// in\ntag_20:\n    /* \"#utility.yul\":335:414   */\n  swap1\n  pop\n    /* \"#utility.yul\":252:420   */\n  swap2\n  swap1\n  pop\n  jump\t// out\n    /* \"#utility.yul\":426:583   */\ntag_14:\n    /* \"#utility.yul\":526:576   */\n  tag_24\n    /* \"#utility.yul\":570:575   */\n  dup2\n    /* \"#utility.yul\":526:576   */\n  tag_13\n  jump\t// in\ntag_24:\n    /* \"#utility.yul\":521:524   */\n  dup3\n    /* \"#utility.yul\":514:577   */\n  mstore\n    /* \"#utility.yul\":426:583   */\n  pop\n  pop\n  jump\t// out\n    /* \"#utility.yul\":589:837   */\ntag_7:\n    /* \"#utility.yul\":695:699   */\n  0x00\n    /* \"#utility.yul\":733:735   */\n  0x20\n    /* \"#utility.yul\":722:731   */\n  dup3\n    /* \"#utility.yul\":718:736   */\n  add\n    /* \"#utility.yul\":710:736   */\n  swap1\n  pop\n    /* \"#utility.yul\":746:830   */\n  tag_26\n    /* \"#utility.yul\":827:828   */\n  0x00\n    /* \"#utility.yul\":816:825   */\n  dup4\n    /* \"#utility.yul\":812:829   */\n  add\n    /* \"#utility.yul\":803:809   */\n  dup5\n    /* \"#utility.yul\":746:830   */\n  tag_14\n  jump\t// in\ntag_26:\n    /* \"#utility.yul\":589:837   */\n  swap3\n  swap2\n  pop\n  pop\n  jump\t// out\n    /* \"PlayLand/PlayLand.sol\":89:4068  contract PlayLand... */\ntag_9:\n  dataSize(sub_0)\n  dup1\n  dataOffset(sub_0)\n  0x00\n  codecopy\n  0x00\n  return\nstop\n\nsub_0: assembly {\n        /* \"PlayLand/PlayLand.sol\":89:4068  contract PlayLand... */\n      mstore(0x40, 0x80)\n      jumpi(tag_1, lt(calldatasize, 0x04))\n      shr(0xe0, calldataload(0x00))\n      dup1\n      0x9b1447a0\n      gt\n      tag_16\n      jumpi\n      dup1\n      0xc2db2c42\n      gt\n      tag_17\n      jumpi\n      dup1\n      0xc2db2c42\n      eq\n      tag_12\n      jumpi\n      dup1\n      0xc3dfdae6\n      eq\n      tag_13\n      jumpi\n      dup1\n      0xce501912\n      eq\n      tag_14\n      jumpi\n      dup1\n      0xfa57e4c7\n      eq\n      tag_15\n      jumpi\n      jump(tag_1)\n    tag_17:\n      dup1\n      0x9b1447a0\n      eq\n      tag_9\n      jumpi\n      dup1\n      0xa488b6da\n      eq\n      tag_10\n      jumpi\n      dup1\n      0xab6f1092\n      eq\n      tag_11\n      jumpi\n      jump(tag_1)\n    tag_16:\n      dup1\n      0x7ca35cff\n      gt\n      tag_18\n      jumpi\n      dup1\n      0x7ca35cff\n      eq\n      tag_5\n      jumpi\n      dup1\n      0x7e93bf3c\n      eq\n      tag_6\n      jumpi\n      dup1\n      0x84eda297\n      eq\n      tag_7\n      jumpi\n      dup1\n      0x8da5cb5b\n      eq\n      tag_8\n      jumpi\n      jump(tag_1)\n    tag_18:\n      dup1\n      0x60b9a6c2\n      eq\n      tag_2\n      jumpi\n      dup1\n      0x638b65a9\n      eq\n      tag_3\n      jumpi\n      dup1\n      0x722713f7\n      eq\n      tag_4\n      jumpi\n    tag_1:\n      revert(0x00, 0x00)\n        /* \"PlayLand/PlayLand.sol\":3742:4065  function RevertTokens(uint _numTokens) public payable ... */\n    tag_2:\n      tag_19\n      0x04\n      dup1\n      calldatasize\n      sub\n      dup2\n      add\n      swap1\n      tag_20\n      swap2\n      swap1\n      tag_21\n      jump\t// in\n    tag_20:\n      tag_22\n      jump\t// in\n    tag_19:\n      stop\n        /* \"PlayLand/PlayLand.sol\":495:540  mapping (address =>client) public client_data */\n    tag_3:\n      callvalue\n      dup1\n      iszero\n      tag_23\n      jumpi\n      revert(0x00, 0x00)\n    tag_23:\n      pop\n      tag_24\n      0x04\n      dup1\n      calldatasize\n      sub\n      dup2\n      add\n      swap1\n      tag_25\n      swap2\n      swap1\n      tag_26\n      jump\t// in\n    tag_25:\n      tag_27\n      jump\t// in\n    tag_24:\n      mload(0x40)\n      tag_28\n      swap2\n      swap1\n      tag_29\n      jump\t// in\n    tag_28:\n      mload(0x40)\n      dup1\n      swap2\n      sub\n      swap1\n      return\n        /* \"PlayLand/PlayLand.sol\":1196:1309  function balanceOf() public view returns (uint)... */\n    tag_4:\n      callvalue\n      dup1\n      iszero\n      tag_30\n      jumpi\n      revert(0x00, 0x00)\n    tag_30:\n      pop\n      tag_31\n      tag_32\n      jump\t// in\n    tag_31:\n      mload(0x40)\n      tag_33\n      swap2\n      swap1\n      tag_29\n      jump\t// in\n    tag_33:\n      mload(0x40)\n      dup1\n      swap2\n      sub\n      swap1\n      return\n        /* \"PlayLand/PlayLand.sol\":3611:3734  function Historical() public  view returns (string [] memory)... */\n    tag_5:\n      callvalue\n      dup1\n      iszero\n      tag_34\n      jumpi\n      revert(0x00, 0x00)\n    tag_34:\n      pop\n      tag_35\n      tag_36\n      jump\t// in\n    tag_35:\n      mload(0x40)\n      tag_37\n      swap2\n      swap1\n      tag_38\n      jump\t// in\n    tag_37:\n      mload(0x40)\n      dup1\n      swap2\n      sub\n      swap1\n      return\n        /* \"PlayLand/PlayLand.sol\":2346:2650  function AddAttraction(string memory _nameAttraction, uint price)  public OnlyOwner(msg.sender)... */\n    tag_6:\n      callvalue\n      dup1\n      iszero\n      tag_39\n      jumpi\n      revert(0x00, 0x00)\n    tag_39:\n      pop\n      tag_40\n      0x04\n      dup1\n      calldatasize\n      sub\n      dup2\n      add\n      swap1\n      tag_41\n      swap2\n      swap1\n      tag_42\n      jump\t// in\n    tag_41:\n      tag_43\n      jump\t// in\n    tag_40:\n      stop\n        /* \"PlayLand/PlayLand.sol\":2658:2885  function DisableAttraction(string memory _nameAttraction) public OnlyOwner(msg.sender)... */\n    tag_7:\n      callvalue\n      dup1\n      iszero\n      tag_44\n      jumpi\n      revert(0x00, 0x00)\n    tag_44:\n      pop\n      tag_45\n      0x04\n      dup1\n      calldatasize\n      sub\n      dup2\n      add\n      swap1\n      tag_46\n      swap2\n      swap1\n      tag_47\n      jump\t// in\n    tag_46:\n      tag_48\n      jump\t// in\n    tag_45:\n      stop\n        /* \"PlayLand/PlayLand.sol\":239:267  address payable public owner */\n    tag_8:\n      callvalue\n      dup1\n      iszero\n      tag_49\n      jumpi\n      revert(0x00, 0x00)\n    tag_49:\n      pop\n      tag_50\n      tag_51\n      jump\t// in\n    tag_50:\n      mload(0x40)\n      tag_52\n      swap2\n      swap1\n      tag_53\n      jump\t// in\n    tag_52:\n      mload(0x40)\n      dup1\n      swap2\n      sub\n      swap1\n      return\n        /* \"PlayLand/PlayLand.sol\":2041:2097  mapping (string => attraction) public MappingAttractions */\n    tag_9:\n      callvalue\n      dup1\n      iszero\n      tag_54\n      jumpi\n      revert(0x00, 0x00)\n    tag_54:\n      pop\n      tag_55\n      0x04\n      dup1\n      calldatasize\n      sub\n      dup2\n      add\n      swap1\n      tag_56\n      swap2\n      swap1\n      tag_47\n      jump\t// in\n    tag_56:\n      tag_57\n      jump\t// in\n    tag_55:\n      mload(0x40)\n      tag_58\n      swap4\n      swap3\n      swap2\n      swap1\n      tag_59\n      jump\t// in\n    tag_58:\n      mload(0x40)\n      dup1\n      swap2\n      sub\n      swap1\n      return\n        /* \"PlayLand/PlayLand.sol\":2893:3003  function EnableAttractions() public view returns(string [] memory) ... */\n    tag_10:\n      callvalue\n      dup1\n      iszero\n      tag_60\n      jumpi\n      revert(0x00, 0x00)\n    tag_60:\n      pop\n      tag_61\n      tag_62\n      jump\t// in\n    tag_61:\n      mload(0x40)\n      tag_63\n      swap2\n      swap1\n      tag_38\n      jump\t// in\n    tag_63:\n      mload(0x40)\n      dup1\n      swap2\n      sub\n      swap1\n      return\n        /* \"PlayLand/PlayLand.sol\":1432:1567  function GenerateTokens(uint _numTokens) public OnlyOwner(msg.sender)... */\n    tag_11:\n      callvalue\n      dup1\n      iszero\n      tag_64\n      jumpi\n      revert(0x00, 0x00)\n    tag_64:\n      pop\n      tag_65\n      0x04\n      dup1\n      calldatasize\n      sub\n      dup2\n      add\n      swap1\n      tag_66\n      swap2\n      swap1\n      tag_21\n      jump\t// in\n    tag_66:\n      tag_67\n      jump\t// in\n    tag_65:\n      stop\n        /* \"PlayLand/PlayLand.sol\":677:1188  function purchaseToken(uint _numTokens) external payable   ... */\n    tag_12:\n      tag_68\n      0x04\n      dup1\n      calldatasize\n      sub\n      dup2\n      add\n      swap1\n      tag_69\n      swap2\n      swap1\n      tag_21\n      jump\t// in\n    tag_69:\n      tag_70\n      jump\t// in\n    tag_68:\n      stop\n        /* \"PlayLand/PlayLand.sol\":205:232  ERC20Basic public gameToken */\n    tag_13:\n      callvalue\n      dup1\n      iszero\n      tag_71\n      jumpi\n      revert(0x00, 0x00)\n    tag_71:\n      pop\n      tag_72\n      tag_73\n      jump\t// in\n    tag_72:\n      mload(0x40)\n      tag_74\n      swap2\n      swap1\n      tag_75\n      jump\t// in\n    tag_74:\n      mload(0x40)\n      dup1\n      swap2\n      sub\n      swap1\n      return\n        /* \"PlayLand/PlayLand.sol\":3011:3603  function EnjoyAttraction(string memory _nameAtraction) public ... */\n    tag_14:\n      callvalue\n      dup1\n      iszero\n      tag_76\n      jumpi\n      revert(0x00, 0x00)\n    tag_76:\n      pop\n      tag_77\n      0x04\n      dup1\n      calldatasize\n      sub\n      dup2\n      add\n      swap1\n      tag_78\n      swap2\n      swap1\n      tag_47\n      jump\t// in\n    tag_78:\n      tag_79\n      jump\t// in\n    tag_77:\n      stop\n        /* \"PlayLand/PlayLand.sol\":1317:1424  function MyTokens() public view returns(uint)... */\n    tag_15:\n      callvalue\n      dup1\n      iszero\n      tag_80\n      jumpi\n      revert(0x00, 0x00)\n    tag_80:\n      pop\n      tag_81\n      tag_82\n      jump\t// in\n    tag_81:\n      mload(0x40)\n      tag_83\n      swap2\n      swap1\n      tag_29\n      jump\t// in\n    tag_83:\n      mload(0x40)\n      dup1\n      swap2\n      sub\n      swap1\n      return\n        /* \"PlayLand/PlayLand.sol\":3742:4065  function RevertTokens(uint _numTokens) public payable ... */\n    tag_22:\n        /* \"PlayLand/PlayLand.sol\":3834:3835  0 */\n      0x00\n        /* \"PlayLand/PlayLand.sol\":3821:3831  _numTokens */\n      dup2\n        /* \"PlayLand/PlayLand.sol\":3821:3835  _numTokens > 0 */\n      gt\n        /* \"PlayLand/PlayLand.sol\":3813:3864  require(_numTokens > 0, \"Invalid number of Tokens\") */\n      tag_85\n      jumpi\n      mload(0x40)\n      0x08c379a000000000000000000000000000000000000000000000000000000000\n      dup2\n      mstore\n      0x04\n      add\n      tag_86\n      swap1\n      tag_87\n      jump\t// in\n    tag_86:\n      mload(0x40)\n      dup1\n      swap2\n      sub\n      swap1\n      revert\n    tag_85:\n        /* \"PlayLand/PlayLand.sol\":3898:3908  MyTokens() */\n      tag_88\n        /* \"PlayLand/PlayLand.sol\":3898:3906  MyTokens */\n      tag_82\n        /* \"PlayLand/PlayLand.sol\":3898:3908  MyTokens() */\n      jump\t// in\n    tag_88:\n        /* \"PlayLand/PlayLand.sol\":3884:3894  _numTokens */\n      dup2\n        /* \"PlayLand/PlayLand.sol\":3884:3908  _numTokens <= MyTokens() */\n      gt\n      iszero\n        /* \"PlayLand/PlayLand.sol\":3875:3929  require (_numTokens <= MyTokens(),\"Not Enough Tokens\") */\n      tag_89\n      jumpi\n      mload(0x40)\n      0x08c379a000000000000000000000000000000000000000000000000000000000\n      dup2\n      mstore\n      0x04\n      add\n      tag_90\n      swap1\n      tag_91\n      jump\t// in\n    tag_90:\n      mload(0x40)\n      dup1\n      swap2\n      sub\n      swap1\n      revert\n    tag_89:\n        /* \"PlayLand/PlayLand.sol\":3940:3949  gameToken */\n      0x00\n      0x00\n      swap1\n      sload\n      swap1\n      0x0100\n      exp\n      swap1\n      div\n      0xffffffffffffffffffffffffffffffffffffffff\n      and\n        /* \"PlayLand/PlayLand.sol\":3940:3967  gameToken.transfer_customer */\n      0xffffffffffffffffffffffffffffffffffffffff\n      and\n      0xd44237aa\n        /* \"PlayLand/PlayLand.sol\":3968:3978  msg.sender */\n      caller\n        /* \"PlayLand/PlayLand.sol\":3988:3992  this */\n      address\n        /* \"PlayLand/PlayLand.sol\":3995:4005  _numTokens */\n      dup5\n        /* \"PlayLand/PlayLand.sol\":3940:4006  gameToken.transfer_customer(msg.sender, address(this), _numTokens) */\n      mload(0x40)\n      dup5\n      0xffffffff\n      and\n      0xe0\n      shl\n      dup2\n      mstore\n      0x04\n      add\n      tag_92\n      swap4\n      swap3\n      swap2\n      swap1\n      tag_93\n      jump\t// in\n    tag_92:\n      0x20\n      mload(0x40)\n      dup1\n      dup4\n      sub\n      dup2\n      0x00\n      dup8\n      gas\n      call\n      iszero\n      dup1\n      iszero\n      tag_95\n      jumpi\n      returndatacopy(0x00, 0x00, returndatasize)\n      revert(0x00, returndatasize)\n    tag_95:\n      pop\n      pop\n      pop\n      pop\n      mload(0x40)\n      returndatasize\n      not(0x1f)\n      0x1f\n      dup3\n      add\n      and\n      dup3\n      add\n      dup1\n      0x40\n      mstore\n      pop\n      dup2\n      add\n      swap1\n      tag_96\n      swap2\n      swap1\n      tag_97\n      jump\t// in\n    tag_96:\n      pop\n        /* \"PlayLand/PlayLand.sol\":4025:4035  msg.sender */\n      caller\n        /* \"PlayLand/PlayLand.sol\":4017:4045  payable(msg.sender).transfer */\n      0xffffffffffffffffffffffffffffffffffffffff\n      and\n        /* \"PlayLand/PlayLand.sol\":4017:4057  payable(msg.sender).transfer(_numTokens) */\n      0x08fc\n        /* \"PlayLand/PlayLand.sol\":4046:4056  _numTokens */\n      dup3\n        /* \"PlayLand/PlayLand.sol\":4017:4057  payable(msg.sender).transfer(_numTokens) */\n      swap1\n      dup2\n      iszero\n      mul\n      swap1\n      mload(0x40)\n      0x00\n      mload(0x40)\n      dup1\n      dup4\n      sub\n      dup2\n      dup6\n      dup9\n      dup9\n      call\n      swap4\n      pop\n      pop\n      pop\n      pop\n      iszero\n      dup1\n      iszero\n      tag_99\n      jumpi\n      returndatacopy(0x00, 0x00, returndatasize)\n      revert(0x00, returndatasize)\n    tag_99:\n      pop\n        /* \"PlayLand/PlayLand.sol\":3742:4065  function RevertTokens(uint _numTokens) public payable ... */\n      pop\n      jump\t// out\n        /* \"PlayLand/PlayLand.sol\":495:540  mapping (address =>client) public client_data */\n    tag_27:\n      mstore(0x20, 0x02)\n      dup1\n      0x00\n      mstore\n      keccak256(0x00, 0x40)\n      0x00\n      swap2\n      pop\n      swap1\n      pop\n      dup1\n      0x00\n      add\n      sload\n      swap1\n      pop\n      dup2\n      jump\t// out\n        /* \"PlayLand/PlayLand.sol\":1196:1309  function balanceOf() public view returns (uint)... */\n    tag_32:\n        /* \"PlayLand/PlayLand.sol\":1238:1242  uint */\n      0x00\n        /* \"PlayLand/PlayLand.sol\":1267:1276  gameToken */\n      0x00\n      0x00\n      swap1\n      sload\n      swap1\n      0x0100\n      exp\n      swap1\n      div\n      0xffffffffffffffffffffffffffffffffffffffff\n      and\n        /* \"PlayLand/PlayLand.sol\":1267:1286  gameToken.balanceOf */\n      0xffffffffffffffffffffffffffffffffffffffff\n      and\n      0x70a08231\n        /* \"PlayLand/PlayLand.sol\":1295:1299  this */\n      address\n        /* \"PlayLand/PlayLand.sol\":1267:1301  gameToken.balanceOf(address(this)) */\n      mload(0x40)\n      dup3\n      0xffffffff\n      and\n      0xe0\n      shl\n      dup2\n      mstore\n      0x04\n      add\n      tag_101\n      swap2\n      swap1\n      tag_102\n      jump\t// in\n    tag_101:\n      0x20\n      mload(0x40)\n      dup1\n      dup4\n      sub\n      dup2\n      dup7\n      gas\n      staticcall\n      iszero\n      dup1\n      iszero\n      tag_104\n      jumpi\n      returndatacopy(0x00, 0x00, returndatasize)\n      revert(0x00, returndatasize)\n    tag_104:\n      pop\n      pop\n      pop\n      pop\n      mload(0x40)\n      returndatasize\n      not(0x1f)\n      0x1f\n      dup3\n      add\n      and\n      dup3\n      add\n      dup1\n      0x40\n      mstore\n      pop\n      dup2\n      add\n      swap1\n      tag_105\n      swap2\n      swap1\n      tag_106\n      jump\t// in\n    tag_105:\n        /* \"PlayLand/PlayLand.sol\":1260:1301  return gameToken.balanceOf(address(this)) */\n      swap1\n      pop\n        /* \"PlayLand/PlayLand.sol\":1196:1309  function balanceOf() public view returns (uint)... */\n      swap1\n      jump\t// out\n        /* \"PlayLand/PlayLand.sol\":3611:3734  function Historical() public  view returns (string [] memory)... */\n    tag_36:\n        /* \"PlayLand/PlayLand.sol\":3655:3671  string [] memory */\n      0x60\n        /* \"PlayLand/PlayLand.sol\":3696:3714  HistoryAttractions */\n      0x05\n        /* \"PlayLand/PlayLand.sol\":3696:3726  HistoryAttractions[msg.sender] */\n      0x00\n        /* \"PlayLand/PlayLand.sol\":3715:3725  msg.sender */\n      caller\n        /* \"PlayLand/PlayLand.sol\":3696:3726  HistoryAttractions[msg.sender] */\n      0xffffffffffffffffffffffffffffffffffffffff\n      and\n      0xffffffffffffffffffffffffffffffffffffffff\n      and\n      dup2\n      mstore\n      0x20\n      add\n      swap1\n      dup2\n      mstore\n      0x20\n      add\n      0x00\n      keccak256\n        /* \"PlayLand/PlayLand.sol\":3689:3726  return HistoryAttractions[msg.sender] */\n      dup1\n      sload\n      dup1\n      0x20\n      mul\n      0x20\n      add\n      mload(0x40)\n      swap1\n      dup2\n      add\n      0x40\n      mstore\n      dup1\n      swap3\n      swap2\n      swap1\n      dup2\n      dup2\n      mstore\n      0x20\n      add\n      0x00\n      swap1\n    tag_108:\n      dup3\n      dup3\n      lt\n      iszero\n      tag_109\n      jumpi\n      dup4\n      dup3\n      swap1\n      0x00\n      mstore\n      keccak256(0x00, 0x20)\n      add\n      dup1\n      sload\n      tag_111\n      swap1\n      tag_112\n      jump\t// in\n    tag_111:\n      dup1\n      0x1f\n      add\n      0x20\n      dup1\n      swap2\n      div\n      mul\n      0x20\n      add\n      mload(0x40)\n      swap1\n      dup2\n      add\n      0x40\n      mstore\n      dup1\n      swap3\n      swap2\n      swap1\n      dup2\n      dup2\n      mstore\n      0x20\n      add\n      dup3\n      dup1\n      sload\n      tag_113\n      swap1\n      tag_112\n      jump\t// in\n    tag_113:\n      dup1\n      iszero\n      tag_114\n      jumpi\n      dup1\n      0x1f\n      lt\n      tag_115\n      jumpi\n      0x0100\n      dup1\n      dup4\n      sload\n      div\n      mul\n      dup4\n      mstore\n      swap2\n      0x20\n      add\n      swap2\n      jump(tag_114)\n    tag_115:\n      dup3\n      add\n      swap2\n      swap1\n      0x00\n      mstore\n      keccak256(0x00, 0x20)\n      swap1\n    tag_116:\n      dup2\n      sload\n      dup2\n      mstore\n      swap1\n      0x01\n      add\n      swap1\n      0x20\n      add\n      dup1\n      dup4\n      gt\n      tag_116\n      jumpi\n      dup3\n      swap1\n      sub\n      0x1f\n      and\n      dup3\n      add\n      swap2\n    tag_114:\n      pop\n      pop\n      pop\n      pop\n      pop\n      dup2\n      mstore\n      0x20\n      add\n      swap1\n      0x01\n      add\n      swap1\n      jump(tag_108)\n    tag_109:\n      pop\n      pop\n      pop\n      pop\n      swap1\n      pop\n        /* \"PlayLand/PlayLand.sol\":3611:3734  function Historical() public  view returns (string [] memory)... */\n      swap1\n      jump\t// out\n        /* \"PlayLand/PlayLand.sol\":2346:2650  function AddAttraction(string memory _nameAttraction, uint price)  public OnlyOwner(msg.sender)... */\n    tag_43:\n        /* \"PlayLand/PlayLand.sol\":2430:2440  msg.sender */\n      caller\n        /* \"PlayLand/PlayLand.sol\":1652:1657  owner */\n      0x01\n      0x00\n      swap1\n      sload\n      swap1\n      0x0100\n      exp\n      swap1\n      div\n      0xffffffffffffffffffffffffffffffffffffffff\n      and\n        /* \"PlayLand/PlayLand.sol\":1638:1657  _direction == owner */\n      0xffffffffffffffffffffffffffffffffffffffff\n      and\n        /* \"PlayLand/PlayLand.sol\":1638:1648  _direction */\n      dup2\n        /* \"PlayLand/PlayLand.sol\":1638:1657  _direction == owner */\n      0xffffffffffffffffffffffffffffffffffffffff\n      and\n      eq\n        /* \"PlayLand/PlayLand.sol\":1630:1671  require(_direction == owner,\"Only Owner\") */\n      tag_118\n      jumpi\n      mload(0x40)\n      0x08c379a000000000000000000000000000000000000000000000000000000000\n      dup2\n      mstore\n      0x04\n      add\n      tag_119\n      swap1\n      tag_120\n      jump\t// in\n    tag_119:\n      mload(0x40)\n      dup1\n      swap2\n      sub\n      swap1\n      revert\n    tag_118:\n        /* \"PlayLand/PlayLand.sol\":2496:2537  attraction(_nameAttraction , price, true) */\n      mload(0x40)\n      dup1\n      0x60\n      add\n      0x40\n      mstore\n      dup1\n        /* \"PlayLand/PlayLand.sol\":2507:2522  _nameAttraction */\n      dup5\n        /* \"PlayLand/PlayLand.sol\":2496:2537  attraction(_nameAttraction , price, true) */\n      dup2\n      mstore\n      0x20\n      add\n        /* \"PlayLand/PlayLand.sol\":2525:2530  price */\n      dup4\n        /* \"PlayLand/PlayLand.sol\":2496:2537  attraction(_nameAttraction , price, true) */\n      dup2\n      mstore\n      0x20\n      add\n        /* \"PlayLand/PlayLand.sol\":2532:2536  true */\n      0x01\n        /* \"PlayLand/PlayLand.sol\":2496:2537  attraction(_nameAttraction , price, true) */\n      iszero\n      iszero\n      dup2\n      mstore\n      pop\n        /* \"PlayLand/PlayLand.sol\":2458:2476  MappingAttractions */\n      0x03\n        /* \"PlayLand/PlayLand.sol\":2477:2492  _nameAttraction */\n      dup5\n        /* \"PlayLand/PlayLand.sol\":2458:2493  MappingAttractions[_nameAttraction] */\n      mload(0x40)\n      tag_122\n      swap2\n      swap1\n      tag_123\n      jump\t// in\n    tag_122:\n      swap1\n      dup2\n      mstore\n      0x20\n      add\n      mload(0x40)\n      dup1\n      swap2\n      sub\n      swap1\n      keccak256\n        /* \"PlayLand/PlayLand.sol\":2458:2537  MappingAttractions[_nameAttraction] = attraction(_nameAttraction , price, true) */\n      0x00\n      dup3\n      add\n      mload\n      dup2\n      0x00\n      add\n      swap1\n      dup2\n      tag_124\n      swap2\n      swap1\n      tag_125\n      jump\t// in\n    tag_124:\n      pop\n      0x20\n      dup3\n      add\n      mload\n      dup2\n      0x01\n      add\n      sstore\n      0x40\n      dup3\n      add\n      mload\n      dup2\n      0x02\n      add\n      exp(0x0100, 0x00)\n      dup2\n      sload\n      dup2\n      0xff\n      mul\n      not\n      and\n      swap1\n      dup4\n      iszero\n      iszero\n      mul\n      or\n      swap1\n      sstore\n      pop\n      swap1\n      pop\n      pop\n        /* \"PlayLand/PlayLand.sol\":2550:2561  Attractions */\n      0x04\n        /* \"PlayLand/PlayLand.sol\":2567:2582  _nameAttraction */\n      dup4\n        /* \"PlayLand/PlayLand.sol\":2550:2583  Attractions.push(_nameAttraction) */\n      swap1\n      dup1\n      0x01\n      dup2\n      sload\n      add\n      dup1\n      dup3\n      sstore\n      dup1\n      swap2\n      pop\n      pop\n      0x01\n      swap1\n      sub\n      swap1\n      0x00\n      mstore\n      keccak256(0x00, 0x20)\n      add\n      0x00\n      swap1\n      swap2\n      swap1\n      swap2\n      swap1\n      swap2\n      pop\n      swap1\n      dup2\n      tag_127\n      swap2\n      swap1\n      tag_125\n      jump\t// in\n    tag_127:\n      pop\n        /* \"PlayLand/PlayLand.sol\":2599:2642  event_newAttraction(_nameAttraction, price) */\n      0xe9d43efbde24c36e087cf37a3f732cce32b387e24d01a119f8ce86f0e91d0791\n        /* \"PlayLand/PlayLand.sol\":2619:2634  _nameAttraction */\n      dup4\n        /* \"PlayLand/PlayLand.sol\":2636:2641  price */\n      dup4\n        /* \"PlayLand/PlayLand.sol\":2599:2642  event_newAttraction(_nameAttraction, price) */\n      mload(0x40)\n      tag_128\n      swap3\n      swap2\n      swap1\n      tag_129\n      jump\t// in\n    tag_128:\n      mload(0x40)\n      dup1\n      swap2\n      sub\n      swap1\n      log1\n        /* \"PlayLand/PlayLand.sol\":2346:2650  function AddAttraction(string memory _nameAttraction, uint price)  public OnlyOwner(msg.sender)... */\n      pop\n      pop\n      pop\n      jump\t// out\n        /* \"PlayLand/PlayLand.sol\":2658:2885  function DisableAttraction(string memory _nameAttraction) public OnlyOwner(msg.sender)... */\n    tag_48:\n        /* \"PlayLand/PlayLand.sol\":2733:2743  msg.sender */\n      caller\n        /* \"PlayLand/PlayLand.sol\":1652:1657  owner */\n      0x01\n      0x00\n      swap1\n      sload\n      swap1\n      0x0100\n      exp\n      swap1\n      div\n      0xffffffffffffffffffffffffffffffffffffffff\n      and\n        /* \"PlayLand/PlayLand.sol\":1638:1657  _direction == owner */\n      0xffffffffffffffffffffffffffffffffffffffff\n      and\n        /* \"PlayLand/PlayLand.sol\":1638:1648  _direction */\n      dup2\n        /* \"PlayLand/PlayLand.sol\":1638:1657  _direction == owner */\n      0xffffffffffffffffffffffffffffffffffffffff\n      and\n      eq\n        /* \"PlayLand/PlayLand.sol\":1630:1671  require(_direction == owner,\"Only Owner\") */\n      tag_131\n      jumpi\n      mload(0x40)\n      0x08c379a000000000000000000000000000000000000000000000000000000000\n      dup2\n      mstore\n      0x04\n      add\n      tag_132\n      swap1\n      tag_120\n      jump\t// in\n    tag_132:\n      mload(0x40)\n      dup1\n      swap2\n      sub\n      swap1\n      revert\n    tag_131:\n        /* \"PlayLand/PlayLand.sol\":2816:2821  false */\n      0x00\n        /* \"PlayLand/PlayLand.sol\":2761:2779  MappingAttractions */\n      0x03\n        /* \"PlayLand/PlayLand.sol\":2780:2795  _nameAttraction */\n      dup4\n        /* \"PlayLand/PlayLand.sol\":2761:2796  MappingAttractions[_nameAttraction] */\n      mload(0x40)\n      tag_134\n      swap2\n      swap1\n      tag_123\n      jump\t// in\n    tag_134:\n      swap1\n      dup2\n      mstore\n      0x20\n      add\n      mload(0x40)\n      dup1\n      swap2\n      sub\n      swap1\n      keccak256\n        /* \"PlayLand/PlayLand.sol\":2761:2813  MappingAttractions[_nameAttraction].state_attraction */\n      0x02\n      add\n      0x00\n        /* \"PlayLand/PlayLand.sol\":2761:2821  MappingAttractions[_nameAttraction].state_attraction = false */\n      0x0100\n      exp\n      dup2\n      sload\n      dup2\n      0xff\n      mul\n      not\n      and\n      swap1\n      dup4\n      iszero\n      iszero\n      mul\n      or\n      swap1\n      sstore\n      pop\n        /* \"PlayLand/PlayLand.sol\":2837:2877  event_disableAttraction(_nameAttraction) */\n      0xc860c6455f130be1c0da6283062a6472e45f2049869779d0d2cf8a87098bb551\n        /* \"PlayLand/PlayLand.sol\":2861:2876  _nameAttraction */\n      dup3\n        /* \"PlayLand/PlayLand.sol\":2837:2877  event_disableAttraction(_nameAttraction) */\n      mload(0x40)\n      tag_135\n      swap2\n      swap1\n      tag_136\n      jump\t// in\n    tag_135:\n      mload(0x40)\n      dup1\n      swap2\n      sub\n      swap1\n      log1\n        /* \"PlayLand/PlayLand.sol\":2658:2885  function DisableAttraction(string memory _nameAttraction) public OnlyOwner(msg.sender)... */\n      pop\n      pop\n      jump\t// out\n        /* \"PlayLand/PlayLand.sol\":239:267  address payable public owner */\n    tag_51:\n      0x01\n      0x00\n      swap1\n      sload\n      swap1\n      0x0100\n      exp\n      swap1\n      div\n      0xffffffffffffffffffffffffffffffffffffffff\n      and\n      dup2\n      jump\t// out\n        /* \"PlayLand/PlayLand.sol\":2041:2097  mapping (string => attraction) public MappingAttractions */\n    tag_57:\n      0x03\n      dup2\n      dup1\n      mload\n      0x20\n      dup2\n      add\n      dup3\n      add\n      dup1\n      mload\n      dup5\n      dup3\n      mstore\n      0x20\n      dup4\n      add\n      0x20\n      dup6\n      add\n      keccak256\n      dup2\n      dup4\n      mstore\n      dup1\n      swap6\n      pop\n      pop\n      pop\n      pop\n      pop\n      pop\n      0x00\n      swap2\n      pop\n      swap1\n      pop\n      dup1\n      0x00\n      add\n      dup1\n      sload\n      tag_137\n      swap1\n      tag_112\n      jump\t// in\n    tag_137:\n      dup1\n      0x1f\n      add\n      0x20\n      dup1\n      swap2\n      div\n      mul\n      0x20\n      add\n      mload(0x40)\n      swap1\n      dup2\n      add\n      0x40\n      mstore\n      dup1\n      swap3\n      swap2\n      swap1\n      dup2\n      dup2\n      mstore\n      0x20\n      add\n      dup3\n      dup1\n      sload\n      tag_138\n      swap1\n      tag_112\n      jump\t// in\n    tag_138:\n      dup1\n      iszero\n      tag_139\n      jumpi\n      dup1\n      0x1f\n      lt\n      tag_140\n      jumpi\n      0x0100\n      dup1\n      dup4\n      sload\n      div\n      mul\n      dup4\n      mstore\n      swap2\n      0x20\n      add\n      swap2\n      jump(tag_139)\n    tag_140:\n      dup3\n      add\n      swap2\n      swap1\n      0x00\n      mstore\n      keccak256(0x00, 0x20)\n      swap1\n    tag_141:\n      dup2\n      sload\n      dup2\n      mstore\n      swap1\n      0x01\n      add\n      swap1\n      0x20\n      add\n      dup1\n      dup4\n      gt\n      tag_141\n      jumpi\n      dup3\n      swap1\n      sub\n      0x1f\n      and\n      dup3\n      add\n      swap2\n    tag_139:\n      pop\n      pop\n      pop\n      pop\n      pop\n      swap1\n      dup1\n      0x01\n      add\n      sload\n      swap1\n      dup1\n      0x02\n      add\n      0x00\n      swap1\n      sload\n      swap1\n      0x0100\n      exp\n      swap1\n      div\n      0xff\n      and\n      swap1\n      pop\n      dup4\n      jump\t// out\n        /* \"PlayLand/PlayLand.sol\":2893:3003  function EnableAttractions() public view returns(string [] memory) ... */\n    tag_62:\n        /* \"PlayLand/PlayLand.sol\":2942:2958  string [] memory */\n      0x60\n        /* \"PlayLand/PlayLand.sol\":2984:2995  Attractions */\n      0x04\n        /* \"PlayLand/PlayLand.sol\":2977:2995  return Attractions */\n      dup1\n      sload\n      dup1\n      0x20\n      mul\n      0x20\n      add\n      mload(0x40)\n      swap1\n      dup2\n      add\n      0x40\n      mstore\n      dup1\n      swap3\n      swap2\n      swap1\n      dup2\n      dup2\n      mstore\n      0x20\n      add\n      0x00\n      swap1\n    tag_143:\n      dup3\n      dup3\n      lt\n      iszero\n      tag_144\n      jumpi\n      dup4\n      dup3\n      swap1\n      0x00\n      mstore\n      keccak256(0x00, 0x20)\n      add\n      dup1\n      sload\n      tag_146\n      swap1\n      tag_112\n      jump\t// in\n    tag_146:\n      dup1\n      0x1f\n      add\n      0x20\n      dup1\n      swap2\n      div\n      mul\n      0x20\n      add\n      mload(0x40)\n      swap1\n      dup2\n      add\n      0x40\n      mstore\n      dup1\n      swap3\n      swap2\n      swap1\n      dup2\n      dup2\n      mstore\n      0x20\n      add\n      dup3\n      dup1\n      sload\n      tag_147\n      swap1\n      tag_112\n      jump\t// in\n    tag_147:\n      dup1\n      iszero\n      tag_148\n      jumpi\n      dup1\n      0x1f\n      lt\n      tag_149\n      jumpi\n      0x0100\n      dup1\n      dup4\n      sload\n      div\n      mul\n      dup4\n      mstore\n      swap2\n      0x20\n      add\n      swap2\n      jump(tag_148)\n    tag_149:\n      dup3\n      add\n      swap2\n      swap1\n      0x00\n      mstore\n      keccak256(0x00, 0x20)\n      swap1\n    tag_150:\n      dup2\n      sload\n      dup2\n      mstore\n      swap1\n      0x01\n      add\n      swap1\n      0x20\n      add\n      dup1\n      dup4\n      gt\n      tag_150\n      jumpi\n      dup3\n      swap1\n      sub\n      0x1f\n      and\n      dup3\n      add\n      swap2\n    tag_148:\n      pop\n      pop\n      pop\n      pop\n      pop\n      dup2\n      mstore\n      0x20\n      add\n      swap1\n      0x01\n      add\n      swap1\n      jump(tag_143)\n    tag_144:\n      pop\n      pop\n      pop\n      pop\n      swap1\n      pop\n        /* \"PlayLand/PlayLand.sol\":2893:3003  function EnableAttractions() public view returns(string [] memory) ... */\n      swap1\n      jump\t// out\n        /* \"PlayLand/PlayLand.sol\":1432:1567  function GenerateTokens(uint _numTokens) public OnlyOwner(msg.sender)... */\n    tag_67:\n        /* \"PlayLand/PlayLand.sol\":1490:1500  msg.sender */\n      caller\n        /* \"PlayLand/PlayLand.sol\":1652:1657  owner */\n      0x01\n      0x00\n      swap1\n      sload\n      swap1\n      0x0100\n      exp\n      swap1\n      div\n      0xffffffffffffffffffffffffffffffffffffffff\n      and\n        /* \"PlayLand/PlayLand.sol\":1638:1657  _direction == owner */\n      0xffffffffffffffffffffffffffffffffffffffff\n      and\n        /* \"PlayLand/PlayLand.sol\":1638:1648  _direction */\n      dup2\n        /* \"PlayLand/PlayLand.sol\":1638:1657  _direction == owner */\n      0xffffffffffffffffffffffffffffffffffffffff\n      and\n      eq\n        /* \"PlayLand/PlayLand.sol\":1630:1671  require(_direction == owner,\"Only Owner\") */\n      tag_152\n      jumpi\n      mload(0x40)\n      0x08c379a000000000000000000000000000000000000000000000000000000000\n      dup2\n      mstore\n      0x04\n      add\n      tag_153\n      swap1\n      tag_120\n      jump\t// in\n    tag_153:\n      mload(0x40)\n      dup1\n      swap2\n      sub\n      swap1\n      revert\n    tag_152:\n        /* \"PlayLand/PlayLand.sol\":1518:1527  gameToken */\n      0x00\n      0x00\n      swap1\n      sload\n      swap1\n      0x0100\n      exp\n      swap1\n      div\n      0xffffffffffffffffffffffffffffffffffffffff\n      and\n        /* \"PlayLand/PlayLand.sol\":1518:1547  gameToken.increaseTotalSupply */\n      0xffffffffffffffffffffffffffffffffffffffff\n      and\n      0x1d43cc98\n        /* \"PlayLand/PlayLand.sol\":1548:1558  _numTokens */\n      dup4\n        /* \"PlayLand/PlayLand.sol\":1518:1559  gameToken.increaseTotalSupply(_numTokens) */\n      mload(0x40)\n      dup3\n      0xffffffff\n      and\n      0xe0\n      shl\n      dup2\n      mstore\n      0x04\n      add\n      tag_155\n      swap2\n      swap1\n      tag_29\n      jump\t// in\n    tag_155:\n      0x00\n      mload(0x40)\n      dup1\n      dup4\n      sub\n      dup2\n      0x00\n      dup8\n      dup1\n      extcodesize\n      iszero\n      dup1\n      iszero\n      tag_156\n      jumpi\n      revert(0x00, 0x00)\n    tag_156:\n      pop\n      gas\n      call\n      iszero\n      dup1\n      iszero\n      tag_158\n      jumpi\n      returndatacopy(0x00, 0x00, returndatasize)\n      revert(0x00, returndatasize)\n    tag_158:\n      pop\n      pop\n      pop\n      pop\n        /* \"PlayLand/PlayLand.sol\":1432:1567  function GenerateTokens(uint _numTokens) public OnlyOwner(msg.sender)... */\n      pop\n      pop\n      jump\t// out\n        /* \"PlayLand/PlayLand.sol\":677:1188  function purchaseToken(uint _numTokens) external payable   ... */\n    tag_70:\n        /* \"PlayLand/PlayLand.sol\":753:767  uint tokenCost */\n      0x00\n        /* \"PlayLand/PlayLand.sol\":772:795  tokensPrice(_numTokens) */\n      tag_160\n        /* \"PlayLand/PlayLand.sol\":784:794  _numTokens */\n      dup3\n        /* \"PlayLand/PlayLand.sol\":772:783  tokensPrice */\n      tag_161\n        /* \"PlayLand/PlayLand.sol\":772:795  tokensPrice(_numTokens) */\n      jump\t// in\n    tag_160:\n        /* \"PlayLand/PlayLand.sol\":753:795  uint tokenCost  =  tokensPrice(_numTokens) */\n      swap1\n      pop\n        /* \"PlayLand/PlayLand.sol\":829:838  tokenCost */\n      dup1\n        /* \"PlayLand/PlayLand.sol\":816:825  msg.value */\n      callvalue\n        /* \"PlayLand/PlayLand.sol\":816:838  msg.value >= tokenCost */\n      lt\n      iszero\n        /* \"PlayLand/PlayLand.sol\":808:861  require(msg.value >= tokenCost, \"Insufficient Funds\") */\n      tag_162\n      jumpi\n      mload(0x40)\n      0x08c379a000000000000000000000000000000000000000000000000000000000\n      dup2\n      mstore\n      0x04\n      add\n      tag_163\n      swap1\n      tag_164\n      jump\t// in\n    tag_163:\n      mload(0x40)\n      dup1\n      swap2\n      sub\n      swap1\n      revert\n    tag_162:\n        /* \"PlayLand/PlayLand.sol\":872:888  uint returnValue */\n      0x00\n        /* \"PlayLand/PlayLand.sol\":903:912  tokenCost */\n      dup2\n        /* \"PlayLand/PlayLand.sol\":891:900  msg.value */\n      callvalue\n        /* \"PlayLand/PlayLand.sol\":891:912  msg.value - tokenCost */\n      tag_165\n      swap2\n      swap1\n      tag_166\n      jump\t// in\n    tag_165:\n        /* \"PlayLand/PlayLand.sol\":872:912  uint returnValue = msg.value - tokenCost */\n      swap1\n      pop\n        /* \"PlayLand/PlayLand.sol\":931:941  msg.sender */\n      caller\n        /* \"PlayLand/PlayLand.sol\":923:951  payable(msg.sender).transfer */\n      0xffffffffffffffffffffffffffffffffffffffff\n      and\n        /* \"PlayLand/PlayLand.sol\":923:964  payable(msg.sender).transfer(returnValue) */\n      0x08fc\n        /* \"PlayLand/PlayLand.sol\":952:963  returnValue */\n      dup3\n        /* \"PlayLand/PlayLand.sol\":923:964  payable(msg.sender).transfer(returnValue) */\n      swap1\n      dup2\n      iszero\n      mul\n      swap1\n      mload(0x40)\n      0x00\n      mload(0x40)\n      dup1\n      dup4\n      sub\n      dup2\n      dup6\n      dup9\n      dup9\n      call\n      swap4\n      pop\n      pop\n      pop\n      pop\n      iszero\n      dup1\n      iszero\n      tag_168\n      jumpi\n      returndatacopy(0x00, 0x00, returndatasize)\n      revert(0x00, returndatasize)\n    tag_168:\n      pop\n        /* \"PlayLand/PlayLand.sol\":975:987  uint Balance */\n      0x00\n        /* \"PlayLand/PlayLand.sol\":990:1001  balanceOf() */\n      tag_169\n        /* \"PlayLand/PlayLand.sol\":990:999  balanceOf */\n      tag_32\n        /* \"PlayLand/PlayLand.sol\":990:1001  balanceOf() */\n      jump\t// in\n    tag_169:\n        /* \"PlayLand/PlayLand.sol\":975:1001  uint Balance = balanceOf() */\n      swap1\n      pop\n        /* \"PlayLand/PlayLand.sol\":1034:1041  Balance */\n      dup1\n        /* \"PlayLand/PlayLand.sol\":1021:1031  _numTokens */\n      dup5\n        /* \"PlayLand/PlayLand.sol\":1021:1041  _numTokens <=Balance */\n      gt\n      iszero\n        /* \"PlayLand/PlayLand.sol\":1012:1063  require( _numTokens <=Balance, \"Not Enough Tokens\") */\n      tag_170\n      jumpi\n      mload(0x40)\n      0x08c379a000000000000000000000000000000000000000000000000000000000\n      dup2\n      mstore\n      0x04\n      add\n      tag_171\n      swap1\n      tag_91\n      jump\t// in\n    tag_171:\n      mload(0x40)\n      dup1\n      swap2\n      sub\n      swap1\n      revert\n    tag_170:\n        /* \"PlayLand/PlayLand.sol\":1074:1083  gameToken */\n      0x00\n      0x00\n      swap1\n      sload\n      swap1\n      0x0100\n      exp\n      swap1\n      div\n      0xffffffffffffffffffffffffffffffffffffffff\n      and\n        /* \"PlayLand/PlayLand.sol\":1074:1092  gameToken.transfer */\n      0xffffffffffffffffffffffffffffffffffffffff\n      and\n      0xa9059cbb\n        /* \"PlayLand/PlayLand.sol\":1093:1103  msg.sender */\n      caller\n        /* \"PlayLand/PlayLand.sol\":1105:1115  _numTokens */\n      dup7\n        /* \"PlayLand/PlayLand.sol\":1074:1116  gameToken.transfer(msg.sender, _numTokens) */\n      mload(0x40)\n      dup4\n      0xffffffff\n      and\n      0xe0\n      shl\n      dup2\n      mstore\n      0x04\n      add\n      tag_172\n      swap3\n      swap2\n      swap1\n      tag_173\n      jump\t// in\n    tag_172:\n      0x20\n      mload(0x40)\n      dup1\n      dup4\n      sub\n      dup2\n      0x00\n      dup8\n      gas\n      call\n      iszero\n      dup1\n      iszero\n      tag_175\n      jumpi\n      returndatacopy(0x00, 0x00, returndatasize)\n      revert(0x00, returndatasize)\n    tag_175:\n      pop\n      pop\n      pop\n      pop\n      mload(0x40)\n      returndatasize\n      not(0x1f)\n      0x1f\n      dup3\n      add\n      and\n      dup3\n      add\n      dup1\n      0x40\n      mstore\n      pop\n      dup2\n      add\n      swap1\n      tag_176\n      swap2\n      swap1\n      tag_97\n      jump\t// in\n    tag_176:\n      pop\n        /* \"PlayLand/PlayLand.sol\":1170:1180  _numTokens */\n      dup4\n        /* \"PlayLand/PlayLand.sol\":1127:1138  client_data */\n      0x02\n        /* \"PlayLand/PlayLand.sol\":1127:1150  client_data[msg.sender] */\n      0x00\n        /* \"PlayLand/PlayLand.sol\":1139:1149  msg.sender */\n      caller\n        /* \"PlayLand/PlayLand.sol\":1127:1150  client_data[msg.sender] */\n      0xffffffffffffffffffffffffffffffffffffffff\n      and\n      0xffffffffffffffffffffffffffffffffffffffff\n      and\n      dup2\n      mstore\n      0x20\n      add\n      swap1\n      dup2\n      mstore\n      0x20\n      add\n      0x00\n      keccak256\n        /* \"PlayLand/PlayLand.sol\":1127:1166  client_data[msg.sender].tokes_purchased */\n      0x00\n      add\n      0x00\n        /* \"PlayLand/PlayLand.sol\":1127:1180  client_data[msg.sender].tokes_purchased += _numTokens */\n      dup3\n      dup3\n      sload\n      tag_177\n      swap2\n      swap1\n      tag_178\n      jump\t// in\n    tag_177:\n      swap3\n      pop\n      pop\n      dup2\n      swap1\n      sstore\n      pop\n        /* \"PlayLand/PlayLand.sol\":742:1188  {... */\n      pop\n      pop\n      pop\n        /* \"PlayLand/PlayLand.sol\":677:1188  function purchaseToken(uint _numTokens) external payable   ... */\n      pop\n      jump\t// out\n        /* \"PlayLand/PlayLand.sol\":205:232  ERC20Basic public gameToken */\n    tag_73:\n      0x00\n      0x00\n      swap1\n      sload\n      swap1\n      0x0100\n      exp\n      swap1\n      div\n      0xffffffffffffffffffffffffffffffffffffffff\n      and\n      dup2\n      jump\t// out\n        /* \"PlayLand/PlayLand.sol\":3011:3603  function EnjoyAttraction(string memory _nameAtraction) public ... */\n    tag_79:\n        /* \"PlayLand/PlayLand.sol\":3090:3111  uint tokes_attraction */\n      0x00\n        /* \"PlayLand/PlayLand.sol\":3114:3132  MappingAttractions */\n      0x03\n        /* \"PlayLand/PlayLand.sol\":3133:3147  _nameAtraction */\n      dup3\n        /* \"PlayLand/PlayLand.sol\":3114:3148  MappingAttractions[_nameAtraction] */\n      mload(0x40)\n      tag_180\n      swap2\n      swap1\n      tag_123\n      jump\t// in\n    tag_180:\n      swap1\n      dup2\n      mstore\n      0x20\n      add\n      mload(0x40)\n      dup1\n      swap2\n      sub\n      swap1\n      keccak256\n        /* \"PlayLand/PlayLand.sol\":3114:3165  MappingAttractions[_nameAtraction].price_attraction */\n      0x01\n      add\n      sload\n        /* \"PlayLand/PlayLand.sol\":3090:3165  uint tokes_attraction = MappingAttractions[_nameAtraction].price_attraction */\n      swap1\n      pop\n        /* \"PlayLand/PlayLand.sol\":3241:3245  true */\n      0x01\n        /* \"PlayLand/PlayLand.sol\":3186:3245  MappingAttractions[_nameAtraction].state_attraction == true */\n      iszero\n      iszero\n        /* \"PlayLand/PlayLand.sol\":3186:3204  MappingAttractions */\n      0x03\n        /* \"PlayLand/PlayLand.sol\":3205:3219  _nameAtraction */\n      dup4\n        /* \"PlayLand/PlayLand.sol\":3186:3220  MappingAttractions[_nameAtraction] */\n      mload(0x40)\n      tag_181\n      swap2\n      swap1\n      tag_123\n      jump\t// in\n    tag_181:\n      swap1\n      dup2\n      mstore\n      0x20\n      add\n      mload(0x40)\n      dup1\n      swap2\n      sub\n      swap1\n      keccak256\n        /* \"PlayLand/PlayLand.sol\":3186:3237  MappingAttractions[_nameAtraction].state_attraction */\n      0x02\n      add\n      0x00\n      swap1\n      sload\n      swap1\n      0x0100\n      exp\n      swap1\n      div\n      0xff\n      and\n        /* \"PlayLand/PlayLand.sol\":3186:3245  MappingAttractions[_nameAtraction].state_attraction == true */\n      iszero\n      iszero\n      eq\n        /* \"PlayLand/PlayLand.sol\":3177:3284  require( MappingAttractions[_nameAtraction].state_attraction == true,... */\n      tag_182\n      jumpi\n      mload(0x40)\n      0x08c379a000000000000000000000000000000000000000000000000000000000\n      dup2\n      mstore\n      0x04\n      add\n      tag_183\n      swap1\n      tag_184\n      jump\t// in\n    tag_183:\n      mload(0x40)\n      dup1\n      swap2\n      sub\n      swap1\n      revert\n    tag_182:\n        /* \"PlayLand/PlayLand.sol\":3327:3337  MyTokens() */\n      tag_185\n        /* \"PlayLand/PlayLand.sol\":3327:3335  MyTokens */\n      tag_82\n        /* \"PlayLand/PlayLand.sol\":3327:3337  MyTokens() */\n      jump\t// in\n    tag_185:\n        /* \"PlayLand/PlayLand.sol\":3307:3323  tokes_attraction */\n      dup2\n        /* \"PlayLand/PlayLand.sol\":3307:3337  tokes_attraction <= MyTokens() */\n      gt\n      iszero\n        /* \"PlayLand/PlayLand.sol\":3299:3370  require(tokes_attraction <= MyTokens(),\"You do not have enough tokens\") */\n      tag_186\n      jumpi\n      mload(0x40)\n      0x08c379a000000000000000000000000000000000000000000000000000000000\n      dup2\n      mstore\n      0x04\n      add\n      tag_187\n      swap1\n      tag_188\n      jump\t// in\n    tag_187:\n      mload(0x40)\n      dup1\n      swap2\n      sub\n      swap1\n      revert\n    tag_186:\n        /* \"PlayLand/PlayLand.sol\":3391:3400  gameToken */\n      0x00\n      0x00\n      swap1\n      sload\n      swap1\n      0x0100\n      exp\n      swap1\n      div\n      0xffffffffffffffffffffffffffffffffffffffff\n      and\n        /* \"PlayLand/PlayLand.sol\":3391:3418  gameToken.transfer_customer */\n      0xffffffffffffffffffffffffffffffffffffffff\n      and\n      0xd44237aa\n        /* \"PlayLand/PlayLand.sol\":3419:3429  msg.sender */\n      caller\n        /* \"PlayLand/PlayLand.sol\":3438:3442  this */\n      address\n        /* \"PlayLand/PlayLand.sol\":3445:3461  tokes_attraction */\n      dup5\n        /* \"PlayLand/PlayLand.sol\":3391:3462  gameToken.transfer_customer(msg.sender,address(this), tokes_attraction) */\n      mload(0x40)\n      dup5\n      0xffffffff\n      and\n      0xe0\n      shl\n      dup2\n      mstore\n      0x04\n      add\n      tag_189\n      swap4\n      swap3\n      swap2\n      swap1\n      tag_93\n      jump\t// in\n    tag_189:\n      0x20\n      mload(0x40)\n      dup1\n      dup4\n      sub\n      dup2\n      0x00\n      dup8\n      gas\n      call\n      iszero\n      dup1\n      iszero\n      tag_191\n      jumpi\n      returndatacopy(0x00, 0x00, returndatasize)\n      revert(0x00, returndatasize)\n    tag_191:\n      pop\n      pop\n      pop\n      pop\n      mload(0x40)\n      returndatasize\n      not(0x1f)\n      0x1f\n      dup3\n      add\n      and\n      dup3\n      add\n      dup1\n      0x40\n      mstore\n      pop\n      dup2\n      add\n      swap1\n      tag_192\n      swap2\n      swap1\n      tag_97\n      jump\t// in\n    tag_192:\n      pop\n        /* \"PlayLand/PlayLand.sol\":3473:3491  HistoryAttractions */\n      0x05\n        /* \"PlayLand/PlayLand.sol\":3473:3503  HistoryAttractions[msg.sender] */\n      0x00\n        /* \"PlayLand/PlayLand.sol\":3492:3502  msg.sender */\n      caller\n        /* \"PlayLand/PlayLand.sol\":3473:3503  HistoryAttractions[msg.sender] */\n      0xffffffffffffffffffffffffffffffffffffffff\n      and\n      0xffffffffffffffffffffffffffffffffffffffff\n      and\n      dup2\n      mstore\n      0x20\n      add\n      swap1\n      dup2\n      mstore\n      0x20\n      add\n      0x00\n      keccak256\n        /* \"PlayLand/PlayLand.sol\":3509:3523  _nameAtraction */\n      dup3\n        /* \"PlayLand/PlayLand.sol\":3473:3524  HistoryAttractions[msg.sender].push(_nameAtraction) */\n      swap1\n      dup1\n      0x01\n      dup2\n      sload\n      add\n      dup1\n      dup3\n      sstore\n      dup1\n      swap2\n      pop\n      pop\n      0x01\n      swap1\n      sub\n      swap1\n      0x00\n      mstore\n      keccak256(0x00, 0x20)\n      add\n      0x00\n      swap1\n      swap2\n      swap1\n      swap2\n      swap1\n      swap2\n      pop\n      swap1\n      dup2\n      tag_194\n      swap2\n      swap1\n      tag_125\n      jump\t// in\n    tag_194:\n      pop\n        /* \"PlayLand/PlayLand.sol\":3540:3595  event_enjoyAttraction(_nameAtraction, tokes_attraction) */\n      0xcb7dfffcc32c1eb4d24e329c14d80b43efa606ce775da2af949fcaf930d33297\n        /* \"PlayLand/PlayLand.sol\":3562:3576  _nameAtraction */\n      dup3\n        /* \"PlayLand/PlayLand.sol\":3578:3594  tokes_attraction */\n      dup3\n        /* \"PlayLand/PlayLand.sol\":3540:3595  event_enjoyAttraction(_nameAtraction, tokes_attraction) */\n      mload(0x40)\n      tag_195\n      swap3\n      swap2\n      swap1\n      tag_129\n      jump\t// in\n    tag_195:\n      mload(0x40)\n      dup1\n      swap2\n      sub\n      swap1\n      log1\n        /* \"PlayLand/PlayLand.sol\":3079:3603  {... */\n      pop\n        /* \"PlayLand/PlayLand.sol\":3011:3603  function EnjoyAttraction(string memory _nameAtraction) public ... */\n      pop\n      jump\t// out\n        /* \"PlayLand/PlayLand.sol\":1317:1424  function MyTokens() public view returns(uint)... */\n    tag_82:\n        /* \"PlayLand/PlayLand.sol\":1357:1361  uint */\n      0x00\n        /* \"PlayLand/PlayLand.sol\":1385:1394  gameToken */\n      0x00\n      0x00\n      swap1\n      sload\n      swap1\n      0x0100\n      exp\n      swap1\n      div\n      0xffffffffffffffffffffffffffffffffffffffff\n      and\n        /* \"PlayLand/PlayLand.sol\":1385:1404  gameToken.balanceOf */\n      0xffffffffffffffffffffffffffffffffffffffff\n      and\n      0x70a08231\n        /* \"PlayLand/PlayLand.sol\":1405:1415  msg.sender */\n      caller\n        /* \"PlayLand/PlayLand.sol\":1385:1416  gameToken.balanceOf(msg.sender) */\n      mload(0x40)\n      dup3\n      0xffffffff\n      and\n      0xe0\n      shl\n      dup2\n      mstore\n      0x04\n      add\n      tag_197\n      swap2\n      swap1\n      tag_102\n      jump\t// in\n    tag_197:\n      0x20\n      mload(0x40)\n      dup1\n      dup4\n      sub\n      dup2\n      dup7\n      gas\n      staticcall\n      iszero\n      dup1\n      iszero\n      tag_199\n      jumpi\n      returndatacopy(0x00, 0x00, returndatasize)\n      revert(0x00, returndatasize)\n    tag_199:\n      pop\n      pop\n      pop\n      pop\n      mload(0x40)\n      returndatasize\n      not(0x1f)\n      0x1f\n      dup3\n      add\n      and\n      dup3\n      add\n      dup1\n      0x40\n      mstore\n      pop\n      dup2\n      add\n      swap1\n      tag_200\n      swap2\n      swap1\n      tag_106\n      jump\t// in\n    tag_200:\n        /* \"PlayLand/PlayLand.sol\":1378:1416  return gameToken.balanceOf(msg.sender) */\n      swap1\n      pop\n        /* \"PlayLand/PlayLand.sol\":1317:1424  function MyTokens() public view returns(uint)... */\n      swap1\n      jump\t// out\n        /* \"PlayLand/PlayLand.sol\":549:669  function tokensPrice(uint _numTokens) internal  pure returns (uint)... */\n    tag_161:\n        /* \"PlayLand/PlayLand.sol\":611:615  uint */\n      0x00\n        /* \"PlayLand/PlayLand.sol\":653:660  1 ether */\n      0x0de0b6b3a7640000\n        /* \"PlayLand/PlayLand.sol\":641:651  _numTokens */\n      dup3\n        /* \"PlayLand/PlayLand.sol\":641:661  _numTokens*(1 ether) */\n      tag_202\n      swap2\n      swap1\n      tag_203\n      jump\t// in\n    tag_202:\n        /* \"PlayLand/PlayLand.sol\":633:661  return  _numTokens*(1 ether) */\n      swap1\n      pop\n        /* \"PlayLand/PlayLand.sol\":549:669  function tokensPrice(uint _numTokens) internal  pure returns (uint)... */\n      swap2\n      swap1\n      pop\n      jump\t// out\n        /* \"#utility.yul\":7:82   */\n    tag_204:\n        /* \"#utility.yul\":40:46   */\n      0x00\n        /* \"#utility.yul\":73:75   */\n      0x40\n        /* \"#utility.yul\":67:76   */\n      mload\n        /* \"#utility.yul\":57:76   */\n      swap1\n      pop\n        /* \"#utility.yul\":7:82   */\n      swap1\n      jump\t// out\n        /* \"#utility.yul\":88:205   */\n    tag_205:\n        /* \"#utility.yul\":197:198   */\n      0x00\n        /* \"#utility.yul\":194:195   */\n      0x00\n        /* \"#utility.yul\":187:199   */\n      revert\n        /* \"#utility.yul\":211:328   */\n    tag_206:\n        /* \"#utility.yul\":320:321   */\n      0x00\n        /* \"#utility.yul\":317:318   */\n      0x00\n        /* \"#utility.yul\":310:322   */\n      revert\n        /* \"#utility.yul\":334:411   */\n    tag_207:\n        /* \"#utility.yul\":371:378   */\n      0x00\n        /* \"#utility.yul\":400:405   */\n      dup2\n        /* \"#utility.yul\":389:405   */\n      swap1\n      pop\n        /* \"#utility.yul\":334:411   */\n      swap2\n      swap1\n      pop\n      jump\t// out\n        /* \"#utility.yul\":417:539   */\n    tag_208:\n        /* \"#utility.yul\":490:514   */\n      tag_286\n        /* \"#utility.yul\":508:513   */\n      dup2\n        /* \"#utility.yul\":490:514   */\n      tag_207\n      jump\t// in\n    tag_286:\n        /* \"#utility.yul\":483:488   */\n      dup2\n        /* \"#utility.yul\":480:515   */\n      eq\n        /* \"#utility.yul\":470:533   */\n      tag_287\n      jumpi\n        /* \"#utility.yul\":529:530   */\n      0x00\n        /* \"#utility.yul\":526:527   */\n      0x00\n        /* \"#utility.yul\":519:531   */\n      revert\n        /* \"#utility.yul\":470:533   */\n    tag_287:\n        /* \"#utility.yul\":417:539   */\n      pop\n      jump\t// out\n        /* \"#utility.yul\":545:684   */\n    tag_209:\n        /* \"#utility.yul\":591:596   */\n      0x00\n        /* \"#utility.yul\":629:635   */\n      dup2\n        /* \"#utility.yul\":616:636   */\n      calldataload\n        /* \"#utility.yul\":607:636   */\n      swap1\n      pop\n        /* \"#utility.yul\":645:678   */\n      tag_289\n        /* \"#utility.yul\":672:677   */\n      dup2\n        /* \"#utility.yul\":645:678   */\n      tag_208\n      jump\t// in\n    tag_289:\n        /* \"#utility.yul\":545:684   */\n      swap3\n      swap2\n      pop\n      pop\n      jump\t// out\n        /* \"#utility.yul\":690:1019   */\n    tag_21:\n        /* \"#utility.yul\":749:755   */\n      0x00\n        /* \"#utility.yul\":798:800   */\n      0x20\n        /* \"#utility.yul\":786:795   */\n      dup3\n        /* \"#utility.yul\":777:784   */\n      dup5\n        /* \"#utility.yul\":773:796   */\n      sub\n        /* \"#utility.yul\":769:801   */\n      slt\n        /* \"#utility.yul\":766:885   */\n      iszero\n      tag_291\n      jumpi\n        /* \"#utility.yul\":804:883   */\n      tag_292\n      tag_205\n      jump\t// in\n    tag_292:\n        /* \"#utility.yul\":766:885   */\n    tag_291:\n        /* \"#utility.yul\":924:925   */\n      0x00\n        /* \"#utility.yul\":949:1002   */\n      tag_293\n        /* \"#utility.yul\":994:1001   */\n      dup5\n        /* \"#utility.yul\":985:991   */\n      dup3\n        /* \"#utility.yul\":974:983   */\n      dup6\n        /* \"#utility.yul\":970:992   */\n      add\n        /* \"#utility.yul\":949:1002   */\n      tag_209\n      jump\t// in\n    tag_293:\n        /* \"#utility.yul\":939:1002   */\n      swap2\n      pop\n        /* \"#utility.yul\":895:1012   */\n      pop\n        /* \"#utility.yul\":690:1019   */\n      swap3\n      swap2\n      pop\n      pop\n      jump\t// out\n        /* \"#utility.yul\":1025:1151   */\n    tag_210:\n        /* \"#utility.yul\":1062:1069   */\n      0x00\n        /* \"#utility.yul\":1102:1144   */\n      0xffffffffffffffffffffffffffffffffffffffff\n        /* \"#utility.yul\":1095:1100   */\n      dup3\n        /* \"#utility.yul\":1091:1145   */\n      and\n        /* \"#utility.yul\":1080:1145   */\n      swap1\n      pop\n        /* \"#utility.yul\":1025:1151   */\n      swap2\n      swap1\n      pop\n      jump\t// out\n        /* \"#utility.yul\":1157:1253   */\n    tag_211:\n        /* \"#utility.yul\":1194:1201   */\n      0x00\n        /* \"#utility.yul\":1223:1247   */\n      tag_296\n        /* \"#utility.yul\":1241:1246   */\n      dup3\n        /* \"#utility.yul\":1223:1247   */\n      tag_210\n      jump\t// in\n    tag_296:\n        /* \"#utility.yul\":1212:1247   */\n      swap1\n      pop\n        /* \"#utility.yul\":1157:1253   */\n      swap2\n      swap1\n      pop\n      jump\t// out\n        /* \"#utility.yul\":1259:1381   */\n    tag_212:\n        /* \"#utility.yul\":1332:1356   */\n      tag_298\n        /* \"#utility.yul\":1350:1355   */\n      dup2\n        /* \"#utility.yul\":1332:1356   */\n      tag_211\n      jump\t// in\n    tag_298:\n        /* \"#utility.yul\":1325:1330   */\n      dup2\n        /* \"#utility.yul\":1322:1357   */\n      eq\n        /* \"#utility.yul\":1312:1375   */\n      tag_299\n      jumpi\n        /* \"#utility.yul\":1371:1372   */\n      0x00\n        /* \"#utility.yul\":1368:1369   */\n      0x00\n        /* \"#utility.yul\":1361:1373   */\n      revert\n        /* \"#utility.yul\":1312:1375   */\n    tag_299:\n        /* \"#utility.yul\":1259:1381   */\n      pop\n      jump\t// out\n        /* \"#utility.yul\":1387:1526   */\n    tag_213:\n        /* \"#utility.yul\":1433:1438   */\n      0x00\n        /* \"#utility.yul\":1471:1477   */\n      dup2\n        /* \"#utility.yul\":1458:1478   */\n      calldataload\n        /* \"#utility.yul\":1449:1478   */\n      swap1\n      pop\n        /* \"#utility.yul\":1487:1520   */\n      tag_301\n        /* \"#utility.yul\":1514:1519   */\n      dup2\n        /* \"#utility.yul\":1487:1520   */\n      tag_212\n      jump\t// in\n    tag_301:\n        /* \"#utility.yul\":1387:1526   */\n      swap3\n      swap2\n      pop\n      pop\n      jump\t// out\n        /* \"#utility.yul\":1532:1861   */\n    tag_26:\n        /* \"#utility.yul\":1591:1597   */\n      0x00\n        /* \"#utility.yul\":1640:1642   */\n      0x20\n        /* \"#utility.yul\":1628:1637   */\n      dup3\n        /* \"#utility.yul\":1619:1626   */\n      dup5\n        /* \"#utility.yul\":1615:1638   */\n      sub\n        /* \"#utility.yul\":1611:1643   */\n      slt\n        /* \"#utility.yul\":1608:1727   */\n      iszero\n      tag_303\n      jumpi\n        /* \"#utility.yul\":1646:1725   */\n      tag_304\n      tag_205\n      jump\t// in\n    tag_304:\n        /* \"#utility.yul\":1608:1727   */\n    tag_303:\n        /* \"#utility.yul\":1766:1767   */\n      0x00\n        /* \"#utility.yul\":1791:1844   */\n      tag_305\n        /* \"#utility.yul\":1836:1843   */\n      dup5\n        /* \"#utility.yul\":1827:1833   */\n      dup3\n        /* \"#utility.yul\":1816:1825   */\n      dup6\n        /* \"#utility.yul\":1812:1834   */\n      add\n        /* \"#utility.yul\":1791:1844   */\n      tag_213\n      jump\t// in\n    tag_305:\n        /* \"#utility.yul\":1781:1844   */\n      swap2\n      pop\n        /* \"#utility.yul\":1737:1854   */\n      pop\n        /* \"#utility.yul\":1532:1861   */\n      swap3\n      swap2\n      pop\n      pop\n      jump\t// out\n        /* \"#utility.yul\":1867:1985   */\n    tag_214:\n        /* \"#utility.yul\":1954:1978   */\n      tag_307\n        /* \"#utility.yul\":1972:1977   */\n      dup2\n        /* \"#utility.yul\":1954:1978   */\n      tag_207\n      jump\t// in\n    tag_307:\n        /* \"#utility.yul\":1949:1952   */\n      dup3\n        /* \"#utility.yul\":1942:1979   */\n      mstore\n        /* \"#utility.yul\":1867:1985   */\n      pop\n      pop\n      jump\t// out\n        /* \"#utility.yul\":1991:2213   */\n    tag_29:\n        /* \"#utility.yul\":2084:2088   */\n      0x00\n        /* \"#utility.yul\":2122:2124   */\n      0x20\n        /* \"#utility.yul\":2111:2120   */\n      dup3\n        /* \"#utility.yul\":2107:2125   */\n      add\n        /* \"#utility.yul\":2099:2125   */\n      swap1\n      pop\n        /* \"#utility.yul\":2135:2206   */\n      tag_309\n        /* \"#utility.yul\":2203:2204   */\n      0x00\n        /* \"#utility.yul\":2192:2201   */\n      dup4\n        /* \"#utility.yul\":2188:2205   */\n      add\n        /* \"#utility.yul\":2179:2185   */\n      dup5\n        /* \"#utility.yul\":2135:2206   */\n      tag_214\n      jump\t// in\n    tag_309:\n        /* \"#utility.yul\":1991:2213   */\n      swap3\n      swap2\n      pop\n      pop\n      jump\t// out\n        /* \"#utility.yul\":2219:2343   */\n    tag_215:\n        /* \"#utility.yul\":2296:2302   */\n      0x00\n        /* \"#utility.yul\":2330:2335   */\n      dup2\n        /* \"#utility.yul\":2324:2336   */\n      mload\n        /* \"#utility.yul\":2314:2336   */\n      swap1\n      pop\n        /* \"#utility.yul\":2219:2343   */\n      swap2\n      swap1\n      pop\n      jump\t// out\n        /* \"#utility.yul\":2349:2543   */\n    tag_216:\n        /* \"#utility.yul\":2458:2469   */\n      0x00\n        /* \"#utility.yul\":2492:2498   */\n      dup3\n        /* \"#utility.yul\":2487:2490   */\n      dup3\n        /* \"#utility.yul\":2480:2499   */\n      mstore\n        /* \"#utility.yul\":2532:2536   */\n      0x20\n        /* \"#utility.yul\":2527:2530   */\n      dup3\n        /* \"#utility.yul\":2523:2537   */\n      add\n        /* \"#utility.yul\":2508:2537   */\n      swap1\n      pop\n        /* \"#utility.yul\":2349:2543   */\n      swap3\n      swap2\n      pop\n      pop\n      jump\t// out\n        /* \"#utility.yul\":2549:2691   */\n    tag_217:\n        /* \"#utility.yul\":2626:2630   */\n      0x00\n        /* \"#utility.yul\":2649:2652   */\n      dup2\n        /* \"#utility.yul\":2641:2652   */\n      swap1\n      pop\n        /* \"#utility.yul\":2679:2683   */\n      0x20\n        /* \"#utility.yul\":2674:2677   */\n      dup3\n        /* \"#utility.yul\":2670:2684   */\n      add\n        /* \"#utility.yul\":2662:2684   */\n      swap1\n      pop\n        /* \"#utility.yul\":2549:2691   */\n      swap2\n      swap1\n      pop\n      jump\t// out\n        /* \"#utility.yul\":2697:2796   */\n    tag_218:\n        /* \"#utility.yul\":2749:2755   */\n      0x00\n        /* \"#utility.yul\":2783:2788   */\n      dup2\n        /* \"#utility.yul\":2777:2789   */\n      mload\n        /* \"#utility.yul\":2767:2789   */\n      swap1\n      pop\n        /* \"#utility.yul\":2697:2796   */\n      swap2\n      swap1\n      pop\n      jump\t// out\n        /* \"#utility.yul\":2802:2961   */\n    tag_219:\n        /* \"#utility.yul\":2876:2887   */\n      0x00\n        /* \"#utility.yul\":2910:2916   */\n      dup3\n        /* \"#utility.yul\":2905:2908   */\n      dup3\n        /* \"#utility.yul\":2898:2917   */\n      mstore\n        /* \"#utility.yul\":2950:2954   */\n      0x20\n        /* \"#utility.yul\":2945:2948   */\n      dup3\n        /* \"#utility.yul\":2941:2955   */\n      add\n        /* \"#utility.yul\":2926:2955   */\n      swap1\n      pop\n        /* \"#utility.yul\":2802:2961   */\n      swap3\n      swap2\n      pop\n      pop\n      jump\t// out\n        /* \"#utility.yul\":2967:3106   */\n    tag_220:\n        /* \"#utility.yul\":3056:3062   */\n      dup3\n        /* \"#utility.yul\":3051:3054   */\n      dup2\n        /* \"#utility.yul\":3046:3049   */\n      dup4\n        /* \"#utility.yul\":3040:3063   */\n      mcopy\n        /* \"#utility.yul\":3097:3098   */\n      0x00\n        /* \"#utility.yul\":3088:3094   */\n      dup4\n        /* \"#utility.yul\":3083:3086   */\n      dup4\n        /* \"#utility.yul\":3079:3095   */\n      add\n        /* \"#utility.yul\":3072:3099   */\n      mstore\n        /* \"#utility.yul\":2967:3106   */\n      pop\n      pop\n      pop\n      jump\t// out\n        /* \"#utility.yul\":3112:3214   */\n    tag_221:\n        /* \"#utility.yul\":3153:3159   */\n      0x00\n        /* \"#utility.yul\":3204:3206   */\n      0x1f\n        /* \"#utility.yul\":3200:3207   */\n      not\n        /* \"#utility.yul\":3195:3197   */\n      0x1f\n        /* \"#utility.yul\":3188:3193   */\n      dup4\n        /* \"#utility.yul\":3184:3198   */\n      add\n        /* \"#utility.yul\":3180:3208   */\n      and\n        /* \"#utility.yul\":3170:3208   */\n      swap1\n      pop\n        /* \"#utility.yul\":3112:3214   */\n      swap2\n      swap1\n      pop\n      jump\t// out\n        /* \"#utility.yul\":3220:3577   */\n    tag_222:\n        /* \"#utility.yul\":3298:3301   */\n      0x00\n        /* \"#utility.yul\":3326:3365   */\n      tag_318\n        /* \"#utility.yul\":3359:3364   */\n      dup3\n        /* \"#utility.yul\":3326:3365   */\n      tag_218\n      jump\t// in\n    tag_318:\n        /* \"#utility.yul\":3381:3442   */\n      tag_319\n        /* \"#utility.yul\":3435:3441   */\n      dup2\n        /* \"#utility.yul\":3430:3433   */\n      dup6\n        /* \"#utility.yul\":3381:3442   */\n      tag_219\n      jump\t// in\n    tag_319:\n        /* \"#utility.yul\":3374:3442   */\n      swap4\n      pop\n        /* \"#utility.yul\":3451:3516   */\n      tag_320\n        /* \"#utility.yul\":3509:3515   */\n      dup2\n        /* \"#utility.yul\":3504:3507   */\n      dup6\n        /* \"#utility.yul\":3497:3501   */\n      0x20\n        /* \"#utility.yul\":3490:3495   */\n      dup7\n        /* \"#utility.yul\":3486:3502   */\n      add\n        /* \"#utility.yul\":3451:3516   */\n      tag_220\n      jump\t// in\n    tag_320:\n        /* \"#utility.yul\":3541:3570   */\n      tag_321\n        /* \"#utility.yul\":3563:3569   */\n      dup2\n        /* \"#utility.yul\":3541:3570   */\n      tag_221\n      jump\t// in\n    tag_321:\n        /* \"#utility.yul\":3536:3539   */\n      dup5\n        /* \"#utility.yul\":3532:3571   */\n      add\n        /* \"#utility.yul\":3525:3571   */\n      swap2\n      pop\n        /* \"#utility.yul\":3302:3577   */\n      pop\n        /* \"#utility.yul\":3220:3577   */\n      swap3\n      swap2\n      pop\n      pop\n      jump\t// out\n        /* \"#utility.yul\":3583:3779   */\n    tag_223:\n        /* \"#utility.yul\":3672:3682   */\n      0x00\n        /* \"#utility.yul\":3707:3773   */\n      tag_323\n        /* \"#utility.yul\":3769:3772   */\n      dup4\n        /* \"#utility.yul\":3761:3767   */\n      dup4\n        /* \"#utility.yul\":3707:3773   */\n      tag_222\n      jump\t// in\n    tag_323:\n        /* \"#utility.yul\":3693:3773   */\n      swap1\n      pop\n        /* \"#utility.yul\":3583:3779   */\n      swap3\n      swap2\n      pop\n      pop\n      jump\t// out\n        /* \"#utility.yul\":3785:3908   */\n    tag_224:\n        /* \"#utility.yul\":3865:3869   */\n      0x00\n        /* \"#utility.yul\":3897:3901   */\n      0x20\n        /* \"#utility.yul\":3892:3895   */\n      dup3\n        /* \"#utility.yul\":3888:3902   */\n      add\n        /* \"#utility.yul\":3880:3902   */\n      swap1\n      pop\n        /* \"#utility.yul\":3785:3908   */\n      swap2\n      swap1\n      pop\n      jump\t// out\n        /* \"#utility.yul\":3942:4933   */\n    tag_225:\n        /* \"#utility.yul\":4081:4084   */\n      0x00\n        /* \"#utility.yul\":4110:4174   */\n      tag_326\n        /* \"#utility.yul\":4168:4173   */\n      dup3\n        /* \"#utility.yul\":4110:4174   */\n      tag_215\n      jump\t// in\n    tag_326:\n        /* \"#utility.yul\":4190:4286   */\n      tag_327\n        /* \"#utility.yul\":4279:4285   */\n      dup2\n        /* \"#utility.yul\":4274:4277   */\n      dup6\n        /* \"#utility.yul\":4190:4286   */\n      tag_216\n      jump\t// in\n    tag_327:\n        /* \"#utility.yul\":4183:4286   */\n      swap4\n      pop\n        /* \"#utility.yul\":4312:4315   */\n      dup4\n        /* \"#utility.yul\":4357:4361   */\n      0x20\n        /* \"#utility.yul\":4349:4355   */\n      dup3\n        /* \"#utility.yul\":4345:4362   */\n      mul\n        /* \"#utility.yul\":4340:4343   */\n      dup6\n        /* \"#utility.yul\":4336:4363   */\n      add\n        /* \"#utility.yul\":4387:4453   */\n      tag_328\n        /* \"#utility.yul\":4447:4452   */\n      dup6\n        /* \"#utility.yul\":4387:4453   */\n      tag_217\n      jump\t// in\n    tag_328:\n        /* \"#utility.yul\":4476:4483   */\n      dup1\n        /* \"#utility.yul\":4507:4508   */\n      0x00\n        /* \"#utility.yul\":4492:4888   */\n    tag_329:\n        /* \"#utility.yul\":4517:4523   */\n      dup6\n        /* \"#utility.yul\":4514:4515   */\n      dup2\n        /* \"#utility.yul\":4511:4524   */\n      lt\n        /* \"#utility.yul\":4492:4888   */\n      iszero\n      tag_331\n      jumpi\n        /* \"#utility.yul\":4588:4597   */\n      dup5\n        /* \"#utility.yul\":4582:4586   */\n      dup5\n        /* \"#utility.yul\":4578:4598   */\n      sub\n        /* \"#utility.yul\":4573:4576   */\n      dup10\n        /* \"#utility.yul\":4566:4599   */\n      mstore\n        /* \"#utility.yul\":4639:4645   */\n      dup2\n        /* \"#utility.yul\":4633:4646   */\n      mload\n        /* \"#utility.yul\":4667:4751   */\n      tag_332\n        /* \"#utility.yul\":4746:4750   */\n      dup6\n        /* \"#utility.yul\":4731:4744   */\n      dup3\n        /* \"#utility.yul\":4667:4751   */\n      tag_223\n      jump\t// in\n    tag_332:\n        /* \"#utility.yul\":4659:4751   */\n      swap5\n      pop\n        /* \"#utility.yul\":4774:4844   */\n      tag_333\n        /* \"#utility.yul\":4837:4843   */\n      dup4\n        /* \"#utility.yul\":4774:4844   */\n      tag_224\n      jump\t// in\n    tag_333:\n        /* \"#utility.yul\":4764:4844   */\n      swap3\n      pop\n        /* \"#utility.yul\":4873:4877   */\n      0x20\n        /* \"#utility.yul\":4868:4871   */\n      dup11\n        /* \"#utility.yul\":4864:4878   */\n      add\n        /* \"#utility.yul\":4857:4878   */\n      swap10\n      pop\n        /* \"#utility.yul\":4552:4888   */\n      pop\n        /* \"#utility.yul\":4539:4540   */\n      0x01\n        /* \"#utility.yul\":4536:4537   */\n      dup2\n        /* \"#utility.yul\":4532:4541   */\n      add\n        /* \"#utility.yul\":4527:4541   */\n      swap1\n      pop\n        /* \"#utility.yul\":4492:4888   */\n      jump(tag_329)\n    tag_331:\n        /* \"#utility.yul\":4496:4510   */\n      pop\n        /* \"#utility.yul\":4904:4908   */\n      dup3\n        /* \"#utility.yul\":4897:4908   */\n      swap8\n      pop\n        /* \"#utility.yul\":4924:4927   */\n      dup8\n        /* \"#utility.yul\":4917:4927   */\n      swap6\n      pop\n        /* \"#utility.yul\":4086:4933   */\n      pop\n      pop\n      pop\n      pop\n      pop\n        /* \"#utility.yul\":3942:4933   */\n      swap3\n      swap2\n      pop\n      pop\n      jump\t// out\n        /* \"#utility.yul\":4939:5352   */\n    tag_38:\n        /* \"#utility.yul\":5102:5106   */\n      0x00\n        /* \"#utility.yul\":5140:5142   */\n      0x20\n        /* \"#utility.yul\":5129:5138   */\n      dup3\n        /* \"#utility.yul\":5125:5143   */\n      add\n        /* \"#utility.yul\":5117:5143   */\n      swap1\n      pop\n        /* \"#utility.yul\":5189:5198   */\n      dup2\n        /* \"#utility.yul\":5183:5187   */\n      dup2\n        /* \"#utility.yul\":5179:5199   */\n      sub\n        /* \"#utility.yul\":5175:5176   */\n      0x00\n        /* \"#utility.yul\":5164:5173   */\n      dup4\n        /* \"#utility.yul\":5160:5177   */\n      add\n        /* \"#utility.yul\":5153:5200   */\n      mstore\n        /* \"#utility.yul\":5217:5345   */\n      tag_335\n        /* \"#utility.yul\":5340:5344   */\n      dup2\n        /* \"#utility.yul\":5331:5337   */\n      dup5\n        /* \"#utility.yul\":5217:5345   */\n      tag_225\n      jump\t// in\n    tag_335:\n        /* \"#utility.yul\":5209:5345   */\n      swap1\n      pop\n        /* \"#utility.yul\":4939:5352   */\n      swap3\n      swap2\n      pop\n      pop\n      jump\t// out\n        /* \"#utility.yul\":5358:5475   */\n    tag_226:\n        /* \"#utility.yul\":5467:5468   */\n      0x00\n        /* \"#utility.yul\":5464:5465   */\n      0x00\n        /* \"#utility.yul\":5457:5469   */\n      revert\n        /* \"#utility.yul\":5481:5598   */\n    tag_227:\n        /* \"#utility.yul\":5590:5591   */\n      0x00\n        /* \"#utility.yul\":5587:5588   */\n      0x00\n        /* \"#utility.yul\":5580:5592   */\n      revert\n        /* \"#utility.yul\":5604:5784   */\n    tag_228:\n        /* \"#utility.yul\":5652:5729   */\n      0x4e487b7100000000000000000000000000000000000000000000000000000000\n        /* \"#utility.yul\":5649:5650   */\n      0x00\n        /* \"#utility.yul\":5642:5730   */\n      mstore\n        /* \"#utility.yul\":5749:5753   */\n      0x41\n        /* \"#utility.yul\":5746:5747   */\n      0x04\n        /* \"#utility.yul\":5739:5754   */\n      mstore\n        /* \"#utility.yul\":5773:5777   */\n      0x24\n        /* \"#utility.yul\":5770:5771   */\n      0x00\n        /* \"#utility.yul\":5763:5778   */\n      revert\n        /* \"#utility.yul\":5790:6071   */\n    tag_229:\n        /* \"#utility.yul\":5873:5900   */\n      tag_340\n        /* \"#utility.yul\":5895:5899   */\n      dup3\n        /* \"#utility.yul\":5873:5900   */\n      tag_221\n      jump\t// in\n    tag_340:\n        /* \"#utility.yul\":5865:5871   */\n      dup2\n        /* \"#utility.yul\":5861:5901   */\n      add\n        /* \"#utility.yul\":6003:6009   */\n      dup2\n        /* \"#utility.yul\":5991:6001   */\n      dup2\n        /* \"#utility.yul\":5988:6010   */\n      lt\n        /* \"#utility.yul\":5967:5985   */\n      0xffffffffffffffff\n        /* \"#utility.yul\":5955:5965   */\n      dup3\n        /* \"#utility.yul\":5952:5986   */\n      gt\n        /* \"#utility.yul\":5949:6011   */\n      or\n        /* \"#utility.yul\":5946:6034   */\n      iszero\n      tag_341\n      jumpi\n        /* \"#utility.yul\":6014:6032   */\n      tag_342\n      tag_228\n      jump\t// in\n    tag_342:\n        /* \"#utility.yul\":5946:6034   */\n    tag_341:\n        /* \"#utility.yul\":6054:6064   */\n      dup1\n        /* \"#utility.yul\":6050:6052   */\n      0x40\n        /* \"#utility.yul\":6043:6065   */\n      mstore\n        /* \"#utility.yul\":5833:6071   */\n      pop\n        /* \"#utility.yul\":5790:6071   */\n      pop\n      pop\n      jump\t// out\n        /* \"#utility.yul\":6077:6206   */\n    tag_230:\n        /* \"#utility.yul\":6111:6117   */\n      0x00\n        /* \"#utility.yul\":6138:6158   */\n      tag_344\n      tag_204\n      jump\t// in\n    tag_344:\n        /* \"#utility.yul\":6128:6158   */\n      swap1\n      pop\n        /* \"#utility.yul\":6167:6200   */\n      tag_345\n        /* \"#utility.yul\":6195:6199   */\n      dup3\n        /* \"#utility.yul\":6187:6193   */\n      dup3\n        /* \"#utility.yul\":6167:6200   */\n      tag_229\n      jump\t// in\n    tag_345:\n        /* \"#utility.yul\":6077:6206   */\n      swap2\n      swap1\n      pop\n      jump\t// out\n        /* \"#utility.yul\":6212:6520   */\n    tag_231:\n        /* \"#utility.yul\":6274:6278   */\n      0x00\n        /* \"#utility.yul\":6364:6382   */\n      0xffffffffffffffff\n        /* \"#utility.yul\":6356:6362   */\n      dup3\n        /* \"#utility.yul\":6353:6383   */\n      gt\n        /* \"#utility.yul\":6350:6406   */\n      iszero\n      tag_347\n      jumpi\n        /* \"#utility.yul\":6386:6404   */\n      tag_348\n      tag_228\n      jump\t// in\n    tag_348:\n        /* \"#utility.yul\":6350:6406   */\n    tag_347:\n        /* \"#utility.yul\":6424:6453   */\n      tag_349\n        /* \"#utility.yul\":6446:6452   */\n      dup3\n        /* \"#utility.yul\":6424:6453   */\n      tag_221\n      jump\t// in\n    tag_349:\n        /* \"#utility.yul\":6416:6453   */\n      swap1\n      pop\n        /* \"#utility.yul\":6508:6512   */\n      0x20\n        /* \"#utility.yul\":6502:6506   */\n      dup2\n        /* \"#utility.yul\":6498:6513   */\n      add\n        /* \"#utility.yul\":6490:6513   */\n      swap1\n      pop\n        /* \"#utility.yul\":6212:6520   */\n      swap2\n      swap1\n      pop\n      jump\t// out\n        /* \"#utility.yul\":6526:6674   */\n    tag_232:\n        /* \"#utility.yul\":6624:6630   */\n      dup3\n        /* \"#utility.yul\":6619:6622   */\n      dup2\n        /* \"#utility.yul\":6614:6617   */\n      dup4\n        /* \"#utility.yul\":6601:6631   */\n      calldatacopy\n        /* \"#utility.yul\":6665:6666   */\n      0x00\n        /* \"#utility.yul\":6656:6662   */\n      dup4\n        /* \"#utility.yul\":6651:6654   */\n      dup4\n        /* \"#utility.yul\":6647:6663   */\n      add\n        /* \"#utility.yul\":6640:6667   */\n      mstore\n        /* \"#utility.yul\":6526:6674   */\n      pop\n      pop\n      pop\n      jump\t// out\n        /* \"#utility.yul\":6680:7105   */\n    tag_233:\n        /* \"#utility.yul\":6758:6763   */\n      0x00\n        /* \"#utility.yul\":6783:6849   */\n      tag_352\n        /* \"#utility.yul\":6799:6848   */\n      tag_353\n        /* \"#utility.yul\":6841:6847   */\n      dup5\n        /* \"#utility.yul\":6799:6848   */\n      tag_231\n      jump\t// in\n    tag_353:\n        /* \"#utility.yul\":6783:6849   */\n      tag_230\n      jump\t// in\n    tag_352:\n        /* \"#utility.yul\":6774:6849   */\n      swap1\n      pop\n        /* \"#utility.yul\":6872:6878   */\n      dup3\n        /* \"#utility.yul\":6865:6870   */\n      dup2\n        /* \"#utility.yul\":6858:6879   */\n      mstore\n        /* \"#utility.yul\":6910:6914   */\n      0x20\n        /* \"#utility.yul\":6903:6908   */\n      dup2\n        /* \"#utility.yul\":6899:6915   */\n      add\n        /* \"#utility.yul\":6948:6951   */\n      dup5\n        /* \"#utility.yul\":6939:6945   */\n      dup5\n        /* \"#utility.yul\":6934:6937   */\n      dup5\n        /* \"#utility.yul\":6930:6946   */\n      add\n        /* \"#utility.yul\":6927:6952   */\n      gt\n        /* \"#utility.yul\":6924:7036   */\n      iszero\n      tag_354\n      jumpi\n        /* \"#utility.yul\":6955:7034   */\n      tag_355\n      tag_227\n      jump\t// in\n    tag_355:\n        /* \"#utility.yul\":6924:7036   */\n    tag_354:\n        /* \"#utility.yul\":7045:7099   */\n      tag_356\n        /* \"#utility.yul\":7092:7098   */\n      dup5\n        /* \"#utility.yul\":7087:7090   */\n      dup3\n        /* \"#utility.yul\":7082:7085   */\n      dup6\n        /* \"#utility.yul\":7045:7099   */\n      tag_232\n      jump\t// in\n    tag_356:\n        /* \"#utility.yul\":6764:7105   */\n      pop\n        /* \"#utility.yul\":6680:7105   */\n      swap4\n      swap3\n      pop\n      pop\n      pop\n      jump\t// out\n        /* \"#utility.yul\":7125:7465   */\n    tag_234:\n        /* \"#utility.yul\":7181:7186   */\n      0x00\n        /* \"#utility.yul\":7230:7233   */\n      dup3\n        /* \"#utility.yul\":7223:7227   */\n      0x1f\n        /* \"#utility.yul\":7215:7221   */\n      dup4\n        /* \"#utility.yul\":7211:7228   */\n      add\n        /* \"#utility.yul\":7207:7234   */\n      slt\n        /* \"#utility.yul\":7197:7319   */\n      tag_358\n      jumpi\n        /* \"#utility.yul\":7238:7317   */\n      tag_359\n      tag_226\n      jump\t// in\n    tag_359:\n        /* \"#utility.yul\":7197:7319   */\n    tag_358:\n        /* \"#utility.yul\":7355:7361   */\n      dup2\n        /* \"#utility.yul\":7342:7362   */\n      calldataload\n        /* \"#utility.yul\":7380:7459   */\n      tag_360\n        /* \"#utility.yul\":7455:7458   */\n      dup5\n        /* \"#utility.yul\":7447:7453   */\n      dup3\n        /* \"#utility.yul\":7440:7444   */\n      0x20\n        /* \"#utility.yul\":7432:7438   */\n      dup7\n        /* \"#utility.yul\":7428:7445   */\n      add\n        /* \"#utility.yul\":7380:7459   */\n      tag_233\n      jump\t// in\n    tag_360:\n        /* \"#utility.yul\":7371:7459   */\n      swap2\n      pop\n        /* \"#utility.yul\":7187:7465   */\n      pop\n        /* \"#utility.yul\":7125:7465   */\n      swap3\n      swap2\n      pop\n      pop\n      jump\t// out\n        /* \"#utility.yul\":7471:8125   */\n    tag_42:\n        /* \"#utility.yul\":7549:7555   */\n      0x00\n        /* \"#utility.yul\":7557:7563   */\n      0x00\n        /* \"#utility.yul\":7606:7608   */\n      0x40\n        /* \"#utility.yul\":7594:7603   */\n      dup4\n        /* \"#utility.yul\":7585:7592   */\n      dup6\n        /* \"#utility.yul\":7581:7604   */\n      sub\n        /* \"#utility.yul\":7577:7609   */\n      slt\n        /* \"#utility.yul\":7574:7693   */\n      iszero\n      tag_362\n      jumpi\n        /* \"#utility.yul\":7612:7691   */\n      tag_363\n      tag_205\n      jump\t// in\n    tag_363:\n        /* \"#utility.yul\":7574:7693   */\n    tag_362:\n        /* \"#utility.yul\":7760:7761   */\n      0x00\n        /* \"#utility.yul\":7749:7758   */\n      dup4\n        /* \"#utility.yul\":7745:7762   */\n      add\n        /* \"#utility.yul\":7732:7763   */\n      calldataload\n        /* \"#utility.yul\":7790:7808   */\n      0xffffffffffffffff\n        /* \"#utility.yul\":7782:7788   */\n      dup2\n        /* \"#utility.yul\":7779:7809   */\n      gt\n        /* \"#utility.yul\":7776:7893   */\n      iszero\n      tag_364\n      jumpi\n        /* \"#utility.yul\":7812:7891   */\n      tag_365\n      tag_206\n      jump\t// in\n    tag_365:\n        /* \"#utility.yul\":7776:7893   */\n    tag_364:\n        /* \"#utility.yul\":7917:7980   */\n      tag_366\n        /* \"#utility.yul\":7972:7979   */\n      dup6\n        /* \"#utility.yul\":7963:7969   */\n      dup3\n        /* \"#utility.yul\":7952:7961   */\n      dup7\n        /* \"#utility.yul\":7948:7970   */\n      add\n        /* \"#utility.yul\":7917:7980   */\n      tag_234\n      jump\t// in\n    tag_366:\n        /* \"#utility.yul\":7907:7980   */\n      swap3\n      pop\n        /* \"#utility.yul\":7703:7990   */\n      pop\n        /* \"#utility.yul\":8029:8031   */\n      0x20\n        /* \"#utility.yul\":8055:8108   */\n      tag_367\n        /* \"#utility.yul\":8100:8107   */\n      dup6\n        /* \"#utility.yul\":8091:8097   */\n      dup3\n        /* \"#utility.yul\":8080:8089   */\n      dup7\n        /* \"#utility.yul\":8076:8098   */\n      add\n        /* \"#utility.yul\":8055:8108   */\n      tag_209\n      jump\t// in\n    tag_367:\n        /* \"#utility.yul\":8045:8108   */\n      swap2\n      pop\n        /* \"#utility.yul\":8000:8118   */\n      pop\n        /* \"#utility.yul\":7471:8125   */\n      swap3\n      pop\n      swap3\n      swap1\n      pop\n      jump\t// out\n        /* \"#utility.yul\":8131:8640   */\n    tag_47:\n        /* \"#utility.yul\":8200:8206   */\n      0x00\n        /* \"#utility.yul\":8249:8251   */\n      0x20\n        /* \"#utility.yul\":8237:8246   */\n      dup3\n        /* \"#utility.yul\":8228:8235   */\n      dup5\n        /* \"#utility.yul\":8224:8247   */\n      sub\n        /* \"#utility.yul\":8220:8252   */\n      slt\n        /* \"#utility.yul\":8217:8336   */\n      iszero\n      tag_369\n      jumpi\n        /* \"#utility.yul\":8255:8334   */\n      tag_370\n      tag_205\n      jump\t// in\n    tag_370:\n        /* \"#utility.yul\":8217:8336   */\n    tag_369:\n        /* \"#utility.yul\":8403:8404   */\n      0x00\n        /* \"#utility.yul\":8392:8401   */\n      dup3\n        /* \"#utility.yul\":8388:8405   */\n      add\n        /* \"#utility.yul\":8375:8406   */\n      calldataload\n        /* \"#utility.yul\":8433:8451   */\n      0xffffffffffffffff\n        /* \"#utility.yul\":8425:8431   */\n      dup2\n        /* \"#utility.yul\":8422:8452   */\n      gt\n        /* \"#utility.yul\":8419:8536   */\n      iszero\n      tag_371\n      jumpi\n        /* \"#utility.yul\":8455:8534   */\n      tag_372\n      tag_206\n      jump\t// in\n    tag_372:\n        /* \"#utility.yul\":8419:8536   */\n    tag_371:\n        /* \"#utility.yul\":8560:8623   */\n      tag_373\n        /* \"#utility.yul\":8615:8622   */\n      dup5\n        /* \"#utility.yul\":8606:8612   */\n      dup3\n        /* \"#utility.yul\":8595:8604   */\n      dup6\n        /* \"#utility.yul\":8591:8613   */\n      add\n        /* \"#utility.yul\":8560:8623   */\n      tag_234\n      jump\t// in\n    tag_373:\n        /* \"#utility.yul\":8550:8623   */\n      swap2\n      pop\n        /* \"#utility.yul\":8346:8633   */\n      pop\n        /* \"#utility.yul\":8131:8640   */\n      swap3\n      swap2\n      pop\n      pop\n      jump\t// out\n        /* \"#utility.yul\":8646:8750   */\n    tag_235:\n        /* \"#utility.yul\":8691:8698   */\n      0x00\n        /* \"#utility.yul\":8720:8744   */\n      tag_375\n        /* \"#utility.yul\":8738:8743   */\n      dup3\n        /* \"#utility.yul\":8720:8744   */\n      tag_210\n      jump\t// in\n    tag_375:\n        /* \"#utility.yul\":8709:8744   */\n      swap1\n      pop\n        /* \"#utility.yul\":8646:8750   */\n      swap2\n      swap1\n      pop\n      jump\t// out\n        /* \"#utility.yul\":8756:8898   */\n    tag_236:\n        /* \"#utility.yul\":8859:8891   */\n      tag_377\n        /* \"#utility.yul\":8885:8890   */\n      dup2\n        /* \"#utility.yul\":8859:8891   */\n      tag_235\n      jump\t// in\n    tag_377:\n        /* \"#utility.yul\":8854:8857   */\n      dup3\n        /* \"#utility.yul\":8847:8892   */\n      mstore\n        /* \"#utility.yul\":8756:8898   */\n      pop\n      pop\n      jump\t// out\n        /* \"#utility.yul\":8904:9158   */\n    tag_53:\n        /* \"#utility.yul\":9013:9017   */\n      0x00\n        /* \"#utility.yul\":9051:9053   */\n      0x20\n        /* \"#utility.yul\":9040:9049   */\n      dup3\n        /* \"#utility.yul\":9036:9054   */\n      add\n        /* \"#utility.yul\":9028:9054   */\n      swap1\n      pop\n        /* \"#utility.yul\":9064:9151   */\n      tag_379\n        /* \"#utility.yul\":9148:9149   */\n      0x00\n        /* \"#utility.yul\":9137:9146   */\n      dup4\n        /* \"#utility.yul\":9133:9150   */\n      add\n        /* \"#utility.yul\":9124:9130   */\n      dup5\n        /* \"#utility.yul\":9064:9151   */\n      tag_236\n      jump\t// in\n    tag_379:\n        /* \"#utility.yul\":8904:9158   */\n      swap3\n      swap2\n      pop\n      pop\n      jump\t// out\n        /* \"#utility.yul\":9164:9333   */\n    tag_237:\n        /* \"#utility.yul\":9248:9259   */\n      0x00\n        /* \"#utility.yul\":9282:9288   */\n      dup3\n        /* \"#utility.yul\":9277:9280   */\n      dup3\n        /* \"#utility.yul\":9270:9289   */\n      mstore\n        /* \"#utility.yul\":9322:9326   */\n      0x20\n        /* \"#utility.yul\":9317:9320   */\n      dup3\n        /* \"#utility.yul\":9313:9327   */\n      add\n        /* \"#utility.yul\":9298:9327   */\n      swap1\n      pop\n        /* \"#utility.yul\":9164:9333   */\n      swap3\n      swap2\n      pop\n      pop\n      jump\t// out\n        /* \"#utility.yul\":9339:9716   */\n    tag_238:\n        /* \"#utility.yul\":9427:9430   */\n      0x00\n        /* \"#utility.yul\":9455:9494   */\n      tag_382\n        /* \"#utility.yul\":9488:9493   */\n      dup3\n        /* \"#utility.yul\":9455:9494   */\n      tag_218\n      jump\t// in\n    tag_382:\n        /* \"#utility.yul\":9510:9581   */\n      tag_383\n        /* \"#utility.yul\":9574:9580   */\n      dup2\n        /* \"#utility.yul\":9569:9572   */\n      dup6\n        /* \"#utility.yul\":9510:9581   */\n      tag_237\n      jump\t// in\n    tag_383:\n        /* \"#utility.yul\":9503:9581   */\n      swap4\n      pop\n        /* \"#utility.yul\":9590:9655   */\n      tag_384\n        /* \"#utility.yul\":9648:9654   */\n      dup2\n        /* \"#utility.yul\":9643:9646   */\n      dup6\n        /* \"#utility.yul\":9636:9640   */\n      0x20\n        /* \"#utility.yul\":9629:9634   */\n      dup7\n        /* \"#utility.yul\":9625:9641   */\n      add\n        /* \"#utility.yul\":9590:9655   */\n      tag_220\n      jump\t// in\n    tag_384:\n        /* \"#utility.yul\":9680:9709   */\n      tag_385\n        /* \"#utility.yul\":9702:9708   */\n      dup2\n        /* \"#utility.yul\":9680:9709   */\n      tag_221\n      jump\t// in\n    tag_385:\n        /* \"#utility.yul\":9675:9678   */\n      dup5\n        /* \"#utility.yul\":9671:9710   */\n      add\n        /* \"#utility.yul\":9664:9710   */\n      swap2\n      pop\n        /* \"#utility.yul\":9431:9716   */\n      pop\n        /* \"#utility.yul\":9339:9716   */\n      swap3\n      swap2\n      pop\n      pop\n      jump\t// out\n        /* \"#utility.yul\":9722:9812   */\n    tag_239:\n        /* \"#utility.yul\":9756:9763   */\n      0x00\n        /* \"#utility.yul\":9799:9804   */\n      dup2\n        /* \"#utility.yul\":9792:9805   */\n      iszero\n        /* \"#utility.yul\":9785:9806   */\n      iszero\n        /* \"#utility.yul\":9774:9806   */\n      swap1\n      pop\n        /* \"#utility.yul\":9722:9812   */\n      swap2\n      swap1\n      pop\n      jump\t// out\n        /* \"#utility.yul\":9818:9927   */\n    tag_240:\n        /* \"#utility.yul\":9899:9920   */\n      tag_388\n        /* \"#utility.yul\":9914:9919   */\n      dup2\n        /* \"#utility.yul\":9899:9920   */\n      tag_239\n      jump\t// in\n    tag_388:\n        /* \"#utility.yul\":9894:9897   */\n      dup3\n        /* \"#utility.yul\":9887:9921   */\n      mstore\n        /* \"#utility.yul\":9818:9927   */\n      pop\n      pop\n      jump\t// out\n        /* \"#utility.yul\":9933:10454   */\n    tag_59:\n        /* \"#utility.yul\":10096:10100   */\n      0x00\n        /* \"#utility.yul\":10134:10136   */\n      0x60\n        /* \"#utility.yul\":10123:10132   */\n      dup3\n        /* \"#utility.yul\":10119:10137   */\n      add\n        /* \"#utility.yul\":10111:10137   */\n      swap1\n      pop\n        /* \"#utility.yul\":10183:10192   */\n      dup2\n        /* \"#utility.yul\":10177:10181   */\n      dup2\n        /* \"#utility.yul\":10173:10193   */\n      sub\n        /* \"#utility.yul\":10169:10170   */\n      0x00\n        /* \"#utility.yul\":10158:10167   */\n      dup4\n        /* \"#utility.yul\":10154:10171   */\n      add\n        /* \"#utility.yul\":10147:10194   */\n      mstore\n        /* \"#utility.yul\":10211:10289   */\n      tag_390\n        /* \"#utility.yul\":10284:10288   */\n      dup2\n        /* \"#utility.yul\":10275:10281   */\n      dup7\n        /* \"#utility.yul\":10211:10289   */\n      tag_238\n      jump\t// in\n    tag_390:\n        /* \"#utility.yul\":10203:10289   */\n      swap1\n      pop\n        /* \"#utility.yul\":10299:10371   */\n      tag_391\n        /* \"#utility.yul\":10367:10369   */\n      0x20\n        /* \"#utility.yul\":10356:10365   */\n      dup4\n        /* \"#utility.yul\":10352:10370   */\n      add\n        /* \"#utility.yul\":10343:10349   */\n      dup6\n        /* \"#utility.yul\":10299:10371   */\n      tag_214\n      jump\t// in\n    tag_391:\n        /* \"#utility.yul\":10381:10447   */\n      tag_392\n        /* \"#utility.yul\":10443:10445   */\n      0x40\n        /* \"#utility.yul\":10432:10441   */\n      dup4\n        /* \"#utility.yul\":10428:10446   */\n      add\n        /* \"#utility.yul\":10419:10425   */\n      dup5\n        /* \"#utility.yul\":10381:10447   */\n      tag_240\n      jump\t// in\n    tag_392:\n        /* \"#utility.yul\":9933:10454   */\n      swap5\n      swap4\n      pop\n      pop\n      pop\n      pop\n      jump\t// out\n        /* \"#utility.yul\":10460:10520   */\n    tag_241:\n        /* \"#utility.yul\":10488:10491   */\n      0x00\n        /* \"#utility.yul\":10509:10514   */\n      dup2\n        /* \"#utility.yul\":10502:10514   */\n      swap1\n      pop\n        /* \"#utility.yul\":10460:10520   */\n      swap2\n      swap1\n      pop\n      jump\t// out\n        /* \"#utility.yul\":10526:10668   */\n    tag_242:\n        /* \"#utility.yul\":10576:10585   */\n      0x00\n        /* \"#utility.yul\":10609:10662   */\n      tag_395\n        /* \"#utility.yul\":10627:10661   */\n      tag_396\n        /* \"#utility.yul\":10636:10660   */\n      tag_397\n        /* \"#utility.yul\":10654:10659   */\n      dup5\n        /* \"#utility.yul\":10636:10660   */\n      tag_210\n      jump\t// in\n    tag_397:\n        /* \"#utility.yul\":10627:10661   */\n      tag_241\n      jump\t// in\n    tag_396:\n        /* \"#utility.yul\":10609:10662   */\n      tag_210\n      jump\t// in\n    tag_395:\n        /* \"#utility.yul\":10596:10662   */\n      swap1\n      pop\n        /* \"#utility.yul\":10526:10668   */\n      swap2\n      swap1\n      pop\n      jump\t// out\n        /* \"#utility.yul\":10674:10800   */\n    tag_243:\n        /* \"#utility.yul\":10724:10733   */\n      0x00\n        /* \"#utility.yul\":10757:10794   */\n      tag_399\n        /* \"#utility.yul\":10788:10793   */\n      dup3\n        /* \"#utility.yul\":10757:10794   */\n      tag_242\n      jump\t// in\n    tag_399:\n        /* \"#utility.yul\":10744:10794   */\n      swap1\n      pop\n        /* \"#utility.yul\":10674:10800   */\n      swap2\n      swap1\n      pop\n      jump\t// out\n        /* \"#utility.yul\":10806:10950   */\n    tag_244:\n        /* \"#utility.yul\":10874:10883   */\n      0x00\n        /* \"#utility.yul\":10907:10944   */\n      tag_401\n        /* \"#utility.yul\":10938:10943   */\n      dup3\n        /* \"#utility.yul\":10907:10944   */\n      tag_243\n      jump\t// in\n    tag_401:\n        /* \"#utility.yul\":10894:10944   */\n      swap1\n      pop\n        /* \"#utility.yul\":10806:10950   */\n      swap2\n      swap1\n      pop\n      jump\t// out\n        /* \"#utility.yul\":10956:11123   */\n    tag_245:\n        /* \"#utility.yul\":11061:11116   */\n      tag_403\n        /* \"#utility.yul\":11110:11115   */\n      dup2\n        /* \"#utility.yul\":11061:11116   */\n      tag_244\n      jump\t// in\n    tag_403:\n        /* \"#utility.yul\":11056:11059   */\n      dup3\n        /* \"#utility.yul\":11049:11117   */\n      mstore\n        /* \"#utility.yul\":10956:11123   */\n      pop\n      pop\n      jump\t// out\n        /* \"#utility.yul\":11129:11387   */\n    tag_75:\n        /* \"#utility.yul\":11240:11244   */\n      0x00\n        /* \"#utility.yul\":11278:11280   */\n      0x20\n        /* \"#utility.yul\":11267:11276   */\n      dup3\n        /* \"#utility.yul\":11263:11281   */\n      add\n        /* \"#utility.yul\":11255:11281   */\n      swap1\n      pop\n        /* \"#utility.yul\":11291:11380   */\n      tag_405\n        /* \"#utility.yul\":11377:11378   */\n      0x00\n        /* \"#utility.yul\":11366:11375   */\n      dup4\n        /* \"#utility.yul\":11362:11379   */\n      add\n        /* \"#utility.yul\":11353:11359   */\n      dup5\n        /* \"#utility.yul\":11291:11380   */\n      tag_245\n      jump\t// in\n    tag_405:\n        /* \"#utility.yul\":11129:11387   */\n      swap3\n      swap2\n      pop\n      pop\n      jump\t// out\n        /* \"#utility.yul\":11393:11567   */\n    tag_246:\n        /* \"#utility.yul\":11533:11559   */\n      0x496e76616c6964206e756d626572206f6620546f6b656e730000000000000000\n        /* \"#utility.yul\":11529:11530   */\n      0x00\n        /* \"#utility.yul\":11521:11527   */\n      dup3\n        /* \"#utility.yul\":11517:11531   */\n      add\n        /* \"#utility.yul\":11510:11560   */\n      mstore\n        /* \"#utility.yul\":11393:11567   */\n      pop\n      jump\t// out\n        /* \"#utility.yul\":11573:11939   */\n    tag_247:\n        /* \"#utility.yul\":11715:11718   */\n      0x00\n        /* \"#utility.yul\":11736:11803   */\n      tag_408\n        /* \"#utility.yul\":11800:11802   */\n      0x18\n        /* \"#utility.yul\":11795:11798   */\n      dup4\n        /* \"#utility.yul\":11736:11803   */\n      tag_237\n      jump\t// in\n    tag_408:\n        /* \"#utility.yul\":11729:11803   */\n      swap2\n      pop\n        /* \"#utility.yul\":11812:11905   */\n      tag_409\n        /* \"#utility.yul\":11901:11904   */\n      dup3\n        /* \"#utility.yul\":11812:11905   */\n      tag_246\n      jump\t// in\n    tag_409:\n        /* \"#utility.yul\":11930:11932   */\n      0x20\n        /* \"#utility.yul\":11925:11928   */\n      dup3\n        /* \"#utility.yul\":11921:11933   */\n      add\n        /* \"#utility.yul\":11914:11933   */\n      swap1\n      pop\n        /* \"#utility.yul\":11573:11939   */\n      swap2\n      swap1\n      pop\n      jump\t// out\n        /* \"#utility.yul\":11945:12364   */\n    tag_87:\n        /* \"#utility.yul\":12111:12115   */\n      0x00\n        /* \"#utility.yul\":12149:12151   */\n      0x20\n        /* \"#utility.yul\":12138:12147   */\n      dup3\n        /* \"#utility.yul\":12134:12152   */\n      add\n        /* \"#utility.yul\":12126:12152   */\n      swap1\n      pop\n        /* \"#utility.yul\":12198:12207   */\n      dup2\n        /* \"#utility.yul\":12192:12196   */\n      dup2\n        /* \"#utility.yul\":12188:12208   */\n      sub\n        /* \"#utility.yul\":12184:12185   */\n      0x00\n        /* \"#utility.yul\":12173:12182   */\n      dup4\n        /* \"#utility.yul\":12169:12186   */\n      add\n        /* \"#utility.yul\":12162:12209   */\n      mstore\n        /* \"#utility.yul\":12226:12357   */\n      tag_411\n        /* \"#utility.yul\":12352:12356   */\n      dup2\n        /* \"#utility.yul\":12226:12357   */\n      tag_247\n      jump\t// in\n    tag_411:\n        /* \"#utility.yul\":12218:12357   */\n      swap1\n      pop\n        /* \"#utility.yul\":11945:12364   */\n      swap2\n      swap1\n      pop\n      jump\t// out\n        /* \"#utility.yul\":12370:12537   */\n    tag_248:\n        /* \"#utility.yul\":12510:12529   */\n      0x4e6f7420456e6f75676820546f6b656e73000000000000000000000000000000\n        /* \"#utility.yul\":12506:12507   */\n      0x00\n        /* \"#utility.yul\":12498:12504   */\n      dup3\n        /* \"#utility.yul\":12494:12508   */\n      add\n        /* \"#utility.yul\":12487:12530   */\n      mstore\n        /* \"#utility.yul\":12370:12537   */\n      pop\n      jump\t// out\n        /* \"#utility.yul\":12543:12909   */\n    tag_249:\n        /* \"#utility.yul\":12685:12688   */\n      0x00\n        /* \"#utility.yul\":12706:12773   */\n      tag_414\n        /* \"#utility.yul\":12770:12772   */\n      0x11\n        /* \"#utility.yul\":12765:12768   */\n      dup4\n        /* \"#utility.yul\":12706:12773   */\n      tag_237\n      jump\t// in\n    tag_414:\n        /* \"#utility.yul\":12699:12773   */\n      swap2\n      pop\n        /* \"#utility.yul\":12782:12875   */\n      tag_415\n        /* \"#utility.yul\":12871:12874   */\n      dup3\n        /* \"#utility.yul\":12782:12875   */\n      tag_248\n      jump\t// in\n    tag_415:\n        /* \"#utility.yul\":12900:12902   */\n      0x20\n        /* \"#utility.yul\":12895:12898   */\n      dup3\n        /* \"#utility.yul\":12891:12903   */\n      add\n        /* \"#utility.yul\":12884:12903   */\n      swap1\n      pop\n        /* \"#utility.yul\":12543:12909   */\n      swap2\n      swap1\n      pop\n      jump\t// out\n        /* \"#utility.yul\":12915:13334   */\n    tag_91:\n        /* \"#utility.yul\":13081:13085   */\n      0x00\n        /* \"#utility.yul\":13119:13121   */\n      0x20\n        /* \"#utility.yul\":13108:13117   */\n      dup3\n        /* \"#utility.yul\":13104:13122   */\n      add\n        /* \"#utility.yul\":13096:13122   */\n      swap1\n      pop\n        /* \"#utility.yul\":13168:13177   */\n      dup2\n        /* \"#utility.yul\":13162:13166   */\n      dup2\n        /* \"#utility.yul\":13158:13178   */\n      sub\n        /* \"#utility.yul\":13154:13155   */\n      0x00\n        /* \"#utility.yul\":13143:13152   */\n      dup4\n        /* \"#utility.yul\":13139:13156   */\n      add\n        /* \"#utility.yul\":13132:13179   */\n      mstore\n        /* \"#utility.yul\":13196:13327   */\n      tag_417\n        /* \"#utility.yul\":13322:13326   */\n      dup2\n        /* \"#utility.yul\":13196:13327   */\n      tag_249\n      jump\t// in\n    tag_417:\n        /* \"#utility.yul\":13188:13327   */\n      swap1\n      pop\n        /* \"#utility.yul\":12915:13334   */\n      swap2\n      swap1\n      pop\n      jump\t// out\n        /* \"#utility.yul\":13340:13458   */\n    tag_250:\n        /* \"#utility.yul\":13427:13451   */\n      tag_419\n        /* \"#utility.yul\":13445:13450   */\n      dup2\n        /* \"#utility.yul\":13427:13451   */\n      tag_211\n      jump\t// in\n    tag_419:\n        /* \"#utility.yul\":13422:13425   */\n      dup3\n        /* \"#utility.yul\":13415:13452   */\n      mstore\n        /* \"#utility.yul\":13340:13458   */\n      pop\n      pop\n      jump\t// out\n        /* \"#utility.yul\":13464:13906   */\n    tag_93:\n        /* \"#utility.yul\":13613:13617   */\n      0x00\n        /* \"#utility.yul\":13651:13653   */\n      0x60\n        /* \"#utility.yul\":13640:13649   */\n      dup3\n        /* \"#utility.yul\":13636:13654   */\n      add\n        /* \"#utility.yul\":13628:13654   */\n      swap1\n      pop\n        /* \"#utility.yul\":13664:13735   */\n      tag_421\n        /* \"#utility.yul\":13732:13733   */\n      0x00\n        /* \"#utility.yul\":13721:13730   */\n      dup4\n        /* \"#utility.yul\":13717:13734   */\n      add\n        /* \"#utility.yul\":13708:13714   */\n      dup7\n        /* \"#utility.yul\":13664:13735   */\n      tag_250\n      jump\t// in\n    tag_421:\n        /* \"#utility.yul\":13745:13817   */\n      tag_422\n        /* \"#utility.yul\":13813:13815   */\n      0x20\n        /* \"#utility.yul\":13802:13811   */\n      dup4\n        /* \"#utility.yul\":13798:13816   */\n      add\n        /* \"#utility.yul\":13789:13795   */\n      dup6\n        /* \"#utility.yul\":13745:13817   */\n      tag_250\n      jump\t// in\n    tag_422:\n        /* \"#utility.yul\":13827:13899   */\n      tag_423\n        /* \"#utility.yul\":13895:13897   */\n      0x40\n        /* \"#utility.yul\":13884:13893   */\n      dup4\n        /* \"#utility.yul\":13880:13898   */\n      add\n        /* \"#utility.yul\":13871:13877   */\n      dup5\n        /* \"#utility.yul\":13827:13899   */\n      tag_214\n      jump\t// in\n    tag_423:\n        /* \"#utility.yul\":13464:13906   */\n      swap5\n      swap4\n      pop\n      pop\n      pop\n      pop\n      jump\t// out\n        /* \"#utility.yul\":13912:14028   */\n    tag_251:\n        /* \"#utility.yul\":13982:14003   */\n      tag_425\n        /* \"#utility.yul\":13997:14002   */\n      dup2\n        /* \"#utility.yul\":13982:14003   */\n      tag_239\n      jump\t// in\n    tag_425:\n        /* \"#utility.yul\":13975:13980   */\n      dup2\n        /* \"#utility.yul\":13972:14004   */\n      eq\n        /* \"#utility.yul\":13962:14022   */\n      tag_426\n      jumpi\n        /* \"#utility.yul\":14018:14019   */\n      0x00\n        /* \"#utility.yul\":14015:14016   */\n      0x00\n        /* \"#utility.yul\":14008:14020   */\n      revert\n        /* \"#utility.yul\":13962:14022   */\n    tag_426:\n        /* \"#utility.yul\":13912:14028   */\n      pop\n      jump\t// out\n        /* \"#utility.yul\":14034:14171   */\n    tag_252:\n        /* \"#utility.yul\":14088:14093   */\n      0x00\n        /* \"#utility.yul\":14119:14125   */\n      dup2\n        /* \"#utility.yul\":14113:14126   */\n      mload\n        /* \"#utility.yul\":14104:14126   */\n      swap1\n      pop\n        /* \"#utility.yul\":14135:14165   */\n      tag_428\n        /* \"#utility.yul\":14159:14164   */\n      dup2\n        /* \"#utility.yul\":14135:14165   */\n      tag_251\n      jump\t// in\n    tag_428:\n        /* \"#utility.yul\":14034:14171   */\n      swap3\n      swap2\n      pop\n      pop\n      jump\t// out\n        /* \"#utility.yul\":14177:14522   */\n    tag_97:\n        /* \"#utility.yul\":14244:14250   */\n      0x00\n        /* \"#utility.yul\":14293:14295   */\n      0x20\n        /* \"#utility.yul\":14281:14290   */\n      dup3\n        /* \"#utility.yul\":14272:14279   */\n      dup5\n        /* \"#utility.yul\":14268:14291   */\n      sub\n        /* \"#utility.yul\":14264:14296   */\n      slt\n        /* \"#utility.yul\":14261:14380   */\n      iszero\n      tag_430\n      jumpi\n        /* \"#utility.yul\":14299:14378   */\n      tag_431\n      tag_205\n      jump\t// in\n    tag_431:\n        /* \"#utility.yul\":14261:14380   */\n    tag_430:\n        /* \"#utility.yul\":14419:14420   */\n      0x00\n        /* \"#utility.yul\":14444:14505   */\n      tag_432\n        /* \"#utility.yul\":14497:14504   */\n      dup5\n        /* \"#utility.yul\":14488:14494   */\n      dup3\n        /* \"#utility.yul\":14477:14486   */\n      dup6\n        /* \"#utility.yul\":14473:14495   */\n      add\n        /* \"#utility.yul\":14444:14505   */\n      tag_252\n      jump\t// in\n    tag_432:\n        /* \"#utility.yul\":14434:14505   */\n      swap2\n      pop\n        /* \"#utility.yul\":14390:14515   */\n      pop\n        /* \"#utility.yul\":14177:14522   */\n      swap3\n      swap2\n      pop\n      pop\n      jump\t// out\n        /* \"#utility.yul\":14528:14750   */\n    tag_102:\n        /* \"#utility.yul\":14621:14625   */\n      0x00\n        /* \"#utility.yul\":14659:14661   */\n      0x20\n        /* \"#utility.yul\":14648:14657   */\n      dup3\n        /* \"#utility.yul\":14644:14662   */\n      add\n        /* \"#utility.yul\":14636:14662   */\n      swap1\n      pop\n        /* \"#utility.yul\":14672:14743   */\n      tag_434\n        /* \"#utility.yul\":14740:14741   */\n      0x00\n        /* \"#utility.yul\":14729:14738   */\n      dup4\n        /* \"#utility.yul\":14725:14742   */\n      add\n        /* \"#utility.yul\":14716:14722   */\n      dup5\n        /* \"#utility.yul\":14672:14743   */\n      tag_250\n      jump\t// in\n    tag_434:\n        /* \"#utility.yul\":14528:14750   */\n      swap3\n      swap2\n      pop\n      pop\n      jump\t// out\n        /* \"#utility.yul\":14756:14899   */\n    tag_253:\n        /* \"#utility.yul\":14813:14818   */\n      0x00\n        /* \"#utility.yul\":14844:14850   */\n      dup2\n        /* \"#utility.yul\":14838:14851   */\n      mload\n        /* \"#utility.yul\":14829:14851   */\n      swap1\n      pop\n        /* \"#utility.yul\":14860:14893   */\n      tag_436\n        /* \"#utility.yul\":14887:14892   */\n      dup2\n        /* \"#utility.yul\":14860:14893   */\n      tag_208\n      jump\t// in\n    tag_436:\n        /* \"#utility.yul\":14756:14899   */\n      swap3\n      swap2\n      pop\n      pop\n      jump\t// out\n        /* \"#utility.yul\":14905:15256   */\n    tag_106:\n        /* \"#utility.yul\":14975:14981   */\n      0x00\n        /* \"#utility.yul\":15024:15026   */\n      0x20\n        /* \"#utility.yul\":15012:15021   */\n      dup3\n        /* \"#utility.yul\":15003:15010   */\n      dup5\n        /* \"#utility.yul\":14999:15022   */\n      sub\n        /* \"#utility.yul\":14995:15027   */\n      slt\n        /* \"#utility.yul\":14992:15111   */\n      iszero\n      tag_438\n      jumpi\n        /* \"#utility.yul\":15030:15109   */\n      tag_439\n      tag_205\n      jump\t// in\n    tag_439:\n        /* \"#utility.yul\":14992:15111   */\n    tag_438:\n        /* \"#utility.yul\":15150:15151   */\n      0x00\n        /* \"#utility.yul\":15175:15239   */\n      tag_440\n        /* \"#utility.yul\":15231:15238   */\n      dup5\n        /* \"#utility.yul\":15222:15228   */\n      dup3\n        /* \"#utility.yul\":15211:15220   */\n      dup6\n        /* \"#utility.yul\":15207:15229   */\n      add\n        /* \"#utility.yul\":15175:15239   */\n      tag_253\n      jump\t// in\n    tag_440:\n        /* \"#utility.yul\":15165:15239   */\n      swap2\n      pop\n        /* \"#utility.yul\":15121:15249   */\n      pop\n        /* \"#utility.yul\":14905:15256   */\n      swap3\n      swap2\n      pop\n      pop\n      jump\t// out\n        /* \"#utility.yul\":15262:15442   */\n    tag_254:\n        /* \"#utility.yul\":15310:15387   */\n      0x4e487b7100000000000000000000000000000000000000000000000000000000\n        /* \"#utility.yul\":15307:15308   */\n      0x00\n        /* \"#utility.yul\":15300:15388   */\n      mstore\n        /* \"#utility.yul\":15407:15411   */\n      0x22\n        /* \"#utility.yul\":15404:15405   */\n      0x04\n        /* \"#utility.yul\":15397:15412   */\n      mstore\n        /* \"#utility.yul\":15431:15435   */\n      0x24\n        /* \"#utility.yul\":15428:15429   */\n      0x00\n        /* \"#utility.yul\":15421:15436   */\n      revert\n        /* \"#utility.yul\":15448:15768   */\n    tag_112:\n        /* \"#utility.yul\":15492:15498   */\n      0x00\n        /* \"#utility.yul\":15529:15530   */\n      0x02\n        /* \"#utility.yul\":15523:15527   */\n      dup3\n        /* \"#utility.yul\":15519:15531   */\n      div\n        /* \"#utility.yul\":15509:15531   */\n      swap1\n      pop\n        /* \"#utility.yul\":15576:15577   */\n      0x01\n        /* \"#utility.yul\":15570:15574   */\n      dup3\n        /* \"#utility.yul\":15566:15578   */\n      and\n        /* \"#utility.yul\":15597:15615   */\n      dup1\n        /* \"#utility.yul\":15587:15668   */\n      tag_443\n      jumpi\n        /* \"#utility.yul\":15653:15657   */\n      0x7f\n        /* \"#utility.yul\":15645:15651   */\n      dup3\n        /* \"#utility.yul\":15641:15658   */\n      and\n        /* \"#utility.yul\":15631:15658   */\n      swap2\n      pop\n        /* \"#utility.yul\":15587:15668   */\n    tag_443:\n        /* \"#utility.yul\":15715:15717   */\n      0x20\n        /* \"#utility.yul\":15707:15713   */\n      dup3\n        /* \"#utility.yul\":15704:15718   */\n      lt\n        /* \"#utility.yul\":15684:15702   */\n      dup2\n        /* \"#utility.yul\":15681:15719   */\n      sub\n        /* \"#utility.yul\":15678:15762   */\n      tag_444\n      jumpi\n        /* \"#utility.yul\":15734:15752   */\n      tag_445\n      tag_254\n      jump\t// in\n    tag_445:\n        /* \"#utility.yul\":15678:15762   */\n    tag_444:\n        /* \"#utility.yul\":15499:15768   */\n      pop\n        /* \"#utility.yul\":15448:15768   */\n      swap2\n      swap1\n      pop\n      jump\t// out\n        /* \"#utility.yul\":15774:15934   */\n    tag_255:\n        /* \"#utility.yul\":15914:15926   */\n      0x4f6e6c79204f776e657200000000000000000000000000000000000000000000\n        /* \"#utility.yul\":15910:15911   */\n      0x00\n        /* \"#utility.yul\":15902:15908   */\n      dup3\n        /* \"#utility.yul\":15898:15912   */\n      add\n        /* \"#utility.yul\":15891:15927   */\n      mstore\n        /* \"#utility.yul\":15774:15934   */\n      pop\n      jump\t// out\n        /* \"#utility.yul\":15940:16306   */\n    tag_256:\n        /* \"#utility.yul\":16082:16085   */\n      0x00\n        /* \"#utility.yul\":16103:16170   */\n      tag_448\n        /* \"#utility.yul\":16167:16169   */\n      0x0a\n        /* \"#utility.yul\":16162:16165   */\n      dup4\n        /* \"#utility.yul\":16103:16170   */\n      tag_237\n      jump\t// in\n    tag_448:\n        /* \"#utility.yul\":16096:16170   */\n      swap2\n      pop\n        /* \"#utility.yul\":16179:16272   */\n      tag_449\n        /* \"#utility.yul\":16268:16271   */\n      dup3\n        /* \"#utility.yul\":16179:16272   */\n      tag_255\n      jump\t// in\n    tag_449:\n        /* \"#utility.yul\":16297:16299   */\n      0x20\n        /* \"#utility.yul\":16292:16295   */\n      dup3\n        /* \"#utility.yul\":16288:16300   */\n      add\n        /* \"#utility.yul\":16281:16300   */\n      swap1\n      pop\n        /* \"#utility.yul\":15940:16306   */\n      swap2\n      swap1\n      pop\n      jump\t// out\n        /* \"#utility.yul\":16312:16731   */\n    tag_120:\n        /* \"#utility.yul\":16478:16482   */\n      0x00\n        /* \"#utility.yul\":16516:16518   */\n      0x20\n        /* \"#utility.yul\":16505:16514   */\n      dup3\n        /* \"#utility.yul\":16501:16519   */\n      add\n        /* \"#utility.yul\":16493:16519   */\n      swap1\n      pop\n        /* \"#utility.yul\":16565:16574   */\n      dup2\n        /* \"#utility.yul\":16559:16563   */\n      dup2\n        /* \"#utility.yul\":16555:16575   */\n      sub\n        /* \"#utility.yul\":16551:16552   */\n      0x00\n        /* \"#utility.yul\":16540:16549   */\n      dup4\n        /* \"#utility.yul\":16536:16553   */\n      add\n        /* \"#utility.yul\":16529:16576   */\n      mstore\n        /* \"#utility.yul\":16593:16724   */\n      tag_451\n        /* \"#utility.yul\":16719:16723   */\n      dup2\n        /* \"#utility.yul\":16593:16724   */\n      tag_256\n      jump\t// in\n    tag_451:\n        /* \"#utility.yul\":16585:16724   */\n      swap1\n      pop\n        /* \"#utility.yul\":16312:16731   */\n      swap2\n      swap1\n      pop\n      jump\t// out\n        /* \"#utility.yul\":16737:16885   */\n    tag_257:\n        /* \"#utility.yul\":16839:16850   */\n      0x00\n        /* \"#utility.yul\":16876:16879   */\n      dup2\n        /* \"#utility.yul\":16861:16879   */\n      swap1\n      pop\n        /* \"#utility.yul\":16737:16885   */\n      swap3\n      swap2\n      pop\n      pop\n      jump\t// out\n        /* \"#utility.yul\":16891:17281   */\n    tag_258:\n        /* \"#utility.yul\":16997:17000   */\n      0x00\n        /* \"#utility.yul\":17025:17064   */\n      tag_454\n        /* \"#utility.yul\":17058:17063   */\n      dup3\n        /* \"#utility.yul\":17025:17064   */\n      tag_218\n      jump\t// in\n    tag_454:\n        /* \"#utility.yul\":17080:17169   */\n      tag_455\n        /* \"#utility.yul\":17162:17168   */\n      dup2\n        /* \"#utility.yul\":17157:17160   */\n      dup6\n        /* \"#utility.yul\":17080:17169   */\n      tag_257\n      jump\t// in\n    tag_455:\n        /* \"#utility.yul\":17073:17169   */\n      swap4\n      pop\n        /* \"#utility.yul\":17178:17243   */\n      tag_456\n        /* \"#utility.yul\":17236:17242   */\n      dup2\n        /* \"#utility.yul\":17231:17234   */\n      dup6\n        /* \"#utility.yul\":17224:17228   */\n      0x20\n        /* \"#utility.yul\":17217:17222   */\n      dup7\n        /* \"#utility.yul\":17213:17229   */\n      add\n        /* \"#utility.yul\":17178:17243   */\n      tag_220\n      jump\t// in\n    tag_456:\n        /* \"#utility.yul\":17268:17274   */\n      dup1\n        /* \"#utility.yul\":17263:17266   */\n      dup5\n        /* \"#utility.yul\":17259:17275   */\n      add\n        /* \"#utility.yul\":17252:17275   */\n      swap2\n      pop\n        /* \"#utility.yul\":17001:17281   */\n      pop\n        /* \"#utility.yul\":16891:17281   */\n      swap3\n      swap2\n      pop\n      pop\n      jump\t// out\n        /* \"#utility.yul\":17287:17562   */\n    tag_123:\n        /* \"#utility.yul\":17419:17422   */\n      0x00\n        /* \"#utility.yul\":17441:17536   */\n      tag_458\n        /* \"#utility.yul\":17532:17535   */\n      dup3\n        /* \"#utility.yul\":17523:17529   */\n      dup5\n        /* \"#utility.yul\":17441:17536   */\n      tag_258\n      jump\t// in\n    tag_458:\n        /* \"#utility.yul\":17434:17536   */\n      swap2\n      pop\n        /* \"#utility.yul\":17553:17556   */\n      dup2\n        /* \"#utility.yul\":17546:17556   */\n      swap1\n      pop\n        /* \"#utility.yul\":17287:17562   */\n      swap3\n      swap2\n      pop\n      pop\n      jump\t// out\n        /* \"#utility.yul\":17568:17709   */\n    tag_259:\n        /* \"#utility.yul\":17617:17621   */\n      0x00\n        /* \"#utility.yul\":17640:17643   */\n      dup2\n        /* \"#utility.yul\":17632:17643   */\n      swap1\n      pop\n        /* \"#utility.yul\":17663:17666   */\n      dup2\n        /* \"#utility.yul\":17660:17661   */\n      0x00\n        /* \"#utility.yul\":17653:17667   */\n      mstore\n        /* \"#utility.yul\":17697:17701   */\n      0x20\n        /* \"#utility.yul\":17694:17695   */\n      0x00\n        /* \"#utility.yul\":17684:17702   */\n      keccak256\n        /* \"#utility.yul\":17676:17702   */\n      swap1\n      pop\n        /* \"#utility.yul\":17568:17709   */\n      swap2\n      swap1\n      pop\n      jump\t// out\n        /* \"#utility.yul\":17715:17808   */\n    tag_260:\n        /* \"#utility.yul\":17752:17758   */\n      0x00\n        /* \"#utility.yul\":17799:17801   */\n      0x20\n        /* \"#utility.yul\":17794:17796   */\n      0x1f\n        /* \"#utility.yul\":17787:17792   */\n      dup4\n        /* \"#utility.yul\":17783:17797   */\n      add\n        /* \"#utility.yul\":17779:17802   */\n      div\n        /* \"#utility.yul\":17769:17802   */\n      swap1\n      pop\n        /* \"#utility.yul\":17715:17808   */\n      swap2\n      swap1\n      pop\n      jump\t// out\n        /* \"#utility.yul\":17814:17921   */\n    tag_261:\n        /* \"#utility.yul\":17858:17866   */\n      0x00\n        /* \"#utility.yul\":17908:17913   */\n      dup3\n        /* \"#utility.yul\":17902:17906   */\n      dup3\n        /* \"#utility.yul\":17898:17914   */\n      shl\n        /* \"#utility.yul\":17877:17914   */\n      swap1\n      pop\n        /* \"#utility.yul\":17814:17921   */\n      swap3\n      swap2\n      pop\n      pop\n      jump\t// out\n        /* \"#utility.yul\":17927:18320   */\n    tag_262:\n        /* \"#utility.yul\":17996:18002   */\n      0x00\n        /* \"#utility.yul\":18046:18047   */\n      0x08\n        /* \"#utility.yul\":18034:18044   */\n      dup4\n        /* \"#utility.yul\":18030:18048   */\n      mul\n        /* \"#utility.yul\":18069:18166   */\n      tag_463\n        /* \"#utility.yul\":18099:18165   */\n      0xffffffffffffffffffffffffffffffffffffffffffffffffffffffffffffffff\n        /* \"#utility.yul\":18088:18097   */\n      dup3\n        /* \"#utility.yul\":18069:18166   */\n      tag_261\n      jump\t// in\n    tag_463:\n        /* \"#utility.yul\":18187:18226   */\n      tag_464\n        /* \"#utility.yul\":18217:18225   */\n      dup7\n        /* \"#utility.yul\":18206:18215   */\n      dup4\n        /* \"#utility.yul\":18187:18226   */\n      tag_261\n      jump\t// in\n    tag_464:\n        /* \"#utility.yul\":18175:18226   */\n      swap6\n      pop\n        /* \"#utility.yul\":18259:18263   */\n      dup1\n        /* \"#utility.yul\":18255:18264   */\n      not\n        /* \"#utility.yul\":18248:18253   */\n      dup5\n        /* \"#utility.yul\":18244:18265   */\n      and\n        /* \"#utility.yul\":18235:18265   */\n      swap4\n      pop\n        /* \"#utility.yul\":18308:18312   */\n      dup1\n        /* \"#utility.yul\":18298:18306   */\n      dup7\n        /* \"#utility.yul\":18294:18313   */\n      and\n        /* \"#utility.yul\":18287:18292   */\n      dup5\n        /* \"#utility.yul\":18284:18314   */\n      or\n        /* \"#utility.yul\":18274:18314   */\n      swap3\n      pop\n        /* \"#utility.yul\":18003:18320   */\n      pop\n      pop\n        /* \"#utility.yul\":17927:18320   */\n      swap4\n      swap3\n      pop\n      pop\n      pop\n      jump\t// out\n        /* \"#utility.yul\":18326:18468   */\n    tag_263:\n        /* \"#utility.yul\":18376:18385   */\n      0x00\n        /* \"#utility.yul\":18409:18462   */\n      tag_466\n        /* \"#utility.yul\":18427:18461   */\n      tag_467\n        /* \"#utility.yul\":18436:18460   */\n      tag_468\n        /* \"#utility.yul\":18454:18459   */\n      dup5\n        /* \"#utility.yul\":18436:18460   */\n      tag_207\n      jump\t// in\n    tag_468:\n        /* \"#utility.yul\":18427:18461   */\n      tag_241\n      jump\t// in\n    tag_467:\n        /* \"#utility.yul\":18409:18462   */\n      tag_207\n      jump\t// in\n    tag_466:\n        /* \"#utility.yul\":18396:18462   */\n      swap1\n      pop\n        /* \"#utility.yul\":18326:18468   */\n      swap2\n      swap1\n      pop\n      jump\t// out\n        /* \"#utility.yul\":18474:18549   */\n    tag_264:\n        /* \"#utility.yul\":18517:18520   */\n      0x00\n        /* \"#utility.yul\":18538:18543   */\n      dup2\n        /* \"#utility.yul\":18531:18543   */\n      swap1\n      pop\n        /* \"#utility.yul\":18474:18549   */\n      swap2\n      swap1\n      pop\n      jump\t// out\n        /* \"#utility.yul\":18555:18824   */\n    tag_265:\n        /* \"#utility.yul\":18665:18704   */\n      tag_471\n        /* \"#utility.yul\":18696:18703   */\n      dup4\n        /* \"#utility.yul\":18665:18704   */\n      tag_263\n      jump\t// in\n    tag_471:\n        /* \"#utility.yul\":18726:18817   */\n      tag_472\n        /* \"#utility.yul\":18775:18816   */\n      tag_473\n        /* \"#utility.yul\":18799:18815   */\n      dup3\n        /* \"#utility.yul\":18775:18816   */\n      tag_264\n      jump\t// in\n    tag_473:\n        /* \"#utility.yul\":18767:18773   */\n      dup5\n        /* \"#utility.yul\":18760:18764   */\n      dup5\n        /* \"#utility.yul\":18754:18765   */\n      sload\n        /* \"#utility.yul\":18726:18817   */\n      tag_262\n      jump\t// in\n    tag_472:\n        /* \"#utility.yul\":18720:18724   */\n      dup3\n        /* \"#utility.yul\":18713:18818   */\n      sstore\n        /* \"#utility.yul\":18631:18824   */\n      pop\n        /* \"#utility.yul\":18555:18824   */\n      pop\n      pop\n      pop\n      jump\t// out\n        /* \"#utility.yul\":18830:18903   */\n    tag_266:\n        /* \"#utility.yul\":18875:18878   */\n      0x00\n        /* \"#utility.yul\":18896:18897   */\n      0x00\n        /* \"#utility.yul\":18889:18897   */\n      swap1\n      pop\n        /* \"#utility.yul\":18830:18903   */\n      swap1\n      jump\t// out\n        /* \"#utility.yul\":18909:19098   */\n    tag_267:\n        /* \"#utility.yul\":18986:19018   */\n      tag_476\n      tag_266\n      jump\t// in\n    tag_476:\n        /* \"#utility.yul\":19027:19092   */\n      tag_477\n        /* \"#utility.yul\":19085:19091   */\n      dup2\n        /* \"#utility.yul\":19077:19083   */\n      dup5\n        /* \"#utility.yul\":19071:19075   */\n      dup5\n        /* \"#utility.yul\":19027:19092   */\n      tag_265\n      jump\t// in\n    tag_477:\n        /* \"#utility.yul\":18962:19098   */\n      pop\n        /* \"#utility.yul\":18909:19098   */\n      pop\n      pop\n      jump\t// out\n        /* \"#utility.yul\":19104:19290   */\n    tag_268:\n        /* \"#utility.yul\":19164:19284   */\n    tag_479:\n        /* \"#utility.yul\":19181:19184   */\n      dup2\n        /* \"#utility.yul\":19174:19179   */\n      dup2\n        /* \"#utility.yul\":19171:19185   */\n      lt\n        /* \"#utility.yul\":19164:19284   */\n      iszero\n      tag_481\n      jumpi\n        /* \"#utility.yul\":19235:19274   */\n      tag_482\n        /* \"#utility.yul\":19272:19273   */\n      0x00\n        /* \"#utility.yul\":19265:19270   */\n      dup3\n        /* \"#utility.yul\":19235:19274   */\n      tag_267\n      jump\t// in\n    tag_482:\n        /* \"#utility.yul\":19208:19209   */\n      0x01\n        /* \"#utility.yul\":19201:19206   */\n      dup2\n        /* \"#utility.yul\":19197:19210   */\n      add\n        /* \"#utility.yul\":19188:19210   */\n      swap1\n      pop\n        /* \"#utility.yul\":19164:19284   */\n      jump(tag_479)\n    tag_481:\n        /* \"#utility.yul\":19104:19290   */\n      pop\n      pop\n      jump\t// out\n        /* \"#utility.yul\":19296:19839   */\n    tag_269:\n        /* \"#utility.yul\":19397:19399   */\n      0x1f\n        /* \"#utility.yul\":19392:19395   */\n      dup3\n        /* \"#utility.yul\":19389:19400   */\n      gt\n        /* \"#utility.yul\":19386:19832   */\n      iszero\n      tag_484\n      jumpi\n        /* \"#utility.yul\":19431:19469   */\n      tag_485\n        /* \"#utility.yul\":19463:19468   */\n      dup2\n        /* \"#utility.yul\":19431:19469   */\n      tag_259\n      jump\t// in\n    tag_485:\n        /* \"#utility.yul\":19515:19544   */\n      tag_486\n        /* \"#utility.yul\":19533:19543   */\n      dup5\n        /* \"#utility.yul\":19515:19544   */\n      tag_260\n      jump\t// in\n    tag_486:\n        /* \"#utility.yul\":19505:19513   */\n      dup2\n        /* \"#utility.yul\":19501:19545   */\n      add\n        /* \"#utility.yul\":19698:19700   */\n      0x20\n        /* \"#utility.yul\":19686:19696   */\n      dup6\n        /* \"#utility.yul\":19683:19701   */\n      lt\n        /* \"#utility.yul\":19680:19729   */\n      iszero\n      tag_487\n      jumpi\n        /* \"#utility.yul\":19719:19727   */\n      dup2\n        /* \"#utility.yul\":19704:19727   */\n      swap1\n      pop\n        /* \"#utility.yul\":19680:19729   */\n    tag_487:\n        /* \"#utility.yul\":19742:19822   */\n      tag_488\n        /* \"#utility.yul\":19798:19820   */\n      tag_489\n        /* \"#utility.yul\":19816:19819   */\n      dup6\n        /* \"#utility.yul\":19798:19820   */\n      tag_260\n      jump\t// in\n    tag_489:\n        /* \"#utility.yul\":19788:19796   */\n      dup4\n        /* \"#utility.yul\":19784:19821   */\n      add\n        /* \"#utility.yul\":19771:19782   */\n      dup3\n        /* \"#utility.yul\":19742:19822   */\n      tag_268\n      jump\t// in\n    tag_488:\n        /* \"#utility.yul\":19401:19832   */\n      pop\n      pop\n        /* \"#utility.yul\":19386:19832   */\n    tag_484:\n        /* \"#utility.yul\":19296:19839   */\n      pop\n      pop\n      pop\n      jump\t// out\n        /* \"#utility.yul\":19845:19962   */\n    tag_270:\n        /* \"#utility.yul\":19899:19907   */\n      0x00\n        /* \"#utility.yul\":19949:19954   */\n      dup3\n        /* \"#utility.yul\":19943:19947   */\n      dup3\n        /* \"#utility.yul\":19939:19955   */\n      shr\n        /* \"#utility.yul\":19918:19955   */\n      swap1\n      pop\n        /* \"#utility.yul\":19845:19962   */\n      swap3\n      swap2\n      pop\n      pop\n      jump\t// out\n        /* \"#utility.yul\":19968:20137   */\n    tag_271:\n        /* \"#utility.yul\":20012:20018   */\n      0x00\n        /* \"#utility.yul\":20045:20096   */\n      tag_492\n        /* \"#utility.yul\":20093:20094   */\n      0x00\n        /* \"#utility.yul\":20089:20095   */\n      not\n        /* \"#utility.yul\":20081:20086   */\n      dup5\n        /* \"#utility.yul\":20078:20079   */\n      0x08\n        /* \"#utility.yul\":20074:20087   */\n      mul\n        /* \"#utility.yul\":20045:20096   */\n      tag_270\n      jump\t// in\n    tag_492:\n        /* \"#utility.yul\":20041:20097   */\n      not\n        /* \"#utility.yul\":20126:20130   */\n      dup1\n        /* \"#utility.yul\":20120:20124   */\n      dup4\n        /* \"#utility.yul\":20116:20131   */\n      and\n        /* \"#utility.yul\":20106:20131   */\n      swap2\n      pop\n        /* \"#utility.yul\":20019:20137   */\n      pop\n        /* \"#utility.yul\":19968:20137   */\n      swap3\n      swap2\n      pop\n      pop\n      jump\t// out\n        /* \"#utility.yul\":20142:20437   */\n    tag_272:\n        /* \"#utility.yul\":20218:20222   */\n      0x00\n        /* \"#utility.yul\":20364:20393   */\n      tag_494\n        /* \"#utility.yul\":20389:20392   */\n      dup4\n        /* \"#utility.yul\":20383:20387   */\n      dup4\n        /* \"#utility.yul\":20364:20393   */\n      tag_271\n      jump\t// in\n    tag_494:\n        /* \"#utility.yul\":20356:20393   */\n      swap2\n      pop\n        /* \"#utility.yul\":20426:20429   */\n      dup3\n        /* \"#utility.yul\":20423:20424   */\n      0x02\n        /* \"#utility.yul\":20419:20430   */\n      mul\n        /* \"#utility.yul\":20413:20417   */\n      dup3\n        /* \"#utility.yul\":20410:20431   */\n      or\n        /* \"#utility.yul\":20402:20431   */\n      swap1\n      pop\n        /* \"#utility.yul\":20142:20437   */\n      swap3\n      swap2\n      pop\n      pop\n      jump\t// out\n        /* \"#utility.yul\":20442:21837   */\n    tag_125:\n        /* \"#utility.yul\":20559:20596   */\n      tag_496\n        /* \"#utility.yul\":20592:20595   */\n      dup3\n        /* \"#utility.yul\":20559:20596   */\n      tag_218\n      jump\t// in\n    tag_496:\n        /* \"#utility.yul\":20661:20679   */\n      0xffffffffffffffff\n        /* \"#utility.yul\":20653:20659   */\n      dup2\n        /* \"#utility.yul\":20650:20680   */\n      gt\n        /* \"#utility.yul\":20647:20703   */\n      iszero\n      tag_497\n      jumpi\n        /* \"#utility.yul\":20683:20701   */\n      tag_498\n      tag_228\n      jump\t// in\n    tag_498:\n        /* \"#utility.yul\":20647:20703   */\n    tag_497:\n        /* \"#utility.yul\":20727:20765   */\n      tag_499\n        /* \"#utility.yul\":20759:20763   */\n      dup3\n        /* \"#utility.yul\":20753:20764   */\n      sload\n        /* \"#utility.yul\":20727:20765   */\n      tag_112\n      jump\t// in\n    tag_499:\n        /* \"#utility.yul\":20812:20879   */\n      tag_500\n        /* \"#utility.yul\":20872:20878   */\n      dup3\n        /* \"#utility.yul\":20864:20870   */\n      dup3\n        /* \"#utility.yul\":20858:20862   */\n      dup6\n        /* \"#utility.yul\":20812:20879   */\n      tag_269\n      jump\t// in\n    tag_500:\n        /* \"#utility.yul\":20906:20907   */\n      0x00\n        /* \"#utility.yul\":20930:20934   */\n      0x20\n        /* \"#utility.yul\":20917:20934   */\n      swap1\n      pop\n        /* \"#utility.yul\":20962:20964   */\n      0x1f\n        /* \"#utility.yul\":20954:20960   */\n      dup4\n        /* \"#utility.yul\":20951:20965   */\n      gt\n        /* \"#utility.yul\":20979:20980   */\n      0x01\n        /* \"#utility.yul\":20974:21592   */\n      dup2\n      eq\n      tag_502\n      jumpi\n        /* \"#utility.yul\":21636:21637   */\n      0x00\n        /* \"#utility.yul\":21653:21659   */\n      dup5\n        /* \"#utility.yul\":21650:21727   */\n      iszero\n      tag_503\n      jumpi\n        /* \"#utility.yul\":21702:21711   */\n      dup3\n        /* \"#utility.yul\":21697:21700   */\n      dup8\n        /* \"#utility.yul\":21693:21712   */\n      add\n        /* \"#utility.yul\":21687:21713   */\n      mload\n        /* \"#utility.yul\":21678:21713   */\n      swap1\n      pop\n        /* \"#utility.yul\":21650:21727   */\n    tag_503:\n        /* \"#utility.yul\":21753:21820   */\n      tag_504\n        /* \"#utility.yul\":21813:21819   */\n      dup6\n        /* \"#utility.yul\":21806:21811   */\n      dup3\n        /* \"#utility.yul\":21753:21820   */\n      tag_272\n      jump\t// in\n    tag_504:\n        /* \"#utility.yul\":21747:21751   */\n      dup7\n        /* \"#utility.yul\":21740:21821   */\n      sstore\n        /* \"#utility.yul\":21609:21831   */\n      pop\n        /* \"#utility.yul\":20944:21831   */\n      jump(tag_501)\n        /* \"#utility.yul\":20974:21592   */\n    tag_502:\n        /* \"#utility.yul\":21026:21030   */\n      0x1f\n        /* \"#utility.yul\":21022:21031   */\n      not\n        /* \"#utility.yul\":21014:21020   */\n      dup5\n        /* \"#utility.yul\":21010:21032   */\n      and\n        /* \"#utility.yul\":21060:21097   */\n      tag_505\n        /* \"#utility.yul\":21092:21096   */\n      dup7\n        /* \"#utility.yul\":21060:21097   */\n      tag_259\n      jump\t// in\n    tag_505:\n        /* \"#utility.yul\":21119:21120   */\n      0x00\n        /* \"#utility.yul\":21133:21341   */\n    tag_506:\n        /* \"#utility.yul\":21147:21154   */\n      dup3\n        /* \"#utility.yul\":21144:21145   */\n      dup2\n        /* \"#utility.yul\":21141:21155   */\n      lt\n        /* \"#utility.yul\":21133:21341   */\n      iszero\n      tag_508\n      jumpi\n        /* \"#utility.yul\":21226:21235   */\n      dup5\n        /* \"#utility.yul\":21221:21224   */\n      dup10\n        /* \"#utility.yul\":21217:21236   */\n      add\n        /* \"#utility.yul\":21211:21237   */\n      mload\n        /* \"#utility.yul\":21203:21209   */\n      dup3\n        /* \"#utility.yul\":21196:21238   */\n      sstore\n        /* \"#utility.yul\":21277:21278   */\n      0x01\n        /* \"#utility.yul\":21269:21275   */\n      dup3\n        /* \"#utility.yul\":21265:21279   */\n      add\n        /* \"#utility.yul\":21255:21279   */\n      swap2\n      pop\n        /* \"#utility.yul\":21324:21326   */\n      0x20\n        /* \"#utility.yul\":21313:21322   */\n      dup6\n        /* \"#utility.yul\":21309:21327   */\n      add\n        /* \"#utility.yul\":21296:21327   */\n      swap5\n      pop\n        /* \"#utility.yul\":21170:21174   */\n      0x20\n        /* \"#utility.yul\":21167:21168   */\n      dup2\n        /* \"#utility.yul\":21163:21175   */\n      add\n        /* \"#utility.yul\":21158:21175   */\n      swap1\n      pop\n        /* \"#utility.yul\":21133:21341   */\n      jump(tag_506)\n    tag_508:\n        /* \"#utility.yul\":21369:21375   */\n      dup7\n        /* \"#utility.yul\":21360:21367   */\n      dup4\n        /* \"#utility.yul\":21357:21376   */\n      lt\n        /* \"#utility.yul\":21354:21533   */\n      iszero\n      tag_509\n      jumpi\n        /* \"#utility.yul\":21427:21436   */\n      dup5\n        /* \"#utility.yul\":21422:21425   */\n      dup10\n        /* \"#utility.yul\":21418:21437   */\n      add\n        /* \"#utility.yul\":21412:21438   */\n      mload\n        /* \"#utility.yul\":21470:21518   */\n      tag_510\n        /* \"#utility.yul\":21512:21516   */\n      0x1f\n        /* \"#utility.yul\":21504:21510   */\n      dup10\n        /* \"#utility.yul\":21500:21517   */\n      and\n        /* \"#utility.yul\":21489:21498   */\n      dup3\n        /* \"#utility.yul\":21470:21518   */\n      tag_271\n      jump\t// in\n    tag_510:\n        /* \"#utility.yul\":21462:21468   */\n      dup4\n        /* \"#utility.yul\":21455:21519   */\n      sstore\n        /* \"#utility.yul\":21377:21533   */\n      pop\n        /* \"#utility.yul\":21354:21533   */\n    tag_509:\n        /* \"#utility.yul\":21579:21580   */\n      0x01\n        /* \"#utility.yul\":21575:21576   */\n      0x02\n        /* \"#utility.yul\":21567:21573   */\n      dup9\n        /* \"#utility.yul\":21563:21577   */\n      mul\n        /* \"#utility.yul\":21559:21581   */\n      add\n        /* \"#utility.yul\":21553:21557   */\n      dup9\n        /* \"#utility.yul\":21546:21582   */\n      sstore\n        /* \"#utility.yul\":20981:21592   */\n      pop\n      pop\n      pop\n        /* \"#utility.yul\":20944:21831   */\n    tag_501:\n      pop\n        /* \"#utility.yul\":20534:21837   */\n      pop\n      pop\n      pop\n        /* \"#utility.yul\":20442:21837   */\n      pop\n      pop\n      jump\t// out\n        /* \"#utility.yul\":21843:22266   */\n    tag_129:\n        /* \"#utility.yul\":21984:21988   */\n      0x00\n        /* \"#utility.yul\":22022:22024   */\n      0x40\n        /* \"#utility.yul\":22011:22020   */\n      dup3\n        /* \"#utility.yul\":22007:22025   */\n      add\n        /* \"#utility.yul\":21999:22025   */\n      swap1\n      pop\n        /* \"#utility.yul\":22071:22080   */\n      dup2\n        /* \"#utility.yul\":22065:22069   */\n      dup2\n        /* \"#utility.yul\":22061:22081   */\n      sub\n        /* \"#utility.yul\":22057:22058   */\n      0x00\n        /* \"#utility.yul\":22046:22055   */\n      dup4\n        /* \"#utility.yul\":22042:22059   */\n      add\n        /* \"#utility.yul\":22035:22082   */\n      mstore\n        /* \"#utility.yul\":22099:22177   */\n      tag_512\n        /* \"#utility.yul\":22172:22176   */\n      dup2\n        /* \"#utility.yul\":22163:22169   */\n      dup6\n        /* \"#utility.yul\":22099:22177   */\n      tag_238\n      jump\t// in\n    tag_512:\n        /* \"#utility.yul\":22091:22177   */\n      swap1\n      pop\n        /* \"#utility.yul\":22187:22259   */\n      tag_513\n        /* \"#utility.yul\":22255:22257   */\n      0x20\n        /* \"#utility.yul\":22244:22253   */\n      dup4\n        /* \"#utility.yul\":22240:22258   */\n      add\n        /* \"#utility.yul\":22231:22237   */\n      dup5\n        /* \"#utility.yul\":22187:22259   */\n      tag_214\n      jump\t// in\n    tag_513:\n        /* \"#utility.yul\":21843:22266   */\n      swap4\n      swap3\n      pop\n      pop\n      pop\n      jump\t// out\n        /* \"#utility.yul\":22272:22585   */\n    tag_136:\n        /* \"#utility.yul\":22385:22389   */\n      0x00\n        /* \"#utility.yul\":22423:22425   */\n      0x20\n        /* \"#utility.yul\":22412:22421   */\n      dup3\n        /* \"#utility.yul\":22408:22426   */\n      add\n        /* \"#utility.yul\":22400:22426   */\n      swap1\n      pop\n        /* \"#utility.yul\":22472:22481   */\n      dup2\n        /* \"#utility.yul\":22466:22470   */\n      dup2\n        /* \"#utility.yul\":22462:22482   */\n      sub\n        /* \"#utility.yul\":22458:22459   */\n      0x00\n        /* \"#utility.yul\":22447:22456   */\n      dup4\n        /* \"#utility.yul\":22443:22460   */\n      add\n        /* \"#utility.yul\":22436:22483   */\n      mstore\n        /* \"#utility.yul\":22500:22578   */\n      tag_515\n        /* \"#utility.yul\":22573:22577   */\n      dup2\n        /* \"#utility.yul\":22564:22570   */\n      dup5\n        /* \"#utility.yul\":22500:22578   */\n      tag_238\n      jump\t// in\n    tag_515:\n        /* \"#utility.yul\":22492:22578   */\n      swap1\n      pop\n        /* \"#utility.yul\":22272:22585   */\n      swap3\n      swap2\n      pop\n      pop\n      jump\t// out\n        /* \"#utility.yul\":22591:22759   */\n    tag_273:\n        /* \"#utility.yul\":22731:22751   */\n      0x496e73756666696369656e742046756e64730000000000000000000000000000\n        /* \"#utility.yul\":22727:22728   */\n      0x00\n        /* \"#utility.yul\":22719:22725   */\n      dup3\n        /* \"#utility.yul\":22715:22729   */\n      add\n        /* \"#utility.yul\":22708:22752   */\n      mstore\n        /* \"#utility.yul\":22591:22759   */\n      pop\n      jump\t// out\n        /* \"#utility.yul\":22765:23131   */\n    tag_274:\n        /* \"#utility.yul\":22907:22910   */\n      0x00\n        /* \"#utility.yul\":22928:22995   */\n      tag_518\n        /* \"#utility.yul\":22992:22994   */\n      0x12\n        /* \"#utility.yul\":22987:22990   */\n      dup4\n        /* \"#utility.yul\":22928:22995   */\n      tag_237\n      jump\t// in\n    tag_518:\n        /* \"#utility.yul\":22921:22995   */\n      swap2\n      pop\n        /* \"#utility.yul\":23004:23097   */\n      tag_519\n        /* \"#utility.yul\":23093:23096   */\n      dup3\n        /* \"#utility.yul\":23004:23097   */\n      tag_273\n      jump\t// in\n    tag_519:\n        /* \"#utility.yul\":23122:23124   */\n      0x20\n        /* \"#utility.yul\":23117:23120   */\n      dup3\n        /* \"#utility.yul\":23113:23125   */\n      add\n        /* \"#utility.yul\":23106:23125   */\n      swap1\n      pop\n        /* \"#utility.yul\":22765:23131   */\n      swap2\n      swap1\n      pop\n      jump\t// out\n        /* \"#utility.yul\":23137:23556   */\n    tag_164:\n        /* \"#utility.yul\":23303:23307   */\n      0x00\n        /* \"#utility.yul\":23341:23343   */\n      0x20\n        /* \"#utility.yul\":23330:23339   */\n      dup3\n        /* \"#utility.yul\":23326:23344   */\n      add\n        /* \"#utility.yul\":23318:23344   */\n      swap1\n      pop\n        /* \"#utility.yul\":23390:23399   */\n      dup2\n        /* \"#utility.yul\":23384:23388   */\n      dup2\n        /* \"#utility.yul\":23380:23400   */\n      sub\n        /* \"#utility.yul\":23376:23377   */\n      0x00\n        /* \"#utility.yul\":23365:23374   */\n      dup4\n        /* \"#utility.yul\":23361:23378   */\n      add\n        /* \"#utility.yul\":23354:23401   */\n      mstore\n        /* \"#utility.yul\":23418:23549   */\n      tag_521\n        /* \"#utility.yul\":23544:23548   */\n      dup2\n        /* \"#utility.yul\":23418:23549   */\n      tag_274\n      jump\t// in\n    tag_521:\n        /* \"#utility.yul\":23410:23549   */\n      swap1\n      pop\n        /* \"#utility.yul\":23137:23556   */\n      swap2\n      swap1\n      pop\n      jump\t// out\n        /* \"#utility.yul\":23562:23742   */\n    tag_275:\n        /* \"#utility.yul\":23610:23687   */\n      0x4e487b7100000000000000000000000000000000000000000000000000000000\n        /* \"#utility.yul\":23607:23608   */\n      0x00\n        /* \"#utility.yul\":23600:23688   */\n      mstore\n        /* \"#utility.yul\":23707:23711   */\n      0x11\n        /* \"#utility.yul\":23704:23705   */\n      0x04\n        /* \"#utility.yul\":23697:23712   */\n      mstore\n        /* \"#utility.yul\":23731:23735   */\n      0x24\n        /* \"#utility.yul\":23728:23729   */\n      0x00\n        /* \"#utility.yul\":23721:23736   */\n      revert\n        /* \"#utility.yul\":23748:23942   */\n    tag_166:\n        /* \"#utility.yul\":23788:23792   */\n      0x00\n        /* \"#utility.yul\":23808:23828   */\n      tag_524\n        /* \"#utility.yul\":23826:23827   */\n      dup3\n        /* \"#utility.yul\":23808:23828   */\n      tag_207\n      jump\t// in\n    tag_524:\n        /* \"#utility.yul\":23803:23828   */\n      swap2\n      pop\n        /* \"#utility.yul\":23842:23862   */\n      tag_525\n        /* \"#utility.yul\":23860:23861   */\n      dup4\n        /* \"#utility.yul\":23842:23862   */\n      tag_207\n      jump\t// in\n    tag_525:\n        /* \"#utility.yul\":23837:23862   */\n      swap3\n      pop\n        /* \"#utility.yul\":23886:23887   */\n      dup3\n        /* \"#utility.yul\":23883:23884   */\n      dup3\n        /* \"#utility.yul\":23879:23888   */\n      sub\n        /* \"#utility.yul\":23871:23888   */\n      swap1\n      pop\n        /* \"#utility.yul\":23910:23911   */\n      dup2\n        /* \"#utility.yul\":23904:23908   */\n      dup2\n        /* \"#utility.yul\":23901:23912   */\n      gt\n        /* \"#utility.yul\":23898:23935   */\n      iszero\n      tag_526\n      jumpi\n        /* \"#utility.yul\":23915:23933   */\n      tag_527\n      tag_275\n      jump\t// in\n    tag_527:\n        /* \"#utility.yul\":23898:23935   */\n    tag_526:\n        /* \"#utility.yul\":23748:23942   */\n      swap3\n      swap2\n      pop\n      pop\n      jump\t// out\n        /* \"#utility.yul\":23948:24280   */\n    tag_173:\n        /* \"#utility.yul\":24069:24073   */\n      0x00\n        /* \"#utility.yul\":24107:24109   */\n      0x40\n        /* \"#utility.yul\":24096:24105   */\n      dup3\n        /* \"#utility.yul\":24092:24110   */\n      add\n        /* \"#utility.yul\":24084:24110   */\n      swap1\n      pop\n        /* \"#utility.yul\":24120:24191   */\n      tag_529\n        /* \"#utility.yul\":24188:24189   */\n      0x00\n        /* \"#utility.yul\":24177:24186   */\n      dup4\n        /* \"#utility.yul\":24173:24190   */\n      add\n        /* \"#utility.yul\":24164:24170   */\n      dup6\n        /* \"#utility.yul\":24120:24191   */\n      tag_250\n      jump\t// in\n    tag_529:\n        /* \"#utility.yul\":24201:24273   */\n      tag_530\n        /* \"#utility.yul\":24269:24271   */\n      0x20\n        /* \"#utility.yul\":24258:24267   */\n      dup4\n        /* \"#utility.yul\":24254:24272   */\n      add\n        /* \"#utility.yul\":24245:24251   */\n      dup5\n        /* \"#utility.yul\":24201:24273   */\n      tag_214\n      jump\t// in\n    tag_530:\n        /* \"#utility.yul\":23948:24280   */\n      swap4\n      swap3\n      pop\n      pop\n      pop\n      jump\t// out\n        /* \"#utility.yul\":24286:24477   */\n    tag_178:\n        /* \"#utility.yul\":24326:24329   */\n      0x00\n        /* \"#utility.yul\":24345:24365   */\n      tag_532\n        /* \"#utility.yul\":24363:24364   */\n      dup3\n        /* \"#utility.yul\":24345:24365   */\n      tag_207\n      jump\t// in\n    tag_532:\n        /* \"#utility.yul\":24340:24365   */\n      swap2\n      pop\n        /* \"#utility.yul\":24379:24399   */\n      tag_533\n        /* \"#utility.yul\":24397:24398   */\n      dup4\n        /* \"#utility.yul\":24379:24399   */\n      tag_207\n      jump\t// in\n    tag_533:\n        /* \"#utility.yul\":24374:24399   */\n      swap3\n      pop\n        /* \"#utility.yul\":24422:24423   */\n      dup3\n        /* \"#utility.yul\":24419:24420   */\n      dup3\n        /* \"#utility.yul\":24415:24424   */\n      add\n        /* \"#utility.yul\":24408:24424   */\n      swap1\n      pop\n        /* \"#utility.yul\":24443:24446   */\n      dup1\n        /* \"#utility.yul\":24440:24441   */\n      dup3\n        /* \"#utility.yul\":24437:24447   */\n      gt\n        /* \"#utility.yul\":24434:24470   */\n      iszero\n      tag_534\n      jumpi\n        /* \"#utility.yul\":24450:24468   */\n      tag_535\n      tag_275\n      jump\t// in\n    tag_535:\n        /* \"#utility.yul\":24434:24470   */\n    tag_534:\n        /* \"#utility.yul\":24286:24477   */\n      swap3\n      swap2\n      pop\n      pop\n      jump\t// out\n        /* \"#utility.yul\":24483:24654   */\n    tag_276:\n        /* \"#utility.yul\":24623:24646   */\n      0x41747472616374696f206e6f7420656e61626c65640000000000000000000000\n        /* \"#utility.yul\":24619:24620   */\n      0x00\n        /* \"#utility.yul\":24611:24617   */\n      dup3\n        /* \"#utility.yul\":24607:24621   */\n      add\n        /* \"#utility.yul\":24600:24647   */\n      mstore\n        /* \"#utility.yul\":24483:24654   */\n      pop\n      jump\t// out\n        /* \"#utility.yul\":24660:25026   */\n    tag_277:\n        /* \"#utility.yul\":24802:24805   */\n      0x00\n        /* \"#utility.yul\":24823:24890   */\n      tag_538\n        /* \"#utility.yul\":24887:24889   */\n      0x15\n        /* \"#utility.yul\":24882:24885   */\n      dup4\n        /* \"#utility.yul\":24823:24890   */\n      tag_237\n      jump\t// in\n    tag_538:\n        /* \"#utility.yul\":24816:24890   */\n      swap2\n      pop\n        /* \"#utility.yul\":24899:24992   */\n      tag_539\n        /* \"#utility.yul\":24988:24991   */\n      dup3\n        /* \"#utility.yul\":24899:24992   */\n      tag_276\n      jump\t// in\n    tag_539:\n        /* \"#utility.yul\":25017:25019   */\n      0x20\n        /* \"#utility.yul\":25012:25015   */\n      dup3\n        /* \"#utility.yul\":25008:25020   */\n      add\n        /* \"#utility.yul\":25001:25020   */\n      swap1\n      pop\n        /* \"#utility.yul\":24660:25026   */\n      swap2\n      swap1\n      pop\n      jump\t// out\n        /* \"#utility.yul\":25032:25451   */\n    tag_184:\n        /* \"#utility.yul\":25198:25202   */\n      0x00\n        /* \"#utility.yul\":25236:25238   */\n      0x20\n        /* \"#utility.yul\":25225:25234   */\n      dup3\n        /* \"#utility.yul\":25221:25239   */\n      add\n        /* \"#utility.yul\":25213:25239   */\n      swap1\n      pop\n        /* \"#utility.yul\":25285:25294   */\n      dup2\n        /* \"#utility.yul\":25279:25283   */\n      dup2\n        /* \"#utility.yul\":25275:25295   */\n      sub\n        /* \"#utility.yul\":25271:25272   */\n      0x00\n        /* \"#utility.yul\":25260:25269   */\n      dup4\n        /* \"#utility.yul\":25256:25273   */\n      add\n        /* \"#utility.yul\":25249:25296   */\n      mstore\n        /* \"#utility.yul\":25313:25444   */\n      tag_541\n        /* \"#utility.yul\":25439:25443   */\n      dup2\n        /* \"#utility.yul\":25313:25444   */\n      tag_277\n      jump\t// in\n    tag_541:\n        /* \"#utility.yul\":25305:25444   */\n      swap1\n      pop\n        /* \"#utility.yul\":25032:25451   */\n      swap2\n      swap1\n      pop\n      jump\t// out\n        /* \"#utility.yul\":25457:25636   */\n    tag_278:\n        /* \"#utility.yul\":25597:25628   */\n      0x596f7520646f206e6f74206861766520656e6f75676820746f6b656e73000000\n        /* \"#utility.yul\":25593:25594   */\n      0x00\n        /* \"#utility.yul\":25585:25591   */\n      dup3\n        /* \"#utility.yul\":25581:25595   */\n      add\n        /* \"#utility.yul\":25574:25629   */\n      mstore\n        /* \"#utility.yul\":25457:25636   */\n      pop\n      jump\t// out\n        /* \"#utility.yul\":25642:26008   */\n    tag_279:\n        /* \"#utility.yul\":25784:25787   */\n      0x00\n        /* \"#utility.yul\":25805:25872   */\n      tag_544\n        /* \"#utility.yul\":25869:25871   */\n      0x1d\n        /* \"#utility.yul\":25864:25867   */\n      dup4\n        /* \"#utility.yul\":25805:25872   */\n      tag_237\n      jump\t// in\n    tag_544:\n        /* \"#utility.yul\":25798:25872   */\n      swap2\n      pop\n        /* \"#utility.yul\":25881:25974   */\n      tag_545\n        /* \"#utility.yul\":25970:25973   */\n      dup3\n        /* \"#utility.yul\":25881:25974   */\n      tag_278\n      jump\t// in\n    tag_545:\n        /* \"#utility.yul\":25999:26001   */\n      0x20\n        /* \"#utility.yul\":25994:25997   */\n      dup3\n        /* \"#utility.yul\":25990:26002   */\n      add\n        /* \"#utility.yul\":25983:26002   */\n      swap1\n      pop\n        /* \"#utility.yul\":25642:26008   */\n      swap2\n      swap1\n      pop\n      jump\t// out\n        /* \"#utility.yul\":26014:26433   */\n    tag_188:\n        /* \"#utility.yul\":26180:26184   */\n      0x00\n        /* \"#utility.yul\":26218:26220   */\n      0x20\n        /* \"#utility.yul\":26207:26216   */\n      dup3\n        /* \"#utility.yul\":26203:26221   */\n      add\n        /* \"#utility.yul\":26195:26221   */\n      swap1\n      pop\n        /* \"#utility.yul\":26267:26276   */\n      dup2\n        /* \"#utility.yul\":26261:26265   */\n      dup2\n        /* \"#utility.yul\":26257:26277   */\n      sub\n        /* \"#utility.yul\":26253:26254   */\n      0x00\n        /* \"#utility.yul\":26242:26251   */\n      dup4\n        /* \"#utility.yul\":26238:26255   */\n      add\n        /* \"#utility.yul\":26231:26278   */\n      mstore\n        /* \"#utility.yul\":26295:26426   */\n      tag_547\n        /* \"#utility.yul\":26421:26425   */\n      dup2\n        /* \"#utility.yul\":26295:26426   */\n      tag_279\n      jump\t// in\n    tag_547:\n        /* \"#utility.yul\":26287:26426   */\n      swap1\n      pop\n        /* \"#utility.yul\":26014:26433   */\n      swap2\n      swap1\n      pop\n      jump\t// out\n        /* \"#utility.yul\":26439:26849   */\n    tag_203:\n        /* \"#utility.yul\":26479:26486   */\n      0x00\n        /* \"#utility.yul\":26502:26522   */\n      tag_549\n        /* \"#utility.yul\":26520:26521   */\n      dup3\n        /* \"#utility.yul\":26502:26522   */\n      tag_207\n      jump\t// in\n    tag_549:\n        /* \"#utility.yul\":26497:26522   */\n      swap2\n      pop\n        /* \"#utility.yul\":26536:26556   */\n      tag_550\n        /* \"#utility.yul\":26554:26555   */\n      dup4\n        /* \"#utility.yul\":26536:26556   */\n      tag_207\n      jump\t// in\n    tag_550:\n        /* \"#utility.yul\":26531:26556   */\n      swap3\n      pop\n        /* \"#utility.yul\":26591:26592   */\n      dup3\n        /* \"#utility.yul\":26588:26589   */\n      dup3\n        /* \"#utility.yul\":26584:26593   */\n      mul\n        /* \"#utility.yul\":26613:26643   */\n      tag_551\n        /* \"#utility.yul\":26631:26642   */\n      dup2\n        /* \"#utility.yul\":26613:26643   */\n      tag_207\n      jump\t// in\n    tag_551:\n        /* \"#utility.yul\":26602:26643   */\n      swap2\n      pop\n        /* \"#utility.yul\":26792:26793   */\n      dup3\n        /* \"#utility.yul\":26783:26790   */\n      dup3\n        /* \"#utility.yul\":26779:26794   */\n      div\n        /* \"#utility.yul\":26776:26777   */\n      dup5\n        /* \"#utility.yul\":26773:26795   */\n      eq\n        /* \"#utility.yul\":26753:26754   */\n      dup4\n        /* \"#utility.yul\":26746:26755   */\n      iszero\n        /* \"#utility.yul\":26726:26809   */\n      or\n        /* \"#utility.yul\":26703:26842   */\n      tag_552\n      jumpi\n        /* \"#utility.yul\":26822:26840   */\n      tag_553\n      tag_275\n      jump\t// in\n    tag_553:\n        /* \"#utility.yul\":26703:26842   */\n    tag_552:\n        /* \"#utility.yul\":26487:26849   */\n      pop\n        /* \"#utility.yul\":26439:26849   */\n      swap3\n      swap2\n      pop\n      pop\n      jump\t// out\n\n    auxdata: 0xa26469706673582212200609c311eb0dabe0839115fd658ada6e9f1c313dc39c1613ce7fa6913fec73d064736f6c634300081e0033\n}\n\nsub_1: assembly {\n        /* \"PlayLand/ERC20Basic.sol\":1159:3837  contract ERC20Basic is IERC20... */\n      mstore(0x40, 0x80)\n        /* \"PlayLand/ERC20Basic.sol\":1505:1638  constructor(uint256 initialSupply)... */\n      callvalue\n      dup1\n      iszero\n      tag_1\n      jumpi\n      revert(0x00, 0x00)\n    tag_1:\n      pop\n      mload(0x40)\n      sub(codesize, bytecodeSize)\n      dup1\n      bytecodeSize\n      dup4\n      codecopy\n      dup2\n      dup2\n      add\n      0x40\n      mstore\n      dup2\n      add\n      swap1\n      tag_2\n      swap2\n      swap1\n      tag_3\n      jump\t// in\n    tag_2:\n        /* \"PlayLand/ERC20Basic.sol\":1571:1584  initialSupply */\n      dup1\n        /* \"PlayLand/ERC20Basic.sol\":1556:1568  totalSupply_ */\n      0x02\n        /* \"PlayLand/ERC20Basic.sol\":1556:1584  totalSupply_ = initialSupply */\n      dup2\n      swap1\n      sstore\n      pop\n        /* \"PlayLand/ERC20Basic.sol\":1618:1630  totalSupply_ */\n      sload(0x02)\n        /* \"PlayLand/ERC20Basic.sol\":1595:1603  balances */\n      0x00\n        /* \"PlayLand/ERC20Basic.sol\":1595:1615  balances[msg.sender] */\n      0x00\n        /* \"PlayLand/ERC20Basic.sol\":1604:1614  msg.sender */\n      caller\n        /* \"PlayLand/ERC20Basic.sol\":1595:1615  balances[msg.sender] */\n      0xffffffffffffffffffffffffffffffffffffffff\n      and\n      0xffffffffffffffffffffffffffffffffffffffff\n      and\n      dup2\n      mstore\n      0x20\n      add\n      swap1\n      dup2\n      mstore\n      0x20\n      add\n      0x00\n      keccak256\n        /* \"PlayLand/ERC20Basic.sol\":1595:1630  balances[msg.sender] = totalSupply_ */\n      dup2\n      swap1\n      sstore\n      pop\n        /* \"PlayLand/ERC20Basic.sol\":1505:1638  constructor(uint256 initialSupply)... */\n      pop\n        /* \"PlayLand/ERC20Basic.sol\":1159:3837  contract ERC20Basic is IERC20... */\n      jump(tag_6)\n        /* \"#utility.yul\":88:205   */\n    tag_8:\n        /* \"#utility.yul\":197:198   */\n      0x00\n        /* \"#utility.yul\":194:195   */\n      0x00\n        /* \"#utility.yul\":187:199   */\n      revert\n        /* \"#utility.yul\":334:411   */\n    tag_10:\n        /* \"#utility.yul\":371:378   */\n      0x00\n        /* \"#utility.yul\":400:405   */\n      dup2\n        /* \"#utility.yul\":389:405   */\n      swap1\n      pop\n        /* \"#utility.yul\":334:411   */\n      swap2\n      swap1\n      pop\n      jump\t// out\n        /* \"#utility.yul\":417:539   */\n    tag_11:\n        /* \"#utility.yul\":490:514   */\n      tag_19\n        /* \"#utility.yul\":508:513   */\n      dup2\n        /* \"#utility.yul\":490:514   */\n      tag_10\n      jump\t// in\n    tag_19:\n        /* \"#utility.yul\":483:488   */\n      dup2\n        /* \"#utility.yul\":480:515   */\n      eq\n        /* \"#utility.yul\":470:533   */\n      tag_20\n      jumpi\n        /* \"#utility.yul\":529:530   */\n      0x00\n        /* \"#utility.yul\":526:527   */\n      0x00\n        /* \"#utility.yul\":519:531   */\n      revert\n        /* \"#utility.yul\":470:533   */\n    tag_20:\n        /* \"#utility.yul\":417:539   */\n      pop\n      jump\t// out\n        /* \"#utility.yul\":545:688   */\n    tag_12:\n        /* \"#utility.yul\":602:607   */\n      0x00\n        /* \"#utility.yul\":633:639   */\n      dup2\n        /* \"#utility.yul\":627:640   */\n      mload\n        /* \"#utility.yul\":618:640   */\n      swap1\n      pop\n        /* \"#utility.yul\":649:682   */\n      tag_22\n        /* \"#utility.yul\":676:681   */\n      dup2\n        /* \"#utility.yul\":649:682   */\n      tag_11\n      jump\t// in\n    tag_22:\n        /* \"#utility.yul\":545:688   */\n      swap3\n      swap2\n      pop\n      pop\n      jump\t// out\n        /* \"#utility.yul\":694:1045   */\n    tag_3:\n        /* \"#utility.yul\":764:770   */\n      0x00\n        /* \"#utility.yul\":813:815   */\n      0x20\n        /* \"#utility.yul\":801:810   */\n      dup3\n        /* \"#utility.yul\":792:799   */\n      dup5\n        /* \"#utility.yul\":788:811   */\n      sub\n        /* \"#utility.yul\":784:816   */\n      slt\n        /* \"#utility.yul\":781:900   */\n      iszero\n      tag_24\n      jumpi\n        /* \"#utility.yul\":819:898   */\n      tag_25\n      tag_8\n      jump\t// in\n    tag_25:\n        /* \"#utility.yul\":781:900   */\n    tag_24:\n        /* \"#utility.yul\":939:940   */\n      0x00\n        /* \"#utility.yul\":964:1028   */\n      tag_26\n        /* \"#utility.yul\":1020:1027   */\n      dup5\n        /* \"#utility.yul\":1011:1017   */\n      dup3\n        /* \"#utility.yul\":1000:1009   */\n      dup6\n        /* \"#utility.yul\":996:1018   */\n      add\n        /* \"#utility.yul\":964:1028   */\n      tag_12\n      jump\t// in\n    tag_26:\n        /* \"#utility.yul\":954:1028   */\n      swap2\n      pop\n        /* \"#utility.yul\":910:1038   */\n      pop\n        /* \"#utility.yul\":694:1045   */\n      swap3\n      swap2\n      pop\n      pop\n      jump\t// out\n        /* \"PlayLand/ERC20Basic.sol\":1159:3837  contract ERC20Basic is IERC20... */\n    tag_6:\n      dataSize(sub_0)\n      dup1\n      dataOffset(sub_0)\n      0x00\n      codecopy\n      0x00\n      return\n    stop\n\n    sub_0: assembly {\n            /* \"PlayLand/ERC20Basic.sol\":1159:3837  contract ERC20Basic is IERC20... */\n          mstore(0x40, 0x80)\n          callvalue\n          dup1\n          iszero\n          tag_1\n          jumpi\n          revert(0x00, 0x00)\n        tag_1:\n          pop\n          jumpi(tag_2, lt(calldatasize, 0x04))\n          shr(0xe0, calldataload(0x00))\n          dup1\n          0x313ce567\n          gt\n          tag_14\n          jumpi\n          dup1\n          0x313ce567\n          eq\n          tag_8\n          jumpi\n          dup1\n          0x70a08231\n          eq\n          tag_9\n          jumpi\n          dup1\n          0x95d89b41\n          eq\n          tag_10\n          jumpi\n          dup1\n          0xa9059cbb\n          eq\n          tag_11\n          jumpi\n          dup1\n          0xd44237aa\n          eq\n          tag_12\n          jumpi\n          dup1\n          0xdd62ed3e\n          eq\n          tag_13\n          jumpi\n          jump(tag_2)\n        tag_14:\n          dup1\n          0x06fdde03\n          eq\n          tag_3\n          jumpi\n          dup1\n          0x095ea7b3\n          eq\n          tag_4\n          jumpi\n          dup1\n          0x18160ddd\n          eq\n          tag_5\n          jumpi\n          dup1\n          0x1d43cc98\n          eq\n          tag_6\n          jumpi\n          dup1\n          0x23b872dd\n          eq\n          tag_7\n          jumpi\n        tag_2:\n          revert(0x00, 0x00)\n            /* \"PlayLand/ERC20Basic.sol\":1197:1246  string public  constant  name = \"ERC20JosueChain\" */\n        tag_3:\n          tag_15\n          tag_16\n          jump\t// in\n        tag_15:\n          mload(0x40)\n          tag_17\n          swap2\n          swap1\n          tag_18\n          jump\t// in\n        tag_17:\n          mload(0x40)\n          dup1\n          swap2\n          sub\n          swap1\n          return\n            /* \"PlayLand/ERC20Basic.sol\":3085:3323  function approve(address delegate, uint256 numTokens) external  override  returns (bool)... */\n        tag_4:\n          tag_19\n          0x04\n          dup1\n          calldatasize\n          sub\n          dup2\n          add\n          swap1\n          tag_20\n          swap2\n          swap1\n          tag_21\n          jump\t// in\n        tag_20:\n          tag_22\n          jump\t// in\n        tag_19:\n          mload(0x40)\n          tag_23\n          swap2\n          swap1\n          tag_24\n          jump\t// in\n        tag_23:\n          mload(0x40)\n          dup1\n          swap2\n          sub\n          swap1\n          return\n            /* \"PlayLand/ERC20Basic.sol\":1646:1755  function totalSupply () external override  view returns (uint256)... */\n        tag_5:\n          tag_25\n          tag_26\n          jump\t// in\n        tag_25:\n          mload(0x40)\n          tag_27\n          swap2\n          swap1\n          tag_28\n          jump\t// in\n        tag_27:\n          mload(0x40)\n          dup1\n          swap2\n          sub\n          swap1\n          return\n            /* \"PlayLand/ERC20Basic.sol\":1767:1932  function  increaseTotalSupply(uint newTokensAmount) public ... */\n        tag_6:\n          tag_29\n          0x04\n          dup1\n          calldatasize\n          sub\n          dup2\n          add\n          swap1\n          tag_30\n          swap2\n          swap1\n          tag_31\n          jump\t// in\n        tag_30:\n          tag_32\n          jump\t// in\n        tag_29:\n          stop\n            /* \"PlayLand/ERC20Basic.sol\":3331:3834  function transferFrom(address owner, address buyer, uint256 numTokens ) external override  returns (bool)... */\n        tag_7:\n          tag_33\n          0x04\n          dup1\n          calldatasize\n          sub\n          dup2\n          add\n          swap1\n          tag_34\n          swap2\n          swap1\n          tag_35\n          jump\t// in\n        tag_34:\n          tag_36\n          jump\t// in\n        tag_33:\n          mload(0x40)\n          tag_37\n          swap2\n          swap1\n          tag_24\n          jump\t// in\n        tag_37:\n          mload(0x40)\n          dup1\n          swap2\n          sub\n          swap1\n          return\n            /* \"PlayLand/ERC20Basic.sol\":1299:1333  uint8 public constant decimals = 2 */\n        tag_8:\n          tag_38\n          tag_39\n          jump\t// in\n        tag_38:\n          mload(0x40)\n          tag_40\n          swap2\n          swap1\n          tag_41\n          jump\t// in\n        tag_40:\n          mload(0x40)\n          dup1\n          swap2\n          sub\n          swap1\n          return\n            /* \"PlayLand/ERC20Basic.sol\":1940:2072  function balanceOf(address tokenOwner) external override  view returns (uint256)... */\n        tag_9:\n          tag_42\n          0x04\n          dup1\n          calldatasize\n          sub\n          dup2\n          add\n          swap1\n          tag_43\n          swap2\n          swap1\n          tag_44\n          jump\t// in\n        tag_43:\n          tag_45\n          jump\t// in\n        tag_42:\n          mload(0x40)\n          tag_46\n          swap2\n          swap1\n          tag_28\n          jump\t// in\n        tag_46:\n          mload(0x40)\n          dup1\n          swap2\n          sub\n          swap1\n          return\n            /* \"PlayLand/ERC20Basic.sol\":1253:1292  string public constant symbol = \"ETHJC\" */\n        tag_10:\n          tag_47\n          tag_48\n          jump\t// in\n        tag_47:\n          mload(0x40)\n          tag_49\n          swap2\n          swap1\n          tag_18\n          jump\t// in\n        tag_49:\n          mload(0x40)\n          dup1\n          swap2\n          sub\n          swap1\n          return\n            /* \"PlayLand/ERC20Basic.sol\":2237:2637  function transfer(address recipient, uint256 numTokens) external override  returns (bool)... */\n        tag_11:\n          tag_50\n          0x04\n          dup1\n          calldatasize\n          sub\n          dup2\n          add\n          swap1\n          tag_51\n          swap2\n          swap1\n          tag_21\n          jump\t// in\n        tag_51:\n          tag_52\n          jump\t// in\n        tag_50:\n          mload(0x40)\n          tag_53\n          swap2\n          swap1\n          tag_24\n          jump\t// in\n        tag_53:\n          mload(0x40)\n          dup1\n          swap2\n          sub\n          swap1\n          return\n            /* \"PlayLand/ERC20Basic.sol\":2650:3073  function transfer_customer(address _customer,address recipient, uint256 numTokens) external override  returns (bool)... */\n        tag_12:\n          tag_54\n          0x04\n          dup1\n          calldatasize\n          sub\n          dup2\n          add\n          swap1\n          tag_55\n          swap2\n          swap1\n          tag_35\n          jump\t// in\n        tag_55:\n          tag_56\n          jump\t// in\n        tag_54:\n          mload(0x40)\n          tag_57\n          swap2\n          swap1\n          tag_24\n          jump\t// in\n        tag_57:\n          mload(0x40)\n          dup1\n          swap2\n          sub\n          swap1\n          return\n            /* \"PlayLand/ERC20Basic.sol\":2080:2229  function allowance(address owner, address delegate) external override  view returns (uint256)... */\n        tag_13:\n          tag_58\n          0x04\n          dup1\n          calldatasize\n          sub\n          dup2\n          add\n          swap1\n          tag_59\n          swap2\n          swap1\n          tag_60\n          jump\t// in\n        tag_59:\n          tag_61\n          jump\t// in\n        tag_58:\n          mload(0x40)\n          tag_62\n          swap2\n          swap1\n          tag_28\n          jump\t// in\n        tag_62:\n          mload(0x40)\n          dup1\n          swap2\n          sub\n          swap1\n          return\n            /* \"PlayLand/ERC20Basic.sol\":1197:1246  string public  constant  name = \"ERC20JosueChain\" */\n        tag_16:\n          mload(0x40)\n          dup1\n          0x40\n          add\n          0x40\n          mstore\n          dup1\n          0x0f\n          dup2\n          mstore\n          0x20\n          add\n          0x45524332304a6f737565436861696e0000000000000000000000000000000000\n          dup2\n          mstore\n          pop\n          dup2\n          jump\t// out\n            /* \"PlayLand/ERC20Basic.sol\":3085:3323  function approve(address delegate, uint256 numTokens) external  override  returns (bool)... */\n        tag_22:\n            /* \"PlayLand/ERC20Basic.sol\":3168:3172  bool */\n          0x00\n            /* \"PlayLand/ERC20Basic.sol\":3222:3231  numTokens */\n          dup2\n            /* \"PlayLand/ERC20Basic.sol\":3190:3197  allowed */\n          0x01\n            /* \"PlayLand/ERC20Basic.sol\":3190:3209  allowed[msg.sender] */\n          0x00\n            /* \"PlayLand/ERC20Basic.sol\":3198:3208  msg.sender */\n          caller\n            /* \"PlayLand/ERC20Basic.sol\":3190:3209  allowed[msg.sender] */\n          0xffffffffffffffffffffffffffffffffffffffff\n          and\n          0xffffffffffffffffffffffffffffffffffffffff\n          and\n          dup2\n          mstore\n          0x20\n          add\n          swap1\n          dup2\n          mstore\n          0x20\n          add\n          0x00\n          keccak256\n            /* \"PlayLand/ERC20Basic.sol\":3190:3219  allowed[msg.sender][delegate] */\n          0x00\n            /* \"PlayLand/ERC20Basic.sol\":3210:3218  delegate */\n          dup6\n            /* \"PlayLand/ERC20Basic.sol\":3190:3219  allowed[msg.sender][delegate] */\n          0xffffffffffffffffffffffffffffffffffffffff\n          and\n          0xffffffffffffffffffffffffffffffffffffffff\n          and\n          dup2\n          mstore\n          0x20\n          add\n          swap1\n          dup2\n          mstore\n          0x20\n          add\n          0x00\n          keccak256\n            /* \"PlayLand/ERC20Basic.sol\":3190:3231  allowed[msg.sender][delegate] = numTokens */\n          dup2\n          swap1\n          sstore\n          pop\n            /* \"PlayLand/ERC20Basic.sol\":3273:3281  delegate */\n          dup3\n            /* \"PlayLand/ERC20Basic.sol\":3247:3293  approvalEvent(msg.sender, delegate, numTokens) */\n          0xffffffffffffffffffffffffffffffffffffffff\n          and\n            /* \"PlayLand/ERC20Basic.sol\":3261:3271  msg.sender */\n          caller\n            /* \"PlayLand/ERC20Basic.sol\":3247:3293  approvalEvent(msg.sender, delegate, numTokens) */\n          0xffffffffffffffffffffffffffffffffffffffff\n          and\n          0xd04c27822ed43674489d02367b63f0c5d0b6b232088b6515b73d546217b3457d\n            /* \"PlayLand/ERC20Basic.sol\":3283:3292  numTokens */\n          dup5\n            /* \"PlayLand/ERC20Basic.sol\":3247:3293  approvalEvent(msg.sender, delegate, numTokens) */\n          mload(0x40)\n          tag_64\n          swap2\n          swap1\n          tag_28\n          jump\t// in\n        tag_64:\n          mload(0x40)\n          dup1\n          swap2\n          sub\n          swap1\n          log3\n            /* \"PlayLand/ERC20Basic.sol\":3311:3315  true */\n          0x01\n            /* \"PlayLand/ERC20Basic.sol\":3304:3315  return true */\n          swap1\n          pop\n            /* \"PlayLand/ERC20Basic.sol\":3085:3323  function approve(address delegate, uint256 numTokens) external  override  returns (bool)... */\n          swap3\n          swap2\n          pop\n          pop\n          jump\t// out\n            /* \"PlayLand/ERC20Basic.sol\":1646:1755  function totalSupply () external override  view returns (uint256)... */\n        tag_26:\n            /* \"PlayLand/ERC20Basic.sol\":1703:1710  uint256 */\n          0x00\n            /* \"PlayLand/ERC20Basic.sol\":1735:1747  totalSupply_ */\n          sload(0x02)\n            /* \"PlayLand/ERC20Basic.sol\":1728:1747  return totalSupply_ */\n          swap1\n          pop\n            /* \"PlayLand/ERC20Basic.sol\":1646:1755  function totalSupply () external override  view returns (uint256)... */\n          swap1\n          jump\t// out\n            /* \"PlayLand/ERC20Basic.sol\":1767:1932  function  increaseTotalSupply(uint newTokensAmount) public ... */\n        tag_32:\n            /* \"PlayLand/ERC20Basic.sol\":1859:1874  newTokensAmount */\n          dup1\n            /* \"PlayLand/ERC20Basic.sol\":1843:1855  totalSupply_ */\n          0x02\n          0x00\n            /* \"PlayLand/ERC20Basic.sol\":1843:1874  totalSupply_ += newTokensAmount */\n          dup3\n          dup3\n          sload\n          tag_67\n          swap2\n          swap1\n          tag_68\n          jump\t// in\n        tag_67:\n          swap3\n          pop\n          pop\n          dup2\n          swap1\n          sstore\n          pop\n            /* \"PlayLand/ERC20Basic.sol\":1909:1924  newTokensAmount */\n          dup1\n            /* \"PlayLand/ERC20Basic.sol\":1885:1893  balances */\n          0x00\n            /* \"PlayLand/ERC20Basic.sol\":1885:1905  balances[msg.sender] */\n          0x00\n            /* \"PlayLand/ERC20Basic.sol\":1894:1904  msg.sender */\n          caller\n            /* \"PlayLand/ERC20Basic.sol\":1885:1905  balances[msg.sender] */\n          0xffffffffffffffffffffffffffffffffffffffff\n          and\n          0xffffffffffffffffffffffffffffffffffffffff\n          and\n          dup2\n          mstore\n          0x20\n          add\n          swap1\n          dup2\n          mstore\n          0x20\n          add\n          0x00\n          keccak256\n          0x00\n            /* \"PlayLand/ERC20Basic.sol\":1885:1924  balances[msg.sender] += newTokensAmount */\n          dup3\n          dup3\n          sload\n          tag_69\n          swap2\n          swap1\n          tag_68\n          jump\t// in\n        tag_69:\n          swap3\n          pop\n          pop\n          dup2\n          swap1\n          sstore\n          pop\n            /* \"PlayLand/ERC20Basic.sol\":1767:1932  function  increaseTotalSupply(uint newTokensAmount) public ... */\n          pop\n          jump\t// out\n            /* \"PlayLand/ERC20Basic.sol\":3331:3834  function transferFrom(address owner, address buyer, uint256 numTokens ) external override  returns (bool)... */\n        tag_36:\n            /* \"PlayLand/ERC20Basic.sol\":3431:3435  bool */\n          0x00\n            /* \"PlayLand/ERC20Basic.sol\":3474:3482  balances */\n          0x00\n            /* \"PlayLand/ERC20Basic.sol\":3474:3489  balances[owner] */\n          0x00\n            /* \"PlayLand/ERC20Basic.sol\":3483:3488  owner */\n          dup6\n            /* \"PlayLand/ERC20Basic.sol\":3474:3489  balances[owner] */\n          0xffffffffffffffffffffffffffffffffffffffff\n          and\n          0xffffffffffffffffffffffffffffffffffffffff\n          and\n          dup2\n          mstore\n          0x20\n          add\n          swap1\n          dup2\n          mstore\n          0x20\n          add\n          0x00\n          keccak256\n          sload\n            /* \"PlayLand/ERC20Basic.sol\":3461:3470  numTokens */\n          dup3\n            /* \"PlayLand/ERC20Basic.sol\":3461:3489  numTokens <= balances[owner] */\n          gt\n          iszero\n            /* \"PlayLand/ERC20Basic.sol\":3453:3490  require(numTokens <= balances[owner]) */\n          tag_71\n          jumpi\n          revert(0x00, 0x00)\n        tag_71:\n            /* \"PlayLand/ERC20Basic.sol\":3522:3529  allowed */\n          0x01\n            /* \"PlayLand/ERC20Basic.sol\":3522:3536  allowed[owner] */\n          0x00\n            /* \"PlayLand/ERC20Basic.sol\":3530:3535  owner */\n          dup6\n            /* \"PlayLand/ERC20Basic.sol\":3522:3536  allowed[owner] */\n          0xffffffffffffffffffffffffffffffffffffffff\n          and\n          0xffffffffffffffffffffffffffffffffffffffff\n          and\n          dup2\n          mstore\n          0x20\n          add\n          swap1\n          dup2\n          mstore\n          0x20\n          add\n          0x00\n          keccak256\n            /* \"PlayLand/ERC20Basic.sol\":3522:3548  allowed[owner][msg.sender] */\n          0x00\n            /* \"PlayLand/ERC20Basic.sol\":3537:3547  msg.sender */\n          caller\n            /* \"PlayLand/ERC20Basic.sol\":3522:3548  allowed[owner][msg.sender] */\n          0xffffffffffffffffffffffffffffffffffffffff\n          and\n          0xffffffffffffffffffffffffffffffffffffffff\n          and\n          dup2\n          mstore\n          0x20\n          add\n          swap1\n          dup2\n          mstore\n          0x20\n          add\n          0x00\n          keccak256\n          sload\n            /* \"PlayLand/ERC20Basic.sol\":3509:3518  numTokens */\n          dup3\n            /* \"PlayLand/ERC20Basic.sol\":3509:3548  numTokens <= allowed[owner][msg.sender] */\n          gt\n          iszero\n            /* \"PlayLand/ERC20Basic.sol\":3501:3549  require(numTokens <= allowed[owner][msg.sender]) */\n          tag_72\n          jumpi\n          revert(0x00, 0x00)\n        tag_72:\n            /* \"PlayLand/ERC20Basic.sol\":3578:3608  balances[owner].sub(numTokens) */\n          tag_73\n            /* \"PlayLand/ERC20Basic.sol\":3598:3607  numTokens */\n          dup3\n            /* \"PlayLand/ERC20Basic.sol\":3578:3586  balances */\n          0x00\n            /* \"PlayLand/ERC20Basic.sol\":3578:3593  balances[owner] */\n          0x00\n            /* \"PlayLand/ERC20Basic.sol\":3587:3592  owner */\n          dup8\n            /* \"PlayLand/ERC20Basic.sol\":3578:3593  balances[owner] */\n          0xffffffffffffffffffffffffffffffffffffffff\n          and\n          0xffffffffffffffffffffffffffffffffffffffff\n          and\n          dup2\n          mstore\n          0x20\n          add\n          swap1\n          dup2\n          mstore\n          0x20\n          add\n          0x00\n          keccak256\n          sload\n            /* \"PlayLand/ERC20Basic.sol\":3578:3597  balances[owner].sub */\n          tag_74\n          swap1\n            /* \"PlayLand/ERC20Basic.sol\":3578:3608  balances[owner].sub(numTokens) */\n          swap2\n          swap1\n          0xffffffff\n          and\n          jump\t// in\n        tag_73:\n            /* \"PlayLand/ERC20Basic.sol\":3560:3568  balances */\n          0x00\n            /* \"PlayLand/ERC20Basic.sol\":3560:3575  balances[owner] */\n          0x00\n            /* \"PlayLand/ERC20Basic.sol\":3569:3574  owner */\n          dup7\n            /* \"PlayLand/ERC20Basic.sol\":3560:3575  balances[owner] */\n          0xffffffffffffffffffffffffffffffffffffffff\n          and\n          0xffffffffffffffffffffffffffffffffffffffff\n          and\n          dup2\n          mstore\n          0x20\n          add\n          swap1\n          dup2\n          mstore\n          0x20\n          add\n          0x00\n          keccak256\n            /* \"PlayLand/ERC20Basic.sol\":3560:3608  balances[owner] = balances[owner].sub(numTokens) */\n          dup2\n          swap1\n          sstore\n          pop\n            /* \"PlayLand/ERC20Basic.sol\":3648:3689  allowed[owner][msg.sender].sub(numTokens) */\n          tag_75\n            /* \"PlayLand/ERC20Basic.sol\":3679:3688  numTokens */\n          dup3\n            /* \"PlayLand/ERC20Basic.sol\":3648:3655  allowed */\n          0x01\n            /* \"PlayLand/ERC20Basic.sol\":3648:3662  allowed[owner] */\n          0x00\n            /* \"PlayLand/ERC20Basic.sol\":3656:3661  owner */\n          dup8\n            /* \"PlayLand/ERC20Basic.sol\":3648:3662  allowed[owner] */\n          0xffffffffffffffffffffffffffffffffffffffff\n          and\n          0xffffffffffffffffffffffffffffffffffffffff\n          and\n          dup2\n          mstore\n          0x20\n          add\n          swap1\n          dup2\n          mstore\n          0x20\n          add\n          0x00\n          keccak256\n            /* \"PlayLand/ERC20Basic.sol\":3648:3674  allowed[owner][msg.sender] */\n          0x00\n            /* \"PlayLand/ERC20Basic.sol\":3663:3673  msg.sender */\n          caller\n            /* \"PlayLand/ERC20Basic.sol\":3648:3674  allowed[owner][msg.sender] */\n          0xffffffffffffffffffffffffffffffffffffffff\n          and\n          0xffffffffffffffffffffffffffffffffffffffff\n          and\n          dup2\n          mstore\n          0x20\n          add\n          swap1\n          dup2\n          mstore\n          0x20\n          add\n          0x00\n          keccak256\n          sload\n            /* \"PlayLand/ERC20Basic.sol\":3648:3678  allowed[owner][msg.sender].sub */\n          tag_74\n          swap1\n            /* \"PlayLand/ERC20Basic.sol\":3648:3689  allowed[owner][msg.sender].sub(numTokens) */\n          swap2\n          swap1\n          0xffffffff\n          and\n          jump\t// in\n        tag_75:\n            /* \"PlayLand/ERC20Basic.sol\":3619:3626  allowed */\n          0x01\n            /* \"PlayLand/ERC20Basic.sol\":3619:3633  allowed[owner] */\n          0x00\n            /* \"PlayLand/ERC20Basic.sol\":3627:3632  owner */\n          dup7\n            /* \"PlayLand/ERC20Basic.sol\":3619:3633  allowed[owner] */\n          0xffffffffffffffffffffffffffffffffffffffff\n          and\n          0xffffffffffffffffffffffffffffffffffffffff\n          and\n          dup2\n          mstore\n          0x20\n          add\n          swap1\n          dup2\n          mstore\n          0x20\n          add\n          0x00\n          keccak256\n            /* \"PlayLand/ERC20Basic.sol\":3619:3645  allowed[owner][msg.sender] */\n          0x00\n            /* \"PlayLand/ERC20Basic.sol\":3634:3644  msg.sender */\n          caller\n            /* \"PlayLand/ERC20Basic.sol\":3619:3645  allowed[owner][msg.sender] */\n          0xffffffffffffffffffffffffffffffffffffffff\n          and\n          0xffffffffffffffffffffffffffffffffffffffff\n          and\n          dup2\n          mstore\n          0x20\n          add\n          swap1\n          dup2\n          mstore\n          0x20\n          add\n          0x00\n          keccak256\n            /* \"PlayLand/ERC20Basic.sol\":3619:3689  allowed[owner][msg.sender] = allowed[owner][msg.sender].sub(numTokens) */\n          dup2\n          swap1\n          sstore\n          pop\n            /* \"PlayLand/ERC20Basic.sol\":3718:3748  balances[buyer].add(numTokens) */\n          tag_76\n            /* \"PlayLand/ERC20Basic.sol\":3738:3747  numTokens */\n          dup3\n            /* \"PlayLand/ERC20Basic.sol\":3718:3726  balances */\n          0x00\n            /* \"PlayLand/ERC20Basic.sol\":3718:3733  balances[buyer] */\n          0x00\n            /* \"PlayLand/ERC20Basic.sol\":3727:3732  buyer */\n          dup7\n            /* \"PlayLand/ERC20Basic.sol\":3718:3733  balances[buyer] */\n          0xffffffffffffffffffffffffffffffffffffffff\n          and\n          0xffffffffffffffffffffffffffffffffffffffff\n          and\n          dup2\n          mstore\n          0x20\n          add\n          swap1\n          dup2\n          mstore\n          0x20\n          add\n          0x00\n          keccak256\n          sload\n            /* \"PlayLand/ERC20Basic.sol\":3718:3737  balances[buyer].add */\n          tag_77\n          swap1\n            /* \"PlayLand/ERC20Basic.sol\":3718:3748  balances[buyer].add(numTokens) */\n          swap2\n          swap1\n          0xffffffff\n          and\n          jump\t// in\n        tag_76:\n            /* \"PlayLand/ERC20Basic.sol\":3700:3708  balances */\n          0x00\n            /* \"PlayLand/ERC20Basic.sol\":3700:3715  balances[buyer] */\n          0x00\n            /* \"PlayLand/ERC20Basic.sol\":3709:3714  buyer */\n          dup6\n            /* \"PlayLand/ERC20Basic.sol\":3700:3715  balances[buyer] */\n          0xffffffffffffffffffffffffffffffffffffffff\n          and\n          0xffffffffffffffffffffffffffffffffffffffff\n          and\n          dup2\n          mstore\n          0x20\n          add\n          swap1\n          dup2\n          mstore\n          0x20\n          add\n          0x00\n          keccak256\n            /* \"PlayLand/ERC20Basic.sol\":3700:3748  balances[buyer] = balances[buyer].add(numTokens) */\n          dup2\n          swap1\n          sstore\n          pop\n            /* \"PlayLand/ERC20Basic.sol\":3785:3790  buyer */\n          dup3\n            /* \"PlayLand/ERC20Basic.sol\":3764:3803  transferEvent(owner, buyer , numTokens) */\n          0xffffffffffffffffffffffffffffffffffffffff\n          and\n            /* \"PlayLand/ERC20Basic.sol\":3778:3783  owner */\n          dup5\n            /* \"PlayLand/ERC20Basic.sol\":3764:3803  transferEvent(owner, buyer , numTokens) */\n          0xffffffffffffffffffffffffffffffffffffffff\n          and\n          0x5d439cf3a1f6215b41908e5b0b300f39679a3ff1cc010691c1d4ec4d0e2a4ebb\n            /* \"PlayLand/ERC20Basic.sol\":3793:3802  numTokens */\n          dup5\n            /* \"PlayLand/ERC20Basic.sol\":3764:3803  transferEvent(owner, buyer , numTokens) */\n          mload(0x40)\n          tag_78\n          swap2\n          swap1\n          tag_28\n          jump\t// in\n        tag_78:\n          mload(0x40)\n          dup1\n          swap2\n          sub\n          swap1\n          log3\n            /* \"PlayLand/ERC20Basic.sol\":3822:3826  true */\n          0x01\n            /* \"PlayLand/ERC20Basic.sol\":3815:3826  return true */\n          swap1\n          pop\n            /* \"PlayLand/ERC20Basic.sol\":3331:3834  function transferFrom(address owner, address buyer, uint256 numTokens ) external override  returns (bool)... */\n          swap4\n          swap3\n          pop\n          pop\n          pop\n          jump\t// out\n            /* \"PlayLand/ERC20Basic.sol\":1299:1333  uint8 public constant decimals = 2 */\n        tag_39:\n            /* \"PlayLand/ERC20Basic.sol\":1332:1333  2 */\n          0x02\n            /* \"PlayLand/ERC20Basic.sol\":1299:1333  uint8 public constant decimals = 2 */\n          dup2\n          jump\t// out\n            /* \"PlayLand/ERC20Basic.sol\":1940:2072  function balanceOf(address tokenOwner) external override  view returns (uint256)... */\n        tag_45:\n            /* \"PlayLand/ERC20Basic.sol\":2012:2019  uint256 */\n          0x00\n            /* \"PlayLand/ERC20Basic.sol\":2044:2052  balances */\n          0x00\n            /* \"PlayLand/ERC20Basic.sol\":2044:2064  balances[tokenOwner] */\n          0x00\n            /* \"PlayLand/ERC20Basic.sol\":2053:2063  tokenOwner */\n          dup4\n            /* \"PlayLand/ERC20Basic.sol\":2044:2064  balances[tokenOwner] */\n          0xffffffffffffffffffffffffffffffffffffffff\n          and\n          0xffffffffffffffffffffffffffffffffffffffff\n          and\n          dup2\n          mstore\n          0x20\n          add\n          swap1\n          dup2\n          mstore\n          0x20\n          add\n          0x00\n          keccak256\n          sload\n            /* \"PlayLand/ERC20Basic.sol\":2037:2064  return balances[tokenOwner] */\n          swap1\n          pop\n            /* \"PlayLand/ERC20Basic.sol\":1940:2072  function balanceOf(address tokenOwner) external override  view returns (uint256)... */\n          swap2\n          swap1\n          pop\n          jump\t// out\n            /* \"PlayLand/ERC20Basic.sol\":1253:1292  string public constant symbol = \"ETHJC\" */\n        tag_48:\n          mload(0x40)\n          dup1\n          0x40\n          add\n          0x40\n          mstore\n          dup1\n          0x05\n          dup2\n          mstore\n          0x20\n          add\n          0x4554484a43000000000000000000000000000000000000000000000000000000\n          dup2\n          mstore\n          pop\n          dup2\n          jump\t// out\n            /* \"PlayLand/ERC20Basic.sol\":2237:2637  function transfer(address recipient, uint256 numTokens) external override  returns (bool)... */\n        tag_52:\n            /* \"PlayLand/ERC20Basic.sol\":2321:2325  bool */\n          0x00\n            /* \"PlayLand/ERC20Basic.sol\":2364:2372  balances */\n          0x00\n            /* \"PlayLand/ERC20Basic.sol\":2364:2384  balances[msg.sender] */\n          0x00\n            /* \"PlayLand/ERC20Basic.sol\":2373:2383  msg.sender */\n          caller\n            /* \"PlayLand/ERC20Basic.sol\":2364:2384  balances[msg.sender] */\n          0xffffffffffffffffffffffffffffffffffffffff\n          and\n          0xffffffffffffffffffffffffffffffffffffffff\n          and\n          dup2\n          mstore\n          0x20\n          add\n          swap1\n          dup2\n          mstore\n          0x20\n          add\n          0x00\n          keccak256\n          sload\n            /* \"PlayLand/ERC20Basic.sol\":2351:2360  numTokens */\n          dup3\n            /* \"PlayLand/ERC20Basic.sol\":2351:2384  numTokens <= balances[msg.sender] */\n          gt\n          iszero\n            /* \"PlayLand/ERC20Basic.sol\":2343:2408  require(numTokens <= balances[msg.sender],\"insufficient balance\") */\n          tag_81\n          jumpi\n          mload(0x40)\n          0x08c379a000000000000000000000000000000000000000000000000000000000\n          dup2\n          mstore\n          0x04\n          add\n          tag_82\n          swap1\n          tag_83\n          jump\t// in\n        tag_82:\n          mload(0x40)\n          dup1\n          swap2\n          sub\n          swap1\n          revert\n        tag_81:\n            /* \"PlayLand/ERC20Basic.sol\":2442:2477  balances[msg.sender].sub(numTokens) */\n          tag_84\n            /* \"PlayLand/ERC20Basic.sol\":2467:2476  numTokens */\n          dup3\n            /* \"PlayLand/ERC20Basic.sol\":2442:2450  balances */\n          0x00\n            /* \"PlayLand/ERC20Basic.sol\":2442:2462  balances[msg.sender] */\n          0x00\n            /* \"PlayLand/ERC20Basic.sol\":2451:2461  msg.sender */\n          caller\n            /* \"PlayLand/ERC20Basic.sol\":2442:2462  balances[msg.sender] */\n          0xffffffffffffffffffffffffffffffffffffffff\n          and\n          0xffffffffffffffffffffffffffffffffffffffff\n          and\n          dup2\n          mstore\n          0x20\n          add\n          swap1\n          dup2\n          mstore\n          0x20\n          add\n          0x00\n          keccak256\n          sload\n            /* \"PlayLand/ERC20Basic.sol\":2442:2466  balances[msg.sender].sub */\n          tag_74\n          swap1\n            /* \"PlayLand/ERC20Basic.sol\":2442:2477  balances[msg.sender].sub(numTokens) */\n          swap2\n          swap1\n          0xffffffff\n          and\n          jump\t// in\n        tag_84:\n            /* \"PlayLand/ERC20Basic.sol\":2419:2427  balances */\n          0x00\n            /* \"PlayLand/ERC20Basic.sol\":2419:2439  balances[msg.sender] */\n          0x00\n            /* \"PlayLand/ERC20Basic.sol\":2428:2438  msg.sender */\n          caller\n            /* \"PlayLand/ERC20Basic.sol\":2419:2439  balances[msg.sender] */\n          0xffffffffffffffffffffffffffffffffffffffff\n          and\n          0xffffffffffffffffffffffffffffffffffffffff\n          and\n          dup2\n          mstore\n          0x20\n          add\n          swap1\n          dup2\n          mstore\n          0x20\n          add\n          0x00\n          keccak256\n            /* \"PlayLand/ERC20Basic.sol\":2419:2477  balances[msg.sender] = balances[msg.sender].sub(numTokens) */\n          dup2\n          swap1\n          sstore\n          pop\n            /* \"PlayLand/ERC20Basic.sol\":2510:2544  balances[recipient].add(numTokens) */\n          tag_85\n            /* \"PlayLand/ERC20Basic.sol\":2534:2543  numTokens */\n          dup3\n            /* \"PlayLand/ERC20Basic.sol\":2510:2518  balances */\n          0x00\n            /* \"PlayLand/ERC20Basic.sol\":2510:2529  balances[recipient] */\n          0x00\n            /* \"PlayLand/ERC20Basic.sol\":2519:2528  recipient */\n          dup7\n            /* \"PlayLand/ERC20Basic.sol\":2510:2529  balances[recipient] */\n          0xffffffffffffffffffffffffffffffffffffffff\n          and\n          0xffffffffffffffffffffffffffffffffffffffff\n          and\n          dup2\n          mstore\n          0x20\n          add\n          swap1\n          dup2\n          mstore\n          0x20\n          add\n          0x00\n          keccak256\n          sload\n            /* \"PlayLand/ERC20Basic.sol\":2510:2533  balances[recipient].add */\n          tag_77\n          swap1\n            /* \"PlayLand/ERC20Basic.sol\":2510:2544  balances[recipient].add(numTokens) */\n          swap2\n          swap1\n          0xffffffff\n          and\n          jump\t// in\n        tag_85:\n            /* \"PlayLand/ERC20Basic.sol\":2488:2496  balances */\n          0x00\n            /* \"PlayLand/ERC20Basic.sol\":2488:2507  balances[recipient] */\n          0x00\n            /* \"PlayLand/ERC20Basic.sol\":2497:2506  recipient */\n          dup6\n            /* \"PlayLand/ERC20Basic.sol\":2488:2507  balances[recipient] */\n          0xffffffffffffffffffffffffffffffffffffffff\n          and\n          0xffffffffffffffffffffffffffffffffffffffff\n          and\n          dup2\n          mstore\n          0x20\n          add\n          swap1\n          dup2\n          mstore\n          0x20\n          add\n          0x00\n          keccak256\n            /* \"PlayLand/ERC20Basic.sol\":2488:2544  balances[recipient] = balances[recipient].add(numTokens) */\n          dup2\n          swap1\n          sstore\n          pop\n            /* \"PlayLand/ERC20Basic.sol\":2586:2595  recipient */\n          dup3\n            /* \"PlayLand/ERC20Basic.sol\":2560:2607  transferEvent(msg.sender, recipient ,numTokens) */\n          0xffffffffffffffffffffffffffffffffffffffff\n          and\n            /* \"PlayLand/ERC20Basic.sol\":2574:2584  msg.sender */\n          caller\n            /* \"PlayLand/ERC20Basic.sol\":2560:2607  transferEvent(msg.sender, recipient ,numTokens) */\n          0xffffffffffffffffffffffffffffffffffffffff\n          and\n          0x5d439cf3a1f6215b41908e5b0b300f39679a3ff1cc010691c1d4ec4d0e2a4ebb\n            /* \"PlayLand/ERC20Basic.sol\":2597:2606  numTokens */\n          dup5\n            /* \"PlayLand/ERC20Basic.sol\":2560:2607  transferEvent(msg.sender, recipient ,numTokens) */\n          mload(0x40)\n          tag_86\n          swap2\n          swap1\n          tag_28\n          jump\t// in\n        tag_86:\n          mload(0x40)\n          dup1\n          swap2\n          sub\n          swap1\n          log3\n            /* \"PlayLand/ERC20Basic.sol\":2625:2629  true */\n          0x01\n            /* \"PlayLand/ERC20Basic.sol\":2618:2629  return true */\n          swap1\n          pop\n            /* \"PlayLand/ERC20Basic.sol\":2237:2637  function transfer(address recipient, uint256 numTokens) external override  returns (bool)... */\n          swap3\n          swap2\n          pop\n          pop\n          jump\t// out\n            /* \"PlayLand/ERC20Basic.sol\":2650:3073  function transfer_customer(address _customer,address recipient, uint256 numTokens) external override  returns (bool)... */\n        tag_56:\n            /* \"PlayLand/ERC20Basic.sol\":2761:2765  bool */\n          0x00\n            /* \"PlayLand/ERC20Basic.sol\":2804:2812  balances */\n          0x00\n            /* \"PlayLand/ERC20Basic.sol\":2804:2823  balances[_customer] */\n          0x00\n            /* \"PlayLand/ERC20Basic.sol\":2813:2822  _customer */\n          dup6\n            /* \"PlayLand/ERC20Basic.sol\":2804:2823  balances[_customer] */\n          0xffffffffffffffffffffffffffffffffffffffff\n          and\n          0xffffffffffffffffffffffffffffffffffffffff\n          and\n          dup2\n          mstore\n          0x20\n          add\n          swap1\n          dup2\n          mstore\n          0x20\n          add\n          0x00\n          keccak256\n          sload\n            /* \"PlayLand/ERC20Basic.sol\":2791:2800  numTokens */\n          dup3\n            /* \"PlayLand/ERC20Basic.sol\":2791:2823  numTokens <= balances[_customer] */\n          gt\n          iszero\n            /* \"PlayLand/ERC20Basic.sol\":2783:2847  require(numTokens <= balances[_customer],\"insufficient balance\") */\n          tag_88\n          jumpi\n          mload(0x40)\n          0x08c379a000000000000000000000000000000000000000000000000000000000\n          dup2\n          mstore\n          0x04\n          add\n          tag_89\n          swap1\n          tag_83\n          jump\t// in\n        tag_89:\n          mload(0x40)\n          dup1\n          swap2\n          sub\n          swap1\n          revert\n        tag_88:\n            /* \"PlayLand/ERC20Basic.sol\":2880:2914  balances[_customer].sub(numTokens) */\n          tag_90\n            /* \"PlayLand/ERC20Basic.sol\":2904:2913  numTokens */\n          dup3\n            /* \"PlayLand/ERC20Basic.sol\":2880:2888  balances */\n          0x00\n            /* \"PlayLand/ERC20Basic.sol\":2880:2899  balances[_customer] */\n          0x00\n            /* \"PlayLand/ERC20Basic.sol\":2889:2898  _customer */\n          dup8\n            /* \"PlayLand/ERC20Basic.sol\":2880:2899  balances[_customer] */\n          0xffffffffffffffffffffffffffffffffffffffff\n          and\n          0xffffffffffffffffffffffffffffffffffffffff\n          and\n          dup2\n          mstore\n          0x20\n          add\n          swap1\n          dup2\n          mstore\n          0x20\n          add\n          0x00\n          keccak256\n          sload\n            /* \"PlayLand/ERC20Basic.sol\":2880:2903  balances[_customer].sub */\n          tag_74\n          swap1\n            /* \"PlayLand/ERC20Basic.sol\":2880:2914  balances[_customer].sub(numTokens) */\n          swap2\n          swap1\n          0xffffffff\n          and\n          jump\t// in\n        tag_90:\n            /* \"PlayLand/ERC20Basic.sol\":2858:2866  balances */\n          0x00\n            /* \"PlayLand/ERC20Basic.sol\":2858:2877  balances[_customer] */\n          0x00\n            /* \"PlayLand/ERC20Basic.sol\":2867:2876  _customer */\n          dup7\n            /* \"PlayLand/ERC20Basic.sol\":2858:2877  balances[_customer] */\n          0xffffffffffffffffffffffffffffffffffffffff\n          and\n          0xffffffffffffffffffffffffffffffffffffffff\n          and\n          dup2\n          mstore\n          0x20\n          add\n          swap1\n          dup2\n          mstore\n          0x20\n          add\n          0x00\n          keccak256\n            /* \"PlayLand/ERC20Basic.sol\":2858:2914  balances[_customer] = balances[_customer].sub(numTokens) */\n          dup2\n          swap1\n          sstore\n          pop\n            /* \"PlayLand/ERC20Basic.sol\":2947:2981  balances[recipient].add(numTokens) */\n          tag_91\n            /* \"PlayLand/ERC20Basic.sol\":2971:2980  numTokens */\n          dup3\n            /* \"PlayLand/ERC20Basic.sol\":2947:2955  balances */\n          0x00\n            /* \"PlayLand/ERC20Basic.sol\":2947:2966  balances[recipient] */\n          0x00\n            /* \"PlayLand/ERC20Basic.sol\":2956:2965  recipient */\n          dup7\n            /* \"PlayLand/ERC20Basic.sol\":2947:2966  balances[recipient] */\n          0xffffffffffffffffffffffffffffffffffffffff\n          and\n          0xffffffffffffffffffffffffffffffffffffffff\n          and\n          dup2\n          mstore\n          0x20\n          add\n          swap1\n          dup2\n          mstore\n          0x20\n          add\n          0x00\n          keccak256\n          sload\n            /* \"PlayLand/ERC20Basic.sol\":2947:2970  balances[recipient].add */\n          tag_77\n          swap1\n            /* \"PlayLand/ERC20Basic.sol\":2947:2981  balances[recipient].add(numTokens) */\n          swap2\n          swap1\n          0xffffffff\n          and\n          jump\t// in\n        tag_91:\n            /* \"PlayLand/ERC20Basic.sol\":2925:2933  balances */\n          0x00\n            /* \"PlayLand/ERC20Basic.sol\":2925:2944  balances[recipient] */\n          0x00\n            /* \"PlayLand/ERC20Basic.sol\":2934:2943  recipient */\n          dup6\n            /* \"PlayLand/ERC20Basic.sol\":2925:2944  balances[recipient] */\n          0xffffffffffffffffffffffffffffffffffffffff\n          and\n          0xffffffffffffffffffffffffffffffffffffffff\n          and\n          dup2\n          mstore\n          0x20\n          add\n          swap1\n          dup2\n          mstore\n          0x20\n          add\n          0x00\n          keccak256\n            /* \"PlayLand/ERC20Basic.sol\":2925:2981  balances[recipient] = balances[recipient].add(numTokens) */\n          dup2\n          swap1\n          sstore\n          pop\n            /* \"PlayLand/ERC20Basic.sol\":3022:3031  recipient */\n          dup3\n            /* \"PlayLand/ERC20Basic.sol\":2997:3043  transferEvent(_customer, recipient ,numTokens) */\n          0xffffffffffffffffffffffffffffffffffffffff\n          and\n            /* \"PlayLand/ERC20Basic.sol\":3011:3020  _customer */\n          dup5\n            /* \"PlayLand/ERC20Basic.sol\":2997:3043  transferEvent(_customer, recipient ,numTokens) */\n          0xffffffffffffffffffffffffffffffffffffffff\n          and\n          0x5d439cf3a1f6215b41908e5b0b300f39679a3ff1cc010691c1d4ec4d0e2a4ebb\n            /* \"PlayLand/ERC20Basic.sol\":3033:3042  numTokens */\n          dup5\n            /* \"PlayLand/ERC20Basic.sol\":2997:3043  transferEvent(_customer, recipient ,numTokens) */\n          mload(0x40)\n          tag_92\n          swap2\n          swap1\n          tag_28\n          jump\t// in\n        tag_92:\n          mload(0x40)\n          dup1\n          swap2\n          sub\n          swap1\n          log3\n            /* \"PlayLand/ERC20Basic.sol\":3061:3065  true */\n          0x01\n            /* \"PlayLand/ERC20Basic.sol\":3054:3065  return true */\n          swap1\n          pop\n            /* \"PlayLand/ERC20Basic.sol\":2650:3073  function transfer_customer(address _customer,address recipient, uint256 numTokens) external override  returns (bool)... */\n          swap4\n          swap3\n          pop\n          pop\n          pop\n          jump\t// out\n            /* \"PlayLand/ERC20Basic.sol\":2080:2229  function allowance(address owner, address delegate) external override  view returns (uint256)... */\n        tag_61:\n            /* \"PlayLand/ERC20Basic.sol\":2165:2172  uint256 */\n          0x00\n            /* \"PlayLand/ERC20Basic.sol\":2197:2204  allowed */\n          0x01\n            /* \"PlayLand/ERC20Basic.sol\":2197:2211  allowed[owner] */\n          0x00\n            /* \"PlayLand/ERC20Basic.sol\":2205:2210  owner */\n          dup5\n            /* \"PlayLand/ERC20Basic.sol\":2197:2211  allowed[owner] */\n          0xffffffffffffffffffffffffffffffffffffffff\n          and\n          0xffffffffffffffffffffffffffffffffffffffff\n          and\n          dup2\n          mstore\n          0x20\n          add\n          swap1\n          dup2\n          mstore\n          0x20\n          add\n          0x00\n          keccak256\n            /* \"PlayLand/ERC20Basic.sol\":2197:2221  allowed[owner][delegate] */\n          0x00\n            /* \"PlayLand/ERC20Basic.sol\":2212:2220  delegate */\n          dup4\n            /* \"PlayLand/ERC20Basic.sol\":2197:2221  allowed[owner][delegate] */\n          0xffffffffffffffffffffffffffffffffffffffff\n          and\n          0xffffffffffffffffffffffffffffffffffffffff\n          and\n          dup2\n          mstore\n          0x20\n          add\n          swap1\n          dup2\n          mstore\n          0x20\n          add\n          0x00\n          keccak256\n          sload\n            /* \"PlayLand/ERC20Basic.sol\":2190:2221  return allowed[owner][delegate] */\n          swap1\n          pop\n            /* \"PlayLand/ERC20Basic.sol\":2080:2229  function allowance(address owner, address delegate) external override  view returns (uint256)... */\n          swap3\n          swap2\n          pop\n          pop\n          jump\t// out\n            /* \"Libs/SafeMath.sol\":311:430  function sub(uint256 a, uint256 b) internal pure returns (uint256) {... */\n        tag_74:\n            /* \"Libs/SafeMath.sol\":369:376  uint256 */\n          0x00\n            /* \"Libs/SafeMath.sol\":399:400  a */\n          dup3\n            /* \"Libs/SafeMath.sol\":394:395  b */\n          dup3\n            /* \"Libs/SafeMath.sol\":394:400  b <= a */\n          gt\n          iszero\n            /* \"Libs/SafeMath.sol\":387:401  assert(b <= a) */\n          tag_95\n          jumpi\n          tag_96\n          tag_97\n          jump\t// in\n        tag_96:\n        tag_95:\n            /* \"Libs/SafeMath.sol\":421:422  b */\n          dup2\n            /* \"Libs/SafeMath.sol\":417:418  a */\n          dup4\n            /* \"Libs/SafeMath.sol\":417:422  a - b */\n          tag_98\n          swap2\n          swap1\n          tag_99\n          jump\t// in\n        tag_98:\n            /* \"Libs/SafeMath.sol\":410:422  return a - b */\n          swap1\n          pop\n            /* \"Libs/SafeMath.sol\":311:430  function sub(uint256 a, uint256 b) internal pure returns (uint256) {... */\n          swap3\n          swap2\n          pop\n          pop\n          jump\t// out\n            /* \"Libs/SafeMath.sol\":456:597  function add(uint256 a, uint256 b) internal pure returns (uint256) {... */\n        tag_77:\n            /* \"Libs/SafeMath.sol\":514:521  uint256 */\n          0x00\n            /* \"Libs/SafeMath.sol\":532:541  uint256 c */\n          0x00\n            /* \"Libs/SafeMath.sol\":548:549  b */\n          dup3\n            /* \"Libs/SafeMath.sol\":544:545  a */\n          dup5\n            /* \"Libs/SafeMath.sol\":544:549  a + b */\n          tag_101\n          swap2\n          swap1\n          tag_68\n          jump\t// in\n        tag_101:\n            /* \"Libs/SafeMath.sol\":532:549  uint256 c = a + b */\n          swap1\n          pop\n            /* \"Libs/SafeMath.sol\":570:571  a */\n          dup4\n            /* \"Libs/SafeMath.sol\":565:566  c */\n          dup2\n            /* \"Libs/SafeMath.sol\":565:571  c >= a */\n          lt\n          iszero\n            /* \"Libs/SafeMath.sol\":558:572  assert(c >= a) */\n          tag_102\n          jumpi\n          tag_103\n          tag_97\n          jump\t// in\n        tag_103:\n        tag_102:\n            /* \"Libs/SafeMath.sol\":588:589  c */\n          dup1\n            /* \"Libs/SafeMath.sol\":581:589  return c */\n          swap2\n          pop\n          pop\n            /* \"Libs/SafeMath.sol\":456:597  function add(uint256 a, uint256 b) internal pure returns (uint256) {... */\n          swap3\n          swap2\n          pop\n          pop\n          jump\t// out\n            /* \"#utility.yul\":7:106   */\n        tag_104:\n            /* \"#utility.yul\":59:65   */\n          0x00\n            /* \"#utility.yul\":93:98   */\n          dup2\n            /* \"#utility.yul\":87:99   */\n          mload\n            /* \"#utility.yul\":77:99   */\n          swap1\n          pop\n            /* \"#utility.yul\":7:106   */\n          swap2\n          swap1\n          pop\n          jump\t// out\n            /* \"#utility.yul\":112:281   */\n        tag_105:\n            /* \"#utility.yul\":196:207   */\n          0x00\n            /* \"#utility.yul\":230:236   */\n          dup3\n            /* \"#utility.yul\":225:228   */\n          dup3\n            /* \"#utility.yul\":218:237   */\n          mstore\n            /* \"#utility.yul\":270:274   */\n          0x20\n            /* \"#utility.yul\":265:268   */\n          dup3\n            /* \"#utility.yul\":261:275   */\n          add\n            /* \"#utility.yul\":246:275   */\n          swap1\n          pop\n            /* \"#utility.yul\":112:281   */\n          swap3\n          swap2\n          pop\n          pop\n          jump\t// out\n            /* \"#utility.yul\":287:426   */\n        tag_106:\n            /* \"#utility.yul\":376:382   */\n          dup3\n            /* \"#utility.yul\":371:374   */\n          dup2\n            /* \"#utility.yul\":366:369   */\n          dup4\n            /* \"#utility.yul\":360:383   */\n          mcopy\n            /* \"#utility.yul\":417:418   */\n          0x00\n            /* \"#utility.yul\":408:414   */\n          dup4\n            /* \"#utility.yul\":403:406   */\n          dup4\n            /* \"#utility.yul\":399:415   */\n          add\n            /* \"#utility.yul\":392:419   */\n          mstore\n            /* \"#utility.yul\":287:426   */\n          pop\n          pop\n          pop\n          jump\t// out\n            /* \"#utility.yul\":432:534   */\n        tag_107:\n            /* \"#utility.yul\":473:479   */\n          0x00\n            /* \"#utility.yul\":524:526   */\n          0x1f\n            /* \"#utility.yul\":520:527   */\n          not\n            /* \"#utility.yul\":515:517   */\n          0x1f\n            /* \"#utility.yul\":508:513   */\n          dup4\n            /* \"#utility.yul\":504:518   */\n          add\n            /* \"#utility.yul\":500:528   */\n          and\n            /* \"#utility.yul\":490:528   */\n          swap1\n          pop\n            /* \"#utility.yul\":432:534   */\n          swap2\n          swap1\n          pop\n          jump\t// out\n            /* \"#utility.yul\":540:917   */\n        tag_108:\n            /* \"#utility.yul\":628:631   */\n          0x00\n            /* \"#utility.yul\":656:695   */\n          tag_133\n            /* \"#utility.yul\":689:694   */\n          dup3\n            /* \"#utility.yul\":656:695   */\n          tag_104\n          jump\t// in\n        tag_133:\n            /* \"#utility.yul\":711:782   */\n          tag_134\n            /* \"#utility.yul\":775:781   */\n          dup2\n            /* \"#utility.yul\":770:773   */\n          dup6\n            /* \"#utility.yul\":711:782   */\n          tag_105\n          jump\t// in\n        tag_134:\n            /* \"#utility.yul\":704:782   */\n          swap4\n          pop\n            /* \"#utility.yul\":791:856   */\n          tag_135\n            /* \"#utility.yul\":849:855   */\n          dup2\n            /* \"#utility.yul\":844:847   */\n          dup6\n            /* \"#utility.yul\":837:841   */\n          0x20\n            /* \"#utility.yul\":830:835   */\n          dup7\n            /* \"#utility.yul\":826:842   */\n          add\n            /* \"#utility.yul\":791:856   */\n          tag_106\n          jump\t// in\n        tag_135:\n            /* \"#utility.yul\":881:910   */\n          tag_136\n            /* \"#utility.yul\":903:909   */\n          dup2\n            /* \"#utility.yul\":881:910   */\n          tag_107\n          jump\t// in\n        tag_136:\n            /* \"#utility.yul\":876:879   */\n          dup5\n            /* \"#utility.yul\":872:911   */\n          add\n            /* \"#utility.yul\":865:911   */\n          swap2\n          pop\n            /* \"#utility.yul\":632:917   */\n          pop\n            /* \"#utility.yul\":540:917   */\n          swap3\n          swap2\n          pop\n          pop\n          jump\t// out\n            /* \"#utility.yul\":923:1236   */\n        tag_18:\n            /* \"#utility.yul\":1036:1040   */\n          0x00\n            /* \"#utility.yul\":1074:1076   */\n          0x20\n            /* \"#utility.yul\":1063:1072   */\n          dup3\n            /* \"#utility.yul\":1059:1077   */\n          add\n            /* \"#utility.yul\":1051:1077   */\n          swap1\n          pop\n            /* \"#utility.yul\":1123:1132   */\n          dup2\n            /* \"#utility.yul\":1117:1121   */\n          dup2\n            /* \"#utility.yul\":1113:1133   */\n          sub\n            /* \"#utility.yul\":1109:1110   */\n          0x00\n            /* \"#utility.yul\":1098:1107   */\n          dup4\n            /* \"#utility.yul\":1094:1111   */\n          add\n            /* \"#utility.yul\":1087:1134   */\n          mstore\n            /* \"#utility.yul\":1151:1229   */\n          tag_138\n            /* \"#utility.yul\":1224:1228   */\n          dup2\n            /* \"#utility.yul\":1215:1221   */\n          dup5\n            /* \"#utility.yul\":1151:1229   */\n          tag_108\n          jump\t// in\n        tag_138:\n            /* \"#utility.yul\":1143:1229   */\n          swap1\n          pop\n            /* \"#utility.yul\":923:1236   */\n          swap3\n          swap2\n          pop\n          pop\n          jump\t// out\n            /* \"#utility.yul\":1323:1440   */\n        tag_110:\n            /* \"#utility.yul\":1432:1433   */\n          0x00\n            /* \"#utility.yul\":1429:1430   */\n          0x00\n            /* \"#utility.yul\":1422:1434   */\n          revert\n            /* \"#utility.yul\":1569:1695   */\n        tag_112:\n            /* \"#utility.yul\":1606:1613   */\n          0x00\n            /* \"#utility.yul\":1646:1688   */\n          0xffffffffffffffffffffffffffffffffffffffff\n            /* \"#utility.yul\":1639:1644   */\n          dup3\n            /* \"#utility.yul\":1635:1689   */\n          and\n            /* \"#utility.yul\":1624:1689   */\n          swap1\n          pop\n            /* \"#utility.yul\":1569:1695   */\n          swap2\n          swap1\n          pop\n          jump\t// out\n            /* \"#utility.yul\":1701:1797   */\n        tag_113:\n            /* \"#utility.yul\":1738:1745   */\n          0x00\n            /* \"#utility.yul\":1767:1791   */\n          tag_144\n            /* \"#utility.yul\":1785:1790   */\n          dup3\n            /* \"#utility.yul\":1767:1791   */\n          tag_112\n          jump\t// in\n        tag_144:\n            /* \"#utility.yul\":1756:1791   */\n          swap1\n          pop\n            /* \"#utility.yul\":1701:1797   */\n          swap2\n          swap1\n          pop\n          jump\t// out\n            /* \"#utility.yul\":1803:1925   */\n        tag_114:\n            /* \"#utility.yul\":1876:1900   */\n          tag_146\n            /* \"#utility.yul\":1894:1899   */\n          dup2\n            /* \"#utility.yul\":1876:1900   */\n          tag_113\n          jump\t// in\n        tag_146:\n            /* \"#utility.yul\":1869:1874   */\n          dup2\n            /* \"#utility.yul\":1866:1901   */\n          eq\n            /* \"#utility.yul\":1856:1919   */\n          tag_147\n          jumpi\n            /* \"#utility.yul\":1915:1916   */\n          0x00\n            /* \"#utility.yul\":1912:1913   */\n          0x00\n            /* \"#utility.yul\":1905:1917   */\n          revert\n            /* \"#utility.yul\":1856:1919   */\n        tag_147:\n            /* \"#utility.yul\":1803:1925   */\n          pop\n          jump\t// out\n            /* \"#utility.yul\":1931:2070   */\n        tag_115:\n            /* \"#utility.yul\":1977:1982   */\n          0x00\n            /* \"#utility.yul\":2015:2021   */\n          dup2\n            /* \"#utility.yul\":2002:2022   */\n          calldataload\n            /* \"#utility.yul\":1993:2022   */\n          swap1\n          pop\n            /* \"#utility.yul\":2031:2064   */\n          tag_149\n            /* \"#utility.yul\":2058:2063   */\n          dup2\n            /* \"#utility.yul\":2031:2064   */\n          tag_114\n          jump\t// in\n        tag_149:\n            /* \"#utility.yul\":1931:2070   */\n          swap3\n          swap2\n          pop\n          pop\n          jump\t// out\n            /* \"#utility.yul\":2076:2153   */\n        tag_116:\n            /* \"#utility.yul\":2113:2120   */\n          0x00\n            /* \"#utility.yul\":2142:2147   */\n          dup2\n            /* \"#utility.yul\":2131:2147   */\n          swap1\n          pop\n            /* \"#utility.yul\":2076:2153   */\n          swap2\n          swap1\n          pop\n          jump\t// out\n            /* \"#utility.yul\":2159:2281   */\n        tag_117:\n            /* \"#utility.yul\":2232:2256   */\n          tag_152\n            /* \"#utility.yul\":2250:2255   */\n          dup2\n            /* \"#utility.yul\":2232:2256   */\n          tag_116\n          jump\t// in\n        tag_152:\n            /* \"#utility.yul\":2225:2230   */\n          dup2\n            /* \"#utility.yul\":2222:2257   */\n          eq\n            /* \"#utility.yul\":2212:2275   */\n          tag_153\n          jumpi\n            /* \"#utility.yul\":2271:2272   */\n          0x00\n            /* \"#utility.yul\":2268:2269   */\n          0x00\n            /* \"#utility.yul\":2261:2273   */\n          revert\n            /* \"#utility.yul\":2212:2275   */\n        tag_153:\n            /* \"#utility.yul\":2159:2281   */\n          pop\n          jump\t// out\n            /* \"#utility.yul\":2287:2426   */\n        tag_118:\n            /* \"#utility.yul\":2333:2338   */\n          0x00\n            /* \"#utility.yul\":2371:2377   */\n          dup2\n            /* \"#utility.yul\":2358:2378   */\n          calldataload\n            /* \"#utility.yul\":2349:2378   */\n          swap1\n          pop\n            /* \"#utility.yul\":2387:2420   */\n          tag_155\n            /* \"#utility.yul\":2414:2419   */\n          dup2\n            /* \"#utility.yul\":2387:2420   */\n          tag_117\n          jump\t// in\n        tag_155:\n            /* \"#utility.yul\":2287:2426   */\n          swap3\n          swap2\n          pop\n          pop\n          jump\t// out\n            /* \"#utility.yul\":2432:2906   */\n        tag_21:\n            /* \"#utility.yul\":2500:2506   */\n          0x00\n            /* \"#utility.yul\":2508:2514   */\n          0x00\n            /* \"#utility.yul\":2557:2559   */\n          0x40\n            /* \"#utility.yul\":2545:2554   */\n          dup4\n            /* \"#utility.yul\":2536:2543   */\n          dup6\n            /* \"#utility.yul\":2532:2555   */\n          sub\n            /* \"#utility.yul\":2528:2560   */\n          slt\n            /* \"#utility.yul\":2525:2644   */\n          iszero\n          tag_157\n          jumpi\n            /* \"#utility.yul\":2563:2642   */\n          tag_158\n          tag_110\n          jump\t// in\n        tag_158:\n            /* \"#utility.yul\":2525:2644   */\n        tag_157:\n            /* \"#utility.yul\":2683:2684   */\n          0x00\n            /* \"#utility.yul\":2708:2761   */\n          tag_159\n            /* \"#utility.yul\":2753:2760   */\n          dup6\n            /* \"#utility.yul\":2744:2750   */\n          dup3\n            /* \"#utility.yul\":2733:2742   */\n          dup7\n            /* \"#utility.yul\":2729:2751   */\n          add\n            /* \"#utility.yul\":2708:2761   */\n          tag_115\n          jump\t// in\n        tag_159:\n            /* \"#utility.yul\":2698:2761   */\n          swap3\n          pop\n            /* \"#utility.yul\":2654:2771   */\n          pop\n            /* \"#utility.yul\":2810:2812   */\n          0x20\n            /* \"#utility.yul\":2836:2889   */\n          tag_160\n            /* \"#utility.yul\":2881:2888   */\n          dup6\n            /* \"#utility.yul\":2872:2878   */\n          dup3\n            /* \"#utility.yul\":2861:2870   */\n          dup7\n            /* \"#utility.yul\":2857:2879   */\n          add\n            /* \"#utility.yul\":2836:2889   */\n          tag_118\n          jump\t// in\n        tag_160:\n            /* \"#utility.yul\":2826:2889   */\n          swap2\n          pop\n            /* \"#utility.yul\":2781:2899   */\n          pop\n            /* \"#utility.yul\":2432:2906   */\n          swap3\n          pop\n          swap3\n          swap1\n          pop\n          jump\t// out\n            /* \"#utility.yul\":2912:3002   */\n        tag_119:\n            /* \"#utility.yul\":2946:2953   */\n          0x00\n            /* \"#utility.yul\":2989:2994   */\n          dup2\n            /* \"#utility.yul\":2982:2995   */\n          iszero\n            /* \"#utility.yul\":2975:2996   */\n          iszero\n            /* \"#utility.yul\":2964:2996   */\n          swap1\n          pop\n            /* \"#utility.yul\":2912:3002   */\n          swap2\n          swap1\n          pop\n          jump\t// out\n            /* \"#utility.yul\":3008:3117   */\n        tag_120:\n            /* \"#utility.yul\":3089:3110   */\n          tag_163\n            /* \"#utility.yul\":3104:3109   */\n          dup2\n            /* \"#utility.yul\":3089:3110   */\n          tag_119\n          jump\t// in\n        tag_163:\n            /* \"#utility.yul\":3084:3087   */\n          dup3\n            /* \"#utility.yul\":3077:3111   */\n          mstore\n            /* \"#utility.yul\":3008:3117   */\n          pop\n          pop\n          jump\t// out\n            /* \"#utility.yul\":3123:3333   */\n        tag_24:\n            /* \"#utility.yul\":3210:3214   */\n          0x00\n            /* \"#utility.yul\":3248:3250   */\n          0x20\n            /* \"#utility.yul\":3237:3246   */\n          dup3\n            /* \"#utility.yul\":3233:3251   */\n          add\n            /* \"#utility.yul\":3225:3251   */\n          swap1\n          pop\n            /* \"#utility.yul\":3261:3326   */\n          tag_165\n            /* \"#utility.yul\":3323:3324   */\n          0x00\n            /* \"#utility.yul\":3312:3321   */\n          dup4\n            /* \"#utility.yul\":3308:3325   */\n          add\n            /* \"#utility.yul\":3299:3305   */\n          dup5\n            /* \"#utility.yul\":3261:3326   */\n          tag_120\n          jump\t// in\n        tag_165:\n            /* \"#utility.yul\":3123:3333   */\n          swap3\n          swap2\n          pop\n          pop\n          jump\t// out\n            /* \"#utility.yul\":3339:3457   */\n        tag_121:\n            /* \"#utility.yul\":3426:3450   */\n          tag_167\n            /* \"#utility.yul\":3444:3449   */\n          dup2\n            /* \"#utility.yul\":3426:3450   */\n          tag_116\n          jump\t// in\n        tag_167:\n            /* \"#utility.yul\":3421:3424   */\n          dup3\n            /* \"#utility.yul\":3414:3451   */\n          mstore\n            /* \"#utility.yul\":3339:3457   */\n          pop\n          pop\n          jump\t// out\n            /* \"#utility.yul\":3463:3685   */\n        tag_28:\n            /* \"#utility.yul\":3556:3560   */\n          0x00\n            /* \"#utility.yul\":3594:3596   */\n          0x20\n            /* \"#utility.yul\":3583:3592   */\n          dup3\n            /* \"#utility.yul\":3579:3597   */\n          add\n            /* \"#utility.yul\":3571:3597   */\n          swap1\n          pop\n            /* \"#utility.yul\":3607:3678   */\n          tag_169\n            /* \"#utility.yul\":3675:3676   */\n          0x00\n            /* \"#utility.yul\":3664:3673   */\n          dup4\n            /* \"#utility.yul\":3660:3677   */\n          add\n            /* \"#utility.yul\":3651:3657   */\n          dup5\n            /* \"#utility.yul\":3607:3678   */\n          tag_121\n          jump\t// in\n        tag_169:\n            /* \"#utility.yul\":3463:3685   */\n          swap3\n          swap2\n          pop\n          pop\n          jump\t// out\n            /* \"#utility.yul\":3691:4020   */\n        tag_31:\n            /* \"#utility.yul\":3750:3756   */\n          0x00\n            /* \"#utility.yul\":3799:3801   */\n          0x20\n            /* \"#utility.yul\":3787:3796   */\n          dup3\n            /* \"#utility.yul\":3778:3785   */\n          dup5\n            /* \"#utility.yul\":3774:3797   */\n          sub\n            /* \"#utility.yul\":3770:3802   */\n          slt\n            /* \"#utility.yul\":3767:3886   */\n          iszero\n          tag_171\n          jumpi\n            /* \"#utility.yul\":3805:3884   */\n          tag_172\n          tag_110\n          jump\t// in\n        tag_172:\n            /* \"#utility.yul\":3767:3886   */\n        tag_171:\n            /* \"#utility.yul\":3925:3926   */\n          0x00\n            /* \"#utility.yul\":3950:4003   */\n          tag_173\n            /* \"#utility.yul\":3995:4002   */\n          dup5\n            /* \"#utility.yul\":3986:3992   */\n          dup3\n            /* \"#utility.yul\":3975:3984   */\n          dup6\n            /* \"#utility.yul\":3971:3993   */\n          add\n            /* \"#utility.yul\":3950:4003   */\n          tag_118\n          jump\t// in\n        tag_173:\n            /* \"#utility.yul\":3940:4003   */\n          swap2\n          pop\n            /* \"#utility.yul\":3896:4013   */\n          pop\n            /* \"#utility.yul\":3691:4020   */\n          swap3\n          swap2\n          pop\n          pop\n          jump\t// out\n            /* \"#utility.yul\":4026:4645   */\n        tag_35:\n            /* \"#utility.yul\":4103:4109   */\n          0x00\n            /* \"#utility.yul\":4111:4117   */\n          0x00\n            /* \"#utility.yul\":4119:4125   */\n          0x00\n            /* \"#utility.yul\":4168:4170   */\n          0x60\n            /* \"#utility.yul\":4156:4165   */\n          dup5\n            /* \"#utility.yul\":4147:4154   */\n          dup7\n            /* \"#utility.yul\":4143:4166   */\n          sub\n            /* \"#utility.yul\":4139:4171   */\n          slt\n            /* \"#utility.yul\":4136:4255   */\n          iszero\n          tag_175\n          jumpi\n            /* \"#utility.yul\":4174:4253   */\n          tag_176\n          tag_110\n          jump\t// in\n        tag_176:\n            /* \"#utility.yul\":4136:4255   */\n        tag_175:\n            /* \"#utility.yul\":4294:4295   */\n          0x00\n            /* \"#utility.yul\":4319:4372   */\n          tag_177\n            /* \"#utility.yul\":4364:4371   */\n          dup7\n            /* \"#utility.yul\":4355:4361   */\n          dup3\n            /* \"#utility.yul\":4344:4353   */\n          dup8\n            /* \"#utility.yul\":4340:4362   */\n          add\n            /* \"#utility.yul\":4319:4372   */\n          tag_115\n          jump\t// in\n        tag_177:\n            /* \"#utility.yul\":4309:4372   */\n          swap4\n          pop\n            /* \"#utility.yul\":4265:4382   */\n          pop\n            /* \"#utility.yul\":4421:4423   */\n          0x20\n            /* \"#utility.yul\":4447:4500   */\n          tag_178\n            /* \"#utility.yul\":4492:4499   */\n          dup7\n            /* \"#utility.yul\":4483:4489   */\n          dup3\n            /* \"#utility.yul\":4472:4481   */\n          dup8\n            /* \"#utility.yul\":4468:4490   */\n          add\n            /* \"#utility.yul\":4447:4500   */\n          tag_115\n          jump\t// in\n        tag_178:\n            /* \"#utility.yul\":4437:4500   */\n          swap3\n          pop\n            /* \"#utility.yul\":4392:4510   */\n          pop\n            /* \"#utility.yul\":4549:4551   */\n          0x40\n            /* \"#utility.yul\":4575:4628   */\n          tag_179\n            /* \"#utility.yul\":4620:4627   */\n          dup7\n            /* \"#utility.yul\":4611:4617   */\n          dup3\n            /* \"#utility.yul\":4600:4609   */\n          dup8\n            /* \"#utility.yul\":4596:4618   */\n          add\n            /* \"#utility.yul\":4575:4628   */\n          tag_118\n          jump\t// in\n        tag_179:\n            /* \"#utility.yul\":4565:4628   */\n          swap2\n          pop\n            /* \"#utility.yul\":4520:4638   */\n          pop\n            /* \"#utility.yul\":4026:4645   */\n          swap3\n          pop\n          swap3\n          pop\n          swap3\n          jump\t// out\n            /* \"#utility.yul\":4651:4737   */\n        tag_122:\n            /* \"#utility.yul\":4686:4693   */\n          0x00\n            /* \"#utility.yul\":4726:4730   */\n          0xff\n            /* \"#utility.yul\":4719:4724   */\n          dup3\n            /* \"#utility.yul\":4715:4731   */\n          and\n            /* \"#utility.yul\":4704:4731   */\n          swap1\n          pop\n            /* \"#utility.yul\":4651:4737   */\n          swap2\n          swap1\n          pop\n          jump\t// out\n            /* \"#utility.yul\":4743:4855   */\n        tag_123:\n            /* \"#utility.yul\":4826:4848   */\n          tag_182\n            /* \"#utility.yul\":4842:4847   */\n          dup2\n            /* \"#utility.yul\":4826:4848   */\n          tag_122\n          jump\t// in\n        tag_182:\n            /* \"#utility.yul\":4821:4824   */\n          dup3\n            /* \"#utility.yul\":4814:4849   */\n          mstore\n            /* \"#utility.yul\":4743:4855   */\n          pop\n          pop\n          jump\t// out\n            /* \"#utility.yul\":4861:5075   */\n        tag_41:\n            /* \"#utility.yul\":4950:4954   */\n          0x00\n            /* \"#utility.yul\":4988:4990   */\n          0x20\n            /* \"#utility.yul\":4977:4986   */\n          dup3\n            /* \"#utility.yul\":4973:4991   */\n          add\n            /* \"#utility.yul\":4965:4991   */\n          swap1\n          pop\n            /* \"#utility.yul\":5001:5068   */\n          tag_184\n            /* \"#utility.yul\":5065:5066   */\n          0x00\n            /* \"#utility.yul\":5054:5063   */\n          dup4\n            /* \"#utility.yul\":5050:5067   */\n          add\n            /* \"#utility.yul\":5041:5047   */\n          dup5\n            /* \"#utility.yul\":5001:5068   */\n          tag_123\n          jump\t// in\n        tag_184:\n            /* \"#utility.yul\":4861:5075   */\n          swap3\n          swap2\n          pop\n          pop\n          jump\t// out\n            /* \"#utility.yul\":5081:5410   */\n        tag_44:\n            /* \"#utility.yul\":5140:5146   */\n          0x00\n            /* \"#utility.yul\":5189:5191   */\n          0x20\n            /* \"#utility.yul\":5177:5186   */\n          dup3\n            /* \"#utility.yul\":5168:5175   */\n          dup5\n            /* \"#utility.yul\":5164:5187   */\n          sub\n            /* \"#utility.yul\":5160:5192   */\n          slt\n            /* \"#utility.yul\":5157:5276   */\n          iszero\n          tag_186\n          jumpi\n            /* \"#utility.yul\":5195:5274   */\n          tag_187\n          tag_110\n          jump\t// in\n        tag_187:\n            /* \"#utility.yul\":5157:5276   */\n        tag_186:\n            /* \"#utility.yul\":5315:5316   */\n          0x00\n            /* \"#utility.yul\":5340:5393   */\n          tag_188\n            /* \"#utility.yul\":5385:5392   */\n          dup5\n            /* \"#utility.yul\":5376:5382   */\n          dup3\n            /* \"#utility.yul\":5365:5374   */\n          dup6\n            /* \"#utility.yul\":5361:5383   */\n          add\n            /* \"#utility.yul\":5340:5393   */\n          tag_115\n          jump\t// in\n        tag_188:\n            /* \"#utility.yul\":5330:5393   */\n          swap2\n          pop\n            /* \"#utility.yul\":5286:5403   */\n          pop\n            /* \"#utility.yul\":5081:5410   */\n          swap3\n          swap2\n          pop\n          pop\n          jump\t// out\n            /* \"#utility.yul\":5416:5890   */\n        tag_60:\n            /* \"#utility.yul\":5484:5490   */\n          0x00\n            /* \"#utility.yul\":5492:5498   */\n          0x00\n            /* \"#utility.yul\":5541:5543   */\n          0x40\n            /* \"#utility.yul\":5529:5538   */\n          dup4\n            /* \"#utility.yul\":5520:5527   */\n          dup6\n            /* \"#utility.yul\":5516:5539   */\n          sub\n            /* \"#utility.yul\":5512:5544   */\n          slt\n            /* \"#utility.yul\":5509:5628   */\n          iszero\n          tag_190\n          jumpi\n            /* \"#utility.yul\":5547:5626   */\n          tag_191\n          tag_110\n          jump\t// in\n        tag_191:\n            /* \"#utility.yul\":5509:5628   */\n        tag_190:\n            /* \"#utility.yul\":5667:5668   */\n          0x00\n            /* \"#utility.yul\":5692:5745   */\n          tag_192\n            /* \"#utility.yul\":5737:5744   */\n          dup6\n            /* \"#utility.yul\":5728:5734   */\n          dup3\n            /* \"#utility.yul\":5717:5726   */\n          dup7\n            /* \"#utility.yul\":5713:5735   */\n          add\n            /* \"#utility.yul\":5692:5745   */\n          tag_115\n          jump\t// in\n        tag_192:\n            /* \"#utility.yul\":5682:5745   */\n          swap3\n          pop\n            /* \"#utility.yul\":5638:5755   */\n          pop\n            /* \"#utility.yul\":5794:5796   */\n          0x20\n            /* \"#utility.yul\":5820:5873   */\n          tag_193\n            /* \"#utility.yul\":5865:5872   */\n          dup6\n            /* \"#utility.yul\":5856:5862   */\n          dup3\n            /* \"#utility.yul\":5845:5854   */\n          dup7\n            /* \"#utility.yul\":5841:5863   */\n          add\n            /* \"#utility.yul\":5820:5873   */\n          tag_115\n          jump\t// in\n        tag_193:\n            /* \"#utility.yul\":5810:5873   */\n          swap2\n          pop\n            /* \"#utility.yul\":5765:5883   */\n          pop\n            /* \"#utility.yul\":5416:5890   */\n          swap3\n          pop\n          swap3\n          swap1\n          pop\n          jump\t// out\n            /* \"#utility.yul\":5896:6076   */\n        tag_124:\n            /* \"#utility.yul\":5944:6021   */\n          0x4e487b7100000000000000000000000000000000000000000000000000000000\n            /* \"#utility.yul\":5941:5942   */\n          0x00\n            /* \"#utility.yul\":5934:6022   */\n          mstore\n            /* \"#utility.yul\":6041:6045   */\n          0x11\n            /* \"#utility.yul\":6038:6039   */\n          0x04\n            /* \"#utility.yul\":6031:6046   */\n          mstore\n            /* \"#utility.yul\":6065:6069   */\n          0x24\n            /* \"#utility.yul\":6062:6063   */\n          0x00\n            /* \"#utility.yul\":6055:6070   */\n          revert\n            /* \"#utility.yul\":6082:6273   */\n        tag_68:\n            /* \"#utility.yul\":6122:6125   */\n          0x00\n            /* \"#utility.yul\":6141:6161   */\n          tag_196\n            /* \"#utility.yul\":6159:6160   */\n          dup3\n            /* \"#utility.yul\":6141:6161   */\n          tag_116\n          jump\t// in\n        tag_196:\n            /* \"#utility.yul\":6136:6161   */\n          swap2\n          pop\n            /* \"#utility.yul\":6175:6195   */\n          tag_197\n            /* \"#utility.yul\":6193:6194   */\n          dup4\n            /* \"#utility.yul\":6175:6195   */\n          tag_116\n          jump\t// in\n        tag_197:\n            /* \"#utility.yul\":6170:6195   */\n          swap3\n          pop\n            /* \"#utility.yul\":6218:6219   */\n          dup3\n            /* \"#utility.yul\":6215:6216   */\n          dup3\n            /* \"#utility.yul\":6211:6220   */\n          add\n            /* \"#utility.yul\":6204:6220   */\n          swap1\n          pop\n            /* \"#utility.yul\":6239:6242   */\n          dup1\n            /* \"#utility.yul\":6236:6237   */\n          dup3\n            /* \"#utility.yul\":6233:6243   */\n          gt\n            /* \"#utility.yul\":6230:6266   */\n          iszero\n          tag_198\n          jumpi\n            /* \"#utility.yul\":6246:6264   */\n          tag_199\n          tag_124\n          jump\t// in\n        tag_199:\n            /* \"#utility.yul\":6230:6266   */\n        tag_198:\n            /* \"#utility.yul\":6082:6273   */\n          swap3\n          swap2\n          pop\n          pop\n          jump\t// out\n            /* \"#utility.yul\":6279:6449   */\n        tag_125:\n            /* \"#utility.yul\":6419:6441   */\n          0x696e73756666696369656e742062616c616e6365000000000000000000000000\n            /* \"#utility.yul\":6415:6416   */\n          0x00\n            /* \"#utility.yul\":6407:6413   */\n          dup3\n            /* \"#utility.yul\":6403:6417   */\n          add\n            /* \"#utility.yul\":6396:6442   */\n          mstore\n            /* \"#utility.yul\":6279:6449   */\n          pop\n          jump\t// out\n            /* \"#utility.yul\":6455:6821   */\n        tag_126:\n            /* \"#utility.yul\":6597:6600   */\n          0x00\n            /* \"#utility.yul\":6618:6685   */\n          tag_202\n            /* \"#utility.yul\":6682:6684   */\n          0x14\n            /* \"#utility.yul\":6677:6680   */\n          dup4\n            /* \"#utility.yul\":6618:6685   */\n          tag_105\n          jump\t// in\n        tag_202:\n            /* \"#utility.yul\":6611:6685   */\n          swap2\n          pop\n            /* \"#utility.yul\":6694:6787   */\n          tag_203\n            /* \"#utility.yul\":6783:6786   */\n          dup3\n            /* \"#utility.yul\":6694:6787   */\n          tag_125\n          jump\t// in\n        tag_203:\n            /* \"#utility.yul\":6812:6814   */\n          0x20\n            /* \"#utility.yul\":6807:6810   */\n          dup3\n            /* \"#utility.yul\":6803:6815   */\n          add\n            /* \"#utility.yul\":6796:6815   */\n          swap1\n          pop\n            /* \"#utility.yul\":6455:6821   */\n          swap2\n          swap1\n          pop\n          jump\t// out\n            /* \"#utility.yul\":6827:7246   */\n        tag_83:\n            /* \"#utility.yul\":6993:6997   */\n          0x00\n            /* \"#utility.yul\":7031:7033   */\n          0x20\n            /* \"#utility.yul\":7020:7029   */\n          dup3\n            /* \"#utility.yul\":7016:7034   */\n          add\n            /* \"#utility.yul\":7008:7034   */\n          swap1\n          pop\n            /* \"#utility.yul\":7080:7089   */\n          dup2\n            /* \"#utility.yul\":7074:7078   */\n          dup2\n            /* \"#utility.yul\":7070:7090   */\n          sub\n            /* \"#utility.yul\":7066:7067   */\n          0x00\n            /* \"#utility.yul\":7055:7064   */\n          dup4\n            /* \"#utility.yul\":7051:7068   */\n          add\n            /* \"#utility.yul\":7044:7091   */\n          mstore\n            /* \"#utility.yul\":7108:7239   */\n          tag_205\n            /* \"#utility.yul\":7234:7238   */\n          dup2\n            /* \"#utility.yul\":7108:7239   */\n          tag_126\n          jump\t// in\n        tag_205:\n            /* \"#utility.yul\":7100:7239   */\n          swap1\n          pop\n            /* \"#utility.yul\":6827:7246   */\n          swap2\n          swap1\n          pop\n          jump\t// out\n            /* \"#utility.yul\":7252:7432   */\n        tag_97:\n            /* \"#utility.yul\":7300:7377   */\n          0x4e487b7100000000000000000000000000000000000000000000000000000000\n            /* \"#utility.yul\":7297:7298   */\n          0x00\n            /* \"#utility.yul\":7290:7378   */\n          mstore\n            /* \"#utility.yul\":7397:7401   */\n          0x01\n            /* \"#utility.yul\":7394:7395   */\n          0x04\n            /* \"#utility.yul\":7387:7402   */\n          mstore\n            /* \"#utility.yul\":7421:7425   */\n          0x24\n            /* \"#utility.yul\":7418:7419   */\n          0x00\n            /* \"#utility.yul\":7411:7426   */\n          revert\n            /* \"#utility.yul\":7438:7632   */\n        tag_99:\n            /* \"#utility.yul\":7478:7482   */\n          0x00\n            /* \"#utility.yul\":7498:7518   */\n          tag_208\n            /* \"#utility.yul\":7516:7517   */\n          dup3\n            /* \"#utility.yul\":7498:7518   */\n          tag_116\n          jump\t// in\n        tag_208:\n            /* \"#utility.yul\":7493:7518   */\n          swap2\n          pop\n            /* \"#utility.yul\":7532:7552   */\n          tag_209\n            /* \"#utility.yul\":7550:7551   */\n          dup4\n            /* \"#utility.yul\":7532:7552   */\n          tag_116\n          jump\t// in\n        tag_209:\n            /* \"#utility.yul\":7527:7552   */\n          swap3\n          pop\n            /* \"#utility.yul\":7576:7577   */\n          dup3\n            /* \"#utility.yul\":7573:7574   */\n          dup3\n            /* \"#utility.yul\":7569:7578   */\n          sub\n            /* \"#utility.yul\":7561:7578   */\n          swap1\n          pop\n            /* \"#utility.yul\":7600:7601   */\n          dup2\n            /* \"#utility.yul\":7594:7598   */\n          dup2\n            /* \"#utility.yul\":7591:7602   */\n          gt\n            /* \"#utility.yul\":7588:7625   */\n          iszero\n          tag_210\n          jumpi\n            /* \"#utility.yul\":7605:7623   */\n          tag_211\n          tag_124\n          jump\t// in\n        tag_211:\n            /* \"#utility.yul\":7588:7625   */\n        tag_210:\n            /* \"#utility.yul\":7438:7632   */\n          swap3\n          swap2\n          pop\n          pop\n          jump\t// out\n\n        auxdata: 0xa264697066735822122056ff8ff84145e3c944d5199fc063aa8fe35c69f4d426de926247207fb5a3411064736f6c634300081e0033\n    }\n}\n",
				"bytecode": {
					"linkReferences": {},
					"object": "608060405234801561000f575f5ffd5b50620186a0604051610020906100c7565b61002a919061011f565b604051809103905ff080158015610043573d5f5f3e3d5ffd5b505f5f6101000a81548173ffffffffffffffffffffffffffffffffffffffff021916908373ffffffffffffffffffffffffffffffffffffffff1602179055503360015f6101000a81548173ffffffffffffffffffffffffffffffffffffffff021916908373ffffffffffffffffffffffffffffffffffffffff160217905550610138565b6111e080611f6f83390190565b5f819050919050565b5f819050919050565b5f819050919050565b5f6101096101046100ff846100d4565b6100e6565b6100dd565b9050919050565b610119816100ef565b82525050565b5f6020820190506101325f830184610110565b92915050565b611e2a806101455f395ff3fe6080604052600436106100dc575f3560e01c80639b1447a01161007e578063c2db2c4211610058578063c2db2c4214610296578063c3dfdae6146102b2578063ce501912146102dc578063fa57e4c714610304576100dc565b80639b1447a014610206578063a488b6da14610244578063ab6f10921461026e576100dc565b80637ca35cff116100ba5780637ca35cff146101625780637e93bf3c1461018c57806384eda297146101b45780638da5cb5b146101dc576100dc565b806360b9a6c2146100e0578063638b65a9146100fc578063722713f714610138575b5f5ffd5b6100fa60048036038101906100f591906110fc565b61032e565b005b348015610107575f5ffd5b50610122600480360381019061011d9190611181565b61049f565b60405161012f91906111bb565b60405180910390f35b348015610143575f5ffd5b5061014c6104b9565b60405161015991906111bb565b60405180910390f35b34801561016d575f5ffd5b50610176610557565b60405161018391906112ff565b60405180910390f35b348015610197575f5ffd5b506101b260048036038101906101ad919061144b565b610666565b005b3480156101bf575f5ffd5b506101da60048036038101906101d591906114a5565b6107e2565b005b3480156101e7575f5ffd5b506101f06108e5565b6040516101fd919061150c565b60405180910390f35b348015610211575f5ffd5b5061022c600480360381019061022791906114a5565b61090a565b60405161023b93929190611587565b60405180910390f35b34801561024f575f5ffd5b506102586109da565b60405161026591906112ff565b60405180910390f35b348015610279575f5ffd5b50610294600480360381019061028f91906110fc565b610aae565b005b6102b060048036038101906102ab91906110fc565b610bc8565b005b3480156102bd575f5ffd5b506102c6610daf565b6040516102d3919061161e565b60405180910390f35b3480156102e7575f5ffd5b5061030260048036038101906102fd91906114a5565b610dd3565b005b34801561030f575f5ffd5b50610318610ffe565b60405161032591906111bb565b60405180910390f35b5f8111610370576040517f08c379a000000000000000000000000000000000000000000000000000000000815260040161036790611681565b60405180910390fd5b610378610ffe565b8111156103ba576040517f08c379a00000000000000000000000000000000000000000000000000000000081526004016103b1906116e9565b60405180910390fd5b5f5f9054906101000a900473ffffffffffffffffffffffffffffffffffffffff1673ffffffffffffffffffffffffffffffffffffffff1663d44237aa3330846040518463ffffffff1660e01b815260040161041793929190611716565b6020604051808303815f875af1158015610433573d5f5f3e3d5ffd5b505050506040513d601f19601f820116820180604052508101906104579190611775565b503373ffffffffffffffffffffffffffffffffffffffff166108fc8290811502906040515f60405180830381858888f1935050505015801561049b573d5f5f3e3d5ffd5b5050565b6002602052805f5260405f205f91509050805f0154905081565b5f5f5f9054906101000a900473ffffffffffffffffffffffffffffffffffffffff1673ffffffffffffffffffffffffffffffffffffffff166370a08231306040518263ffffffff1660e01b815260040161051391906117a0565b602060405180830381865afa15801561052e573d5f5f3e3d5ffd5b505050506040513d601f19601f8201168201806040525081019061055291906117cd565b905090565b606060055f3373ffffffffffffffffffffffffffffffffffffffff1673ffffffffffffffffffffffffffffffffffffffff1681526020019081526020015f20805480602002602001604051908101604052809291908181526020015f905b8282101561065d578382905f5260205f200180546105d290611825565b80601f01602080910402602001604051908101604052809291908181526020018280546105fe90611825565b80156106495780601f1061062057610100808354040283529160200191610649565b820191905f5260205f20905b81548152906001019060200180831161062c57829003601f168201915b5050505050815260200190600101906105b5565b50505050905090565b3360015f9054906101000a900473ffffffffffffffffffffffffffffffffffffffff1673ffffffffffffffffffffffffffffffffffffffff168173ffffffffffffffffffffffffffffffffffffffff16146106f6576040517f08c379a00000000000000000000000000000000000000000000000000000000081526004016106ed9061189f565b60405180910390fd5b60405180606001604052808481526020018381526020016001151581525060038460405161072491906118f7565b90815260200160405180910390205f820151815f0190816107459190611aa4565b50602082015181600101556040820151816002015f6101000a81548160ff021916908315150217905550905050600483908060018154018082558091505060019003905f5260205f20015f9091909190915090816107a39190611aa4565b507fe9d43efbde24c36e087cf37a3f732cce32b387e24d01a119f8ce86f0e91d079183836040516107d5929190611b73565b60405180910390a1505050565b3360015f9054906101000a900473ffffffffffffffffffffffffffffffffffffffff1673ffffffffffffffffffffffffffffffffffffffff168173ffffffffffffffffffffffffffffffffffffffff1614610872576040517f08c379a00000000000000000000000000000000000000000000000000000000081526004016108699061189f565b60405180910390fd5b5f60038360405161088391906118f7565b90815260200160405180910390206002015f6101000a81548160ff0219169083151502179055507fc860c6455f130be1c0da6283062a6472e45f2049869779d0d2cf8a87098bb551826040516108d99190611ba1565b60405180910390a15050565b60015f9054906101000a900473ffffffffffffffffffffffffffffffffffffffff1681565b6003818051602081018201805184825260208301602085012081835280955050505050505f91509050805f01805461094190611825565b80601f016020809104026020016040519081016040528092919081815260200182805461096d90611825565b80156109b85780601f1061098f576101008083540402835291602001916109b8565b820191905f5260205f20905b81548152906001019060200180831161099b57829003601f168201915b505050505090806001015490806002015f9054906101000a900460ff16905083565b60606004805480602002602001604051908101604052809291908181526020015f905b82821015610aa5578382905f5260205f20018054610a1a90611825565b80601f0160208091040260200160405190810160405280929190818152602001828054610a4690611825565b8015610a915780601f10610a6857610100808354040283529160200191610a91565b820191905f5260205f20905b815481529060010190602001808311610a7457829003601f168201915b5050505050815260200190600101906109fd565b50505050905090565b3360015f9054906101000a900473ffffffffffffffffffffffffffffffffffffffff1673ffffffffffffffffffffffffffffffffffffffff168173ffffffffffffffffffffffffffffffffffffffff1614610b3e576040517f08c379a0000000000000000000000000000000000000000000000000000000008152600401610b359061189f565b60405180910390fd5b5f5f9054906101000a900473ffffffffffffffffffffffffffffffffffffffff1673ffffffffffffffffffffffffffffffffffffffff16631d43cc98836040518263ffffffff1660e01b8152600401610b9791906111bb565b5f604051808303815f87803b158015610bae575f5ffd5b505af1158015610bc0573d5f5f3e3d5ffd5b505050505050565b5f610bd28261109c565b905080341015610c17576040517f08c379a0000000000000000000000000000000000000000000000000000000008152600401610c0e90611c0b565b60405180910390fd5b5f8134610c249190611c56565b90503373ffffffffffffffffffffffffffffffffffffffff166108fc8290811502906040515f60405180830381858888f19350505050158015610c69573d5f5f3e3d5ffd5b505f610c736104b9565b905080841115610cb8576040517f08c379a0000000000000000000000000000000000000000000000000000000008152600401610caf906116e9565b60405180910390fd5b5f5f9054906101000a900473ffffffffffffffffffffffffffffffffffffffff1673ffffffffffffffffffffffffffffffffffffffff1663a9059cbb33866040518363ffffffff1660e01b8152600401610d13929190611c89565b6020604051808303815f875af1158015610d2f573d5f5f3e3d5ffd5b505050506040513d601f19601f82011682018060405250810190610d539190611775565b508360025f3373ffffffffffffffffffffffffffffffffffffffff1673ffffffffffffffffffffffffffffffffffffffff1681526020019081526020015f205f015f828254610da29190611cb0565b9250508190555050505050565b5f5f9054906101000a900473ffffffffffffffffffffffffffffffffffffffff1681565b5f600382604051610de491906118f7565b908152602001604051809103902060010154905060011515600383604051610e0c91906118f7565b90815260200160405180910390206002015f9054906101000a900460ff16151514610e6c576040517f08c379a0000000000000000000000000000000000000000000000000000000008152600401610e6390611d2d565b60405180910390fd5b610e74610ffe565b811115610eb6576040517f08c379a0000000000000000000000000000000000000000000000000000000008152600401610ead90611d95565b60405180910390fd5b5f5f9054906101000a900473ffffffffffffffffffffffffffffffffffffffff1673ffffffffffffffffffffffffffffffffffffffff1663d44237aa3330846040518463ffffffff1660e01b8152600401610f1393929190611716565b6020604051808303815f875af1158015610f2f573d5f5f3e3d5ffd5b505050506040513d601f19601f82011682018060405250810190610f539190611775565b5060055f3373ffffffffffffffffffffffffffffffffffffffff1673ffffffffffffffffffffffffffffffffffffffff1681526020019081526020015f2082908060018154018082558091505060019003905f5260205f20015f909190919091509081610fc09190611aa4565b507fcb7dfffcc32c1eb4d24e329c14d80b43efa606ce775da2af949fcaf930d332978282604051610ff2929190611b73565b60405180910390a15050565b5f5f5f9054906101000a900473ffffffffffffffffffffffffffffffffffffffff1673ffffffffffffffffffffffffffffffffffffffff166370a08231336040518263ffffffff1660e01b815260040161105891906117a0565b602060405180830381865afa158015611073573d5f5f3e3d5ffd5b505050506040513d601f19601f8201168201806040525081019061109791906117cd565b905090565b5f670de0b6b3a7640000826110b19190611db3565b9050919050565b5f604051905090565b5f5ffd5b5f5ffd5b5f819050919050565b6110db816110c9565b81146110e5575f5ffd5b50565b5f813590506110f6816110d2565b92915050565b5f60208284031215611111576111106110c1565b5b5f61111e848285016110e8565b91505092915050565b5f73ffffffffffffffffffffffffffffffffffffffff82169050919050565b5f61115082611127565b9050919050565b61116081611146565b811461116a575f5ffd5b50565b5f8135905061117b81611157565b92915050565b5f60208284031215611196576111956110c1565b5b5f6111a38482850161116d565b91505092915050565b6111b5816110c9565b82525050565b5f6020820190506111ce5f8301846111ac565b92915050565b5f81519050919050565b5f82825260208201905092915050565b5f819050602082019050919050565b5f81519050919050565b5f82825260208201905092915050565b8281835e5f83830152505050565b5f601f19601f8301169050919050565b5f61123f826111fd565b6112498185611207565b9350611259818560208601611217565b61126281611225565b840191505092915050565b5f6112788383611235565b905092915050565b5f602082019050919050565b5f611296826111d4565b6112a081856111de565b9350836020820285016112b2856111ee565b805f5b858110156112ed57848403895281516112ce858261126d565b94506112d983611280565b925060208a019950506001810190506112b5565b50829750879550505050505092915050565b5f6020820190508181035f830152611317818461128c565b905092915050565b5f5ffd5b5f5ffd5b7f4e487b71000000000000000000000000000000000000000000000000000000005f52604160045260245ffd5b61135d82611225565b810181811067ffffffffffffffff8211171561137c5761137b611327565b5b80604052505050565b5f61138e6110b8565b905061139a8282611354565b919050565b5f67ffffffffffffffff8211156113b9576113b8611327565b5b6113c282611225565b9050602081019050919050565b828183375f83830152505050565b5f6113ef6113ea8461139f565b611385565b90508281526020810184848401111561140b5761140a611323565b5b6114168482856113cf565b509392505050565b5f82601f8301126114325761143161131f565b5b81356114428482602086016113dd565b91505092915050565b5f5f60408385031215611461576114606110c1565b5b5f83013567ffffffffffffffff81111561147e5761147d6110c5565b5b61148a8582860161141e565b925050602061149b858286016110e8565b9150509250929050565b5f602082840312156114ba576114b96110c1565b5b5f82013567ffffffffffffffff8111156114d7576114d66110c5565b5b6114e38482850161141e565b91505092915050565b5f6114f682611127565b9050919050565b611506816114ec565b82525050565b5f60208201905061151f5f8301846114fd565b92915050565b5f82825260208201905092915050565b5f61153f826111fd565b6115498185611525565b9350611559818560208601611217565b61156281611225565b840191505092915050565b5f8115159050919050565b6115818161156d565b82525050565b5f6060820190508181035f83015261159f8186611535565b90506115ae60208301856111ac565b6115bb6040830184611578565b949350505050565b5f819050919050565b5f6115e66115e16115dc84611127565b6115c3565b611127565b9050919050565b5f6115f7826115cc565b9050919050565b5f611608826115ed565b9050919050565b611618816115fe565b82525050565b5f6020820190506116315f83018461160f565b92915050565b7f496e76616c6964206e756d626572206f6620546f6b656e7300000000000000005f82015250565b5f61166b601883611525565b915061167682611637565b602082019050919050565b5f6020820190508181035f8301526116988161165f565b9050919050565b7f4e6f7420456e6f75676820546f6b656e730000000000000000000000000000005f82015250565b5f6116d3601183611525565b91506116de8261169f565b602082019050919050565b5f6020820190508181035f830152611700816116c7565b9050919050565b61171081611146565b82525050565b5f6060820190506117295f830186611707565b6117366020830185611707565b61174360408301846111ac565b949350505050565b6117548161156d565b811461175e575f5ffd5b50565b5f8151905061176f8161174b565b92915050565b5f6020828403121561178a576117896110c1565b5b5f61179784828501611761565b91505092915050565b5f6020820190506117b35f830184611707565b92915050565b5f815190506117c7816110d2565b92915050565b5f602082840312156117e2576117e16110c1565b5b5f6117ef848285016117b9565b91505092915050565b7f4e487b71000000000000000000000000000000000000000000000000000000005f52602260045260245ffd5b5f600282049050600182168061183c57607f821691505b60208210810361184f5761184e6117f8565b5b50919050565b7f4f6e6c79204f776e6572000000000000000000000000000000000000000000005f82015250565b5f611889600a83611525565b915061189482611855565b602082019050919050565b5f6020820190508181035f8301526118b68161187d565b9050919050565b5f81905092915050565b5f6118d1826111fd565b6118db81856118bd565b93506118eb818560208601611217565b80840191505092915050565b5f61190282846118c7565b915081905092915050565b5f819050815f5260205f209050919050565b5f6020601f8301049050919050565b5f82821b905092915050565b5f600883026119697fffffffffffffffffffffffffffffffffffffffffffffffffffffffffffffffff8261192e565b611973868361192e565b95508019841693508086168417925050509392505050565b5f6119a56119a061199b846110c9565b6115c3565b6110c9565b9050919050565b5f819050919050565b6119be8361198b565b6119d26119ca826119ac565b84845461193a565b825550505050565b5f5f905090565b6119e96119da565b6119f48184846119b5565b505050565b5b81811015611a1757611a0c5f826119e1565b6001810190506119fa565b5050565b601f821115611a5c57611a2d8161190d565b611a368461191f565b81016020851015611a45578190505b611a59611a518561191f565b8301826119f9565b50505b505050565b5f82821c905092915050565b5f611a7c5f1984600802611a61565b1980831691505092915050565b5f611a948383611a6d565b9150826002028217905092915050565b611aad826111fd565b67ffffffffffffffff811115611ac657611ac5611327565b5b611ad08254611825565b611adb828285611a1b565b5f60209050601f831160018114611b0c575f8415611afa578287015190505b611b048582611a89565b865550611b6b565b601f198416611b1a8661190d565b5f5b82811015611b4157848901518255600182019150602085019450602081019050611b1c565b86831015611b5e5784890151611b5a601f891682611a6d565b8355505b6001600288020188555050505b505050505050565b5f6040820190508181035f830152611b8b8185611535565b9050611b9a60208301846111ac565b9392505050565b5f6020820190508181035f830152611bb98184611535565b905092915050565b7f496e73756666696369656e742046756e647300000000000000000000000000005f82015250565b5f611bf5601283611525565b9150611c0082611bc1565b602082019050919050565b5f6020820190508181035f830152611c2281611be9565b9050919050565b7f4e487b71000000000000000000000000000000000000000000000000000000005f52601160045260245ffd5b5f611c60826110c9565b9150611c6b836110c9565b9250828203905081811115611c8357611c82611c29565b5b92915050565b5f604082019050611c9c5f830185611707565b611ca960208301846111ac565b9392505050565b5f611cba826110c9565b9150611cc5836110c9565b9250828201905080821115611cdd57611cdc611c29565b5b92915050565b7f41747472616374696f206e6f7420656e61626c656400000000000000000000005f82015250565b5f611d17601583611525565b9150611d2282611ce3565b602082019050919050565b5f6020820190508181035f830152611d4481611d0b565b9050919050565b7f596f7520646f206e6f74206861766520656e6f75676820746f6b656e730000005f82015250565b5f611d7f601d83611525565b9150611d8a82611d4b565b602082019050919050565b5f6020820190508181035f830152611dac81611d73565b9050919050565b5f611dbd826110c9565b9150611dc8836110c9565b9250828202611dd6816110c9565b91508282048414831517611ded57611dec611c29565b5b509291505056fea26469706673582212200609c311eb0dabe0839115fd658ada6e9f1c313dc39c1613ce7fa6913fec73d064736f6c634300081e00336080604052348015600e575f5ffd5b506040516111e03803806111e08339818101604052810190602e919060af565b806002819055506002545f5f3373ffffffffffffffffffffffffffffffffffffffff1673ffffffffffffffffffffffffffffffffffffffff1681526020019081526020015f20819055505060d5565b5f5ffd5b5f819050919050565b6091816081565b8114609a575f5ffd5b50565b5f8151905060a981608a565b92915050565b5f6020828403121560c15760c0607d565b5b5f60cc84828501609d565b91505092915050565b6110fe806100e25f395ff3fe608060405234801561000f575f5ffd5b50600436106100a7575f3560e01c8063313ce5671161006f578063313ce5671461016357806370a082311461018157806395d89b41146101b1578063a9059cbb146101cf578063d44237aa146101ff578063dd62ed3e1461022f576100a7565b806306fdde03146100ab578063095ea7b3146100c957806318160ddd146100f95780631d43cc981461011757806323b872dd14610133575b5f5ffd5b6100b361025f565b6040516100c09190610d3e565b60405180910390f35b6100e360048036038101906100de9190610def565b610298565b6040516100f09190610e47565b60405180910390f35b610101610385565b60405161010e9190610e6f565b60405180910390f35b610131600480360381019061012c9190610e88565b61038e565b005b61014d60048036038101906101489190610eb3565b6103fb565b60405161015a9190610e47565b60405180910390f35b61016b61075d565b6040516101789190610f1e565b60405180910390f35b61019b60048036038101906101969190610f37565b610762565b6040516101a89190610e6f565b60405180910390f35b6101b96107a7565b6040516101c69190610d3e565b60405180910390f35b6101e960048036038101906101e49190610def565b6107e0565b6040516101f69190610e47565b60405180910390f35b61021960048036038101906102149190610eb3565b6109ed565b6040516102269190610e47565b60405180910390f35b61024960048036038101906102449190610f62565b610bfb565b6040516102569190610e6f565b60405180910390f35b6040518060400160405280600f81526020017f45524332304a6f737565436861696e000000000000000000000000000000000081525081565b5f8160015f3373ffffffffffffffffffffffffffffffffffffffff1673ffffffffffffffffffffffffffffffffffffffff1681526020019081526020015f205f8573ffffffffffffffffffffffffffffffffffffffff1673ffffffffffffffffffffffffffffffffffffffff1681526020019081526020015f20819055508273ffffffffffffffffffffffffffffffffffffffff163373ffffffffffffffffffffffffffffffffffffffff167fd04c27822ed43674489d02367b63f0c5d0b6b232088b6515b73d546217b3457d846040516103739190610e6f565b60405180910390a36001905092915050565b5f600254905090565b8060025f82825461039f9190610fcd565b92505081905550805f5f3373ffffffffffffffffffffffffffffffffffffffff1673ffffffffffffffffffffffffffffffffffffffff1681526020019081526020015f205f8282546103f19190610fcd565b9250508190555050565b5f5f5f8573ffffffffffffffffffffffffffffffffffffffff1673ffffffffffffffffffffffffffffffffffffffff1681526020019081526020015f2054821115610444575f5ffd5b60015f8573ffffffffffffffffffffffffffffffffffffffff1673ffffffffffffffffffffffffffffffffffffffff1681526020019081526020015f205f3373ffffffffffffffffffffffffffffffffffffffff1673ffffffffffffffffffffffffffffffffffffffff1681526020019081526020015f20548211156104c8575f5ffd5b610517825f5f8773ffffffffffffffffffffffffffffffffffffffff1673ffffffffffffffffffffffffffffffffffffffff1681526020019081526020015f2054610c7d90919063ffffffff16565b5f5f8673ffffffffffffffffffffffffffffffffffffffff1673ffffffffffffffffffffffffffffffffffffffff1681526020019081526020015f20819055506105e28260015f8773ffffffffffffffffffffffffffffffffffffffff1673ffffffffffffffffffffffffffffffffffffffff1681526020019081526020015f205f3373ffffffffffffffffffffffffffffffffffffffff1673ffffffffffffffffffffffffffffffffffffffff1681526020019081526020015f2054610c7d90919063ffffffff16565b60015f8673ffffffffffffffffffffffffffffffffffffffff1673ffffffffffffffffffffffffffffffffffffffff1681526020019081526020015f205f3373ffffffffffffffffffffffffffffffffffffffff1673ffffffffffffffffffffffffffffffffffffffff1681526020019081526020015f20819055506106ad825f5f8673ffffffffffffffffffffffffffffffffffffffff1673ffffffffffffffffffffffffffffffffffffffff1681526020019081526020015f2054610ca390919063ffffffff16565b5f5f8573ffffffffffffffffffffffffffffffffffffffff1673ffffffffffffffffffffffffffffffffffffffff1681526020019081526020015f20819055508273ffffffffffffffffffffffffffffffffffffffff168473ffffffffffffffffffffffffffffffffffffffff167f5d439cf3a1f6215b41908e5b0b300f39679a3ff1cc010691c1d4ec4d0e2a4ebb8460405161074a9190610e6f565b60405180910390a3600190509392505050565b600281565b5f5f5f8373ffffffffffffffffffffffffffffffffffffffff1673ffffffffffffffffffffffffffffffffffffffff1681526020019081526020015f20549050919050565b6040518060400160405280600581526020017f4554484a4300000000000000000000000000000000000000000000000000000081525081565b5f5f5f3373ffffffffffffffffffffffffffffffffffffffff1673ffffffffffffffffffffffffffffffffffffffff1681526020019081526020015f2054821115610860576040517f08c379a00000000000000000000000000000000000000000000000000000000081526004016108579061104a565b60405180910390fd5b6108af825f5f3373ffffffffffffffffffffffffffffffffffffffff1673ffffffffffffffffffffffffffffffffffffffff1681526020019081526020015f2054610c7d90919063ffffffff16565b5f5f3373ffffffffffffffffffffffffffffffffffffffff1673ffffffffffffffffffffffffffffffffffffffff1681526020019081526020015f208190555061093e825f5f8673ffffffffffffffffffffffffffffffffffffffff1673ffffffffffffffffffffffffffffffffffffffff1681526020019081526020015f2054610ca390919063ffffffff16565b5f5f8573ffffffffffffffffffffffffffffffffffffffff1673ffffffffffffffffffffffffffffffffffffffff1681526020019081526020015f20819055508273ffffffffffffffffffffffffffffffffffffffff163373ffffffffffffffffffffffffffffffffffffffff167f5d439cf3a1f6215b41908e5b0b300f39679a3ff1cc010691c1d4ec4d0e2a4ebb846040516109db9190610e6f565b60405180910390a36001905092915050565b5f5f5f8573ffffffffffffffffffffffffffffffffffffffff1673ffffffffffffffffffffffffffffffffffffffff1681526020019081526020015f2054821115610a6d576040517f08c379a0000000000000000000000000000000000000000000000000000000008152600401610a649061104a565b60405180910390fd5b610abc825f5f8773ffffffffffffffffffffffffffffffffffffffff1673ffffffffffffffffffffffffffffffffffffffff1681526020019081526020015f2054610c7d90919063ffffffff16565b5f5f8673ffffffffffffffffffffffffffffffffffffffff1673ffffffffffffffffffffffffffffffffffffffff1681526020019081526020015f2081905550610b4b825f5f8673ffffffffffffffffffffffffffffffffffffffff1673ffffffffffffffffffffffffffffffffffffffff1681526020019081526020015f2054610ca390919063ffffffff16565b5f5f8573ffffffffffffffffffffffffffffffffffffffff1673ffffffffffffffffffffffffffffffffffffffff1681526020019081526020015f20819055508273ffffffffffffffffffffffffffffffffffffffff168473ffffffffffffffffffffffffffffffffffffffff167f5d439cf3a1f6215b41908e5b0b300f39679a3ff1cc010691c1d4ec4d0e2a4ebb84604051610be89190610e6f565b60405180910390a3600190509392505050565b5f60015f8473ffffffffffffffffffffffffffffffffffffffff1673ffffffffffffffffffffffffffffffffffffffff1681526020019081526020015f205f8373ffffffffffffffffffffffffffffffffffffffff1673ffffffffffffffffffffffffffffffffffffffff1681526020019081526020015f2054905092915050565b5f82821115610c8f57610c8e611068565b5b8183610c9b9190611095565b905092915050565b5f5f8284610cb19190610fcd565b905083811015610cc457610cc3611068565b5b8091505092915050565b5f81519050919050565b5f82825260208201905092915050565b8281835e5f83830152505050565b5f601f19601f8301169050919050565b5f610d1082610cce565b610d1a8185610cd8565b9350610d2a818560208601610ce8565b610d3381610cf6565b840191505092915050565b5f6020820190508181035f830152610d568184610d06565b905092915050565b5f5ffd5b5f73ffffffffffffffffffffffffffffffffffffffff82169050919050565b5f610d8b82610d62565b9050919050565b610d9b81610d81565b8114610da5575f5ffd5b50565b5f81359050610db681610d92565b92915050565b5f819050919050565b610dce81610dbc565b8114610dd8575f5ffd5b50565b5f81359050610de981610dc5565b92915050565b5f5f60408385031215610e0557610e04610d5e565b5b5f610e1285828601610da8565b9250506020610e2385828601610ddb565b9150509250929050565b5f8115159050919050565b610e4181610e2d565b82525050565b5f602082019050610e5a5f830184610e38565b92915050565b610e6981610dbc565b82525050565b5f602082019050610e825f830184610e60565b92915050565b5f60208284031215610e9d57610e9c610d5e565b5b5f610eaa84828501610ddb565b91505092915050565b5f5f5f60608486031215610eca57610ec9610d5e565b5b5f610ed786828701610da8565b9350506020610ee886828701610da8565b9250506040610ef986828701610ddb565b9150509250925092565b5f60ff82169050919050565b610f1881610f03565b82525050565b5f602082019050610f315f830184610f0f565b92915050565b5f60208284031215610f4c57610f4b610d5e565b5b5f610f5984828501610da8565b91505092915050565b5f5f60408385031215610f7857610f77610d5e565b5b5f610f8585828601610da8565b9250506020610f9685828601610da8565b9150509250929050565b7f4e487b71000000000000000000000000000000000000000000000000000000005f52601160045260245ffd5b5f610fd782610dbc565b9150610fe283610dbc565b9250828201905080821115610ffa57610ff9610fa0565b5b92915050565b7f696e73756666696369656e742062616c616e63650000000000000000000000005f82015250565b5f611034601483610cd8565b915061103f82611000565b602082019050919050565b5f6020820190508181035f83015261106181611028565b9050919050565b7f4e487b71000000000000000000000000000000000000000000000000000000005f52600160045260245ffd5b5f61109f82610dbc565b91506110aa83610dbc565b92508282039050818111156110c2576110c1610fa0565b5b9291505056fea264697066735822122056ff8ff84145e3c944d5199fc063aa8fe35c69f4d426de926247207fb5a3411064736f6c634300081e0033",
					"opcodes": "PUSH1 0x80 PUSH1 0x40 MSTORE CALLVALUE DUP1 ISZERO PUSH2 0xF JUMPI PUSH0 PUSH0 REVERT JUMPDEST POP PUSH3 0x186A0 PUSH1 0x40 MLOAD PUSH2 0x20 SWAP1 PUSH2 0xC7 JUMP JUMPDEST PUSH2 0x2A SWAP2 SWAP1 PUSH2 0x11F JUMP JUMPDEST PUSH1 0x40 MLOAD DUP1 SWAP2 SUB SWAP1 PUSH0 CREATE DUP1 ISZERO DUP1 ISZERO PUSH2 0x43 JUMPI RETURNDATASIZE PUSH0 PUSH0 RETURNDATACOPY RETURNDATASIZE PUSH0 REVERT JUMPDEST POP PUSH0 PUSH0 PUSH2 0x100 EXP DUP2 SLOAD DUP2 PUSH20 0xFFFFFFFFFFFFFFFFFFFFFFFFFFFFFFFFFFFFFFFF MUL NOT AND SWAP1 DUP4 PUSH20 0xFFFFFFFFFFFFFFFFFFFFFFFFFFFFFFFFFFFFFFFF AND MUL OR SWAP1 SSTORE POP CALLER PUSH1 0x1 PUSH0 PUSH2 0x100 EXP DUP2 SLOAD DUP2 PUSH20 0xFFFFFFFFFFFFFFFFFFFFFFFFFFFFFFFFFFFFFFFF MUL NOT AND SWAP1 DUP4 PUSH20 0xFFFFFFFFFFFFFFFFFFFFFFFFFFFFFFFFFFFFFFFF AND MUL OR SWAP1 SSTORE POP PUSH2 0x138 JUMP JUMPDEST PUSH2 0x11E0 DUP1 PUSH2 0x1F6F DUP4 CODECOPY ADD SWAP1 JUMP JUMPDEST PUSH0 DUP2 SWAP1 POP SWAP2 SWAP1 POP JUMP JUMPDEST PUSH0 DUP2 SWAP1 POP SWAP2 SWAP1 POP JUMP JUMPDEST PUSH0 DUP2 SWAP1 POP SWAP2 SWAP1 POP JUMP JUMPDEST PUSH0 PUSH2 0x109 PUSH2 0x104 PUSH2 0xFF DUP5 PUSH2 0xD4 JUMP JUMPDEST PUSH2 0xE6 JUMP JUMPDEST PUSH2 0xDD JUMP JUMPDEST SWAP1 POP SWAP2 SWAP1 POP JUMP JUMPDEST PUSH2 0x119 DUP2 PUSH2 0xEF JUMP JUMPDEST DUP3 MSTORE POP POP JUMP JUMPDEST PUSH0 PUSH1 0x20 DUP3 ADD SWAP1 POP PUSH2 0x132 PUSH0 DUP4 ADD DUP5 PUSH2 0x110 JUMP JUMPDEST SWAP3 SWAP2 POP POP JUMP JUMPDEST PUSH2 0x1E2A DUP1 PUSH2 0x145 PUSH0 CODECOPY PUSH0 RETURN INVALID PUSH1 0x80 PUSH1 0x40 MSTORE PUSH1 0x4 CALLDATASIZE LT PUSH2 0xDC JUMPI PUSH0 CALLDATALOAD PUSH1 0xE0 SHR DUP1 PUSH4 0x9B1447A0 GT PUSH2 0x7E JUMPI DUP1 PUSH4 0xC2DB2C42 GT PUSH2 0x58 JUMPI DUP1 PUSH4 0xC2DB2C42 EQ PUSH2 0x296 JUMPI DUP1 PUSH4 0xC3DFDAE6 EQ PUSH2 0x2B2 JUMPI DUP1 PUSH4 0xCE501912 EQ PUSH2 0x2DC JUMPI DUP1 PUSH4 0xFA57E4C7 EQ PUSH2 0x304 JUMPI PUSH2 0xDC JUMP JUMPDEST DUP1 PUSH4 0x9B1447A0 EQ PUSH2 0x206 JUMPI DUP1 PUSH4 0xA488B6DA EQ PUSH2 0x244 JUMPI DUP1 PUSH4 0xAB6F1092 EQ PUSH2 0x26E JUMPI PUSH2 0xDC JUMP JUMPDEST DUP1 PUSH4 0x7CA35CFF GT PUSH2 0xBA JUMPI DUP1 PUSH4 0x7CA35CFF EQ PUSH2 0x162 JUMPI DUP1 PUSH4 0x7E93BF3C EQ PUSH2 0x18C JUMPI DUP1 PUSH4 0x84EDA297 EQ PUSH2 0x1B4 JUMPI DUP1 PUSH4 0x8DA5CB5B EQ PUSH2 0x1DC JUMPI PUSH2 0xDC JUMP JUMPDEST DUP1 PUSH4 0x60B9A6C2 EQ PUSH2 0xE0 JUMPI DUP1 PUSH4 0x638B65A9 EQ PUSH2 0xFC JUMPI DUP1 PUSH4 0x722713F7 EQ PUSH2 0x138 JUMPI JUMPDEST PUSH0 PUSH0 REVERT JUMPDEST PUSH2 0xFA PUSH1 0x4 DUP1 CALLDATASIZE SUB DUP2 ADD SWAP1 PUSH2 0xF5 SWAP2 SWAP1 PUSH2 0x10FC JUMP JUMPDEST PUSH2 0x32E JUMP JUMPDEST STOP JUMPDEST CALLVALUE DUP1 ISZERO PUSH2 0x107 JUMPI PUSH0 PUSH0 REVERT JUMPDEST POP PUSH2 0x122 PUSH1 0x4 DUP1 CALLDATASIZE SUB DUP2 ADD SWAP1 PUSH2 0x11D SWAP2 SWAP1 PUSH2 0x1181 JUMP JUMPDEST PUSH2 0x49F JUMP JUMPDEST PUSH1 0x40 MLOAD PUSH2 0x12F SWAP2 SWAP1 PUSH2 0x11BB JUMP JUMPDEST PUSH1 0x40 MLOAD DUP1 SWAP2 SUB SWAP1 RETURN JUMPDEST CALLVALUE DUP1 ISZERO PUSH2 0x143 JUMPI PUSH0 PUSH0 REVERT JUMPDEST POP PUSH2 0x14C PUSH2 0x4B9 JUMP JUMPDEST PUSH1 0x40 MLOAD PUSH2 0x159 SWAP2 SWAP1 PUSH2 0x11BB JUMP JUMPDEST PUSH1 0x40 MLOAD DUP1 SWAP2 SUB SWAP1 RETURN JUMPDEST CALLVALUE DUP1 ISZERO PUSH2 0x16D JUMPI PUSH0 PUSH0 REVERT JUMPDEST POP PUSH2 0x176 PUSH2 0x557 JUMP JUMPDEST PUSH1 0x40 MLOAD PUSH2 0x183 SWAP2 SWAP1 PUSH2 0x12FF JUMP JUMPDEST PUSH1 0x40 MLOAD DUP1 SWAP2 SUB SWAP1 RETURN JUMPDEST CALLVALUE DUP1 ISZERO PUSH2 0x197 JUMPI PUSH0 PUSH0 REVERT JUMPDEST POP PUSH2 0x1B2 PUSH1 0x4 DUP1 CALLDATASIZE SUB DUP2 ADD SWAP1 PUSH2 0x1AD SWAP2 SWAP1 PUSH2 0x144B JUMP JUMPDEST PUSH2 0x666 JUMP JUMPDEST STOP JUMPDEST CALLVALUE DUP1 ISZERO PUSH2 0x1BF JUMPI PUSH0 PUSH0 REVERT JUMPDEST POP PUSH2 0x1DA PUSH1 0x4 DUP1 CALLDATASIZE SUB DUP2 ADD SWAP1 PUSH2 0x1D5 SWAP2 SWAP1 PUSH2 0x14A5 JUMP JUMPDEST PUSH2 0x7E2 JUMP JUMPDEST STOP JUMPDEST CALLVALUE DUP1 ISZERO PUSH2 0x1E7 JUMPI PUSH0 PUSH0 REVERT JUMPDEST POP PUSH2 0x1F0 PUSH2 0x8E5 JUMP JUMPDEST PUSH1 0x40 MLOAD PUSH2 0x1FD SWAP2 SWAP1 PUSH2 0x150C JUMP JUMPDEST PUSH1 0x40 MLOAD DUP1 SWAP2 SUB SWAP1 RETURN JUMPDEST CALLVALUE DUP1 ISZERO PUSH2 0x211 JUMPI PUSH0 PUSH0 REVERT JUMPDEST POP PUSH2 0x22C PUSH1 0x4 DUP1 CALLDATASIZE SUB DUP2 ADD SWAP1 PUSH2 0x227 SWAP2 SWAP1 PUSH2 0x14A5 JUMP JUMPDEST PUSH2 0x90A JUMP JUMPDEST PUSH1 0x40 MLOAD PUSH2 0x23B SWAP4 SWAP3 SWAP2 SWAP1 PUSH2 0x1587 JUMP JUMPDEST PUSH1 0x40 MLOAD DUP1 SWAP2 SUB SWAP1 RETURN JUMPDEST CALLVALUE DUP1 ISZERO PUSH2 0x24F JUMPI PUSH0 PUSH0 REVERT JUMPDEST POP PUSH2 0x258 PUSH2 0x9DA JUMP JUMPDEST PUSH1 0x40 MLOAD PUSH2 0x265 SWAP2 SWAP1 PUSH2 0x12FF JUMP JUMPDEST PUSH1 0x40 MLOAD DUP1 SWAP2 SUB SWAP1 RETURN JUMPDEST CALLVALUE DUP1 ISZERO PUSH2 0x279 JUMPI PUSH0 PUSH0 REVERT JUMPDEST POP PUSH2 0x294 PUSH1 0x4 DUP1 CALLDATASIZE SUB DUP2 ADD SWAP1 PUSH2 0x28F SWAP2 SWAP1 PUSH2 0x10FC JUMP JUMPDEST PUSH2 0xAAE JUMP JUMPDEST STOP JUMPDEST PUSH2 0x2B0 PUSH1 0x4 DUP1 CALLDATASIZE SUB DUP2 ADD SWAP1 PUSH2 0x2AB SWAP2 SWAP1 PUSH2 0x10FC JUMP JUMPDEST PUSH2 0xBC8 JUMP JUMPDEST STOP JUMPDEST CALLVALUE DUP1 ISZERO PUSH2 0x2BD JUMPI PUSH0 PUSH0 REVERT JUMPDEST POP PUSH2 0x2C6 PUSH2 0xDAF JUMP JUMPDEST PUSH1 0x40 MLOAD PUSH2 0x2D3 SWAP2 SWAP1 PUSH2 0x161E JUMP JUMPDEST PUSH1 0x40 MLOAD DUP1 SWAP2 SUB SWAP1 RETURN JUMPDEST CALLVALUE DUP1 ISZERO PUSH2 0x2E7 JUMPI PUSH0 PUSH0 REVERT JUMPDEST POP PUSH2 0x302 PUSH1 0x4 DUP1 CALLDATASIZE SUB DUP2 ADD SWAP1 PUSH2 0x2FD SWAP2 SWAP1 PUSH2 0x14A5 JUMP JUMPDEST PUSH2 0xDD3 JUMP JUMPDEST STOP JUMPDEST CALLVALUE DUP1 ISZERO PUSH2 0x30F JUMPI PUSH0 PUSH0 REVERT JUMPDEST POP PUSH2 0x318 PUSH2 0xFFE JUMP JUMPDEST PUSH1 0x40 MLOAD PUSH2 0x325 SWAP2 SWAP1 PUSH2 0x11BB JUMP JUMPDEST PUSH1 0x40 MLOAD DUP1 SWAP2 SUB SWAP1 RETURN JUMPDEST PUSH0 DUP2 GT PUSH2 0x370 JUMPI PUSH1 0x40 MLOAD PUSH32 0x8C379A000000000000000000000000000000000000000000000000000000000 DUP2 MSTORE PUSH1 0x4 ADD PUSH2 0x367 SWAP1 PUSH2 0x1681 JUMP JUMPDEST PUSH1 0x40 MLOAD DUP1 SWAP2 SUB SWAP1 REVERT JUMPDEST PUSH2 0x378 PUSH2 0xFFE JUMP JUMPDEST DUP2 GT ISZERO PUSH2 0x3BA JUMPI PUSH1 0x40 MLOAD PUSH32 0x8C379A000000000000000000000000000000000000000000000000000000000 DUP2 MSTORE PUSH1 0x4 ADD PUSH2 0x3B1 SWAP1 PUSH2 0x16E9 JUMP JUMPDEST PUSH1 0x40 MLOAD DUP1 SWAP2 SUB SWAP1 REVERT JUMPDEST PUSH0 PUSH0 SWAP1 SLOAD SWAP1 PUSH2 0x100 EXP SWAP1 DIV PUSH20 0xFFFFFFFFFFFFFFFFFFFFFFFFFFFFFFFFFFFFFFFF AND PUSH20 0xFFFFFFFFFFFFFFFFFFFFFFFFFFFFFFFFFFFFFFFF AND PUSH4 0xD44237AA CALLER ADDRESS DUP5 PUSH1 0x40 MLOAD DUP5 PUSH4 0xFFFFFFFF AND PUSH1 0xE0 SHL DUP2 MSTORE PUSH1 0x4 ADD PUSH2 0x417 SWAP4 SWAP3 SWAP2 SWAP1 PUSH2 0x1716 JUMP JUMPDEST PUSH1 0x20 PUSH1 0x40 MLOAD DUP1 DUP4 SUB DUP2 PUSH0 DUP8 GAS CALL ISZERO DUP1 ISZERO PUSH2 0x433 JUMPI RETURNDATASIZE PUSH0 PUSH0 RETURNDATACOPY RETURNDATASIZE PUSH0 REVERT JUMPDEST POP POP POP POP PUSH1 0x40 MLOAD RETURNDATASIZE PUSH1 0x1F NOT PUSH1 0x1F DUP3 ADD AND DUP3 ADD DUP1 PUSH1 0x40 MSTORE POP DUP2 ADD SWAP1 PUSH2 0x457 SWAP2 SWAP1 PUSH2 0x1775 JUMP JUMPDEST POP CALLER PUSH20 0xFFFFFFFFFFFFFFFFFFFFFFFFFFFFFFFFFFFFFFFF AND PUSH2 0x8FC DUP3 SWAP1 DUP2 ISZERO MUL SWAP1 PUSH1 0x40 MLOAD PUSH0 PUSH1 0x40 MLOAD DUP1 DUP4 SUB DUP2 DUP6 DUP9 DUP9 CALL SWAP4 POP POP POP POP ISZERO DUP1 ISZERO PUSH2 0x49B JUMPI RETURNDATASIZE PUSH0 PUSH0 RETURNDATACOPY RETURNDATASIZE PUSH0 REVERT JUMPDEST POP POP JUMP JUMPDEST PUSH1 0x2 PUSH1 0x20 MSTORE DUP1 PUSH0 MSTORE PUSH1 0x40 PUSH0 KECCAK256 PUSH0 SWAP2 POP SWAP1 POP DUP1 PUSH0 ADD SLOAD SWAP1 POP DUP2 JUMP JUMPDEST PUSH0 PUSH0 PUSH0 SWAP1 SLOAD SWAP1 PUSH2 0x100 EXP SWAP1 DIV PUSH20 0xFFFFFFFFFFFFFFFFFFFFFFFFFFFFFFFFFFFFFFFF AND PUSH20 0xFFFFFFFFFFFFFFFFFFFFFFFFFFFFFFFFFFFFFFFF AND PUSH4 0x70A08231 ADDRESS PUSH1 0x40 MLOAD DUP3 PUSH4 0xFFFFFFFF AND PUSH1 0xE0 SHL DUP2 MSTORE PUSH1 0x4 ADD PUSH2 0x513 SWAP2 SWAP1 PUSH2 0x17A0 JUMP JUMPDEST PUSH1 0x20 PUSH1 0x40 MLOAD DUP1 DUP4 SUB DUP2 DUP7 GAS STATICCALL ISZERO DUP1 ISZERO PUSH2 0x52E JUMPI RETURNDATASIZE PUSH0 PUSH0 RETURNDATACOPY RETURNDATASIZE PUSH0 REVERT JUMPDEST POP POP POP POP PUSH1 0x40 MLOAD RETURNDATASIZE PUSH1 0x1F NOT PUSH1 0x1F DUP3 ADD AND DUP3 ADD DUP1 PUSH1 0x40 MSTORE POP DUP2 ADD SWAP1 PUSH2 0x552 SWAP2 SWAP1 PUSH2 0x17CD JUMP JUMPDEST SWAP1 POP SWAP1 JUMP JUMPDEST PUSH1 0x60 PUSH1 0x5 PUSH0 CALLER PUSH20 0xFFFFFFFFFFFFFFFFFFFFFFFFFFFFFFFFFFFFFFFF AND PUSH20 0xFFFFFFFFFFFFFFFFFFFFFFFFFFFFFFFFFFFFFFFF AND DUP2 MSTORE PUSH1 0x20 ADD SWAP1 DUP2 MSTORE PUSH1 0x20 ADD PUSH0 KECCAK256 DUP1 SLOAD DUP1 PUSH1 0x20 MUL PUSH1 0x20 ADD PUSH1 0x40 MLOAD SWAP1 DUP2 ADD PUSH1 0x40 MSTORE DUP1 SWAP3 SWAP2 SWAP1 DUP2 DUP2 MSTORE PUSH1 0x20 ADD PUSH0 SWAP1 JUMPDEST DUP3 DUP3 LT ISZERO PUSH2 0x65D JUMPI DUP4 DUP3 SWAP1 PUSH0 MSTORE PUSH1 0x20 PUSH0 KECCAK256 ADD DUP1 SLOAD PUSH2 0x5D2 SWAP1 PUSH2 0x1825 JUMP JUMPDEST DUP1 PUSH1 0x1F ADD PUSH1 0x20 DUP1 SWAP2 DIV MUL PUSH1 0x20 ADD PUSH1 0x40 MLOAD SWAP1 DUP2 ADD PUSH1 0x40 MSTORE DUP1 SWAP3 SWAP2 SWAP1 DUP2 DUP2 MSTORE PUSH1 0x20 ADD DUP3 DUP1 SLOAD PUSH2 0x5FE SWAP1 PUSH2 0x1825 JUMP JUMPDEST DUP1 ISZERO PUSH2 0x649 JUMPI DUP1 PUSH1 0x1F LT PUSH2 0x620 JUMPI PUSH2 0x100 DUP1 DUP4 SLOAD DIV MUL DUP4 MSTORE SWAP2 PUSH1 0x20 ADD SWAP2 PUSH2 0x649 JUMP JUMPDEST DUP3 ADD SWAP2 SWAP1 PUSH0 MSTORE PUSH1 0x20 PUSH0 KECCAK256 SWAP1 JUMPDEST DUP2 SLOAD DUP2 MSTORE SWAP1 PUSH1 0x1 ADD SWAP1 PUSH1 0x20 ADD DUP1 DUP4 GT PUSH2 0x62C JUMPI DUP3 SWAP1 SUB PUSH1 0x1F AND DUP3 ADD SWAP2 JUMPDEST POP POP POP POP POP DUP2 MSTORE PUSH1 0x20 ADD SWAP1 PUSH1 0x1 ADD SWAP1 PUSH2 0x5B5 JUMP JUMPDEST POP POP POP POP SWAP1 POP SWAP1 JUMP JUMPDEST CALLER PUSH1 0x1 PUSH0 SWAP1 SLOAD SWAP1 PUSH2 0x100 EXP SWAP1 DIV PUSH20 0xFFFFFFFFFFFFFFFFFFFFFFFFFFFFFFFFFFFFFFFF AND PUSH20 0xFFFFFFFFFFFFFFFFFFFFFFFFFFFFFFFFFFFFFFFF AND DUP2 PUSH20 0xFFFFFFFFFFFFFFFFFFFFFFFFFFFFFFFFFFFFFFFF AND EQ PUSH2 0x6F6 JUMPI PUSH1 0x40 MLOAD PUSH32 0x8C379A000000000000000000000000000000000000000000000000000000000 DUP2 MSTORE PUSH1 0x4 ADD PUSH2 0x6ED SWAP1 PUSH2 0x189F JUMP JUMPDEST PUSH1 0x40 MLOAD DUP1 SWAP2 SUB SWAP1 REVERT JUMPDEST PUSH1 0x40 MLOAD DUP1 PUSH1 0x60 ADD PUSH1 0x40 MSTORE DUP1 DUP5 DUP2 MSTORE PUSH1 0x20 ADD DUP4 DUP2 MSTORE PUSH1 0x20 ADD PUSH1 0x1 ISZERO ISZERO DUP2 MSTORE POP PUSH1 0x3 DUP5 PUSH1 0x40 MLOAD PUSH2 0x724 SWAP2 SWAP1 PUSH2 0x18F7 JUMP JUMPDEST SWAP1 DUP2 MSTORE PUSH1 0x20 ADD PUSH1 0x40 MLOAD DUP1 SWAP2 SUB SWAP1 KECCAK256 PUSH0 DUP3 ADD MLOAD DUP2 PUSH0 ADD SWAP1 DUP2 PUSH2 0x745 SWAP2 SWAP1 PUSH2 0x1AA4 JUMP JUMPDEST POP PUSH1 0x20 DUP3 ADD MLOAD DUP2 PUSH1 0x1 ADD SSTORE PUSH1 0x40 DUP3 ADD MLOAD DUP2 PUSH1 0x2 ADD PUSH0 PUSH2 0x100 EXP DUP2 SLOAD DUP2 PUSH1 0xFF MUL NOT AND SWAP1 DUP4 ISZERO ISZERO MUL OR SWAP1 SSTORE POP SWAP1 POP POP PUSH1 0x4 DUP4 SWAP1 DUP1 PUSH1 0x1 DUP2 SLOAD ADD DUP1 DUP3 SSTORE DUP1 SWAP2 POP POP PUSH1 0x1 SWAP1 SUB SWAP1 PUSH0 MSTORE PUSH1 0x20 PUSH0 KECCAK256 ADD PUSH0 SWAP1 SWAP2 SWAP1 SWAP2 SWAP1 SWAP2 POP SWAP1 DUP2 PUSH2 0x7A3 SWAP2 SWAP1 PUSH2 0x1AA4 JUMP JUMPDEST POP PUSH32 0xE9D43EFBDE24C36E087CF37A3F732CCE32B387E24D01A119F8CE86F0E91D0791 DUP4 DUP4 PUSH1 0x40 MLOAD PUSH2 0x7D5 SWAP3 SWAP2 SWAP1 PUSH2 0x1B73 JUMP JUMPDEST PUSH1 0x40 MLOAD DUP1 SWAP2 SUB SWAP1 LOG1 POP POP POP JUMP JUMPDEST CALLER PUSH1 0x1 PUSH0 SWAP1 SLOAD SWAP1 PUSH2 0x100 EXP SWAP1 DIV PUSH20 0xFFFFFFFFFFFFFFFFFFFFFFFFFFFFFFFFFFFFFFFF AND PUSH20 0xFFFFFFFFFFFFFFFFFFFFFFFFFFFFFFFFFFFFFFFF AND DUP2 PUSH20 0xFFFFFFFFFFFFFFFFFFFFFFFFFFFFFFFFFFFFFFFF AND EQ PUSH2 0x872 JUMPI PUSH1 0x40 MLOAD PUSH32 0x8C379A000000000000000000000000000000000000000000000000000000000 DUP2 MSTORE PUSH1 0x4 ADD PUSH2 0x869 SWAP1 PUSH2 0x189F JUMP JUMPDEST PUSH1 0x40 MLOAD DUP1 SWAP2 SUB SWAP1 REVERT JUMPDEST PUSH0 PUSH1 0x3 DUP4 PUSH1 0x40 MLOAD PUSH2 0x883 SWAP2 SWAP1 PUSH2 0x18F7 JUMP JUMPDEST SWAP1 DUP2 MSTORE PUSH1 0x20 ADD PUSH1 0x40 MLOAD DUP1 SWAP2 SUB SWAP1 KECCAK256 PUSH1 0x2 ADD PUSH0 PUSH2 0x100 EXP DUP2 SLOAD DUP2 PUSH1 0xFF MUL NOT AND SWAP1 DUP4 ISZERO ISZERO MUL OR SWAP1 SSTORE POP PUSH32 0xC860C6455F130BE1C0DA6283062A6472E45F2049869779D0D2CF8A87098BB551 DUP3 PUSH1 0x40 MLOAD PUSH2 0x8D9 SWAP2 SWAP1 PUSH2 0x1BA1 JUMP JUMPDEST PUSH1 0x40 MLOAD DUP1 SWAP2 SUB SWAP1 LOG1 POP POP JUMP JUMPDEST PUSH1 0x1 PUSH0 SWAP1 SLOAD SWAP1 PUSH2 0x100 EXP SWAP1 DIV PUSH20 0xFFFFFFFFFFFFFFFFFFFFFFFFFFFFFFFFFFFFFFFF AND DUP2 JUMP JUMPDEST PUSH1 0x3 DUP2 DUP1 MLOAD PUSH1 0x20 DUP2 ADD DUP3 ADD DUP1 MLOAD DUP5 DUP3 MSTORE PUSH1 0x20 DUP4 ADD PUSH1 0x20 DUP6 ADD KECCAK256 DUP2 DUP4 MSTORE DUP1 SWAP6 POP POP POP POP POP POP PUSH0 SWAP2 POP SWAP1 POP DUP1 PUSH0 ADD DUP1 SLOAD PUSH2 0x941 SWAP1 PUSH2 0x1825 JUMP JUMPDEST DUP1 PUSH1 0x1F ADD PUSH1 0x20 DUP1 SWAP2 DIV MUL PUSH1 0x20 ADD PUSH1 0x40 MLOAD SWAP1 DUP2 ADD PUSH1 0x40 MSTORE DUP1 SWAP3 SWAP2 SWAP1 DUP2 DUP2 MSTORE PUSH1 0x20 ADD DUP3 DUP1 SLOAD PUSH2 0x96D SWAP1 PUSH2 0x1825 JUMP JUMPDEST DUP1 ISZERO PUSH2 0x9B8 JUMPI DUP1 PUSH1 0x1F LT PUSH2 0x98F JUMPI PUSH2 0x100 DUP1 DUP4 SLOAD DIV MUL DUP4 MSTORE SWAP2 PUSH1 0x20 ADD SWAP2 PUSH2 0x9B8 JUMP JUMPDEST DUP3 ADD SWAP2 SWAP1 PUSH0 MSTORE PUSH1 0x20 PUSH0 KECCAK256 SWAP1 JUMPDEST DUP2 SLOAD DUP2 MSTORE SWAP1 PUSH1 0x1 ADD SWAP1 PUSH1 0x20 ADD DUP1 DUP4 GT PUSH2 0x99B JUMPI DUP3 SWAP1 SUB PUSH1 0x1F AND DUP3 ADD SWAP2 JUMPDEST POP POP POP POP POP SWAP1 DUP1 PUSH1 0x1 ADD SLOAD SWAP1 DUP1 PUSH1 0x2 ADD PUSH0 SWAP1 SLOAD SWAP1 PUSH2 0x100 EXP SWAP1 DIV PUSH1 0xFF AND SWAP1 POP DUP4 JUMP JUMPDEST PUSH1 0x60 PUSH1 0x4 DUP1 SLOAD DUP1 PUSH1 0x20 MUL PUSH1 0x20 ADD PUSH1 0x40 MLOAD SWAP1 DUP2 ADD PUSH1 0x40 MSTORE DUP1 SWAP3 SWAP2 SWAP1 DUP2 DUP2 MSTORE PUSH1 0x20 ADD PUSH0 SWAP1 JUMPDEST DUP3 DUP3 LT ISZERO PUSH2 0xAA5 JUMPI DUP4 DUP3 SWAP1 PUSH0 MSTORE PUSH1 0x20 PUSH0 KECCAK256 ADD DUP1 SLOAD PUSH2 0xA1A SWAP1 PUSH2 0x1825 JUMP JUMPDEST DUP1 PUSH1 0x1F ADD PUSH1 0x20 DUP1 SWAP2 DIV MUL PUSH1 0x20 ADD PUSH1 0x40 MLOAD SWAP1 DUP2 ADD PUSH1 0x40 MSTORE DUP1 SWAP3 SWAP2 SWAP1 DUP2 DUP2 MSTORE PUSH1 0x20 ADD DUP3 DUP1 SLOAD PUSH2 0xA46 SWAP1 PUSH2 0x1825 JUMP JUMPDEST DUP1 ISZERO PUSH2 0xA91 JUMPI DUP1 PUSH1 0x1F LT PUSH2 0xA68 JUMPI PUSH2 0x100 DUP1 DUP4 SLOAD DIV MUL DUP4 MSTORE SWAP2 PUSH1 0x20 ADD SWAP2 PUSH2 0xA91 JUMP JUMPDEST DUP3 ADD SWAP2 SWAP1 PUSH0 MSTORE PUSH1 0x20 PUSH0 KECCAK256 SWAP1 JUMPDEST DUP2 SLOAD DUP2 MSTORE SWAP1 PUSH1 0x1 ADD SWAP1 PUSH1 0x20 ADD DUP1 DUP4 GT PUSH2 0xA74 JUMPI DUP3 SWAP1 SUB PUSH1 0x1F AND DUP3 ADD SWAP2 JUMPDEST POP POP POP POP POP DUP2 MSTORE PUSH1 0x20 ADD SWAP1 PUSH1 0x1 ADD SWAP1 PUSH2 0x9FD JUMP JUMPDEST POP POP POP POP SWAP1 POP SWAP1 JUMP JUMPDEST CALLER PUSH1 0x1 PUSH0 SWAP1 SLOAD SWAP1 PUSH2 0x100 EXP SWAP1 DIV PUSH20 0xFFFFFFFFFFFFFFFFFFFFFFFFFFFFFFFFFFFFFFFF AND PUSH20 0xFFFFFFFFFFFFFFFFFFFFFFFFFFFFFFFFFFFFFFFF AND DUP2 PUSH20 0xFFFFFFFFFFFFFFFFFFFFFFFFFFFFFFFFFFFFFFFF AND EQ PUSH2 0xB3E JUMPI PUSH1 0x40 MLOAD PUSH32 0x8C379A000000000000000000000000000000000000000000000000000000000 DUP2 MSTORE PUSH1 0x4 ADD PUSH2 0xB35 SWAP1 PUSH2 0x189F JUMP JUMPDEST PUSH1 0x40 MLOAD DUP1 SWAP2 SUB SWAP1 REVERT JUMPDEST PUSH0 PUSH0 SWAP1 SLOAD SWAP1 PUSH2 0x100 EXP SWAP1 DIV PUSH20 0xFFFFFFFFFFFFFFFFFFFFFFFFFFFFFFFFFFFFFFFF AND PUSH20 0xFFFFFFFFFFFFFFFFFFFFFFFFFFFFFFFFFFFFFFFF AND PUSH4 0x1D43CC98 DUP4 PUSH1 0x40 MLOAD DUP3 PUSH4 0xFFFFFFFF AND PUSH1 0xE0 SHL DUP2 MSTORE PUSH1 0x4 ADD PUSH2 0xB97 SWAP2 SWAP1 PUSH2 0x11BB JUMP JUMPDEST PUSH0 PUSH1 0x40 MLOAD DUP1 DUP4 SUB DUP2 PUSH0 DUP8 DUP1 EXTCODESIZE ISZERO DUP1 ISZERO PUSH2 0xBAE JUMPI PUSH0 PUSH0 REVERT JUMPDEST POP GAS CALL ISZERO DUP1 ISZERO PUSH2 0xBC0 JUMPI RETURNDATASIZE PUSH0 PUSH0 RETURNDATACOPY RETURNDATASIZE PUSH0 REVERT JUMPDEST POP POP POP POP POP POP JUMP JUMPDEST PUSH0 PUSH2 0xBD2 DUP3 PUSH2 0x109C JUMP JUMPDEST SWAP1 POP DUP1 CALLVALUE LT ISZERO PUSH2 0xC17 JUMPI PUSH1 0x40 MLOAD PUSH32 0x8C379A000000000000000000000000000000000000000000000000000000000 DUP2 MSTORE PUSH1 0x4 ADD PUSH2 0xC0E SWAP1 PUSH2 0x1C0B JUMP JUMPDEST PUSH1 0x40 MLOAD DUP1 SWAP2 SUB SWAP1 REVERT JUMPDEST PUSH0 DUP2 CALLVALUE PUSH2 0xC24 SWAP2 SWAP1 PUSH2 0x1C56 JUMP JUMPDEST SWAP1 POP CALLER PUSH20 0xFFFFFFFFFFFFFFFFFFFFFFFFFFFFFFFFFFFFFFFF AND PUSH2 0x8FC DUP3 SWAP1 DUP2 ISZERO MUL SWAP1 PUSH1 0x40 MLOAD PUSH0 PUSH1 0x40 MLOAD DUP1 DUP4 SUB DUP2 DUP6 DUP9 DUP9 CALL SWAP4 POP POP POP POP ISZERO DUP1 ISZERO PUSH2 0xC69 JUMPI RETURNDATASIZE PUSH0 PUSH0 RETURNDATACOPY RETURNDATASIZE PUSH0 REVERT JUMPDEST POP PUSH0 PUSH2 0xC73 PUSH2 0x4B9 JUMP JUMPDEST SWAP1 POP DUP1 DUP5 GT ISZERO PUSH2 0xCB8 JUMPI PUSH1 0x40 MLOAD PUSH32 0x8C379A000000000000000000000000000000000000000000000000000000000 DUP2 MSTORE PUSH1 0x4 ADD PUSH2 0xCAF SWAP1 PUSH2 0x16E9 JUMP JUMPDEST PUSH1 0x40 MLOAD DUP1 SWAP2 SUB SWAP1 REVERT JUMPDEST PUSH0 PUSH0 SWAP1 SLOAD SWAP1 PUSH2 0x100 EXP SWAP1 DIV PUSH20 0xFFFFFFFFFFFFFFFFFFFFFFFFFFFFFFFFFFFFFFFF AND PUSH20 0xFFFFFFFFFFFFFFFFFFFFFFFFFFFFFFFFFFFFFFFF AND PUSH4 0xA9059CBB CALLER DUP7 PUSH1 0x40 MLOAD DUP4 PUSH4 0xFFFFFFFF AND PUSH1 0xE0 SHL DUP2 MSTORE PUSH1 0x4 ADD PUSH2 0xD13 SWAP3 SWAP2 SWAP1 PUSH2 0x1C89 JUMP JUMPDEST PUSH1 0x20 PUSH1 0x40 MLOAD DUP1 DUP4 SUB DUP2 PUSH0 DUP8 GAS CALL ISZERO DUP1 ISZERO PUSH2 0xD2F JUMPI RETURNDATASIZE PUSH0 PUSH0 RETURNDATACOPY RETURNDATASIZE PUSH0 REVERT JUMPDEST POP POP POP POP PUSH1 0x40 MLOAD RETURNDATASIZE PUSH1 0x1F NOT PUSH1 0x1F DUP3 ADD AND DUP3 ADD DUP1 PUSH1 0x40 MSTORE POP DUP2 ADD SWAP1 PUSH2 0xD53 SWAP2 SWAP1 PUSH2 0x1775 JUMP JUMPDEST POP DUP4 PUSH1 0x2 PUSH0 CALLER PUSH20 0xFFFFFFFFFFFFFFFFFFFFFFFFFFFFFFFFFFFFFFFF AND PUSH20 0xFFFFFFFFFFFFFFFFFFFFFFFFFFFFFFFFFFFFFFFF AND DUP2 MSTORE PUSH1 0x20 ADD SWAP1 DUP2 MSTORE PUSH1 0x20 ADD PUSH0 KECCAK256 PUSH0 ADD PUSH0 DUP3 DUP3 SLOAD PUSH2 0xDA2 SWAP2 SWAP1 PUSH2 0x1CB0 JUMP JUMPDEST SWAP3 POP POP DUP2 SWAP1 SSTORE POP POP POP POP POP JUMP JUMPDEST PUSH0 PUSH0 SWAP1 SLOAD SWAP1 PUSH2 0x100 EXP SWAP1 DIV PUSH20 0xFFFFFFFFFFFFFFFFFFFFFFFFFFFFFFFFFFFFFFFF AND DUP2 JUMP JUMPDEST PUSH0 PUSH1 0x3 DUP3 PUSH1 0x40 MLOAD PUSH2 0xDE4 SWAP2 SWAP1 PUSH2 0x18F7 JUMP JUMPDEST SWAP1 DUP2 MSTORE PUSH1 0x20 ADD PUSH1 0x40 MLOAD DUP1 SWAP2 SUB SWAP1 KECCAK256 PUSH1 0x1 ADD SLOAD SWAP1 POP PUSH1 0x1 ISZERO ISZERO PUSH1 0x3 DUP4 PUSH1 0x40 MLOAD PUSH2 0xE0C SWAP2 SWAP1 PUSH2 0x18F7 JUMP JUMPDEST SWAP1 DUP2 MSTORE PUSH1 0x20 ADD PUSH1 0x40 MLOAD DUP1 SWAP2 SUB SWAP1 KECCAK256 PUSH1 0x2 ADD PUSH0 SWAP1 SLOAD SWAP1 PUSH2 0x100 EXP SWAP1 DIV PUSH1 0xFF AND ISZERO ISZERO EQ PUSH2 0xE6C JUMPI PUSH1 0x40 MLOAD PUSH32 0x8C379A000000000000000000000000000000000000000000000000000000000 DUP2 MSTORE PUSH1 0x4 ADD PUSH2 0xE63 SWAP1 PUSH2 0x1D2D JUMP JUMPDEST PUSH1 0x40 MLOAD DUP1 SWAP2 SUB SWAP1 REVERT JUMPDEST PUSH2 0xE74 PUSH2 0xFFE JUMP JUMPDEST DUP2 GT ISZERO PUSH2 0xEB6 JUMPI PUSH1 0x40 MLOAD PUSH32 0x8C379A000000000000000000000000000000000000000000000000000000000 DUP2 MSTORE PUSH1 0x4 ADD PUSH2 0xEAD SWAP1 PUSH2 0x1D95 JUMP JUMPDEST PUSH1 0x40 MLOAD DUP1 SWAP2 SUB SWAP1 REVERT JUMPDEST PUSH0 PUSH0 SWAP1 SLOAD SWAP1 PUSH2 0x100 EXP SWAP1 DIV PUSH20 0xFFFFFFFFFFFFFFFFFFFFFFFFFFFFFFFFFFFFFFFF AND PUSH20 0xFFFFFFFFFFFFFFFFFFFFFFFFFFFFFFFFFFFFFFFF AND PUSH4 0xD44237AA CALLER ADDRESS DUP5 PUSH1 0x40 MLOAD DUP5 PUSH4 0xFFFFFFFF AND PUSH1 0xE0 SHL DUP2 MSTORE PUSH1 0x4 ADD PUSH2 0xF13 SWAP4 SWAP3 SWAP2 SWAP1 PUSH2 0x1716 JUMP JUMPDEST PUSH1 0x20 PUSH1 0x40 MLOAD DUP1 DUP4 SUB DUP2 PUSH0 DUP8 GAS CALL ISZERO DUP1 ISZERO PUSH2 0xF2F JUMPI RETURNDATASIZE PUSH0 PUSH0 RETURNDATACOPY RETURNDATASIZE PUSH0 REVERT JUMPDEST POP POP POP POP PUSH1 0x40 MLOAD RETURNDATASIZE PUSH1 0x1F NOT PUSH1 0x1F DUP3 ADD AND DUP3 ADD DUP1 PUSH1 0x40 MSTORE POP DUP2 ADD SWAP1 PUSH2 0xF53 SWAP2 SWAP1 PUSH2 0x1775 JUMP JUMPDEST POP PUSH1 0x5 PUSH0 CALLER PUSH20 0xFFFFFFFFFFFFFFFFFFFFFFFFFFFFFFFFFFFFFFFF AND PUSH20 0xFFFFFFFFFFFFFFFFFFFFFFFFFFFFFFFFFFFFFFFF AND DUP2 MSTORE PUSH1 0x20 ADD SWAP1 DUP2 MSTORE PUSH1 0x20 ADD PUSH0 KECCAK256 DUP3 SWAP1 DUP1 PUSH1 0x1 DUP2 SLOAD ADD DUP1 DUP3 SSTORE DUP1 SWAP2 POP POP PUSH1 0x1 SWAP1 SUB SWAP1 PUSH0 MSTORE PUSH1 0x20 PUSH0 KECCAK256 ADD PUSH0 SWAP1 SWAP2 SWAP1 SWAP2 SWAP1 SWAP2 POP SWAP1 DUP2 PUSH2 0xFC0 SWAP2 SWAP1 PUSH2 0x1AA4 JUMP JUMPDEST POP PUSH32 0xCB7DFFFCC32C1EB4D24E329C14D80B43EFA606CE775DA2AF949FCAF930D33297 DUP3 DUP3 PUSH1 0x40 MLOAD PUSH2 0xFF2 SWAP3 SWAP2 SWAP1 PUSH2 0x1B73 JUMP JUMPDEST PUSH1 0x40 MLOAD DUP1 SWAP2 SUB SWAP1 LOG1 POP POP JUMP JUMPDEST PUSH0 PUSH0 PUSH0 SWAP1 SLOAD SWAP1 PUSH2 0x100 EXP SWAP1 DIV PUSH20 0xFFFFFFFFFFFFFFFFFFFFFFFFFFFFFFFFFFFFFFFF AND PUSH20 0xFFFFFFFFFFFFFFFFFFFFFFFFFFFFFFFFFFFFFFFF AND PUSH4 0x70A08231 CALLER PUSH1 0x40 MLOAD DUP3 PUSH4 0xFFFFFFFF AND PUSH1 0xE0 SHL DUP2 MSTORE PUSH1 0x4 ADD PUSH2 0x1058 SWAP2 SWAP1 PUSH2 0x17A0 JUMP JUMPDEST PUSH1 0x20 PUSH1 0x40 MLOAD DUP1 DUP4 SUB DUP2 DUP7 GAS STATICCALL ISZERO DUP1 ISZERO PUSH2 0x1073 JUMPI RETURNDATASIZE PUSH0 PUSH0 RETURNDATACOPY RETURNDATASIZE PUSH0 REVERT JUMPDEST POP POP POP POP PUSH1 0x40 MLOAD RETURNDATASIZE PUSH1 0x1F NOT PUSH1 0x1F DUP3 ADD AND DUP3 ADD DUP1 PUSH1 0x40 MSTORE POP DUP2 ADD SWAP1 PUSH2 0x1097 SWAP2 SWAP1 PUSH2 0x17CD JUMP JUMPDEST SWAP1 POP SWAP1 JUMP JUMPDEST PUSH0 PUSH8 0xDE0B6B3A7640000 DUP3 PUSH2 0x10B1 SWAP2 SWAP1 PUSH2 0x1DB3 JUMP JUMPDEST SWAP1 POP SWAP2 SWAP1 POP JUMP JUMPDEST PUSH0 PUSH1 0x40 MLOAD SWAP1 POP SWAP1 JUMP JUMPDEST PUSH0 PUSH0 REVERT JUMPDEST PUSH0 PUSH0 REVERT JUMPDEST PUSH0 DUP2 SWAP1 POP SWAP2 SWAP1 POP JUMP JUMPDEST PUSH2 0x10DB DUP2 PUSH2 0x10C9 JUMP JUMPDEST DUP2 EQ PUSH2 0x10E5 JUMPI PUSH0 PUSH0 REVERT JUMPDEST POP JUMP JUMPDEST PUSH0 DUP2 CALLDATALOAD SWAP1 POP PUSH2 0x10F6 DUP2 PUSH2 0x10D2 JUMP JUMPDEST SWAP3 SWAP2 POP POP JUMP JUMPDEST PUSH0 PUSH1 0x20 DUP3 DUP5 SUB SLT ISZERO PUSH2 0x1111 JUMPI PUSH2 0x1110 PUSH2 0x10C1 JUMP JUMPDEST JUMPDEST PUSH0 PUSH2 0x111E DUP5 DUP3 DUP6 ADD PUSH2 0x10E8 JUMP JUMPDEST SWAP2 POP POP SWAP3 SWAP2 POP POP JUMP JUMPDEST PUSH0 PUSH20 0xFFFFFFFFFFFFFFFFFFFFFFFFFFFFFFFFFFFFFFFF DUP3 AND SWAP1 POP SWAP2 SWAP1 POP JUMP JUMPDEST PUSH0 PUSH2 0x1150 DUP3 PUSH2 0x1127 JUMP JUMPDEST SWAP1 POP SWAP2 SWAP1 POP JUMP JUMPDEST PUSH2 0x1160 DUP2 PUSH2 0x1146 JUMP JUMPDEST DUP2 EQ PUSH2 0x116A JUMPI PUSH0 PUSH0 REVERT JUMPDEST POP JUMP JUMPDEST PUSH0 DUP2 CALLDATALOAD SWAP1 POP PUSH2 0x117B DUP2 PUSH2 0x1157 JUMP JUMPDEST SWAP3 SWAP2 POP POP JUMP JUMPDEST PUSH0 PUSH1 0x20 DUP3 DUP5 SUB SLT ISZERO PUSH2 0x1196 JUMPI PUSH2 0x1195 PUSH2 0x10C1 JUMP JUMPDEST JUMPDEST PUSH0 PUSH2 0x11A3 DUP5 DUP3 DUP6 ADD PUSH2 0x116D JUMP JUMPDEST SWAP2 POP POP SWAP3 SWAP2 POP POP JUMP JUMPDEST PUSH2 0x11B5 DUP2 PUSH2 0x10C9 JUMP JUMPDEST DUP3 MSTORE POP POP JUMP JUMPDEST PUSH0 PUSH1 0x20 DUP3 ADD SWAP1 POP PUSH2 0x11CE PUSH0 DUP4 ADD DUP5 PUSH2 0x11AC JUMP JUMPDEST SWAP3 SWAP2 POP POP JUMP JUMPDEST PUSH0 DUP2 MLOAD SWAP1 POP SWAP2 SWAP1 POP JUMP JUMPDEST PUSH0 DUP3 DUP3 MSTORE PUSH1 0x20 DUP3 ADD SWAP1 POP SWAP3 SWAP2 POP POP JUMP JUMPDEST PUSH0 DUP2 SWAP1 POP PUSH1 0x20 DUP3 ADD SWAP1 POP SWAP2 SWAP1 POP JUMP JUMPDEST PUSH0 DUP2 MLOAD SWAP1 POP SWAP2 SWAP1 POP JUMP JUMPDEST PUSH0 DUP3 DUP3 MSTORE PUSH1 0x20 DUP3 ADD SWAP1 POP SWAP3 SWAP2 POP POP JUMP JUMPDEST DUP3 DUP2 DUP4 MCOPY PUSH0 DUP4 DUP4 ADD MSTORE POP POP POP JUMP JUMPDEST PUSH0 PUSH1 0x1F NOT PUSH1 0x1F DUP4 ADD AND SWAP1 POP SWAP2 SWAP1 POP JUMP JUMPDEST PUSH0 PUSH2 0x123F DUP3 PUSH2 0x11FD JUMP JUMPDEST PUSH2 0x1249 DUP2 DUP6 PUSH2 0x1207 JUMP JUMPDEST SWAP4 POP PUSH2 0x1259 DUP2 DUP6 PUSH1 0x20 DUP7 ADD PUSH2 0x1217 JUMP JUMPDEST PUSH2 0x1262 DUP2 PUSH2 0x1225 JUMP JUMPDEST DUP5 ADD SWAP2 POP POP SWAP3 SWAP2 POP POP JUMP JUMPDEST PUSH0 PUSH2 0x1278 DUP4 DUP4 PUSH2 0x1235 JUMP JUMPDEST SWAP1 POP SWAP3 SWAP2 POP POP JUMP JUMPDEST PUSH0 PUSH1 0x20 DUP3 ADD SWAP1 POP SWAP2 SWAP1 POP JUMP JUMPDEST PUSH0 PUSH2 0x1296 DUP3 PUSH2 0x11D4 JUMP JUMPDEST PUSH2 0x12A0 DUP2 DUP6 PUSH2 0x11DE JUMP JUMPDEST SWAP4 POP DUP4 PUSH1 0x20 DUP3 MUL DUP6 ADD PUSH2 0x12B2 DUP6 PUSH2 0x11EE JUMP JUMPDEST DUP1 PUSH0 JUMPDEST DUP6 DUP2 LT ISZERO PUSH2 0x12ED JUMPI DUP5 DUP5 SUB DUP10 MSTORE DUP2 MLOAD PUSH2 0x12CE DUP6 DUP3 PUSH2 0x126D JUMP JUMPDEST SWAP5 POP PUSH2 0x12D9 DUP4 PUSH2 0x1280 JUMP JUMPDEST SWAP3 POP PUSH1 0x20 DUP11 ADD SWAP10 POP POP PUSH1 0x1 DUP2 ADD SWAP1 POP PUSH2 0x12B5 JUMP JUMPDEST POP DUP3 SWAP8 POP DUP8 SWAP6 POP POP POP POP POP POP SWAP3 SWAP2 POP POP JUMP JUMPDEST PUSH0 PUSH1 0x20 DUP3 ADD SWAP1 POP DUP2 DUP2 SUB PUSH0 DUP4 ADD MSTORE PUSH2 0x1317 DUP2 DUP5 PUSH2 0x128C JUMP JUMPDEST SWAP1 POP SWAP3 SWAP2 POP POP JUMP JUMPDEST PUSH0 PUSH0 REVERT JUMPDEST PUSH0 PUSH0 REVERT JUMPDEST PUSH32 0x4E487B7100000000000000000000000000000000000000000000000000000000 PUSH0 MSTORE PUSH1 0x41 PUSH1 0x4 MSTORE PUSH1 0x24 PUSH0 REVERT JUMPDEST PUSH2 0x135D DUP3 PUSH2 0x1225 JUMP JUMPDEST DUP2 ADD DUP2 DUP2 LT PUSH8 0xFFFFFFFFFFFFFFFF DUP3 GT OR ISZERO PUSH2 0x137C JUMPI PUSH2 0x137B PUSH2 0x1327 JUMP JUMPDEST JUMPDEST DUP1 PUSH1 0x40 MSTORE POP POP POP JUMP JUMPDEST PUSH0 PUSH2 0x138E PUSH2 0x10B8 JUMP JUMPDEST SWAP1 POP PUSH2 0x139A DUP3 DUP3 PUSH2 0x1354 JUMP JUMPDEST SWAP2 SWAP1 POP JUMP JUMPDEST PUSH0 PUSH8 0xFFFFFFFFFFFFFFFF DUP3 GT ISZERO PUSH2 0x13B9 JUMPI PUSH2 0x13B8 PUSH2 0x1327 JUMP JUMPDEST JUMPDEST PUSH2 0x13C2 DUP3 PUSH2 0x1225 JUMP JUMPDEST SWAP1 POP PUSH1 0x20 DUP2 ADD SWAP1 POP SWAP2 SWAP1 POP JUMP JUMPDEST DUP3 DUP2 DUP4 CALLDATACOPY PUSH0 DUP4 DUP4 ADD MSTORE POP POP POP JUMP JUMPDEST PUSH0 PUSH2 0x13EF PUSH2 0x13EA DUP5 PUSH2 0x139F JUMP JUMPDEST PUSH2 0x1385 JUMP JUMPDEST SWAP1 POP DUP3 DUP2 MSTORE PUSH1 0x20 DUP2 ADD DUP5 DUP5 DUP5 ADD GT ISZERO PUSH2 0x140B JUMPI PUSH2 0x140A PUSH2 0x1323 JUMP JUMPDEST JUMPDEST PUSH2 0x1416 DUP5 DUP3 DUP6 PUSH2 0x13CF JUMP JUMPDEST POP SWAP4 SWAP3 POP POP POP JUMP JUMPDEST PUSH0 DUP3 PUSH1 0x1F DUP4 ADD SLT PUSH2 0x1432 JUMPI PUSH2 0x1431 PUSH2 0x131F JUMP JUMPDEST JUMPDEST DUP2 CALLDATALOAD PUSH2 0x1442 DUP5 DUP3 PUSH1 0x20 DUP7 ADD PUSH2 0x13DD JUMP JUMPDEST SWAP2 POP POP SWAP3 SWAP2 POP POP JUMP JUMPDEST PUSH0 PUSH0 PUSH1 0x40 DUP4 DUP6 SUB SLT ISZERO PUSH2 0x1461 JUMPI PUSH2 0x1460 PUSH2 0x10C1 JUMP JUMPDEST JUMPDEST PUSH0 DUP4 ADD CALLDATALOAD PUSH8 0xFFFFFFFFFFFFFFFF DUP2 GT ISZERO PUSH2 0x147E JUMPI PUSH2 0x147D PUSH2 0x10C5 JUMP JUMPDEST JUMPDEST PUSH2 0x148A DUP6 DUP3 DUP7 ADD PUSH2 0x141E JUMP JUMPDEST SWAP3 POP POP PUSH1 0x20 PUSH2 0x149B DUP6 DUP3 DUP7 ADD PUSH2 0x10E8 JUMP JUMPDEST SWAP2 POP POP SWAP3 POP SWAP3 SWAP1 POP JUMP JUMPDEST PUSH0 PUSH1 0x20 DUP3 DUP5 SUB SLT ISZERO PUSH2 0x14BA JUMPI PUSH2 0x14B9 PUSH2 0x10C1 JUMP JUMPDEST JUMPDEST PUSH0 DUP3 ADD CALLDATALOAD PUSH8 0xFFFFFFFFFFFFFFFF DUP2 GT ISZERO PUSH2 0x14D7 JUMPI PUSH2 0x14D6 PUSH2 0x10C5 JUMP JUMPDEST JUMPDEST PUSH2 0x14E3 DUP5 DUP3 DUP6 ADD PUSH2 0x141E JUMP JUMPDEST SWAP2 POP POP SWAP3 SWAP2 POP POP JUMP JUMPDEST PUSH0 PUSH2 0x14F6 DUP3 PUSH2 0x1127 JUMP JUMPDEST SWAP1 POP SWAP2 SWAP1 POP JUMP JUMPDEST PUSH2 0x1506 DUP2 PUSH2 0x14EC JUMP JUMPDEST DUP3 MSTORE POP POP JUMP JUMPDEST PUSH0 PUSH1 0x20 DUP3 ADD SWAP1 POP PUSH2 0x151F PUSH0 DUP4 ADD DUP5 PUSH2 0x14FD JUMP JUMPDEST SWAP3 SWAP2 POP POP JUMP JUMPDEST PUSH0 DUP3 DUP3 MSTORE PUSH1 0x20 DUP3 ADD SWAP1 POP SWAP3 SWAP2 POP POP JUMP JUMPDEST PUSH0 PUSH2 0x153F DUP3 PUSH2 0x11FD JUMP JUMPDEST PUSH2 0x1549 DUP2 DUP6 PUSH2 0x1525 JUMP JUMPDEST SWAP4 POP PUSH2 0x1559 DUP2 DUP6 PUSH1 0x20 DUP7 ADD PUSH2 0x1217 JUMP JUMPDEST PUSH2 0x1562 DUP2 PUSH2 0x1225 JUMP JUMPDEST DUP5 ADD SWAP2 POP POP SWAP3 SWAP2 POP POP JUMP JUMPDEST PUSH0 DUP2 ISZERO ISZERO SWAP1 POP SWAP2 SWAP1 POP JUMP JUMPDEST PUSH2 0x1581 DUP2 PUSH2 0x156D JUMP JUMPDEST DUP3 MSTORE POP POP JUMP JUMPDEST PUSH0 PUSH1 0x60 DUP3 ADD SWAP1 POP DUP2 DUP2 SUB PUSH0 DUP4 ADD MSTORE PUSH2 0x159F DUP2 DUP7 PUSH2 0x1535 JUMP JUMPDEST SWAP1 POP PUSH2 0x15AE PUSH1 0x20 DUP4 ADD DUP6 PUSH2 0x11AC JUMP JUMPDEST PUSH2 0x15BB PUSH1 0x40 DUP4 ADD DUP5 PUSH2 0x1578 JUMP JUMPDEST SWAP5 SWAP4 POP POP POP POP JUMP JUMPDEST PUSH0 DUP2 SWAP1 POP SWAP2 SWAP1 POP JUMP JUMPDEST PUSH0 PUSH2 0x15E6 PUSH2 0x15E1 PUSH2 0x15DC DUP5 PUSH2 0x1127 JUMP JUMPDEST PUSH2 0x15C3 JUMP JUMPDEST PUSH2 0x1127 JUMP JUMPDEST SWAP1 POP SWAP2 SWAP1 POP JUMP JUMPDEST PUSH0 PUSH2 0x15F7 DUP3 PUSH2 0x15CC JUMP JUMPDEST SWAP1 POP SWAP2 SWAP1 POP JUMP JUMPDEST PUSH0 PUSH2 0x1608 DUP3 PUSH2 0x15ED JUMP JUMPDEST SWAP1 POP SWAP2 SWAP1 POP JUMP JUMPDEST PUSH2 0x1618 DUP2 PUSH2 0x15FE JUMP JUMPDEST DUP3 MSTORE POP POP JUMP JUMPDEST PUSH0 PUSH1 0x20 DUP3 ADD SWAP1 POP PUSH2 0x1631 PUSH0 DUP4 ADD DUP5 PUSH2 0x160F JUMP JUMPDEST SWAP3 SWAP2 POP POP JUMP JUMPDEST PUSH32 0x496E76616C6964206E756D626572206F6620546F6B656E730000000000000000 PUSH0 DUP3 ADD MSTORE POP JUMP JUMPDEST PUSH0 PUSH2 0x166B PUSH1 0x18 DUP4 PUSH2 0x1525 JUMP JUMPDEST SWAP2 POP PUSH2 0x1676 DUP3 PUSH2 0x1637 JUMP JUMPDEST PUSH1 0x20 DUP3 ADD SWAP1 POP SWAP2 SWAP1 POP JUMP JUMPDEST PUSH0 PUSH1 0x20 DUP3 ADD SWAP1 POP DUP2 DUP2 SUB PUSH0 DUP4 ADD MSTORE PUSH2 0x1698 DUP2 PUSH2 0x165F JUMP JUMPDEST SWAP1 POP SWAP2 SWAP1 POP JUMP JUMPDEST PUSH32 0x4E6F7420456E6F75676820546F6B656E73000000000000000000000000000000 PUSH0 DUP3 ADD MSTORE POP JUMP JUMPDEST PUSH0 PUSH2 0x16D3 PUSH1 0x11 DUP4 PUSH2 0x1525 JUMP JUMPDEST SWAP2 POP PUSH2 0x16DE DUP3 PUSH2 0x169F JUMP JUMPDEST PUSH1 0x20 DUP3 ADD SWAP1 POP SWAP2 SWAP1 POP JUMP JUMPDEST PUSH0 PUSH1 0x20 DUP3 ADD SWAP1 POP DUP2 DUP2 SUB PUSH0 DUP4 ADD MSTORE PUSH2 0x1700 DUP2 PUSH2 0x16C7 JUMP JUMPDEST SWAP1 POP SWAP2 SWAP1 POP JUMP JUMPDEST PUSH2 0x1710 DUP2 PUSH2 0x1146 JUMP JUMPDEST DUP3 MSTORE POP POP JUMP JUMPDEST PUSH0 PUSH1 0x60 DUP3 ADD SWAP1 POP PUSH2 0x1729 PUSH0 DUP4 ADD DUP7 PUSH2 0x1707 JUMP JUMPDEST PUSH2 0x1736 PUSH1 0x20 DUP4 ADD DUP6 PUSH2 0x1707 JUMP JUMPDEST PUSH2 0x1743 PUSH1 0x40 DUP4 ADD DUP5 PUSH2 0x11AC JUMP JUMPDEST SWAP5 SWAP4 POP POP POP POP JUMP JUMPDEST PUSH2 0x1754 DUP2 PUSH2 0x156D JUMP JUMPDEST DUP2 EQ PUSH2 0x175E JUMPI PUSH0 PUSH0 REVERT JUMPDEST POP JUMP JUMPDEST PUSH0 DUP2 MLOAD SWAP1 POP PUSH2 0x176F DUP2 PUSH2 0x174B JUMP JUMPDEST SWAP3 SWAP2 POP POP JUMP JUMPDEST PUSH0 PUSH1 0x20 DUP3 DUP5 SUB SLT ISZERO PUSH2 0x178A JUMPI PUSH2 0x1789 PUSH2 0x10C1 JUMP JUMPDEST JUMPDEST PUSH0 PUSH2 0x1797 DUP5 DUP3 DUP6 ADD PUSH2 0x1761 JUMP JUMPDEST SWAP2 POP POP SWAP3 SWAP2 POP POP JUMP JUMPDEST PUSH0 PUSH1 0x20 DUP3 ADD SWAP1 POP PUSH2 0x17B3 PUSH0 DUP4 ADD DUP5 PUSH2 0x1707 JUMP JUMPDEST SWAP3 SWAP2 POP POP JUMP JUMPDEST PUSH0 DUP2 MLOAD SWAP1 POP PUSH2 0x17C7 DUP2 PUSH2 0x10D2 JUMP JUMPDEST SWAP3 SWAP2 POP POP JUMP JUMPDEST PUSH0 PUSH1 0x20 DUP3 DUP5 SUB SLT ISZERO PUSH2 0x17E2 JUMPI PUSH2 0x17E1 PUSH2 0x10C1 JUMP JUMPDEST JUMPDEST PUSH0 PUSH2 0x17EF DUP5 DUP3 DUP6 ADD PUSH2 0x17B9 JUMP JUMPDEST SWAP2 POP POP SWAP3 SWAP2 POP POP JUMP JUMPDEST PUSH32 0x4E487B7100000000000000000000000000000000000000000000000000000000 PUSH0 MSTORE PUSH1 0x22 PUSH1 0x4 MSTORE PUSH1 0x24 PUSH0 REVERT JUMPDEST PUSH0 PUSH1 0x2 DUP3 DIV SWAP1 POP PUSH1 0x1 DUP3 AND DUP1 PUSH2 0x183C JUMPI PUSH1 0x7F DUP3 AND SWAP2 POP JUMPDEST PUSH1 0x20 DUP3 LT DUP2 SUB PUSH2 0x184F JUMPI PUSH2 0x184E PUSH2 0x17F8 JUMP JUMPDEST JUMPDEST POP SWAP2 SWAP1 POP JUMP JUMPDEST PUSH32 0x4F6E6C79204F776E657200000000000000000000000000000000000000000000 PUSH0 DUP3 ADD MSTORE POP JUMP JUMPDEST PUSH0 PUSH2 0x1889 PUSH1 0xA DUP4 PUSH2 0x1525 JUMP JUMPDEST SWAP2 POP PUSH2 0x1894 DUP3 PUSH2 0x1855 JUMP JUMPDEST PUSH1 0x20 DUP3 ADD SWAP1 POP SWAP2 SWAP1 POP JUMP JUMPDEST PUSH0 PUSH1 0x20 DUP3 ADD SWAP1 POP DUP2 DUP2 SUB PUSH0 DUP4 ADD MSTORE PUSH2 0x18B6 DUP2 PUSH2 0x187D JUMP JUMPDEST SWAP1 POP SWAP2 SWAP1 POP JUMP JUMPDEST PUSH0 DUP2 SWAP1 POP SWAP3 SWAP2 POP POP JUMP JUMPDEST PUSH0 PUSH2 0x18D1 DUP3 PUSH2 0x11FD JUMP JUMPDEST PUSH2 0x18DB DUP2 DUP6 PUSH2 0x18BD JUMP JUMPDEST SWAP4 POP PUSH2 0x18EB DUP2 DUP6 PUSH1 0x20 DUP7 ADD PUSH2 0x1217 JUMP JUMPDEST DUP1 DUP5 ADD SWAP2 POP POP SWAP3 SWAP2 POP POP JUMP JUMPDEST PUSH0 PUSH2 0x1902 DUP3 DUP5 PUSH2 0x18C7 JUMP JUMPDEST SWAP2 POP DUP2 SWAP1 POP SWAP3 SWAP2 POP POP JUMP JUMPDEST PUSH0 DUP2 SWAP1 POP DUP2 PUSH0 MSTORE PUSH1 0x20 PUSH0 KECCAK256 SWAP1 POP SWAP2 SWAP1 POP JUMP JUMPDEST PUSH0 PUSH1 0x20 PUSH1 0x1F DUP4 ADD DIV SWAP1 POP SWAP2 SWAP1 POP JUMP JUMPDEST PUSH0 DUP3 DUP3 SHL SWAP1 POP SWAP3 SWAP2 POP POP JUMP JUMPDEST PUSH0 PUSH1 0x8 DUP4 MUL PUSH2 0x1969 PUSH32 0xFFFFFFFFFFFFFFFFFFFFFFFFFFFFFFFFFFFFFFFFFFFFFFFFFFFFFFFFFFFFFFFF DUP3 PUSH2 0x192E JUMP JUMPDEST PUSH2 0x1973 DUP7 DUP4 PUSH2 0x192E JUMP JUMPDEST SWAP6 POP DUP1 NOT DUP5 AND SWAP4 POP DUP1 DUP7 AND DUP5 OR SWAP3 POP POP POP SWAP4 SWAP3 POP POP POP JUMP JUMPDEST PUSH0 PUSH2 0x19A5 PUSH2 0x19A0 PUSH2 0x199B DUP5 PUSH2 0x10C9 JUMP JUMPDEST PUSH2 0x15C3 JUMP JUMPDEST PUSH2 0x10C9 JUMP JUMPDEST SWAP1 POP SWAP2 SWAP1 POP JUMP JUMPDEST PUSH0 DUP2 SWAP1 POP SWAP2 SWAP1 POP JUMP JUMPDEST PUSH2 0x19BE DUP4 PUSH2 0x198B JUMP JUMPDEST PUSH2 0x19D2 PUSH2 0x19CA DUP3 PUSH2 0x19AC JUMP JUMPDEST DUP5 DUP5 SLOAD PUSH2 0x193A JUMP JUMPDEST DUP3 SSTORE POP POP POP POP JUMP JUMPDEST PUSH0 PUSH0 SWAP1 POP SWAP1 JUMP JUMPDEST PUSH2 0x19E9 PUSH2 0x19DA JUMP JUMPDEST PUSH2 0x19F4 DUP2 DUP5 DUP5 PUSH2 0x19B5 JUMP JUMPDEST POP POP POP JUMP JUMPDEST JUMPDEST DUP2 DUP2 LT ISZERO PUSH2 0x1A17 JUMPI PUSH2 0x1A0C PUSH0 DUP3 PUSH2 0x19E1 JUMP JUMPDEST PUSH1 0x1 DUP2 ADD SWAP1 POP PUSH2 0x19FA JUMP JUMPDEST POP POP JUMP JUMPDEST PUSH1 0x1F DUP3 GT ISZERO PUSH2 0x1A5C JUMPI PUSH2 0x1A2D DUP2 PUSH2 0x190D JUMP JUMPDEST PUSH2 0x1A36 DUP5 PUSH2 0x191F JUMP JUMPDEST DUP2 ADD PUSH1 0x20 DUP6 LT ISZERO PUSH2 0x1A45 JUMPI DUP2 SWAP1 POP JUMPDEST PUSH2 0x1A59 PUSH2 0x1A51 DUP6 PUSH2 0x191F JUMP JUMPDEST DUP4 ADD DUP3 PUSH2 0x19F9 JUMP JUMPDEST POP POP JUMPDEST POP POP POP JUMP JUMPDEST PUSH0 DUP3 DUP3 SHR SWAP1 POP SWAP3 SWAP2 POP POP JUMP JUMPDEST PUSH0 PUSH2 0x1A7C PUSH0 NOT DUP5 PUSH1 0x8 MUL PUSH2 0x1A61 JUMP JUMPDEST NOT DUP1 DUP4 AND SWAP2 POP POP SWAP3 SWAP2 POP POP JUMP JUMPDEST PUSH0 PUSH2 0x1A94 DUP4 DUP4 PUSH2 0x1A6D JUMP JUMPDEST SWAP2 POP DUP3 PUSH1 0x2 MUL DUP3 OR SWAP1 POP SWAP3 SWAP2 POP POP JUMP JUMPDEST PUSH2 0x1AAD DUP3 PUSH2 0x11FD JUMP JUMPDEST PUSH8 0xFFFFFFFFFFFFFFFF DUP2 GT ISZERO PUSH2 0x1AC6 JUMPI PUSH2 0x1AC5 PUSH2 0x1327 JUMP JUMPDEST JUMPDEST PUSH2 0x1AD0 DUP3 SLOAD PUSH2 0x1825 JUMP JUMPDEST PUSH2 0x1ADB DUP3 DUP3 DUP6 PUSH2 0x1A1B JUMP JUMPDEST PUSH0 PUSH1 0x20 SWAP1 POP PUSH1 0x1F DUP4 GT PUSH1 0x1 DUP2 EQ PUSH2 0x1B0C JUMPI PUSH0 DUP5 ISZERO PUSH2 0x1AFA JUMPI DUP3 DUP8 ADD MLOAD SWAP1 POP JUMPDEST PUSH2 0x1B04 DUP6 DUP3 PUSH2 0x1A89 JUMP JUMPDEST DUP7 SSTORE POP PUSH2 0x1B6B JUMP JUMPDEST PUSH1 0x1F NOT DUP5 AND PUSH2 0x1B1A DUP7 PUSH2 0x190D JUMP JUMPDEST PUSH0 JUMPDEST DUP3 DUP2 LT ISZERO PUSH2 0x1B41 JUMPI DUP5 DUP10 ADD MLOAD DUP3 SSTORE PUSH1 0x1 DUP3 ADD SWAP2 POP PUSH1 0x20 DUP6 ADD SWAP5 POP PUSH1 0x20 DUP2 ADD SWAP1 POP PUSH2 0x1B1C JUMP JUMPDEST DUP7 DUP4 LT ISZERO PUSH2 0x1B5E JUMPI DUP5 DUP10 ADD MLOAD PUSH2 0x1B5A PUSH1 0x1F DUP10 AND DUP3 PUSH2 0x1A6D JUMP JUMPDEST DUP4 SSTORE POP JUMPDEST PUSH1 0x1 PUSH1 0x2 DUP9 MUL ADD DUP9 SSTORE POP POP POP JUMPDEST POP POP POP POP POP POP JUMP JUMPDEST PUSH0 PUSH1 0x40 DUP3 ADD SWAP1 POP DUP2 DUP2 SUB PUSH0 DUP4 ADD MSTORE PUSH2 0x1B8B DUP2 DUP6 PUSH2 0x1535 JUMP JUMPDEST SWAP1 POP PUSH2 0x1B9A PUSH1 0x20 DUP4 ADD DUP5 PUSH2 0x11AC JUMP JUMPDEST SWAP4 SWAP3 POP POP POP JUMP JUMPDEST PUSH0 PUSH1 0x20 DUP3 ADD SWAP1 POP DUP2 DUP2 SUB PUSH0 DUP4 ADD MSTORE PUSH2 0x1BB9 DUP2 DUP5 PUSH2 0x1535 JUMP JUMPDEST SWAP1 POP SWAP3 SWAP2 POP POP JUMP JUMPDEST PUSH32 0x496E73756666696369656E742046756E64730000000000000000000000000000 PUSH0 DUP3 ADD MSTORE POP JUMP JUMPDEST PUSH0 PUSH2 0x1BF5 PUSH1 0x12 DUP4 PUSH2 0x1525 JUMP JUMPDEST SWAP2 POP PUSH2 0x1C00 DUP3 PUSH2 0x1BC1 JUMP JUMPDEST PUSH1 0x20 DUP3 ADD SWAP1 POP SWAP2 SWAP1 POP JUMP JUMPDEST PUSH0 PUSH1 0x20 DUP3 ADD SWAP1 POP DUP2 DUP2 SUB PUSH0 DUP4 ADD MSTORE PUSH2 0x1C22 DUP2 PUSH2 0x1BE9 JUMP JUMPDEST SWAP1 POP SWAP2 SWAP1 POP JUMP JUMPDEST PUSH32 0x4E487B7100000000000000000000000000000000000000000000000000000000 PUSH0 MSTORE PUSH1 0x11 PUSH1 0x4 MSTORE PUSH1 0x24 PUSH0 REVERT JUMPDEST PUSH0 PUSH2 0x1C60 DUP3 PUSH2 0x10C9 JUMP JUMPDEST SWAP2 POP PUSH2 0x1C6B DUP4 PUSH2 0x10C9 JUMP JUMPDEST SWAP3 POP DUP3 DUP3 SUB SWAP1 POP DUP2 DUP2 GT ISZERO PUSH2 0x1C83 JUMPI PUSH2 0x1C82 PUSH2 0x1C29 JUMP JUMPDEST JUMPDEST SWAP3 SWAP2 POP POP JUMP JUMPDEST PUSH0 PUSH1 0x40 DUP3 ADD SWAP1 POP PUSH2 0x1C9C PUSH0 DUP4 ADD DUP6 PUSH2 0x1707 JUMP JUMPDEST PUSH2 0x1CA9 PUSH1 0x20 DUP4 ADD DUP5 PUSH2 0x11AC JUMP JUMPDEST SWAP4 SWAP3 POP POP POP JUMP JUMPDEST PUSH0 PUSH2 0x1CBA DUP3 PUSH2 0x10C9 JUMP JUMPDEST SWAP2 POP PUSH2 0x1CC5 DUP4 PUSH2 0x10C9 JUMP JUMPDEST SWAP3 POP DUP3 DUP3 ADD SWAP1 POP DUP1 DUP3 GT ISZERO PUSH2 0x1CDD JUMPI PUSH2 0x1CDC PUSH2 0x1C29 JUMP JUMPDEST JUMPDEST SWAP3 SWAP2 POP POP JUMP JUMPDEST PUSH32 0x41747472616374696F206E6F7420656E61626C65640000000000000000000000 PUSH0 DUP3 ADD MSTORE POP JUMP JUMPDEST PUSH0 PUSH2 0x1D17 PUSH1 0x15 DUP4 PUSH2 0x1525 JUMP JUMPDEST SWAP2 POP PUSH2 0x1D22 DUP3 PUSH2 0x1CE3 JUMP JUMPDEST PUSH1 0x20 DUP3 ADD SWAP1 POP SWAP2 SWAP1 POP JUMP JUMPDEST PUSH0 PUSH1 0x20 DUP3 ADD SWAP1 POP DUP2 DUP2 SUB PUSH0 DUP4 ADD MSTORE PUSH2 0x1D44 DUP2 PUSH2 0x1D0B JUMP JUMPDEST SWAP1 POP SWAP2 SWAP1 POP JUMP JUMPDEST PUSH32 0x596F7520646F206E6F74206861766520656E6F75676820746F6B656E73000000 PUSH0 DUP3 ADD MSTORE POP JUMP JUMPDEST PUSH0 PUSH2 0x1D7F PUSH1 0x1D DUP4 PUSH2 0x1525 JUMP JUMPDEST SWAP2 POP PUSH2 0x1D8A DUP3 PUSH2 0x1D4B JUMP JUMPDEST PUSH1 0x20 DUP3 ADD SWAP1 POP SWAP2 SWAP1 POP JUMP JUMPDEST PUSH0 PUSH1 0x20 DUP3 ADD SWAP1 POP DUP2 DUP2 SUB PUSH0 DUP4 ADD MSTORE PUSH2 0x1DAC DUP2 PUSH2 0x1D73 JUMP JUMPDEST SWAP1 POP SWAP2 SWAP1 POP JUMP JUMPDEST PUSH0 PUSH2 0x1DBD DUP3 PUSH2 0x10C9 JUMP JUMPDEST SWAP2 POP PUSH2 0x1DC8 DUP4 PUSH2 0x10C9 JUMP JUMPDEST SWAP3 POP DUP3 DUP3 MUL PUSH2 0x1DD6 DUP2 PUSH2 0x10C9 JUMP JUMPDEST SWAP2 POP DUP3 DUP3 DIV DUP5 EQ DUP4 ISZERO OR PUSH2 0x1DED JUMPI PUSH2 0x1DEC PUSH2 0x1C29 JUMP JUMPDEST JUMPDEST POP SWAP3 SWAP2 POP POP JUMP INVALID LOG2 PUSH5 0x6970667358 0x22 SLT KECCAK256 MOD MULMOD 0xC3 GT 0xEB 0xD 0xAB RJUMP 0x8391 ISZERO REVERT PUSH6 0x8ADA6E9F1C31 RETURNDATASIZE 0xC3 SWAP13 AND SGT 0xCE PUSH32 0xA6913FEC73D064736F6C634300081E00336080604052348015600E575F5FFD5B POP PUSH1 0x40 MLOAD PUSH2 0x11E0 CODESIZE SUB DUP1 PUSH2 0x11E0 DUP4 CODECOPY DUP2 DUP2 ADD PUSH1 0x40 MSTORE DUP2 ADD SWAP1 PUSH1 0x2E SWAP2 SWAP1 PUSH1 0xAF JUMP JUMPDEST DUP1 PUSH1 0x2 DUP2 SWAP1 SSTORE POP PUSH1 0x2 SLOAD PUSH0 PUSH0 CALLER PUSH20 0xFFFFFFFFFFFFFFFFFFFFFFFFFFFFFFFFFFFFFFFF AND PUSH20 0xFFFFFFFFFFFFFFFFFFFFFFFFFFFFFFFFFFFFFFFF AND DUP2 MSTORE PUSH1 0x20 ADD SWAP1 DUP2 MSTORE PUSH1 0x20 ADD PUSH0 KECCAK256 DUP2 SWAP1 SSTORE POP POP PUSH1 0xD5 JUMP JUMPDEST PUSH0 PUSH0 REVERT JUMPDEST PUSH0 DUP2 SWAP1 POP SWAP2 SWAP1 POP JUMP JUMPDEST PUSH1 0x91 DUP2 PUSH1 0x81 JUMP JUMPDEST DUP2 EQ PUSH1 0x9A JUMPI PUSH0 PUSH0 REVERT JUMPDEST POP JUMP JUMPDEST PUSH0 DUP2 MLOAD SWAP1 POP PUSH1 0xA9 DUP2 PUSH1 0x8A JUMP JUMPDEST SWAP3 SWAP2 POP POP JUMP JUMPDEST PUSH0 PUSH1 0x20 DUP3 DUP5 SUB SLT ISZERO PUSH1 0xC1 JUMPI PUSH1 0xC0 PUSH1 0x7D JUMP JUMPDEST JUMPDEST PUSH0 PUSH1 0xCC DUP5 DUP3 DUP6 ADD PUSH1 0x9D JUMP JUMPDEST SWAP2 POP POP SWAP3 SWAP2 POP POP JUMP JUMPDEST PUSH2 0x10FE DUP1 PUSH2 0xE2 PUSH0 CODECOPY PUSH0 RETURN INVALID PUSH1 0x80 PUSH1 0x40 MSTORE CALLVALUE DUP1 ISZERO PUSH2 0xF JUMPI PUSH0 PUSH0 REVERT JUMPDEST POP PUSH1 0x4 CALLDATASIZE LT PUSH2 0xA7 JUMPI PUSH0 CALLDATALOAD PUSH1 0xE0 SHR DUP1 PUSH4 0x313CE567 GT PUSH2 0x6F JUMPI DUP1 PUSH4 0x313CE567 EQ PUSH2 0x163 JUMPI DUP1 PUSH4 0x70A08231 EQ PUSH2 0x181 JUMPI DUP1 PUSH4 0x95D89B41 EQ PUSH2 0x1B1 JUMPI DUP1 PUSH4 0xA9059CBB EQ PUSH2 0x1CF JUMPI DUP1 PUSH4 0xD44237AA EQ PUSH2 0x1FF JUMPI DUP1 PUSH4 0xDD62ED3E EQ PUSH2 0x22F JUMPI PUSH2 0xA7 JUMP JUMPDEST DUP1 PUSH4 0x6FDDE03 EQ PUSH2 0xAB JUMPI DUP1 PUSH4 0x95EA7B3 EQ PUSH2 0xC9 JUMPI DUP1 PUSH4 0x18160DDD EQ PUSH2 0xF9 JUMPI DUP1 PUSH4 0x1D43CC98 EQ PUSH2 0x117 JUMPI DUP1 PUSH4 0x23B872DD EQ PUSH2 0x133 JUMPI JUMPDEST PUSH0 PUSH0 REVERT JUMPDEST PUSH2 0xB3 PUSH2 0x25F JUMP JUMPDEST PUSH1 0x40 MLOAD PUSH2 0xC0 SWAP2 SWAP1 PUSH2 0xD3E JUMP JUMPDEST PUSH1 0x40 MLOAD DUP1 SWAP2 SUB SWAP1 RETURN JUMPDEST PUSH2 0xE3 PUSH1 0x4 DUP1 CALLDATASIZE SUB DUP2 ADD SWAP1 PUSH2 0xDE SWAP2 SWAP1 PUSH2 0xDEF JUMP JUMPDEST PUSH2 0x298 JUMP JUMPDEST PUSH1 0x40 MLOAD PUSH2 0xF0 SWAP2 SWAP1 PUSH2 0xE47 JUMP JUMPDEST PUSH1 0x40 MLOAD DUP1 SWAP2 SUB SWAP1 RETURN JUMPDEST PUSH2 0x101 PUSH2 0x385 JUMP JUMPDEST PUSH1 0x40 MLOAD PUSH2 0x10E SWAP2 SWAP1 PUSH2 0xE6F JUMP JUMPDEST PUSH1 0x40 MLOAD DUP1 SWAP2 SUB SWAP1 RETURN JUMPDEST PUSH2 0x131 PUSH1 0x4 DUP1 CALLDATASIZE SUB DUP2 ADD SWAP1 PUSH2 0x12C SWAP2 SWAP1 PUSH2 0xE88 JUMP JUMPDEST PUSH2 0x38E JUMP JUMPDEST STOP JUMPDEST PUSH2 0x14D PUSH1 0x4 DUP1 CALLDATASIZE SUB DUP2 ADD SWAP1 PUSH2 0x148 SWAP2 SWAP1 PUSH2 0xEB3 JUMP JUMPDEST PUSH2 0x3FB JUMP JUMPDEST PUSH1 0x40 MLOAD PUSH2 0x15A SWAP2 SWAP1 PUSH2 0xE47 JUMP JUMPDEST PUSH1 0x40 MLOAD DUP1 SWAP2 SUB SWAP1 RETURN JUMPDEST PUSH2 0x16B PUSH2 0x75D JUMP JUMPDEST PUSH1 0x40 MLOAD PUSH2 0x178 SWAP2 SWAP1 PUSH2 0xF1E JUMP JUMPDEST PUSH1 0x40 MLOAD DUP1 SWAP2 SUB SWAP1 RETURN JUMPDEST PUSH2 0x19B PUSH1 0x4 DUP1 CALLDATASIZE SUB DUP2 ADD SWAP1 PUSH2 0x196 SWAP2 SWAP1 PUSH2 0xF37 JUMP JUMPDEST PUSH2 0x762 JUMP JUMPDEST PUSH1 0x40 MLOAD PUSH2 0x1A8 SWAP2 SWAP1 PUSH2 0xE6F JUMP JUMPDEST PUSH1 0x40 MLOAD DUP1 SWAP2 SUB SWAP1 RETURN JUMPDEST PUSH2 0x1B9 PUSH2 0x7A7 JUMP JUMPDEST PUSH1 0x40 MLOAD PUSH2 0x1C6 SWAP2 SWAP1 PUSH2 0xD3E JUMP JUMPDEST PUSH1 0x40 MLOAD DUP1 SWAP2 SUB SWAP1 RETURN JUMPDEST PUSH2 0x1E9 PUSH1 0x4 DUP1 CALLDATASIZE SUB DUP2 ADD SWAP1 PUSH2 0x1E4 SWAP2 SWAP1 PUSH2 0xDEF JUMP JUMPDEST PUSH2 0x7E0 JUMP JUMPDEST PUSH1 0x40 MLOAD PUSH2 0x1F6 SWAP2 SWAP1 PUSH2 0xE47 JUMP JUMPDEST PUSH1 0x40 MLOAD DUP1 SWAP2 SUB SWAP1 RETURN JUMPDEST PUSH2 0x219 PUSH1 0x4 DUP1 CALLDATASIZE SUB DUP2 ADD SWAP1 PUSH2 0x214 SWAP2 SWAP1 PUSH2 0xEB3 JUMP JUMPDEST PUSH2 0x9ED JUMP JUMPDEST PUSH1 0x40 MLOAD PUSH2 0x226 SWAP2 SWAP1 PUSH2 0xE47 JUMP JUMPDEST PUSH1 0x40 MLOAD DUP1 SWAP2 SUB SWAP1 RETURN JUMPDEST PUSH2 0x249 PUSH1 0x4 DUP1 CALLDATASIZE SUB DUP2 ADD SWAP1 PUSH2 0x244 SWAP2 SWAP1 PUSH2 0xF62 JUMP JUMPDEST PUSH2 0xBFB JUMP JUMPDEST PUSH1 0x40 MLOAD PUSH2 0x256 SWAP2 SWAP1 PUSH2 0xE6F JUMP JUMPDEST PUSH1 0x40 MLOAD DUP1 SWAP2 SUB SWAP1 RETURN JUMPDEST PUSH1 0x40 MLOAD DUP1 PUSH1 0x40 ADD PUSH1 0x40 MSTORE DUP1 PUSH1 0xF DUP2 MSTORE PUSH1 0x20 ADD PUSH32 0x45524332304A6F737565436861696E0000000000000000000000000000000000 DUP2 MSTORE POP DUP2 JUMP JUMPDEST PUSH0 DUP2 PUSH1 0x1 PUSH0 CALLER PUSH20 0xFFFFFFFFFFFFFFFFFFFFFFFFFFFFFFFFFFFFFFFF AND PUSH20 0xFFFFFFFFFFFFFFFFFFFFFFFFFFFFFFFFFFFFFFFF AND DUP2 MSTORE PUSH1 0x20 ADD SWAP1 DUP2 MSTORE PUSH1 0x20 ADD PUSH0 KECCAK256 PUSH0 DUP6 PUSH20 0xFFFFFFFFFFFFFFFFFFFFFFFFFFFFFFFFFFFFFFFF AND PUSH20 0xFFFFFFFFFFFFFFFFFFFFFFFFFFFFFFFFFFFFFFFF AND DUP2 MSTORE PUSH1 0x20 ADD SWAP1 DUP2 MSTORE PUSH1 0x20 ADD PUSH0 KECCAK256 DUP2 SWAP1 SSTORE POP DUP3 PUSH20 0xFFFFFFFFFFFFFFFFFFFFFFFFFFFFFFFFFFFFFFFF AND CALLER PUSH20 0xFFFFFFFFFFFFFFFFFFFFFFFFFFFFFFFFFFFFFFFF AND PUSH32 0xD04C27822ED43674489D02367B63F0C5D0B6B232088B6515B73D546217B3457D DUP5 PUSH1 0x40 MLOAD PUSH2 0x373 SWAP2 SWAP1 PUSH2 0xE6F JUMP JUMPDEST PUSH1 0x40 MLOAD DUP1 SWAP2 SUB SWAP1 LOG3 PUSH1 0x1 SWAP1 POP SWAP3 SWAP2 POP POP JUMP JUMPDEST PUSH0 PUSH1 0x2 SLOAD SWAP1 POP SWAP1 JUMP JUMPDEST DUP1 PUSH1 0x2 PUSH0 DUP3 DUP3 SLOAD PUSH2 0x39F SWAP2 SWAP1 PUSH2 0xFCD JUMP JUMPDEST SWAP3 POP POP DUP2 SWAP1 SSTORE POP DUP1 PUSH0 PUSH0 CALLER PUSH20 0xFFFFFFFFFFFFFFFFFFFFFFFFFFFFFFFFFFFFFFFF AND PUSH20 0xFFFFFFFFFFFFFFFFFFFFFFFFFFFFFFFFFFFFFFFF AND DUP2 MSTORE PUSH1 0x20 ADD SWAP1 DUP2 MSTORE PUSH1 0x20 ADD PUSH0 KECCAK256 PUSH0 DUP3 DUP3 SLOAD PUSH2 0x3F1 SWAP2 SWAP1 PUSH2 0xFCD JUMP JUMPDEST SWAP3 POP POP DUP2 SWAP1 SSTORE POP POP JUMP JUMPDEST PUSH0 PUSH0 PUSH0 DUP6 PUSH20 0xFFFFFFFFFFFFFFFFFFFFFFFFFFFFFFFFFFFFFFFF AND PUSH20 0xFFFFFFFFFFFFFFFFFFFFFFFFFFFFFFFFFFFFFFFF AND DUP2 MSTORE PUSH1 0x20 ADD SWAP1 DUP2 MSTORE PUSH1 0x20 ADD PUSH0 KECCAK256 SLOAD DUP3 GT ISZERO PUSH2 0x444 JUMPI PUSH0 PUSH0 REVERT JUMPDEST PUSH1 0x1 PUSH0 DUP6 PUSH20 0xFFFFFFFFFFFFFFFFFFFFFFFFFFFFFFFFFFFFFFFF AND PUSH20 0xFFFFFFFFFFFFFFFFFFFFFFFFFFFFFFFFFFFFFFFF AND DUP2 MSTORE PUSH1 0x20 ADD SWAP1 DUP2 MSTORE PUSH1 0x20 ADD PUSH0 KECCAK256 PUSH0 CALLER PUSH20 0xFFFFFFFFFFFFFFFFFFFFFFFFFFFFFFFFFFFFFFFF AND PUSH20 0xFFFFFFFFFFFFFFFFFFFFFFFFFFFFFFFFFFFFFFFF AND DUP2 MSTORE PUSH1 0x20 ADD SWAP1 DUP2 MSTORE PUSH1 0x20 ADD PUSH0 KECCAK256 SLOAD DUP3 GT ISZERO PUSH2 0x4C8 JUMPI PUSH0 PUSH0 REVERT JUMPDEST PUSH2 0x517 DUP3 PUSH0 PUSH0 DUP8 PUSH20 0xFFFFFFFFFFFFFFFFFFFFFFFFFFFFFFFFFFFFFFFF AND PUSH20 0xFFFFFFFFFFFFFFFFFFFFFFFFFFFFFFFFFFFFFFFF AND DUP2 MSTORE PUSH1 0x20 ADD SWAP1 DUP2 MSTORE PUSH1 0x20 ADD PUSH0 KECCAK256 SLOAD PUSH2 0xC7D SWAP1 SWAP2 SWAP1 PUSH4 0xFFFFFFFF AND JUMP JUMPDEST PUSH0 PUSH0 DUP7 PUSH20 0xFFFFFFFFFFFFFFFFFFFFFFFFFFFFFFFFFFFFFFFF AND PUSH20 0xFFFFFFFFFFFFFFFFFFFFFFFFFFFFFFFFFFFFFFFF AND DUP2 MSTORE PUSH1 0x20 ADD SWAP1 DUP2 MSTORE PUSH1 0x20 ADD PUSH0 KECCAK256 DUP2 SWAP1 SSTORE POP PUSH2 0x5E2 DUP3 PUSH1 0x1 PUSH0 DUP8 PUSH20 0xFFFFFFFFFFFFFFFFFFFFFFFFFFFFFFFFFFFFFFFF AND PUSH20 0xFFFFFFFFFFFFFFFFFFFFFFFFFFFFFFFFFFFFFFFF AND DUP2 MSTORE PUSH1 0x20 ADD SWAP1 DUP2 MSTORE PUSH1 0x20 ADD PUSH0 KECCAK256 PUSH0 CALLER PUSH20 0xFFFFFFFFFFFFFFFFFFFFFFFFFFFFFFFFFFFFFFFF AND PUSH20 0xFFFFFFFFFFFFFFFFFFFFFFFFFFFFFFFFFFFFFFFF AND DUP2 MSTORE PUSH1 0x20 ADD SWAP1 DUP2 MSTORE PUSH1 0x20 ADD PUSH0 KECCAK256 SLOAD PUSH2 0xC7D SWAP1 SWAP2 SWAP1 PUSH4 0xFFFFFFFF AND JUMP JUMPDEST PUSH1 0x1 PUSH0 DUP7 PUSH20 0xFFFFFFFFFFFFFFFFFFFFFFFFFFFFFFFFFFFFFFFF AND PUSH20 0xFFFFFFFFFFFFFFFFFFFFFFFFFFFFFFFFFFFFFFFF AND DUP2 MSTORE PUSH1 0x20 ADD SWAP1 DUP2 MSTORE PUSH1 0x20 ADD PUSH0 KECCAK256 PUSH0 CALLER PUSH20 0xFFFFFFFFFFFFFFFFFFFFFFFFFFFFFFFFFFFFFFFF AND PUSH20 0xFFFFFFFFFFFFFFFFFFFFFFFFFFFFFFFFFFFFFFFF AND DUP2 MSTORE PUSH1 0x20 ADD SWAP1 DUP2 MSTORE PUSH1 0x20 ADD PUSH0 KECCAK256 DUP2 SWAP1 SSTORE POP PUSH2 0x6AD DUP3 PUSH0 PUSH0 DUP7 PUSH20 0xFFFFFFFFFFFFFFFFFFFFFFFFFFFFFFFFFFFFFFFF AND PUSH20 0xFFFFFFFFFFFFFFFFFFFFFFFFFFFFFFFFFFFFFFFF AND DUP2 MSTORE PUSH1 0x20 ADD SWAP1 DUP2 MSTORE PUSH1 0x20 ADD PUSH0 KECCAK256 SLOAD PUSH2 0xCA3 SWAP1 SWAP2 SWAP1 PUSH4 0xFFFFFFFF AND JUMP JUMPDEST PUSH0 PUSH0 DUP6 PUSH20 0xFFFFFFFFFFFFFFFFFFFFFFFFFFFFFFFFFFFFFFFF AND PUSH20 0xFFFFFFFFFFFFFFFFFFFFFFFFFFFFFFFFFFFFFFFF AND DUP2 MSTORE PUSH1 0x20 ADD SWAP1 DUP2 MSTORE PUSH1 0x20 ADD PUSH0 KECCAK256 DUP2 SWAP1 SSTORE POP DUP3 PUSH20 0xFFFFFFFFFFFFFFFFFFFFFFFFFFFFFFFFFFFFFFFF AND DUP5 PUSH20 0xFFFFFFFFFFFFFFFFFFFFFFFFFFFFFFFFFFFFFFFF AND PUSH32 0x5D439CF3A1F6215B41908E5B0B300F39679A3FF1CC010691C1D4EC4D0E2A4EBB DUP5 PUSH1 0x40 MLOAD PUSH2 0x74A SWAP2 SWAP1 PUSH2 0xE6F JUMP JUMPDEST PUSH1 0x40 MLOAD DUP1 SWAP2 SUB SWAP1 LOG3 PUSH1 0x1 SWAP1 POP SWAP4 SWAP3 POP POP POP JUMP JUMPDEST PUSH1 0x2 DUP2 JUMP JUMPDEST PUSH0 PUSH0 PUSH0 DUP4 PUSH20 0xFFFFFFFFFFFFFFFFFFFFFFFFFFFFFFFFFFFFFFFF AND PUSH20 0xFFFFFFFFFFFFFFFFFFFFFFFFFFFFFFFFFFFFFFFF AND DUP2 MSTORE PUSH1 0x20 ADD SWAP1 DUP2 MSTORE PUSH1 0x20 ADD PUSH0 KECCAK256 SLOAD SWAP1 POP SWAP2 SWAP1 POP JUMP JUMPDEST PUSH1 0x40 MLOAD DUP1 PUSH1 0x40 ADD PUSH1 0x40 MSTORE DUP1 PUSH1 0x5 DUP2 MSTORE PUSH1 0x20 ADD PUSH32 0x4554484A43000000000000000000000000000000000000000000000000000000 DUP2 MSTORE POP DUP2 JUMP JUMPDEST PUSH0 PUSH0 PUSH0 CALLER PUSH20 0xFFFFFFFFFFFFFFFFFFFFFFFFFFFFFFFFFFFFFFFF AND PUSH20 0xFFFFFFFFFFFFFFFFFFFFFFFFFFFFFFFFFFFFFFFF AND DUP2 MSTORE PUSH1 0x20 ADD SWAP1 DUP2 MSTORE PUSH1 0x20 ADD PUSH0 KECCAK256 SLOAD DUP3 GT ISZERO PUSH2 0x860 JUMPI PUSH1 0x40 MLOAD PUSH32 0x8C379A000000000000000000000000000000000000000000000000000000000 DUP2 MSTORE PUSH1 0x4 ADD PUSH2 0x857 SWAP1 PUSH2 0x104A JUMP JUMPDEST PUSH1 0x40 MLOAD DUP1 SWAP2 SUB SWAP1 REVERT JUMPDEST PUSH2 0x8AF DUP3 PUSH0 PUSH0 CALLER PUSH20 0xFFFFFFFFFFFFFFFFFFFFFFFFFFFFFFFFFFFFFFFF AND PUSH20 0xFFFFFFFFFFFFFFFFFFFFFFFFFFFFFFFFFFFFFFFF AND DUP2 MSTORE PUSH1 0x20 ADD SWAP1 DUP2 MSTORE PUSH1 0x20 ADD PUSH0 KECCAK256 SLOAD PUSH2 0xC7D SWAP1 SWAP2 SWAP1 PUSH4 0xFFFFFFFF AND JUMP JUMPDEST PUSH0 PUSH0 CALLER PUSH20 0xFFFFFFFFFFFFFFFFFFFFFFFFFFFFFFFFFFFFFFFF AND PUSH20 0xFFFFFFFFFFFFFFFFFFFFFFFFFFFFFFFFFFFFFFFF AND DUP2 MSTORE PUSH1 0x20 ADD SWAP1 DUP2 MSTORE PUSH1 0x20 ADD PUSH0 KECCAK256 DUP2 SWAP1 SSTORE POP PUSH2 0x93E DUP3 PUSH0 PUSH0 DUP7 PUSH20 0xFFFFFFFFFFFFFFFFFFFFFFFFFFFFFFFFFFFFFFFF AND PUSH20 0xFFFFFFFFFFFFFFFFFFFFFFFFFFFFFFFFFFFFFFFF AND DUP2 MSTORE PUSH1 0x20 ADD SWAP1 DUP2 MSTORE PUSH1 0x20 ADD PUSH0 KECCAK256 SLOAD PUSH2 0xCA3 SWAP1 SWAP2 SWAP1 PUSH4 0xFFFFFFFF AND JUMP JUMPDEST PUSH0 PUSH0 DUP6 PUSH20 0xFFFFFFFFFFFFFFFFFFFFFFFFFFFFFFFFFFFFFFFF AND PUSH20 0xFFFFFFFFFFFFFFFFFFFFFFFFFFFFFFFFFFFFFFFF AND DUP2 MSTORE PUSH1 0x20 ADD SWAP1 DUP2 MSTORE PUSH1 0x20 ADD PUSH0 KECCAK256 DUP2 SWAP1 SSTORE POP DUP3 PUSH20 0xFFFFFFFFFFFFFFFFFFFFFFFFFFFFFFFFFFFFFFFF AND CALLER PUSH20 0xFFFFFFFFFFFFFFFFFFFFFFFFFFFFFFFFFFFFFFFF AND PUSH32 0x5D439CF3A1F6215B41908E5B0B300F39679A3FF1CC010691C1D4EC4D0E2A4EBB DUP5 PUSH1 0x40 MLOAD PUSH2 0x9DB SWAP2 SWAP1 PUSH2 0xE6F JUMP JUMPDEST PUSH1 0x40 MLOAD DUP1 SWAP2 SUB SWAP1 LOG3 PUSH1 0x1 SWAP1 POP SWAP3 SWAP2 POP POP JUMP JUMPDEST PUSH0 PUSH0 PUSH0 DUP6 PUSH20 0xFFFFFFFFFFFFFFFFFFFFFFFFFFFFFFFFFFFFFFFF AND PUSH20 0xFFFFFFFFFFFFFFFFFFFFFFFFFFFFFFFFFFFFFFFF AND DUP2 MSTORE PUSH1 0x20 ADD SWAP1 DUP2 MSTORE PUSH1 0x20 ADD PUSH0 KECCAK256 SLOAD DUP3 GT ISZERO PUSH2 0xA6D JUMPI PUSH1 0x40 MLOAD PUSH32 0x8C379A000000000000000000000000000000000000000000000000000000000 DUP2 MSTORE PUSH1 0x4 ADD PUSH2 0xA64 SWAP1 PUSH2 0x104A JUMP JUMPDEST PUSH1 0x40 MLOAD DUP1 SWAP2 SUB SWAP1 REVERT JUMPDEST PUSH2 0xABC DUP3 PUSH0 PUSH0 DUP8 PUSH20 0xFFFFFFFFFFFFFFFFFFFFFFFFFFFFFFFFFFFFFFFF AND PUSH20 0xFFFFFFFFFFFFFFFFFFFFFFFFFFFFFFFFFFFFFFFF AND DUP2 MSTORE PUSH1 0x20 ADD SWAP1 DUP2 MSTORE PUSH1 0x20 ADD PUSH0 KECCAK256 SLOAD PUSH2 0xC7D SWAP1 SWAP2 SWAP1 PUSH4 0xFFFFFFFF AND JUMP JUMPDEST PUSH0 PUSH0 DUP7 PUSH20 0xFFFFFFFFFFFFFFFFFFFFFFFFFFFFFFFFFFFFFFFF AND PUSH20 0xFFFFFFFFFFFFFFFFFFFFFFFFFFFFFFFFFFFFFFFF AND DUP2 MSTORE PUSH1 0x20 ADD SWAP1 DUP2 MSTORE PUSH1 0x20 ADD PUSH0 KECCAK256 DUP2 SWAP1 SSTORE POP PUSH2 0xB4B DUP3 PUSH0 PUSH0 DUP7 PUSH20 0xFFFFFFFFFFFFFFFFFFFFFFFFFFFFFFFFFFFFFFFF AND PUSH20 0xFFFFFFFFFFFFFFFFFFFFFFFFFFFFFFFFFFFFFFFF AND DUP2 MSTORE PUSH1 0x20 ADD SWAP1 DUP2 MSTORE PUSH1 0x20 ADD PUSH0 KECCAK256 SLOAD PUSH2 0xCA3 SWAP1 SWAP2 SWAP1 PUSH4 0xFFFFFFFF AND JUMP JUMPDEST PUSH0 PUSH0 DUP6 PUSH20 0xFFFFFFFFFFFFFFFFFFFFFFFFFFFFFFFFFFFFFFFF AND PUSH20 0xFFFFFFFFFFFFFFFFFFFFFFFFFFFFFFFFFFFFFFFF AND DUP2 MSTORE PUSH1 0x20 ADD SWAP1 DUP2 MSTORE PUSH1 0x20 ADD PUSH0 KECCAK256 DUP2 SWAP1 SSTORE POP DUP3 PUSH20 0xFFFFFFFFFFFFFFFFFFFFFFFFFFFFFFFFFFFFFFFF AND DUP5 PUSH20 0xFFFFFFFFFFFFFFFFFFFFFFFFFFFFFFFFFFFFFFFF AND PUSH32 0x5D439CF3A1F6215B41908E5B0B300F39679A3FF1CC010691C1D4EC4D0E2A4EBB DUP5 PUSH1 0x40 MLOAD PUSH2 0xBE8 SWAP2 SWAP1 PUSH2 0xE6F JUMP JUMPDEST PUSH1 0x40 MLOAD DUP1 SWAP2 SUB SWAP1 LOG3 PUSH1 0x1 SWAP1 POP SWAP4 SWAP3 POP POP POP JUMP JUMPDEST PUSH0 PUSH1 0x1 PUSH0 DUP5 PUSH20 0xFFFFFFFFFFFFFFFFFFFFFFFFFFFFFFFFFFFFFFFF AND PUSH20 0xFFFFFFFFFFFFFFFFFFFFFFFFFFFFFFFFFFFFFFFF AND DUP2 MSTORE PUSH1 0x20 ADD SWAP1 DUP2 MSTORE PUSH1 0x20 ADD PUSH0 KECCAK256 PUSH0 DUP4 PUSH20 0xFFFFFFFFFFFFFFFFFFFFFFFFFFFFFFFFFFFFFFFF AND PUSH20 0xFFFFFFFFFFFFFFFFFFFFFFFFFFFFFFFFFFFFFFFF AND DUP2 MSTORE PUSH1 0x20 ADD SWAP1 DUP2 MSTORE PUSH1 0x20 ADD PUSH0 KECCAK256 SLOAD SWAP1 POP SWAP3 SWAP2 POP POP JUMP JUMPDEST PUSH0 DUP3 DUP3 GT ISZERO PUSH2 0xC8F JUMPI PUSH2 0xC8E PUSH2 0x1068 JUMP JUMPDEST JUMPDEST DUP2 DUP4 PUSH2 0xC9B SWAP2 SWAP1 PUSH2 0x1095 JUMP JUMPDEST SWAP1 POP SWAP3 SWAP2 POP POP JUMP JUMPDEST PUSH0 PUSH0 DUP3 DUP5 PUSH2 0xCB1 SWAP2 SWAP1 PUSH2 0xFCD JUMP JUMPDEST SWAP1 POP DUP4 DUP2 LT ISZERO PUSH2 0xCC4 JUMPI PUSH2 0xCC3 PUSH2 0x1068 JUMP JUMPDEST JUMPDEST DUP1 SWAP2 POP POP SWAP3 SWAP2 POP POP JUMP JUMPDEST PUSH0 DUP2 MLOAD SWAP1 POP SWAP2 SWAP1 POP JUMP JUMPDEST PUSH0 DUP3 DUP3 MSTORE PUSH1 0x20 DUP3 ADD SWAP1 POP SWAP3 SWAP2 POP POP JUMP JUMPDEST DUP3 DUP2 DUP4 MCOPY PUSH0 DUP4 DUP4 ADD MSTORE POP POP POP JUMP JUMPDEST PUSH0 PUSH1 0x1F NOT PUSH1 0x1F DUP4 ADD AND SWAP1 POP SWAP2 SWAP1 POP JUMP JUMPDEST PUSH0 PUSH2 0xD10 DUP3 PUSH2 0xCCE JUMP JUMPDEST PUSH2 0xD1A DUP2 DUP6 PUSH2 0xCD8 JUMP JUMPDEST SWAP4 POP PUSH2 0xD2A DUP2 DUP6 PUSH1 0x20 DUP7 ADD PUSH2 0xCE8 JUMP JUMPDEST PUSH2 0xD33 DUP2 PUSH2 0xCF6 JUMP JUMPDEST DUP5 ADD SWAP2 POP POP SWAP3 SWAP2 POP POP JUMP JUMPDEST PUSH0 PUSH1 0x20 DUP3 ADD SWAP1 POP DUP2 DUP2 SUB PUSH0 DUP4 ADD MSTORE PUSH2 0xD56 DUP2 DUP5 PUSH2 0xD06 JUMP JUMPDEST SWAP1 POP SWAP3 SWAP2 POP POP JUMP JUMPDEST PUSH0 PUSH0 REVERT JUMPDEST PUSH0 PUSH20 0xFFFFFFFFFFFFFFFFFFFFFFFFFFFFFFFFFFFFFFFF DUP3 AND SWAP1 POP SWAP2 SWAP1 POP JUMP JUMPDEST PUSH0 PUSH2 0xD8B DUP3 PUSH2 0xD62 JUMP JUMPDEST SWAP1 POP SWAP2 SWAP1 POP JUMP JUMPDEST PUSH2 0xD9B DUP2 PUSH2 0xD81 JUMP JUMPDEST DUP2 EQ PUSH2 0xDA5 JUMPI PUSH0 PUSH0 REVERT JUMPDEST POP JUMP JUMPDEST PUSH0 DUP2 CALLDATALOAD SWAP1 POP PUSH2 0xDB6 DUP2 PUSH2 0xD92 JUMP JUMPDEST SWAP3 SWAP2 POP POP JUMP JUMPDEST PUSH0 DUP2 SWAP1 POP SWAP2 SWAP1 POP JUMP JUMPDEST PUSH2 0xDCE DUP2 PUSH2 0xDBC JUMP JUMPDEST DUP2 EQ PUSH2 0xDD8 JUMPI PUSH0 PUSH0 REVERT JUMPDEST POP JUMP JUMPDEST PUSH0 DUP2 CALLDATALOAD SWAP1 POP PUSH2 0xDE9 DUP2 PUSH2 0xDC5 JUMP JUMPDEST SWAP3 SWAP2 POP POP JUMP JUMPDEST PUSH0 PUSH0 PUSH1 0x40 DUP4 DUP6 SUB SLT ISZERO PUSH2 0xE05 JUMPI PUSH2 0xE04 PUSH2 0xD5E JUMP JUMPDEST JUMPDEST PUSH0 PUSH2 0xE12 DUP6 DUP3 DUP7 ADD PUSH2 0xDA8 JUMP JUMPDEST SWAP3 POP POP PUSH1 0x20 PUSH2 0xE23 DUP6 DUP3 DUP7 ADD PUSH2 0xDDB JUMP JUMPDEST SWAP2 POP POP SWAP3 POP SWAP3 SWAP1 POP JUMP JUMPDEST PUSH0 DUP2 ISZERO ISZERO SWAP1 POP SWAP2 SWAP1 POP JUMP JUMPDEST PUSH2 0xE41 DUP2 PUSH2 0xE2D JUMP JUMPDEST DUP3 MSTORE POP POP JUMP JUMPDEST PUSH0 PUSH1 0x20 DUP3 ADD SWAP1 POP PUSH2 0xE5A PUSH0 DUP4 ADD DUP5 PUSH2 0xE38 JUMP JUMPDEST SWAP3 SWAP2 POP POP JUMP JUMPDEST PUSH2 0xE69 DUP2 PUSH2 0xDBC JUMP JUMPDEST DUP3 MSTORE POP POP JUMP JUMPDEST PUSH0 PUSH1 0x20 DUP3 ADD SWAP1 POP PUSH2 0xE82 PUSH0 DUP4 ADD DUP5 PUSH2 0xE60 JUMP JUMPDEST SWAP3 SWAP2 POP POP JUMP JUMPDEST PUSH0 PUSH1 0x20 DUP3 DUP5 SUB SLT ISZERO PUSH2 0xE9D JUMPI PUSH2 0xE9C PUSH2 0xD5E JUMP JUMPDEST JUMPDEST PUSH0 PUSH2 0xEAA DUP5 DUP3 DUP6 ADD PUSH2 0xDDB JUMP JUMPDEST SWAP2 POP POP SWAP3 SWAP2 POP POP JUMP JUMPDEST PUSH0 PUSH0 PUSH0 PUSH1 0x60 DUP5 DUP7 SUB SLT ISZERO PUSH2 0xECA JUMPI PUSH2 0xEC9 PUSH2 0xD5E JUMP JUMPDEST JUMPDEST PUSH0 PUSH2 0xED7 DUP7 DUP3 DUP8 ADD PUSH2 0xDA8 JUMP JUMPDEST SWAP4 POP POP PUSH1 0x20 PUSH2 0xEE8 DUP7 DUP3 DUP8 ADD PUSH2 0xDA8 JUMP JUMPDEST SWAP3 POP POP PUSH1 0x40 PUSH2 0xEF9 DUP7 DUP3 DUP8 ADD PUSH2 0xDDB JUMP JUMPDEST SWAP2 POP POP SWAP3 POP SWAP3 POP SWAP3 JUMP JUMPDEST PUSH0 PUSH1 0xFF DUP3 AND SWAP1 POP SWAP2 SWAP1 POP JUMP JUMPDEST PUSH2 0xF18 DUP2 PUSH2 0xF03 JUMP JUMPDEST DUP3 MSTORE POP POP JUMP JUMPDEST PUSH0 PUSH1 0x20 DUP3 ADD SWAP1 POP PUSH2 0xF31 PUSH0 DUP4 ADD DUP5 PUSH2 0xF0F JUMP JUMPDEST SWAP3 SWAP2 POP POP JUMP JUMPDEST PUSH0 PUSH1 0x20 DUP3 DUP5 SUB SLT ISZERO PUSH2 0xF4C JUMPI PUSH2 0xF4B PUSH2 0xD5E JUMP JUMPDEST JUMPDEST PUSH0 PUSH2 0xF59 DUP5 DUP3 DUP6 ADD PUSH2 0xDA8 JUMP JUMPDEST SWAP2 POP POP SWAP3 SWAP2 POP POP JUMP JUMPDEST PUSH0 PUSH0 PUSH1 0x40 DUP4 DUP6 SUB SLT ISZERO PUSH2 0xF78 JUMPI PUSH2 0xF77 PUSH2 0xD5E JUMP JUMPDEST JUMPDEST PUSH0 PUSH2 0xF85 DUP6 DUP3 DUP7 ADD PUSH2 0xDA8 JUMP JUMPDEST SWAP3 POP POP PUSH1 0x20 PUSH2 0xF96 DUP6 DUP3 DUP7 ADD PUSH2 0xDA8 JUMP JUMPDEST SWAP2 POP POP SWAP3 POP SWAP3 SWAP1 POP JUMP JUMPDEST PUSH32 0x4E487B7100000000000000000000000000000000000000000000000000000000 PUSH0 MSTORE PUSH1 0x11 PUSH1 0x4 MSTORE PUSH1 0x24 PUSH0 REVERT JUMPDEST PUSH0 PUSH2 0xFD7 DUP3 PUSH2 0xDBC JUMP JUMPDEST SWAP2 POP PUSH2 0xFE2 DUP4 PUSH2 0xDBC JUMP JUMPDEST SWAP3 POP DUP3 DUP3 ADD SWAP1 POP DUP1 DUP3 GT ISZERO PUSH2 0xFFA JUMPI PUSH2 0xFF9 PUSH2 0xFA0 JUMP JUMPDEST JUMPDEST SWAP3 SWAP2 POP POP JUMP JUMPDEST PUSH32 0x696E73756666696369656E742062616C616E6365000000000000000000000000 PUSH0 DUP3 ADD MSTORE POP JUMP JUMPDEST PUSH0 PUSH2 0x1034 PUSH1 0x14 DUP4 PUSH2 0xCD8 JUMP JUMPDEST SWAP2 POP PUSH2 0x103F DUP3 PUSH2 0x1000 JUMP JUMPDEST PUSH1 0x20 DUP3 ADD SWAP1 POP SWAP2 SWAP1 POP JUMP JUMPDEST PUSH0 PUSH1 0x20 DUP3 ADD SWAP1 POP DUP2 DUP2 SUB PUSH0 DUP4 ADD MSTORE PUSH2 0x1061 DUP2 PUSH2 0x1028 JUMP JUMPDEST SWAP1 POP SWAP2 SWAP1 POP JUMP JUMPDEST PUSH32 0x4E487B7100000000000000000000000000000000000000000000000000000000 PUSH0 MSTORE PUSH1 0x1 PUSH1 0x4 MSTORE PUSH1 0x24 PUSH0 REVERT JUMPDEST PUSH0 PUSH2 0x109F DUP3 PUSH2 0xDBC JUMP JUMPDEST SWAP2 POP PUSH2 0x10AA DUP4 PUSH2 0xDBC JUMP JUMPDEST SWAP3 POP DUP3 DUP3 SUB SWAP1 POP DUP2 DUP2 GT ISZERO PUSH2 0x10C2 JUMPI PUSH2 0x10C1 PUSH2 0xFA0 JUMP JUMPDEST JUMPDEST SWAP3 SWAP2 POP POP JUMP INVALID LOG2 PUSH5 0x6970667358 0x22 SLT KECCAK256 JUMP SELFDESTRUCT DUP16 EXTCALL COINBASE GASLIMIT CALLF 0xC944 0xD5 NOT SWAP16 0xC0 PUSH4 0xAA8FE35C PUSH10 0xF4D426DE926247207FB5 LOG3 COINBASE LT PUSH5 0x736F6C6343 STOP ADDMOD 0x1E STOP CALLER "
				},
				"gasEstimates": {
					"creation": {
						"codeDepositCost": "1544400",
						"executionCost": "infinite",
						"totalCost": "infinite"
					},
					"external": {
						"AddAttraction(string,uint256)": "infinite",
						"DisableAttraction(string)": "infinite",
						"EnableAttractions()": "infinite",
						"EnjoyAttraction(string)": "infinite",
						"GenerateTokens(uint256)": "infinite",
						"Historical()": "infinite",
						"MappingAttractions(string)": "infinite",
						"MyTokens()": "infinite",
						"RevertTokens(uint256)": "infinite",
						"balanceOf()": "infinite",
						"client_data(address)": "2861",
						"gameToken()": "infinite",
						"owner()": "2597",
						"purchaseToken(uint256)": "infinite"
					},
					"internal": {
						"tokensPrice(uint256)": "infinite"
					}
				},
				"methodIdentifiers": {
					"AddAttraction(string,uint256)": "7e93bf3c",
					"DisableAttraction(string)": "84eda297",
					"EnableAttractions()": "a488b6da",
					"EnjoyAttraction(string)": "ce501912",
					"GenerateTokens(uint256)": "ab6f1092",
					"Historical()": "7ca35cff",
					"MappingAttractions(string)": "9b1447a0",
					"MyTokens()": "fa57e4c7",
					"RevertTokens(uint256)": "60b9a6c2",
					"balanceOf()": "722713f7",
					"client_data(address)": "638b65a9",
					"gameToken()": "c3dfdae6",
					"owner()": "8da5cb5b",
					"purchaseToken(uint256)": "c2db2c42"
				}
			},
			"storageLayout": {
				"storage": [
					{
						"astId": 483,
						"contract": "PlayLand/PlayLand.sol:PlayLand",
						"label": "gameToken",
						"offset": 0,
						"slot": "0",
						"type": "t_contract(ERC20Basic)477"
					},
					{
						"astId": 485,
						"contract": "PlayLand/PlayLand.sol:PlayLand",
						"label": "owner",
						"offset": 0,
						"slot": "1",
						"type": "t_address_payable"
					},
					{
						"astId": 516,
						"contract": "PlayLand/PlayLand.sol:PlayLand",
						"label": "client_data",
						"offset": 0,
						"slot": "2",
						"type": "t_mapping(t_address,t_struct(client)511_storage)"
					},
					{
						"astId": 669,
						"contract": "PlayLand/PlayLand.sol:PlayLand",
						"label": "MappingAttractions",
						"offset": 0,
						"slot": "3",
						"type": "t_mapping(t_string_memory_ptr,t_struct(attraction)676_storage)"
					},
					{
						"astId": 679,
						"contract": "PlayLand/PlayLand.sol:PlayLand",
						"label": "Attractions",
						"offset": 0,
						"slot": "4",
						"type": "t_array(t_string_storage)dyn_storage"
					},
					{
						"astId": 684,
						"contract": "PlayLand/PlayLand.sol:PlayLand",
						"label": "HistoryAttractions",
						"offset": 0,
						"slot": "5",
						"type": "t_mapping(t_address,t_array(t_string_storage)dyn_storage)"
					}
				],
				"types": {
					"t_address": {
						"encoding": "inplace",
						"label": "address",
						"numberOfBytes": "20"
					},
					"t_address_payable": {
						"encoding": "inplace",
						"label": "address payable",
						"numberOfBytes": "20"
					},
					"t_array(t_string_storage)dyn_storage": {
						"base": "t_string_storage",
						"encoding": "dynamic_array",
						"label": "string[]",
						"numberOfBytes": "32"
					},
					"t_bool": {
						"encoding": "inplace",
						"label": "bool",
						"numberOfBytes": "1"
					},
					"t_contract(ERC20Basic)477": {
						"encoding": "inplace",
						"label": "contract ERC20Basic",
						"numberOfBytes": "20"
					},
					"t_mapping(t_address,t_array(t_string_storage)dyn_storage)": {
						"encoding": "mapping",
						"key": "t_address",
						"label": "mapping(address => string[])",
						"numberOfBytes": "32",
						"value": "t_array(t_string_storage)dyn_storage"
					},
					"t_mapping(t_address,t_struct(client)511_storage)": {
						"encoding": "mapping",
						"key": "t_address",
						"label": "mapping(address => struct PlayLand.client)",
						"numberOfBytes": "32",
						"value": "t_struct(client)511_storage"
					},
					"t_mapping(t_string_memory_ptr,t_struct(attraction)676_storage)": {
						"encoding": "mapping",
						"key": "t_string_memory_ptr",
						"label": "mapping(string => struct PlayLand.attraction)",
						"numberOfBytes": "32",
						"value": "t_struct(attraction)676_storage"
					},
					"t_string_memory_ptr": {
						"encoding": "bytes",
						"label": "string",
						"numberOfBytes": "32"
					},
					"t_string_storage": {
						"encoding": "bytes",
						"label": "string",
						"numberOfBytes": "32"
					},
					"t_struct(attraction)676_storage": {
						"encoding": "inplace",
						"label": "struct PlayLand.attraction",
						"members": [
							{
								"astId": 671,
								"contract": "PlayLand/PlayLand.sol:PlayLand",
								"label": "name_attraction",
								"offset": 0,
								"slot": "0",
								"type": "t_string_storage"
							},
							{
								"astId": 673,
								"contract": "PlayLand/PlayLand.sol:PlayLand",
								"label": "price_attraction",
								"offset": 0,
								"slot": "1",
								"type": "t_uint256"
							},
							{
								"astId": 675,
								"contract": "PlayLand/PlayLand.sol:PlayLand",
								"label": "state_attraction",
								"offset": 0,
								"slot": "2",
								"type": "t_bool"
							}
						],
						"numberOfBytes": "96"
					},
					"t_struct(client)511_storage": {
						"encoding": "inplace",
						"label": "struct PlayLand.client",
						"members": [
							{
								"astId": 507,
								"contract": "PlayLand/PlayLand.sol:PlayLand",
								"label": "tokes_purchased",
								"offset": 0,
								"slot": "0",
								"type": "t_uint256"
							},
							{
								"astId": 510,
								"contract": "PlayLand/PlayLand.sol:PlayLand",
								"label": "AttractionsEnjoyed",
								"offset": 0,
								"slot": "1",
								"type": "t_array(t_string_storage)dyn_storage"
							}
						],
						"numberOfBytes": "64"
					},
					"t_uint256": {
						"encoding": "inplace",
						"label": "uint256",
						"numberOfBytes": "32"
					}
				}
			},
			"userdoc": {
				"kind": "user",
				"methods": {},
				"version": 1
			}
		}
	}
}