{
	"CustomToken/ERC20.sol": {
		"ERC20": {
			"abi": [
				{
					"inputs": [
						{
							"internalType": "uint256",
							"name": "initialSupply",
							"type": "uint256"
						}
					],
					"stateMutability": "nonpayable",
					"type": "constructor"
				},
				{
					"anonymous": false,
					"inputs": [
						{
							"indexed": true,
							"internalType": "address",
							"name": "sender",
							"type": "address"
						},
						{
							"indexed": true,
							"internalType": "address",
							"name": "spender",
							"type": "address"
						},
						{
							"indexed": false,
							"internalType": "uint256",
							"name": "value",
							"type": "uint256"
						}
					],
					"name": "approvalEvent",
					"type": "event"
				},
				{
					"anonymous": false,
					"inputs": [
						{
							"indexed": true,
							"internalType": "address",
							"name": "from",
							"type": "address"
						},
						{
							"indexed": true,
							"internalType": "address",
							"name": "to",
							"type": "address"
						},
						{
							"indexed": false,
							"internalType": "uint256",
							"name": "value",
							"type": "uint256"
						}
					],
					"name": "transferEvent",
					"type": "event"
				},
				{
					"inputs": [
						{
							"internalType": "address",
							"name": "owner",
							"type": "address"
						},
						{
							"internalType": "address",
							"name": "delegate",
							"type": "address"
						}
					],
					"name": "allowance",
					"outputs": [
						{
							"internalType": "uint256",
							"name": "",
							"type": "uint256"
						}
					],
					"stateMutability": "view",
					"type": "function"
				},
				{
					"inputs": [
						{
							"internalType": "address",
							"name": "delegate",
							"type": "address"
						},
						{
							"internalType": "uint256",
							"name": "numTokens",
							"type": "uint256"
						}
					],
					"name": "approve",
					"outputs": [
						{
							"internalType": "bool",
							"name": "",
							"type": "bool"
						}
					],
					"stateMutability": "nonpayable",
					"type": "function"
				},
				{
					"inputs": [
						{
							"internalType": "address",
							"name": "tokenOwner",
							"type": "address"
						}
					],
					"name": "balanceOf",
					"outputs": [
						{
							"internalType": "uint256",
							"name": "",
							"type": "uint256"
						}
					],
					"stateMutability": "view",
					"type": "function"
				},
				{
					"inputs": [],
					"name": "decimals",
					"outputs": [
						{
							"internalType": "uint8",
							"name": "",
							"type": "uint8"
						}
					],
					"stateMutability": "view",
					"type": "function"
				},
				{
					"inputs": [
						{
							"internalType": "uint256",
							"name": "newTokensAmount",
							"type": "uint256"
						}
					],
					"name": "increaseTotalSupply",
					"outputs": [],
					"stateMutability": "nonpayable",
					"type": "function"
				},
				{
					"inputs": [],
					"name": "name",
					"outputs": [
						{
							"internalType": "string",
							"name": "",
							"type": "string"
						}
					],
					"stateMutability": "view",
					"type": "function"
				},
				{
					"inputs": [],
					"name": "symbol",
					"outputs": [
						{
							"internalType": "string",
							"name": "",
							"type": "string"
						}
					],
					"stateMutability": "view",
					"type": "function"
				},
				{
					"inputs": [],
					"name": "totalSupply",
					"outputs": [
						{
							"internalType": "uint256",
							"name": "",
							"type": "uint256"
						}
					],
					"stateMutability": "view",
					"type": "function"
				},
				{
					"inputs": [
						{
							"internalType": "address",
							"name": "recipient",
							"type": "address"
						},
						{
							"internalType": "uint256",
							"name": "numTokens",
							"type": "uint256"
						}
					],
					"name": "transfer",
					"outputs": [
						{
							"internalType": "bool",
							"name": "",
							"type": "bool"
						}
					],
					"stateMutability": "nonpayable",
					"type": "function"
				},
				{
					"inputs": [
						{
							"internalType": "address",
							"name": "owner",
							"type": "address"
						},
						{
							"internalType": "address",
							"name": "buyer",
							"type": "address"
						},
						{
							"internalType": "uint256",
							"name": "numTokens",
							"type": "uint256"
						}
					],
					"name": "transferFrom",
					"outputs": [
						{
							"internalType": "bool",
							"name": "",
							"type": "bool"
						}
					],
					"stateMutability": "nonpayable",
					"type": "function"
				}
			],
			"devdoc": {
				"kind": "dev",
				"methods": {},
				"version": 1
			},
			"evm": {
				"assembly": "    /* \"CustomToken/ERC20.sol\":1047:3284  contract ERC20 is IERC20... */\n  mstore(0x40, 0x80)\n    /* \"CustomToken/ERC20.sol\":1388:1521  constructor(uint256 initialSupply)... */\n  callvalue\n  dup1\n  iszero\n  tag_1\n  jumpi\n  revert(0x00, 0x00)\ntag_1:\n  pop\n  mload(0x40)\n  sub(codesize, bytecodeSize)\n  dup1\n  bytecodeSize\n  dup4\n  codecopy\n  dup2\n  dup2\n  add\n  0x40\n  mstore\n  dup2\n  add\n  swap1\n  tag_2\n  swap2\n  swap1\n  tag_3\n  jump\t// in\ntag_2:\n    /* \"CustomToken/ERC20.sol\":1454:1467  initialSupply */\n  dup1\n    /* \"CustomToken/ERC20.sol\":1439:1451  totalSupply_ */\n  0x02\n    /* \"CustomToken/ERC20.sol\":1439:1467  totalSupply_ = initialSupply */\n  dup2\n  swap1\n  sstore\n  pop\n    /* \"CustomToken/ERC20.sol\":1501:1513  totalSupply_ */\n  sload(0x02)\n    /* \"CustomToken/ERC20.sol\":1478:1486  balances */\n  0x00\n    /* \"CustomToken/ERC20.sol\":1478:1498  balances[msg.sender] */\n  0x00\n    /* \"CustomToken/ERC20.sol\":1487:1497  msg.sender */\n  caller\n    /* \"CustomToken/ERC20.sol\":1478:1498  balances[msg.sender] */\n  0xffffffffffffffffffffffffffffffffffffffff\n  and\n  0xffffffffffffffffffffffffffffffffffffffff\n  and\n  dup2\n  mstore\n  0x20\n  add\n  swap1\n  dup2\n  mstore\n  0x20\n  add\n  0x00\n  keccak256\n    /* \"CustomToken/ERC20.sol\":1478:1513  balances[msg.sender] = totalSupply_ */\n  dup2\n  swap1\n  sstore\n  pop\n    /* \"CustomToken/ERC20.sol\":1388:1521  constructor(uint256 initialSupply)... */\n  pop\n    /* \"CustomToken/ERC20.sol\":1047:3284  contract ERC20 is IERC20... */\n  jump(tag_6)\n    /* \"#utility.yul\":88:205   */\ntag_8:\n    /* \"#utility.yul\":197:198   */\n  0x00\n    /* \"#utility.yul\":194:195   */\n  0x00\n    /* \"#utility.yul\":187:199   */\n  revert\n    /* \"#utility.yul\":334:411   */\ntag_10:\n    /* \"#utility.yul\":371:378   */\n  0x00\n    /* \"#utility.yul\":400:405   */\n  dup2\n    /* \"#utility.yul\":389:405   */\n  swap1\n  pop\n    /* \"#utility.yul\":334:411   */\n  swap2\n  swap1\n  pop\n  jump\t// out\n    /* \"#utility.yul\":417:539   */\ntag_11:\n    /* \"#utility.yul\":490:514   */\n  tag_19\n    /* \"#utility.yul\":508:513   */\n  dup2\n    /* \"#utility.yul\":490:514   */\n  tag_10\n  jump\t// in\ntag_19:\n    /* \"#utility.yul\":483:488   */\n  dup2\n    /* \"#utility.yul\":480:515   */\n  eq\n    /* \"#utility.yul\":470:533   */\n  tag_20\n  jumpi\n    /* \"#utility.yul\":529:530   */\n  0x00\n    /* \"#utility.yul\":526:527   */\n  0x00\n    /* \"#utility.yul\":519:531   */\n  revert\n    /* \"#utility.yul\":470:533   */\ntag_20:\n    /* \"#utility.yul\":417:539   */\n  pop\n  jump\t// out\n    /* \"#utility.yul\":545:688   */\ntag_12:\n    /* \"#utility.yul\":602:607   */\n  0x00\n    /* \"#utility.yul\":633:639   */\n  dup2\n    /* \"#utility.yul\":627:640   */\n  mload\n    /* \"#utility.yul\":618:640   */\n  swap1\n  pop\n    /* \"#utility.yul\":649:682   */\n  tag_22\n    /* \"#utility.yul\":676:681   */\n  dup2\n    /* \"#utility.yul\":649:682   */\n  tag_11\n  jump\t// in\ntag_22:\n    /* \"#utility.yul\":545:688   */\n  swap3\n  swap2\n  pop\n  pop\n  jump\t// out\n    /* \"#utility.yul\":694:1045   */\ntag_3:\n    /* \"#utility.yul\":764:770   */\n  0x00\n    /* \"#utility.yul\":813:815   */\n  0x20\n    /* \"#utility.yul\":801:810   */\n  dup3\n    /* \"#utility.yul\":792:799   */\n  dup5\n    /* \"#utility.yul\":788:811   */\n  sub\n    /* \"#utility.yul\":784:816   */\n  slt\n    /* \"#utility.yul\":781:900   */\n  iszero\n  tag_24\n  jumpi\n    /* \"#utility.yul\":819:898   */\n  tag_25\n  tag_8\n  jump\t// in\ntag_25:\n    /* \"#utility.yul\":781:900   */\ntag_24:\n    /* \"#utility.yul\":939:940   */\n  0x00\n    /* \"#utility.yul\":964:1028   */\n  tag_26\n    /* \"#utility.yul\":1020:1027   */\n  dup5\n    /* \"#utility.yul\":1011:1017   */\n  dup3\n    /* \"#utility.yul\":1000:1009   */\n  dup6\n    /* \"#utility.yul\":996:1018   */\n  add\n    /* \"#utility.yul\":964:1028   */\n  tag_12\n  jump\t// in\ntag_26:\n    /* \"#utility.yul\":954:1028   */\n  swap2\n  pop\n    /* \"#utility.yul\":910:1038   */\n  pop\n    /* \"#utility.yul\":694:1045   */\n  swap3\n  swap2\n  pop\n  pop\n  jump\t// out\n    /* \"CustomToken/ERC20.sol\":1047:3284  contract ERC20 is IERC20... */\ntag_6:\n  dataSize(sub_0)\n  dup1\n  dataOffset(sub_0)\n  0x00\n  codecopy\n  0x00\n  return\nstop\n\nsub_0: assembly {\n        /* \"CustomToken/ERC20.sol\":1047:3284  contract ERC20 is IERC20... */\n      mstore(0x40, 0x80)\n      callvalue\n      dup1\n      iszero\n      tag_1\n      jumpi\n      revert(0x00, 0x00)\n    tag_1:\n      pop\n      jumpi(tag_2, lt(calldatasize, 0x04))\n      shr(0xe0, calldataload(0x00))\n      dup1\n      0x313ce567\n      gt\n      tag_13\n      jumpi\n      dup1\n      0x313ce567\n      eq\n      tag_8\n      jumpi\n      dup1\n      0x70a08231\n      eq\n      tag_9\n      jumpi\n      dup1\n      0x95d89b41\n      eq\n      tag_10\n      jumpi\n      dup1\n      0xa9059cbb\n      eq\n      tag_11\n      jumpi\n      dup1\n      0xdd62ed3e\n      eq\n      tag_12\n      jumpi\n      jump(tag_2)\n    tag_13:\n      dup1\n      0x06fdde03\n      eq\n      tag_3\n      jumpi\n      dup1\n      0x095ea7b3\n      eq\n      tag_4\n      jumpi\n      dup1\n      0x18160ddd\n      eq\n      tag_5\n      jumpi\n      dup1\n      0x1d43cc98\n      eq\n      tag_6\n      jumpi\n      dup1\n      0x23b872dd\n      eq\n      tag_7\n      jumpi\n    tag_2:\n      revert(0x00, 0x00)\n        /* \"CustomToken/ERC20.sol\":1080:1129  string public  constant  name = \"ERC20JosueChain\" */\n    tag_3:\n      tag_14\n      tag_15\n      jump\t// in\n    tag_14:\n      mload(0x40)\n      tag_16\n      swap2\n      swap1\n      tag_17\n      jump\t// in\n    tag_16:\n      mload(0x40)\n      dup1\n      swap2\n      sub\n      swap1\n      return\n        /* \"CustomToken/ERC20.sol\":2532:2770  function approve(address delegate, uint256 numTokens) external  override  returns (bool)... */\n    tag_4:\n      tag_18\n      0x04\n      dup1\n      calldatasize\n      sub\n      dup2\n      add\n      swap1\n      tag_19\n      swap2\n      swap1\n      tag_20\n      jump\t// in\n    tag_19:\n      tag_21\n      jump\t// in\n    tag_18:\n      mload(0x40)\n      tag_22\n      swap2\n      swap1\n      tag_23\n      jump\t// in\n    tag_22:\n      mload(0x40)\n      dup1\n      swap2\n      sub\n      swap1\n      return\n        /* \"CustomToken/ERC20.sol\":1529:1638  function totalSupply () external override  view returns (uint256)... */\n    tag_5:\n      tag_24\n      tag_25\n      jump\t// in\n    tag_24:\n      mload(0x40)\n      tag_26\n      swap2\n      swap1\n      tag_27\n      jump\t// in\n    tag_26:\n      mload(0x40)\n      dup1\n      swap2\n      sub\n      swap1\n      return\n        /* \"CustomToken/ERC20.sol\":1650:1815  function  increaseTotalSupply(uint newTokensAmount) public ... */\n    tag_6:\n      tag_28\n      0x04\n      dup1\n      calldatasize\n      sub\n      dup2\n      add\n      swap1\n      tag_29\n      swap2\n      swap1\n      tag_30\n      jump\t// in\n    tag_29:\n      tag_31\n      jump\t// in\n    tag_28:\n      stop\n        /* \"CustomToken/ERC20.sol\":2778:3281  function transferFrom(address owner, address buyer, uint256 numTokens ) external override  returns (bool)... */\n    tag_7:\n      tag_32\n      0x04\n      dup1\n      calldatasize\n      sub\n      dup2\n      add\n      swap1\n      tag_33\n      swap2\n      swap1\n      tag_34\n      jump\t// in\n    tag_33:\n      tag_35\n      jump\t// in\n    tag_32:\n      mload(0x40)\n      tag_36\n      swap2\n      swap1\n      tag_23\n      jump\t// in\n    tag_36:\n      mload(0x40)\n      dup1\n      swap2\n      sub\n      swap1\n      return\n        /* \"CustomToken/ERC20.sol\":1182:1216  uint8 public constant decimals = 2 */\n    tag_8:\n      tag_37\n      tag_38\n      jump\t// in\n    tag_37:\n      mload(0x40)\n      tag_39\n      swap2\n      swap1\n      tag_40\n      jump\t// in\n    tag_39:\n      mload(0x40)\n      dup1\n      swap2\n      sub\n      swap1\n      return\n        /* \"CustomToken/ERC20.sol\":1823:1955  function balanceOf(address tokenOwner) external override  view returns (uint256)... */\n    tag_9:\n      tag_41\n      0x04\n      dup1\n      calldatasize\n      sub\n      dup2\n      add\n      swap1\n      tag_42\n      swap2\n      swap1\n      tag_43\n      jump\t// in\n    tag_42:\n      tag_44\n      jump\t// in\n    tag_41:\n      mload(0x40)\n      tag_45\n      swap2\n      swap1\n      tag_27\n      jump\t// in\n    tag_45:\n      mload(0x40)\n      dup1\n      swap2\n      sub\n      swap1\n      return\n        /* \"CustomToken/ERC20.sol\":1136:1175  string public constant symbol = \"ETHJC\" */\n    tag_10:\n      tag_46\n      tag_47\n      jump\t// in\n    tag_46:\n      mload(0x40)\n      tag_48\n      swap2\n      swap1\n      tag_17\n      jump\t// in\n    tag_48:\n      mload(0x40)\n      dup1\n      swap2\n      sub\n      swap1\n      return\n        /* \"CustomToken/ERC20.sol\":2120:2520  function transfer(address recipient, uint256 numTokens) external override  returns (bool)... */\n    tag_11:\n      tag_49\n      0x04\n      dup1\n      calldatasize\n      sub\n      dup2\n      add\n      swap1\n      tag_50\n      swap2\n      swap1\n      tag_20\n      jump\t// in\n    tag_50:\n      tag_51\n      jump\t// in\n    tag_49:\n      mload(0x40)\n      tag_52\n      swap2\n      swap1\n      tag_23\n      jump\t// in\n    tag_52:\n      mload(0x40)\n      dup1\n      swap2\n      sub\n      swap1\n      return\n        /* \"CustomToken/ERC20.sol\":1963:2112  function allowance(address owner, address delegate) external override  view returns (uint256)... */\n    tag_12:\n      tag_53\n      0x04\n      dup1\n      calldatasize\n      sub\n      dup2\n      add\n      swap1\n      tag_54\n      swap2\n      swap1\n      tag_55\n      jump\t// in\n    tag_54:\n      tag_56\n      jump\t// in\n    tag_53:\n      mload(0x40)\n      tag_57\n      swap2\n      swap1\n      tag_27\n      jump\t// in\n    tag_57:\n      mload(0x40)\n      dup1\n      swap2\n      sub\n      swap1\n      return\n        /* \"CustomToken/ERC20.sol\":1080:1129  string public  constant  name = \"ERC20JosueChain\" */\n    tag_15:\n      mload(0x40)\n      dup1\n      0x40\n      add\n      0x40\n      mstore\n      dup1\n      0x0f\n      dup2\n      mstore\n      0x20\n      add\n      0x45524332304a6f737565436861696e0000000000000000000000000000000000\n      dup2\n      mstore\n      pop\n      dup2\n      jump\t// out\n        /* \"CustomToken/ERC20.sol\":2532:2770  function approve(address delegate, uint256 numTokens) external  override  returns (bool)... */\n    tag_21:\n        /* \"CustomToken/ERC20.sol\":2615:2619  bool */\n      0x00\n        /* \"CustomToken/ERC20.sol\":2669:2678  numTokens */\n      dup2\n        /* \"CustomToken/ERC20.sol\":2637:2644  allowed */\n      0x01\n        /* \"CustomToken/ERC20.sol\":2637:2656  allowed[msg.sender] */\n      0x00\n        /* \"CustomToken/ERC20.sol\":2645:2655  msg.sender */\n      caller\n        /* \"CustomToken/ERC20.sol\":2637:2656  allowed[msg.sender] */\n      0xffffffffffffffffffffffffffffffffffffffff\n      and\n      0xffffffffffffffffffffffffffffffffffffffff\n      and\n      dup2\n      mstore\n      0x20\n      add\n      swap1\n      dup2\n      mstore\n      0x20\n      add\n      0x00\n      keccak256\n        /* \"CustomToken/ERC20.sol\":2637:2666  allowed[msg.sender][delegate] */\n      0x00\n        /* \"CustomToken/ERC20.sol\":2657:2665  delegate */\n      dup6\n        /* \"CustomToken/ERC20.sol\":2637:2666  allowed[msg.sender][delegate] */\n      0xffffffffffffffffffffffffffffffffffffffff\n      and\n      0xffffffffffffffffffffffffffffffffffffffff\n      and\n      dup2\n      mstore\n      0x20\n      add\n      swap1\n      dup2\n      mstore\n      0x20\n      add\n      0x00\n      keccak256\n        /* \"CustomToken/ERC20.sol\":2637:2678  allowed[msg.sender][delegate] = numTokens */\n      dup2\n      swap1\n      sstore\n      pop\n        /* \"CustomToken/ERC20.sol\":2720:2728  delegate */\n      dup3\n        /* \"CustomToken/ERC20.sol\":2694:2740  approvalEvent(msg.sender, delegate, numTokens) */\n      0xffffffffffffffffffffffffffffffffffffffff\n      and\n        /* \"CustomToken/ERC20.sol\":2708:2718  msg.sender */\n      caller\n        /* \"CustomToken/ERC20.sol\":2694:2740  approvalEvent(msg.sender, delegate, numTokens) */\n      0xffffffffffffffffffffffffffffffffffffffff\n      and\n      0xd04c27822ed43674489d02367b63f0c5d0b6b232088b6515b73d546217b3457d\n        /* \"CustomToken/ERC20.sol\":2730:2739  numTokens */\n      dup5\n        /* \"CustomToken/ERC20.sol\":2694:2740  approvalEvent(msg.sender, delegate, numTokens) */\n      mload(0x40)\n      tag_59\n      swap2\n      swap1\n      tag_27\n      jump\t// in\n    tag_59:\n      mload(0x40)\n      dup1\n      swap2\n      sub\n      swap1\n      log3\n        /* \"CustomToken/ERC20.sol\":2758:2762  true */\n      0x01\n        /* \"CustomToken/ERC20.sol\":2751:2762  return true */\n      swap1\n      pop\n        /* \"CustomToken/ERC20.sol\":2532:2770  function approve(address delegate, uint256 numTokens) external  override  returns (bool)... */\n      swap3\n      swap2\n      pop\n      pop\n      jump\t// out\n        /* \"CustomToken/ERC20.sol\":1529:1638  function totalSupply () external override  view returns (uint256)... */\n    tag_25:\n        /* \"CustomToken/ERC20.sol\":1586:1593  uint256 */\n      0x00\n        /* \"CustomToken/ERC20.sol\":1618:1630  totalSupply_ */\n      sload(0x02)\n        /* \"CustomToken/ERC20.sol\":1611:1630  return totalSupply_ */\n      swap1\n      pop\n        /* \"CustomToken/ERC20.sol\":1529:1638  function totalSupply () external override  view returns (uint256)... */\n      swap1\n      jump\t// out\n        /* \"CustomToken/ERC20.sol\":1650:1815  function  increaseTotalSupply(uint newTokensAmount) public ... */\n    tag_31:\n        /* \"CustomToken/ERC20.sol\":1742:1757  newTokensAmount */\n      dup1\n        /* \"CustomToken/ERC20.sol\":1726:1738  totalSupply_ */\n      0x02\n      0x00\n        /* \"CustomToken/ERC20.sol\":1726:1757  totalSupply_ += newTokensAmount */\n      dup3\n      dup3\n      sload\n      tag_62\n      swap2\n      swap1\n      tag_63\n      jump\t// in\n    tag_62:\n      swap3\n      pop\n      pop\n      dup2\n      swap1\n      sstore\n      pop\n        /* \"CustomToken/ERC20.sol\":1792:1807  newTokensAmount */\n      dup1\n        /* \"CustomToken/ERC20.sol\":1768:1776  balances */\n      0x00\n        /* \"CustomToken/ERC20.sol\":1768:1788  balances[msg.sender] */\n      0x00\n        /* \"CustomToken/ERC20.sol\":1777:1787  msg.sender */\n      caller\n        /* \"CustomToken/ERC20.sol\":1768:1788  balances[msg.sender] */\n      0xffffffffffffffffffffffffffffffffffffffff\n      and\n      0xffffffffffffffffffffffffffffffffffffffff\n      and\n      dup2\n      mstore\n      0x20\n      add\n      swap1\n      dup2\n      mstore\n      0x20\n      add\n      0x00\n      keccak256\n      0x00\n        /* \"CustomToken/ERC20.sol\":1768:1807  balances[msg.sender] += newTokensAmount */\n      dup3\n      dup3\n      sload\n      tag_64\n      swap2\n      swap1\n      tag_63\n      jump\t// in\n    tag_64:\n      swap3\n      pop\n      pop\n      dup2\n      swap1\n      sstore\n      pop\n        /* \"CustomToken/ERC20.sol\":1650:1815  function  increaseTotalSupply(uint newTokensAmount) public ... */\n      pop\n      jump\t// out\n        /* \"CustomToken/ERC20.sol\":2778:3281  function transferFrom(address owner, address buyer, uint256 numTokens ) external override  returns (bool)... */\n    tag_35:\n        /* \"CustomToken/ERC20.sol\":2878:2882  bool */\n      0x00\n        /* \"CustomToken/ERC20.sol\":2921:2929  balances */\n      0x00\n        /* \"CustomToken/ERC20.sol\":2921:2936  balances[owner] */\n      0x00\n        /* \"CustomToken/ERC20.sol\":2930:2935  owner */\n      dup6\n        /* \"CustomToken/ERC20.sol\":2921:2936  balances[owner] */\n      0xffffffffffffffffffffffffffffffffffffffff\n      and\n      0xffffffffffffffffffffffffffffffffffffffff\n      and\n      dup2\n      mstore\n      0x20\n      add\n      swap1\n      dup2\n      mstore\n      0x20\n      add\n      0x00\n      keccak256\n      sload\n        /* \"CustomToken/ERC20.sol\":2908:2917  numTokens */\n      dup3\n        /* \"CustomToken/ERC20.sol\":2908:2936  numTokens <= balances[owner] */\n      gt\n      iszero\n        /* \"CustomToken/ERC20.sol\":2900:2937  require(numTokens <= balances[owner]) */\n      tag_66\n      jumpi\n      revert(0x00, 0x00)\n    tag_66:\n        /* \"CustomToken/ERC20.sol\":2969:2976  allowed */\n      0x01\n        /* \"CustomToken/ERC20.sol\":2969:2983  allowed[owner] */\n      0x00\n        /* \"CustomToken/ERC20.sol\":2977:2982  owner */\n      dup6\n        /* \"CustomToken/ERC20.sol\":2969:2983  allowed[owner] */\n      0xffffffffffffffffffffffffffffffffffffffff\n      and\n      0xffffffffffffffffffffffffffffffffffffffff\n      and\n      dup2\n      mstore\n      0x20\n      add\n      swap1\n      dup2\n      mstore\n      0x20\n      add\n      0x00\n      keccak256\n        /* \"CustomToken/ERC20.sol\":2969:2995  allowed[owner][msg.sender] */\n      0x00\n        /* \"CustomToken/ERC20.sol\":2984:2994  msg.sender */\n      caller\n        /* \"CustomToken/ERC20.sol\":2969:2995  allowed[owner][msg.sender] */\n      0xffffffffffffffffffffffffffffffffffffffff\n      and\n      0xffffffffffffffffffffffffffffffffffffffff\n      and\n      dup2\n      mstore\n      0x20\n      add\n      swap1\n      dup2\n      mstore\n      0x20\n      add\n      0x00\n      keccak256\n      sload\n        /* \"CustomToken/ERC20.sol\":2956:2965  numTokens */\n      dup3\n        /* \"CustomToken/ERC20.sol\":2956:2995  numTokens <= allowed[owner][msg.sender] */\n      gt\n      iszero\n        /* \"CustomToken/ERC20.sol\":2948:2996  require(numTokens <= allowed[owner][msg.sender]) */\n      tag_67\n      jumpi\n      revert(0x00, 0x00)\n    tag_67:\n        /* \"CustomToken/ERC20.sol\":3025:3055  balances[owner].sub(numTokens) */\n      tag_68\n        /* \"CustomToken/ERC20.sol\":3045:3054  numTokens */\n      dup3\n        /* \"CustomToken/ERC20.sol\":3025:3033  balances */\n      0x00\n        /* \"CustomToken/ERC20.sol\":3025:3040  balances[owner] */\n      0x00\n        /* \"CustomToken/ERC20.sol\":3034:3039  owner */\n      dup8\n        /* \"CustomToken/ERC20.sol\":3025:3040  balances[owner] */\n      0xffffffffffffffffffffffffffffffffffffffff\n      and\n      0xffffffffffffffffffffffffffffffffffffffff\n      and\n      dup2\n      mstore\n      0x20\n      add\n      swap1\n      dup2\n      mstore\n      0x20\n      add\n      0x00\n      keccak256\n      sload\n        /* \"CustomToken/ERC20.sol\":3025:3044  balances[owner].sub */\n      tag_69\n      swap1\n        /* \"CustomToken/ERC20.sol\":3025:3055  balances[owner].sub(numTokens) */\n      swap2\n      swap1\n      0xffffffff\n      and\n      jump\t// in\n    tag_68:\n        /* \"CustomToken/ERC20.sol\":3007:3015  balances */\n      0x00\n        /* \"CustomToken/ERC20.sol\":3007:3022  balances[owner] */\n      0x00\n        /* \"CustomToken/ERC20.sol\":3016:3021  owner */\n      dup7\n        /* \"CustomToken/ERC20.sol\":3007:3022  balances[owner] */\n      0xffffffffffffffffffffffffffffffffffffffff\n      and\n      0xffffffffffffffffffffffffffffffffffffffff\n      and\n      dup2\n      mstore\n      0x20\n      add\n      swap1\n      dup2\n      mstore\n      0x20\n      add\n      0x00\n      keccak256\n        /* \"CustomToken/ERC20.sol\":3007:3055  balances[owner] = balances[owner].sub(numTokens) */\n      dup2\n      swap1\n      sstore\n      pop\n        /* \"CustomToken/ERC20.sol\":3095:3136  allowed[owner][msg.sender].sub(numTokens) */\n      tag_70\n        /* \"CustomToken/ERC20.sol\":3126:3135  numTokens */\n      dup3\n        /* \"CustomToken/ERC20.sol\":3095:3102  allowed */\n      0x01\n        /* \"CustomToken/ERC20.sol\":3095:3109  allowed[owner] */\n      0x00\n        /* \"CustomToken/ERC20.sol\":3103:3108  owner */\n      dup8\n        /* \"CustomToken/ERC20.sol\":3095:3109  allowed[owner] */\n      0xffffffffffffffffffffffffffffffffffffffff\n      and\n      0xffffffffffffffffffffffffffffffffffffffff\n      and\n      dup2\n      mstore\n      0x20\n      add\n      swap1\n      dup2\n      mstore\n      0x20\n      add\n      0x00\n      keccak256\n        /* \"CustomToken/ERC20.sol\":3095:3121  allowed[owner][msg.sender] */\n      0x00\n        /* \"CustomToken/ERC20.sol\":3110:3120  msg.sender */\n      caller\n        /* \"CustomToken/ERC20.sol\":3095:3121  allowed[owner][msg.sender] */\n      0xffffffffffffffffffffffffffffffffffffffff\n      and\n      0xffffffffffffffffffffffffffffffffffffffff\n      and\n      dup2\n      mstore\n      0x20\n      add\n      swap1\n      dup2\n      mstore\n      0x20\n      add\n      0x00\n      keccak256\n      sload\n        /* \"CustomToken/ERC20.sol\":3095:3125  allowed[owner][msg.sender].sub */\n      tag_69\n      swap1\n        /* \"CustomToken/ERC20.sol\":3095:3136  allowed[owner][msg.sender].sub(numTokens) */\n      swap2\n      swap1\n      0xffffffff\n      and\n      jump\t// in\n    tag_70:\n        /* \"CustomToken/ERC20.sol\":3066:3073  allowed */\n      0x01\n        /* \"CustomToken/ERC20.sol\":3066:3080  allowed[owner] */\n      0x00\n        /* \"CustomToken/ERC20.sol\":3074:3079  owner */\n      dup7\n        /* \"CustomToken/ERC20.sol\":3066:3080  allowed[owner] */\n      0xffffffffffffffffffffffffffffffffffffffff\n      and\n      0xffffffffffffffffffffffffffffffffffffffff\n      and\n      dup2\n      mstore\n      0x20\n      add\n      swap1\n      dup2\n      mstore\n      0x20\n      add\n      0x00\n      keccak256\n        /* \"CustomToken/ERC20.sol\":3066:3092  allowed[owner][msg.sender] */\n      0x00\n        /* \"CustomToken/ERC20.sol\":3081:3091  msg.sender */\n      caller\n        /* \"CustomToken/ERC20.sol\":3066:3092  allowed[owner][msg.sender] */\n      0xffffffffffffffffffffffffffffffffffffffff\n      and\n      0xffffffffffffffffffffffffffffffffffffffff\n      and\n      dup2\n      mstore\n      0x20\n      add\n      swap1\n      dup2\n      mstore\n      0x20\n      add\n      0x00\n      keccak256\n        /* \"CustomToken/ERC20.sol\":3066:3136  allowed[owner][msg.sender] = allowed[owner][msg.sender].sub(numTokens) */\n      dup2\n      swap1\n      sstore\n      pop\n        /* \"CustomToken/ERC20.sol\":3165:3195  balances[buyer].add(numTokens) */\n      tag_71\n        /* \"CustomToken/ERC20.sol\":3185:3194  numTokens */\n      dup3\n        /* \"CustomToken/ERC20.sol\":3165:3173  balances */\n      0x00\n        /* \"CustomToken/ERC20.sol\":3165:3180  balances[buyer] */\n      0x00\n        /* \"CustomToken/ERC20.sol\":3174:3179  buyer */\n      dup7\n        /* \"CustomToken/ERC20.sol\":3165:3180  balances[buyer] */\n      0xffffffffffffffffffffffffffffffffffffffff\n      and\n      0xffffffffffffffffffffffffffffffffffffffff\n      and\n      dup2\n      mstore\n      0x20\n      add\n      swap1\n      dup2\n      mstore\n      0x20\n      add\n      0x00\n      keccak256\n      sload\n        /* \"CustomToken/ERC20.sol\":3165:3184  balances[buyer].add */\n      tag_72\n      swap1\n        /* \"CustomToken/ERC20.sol\":3165:3195  balances[buyer].add(numTokens) */\n      swap2\n      swap1\n      0xffffffff\n      and\n      jump\t// in\n    tag_71:\n        /* \"CustomToken/ERC20.sol\":3147:3155  balances */\n      0x00\n        /* \"CustomToken/ERC20.sol\":3147:3162  balances[buyer] */\n      0x00\n        /* \"CustomToken/ERC20.sol\":3156:3161  buyer */\n      dup6\n        /* \"CustomToken/ERC20.sol\":3147:3162  balances[buyer] */\n      0xffffffffffffffffffffffffffffffffffffffff\n      and\n      0xffffffffffffffffffffffffffffffffffffffff\n      and\n      dup2\n      mstore\n      0x20\n      add\n      swap1\n      dup2\n      mstore\n      0x20\n      add\n      0x00\n      keccak256\n        /* \"CustomToken/ERC20.sol\":3147:3195  balances[buyer] = balances[buyer].add(numTokens) */\n      dup2\n      swap1\n      sstore\n      pop\n        /* \"CustomToken/ERC20.sol\":3232:3237  buyer */\n      dup3\n        /* \"CustomToken/ERC20.sol\":3211:3250  transferEvent(owner, buyer , numTokens) */\n      0xffffffffffffffffffffffffffffffffffffffff\n      and\n        /* \"CustomToken/ERC20.sol\":3225:3230  owner */\n      dup5\n        /* \"CustomToken/ERC20.sol\":3211:3250  transferEvent(owner, buyer , numTokens) */\n      0xffffffffffffffffffffffffffffffffffffffff\n      and\n      0x5d439cf3a1f6215b41908e5b0b300f39679a3ff1cc010691c1d4ec4d0e2a4ebb\n        /* \"CustomToken/ERC20.sol\":3240:3249  numTokens */\n      dup5\n        /* \"CustomToken/ERC20.sol\":3211:3250  transferEvent(owner, buyer , numTokens) */\n      mload(0x40)\n      tag_73\n      swap2\n      swap1\n      tag_27\n      jump\t// in\n    tag_73:\n      mload(0x40)\n      dup1\n      swap2\n      sub\n      swap1\n      log3\n        /* \"CustomToken/ERC20.sol\":3269:3273  true */\n      0x01\n        /* \"CustomToken/ERC20.sol\":3262:3273  return true */\n      swap1\n      pop\n        /* \"CustomToken/ERC20.sol\":2778:3281  function transferFrom(address owner, address buyer, uint256 numTokens ) external override  returns (bool)... */\n      swap4\n      swap3\n      pop\n      pop\n      pop\n      jump\t// out\n        /* \"CustomToken/ERC20.sol\":1182:1216  uint8 public constant decimals = 2 */\n    tag_38:\n        /* \"CustomToken/ERC20.sol\":1215:1216  2 */\n      0x02\n        /* \"CustomToken/ERC20.sol\":1182:1216  uint8 public constant decimals = 2 */\n      dup2\n      jump\t// out\n        /* \"CustomToken/ERC20.sol\":1823:1955  function balanceOf(address tokenOwner) external override  view returns (uint256)... */\n    tag_44:\n        /* \"CustomToken/ERC20.sol\":1895:1902  uint256 */\n      0x00\n        /* \"CustomToken/ERC20.sol\":1927:1935  balances */\n      0x00\n        /* \"CustomToken/ERC20.sol\":1927:1947  balances[tokenOwner] */\n      0x00\n        /* \"CustomToken/ERC20.sol\":1936:1946  tokenOwner */\n      dup4\n        /* \"CustomToken/ERC20.sol\":1927:1947  balances[tokenOwner] */\n      0xffffffffffffffffffffffffffffffffffffffff\n      and\n      0xffffffffffffffffffffffffffffffffffffffff\n      and\n      dup2\n      mstore\n      0x20\n      add\n      swap1\n      dup2\n      mstore\n      0x20\n      add\n      0x00\n      keccak256\n      sload\n        /* \"CustomToken/ERC20.sol\":1920:1947  return balances[tokenOwner] */\n      swap1\n      pop\n        /* \"CustomToken/ERC20.sol\":1823:1955  function balanceOf(address tokenOwner) external override  view returns (uint256)... */\n      swap2\n      swap1\n      pop\n      jump\t// out\n        /* \"CustomToken/ERC20.sol\":1136:1175  string public constant symbol = \"ETHJC\" */\n    tag_47:\n      mload(0x40)\n      dup1\n      0x40\n      add\n      0x40\n      mstore\n      dup1\n      0x05\n      dup2\n      mstore\n      0x20\n      add\n      0x4554484a43000000000000000000000000000000000000000000000000000000\n      dup2\n      mstore\n      pop\n      dup2\n      jump\t// out\n        /* \"CustomToken/ERC20.sol\":2120:2520  function transfer(address recipient, uint256 numTokens) external override  returns (bool)... */\n    tag_51:\n        /* \"CustomToken/ERC20.sol\":2204:2208  bool */\n      0x00\n        /* \"CustomToken/ERC20.sol\":2247:2255  balances */\n      0x00\n        /* \"CustomToken/ERC20.sol\":2247:2267  balances[msg.sender] */\n      0x00\n        /* \"CustomToken/ERC20.sol\":2256:2266  msg.sender */\n      caller\n        /* \"CustomToken/ERC20.sol\":2247:2267  balances[msg.sender] */\n      0xffffffffffffffffffffffffffffffffffffffff\n      and\n      0xffffffffffffffffffffffffffffffffffffffff\n      and\n      dup2\n      mstore\n      0x20\n      add\n      swap1\n      dup2\n      mstore\n      0x20\n      add\n      0x00\n      keccak256\n      sload\n        /* \"CustomToken/ERC20.sol\":2234:2243  numTokens */\n      dup3\n        /* \"CustomToken/ERC20.sol\":2234:2267  numTokens <= balances[msg.sender] */\n      gt\n      iszero\n        /* \"CustomToken/ERC20.sol\":2226:2291  require(numTokens <= balances[msg.sender],\"insufficient balance\") */\n      tag_76\n      jumpi\n      mload(0x40)\n      0x08c379a000000000000000000000000000000000000000000000000000000000\n      dup2\n      mstore\n      0x04\n      add\n      tag_77\n      swap1\n      tag_78\n      jump\t// in\n    tag_77:\n      mload(0x40)\n      dup1\n      swap2\n      sub\n      swap1\n      revert\n    tag_76:\n        /* \"CustomToken/ERC20.sol\":2325:2360  balances[msg.sender].sub(numTokens) */\n      tag_79\n        /* \"CustomToken/ERC20.sol\":2350:2359  numTokens */\n      dup3\n        /* \"CustomToken/ERC20.sol\":2325:2333  balances */\n      0x00\n        /* \"CustomToken/ERC20.sol\":2325:2345  balances[msg.sender] */\n      0x00\n        /* \"CustomToken/ERC20.sol\":2334:2344  msg.sender */\n      caller\n        /* \"CustomToken/ERC20.sol\":2325:2345  balances[msg.sender] */\n      0xffffffffffffffffffffffffffffffffffffffff\n      and\n      0xffffffffffffffffffffffffffffffffffffffff\n      and\n      dup2\n      mstore\n      0x20\n      add\n      swap1\n      dup2\n      mstore\n      0x20\n      add\n      0x00\n      keccak256\n      sload\n        /* \"CustomToken/ERC20.sol\":2325:2349  balances[msg.sender].sub */\n      tag_69\n      swap1\n        /* \"CustomToken/ERC20.sol\":2325:2360  balances[msg.sender].sub(numTokens) */\n      swap2\n      swap1\n      0xffffffff\n      and\n      jump\t// in\n    tag_79:\n        /* \"CustomToken/ERC20.sol\":2302:2310  balances */\n      0x00\n        /* \"CustomToken/ERC20.sol\":2302:2322  balances[msg.sender] */\n      0x00\n        /* \"CustomToken/ERC20.sol\":2311:2321  msg.sender */\n      caller\n        /* \"CustomToken/ERC20.sol\":2302:2322  balances[msg.sender] */\n      0xffffffffffffffffffffffffffffffffffffffff\n      and\n      0xffffffffffffffffffffffffffffffffffffffff\n      and\n      dup2\n      mstore\n      0x20\n      add\n      swap1\n      dup2\n      mstore\n      0x20\n      add\n      0x00\n      keccak256\n        /* \"CustomToken/ERC20.sol\":2302:2360  balances[msg.sender] = balances[msg.sender].sub(numTokens) */\n      dup2\n      swap1\n      sstore\n      pop\n        /* \"CustomToken/ERC20.sol\":2393:2427  balances[recipient].add(numTokens) */\n      tag_80\n        /* \"CustomToken/ERC20.sol\":2417:2426  numTokens */\n      dup3\n        /* \"CustomToken/ERC20.sol\":2393:2401  balances */\n      0x00\n        /* \"CustomToken/ERC20.sol\":2393:2412  balances[recipient] */\n      0x00\n        /* \"CustomToken/ERC20.sol\":2402:2411  recipient */\n      dup7\n        /* \"CustomToken/ERC20.sol\":2393:2412  balances[recipient] */\n      0xffffffffffffffffffffffffffffffffffffffff\n      and\n      0xffffffffffffffffffffffffffffffffffffffff\n      and\n      dup2\n      mstore\n      0x20\n      add\n      swap1\n      dup2\n      mstore\n      0x20\n      add\n      0x00\n      keccak256\n      sload\n        /* \"CustomToken/ERC20.sol\":2393:2416  balances[recipient].add */\n      tag_72\n      swap1\n        /* \"CustomToken/ERC20.sol\":2393:2427  balances[recipient].add(numTokens) */\n      swap2\n      swap1\n      0xffffffff\n      and\n      jump\t// in\n    tag_80:\n        /* \"CustomToken/ERC20.sol\":2371:2379  balances */\n      0x00\n        /* \"CustomToken/ERC20.sol\":2371:2390  balances[recipient] */\n      0x00\n        /* \"CustomToken/ERC20.sol\":2380:2389  recipient */\n      dup6\n        /* \"CustomToken/ERC20.sol\":2371:2390  balances[recipient] */\n      0xffffffffffffffffffffffffffffffffffffffff\n      and\n      0xffffffffffffffffffffffffffffffffffffffff\n      and\n      dup2\n      mstore\n      0x20\n      add\n      swap1\n      dup2\n      mstore\n      0x20\n      add\n      0x00\n      keccak256\n        /* \"CustomToken/ERC20.sol\":2371:2427  balances[recipient] = balances[recipient].add(numTokens) */\n      dup2\n      swap1\n      sstore\n      pop\n        /* \"CustomToken/ERC20.sol\":2469:2478  recipient */\n      dup3\n        /* \"CustomToken/ERC20.sol\":2443:2490  transferEvent(msg.sender, recipient ,numTokens) */\n      0xffffffffffffffffffffffffffffffffffffffff\n      and\n        /* \"CustomToken/ERC20.sol\":2457:2467  msg.sender */\n      caller\n        /* \"CustomToken/ERC20.sol\":2443:2490  transferEvent(msg.sender, recipient ,numTokens) */\n      0xffffffffffffffffffffffffffffffffffffffff\n      and\n      0x5d439cf3a1f6215b41908e5b0b300f39679a3ff1cc010691c1d4ec4d0e2a4ebb\n        /* \"CustomToken/ERC20.sol\":2480:2489  numTokens */\n      dup5\n        /* \"CustomToken/ERC20.sol\":2443:2490  transferEvent(msg.sender, recipient ,numTokens) */\n      mload(0x40)\n      tag_81\n      swap2\n      swap1\n      tag_27\n      jump\t// in\n    tag_81:\n      mload(0x40)\n      dup1\n      swap2\n      sub\n      swap1\n      log3\n        /* \"CustomToken/ERC20.sol\":2508:2512  true */\n      0x01\n        /* \"CustomToken/ERC20.sol\":2501:2512  return true */\n      swap1\n      pop\n        /* \"CustomToken/ERC20.sol\":2120:2520  function transfer(address recipient, uint256 numTokens) external override  returns (bool)... */\n      swap3\n      swap2\n      pop\n      pop\n      jump\t// out\n        /* \"CustomToken/ERC20.sol\":1963:2112  function allowance(address owner, address delegate) external override  view returns (uint256)... */\n    tag_56:\n        /* \"CustomToken/ERC20.sol\":2048:2055  uint256 */\n      0x00\n        /* \"CustomToken/ERC20.sol\":2080:2087  allowed */\n      0x01\n        /* \"CustomToken/ERC20.sol\":2080:2094  allowed[owner] */\n      0x00\n        /* \"CustomToken/ERC20.sol\":2088:2093  owner */\n      dup5\n        /* \"CustomToken/ERC20.sol\":2080:2094  allowed[owner] */\n      0xffffffffffffffffffffffffffffffffffffffff\n      and\n      0xffffffffffffffffffffffffffffffffffffffff\n      and\n      dup2\n      mstore\n      0x20\n      add\n      swap1\n      dup2\n      mstore\n      0x20\n      add\n      0x00\n      keccak256\n        /* \"CustomToken/ERC20.sol\":2080:2104  allowed[owner][delegate] */\n      0x00\n        /* \"CustomToken/ERC20.sol\":2095:2103  delegate */\n      dup4\n        /* \"CustomToken/ERC20.sol\":2080:2104  allowed[owner][delegate] */\n      0xffffffffffffffffffffffffffffffffffffffff\n      and\n      0xffffffffffffffffffffffffffffffffffffffff\n      and\n      dup2\n      mstore\n      0x20\n      add\n      swap1\n      dup2\n      mstore\n      0x20\n      add\n      0x00\n      keccak256\n      sload\n        /* \"CustomToken/ERC20.sol\":2073:2104  return allowed[owner][delegate] */\n      swap1\n      pop\n        /* \"CustomToken/ERC20.sol\":1963:2112  function allowance(address owner, address delegate) external override  view returns (uint256)... */\n      swap3\n      swap2\n      pop\n      pop\n      jump\t// out\n        /* \"Libs/SafeMath.sol\":311:430  function sub(uint256 a, uint256 b) internal pure returns (uint256) {... */\n    tag_69:\n        /* \"Libs/SafeMath.sol\":369:376  uint256 */\n      0x00\n        /* \"Libs/SafeMath.sol\":399:400  a */\n      dup3\n        /* \"Libs/SafeMath.sol\":394:395  b */\n      dup3\n        /* \"Libs/SafeMath.sol\":394:400  b <= a */\n      gt\n      iszero\n        /* \"Libs/SafeMath.sol\":387:401  assert(b <= a) */\n      tag_84\n      jumpi\n      tag_85\n      tag_86\n      jump\t// in\n    tag_85:\n    tag_84:\n        /* \"Libs/SafeMath.sol\":421:422  b */\n      dup2\n        /* \"Libs/SafeMath.sol\":417:418  a */\n      dup4\n        /* \"Libs/SafeMath.sol\":417:422  a - b */\n      tag_87\n      swap2\n      swap1\n      tag_88\n      jump\t// in\n    tag_87:\n        /* \"Libs/SafeMath.sol\":410:422  return a - b */\n      swap1\n      pop\n        /* \"Libs/SafeMath.sol\":311:430  function sub(uint256 a, uint256 b) internal pure returns (uint256) {... */\n      swap3\n      swap2\n      pop\n      pop\n      jump\t// out\n        /* \"Libs/SafeMath.sol\":456:597  function add(uint256 a, uint256 b) internal pure returns (uint256) {... */\n    tag_72:\n        /* \"Libs/SafeMath.sol\":514:521  uint256 */\n      0x00\n        /* \"Libs/SafeMath.sol\":532:541  uint256 c */\n      0x00\n        /* \"Libs/SafeMath.sol\":548:549  b */\n      dup3\n        /* \"Libs/SafeMath.sol\":544:545  a */\n      dup5\n        /* \"Libs/SafeMath.sol\":544:549  a + b */\n      tag_90\n      swap2\n      swap1\n      tag_63\n      jump\t// in\n    tag_90:\n        /* \"Libs/SafeMath.sol\":532:549  uint256 c = a + b */\n      swap1\n      pop\n        /* \"Libs/SafeMath.sol\":570:571  a */\n      dup4\n        /* \"Libs/SafeMath.sol\":565:566  c */\n      dup2\n        /* \"Libs/SafeMath.sol\":565:571  c >= a */\n      lt\n      iszero\n        /* \"Libs/SafeMath.sol\":558:572  assert(c >= a) */\n      tag_91\n      jumpi\n      tag_92\n      tag_86\n      jump\t// in\n    tag_92:\n    tag_91:\n        /* \"Libs/SafeMath.sol\":588:589  c */\n      dup1\n        /* \"Libs/SafeMath.sol\":581:589  return c */\n      swap2\n      pop\n      pop\n        /* \"Libs/SafeMath.sol\":456:597  function add(uint256 a, uint256 b) internal pure returns (uint256) {... */\n      swap3\n      swap2\n      pop\n      pop\n      jump\t// out\n        /* \"#utility.yul\":7:106   */\n    tag_93:\n        /* \"#utility.yul\":59:65   */\n      0x00\n        /* \"#utility.yul\":93:98   */\n      dup2\n        /* \"#utility.yul\":87:99   */\n      mload\n        /* \"#utility.yul\":77:99   */\n      swap1\n      pop\n        /* \"#utility.yul\":7:106   */\n      swap2\n      swap1\n      pop\n      jump\t// out\n        /* \"#utility.yul\":112:281   */\n    tag_94:\n        /* \"#utility.yul\":196:207   */\n      0x00\n        /* \"#utility.yul\":230:236   */\n      dup3\n        /* \"#utility.yul\":225:228   */\n      dup3\n        /* \"#utility.yul\":218:237   */\n      mstore\n        /* \"#utility.yul\":270:274   */\n      0x20\n        /* \"#utility.yul\":265:268   */\n      dup3\n        /* \"#utility.yul\":261:275   */\n      add\n        /* \"#utility.yul\":246:275   */\n      swap1\n      pop\n        /* \"#utility.yul\":112:281   */\n      swap3\n      swap2\n      pop\n      pop\n      jump\t// out\n        /* \"#utility.yul\":287:426   */\n    tag_95:\n        /* \"#utility.yul\":376:382   */\n      dup3\n        /* \"#utility.yul\":371:374   */\n      dup2\n        /* \"#utility.yul\":366:369   */\n      dup4\n        /* \"#utility.yul\":360:383   */\n      mcopy\n        /* \"#utility.yul\":417:418   */\n      0x00\n        /* \"#utility.yul\":408:414   */\n      dup4\n        /* \"#utility.yul\":403:406   */\n      dup4\n        /* \"#utility.yul\":399:415   */\n      add\n        /* \"#utility.yul\":392:419   */\n      mstore\n        /* \"#utility.yul\":287:426   */\n      pop\n      pop\n      pop\n      jump\t// out\n        /* \"#utility.yul\":432:534   */\n    tag_96:\n        /* \"#utility.yul\":473:479   */\n      0x00\n        /* \"#utility.yul\":524:526   */\n      0x1f\n        /* \"#utility.yul\":520:527   */\n      not\n        /* \"#utility.yul\":515:517   */\n      0x1f\n        /* \"#utility.yul\":508:513   */\n      dup4\n        /* \"#utility.yul\":504:518   */\n      add\n        /* \"#utility.yul\":500:528   */\n      and\n        /* \"#utility.yul\":490:528   */\n      swap1\n      pop\n        /* \"#utility.yul\":432:534   */\n      swap2\n      swap1\n      pop\n      jump\t// out\n        /* \"#utility.yul\":540:917   */\n    tag_97:\n        /* \"#utility.yul\":628:631   */\n      0x00\n        /* \"#utility.yul\":656:695   */\n      tag_122\n        /* \"#utility.yul\":689:694   */\n      dup3\n        /* \"#utility.yul\":656:695   */\n      tag_93\n      jump\t// in\n    tag_122:\n        /* \"#utility.yul\":711:782   */\n      tag_123\n        /* \"#utility.yul\":775:781   */\n      dup2\n        /* \"#utility.yul\":770:773   */\n      dup6\n        /* \"#utility.yul\":711:782   */\n      tag_94\n      jump\t// in\n    tag_123:\n        /* \"#utility.yul\":704:782   */\n      swap4\n      pop\n        /* \"#utility.yul\":791:856   */\n      tag_124\n        /* \"#utility.yul\":849:855   */\n      dup2\n        /* \"#utility.yul\":844:847   */\n      dup6\n        /* \"#utility.yul\":837:841   */\n      0x20\n        /* \"#utility.yul\":830:835   */\n      dup7\n        /* \"#utility.yul\":826:842   */\n      add\n        /* \"#utility.yul\":791:856   */\n      tag_95\n      jump\t// in\n    tag_124:\n        /* \"#utility.yul\":881:910   */\n      tag_125\n        /* \"#utility.yul\":903:909   */\n      dup2\n        /* \"#utility.yul\":881:910   */\n      tag_96\n      jump\t// in\n    tag_125:\n        /* \"#utility.yul\":876:879   */\n      dup5\n        /* \"#utility.yul\":872:911   */\n      add\n        /* \"#utility.yul\":865:911   */\n      swap2\n      pop\n        /* \"#utility.yul\":632:917   */\n      pop\n        /* \"#utility.yul\":540:917   */\n      swap3\n      swap2\n      pop\n      pop\n      jump\t// out\n        /* \"#utility.yul\":923:1236   */\n    tag_17:\n        /* \"#utility.yul\":1036:1040   */\n      0x00\n        /* \"#utility.yul\":1074:1076   */\n      0x20\n        /* \"#utility.yul\":1063:1072   */\n      dup3\n        /* \"#utility.yul\":1059:1077   */\n      add\n        /* \"#utility.yul\":1051:1077   */\n      swap1\n      pop\n        /* \"#utility.yul\":1123:1132   */\n      dup2\n        /* \"#utility.yul\":1117:1121   */\n      dup2\n        /* \"#utility.yul\":1113:1133   */\n      sub\n        /* \"#utility.yul\":1109:1110   */\n      0x00\n        /* \"#utility.yul\":1098:1107   */\n      dup4\n        /* \"#utility.yul\":1094:1111   */\n      add\n        /* \"#utility.yul\":1087:1134   */\n      mstore\n        /* \"#utility.yul\":1151:1229   */\n      tag_127\n        /* \"#utility.yul\":1224:1228   */\n      dup2\n        /* \"#utility.yul\":1215:1221   */\n      dup5\n        /* \"#utility.yul\":1151:1229   */\n      tag_97\n      jump\t// in\n    tag_127:\n        /* \"#utility.yul\":1143:1229   */\n      swap1\n      pop\n        /* \"#utility.yul\":923:1236   */\n      swap3\n      swap2\n      pop\n      pop\n      jump\t// out\n        /* \"#utility.yul\":1323:1440   */\n    tag_99:\n        /* \"#utility.yul\":1432:1433   */\n      0x00\n        /* \"#utility.yul\":1429:1430   */\n      0x00\n        /* \"#utility.yul\":1422:1434   */\n      revert\n        /* \"#utility.yul\":1569:1695   */\n    tag_101:\n        /* \"#utility.yul\":1606:1613   */\n      0x00\n        /* \"#utility.yul\":1646:1688   */\n      0xffffffffffffffffffffffffffffffffffffffff\n        /* \"#utility.yul\":1639:1644   */\n      dup3\n        /* \"#utility.yul\":1635:1689   */\n      and\n        /* \"#utility.yul\":1624:1689   */\n      swap1\n      pop\n        /* \"#utility.yul\":1569:1695   */\n      swap2\n      swap1\n      pop\n      jump\t// out\n        /* \"#utility.yul\":1701:1797   */\n    tag_102:\n        /* \"#utility.yul\":1738:1745   */\n      0x00\n        /* \"#utility.yul\":1767:1791   */\n      tag_133\n        /* \"#utility.yul\":1785:1790   */\n      dup3\n        /* \"#utility.yul\":1767:1791   */\n      tag_101\n      jump\t// in\n    tag_133:\n        /* \"#utility.yul\":1756:1791   */\n      swap1\n      pop\n        /* \"#utility.yul\":1701:1797   */\n      swap2\n      swap1\n      pop\n      jump\t// out\n        /* \"#utility.yul\":1803:1925   */\n    tag_103:\n        /* \"#utility.yul\":1876:1900   */\n      tag_135\n        /* \"#utility.yul\":1894:1899   */\n      dup2\n        /* \"#utility.yul\":1876:1900   */\n      tag_102\n      jump\t// in\n    tag_135:\n        /* \"#utility.yul\":1869:1874   */\n      dup2\n        /* \"#utility.yul\":1866:1901   */\n      eq\n        /* \"#utility.yul\":1856:1919   */\n      tag_136\n      jumpi\n        /* \"#utility.yul\":1915:1916   */\n      0x00\n        /* \"#utility.yul\":1912:1913   */\n      0x00\n        /* \"#utility.yul\":1905:1917   */\n      revert\n        /* \"#utility.yul\":1856:1919   */\n    tag_136:\n        /* \"#utility.yul\":1803:1925   */\n      pop\n      jump\t// out\n        /* \"#utility.yul\":1931:2070   */\n    tag_104:\n        /* \"#utility.yul\":1977:1982   */\n      0x00\n        /* \"#utility.yul\":2015:2021   */\n      dup2\n        /* \"#utility.yul\":2002:2022   */\n      calldataload\n        /* \"#utility.yul\":1993:2022   */\n      swap1\n      pop\n        /* \"#utility.yul\":2031:2064   */\n      tag_138\n        /* \"#utility.yul\":2058:2063   */\n      dup2\n        /* \"#utility.yul\":2031:2064   */\n      tag_103\n      jump\t// in\n    tag_138:\n        /* \"#utility.yul\":1931:2070   */\n      swap3\n      swap2\n      pop\n      pop\n      jump\t// out\n        /* \"#utility.yul\":2076:2153   */\n    tag_105:\n        /* \"#utility.yul\":2113:2120   */\n      0x00\n        /* \"#utility.yul\":2142:2147   */\n      dup2\n        /* \"#utility.yul\":2131:2147   */\n      swap1\n      pop\n        /* \"#utility.yul\":2076:2153   */\n      swap2\n      swap1\n      pop\n      jump\t// out\n        /* \"#utility.yul\":2159:2281   */\n    tag_106:\n        /* \"#utility.yul\":2232:2256   */\n      tag_141\n        /* \"#utility.yul\":2250:2255   */\n      dup2\n        /* \"#utility.yul\":2232:2256   */\n      tag_105\n      jump\t// in\n    tag_141:\n        /* \"#utility.yul\":2225:2230   */\n      dup2\n        /* \"#utility.yul\":2222:2257   */\n      eq\n        /* \"#utility.yul\":2212:2275   */\n      tag_142\n      jumpi\n        /* \"#utility.yul\":2271:2272   */\n      0x00\n        /* \"#utility.yul\":2268:2269   */\n      0x00\n        /* \"#utility.yul\":2261:2273   */\n      revert\n        /* \"#utility.yul\":2212:2275   */\n    tag_142:\n        /* \"#utility.yul\":2159:2281   */\n      pop\n      jump\t// out\n        /* \"#utility.yul\":2287:2426   */\n    tag_107:\n        /* \"#utility.yul\":2333:2338   */\n      0x00\n        /* \"#utility.yul\":2371:2377   */\n      dup2\n        /* \"#utility.yul\":2358:2378   */\n      calldataload\n        /* \"#utility.yul\":2349:2378   */\n      swap1\n      pop\n        /* \"#utility.yul\":2387:2420   */\n      tag_144\n        /* \"#utility.yul\":2414:2419   */\n      dup2\n        /* \"#utility.yul\":2387:2420   */\n      tag_106\n      jump\t// in\n    tag_144:\n        /* \"#utility.yul\":2287:2426   */\n      swap3\n      swap2\n      pop\n      pop\n      jump\t// out\n        /* \"#utility.yul\":2432:2906   */\n    tag_20:\n        /* \"#utility.yul\":2500:2506   */\n      0x00\n        /* \"#utility.yul\":2508:2514   */\n      0x00\n        /* \"#utility.yul\":2557:2559   */\n      0x40\n        /* \"#utility.yul\":2545:2554   */\n      dup4\n        /* \"#utility.yul\":2536:2543   */\n      dup6\n        /* \"#utility.yul\":2532:2555   */\n      sub\n        /* \"#utility.yul\":2528:2560   */\n      slt\n        /* \"#utility.yul\":2525:2644   */\n      iszero\n      tag_146\n      jumpi\n        /* \"#utility.yul\":2563:2642   */\n      tag_147\n      tag_99\n      jump\t// in\n    tag_147:\n        /* \"#utility.yul\":2525:2644   */\n    tag_146:\n        /* \"#utility.yul\":2683:2684   */\n      0x00\n        /* \"#utility.yul\":2708:2761   */\n      tag_148\n        /* \"#utility.yul\":2753:2760   */\n      dup6\n        /* \"#utility.yul\":2744:2750   */\n      dup3\n        /* \"#utility.yul\":2733:2742   */\n      dup7\n        /* \"#utility.yul\":2729:2751   */\n      add\n        /* \"#utility.yul\":2708:2761   */\n      tag_104\n      jump\t// in\n    tag_148:\n        /* \"#utility.yul\":2698:2761   */\n      swap3\n      pop\n        /* \"#utility.yul\":2654:2771   */\n      pop\n        /* \"#utility.yul\":2810:2812   */\n      0x20\n        /* \"#utility.yul\":2836:2889   */\n      tag_149\n        /* \"#utility.yul\":2881:2888   */\n      dup6\n        /* \"#utility.yul\":2872:2878   */\n      dup3\n        /* \"#utility.yul\":2861:2870   */\n      dup7\n        /* \"#utility.yul\":2857:2879   */\n      add\n        /* \"#utility.yul\":2836:2889   */\n      tag_107\n      jump\t// in\n    tag_149:\n        /* \"#utility.yul\":2826:2889   */\n      swap2\n      pop\n        /* \"#utility.yul\":2781:2899   */\n      pop\n        /* \"#utility.yul\":2432:2906   */\n      swap3\n      pop\n      swap3\n      swap1\n      pop\n      jump\t// out\n        /* \"#utility.yul\":2912:3002   */\n    tag_108:\n        /* \"#utility.yul\":2946:2953   */\n      0x00\n        /* \"#utility.yul\":2989:2994   */\n      dup2\n        /* \"#utility.yul\":2982:2995   */\n      iszero\n        /* \"#utility.yul\":2975:2996   */\n      iszero\n        /* \"#utility.yul\":2964:2996   */\n      swap1\n      pop\n        /* \"#utility.yul\":2912:3002   */\n      swap2\n      swap1\n      pop\n      jump\t// out\n        /* \"#utility.yul\":3008:3117   */\n    tag_109:\n        /* \"#utility.yul\":3089:3110   */\n      tag_152\n        /* \"#utility.yul\":3104:3109   */\n      dup2\n        /* \"#utility.yul\":3089:3110   */\n      tag_108\n      jump\t// in\n    tag_152:\n        /* \"#utility.yul\":3084:3087   */\n      dup3\n        /* \"#utility.yul\":3077:3111   */\n      mstore\n        /* \"#utility.yul\":3008:3117   */\n      pop\n      pop\n      jump\t// out\n        /* \"#utility.yul\":3123:3333   */\n    tag_23:\n        /* \"#utility.yul\":3210:3214   */\n      0x00\n        /* \"#utility.yul\":3248:3250   */\n      0x20\n        /* \"#utility.yul\":3237:3246   */\n      dup3\n        /* \"#utility.yul\":3233:3251   */\n      add\n        /* \"#utility.yul\":3225:3251   */\n      swap1\n      pop\n        /* \"#utility.yul\":3261:3326   */\n      tag_154\n        /* \"#utility.yul\":3323:3324   */\n      0x00\n        /* \"#utility.yul\":3312:3321   */\n      dup4\n        /* \"#utility.yul\":3308:3325   */\n      add\n        /* \"#utility.yul\":3299:3305   */\n      dup5\n        /* \"#utility.yul\":3261:3326   */\n      tag_109\n      jump\t// in\n    tag_154:\n        /* \"#utility.yul\":3123:3333   */\n      swap3\n      swap2\n      pop\n      pop\n      jump\t// out\n        /* \"#utility.yul\":3339:3457   */\n    tag_110:\n        /* \"#utility.yul\":3426:3450   */\n      tag_156\n        /* \"#utility.yul\":3444:3449   */\n      dup2\n        /* \"#utility.yul\":3426:3450   */\n      tag_105\n      jump\t// in\n    tag_156:\n        /* \"#utility.yul\":3421:3424   */\n      dup3\n        /* \"#utility.yul\":3414:3451   */\n      mstore\n        /* \"#utility.yul\":3339:3457   */\n      pop\n      pop\n      jump\t// out\n        /* \"#utility.yul\":3463:3685   */\n    tag_27:\n        /* \"#utility.yul\":3556:3560   */\n      0x00\n        /* \"#utility.yul\":3594:3596   */\n      0x20\n        /* \"#utility.yul\":3583:3592   */\n      dup3\n        /* \"#utility.yul\":3579:3597   */\n      add\n        /* \"#utility.yul\":3571:3597   */\n      swap1\n      pop\n        /* \"#utility.yul\":3607:3678   */\n      tag_158\n        /* \"#utility.yul\":3675:3676   */\n      0x00\n        /* \"#utility.yul\":3664:3673   */\n      dup4\n        /* \"#utility.yul\":3660:3677   */\n      add\n        /* \"#utility.yul\":3651:3657   */\n      dup5\n        /* \"#utility.yul\":3607:3678   */\n      tag_110\n      jump\t// in\n    tag_158:\n        /* \"#utility.yul\":3463:3685   */\n      swap3\n      swap2\n      pop\n      pop\n      jump\t// out\n        /* \"#utility.yul\":3691:4020   */\n    tag_30:\n        /* \"#utility.yul\":3750:3756   */\n      0x00\n        /* \"#utility.yul\":3799:3801   */\n      0x20\n        /* \"#utility.yul\":3787:3796   */\n      dup3\n        /* \"#utility.yul\":3778:3785   */\n      dup5\n        /* \"#utility.yul\":3774:3797   */\n      sub\n        /* \"#utility.yul\":3770:3802   */\n      slt\n        /* \"#utility.yul\":3767:3886   */\n      iszero\n      tag_160\n      jumpi\n        /* \"#utility.yul\":3805:3884   */\n      tag_161\n      tag_99\n      jump\t// in\n    tag_161:\n        /* \"#utility.yul\":3767:3886   */\n    tag_160:\n        /* \"#utility.yul\":3925:3926   */\n      0x00\n        /* \"#utility.yul\":3950:4003   */\n      tag_162\n        /* \"#utility.yul\":3995:4002   */\n      dup5\n        /* \"#utility.yul\":3986:3992   */\n      dup3\n        /* \"#utility.yul\":3975:3984   */\n      dup6\n        /* \"#utility.yul\":3971:3993   */\n      add\n        /* \"#utility.yul\":3950:4003   */\n      tag_107\n      jump\t// in\n    tag_162:\n        /* \"#utility.yul\":3940:4003   */\n      swap2\n      pop\n        /* \"#utility.yul\":3896:4013   */\n      pop\n        /* \"#utility.yul\":3691:4020   */\n      swap3\n      swap2\n      pop\n      pop\n      jump\t// out\n        /* \"#utility.yul\":4026:4645   */\n    tag_34:\n        /* \"#utility.yul\":4103:4109   */\n      0x00\n        /* \"#utility.yul\":4111:4117   */\n      0x00\n        /* \"#utility.yul\":4119:4125   */\n      0x00\n        /* \"#utility.yul\":4168:4170   */\n      0x60\n        /* \"#utility.yul\":4156:4165   */\n      dup5\n        /* \"#utility.yul\":4147:4154   */\n      dup7\n        /* \"#utility.yul\":4143:4166   */\n      sub\n        /* \"#utility.yul\":4139:4171   */\n      slt\n        /* \"#utility.yul\":4136:4255   */\n      iszero\n      tag_164\n      jumpi\n        /* \"#utility.yul\":4174:4253   */\n      tag_165\n      tag_99\n      jump\t// in\n    tag_165:\n        /* \"#utility.yul\":4136:4255   */\n    tag_164:\n        /* \"#utility.yul\":4294:4295   */\n      0x00\n        /* \"#utility.yul\":4319:4372   */\n      tag_166\n        /* \"#utility.yul\":4364:4371   */\n      dup7\n        /* \"#utility.yul\":4355:4361   */\n      dup3\n        /* \"#utility.yul\":4344:4353   */\n      dup8\n        /* \"#utility.yul\":4340:4362   */\n      add\n        /* \"#utility.yul\":4319:4372   */\n      tag_104\n      jump\t// in\n    tag_166:\n        /* \"#utility.yul\":4309:4372   */\n      swap4\n      pop\n        /* \"#utility.yul\":4265:4382   */\n      pop\n        /* \"#utility.yul\":4421:4423   */\n      0x20\n        /* \"#utility.yul\":4447:4500   */\n      tag_167\n        /* \"#utility.yul\":4492:4499   */\n      dup7\n        /* \"#utility.yul\":4483:4489   */\n      dup3\n        /* \"#utility.yul\":4472:4481   */\n      dup8\n        /* \"#utility.yul\":4468:4490   */\n      add\n        /* \"#utility.yul\":4447:4500   */\n      tag_104\n      jump\t// in\n    tag_167:\n        /* \"#utility.yul\":4437:4500   */\n      swap3\n      pop\n        /* \"#utility.yul\":4392:4510   */\n      pop\n        /* \"#utility.yul\":4549:4551   */\n      0x40\n        /* \"#utility.yul\":4575:4628   */\n      tag_168\n        /* \"#utility.yul\":4620:4627   */\n      dup7\n        /* \"#utility.yul\":4611:4617   */\n      dup3\n        /* \"#utility.yul\":4600:4609   */\n      dup8\n        /* \"#utility.yul\":4596:4618   */\n      add\n        /* \"#utility.yul\":4575:4628   */\n      tag_107\n      jump\t// in\n    tag_168:\n        /* \"#utility.yul\":4565:4628   */\n      swap2\n      pop\n        /* \"#utility.yul\":4520:4638   */\n      pop\n        /* \"#utility.yul\":4026:4645   */\n      swap3\n      pop\n      swap3\n      pop\n      swap3\n      jump\t// out\n        /* \"#utility.yul\":4651:4737   */\n    tag_111:\n        /* \"#utility.yul\":4686:4693   */\n      0x00\n        /* \"#utility.yul\":4726:4730   */\n      0xff\n        /* \"#utility.yul\":4719:4724   */\n      dup3\n        /* \"#utility.yul\":4715:4731   */\n      and\n        /* \"#utility.yul\":4704:4731   */\n      swap1\n      pop\n        /* \"#utility.yul\":4651:4737   */\n      swap2\n      swap1\n      pop\n      jump\t// out\n        /* \"#utility.yul\":4743:4855   */\n    tag_112:\n        /* \"#utility.yul\":4826:4848   */\n      tag_171\n        /* \"#utility.yul\":4842:4847   */\n      dup2\n        /* \"#utility.yul\":4826:4848   */\n      tag_111\n      jump\t// in\n    tag_171:\n        /* \"#utility.yul\":4821:4824   */\n      dup3\n        /* \"#utility.yul\":4814:4849   */\n      mstore\n        /* \"#utility.yul\":4743:4855   */\n      pop\n      pop\n      jump\t// out\n        /* \"#utility.yul\":4861:5075   */\n    tag_40:\n        /* \"#utility.yul\":4950:4954   */\n      0x00\n        /* \"#utility.yul\":4988:4990   */\n      0x20\n        /* \"#utility.yul\":4977:4986   */\n      dup3\n        /* \"#utility.yul\":4973:4991   */\n      add\n        /* \"#utility.yul\":4965:4991   */\n      swap1\n      pop\n        /* \"#utility.yul\":5001:5068   */\n      tag_173\n        /* \"#utility.yul\":5065:5066   */\n      0x00\n        /* \"#utility.yul\":5054:5063   */\n      dup4\n        /* \"#utility.yul\":5050:5067   */\n      add\n        /* \"#utility.yul\":5041:5047   */\n      dup5\n        /* \"#utility.yul\":5001:5068   */\n      tag_112\n      jump\t// in\n    tag_173:\n        /* \"#utility.yul\":4861:5075   */\n      swap3\n      swap2\n      pop\n      pop\n      jump\t// out\n        /* \"#utility.yul\":5081:5410   */\n    tag_43:\n        /* \"#utility.yul\":5140:5146   */\n      0x00\n        /* \"#utility.yul\":5189:5191   */\n      0x20\n        /* \"#utility.yul\":5177:5186   */\n      dup3\n        /* \"#utility.yul\":5168:5175   */\n      dup5\n        /* \"#utility.yul\":5164:5187   */\n      sub\n        /* \"#utility.yul\":5160:5192   */\n      slt\n        /* \"#utility.yul\":5157:5276   */\n      iszero\n      tag_175\n      jumpi\n        /* \"#utility.yul\":5195:5274   */\n      tag_176\n      tag_99\n      jump\t// in\n    tag_176:\n        /* \"#utility.yul\":5157:5276   */\n    tag_175:\n        /* \"#utility.yul\":5315:5316   */\n      0x00\n        /* \"#utility.yul\":5340:5393   */\n      tag_177\n        /* \"#utility.yul\":5385:5392   */\n      dup5\n        /* \"#utility.yul\":5376:5382   */\n      dup3\n        /* \"#utility.yul\":5365:5374   */\n      dup6\n        /* \"#utility.yul\":5361:5383   */\n      add\n        /* \"#utility.yul\":5340:5393   */\n      tag_104\n      jump\t// in\n    tag_177:\n        /* \"#utility.yul\":5330:5393   */\n      swap2\n      pop\n        /* \"#utility.yul\":5286:5403   */\n      pop\n        /* \"#utility.yul\":5081:5410   */\n      swap3\n      swap2\n      pop\n      pop\n      jump\t// out\n        /* \"#utility.yul\":5416:5890   */\n    tag_55:\n        /* \"#utility.yul\":5484:5490   */\n      0x00\n        /* \"#utility.yul\":5492:5498   */\n      0x00\n        /* \"#utility.yul\":5541:5543   */\n      0x40\n        /* \"#utility.yul\":5529:5538   */\n      dup4\n        /* \"#utility.yul\":5520:5527   */\n      dup6\n        /* \"#utility.yul\":5516:5539   */\n      sub\n        /* \"#utility.yul\":5512:5544   */\n      slt\n        /* \"#utility.yul\":5509:5628   */\n      iszero\n      tag_179\n      jumpi\n        /* \"#utility.yul\":5547:5626   */\n      tag_180\n      tag_99\n      jump\t// in\n    tag_180:\n        /* \"#utility.yul\":5509:5628   */\n    tag_179:\n        /* \"#utility.yul\":5667:5668   */\n      0x00\n        /* \"#utility.yul\":5692:5745   */\n      tag_181\n        /* \"#utility.yul\":5737:5744   */\n      dup6\n        /* \"#utility.yul\":5728:5734   */\n      dup3\n        /* \"#utility.yul\":5717:5726   */\n      dup7\n        /* \"#utility.yul\":5713:5735   */\n      add\n        /* \"#utility.yul\":5692:5745   */\n      tag_104\n      jump\t// in\n    tag_181:\n        /* \"#utility.yul\":5682:5745   */\n      swap3\n      pop\n        /* \"#utility.yul\":5638:5755   */\n      pop\n        /* \"#utility.yul\":5794:5796   */\n      0x20\n        /* \"#utility.yul\":5820:5873   */\n      tag_182\n        /* \"#utility.yul\":5865:5872   */\n      dup6\n        /* \"#utility.yul\":5856:5862   */\n      dup3\n        /* \"#utility.yul\":5845:5854   */\n      dup7\n        /* \"#utility.yul\":5841:5863   */\n      add\n        /* \"#utility.yul\":5820:5873   */\n      tag_104\n      jump\t// in\n    tag_182:\n        /* \"#utility.yul\":5810:5873   */\n      swap2\n      pop\n        /* \"#utility.yul\":5765:5883   */\n      pop\n        /* \"#utility.yul\":5416:5890   */\n      swap3\n      pop\n      swap3\n      swap1\n      pop\n      jump\t// out\n        /* \"#utility.yul\":5896:6076   */\n    tag_113:\n        /* \"#utility.yul\":5944:6021   */\n      0x4e487b7100000000000000000000000000000000000000000000000000000000\n        /* \"#utility.yul\":5941:5942   */\n      0x00\n        /* \"#utility.yul\":5934:6022   */\n      mstore\n        /* \"#utility.yul\":6041:6045   */\n      0x11\n        /* \"#utility.yul\":6038:6039   */\n      0x04\n        /* \"#utility.yul\":6031:6046   */\n      mstore\n        /* \"#utility.yul\":6065:6069   */\n      0x24\n        /* \"#utility.yul\":6062:6063   */\n      0x00\n        /* \"#utility.yul\":6055:6070   */\n      revert\n        /* \"#utility.yul\":6082:6273   */\n    tag_63:\n        /* \"#utility.yul\":6122:6125   */\n      0x00\n        /* \"#utility.yul\":6141:6161   */\n      tag_185\n        /* \"#utility.yul\":6159:6160   */\n      dup3\n        /* \"#utility.yul\":6141:6161   */\n      tag_105\n      jump\t// in\n    tag_185:\n        /* \"#utility.yul\":6136:6161   */\n      swap2\n      pop\n        /* \"#utility.yul\":6175:6195   */\n      tag_186\n        /* \"#utility.yul\":6193:6194   */\n      dup4\n        /* \"#utility.yul\":6175:6195   */\n      tag_105\n      jump\t// in\n    tag_186:\n        /* \"#utility.yul\":6170:6195   */\n      swap3\n      pop\n        /* \"#utility.yul\":6218:6219   */\n      dup3\n        /* \"#utility.yul\":6215:6216   */\n      dup3\n        /* \"#utility.yul\":6211:6220   */\n      add\n        /* \"#utility.yul\":6204:6220   */\n      swap1\n      pop\n        /* \"#utility.yul\":6239:6242   */\n      dup1\n        /* \"#utility.yul\":6236:6237   */\n      dup3\n        /* \"#utility.yul\":6233:6243   */\n      gt\n        /* \"#utility.yul\":6230:6266   */\n      iszero\n      tag_187\n      jumpi\n        /* \"#utility.yul\":6246:6264   */\n      tag_188\n      tag_113\n      jump\t// in\n    tag_188:\n        /* \"#utility.yul\":6230:6266   */\n    tag_187:\n        /* \"#utility.yul\":6082:6273   */\n      swap3\n      swap2\n      pop\n      pop\n      jump\t// out\n        /* \"#utility.yul\":6279:6449   */\n    tag_114:\n        /* \"#utility.yul\":6419:6441   */\n      0x696e73756666696369656e742062616c616e6365000000000000000000000000\n        /* \"#utility.yul\":6415:6416   */\n      0x00\n        /* \"#utility.yul\":6407:6413   */\n      dup3\n        /* \"#utility.yul\":6403:6417   */\n      add\n        /* \"#utility.yul\":6396:6442   */\n      mstore\n        /* \"#utility.yul\":6279:6449   */\n      pop\n      jump\t// out\n        /* \"#utility.yul\":6455:6821   */\n    tag_115:\n        /* \"#utility.yul\":6597:6600   */\n      0x00\n        /* \"#utility.yul\":6618:6685   */\n      tag_191\n        /* \"#utility.yul\":6682:6684   */\n      0x14\n        /* \"#utility.yul\":6677:6680   */\n      dup4\n        /* \"#utility.yul\":6618:6685   */\n      tag_94\n      jump\t// in\n    tag_191:\n        /* \"#utility.yul\":6611:6685   */\n      swap2\n      pop\n        /* \"#utility.yul\":6694:6787   */\n      tag_192\n        /* \"#utility.yul\":6783:6786   */\n      dup3\n        /* \"#utility.yul\":6694:6787   */\n      tag_114\n      jump\t// in\n    tag_192:\n        /* \"#utility.yul\":6812:6814   */\n      0x20\n        /* \"#utility.yul\":6807:6810   */\n      dup3\n        /* \"#utility.yul\":6803:6815   */\n      add\n        /* \"#utility.yul\":6796:6815   */\n      swap1\n      pop\n        /* \"#utility.yul\":6455:6821   */\n      swap2\n      swap1\n      pop\n      jump\t// out\n        /* \"#utility.yul\":6827:7246   */\n    tag_78:\n        /* \"#utility.yul\":6993:6997   */\n      0x00\n        /* \"#utility.yul\":7031:7033   */\n      0x20\n        /* \"#utility.yul\":7020:7029   */\n      dup3\n        /* \"#utility.yul\":7016:7034   */\n      add\n        /* \"#utility.yul\":7008:7034   */\n      swap1\n      pop\n        /* \"#utility.yul\":7080:7089   */\n      dup2\n        /* \"#utility.yul\":7074:7078   */\n      dup2\n        /* \"#utility.yul\":7070:7090   */\n      sub\n        /* \"#utility.yul\":7066:7067   */\n      0x00\n        /* \"#utility.yul\":7055:7064   */\n      dup4\n        /* \"#utility.yul\":7051:7068   */\n      add\n        /* \"#utility.yul\":7044:7091   */\n      mstore\n        /* \"#utility.yul\":7108:7239   */\n      tag_194\n        /* \"#utility.yul\":7234:7238   */\n      dup2\n        /* \"#utility.yul\":7108:7239   */\n      tag_115\n      jump\t// in\n    tag_194:\n        /* \"#utility.yul\":7100:7239   */\n      swap1\n      pop\n        /* \"#utility.yul\":6827:7246   */\n      swap2\n      swap1\n      pop\n      jump\t// out\n        /* \"#utility.yul\":7252:7432   */\n    tag_86:\n        /* \"#utility.yul\":7300:7377   */\n      0x4e487b7100000000000000000000000000000000000000000000000000000000\n        /* \"#utility.yul\":7297:7298   */\n      0x00\n        /* \"#utility.yul\":7290:7378   */\n      mstore\n        /* \"#utility.yul\":7397:7401   */\n      0x01\n        /* \"#utility.yul\":7394:7395   */\n      0x04\n        /* \"#utility.yul\":7387:7402   */\n      mstore\n        /* \"#utility.yul\":7421:7425   */\n      0x24\n        /* \"#utility.yul\":7418:7419   */\n      0x00\n        /* \"#utility.yul\":7411:7426   */\n      revert\n        /* \"#utility.yul\":7438:7632   */\n    tag_88:\n        /* \"#utility.yul\":7478:7482   */\n      0x00\n        /* \"#utility.yul\":7498:7518   */\n      tag_197\n        /* \"#utility.yul\":7516:7517   */\n      dup3\n        /* \"#utility.yul\":7498:7518   */\n      tag_105\n      jump\t// in\n    tag_197:\n        /* \"#utility.yul\":7493:7518   */\n      swap2\n      pop\n        /* \"#utility.yul\":7532:7552   */\n      tag_198\n        /* \"#utility.yul\":7550:7551   */\n      dup4\n        /* \"#utility.yul\":7532:7552   */\n      tag_105\n      jump\t// in\n    tag_198:\n        /* \"#utility.yul\":7527:7552   */\n      swap3\n      pop\n        /* \"#utility.yul\":7576:7577   */\n      dup3\n        /* \"#utility.yul\":7573:7574   */\n      dup3\n        /* \"#utility.yul\":7569:7578   */\n      sub\n        /* \"#utility.yul\":7561:7578   */\n      swap1\n      pop\n        /* \"#utility.yul\":7600:7601   */\n      dup2\n        /* \"#utility.yul\":7594:7598   */\n      dup2\n        /* \"#utility.yul\":7591:7602   */\n      gt\n        /* \"#utility.yul\":7588:7625   */\n      iszero\n      tag_199\n      jumpi\n        /* \"#utility.yul\":7605:7623   */\n      tag_200\n      tag_113\n      jump\t// in\n    tag_200:\n        /* \"#utility.yul\":7588:7625   */\n    tag_199:\n        /* \"#utility.yul\":7438:7632   */\n      swap3\n      swap2\n      pop\n      pop\n      jump\t// out\n\n    auxdata: 0xa2646970667358221220b93d3b1dca4c4f4add7b79bee09312d928274937c3d774d66919dfdffa04d6e464736f6c634300081e0033\n}\n",
				"bytecode": {
					"linkReferences": {},
					"object": "6080604052348015600e575f5ffd5b50604051610f97380380610f978339818101604052810190602e919060af565b806002819055506002545f5f3373ffffffffffffffffffffffffffffffffffffffff1673ffffffffffffffffffffffffffffffffffffffff1681526020019081526020015f20819055505060d5565b5f5ffd5b5f819050919050565b6091816081565b8114609a575f5ffd5b50565b5f8151905060a981608a565b92915050565b5f6020828403121560c15760c0607d565b5b5f60cc84828501609d565b91505092915050565b610eb5806100e25f395ff3fe608060405234801561000f575f5ffd5b506004361061009c575f3560e01c8063313ce56711610064578063313ce5671461015857806370a082311461017657806395d89b41146101a6578063a9059cbb146101c4578063dd62ed3e146101f45761009c565b806306fdde03146100a0578063095ea7b3146100be57806318160ddd146100ee5780631d43cc981461010c57806323b872dd14610128575b5f5ffd5b6100a8610224565b6040516100b59190610af5565b60405180910390f35b6100d860048036038101906100d39190610ba6565b61025d565b6040516100e59190610bfe565b60405180910390f35b6100f661034a565b6040516101039190610c26565b60405180910390f35b61012660048036038101906101219190610c3f565b610353565b005b610142600480360381019061013d9190610c6a565b6103c0565b60405161014f9190610bfe565b60405180910390f35b610160610722565b60405161016d9190610cd5565b60405180910390f35b610190600480360381019061018b9190610cee565b610727565b60405161019d9190610c26565b60405180910390f35b6101ae61076c565b6040516101bb9190610af5565b60405180910390f35b6101de60048036038101906101d99190610ba6565b6107a5565b6040516101eb9190610bfe565b60405180910390f35b61020e60048036038101906102099190610d19565b6109b2565b60405161021b9190610c26565b60405180910390f35b6040518060400160405280600f81526020017f45524332304a6f737565436861696e000000000000000000000000000000000081525081565b5f8160015f3373ffffffffffffffffffffffffffffffffffffffff1673ffffffffffffffffffffffffffffffffffffffff1681526020019081526020015f205f8573ffffffffffffffffffffffffffffffffffffffff1673ffffffffffffffffffffffffffffffffffffffff1681526020019081526020015f20819055508273ffffffffffffffffffffffffffffffffffffffff163373ffffffffffffffffffffffffffffffffffffffff167fd04c27822ed43674489d02367b63f0c5d0b6b232088b6515b73d546217b3457d846040516103389190610c26565b60405180910390a36001905092915050565b5f600254905090565b8060025f8282546103649190610d84565b92505081905550805f5f3373ffffffffffffffffffffffffffffffffffffffff1673ffffffffffffffffffffffffffffffffffffffff1681526020019081526020015f205f8282546103b69190610d84565b9250508190555050565b5f5f5f8573ffffffffffffffffffffffffffffffffffffffff1673ffffffffffffffffffffffffffffffffffffffff1681526020019081526020015f2054821115610409575f5ffd5b60015f8573ffffffffffffffffffffffffffffffffffffffff1673ffffffffffffffffffffffffffffffffffffffff1681526020019081526020015f205f3373ffffffffffffffffffffffffffffffffffffffff1673ffffffffffffffffffffffffffffffffffffffff1681526020019081526020015f205482111561048d575f5ffd5b6104dc825f5f8773ffffffffffffffffffffffffffffffffffffffff1673ffffffffffffffffffffffffffffffffffffffff1681526020019081526020015f2054610a3490919063ffffffff16565b5f5f8673ffffffffffffffffffffffffffffffffffffffff1673ffffffffffffffffffffffffffffffffffffffff1681526020019081526020015f20819055506105a78260015f8773ffffffffffffffffffffffffffffffffffffffff1673ffffffffffffffffffffffffffffffffffffffff1681526020019081526020015f205f3373ffffffffffffffffffffffffffffffffffffffff1673ffffffffffffffffffffffffffffffffffffffff1681526020019081526020015f2054610a3490919063ffffffff16565b60015f8673ffffffffffffffffffffffffffffffffffffffff1673ffffffffffffffffffffffffffffffffffffffff1681526020019081526020015f205f3373ffffffffffffffffffffffffffffffffffffffff1673ffffffffffffffffffffffffffffffffffffffff1681526020019081526020015f2081905550610672825f5f8673ffffffffffffffffffffffffffffffffffffffff1673ffffffffffffffffffffffffffffffffffffffff1681526020019081526020015f2054610a5a90919063ffffffff16565b5f5f8573ffffffffffffffffffffffffffffffffffffffff1673ffffffffffffffffffffffffffffffffffffffff1681526020019081526020015f20819055508273ffffffffffffffffffffffffffffffffffffffff168473ffffffffffffffffffffffffffffffffffffffff167f5d439cf3a1f6215b41908e5b0b300f39679a3ff1cc010691c1d4ec4d0e2a4ebb8460405161070f9190610c26565b60405180910390a3600190509392505050565b600281565b5f5f5f8373ffffffffffffffffffffffffffffffffffffffff1673ffffffffffffffffffffffffffffffffffffffff1681526020019081526020015f20549050919050565b6040518060400160405280600581526020017f4554484a4300000000000000000000000000000000000000000000000000000081525081565b5f5f5f3373ffffffffffffffffffffffffffffffffffffffff1673ffffffffffffffffffffffffffffffffffffffff1681526020019081526020015f2054821115610825576040517f08c379a000000000000000000000000000000000000000000000000000000000815260040161081c90610e01565b60405180910390fd5b610874825f5f3373ffffffffffffffffffffffffffffffffffffffff1673ffffffffffffffffffffffffffffffffffffffff1681526020019081526020015f2054610a3490919063ffffffff16565b5f5f3373ffffffffffffffffffffffffffffffffffffffff1673ffffffffffffffffffffffffffffffffffffffff1681526020019081526020015f2081905550610903825f5f8673ffffffffffffffffffffffffffffffffffffffff1673ffffffffffffffffffffffffffffffffffffffff1681526020019081526020015f2054610a5a90919063ffffffff16565b5f5f8573ffffffffffffffffffffffffffffffffffffffff1673ffffffffffffffffffffffffffffffffffffffff1681526020019081526020015f20819055508273ffffffffffffffffffffffffffffffffffffffff163373ffffffffffffffffffffffffffffffffffffffff167f5d439cf3a1f6215b41908e5b0b300f39679a3ff1cc010691c1d4ec4d0e2a4ebb846040516109a09190610c26565b60405180910390a36001905092915050565b5f60015f8473ffffffffffffffffffffffffffffffffffffffff1673ffffffffffffffffffffffffffffffffffffffff1681526020019081526020015f205f8373ffffffffffffffffffffffffffffffffffffffff1673ffffffffffffffffffffffffffffffffffffffff1681526020019081526020015f2054905092915050565b5f82821115610a4657610a45610e1f565b5b8183610a529190610e4c565b905092915050565b5f5f8284610a689190610d84565b905083811015610a7b57610a7a610e1f565b5b8091505092915050565b5f81519050919050565b5f82825260208201905092915050565b8281835e5f83830152505050565b5f601f19601f8301169050919050565b5f610ac782610a85565b610ad18185610a8f565b9350610ae1818560208601610a9f565b610aea81610aad565b840191505092915050565b5f6020820190508181035f830152610b0d8184610abd565b905092915050565b5f5ffd5b5f73ffffffffffffffffffffffffffffffffffffffff82169050919050565b5f610b4282610b19565b9050919050565b610b5281610b38565b8114610b5c575f5ffd5b50565b5f81359050610b6d81610b49565b92915050565b5f819050919050565b610b8581610b73565b8114610b8f575f5ffd5b50565b5f81359050610ba081610b7c565b92915050565b5f5f60408385031215610bbc57610bbb610b15565b5b5f610bc985828601610b5f565b9250506020610bda85828601610b92565b9150509250929050565b5f8115159050919050565b610bf881610be4565b82525050565b5f602082019050610c115f830184610bef565b92915050565b610c2081610b73565b82525050565b5f602082019050610c395f830184610c17565b92915050565b5f60208284031215610c5457610c53610b15565b5b5f610c6184828501610b92565b91505092915050565b5f5f5f60608486031215610c8157610c80610b15565b5b5f610c8e86828701610b5f565b9350506020610c9f86828701610b5f565b9250506040610cb086828701610b92565b9150509250925092565b5f60ff82169050919050565b610ccf81610cba565b82525050565b5f602082019050610ce85f830184610cc6565b92915050565b5f60208284031215610d0357610d02610b15565b5b5f610d1084828501610b5f565b91505092915050565b5f5f60408385031215610d2f57610d2e610b15565b5b5f610d3c85828601610b5f565b9250506020610d4d85828601610b5f565b9150509250929050565b7f4e487b71000000000000000000000000000000000000000000000000000000005f52601160045260245ffd5b5f610d8e82610b73565b9150610d9983610b73565b9250828201905080821115610db157610db0610d57565b5b92915050565b7f696e73756666696369656e742062616c616e63650000000000000000000000005f82015250565b5f610deb601483610a8f565b9150610df682610db7565b602082019050919050565b5f6020820190508181035f830152610e1881610ddf565b9050919050565b7f4e487b71000000000000000000000000000000000000000000000000000000005f52600160045260245ffd5b5f610e5682610b73565b9150610e6183610b73565b9250828203905081811115610e7957610e78610d57565b5b9291505056fea2646970667358221220b93d3b1dca4c4f4add7b79bee09312d928274937c3d774d66919dfdffa04d6e464736f6c634300081e0033",
					"opcodes": "PUSH1 0x80 PUSH1 0x40 MSTORE CALLVALUE DUP1 ISZERO PUSH1 0xE JUMPI PUSH0 PUSH0 REVERT JUMPDEST POP PUSH1 0x40 MLOAD PUSH2 0xF97 CODESIZE SUB DUP1 PUSH2 0xF97 DUP4 CODECOPY DUP2 DUP2 ADD PUSH1 0x40 MSTORE DUP2 ADD SWAP1 PUSH1 0x2E SWAP2 SWAP1 PUSH1 0xAF JUMP JUMPDEST DUP1 PUSH1 0x2 DUP2 SWAP1 SSTORE POP PUSH1 0x2 SLOAD PUSH0 PUSH0 CALLER PUSH20 0xFFFFFFFFFFFFFFFFFFFFFFFFFFFFFFFFFFFFFFFF AND PUSH20 0xFFFFFFFFFFFFFFFFFFFFFFFFFFFFFFFFFFFFFFFF AND DUP2 MSTORE PUSH1 0x20 ADD SWAP1 DUP2 MSTORE PUSH1 0x20 ADD PUSH0 KECCAK256 DUP2 SWAP1 SSTORE POP POP PUSH1 0xD5 JUMP JUMPDEST PUSH0 PUSH0 REVERT JUMPDEST PUSH0 DUP2 SWAP1 POP SWAP2 SWAP1 POP JUMP JUMPDEST PUSH1 0x91 DUP2 PUSH1 0x81 JUMP JUMPDEST DUP2 EQ PUSH1 0x9A JUMPI PUSH0 PUSH0 REVERT JUMPDEST POP JUMP JUMPDEST PUSH0 DUP2 MLOAD SWAP1 POP PUSH1 0xA9 DUP2 PUSH1 0x8A JUMP JUMPDEST SWAP3 SWAP2 POP POP JUMP JUMPDEST PUSH0 PUSH1 0x20 DUP3 DUP5 SUB SLT ISZERO PUSH1 0xC1 JUMPI PUSH1 0xC0 PUSH1 0x7D JUMP JUMPDEST JUMPDEST PUSH0 PUSH1 0xCC DUP5 DUP3 DUP6 ADD PUSH1 0x9D JUMP JUMPDEST SWAP2 POP POP SWAP3 SWAP2 POP POP JUMP JUMPDEST PUSH2 0xEB5 DUP1 PUSH2 0xE2 PUSH0 CODECOPY PUSH0 RETURN INVALID PUSH1 0x80 PUSH1 0x40 MSTORE CALLVALUE DUP1 ISZERO PUSH2 0xF JUMPI PUSH0 PUSH0 REVERT JUMPDEST POP PUSH1 0x4 CALLDATASIZE LT PUSH2 0x9C JUMPI PUSH0 CALLDATALOAD PUSH1 0xE0 SHR DUP1 PUSH4 0x313CE567 GT PUSH2 0x64 JUMPI DUP1 PUSH4 0x313CE567 EQ PUSH2 0x158 JUMPI DUP1 PUSH4 0x70A08231 EQ PUSH2 0x176 JUMPI DUP1 PUSH4 0x95D89B41 EQ PUSH2 0x1A6 JUMPI DUP1 PUSH4 0xA9059CBB EQ PUSH2 0x1C4 JUMPI DUP1 PUSH4 0xDD62ED3E EQ PUSH2 0x1F4 JUMPI PUSH2 0x9C JUMP JUMPDEST DUP1 PUSH4 0x6FDDE03 EQ PUSH2 0xA0 JUMPI DUP1 PUSH4 0x95EA7B3 EQ PUSH2 0xBE JUMPI DUP1 PUSH4 0x18160DDD EQ PUSH2 0xEE JUMPI DUP1 PUSH4 0x1D43CC98 EQ PUSH2 0x10C JUMPI DUP1 PUSH4 0x23B872DD EQ PUSH2 0x128 JUMPI JUMPDEST PUSH0 PUSH0 REVERT JUMPDEST PUSH2 0xA8 PUSH2 0x224 JUMP JUMPDEST PUSH1 0x40 MLOAD PUSH2 0xB5 SWAP2 SWAP1 PUSH2 0xAF5 JUMP JUMPDEST PUSH1 0x40 MLOAD DUP1 SWAP2 SUB SWAP1 RETURN JUMPDEST PUSH2 0xD8 PUSH1 0x4 DUP1 CALLDATASIZE SUB DUP2 ADD SWAP1 PUSH2 0xD3 SWAP2 SWAP1 PUSH2 0xBA6 JUMP JUMPDEST PUSH2 0x25D JUMP JUMPDEST PUSH1 0x40 MLOAD PUSH2 0xE5 SWAP2 SWAP1 PUSH2 0xBFE JUMP JUMPDEST PUSH1 0x40 MLOAD DUP1 SWAP2 SUB SWAP1 RETURN JUMPDEST PUSH2 0xF6 PUSH2 0x34A JUMP JUMPDEST PUSH1 0x40 MLOAD PUSH2 0x103 SWAP2 SWAP1 PUSH2 0xC26 JUMP JUMPDEST PUSH1 0x40 MLOAD DUP1 SWAP2 SUB SWAP1 RETURN JUMPDEST PUSH2 0x126 PUSH1 0x4 DUP1 CALLDATASIZE SUB DUP2 ADD SWAP1 PUSH2 0x121 SWAP2 SWAP1 PUSH2 0xC3F JUMP JUMPDEST PUSH2 0x353 JUMP JUMPDEST STOP JUMPDEST PUSH2 0x142 PUSH1 0x4 DUP1 CALLDATASIZE SUB DUP2 ADD SWAP1 PUSH2 0x13D SWAP2 SWAP1 PUSH2 0xC6A JUMP JUMPDEST PUSH2 0x3C0 JUMP JUMPDEST PUSH1 0x40 MLOAD PUSH2 0x14F SWAP2 SWAP1 PUSH2 0xBFE JUMP JUMPDEST PUSH1 0x40 MLOAD DUP1 SWAP2 SUB SWAP1 RETURN JUMPDEST PUSH2 0x160 PUSH2 0x722 JUMP JUMPDEST PUSH1 0x40 MLOAD PUSH2 0x16D SWAP2 SWAP1 PUSH2 0xCD5 JUMP JUMPDEST PUSH1 0x40 MLOAD DUP1 SWAP2 SUB SWAP1 RETURN JUMPDEST PUSH2 0x190 PUSH1 0x4 DUP1 CALLDATASIZE SUB DUP2 ADD SWAP1 PUSH2 0x18B SWAP2 SWAP1 PUSH2 0xCEE JUMP JUMPDEST PUSH2 0x727 JUMP JUMPDEST PUSH1 0x40 MLOAD PUSH2 0x19D SWAP2 SWAP1 PUSH2 0xC26 JUMP JUMPDEST PUSH1 0x40 MLOAD DUP1 SWAP2 SUB SWAP1 RETURN JUMPDEST PUSH2 0x1AE PUSH2 0x76C JUMP JUMPDEST PUSH1 0x40 MLOAD PUSH2 0x1BB SWAP2 SWAP1 PUSH2 0xAF5 JUMP JUMPDEST PUSH1 0x40 MLOAD DUP1 SWAP2 SUB SWAP1 RETURN JUMPDEST PUSH2 0x1DE PUSH1 0x4 DUP1 CALLDATASIZE SUB DUP2 ADD SWAP1 PUSH2 0x1D9 SWAP2 SWAP1 PUSH2 0xBA6 JUMP JUMPDEST PUSH2 0x7A5 JUMP JUMPDEST PUSH1 0x40 MLOAD PUSH2 0x1EB SWAP2 SWAP1 PUSH2 0xBFE JUMP JUMPDEST PUSH1 0x40 MLOAD DUP1 SWAP2 SUB SWAP1 RETURN JUMPDEST PUSH2 0x20E PUSH1 0x4 DUP1 CALLDATASIZE SUB DUP2 ADD SWAP1 PUSH2 0x209 SWAP2 SWAP1 PUSH2 0xD19 JUMP JUMPDEST PUSH2 0x9B2 JUMP JUMPDEST PUSH1 0x40 MLOAD PUSH2 0x21B SWAP2 SWAP1 PUSH2 0xC26 JUMP JUMPDEST PUSH1 0x40 MLOAD DUP1 SWAP2 SUB SWAP1 RETURN JUMPDEST PUSH1 0x40 MLOAD DUP1 PUSH1 0x40 ADD PUSH1 0x40 MSTORE DUP1 PUSH1 0xF DUP2 MSTORE PUSH1 0x20 ADD PUSH32 0x45524332304A6F737565436861696E0000000000000000000000000000000000 DUP2 MSTORE POP DUP2 JUMP JUMPDEST PUSH0 DUP2 PUSH1 0x1 PUSH0 CALLER PUSH20 0xFFFFFFFFFFFFFFFFFFFFFFFFFFFFFFFFFFFFFFFF AND PUSH20 0xFFFFFFFFFFFFFFFFFFFFFFFFFFFFFFFFFFFFFFFF AND DUP2 MSTORE PUSH1 0x20 ADD SWAP1 DUP2 MSTORE PUSH1 0x20 ADD PUSH0 KECCAK256 PUSH0 DUP6 PUSH20 0xFFFFFFFFFFFFFFFFFFFFFFFFFFFFFFFFFFFFFFFF AND PUSH20 0xFFFFFFFFFFFFFFFFFFFFFFFFFFFFFFFFFFFFFFFF AND DUP2 MSTORE PUSH1 0x20 ADD SWAP1 DUP2 MSTORE PUSH1 0x20 ADD PUSH0 KECCAK256 DUP2 SWAP1 SSTORE POP DUP3 PUSH20 0xFFFFFFFFFFFFFFFFFFFFFFFFFFFFFFFFFFFFFFFF AND CALLER PUSH20 0xFFFFFFFFFFFFFFFFFFFFFFFFFFFFFFFFFFFFFFFF AND PUSH32 0xD04C27822ED43674489D02367B63F0C5D0B6B232088B6515B73D546217B3457D DUP5 PUSH1 0x40 MLOAD PUSH2 0x338 SWAP2 SWAP1 PUSH2 0xC26 JUMP JUMPDEST PUSH1 0x40 MLOAD DUP1 SWAP2 SUB SWAP1 LOG3 PUSH1 0x1 SWAP1 POP SWAP3 SWAP2 POP POP JUMP JUMPDEST PUSH0 PUSH1 0x2 SLOAD SWAP1 POP SWAP1 JUMP JUMPDEST DUP1 PUSH1 0x2 PUSH0 DUP3 DUP3 SLOAD PUSH2 0x364 SWAP2 SWAP1 PUSH2 0xD84 JUMP JUMPDEST SWAP3 POP POP DUP2 SWAP1 SSTORE POP DUP1 PUSH0 PUSH0 CALLER PUSH20 0xFFFFFFFFFFFFFFFFFFFFFFFFFFFFFFFFFFFFFFFF AND PUSH20 0xFFFFFFFFFFFFFFFFFFFFFFFFFFFFFFFFFFFFFFFF AND DUP2 MSTORE PUSH1 0x20 ADD SWAP1 DUP2 MSTORE PUSH1 0x20 ADD PUSH0 KECCAK256 PUSH0 DUP3 DUP3 SLOAD PUSH2 0x3B6 SWAP2 SWAP1 PUSH2 0xD84 JUMP JUMPDEST SWAP3 POP POP DUP2 SWAP1 SSTORE POP POP JUMP JUMPDEST PUSH0 PUSH0 PUSH0 DUP6 PUSH20 0xFFFFFFFFFFFFFFFFFFFFFFFFFFFFFFFFFFFFFFFF AND PUSH20 0xFFFFFFFFFFFFFFFFFFFFFFFFFFFFFFFFFFFFFFFF AND DUP2 MSTORE PUSH1 0x20 ADD SWAP1 DUP2 MSTORE PUSH1 0x20 ADD PUSH0 KECCAK256 SLOAD DUP3 GT ISZERO PUSH2 0x409 JUMPI PUSH0 PUSH0 REVERT JUMPDEST PUSH1 0x1 PUSH0 DUP6 PUSH20 0xFFFFFFFFFFFFFFFFFFFFFFFFFFFFFFFFFFFFFFFF AND PUSH20 0xFFFFFFFFFFFFFFFFFFFFFFFFFFFFFFFFFFFFFFFF AND DUP2 MSTORE PUSH1 0x20 ADD SWAP1 DUP2 MSTORE PUSH1 0x20 ADD PUSH0 KECCAK256 PUSH0 CALLER PUSH20 0xFFFFFFFFFFFFFFFFFFFFFFFFFFFFFFFFFFFFFFFF AND PUSH20 0xFFFFFFFFFFFFFFFFFFFFFFFFFFFFFFFFFFFFFFFF AND DUP2 MSTORE PUSH1 0x20 ADD SWAP1 DUP2 MSTORE PUSH1 0x20 ADD PUSH0 KECCAK256 SLOAD DUP3 GT ISZERO PUSH2 0x48D JUMPI PUSH0 PUSH0 REVERT JUMPDEST PUSH2 0x4DC DUP3 PUSH0 PUSH0 DUP8 PUSH20 0xFFFFFFFFFFFFFFFFFFFFFFFFFFFFFFFFFFFFFFFF AND PUSH20 0xFFFFFFFFFFFFFFFFFFFFFFFFFFFFFFFFFFFFFFFF AND DUP2 MSTORE PUSH1 0x20 ADD SWAP1 DUP2 MSTORE PUSH1 0x20 ADD PUSH0 KECCAK256 SLOAD PUSH2 0xA34 SWAP1 SWAP2 SWAP1 PUSH4 0xFFFFFFFF AND JUMP JUMPDEST PUSH0 PUSH0 DUP7 PUSH20 0xFFFFFFFFFFFFFFFFFFFFFFFFFFFFFFFFFFFFFFFF AND PUSH20 0xFFFFFFFFFFFFFFFFFFFFFFFFFFFFFFFFFFFFFFFF AND DUP2 MSTORE PUSH1 0x20 ADD SWAP1 DUP2 MSTORE PUSH1 0x20 ADD PUSH0 KECCAK256 DUP2 SWAP1 SSTORE POP PUSH2 0x5A7 DUP3 PUSH1 0x1 PUSH0 DUP8 PUSH20 0xFFFFFFFFFFFFFFFFFFFFFFFFFFFFFFFFFFFFFFFF AND PUSH20 0xFFFFFFFFFFFFFFFFFFFFFFFFFFFFFFFFFFFFFFFF AND DUP2 MSTORE PUSH1 0x20 ADD SWAP1 DUP2 MSTORE PUSH1 0x20 ADD PUSH0 KECCAK256 PUSH0 CALLER PUSH20 0xFFFFFFFFFFFFFFFFFFFFFFFFFFFFFFFFFFFFFFFF AND PUSH20 0xFFFFFFFFFFFFFFFFFFFFFFFFFFFFFFFFFFFFFFFF AND DUP2 MSTORE PUSH1 0x20 ADD SWAP1 DUP2 MSTORE PUSH1 0x20 ADD PUSH0 KECCAK256 SLOAD PUSH2 0xA34 SWAP1 SWAP2 SWAP1 PUSH4 0xFFFFFFFF AND JUMP JUMPDEST PUSH1 0x1 PUSH0 DUP7 PUSH20 0xFFFFFFFFFFFFFFFFFFFFFFFFFFFFFFFFFFFFFFFF AND PUSH20 0xFFFFFFFFFFFFFFFFFFFFFFFFFFFFFFFFFFFFFFFF AND DUP2 MSTORE PUSH1 0x20 ADD SWAP1 DUP2 MSTORE PUSH1 0x20 ADD PUSH0 KECCAK256 PUSH0 CALLER PUSH20 0xFFFFFFFFFFFFFFFFFFFFFFFFFFFFFFFFFFFFFFFF AND PUSH20 0xFFFFFFFFFFFFFFFFFFFFFFFFFFFFFFFFFFFFFFFF AND DUP2 MSTORE PUSH1 0x20 ADD SWAP1 DUP2 MSTORE PUSH1 0x20 ADD PUSH0 KECCAK256 DUP2 SWAP1 SSTORE POP PUSH2 0x672 DUP3 PUSH0 PUSH0 DUP7 PUSH20 0xFFFFFFFFFFFFFFFFFFFFFFFFFFFFFFFFFFFFFFFF AND PUSH20 0xFFFFFFFFFFFFFFFFFFFFFFFFFFFFFFFFFFFFFFFF AND DUP2 MSTORE PUSH1 0x20 ADD SWAP1 DUP2 MSTORE PUSH1 0x20 ADD PUSH0 KECCAK256 SLOAD PUSH2 0xA5A SWAP1 SWAP2 SWAP1 PUSH4 0xFFFFFFFF AND JUMP JUMPDEST PUSH0 PUSH0 DUP6 PUSH20 0xFFFFFFFFFFFFFFFFFFFFFFFFFFFFFFFFFFFFFFFF AND PUSH20 0xFFFFFFFFFFFFFFFFFFFFFFFFFFFFFFFFFFFFFFFF AND DUP2 MSTORE PUSH1 0x20 ADD SWAP1 DUP2 MSTORE PUSH1 0x20 ADD PUSH0 KECCAK256 DUP2 SWAP1 SSTORE POP DUP3 PUSH20 0xFFFFFFFFFFFFFFFFFFFFFFFFFFFFFFFFFFFFFFFF AND DUP5 PUSH20 0xFFFFFFFFFFFFFFFFFFFFFFFFFFFFFFFFFFFFFFFF AND PUSH32 0x5D439CF3A1F6215B41908E5B0B300F39679A3FF1CC010691C1D4EC4D0E2A4EBB DUP5 PUSH1 0x40 MLOAD PUSH2 0x70F SWAP2 SWAP1 PUSH2 0xC26 JUMP JUMPDEST PUSH1 0x40 MLOAD DUP1 SWAP2 SUB SWAP1 LOG3 PUSH1 0x1 SWAP1 POP SWAP4 SWAP3 POP POP POP JUMP JUMPDEST PUSH1 0x2 DUP2 JUMP JUMPDEST PUSH0 PUSH0 PUSH0 DUP4 PUSH20 0xFFFFFFFFFFFFFFFFFFFFFFFFFFFFFFFFFFFFFFFF AND PUSH20 0xFFFFFFFFFFFFFFFFFFFFFFFFFFFFFFFFFFFFFFFF AND DUP2 MSTORE PUSH1 0x20 ADD SWAP1 DUP2 MSTORE PUSH1 0x20 ADD PUSH0 KECCAK256 SLOAD SWAP1 POP SWAP2 SWAP1 POP JUMP JUMPDEST PUSH1 0x40 MLOAD DUP1 PUSH1 0x40 ADD PUSH1 0x40 MSTORE DUP1 PUSH1 0x5 DUP2 MSTORE PUSH1 0x20 ADD PUSH32 0x4554484A43000000000000000000000000000000000000000000000000000000 DUP2 MSTORE POP DUP2 JUMP JUMPDEST PUSH0 PUSH0 PUSH0 CALLER PUSH20 0xFFFFFFFFFFFFFFFFFFFFFFFFFFFFFFFFFFFFFFFF AND PUSH20 0xFFFFFFFFFFFFFFFFFFFFFFFFFFFFFFFFFFFFFFFF AND DUP2 MSTORE PUSH1 0x20 ADD SWAP1 DUP2 MSTORE PUSH1 0x20 ADD PUSH0 KECCAK256 SLOAD DUP3 GT ISZERO PUSH2 0x825 JUMPI PUSH1 0x40 MLOAD PUSH32 0x8C379A000000000000000000000000000000000000000000000000000000000 DUP2 MSTORE PUSH1 0x4 ADD PUSH2 0x81C SWAP1 PUSH2 0xE01 JUMP JUMPDEST PUSH1 0x40 MLOAD DUP1 SWAP2 SUB SWAP1 REVERT JUMPDEST PUSH2 0x874 DUP3 PUSH0 PUSH0 CALLER PUSH20 0xFFFFFFFFFFFFFFFFFFFFFFFFFFFFFFFFFFFFFFFF AND PUSH20 0xFFFFFFFFFFFFFFFFFFFFFFFFFFFFFFFFFFFFFFFF AND DUP2 MSTORE PUSH1 0x20 ADD SWAP1 DUP2 MSTORE PUSH1 0x20 ADD PUSH0 KECCAK256 SLOAD PUSH2 0xA34 SWAP1 SWAP2 SWAP1 PUSH4 0xFFFFFFFF AND JUMP JUMPDEST PUSH0 PUSH0 CALLER PUSH20 0xFFFFFFFFFFFFFFFFFFFFFFFFFFFFFFFFFFFFFFFF AND PUSH20 0xFFFFFFFFFFFFFFFFFFFFFFFFFFFFFFFFFFFFFFFF AND DUP2 MSTORE PUSH1 0x20 ADD SWAP1 DUP2 MSTORE PUSH1 0x20 ADD PUSH0 KECCAK256 DUP2 SWAP1 SSTORE POP PUSH2 0x903 DUP3 PUSH0 PUSH0 DUP7 PUSH20 0xFFFFFFFFFFFFFFFFFFFFFFFFFFFFFFFFFFFFFFFF AND PUSH20 0xFFFFFFFFFFFFFFFFFFFFFFFFFFFFFFFFFFFFFFFF AND DUP2 MSTORE PUSH1 0x20 ADD SWAP1 DUP2 MSTORE PUSH1 0x20 ADD PUSH0 KECCAK256 SLOAD PUSH2 0xA5A SWAP1 SWAP2 SWAP1 PUSH4 0xFFFFFFFF AND JUMP JUMPDEST PUSH0 PUSH0 DUP6 PUSH20 0xFFFFFFFFFFFFFFFFFFFFFFFFFFFFFFFFFFFFFFFF AND PUSH20 0xFFFFFFFFFFFFFFFFFFFFFFFFFFFFFFFFFFFFFFFF AND DUP2 MSTORE PUSH1 0x20 ADD SWAP1 DUP2 MSTORE PUSH1 0x20 ADD PUSH0 KECCAK256 DUP2 SWAP1 SSTORE POP DUP3 PUSH20 0xFFFFFFFFFFFFFFFFFFFFFFFFFFFFFFFFFFFFFFFF AND CALLER PUSH20 0xFFFFFFFFFFFFFFFFFFFFFFFFFFFFFFFFFFFFFFFF AND PUSH32 0x5D439CF3A1F6215B41908E5B0B300F39679A3FF1CC010691C1D4EC4D0E2A4EBB DUP5 PUSH1 0x40 MLOAD PUSH2 0x9A0 SWAP2 SWAP1 PUSH2 0xC26 JUMP JUMPDEST PUSH1 0x40 MLOAD DUP1 SWAP2 SUB SWAP1 LOG3 PUSH1 0x1 SWAP1 POP SWAP3 SWAP2 POP POP JUMP JUMPDEST PUSH0 PUSH1 0x1 PUSH0 DUP5 PUSH20 0xFFFFFFFFFFFFFFFFFFFFFFFFFFFFFFFFFFFFFFFF AND PUSH20 0xFFFFFFFFFFFFFFFFFFFFFFFFFFFFFFFFFFFFFFFF AND DUP2 MSTORE PUSH1 0x20 ADD SWAP1 DUP2 MSTORE PUSH1 0x20 ADD PUSH0 KECCAK256 PUSH0 DUP4 PUSH20 0xFFFFFFFFFFFFFFFFFFFFFFFFFFFFFFFFFFFFFFFF AND PUSH20 0xFFFFFFFFFFFFFFFFFFFFFFFFFFFFFFFFFFFFFFFF AND DUP2 MSTORE PUSH1 0x20 ADD SWAP1 DUP2 MSTORE PUSH1 0x20 ADD PUSH0 KECCAK256 SLOAD SWAP1 POP SWAP3 SWAP2 POP POP JUMP JUMPDEST PUSH0 DUP3 DUP3 GT ISZERO PUSH2 0xA46 JUMPI PUSH2 0xA45 PUSH2 0xE1F JUMP JUMPDEST JUMPDEST DUP2 DUP4 PUSH2 0xA52 SWAP2 SWAP1 PUSH2 0xE4C JUMP JUMPDEST SWAP1 POP SWAP3 SWAP2 POP POP JUMP JUMPDEST PUSH0 PUSH0 DUP3 DUP5 PUSH2 0xA68 SWAP2 SWAP1 PUSH2 0xD84 JUMP JUMPDEST SWAP1 POP DUP4 DUP2 LT ISZERO PUSH2 0xA7B JUMPI PUSH2 0xA7A PUSH2 0xE1F JUMP JUMPDEST JUMPDEST DUP1 SWAP2 POP POP SWAP3 SWAP2 POP POP JUMP JUMPDEST PUSH0 DUP2 MLOAD SWAP1 POP SWAP2 SWAP1 POP JUMP JUMPDEST PUSH0 DUP3 DUP3 MSTORE PUSH1 0x20 DUP3 ADD SWAP1 POP SWAP3 SWAP2 POP POP JUMP JUMPDEST DUP3 DUP2 DUP4 MCOPY PUSH0 DUP4 DUP4 ADD MSTORE POP POP POP JUMP JUMPDEST PUSH0 PUSH1 0x1F NOT PUSH1 0x1F DUP4 ADD AND SWAP1 POP SWAP2 SWAP1 POP JUMP JUMPDEST PUSH0 PUSH2 0xAC7 DUP3 PUSH2 0xA85 JUMP JUMPDEST PUSH2 0xAD1 DUP2 DUP6 PUSH2 0xA8F JUMP JUMPDEST SWAP4 POP PUSH2 0xAE1 DUP2 DUP6 PUSH1 0x20 DUP7 ADD PUSH2 0xA9F JUMP JUMPDEST PUSH2 0xAEA DUP2 PUSH2 0xAAD JUMP JUMPDEST DUP5 ADD SWAP2 POP POP SWAP3 SWAP2 POP POP JUMP JUMPDEST PUSH0 PUSH1 0x20 DUP3 ADD SWAP1 POP DUP2 DUP2 SUB PUSH0 DUP4 ADD MSTORE PUSH2 0xB0D DUP2 DUP5 PUSH2 0xABD JUMP JUMPDEST SWAP1 POP SWAP3 SWAP2 POP POP JUMP JUMPDEST PUSH0 PUSH0 REVERT JUMPDEST PUSH0 PUSH20 0xFFFFFFFFFFFFFFFFFFFFFFFFFFFFFFFFFFFFFFFF DUP3 AND SWAP1 POP SWAP2 SWAP1 POP JUMP JUMPDEST PUSH0 PUSH2 0xB42 DUP3 PUSH2 0xB19 JUMP JUMPDEST SWAP1 POP SWAP2 SWAP1 POP JUMP JUMPDEST PUSH2 0xB52 DUP2 PUSH2 0xB38 JUMP JUMPDEST DUP2 EQ PUSH2 0xB5C JUMPI PUSH0 PUSH0 REVERT JUMPDEST POP JUMP JUMPDEST PUSH0 DUP2 CALLDATALOAD SWAP1 POP PUSH2 0xB6D DUP2 PUSH2 0xB49 JUMP JUMPDEST SWAP3 SWAP2 POP POP JUMP JUMPDEST PUSH0 DUP2 SWAP1 POP SWAP2 SWAP1 POP JUMP JUMPDEST PUSH2 0xB85 DUP2 PUSH2 0xB73 JUMP JUMPDEST DUP2 EQ PUSH2 0xB8F JUMPI PUSH0 PUSH0 REVERT JUMPDEST POP JUMP JUMPDEST PUSH0 DUP2 CALLDATALOAD SWAP1 POP PUSH2 0xBA0 DUP2 PUSH2 0xB7C JUMP JUMPDEST SWAP3 SWAP2 POP POP JUMP JUMPDEST PUSH0 PUSH0 PUSH1 0x40 DUP4 DUP6 SUB SLT ISZERO PUSH2 0xBBC JUMPI PUSH2 0xBBB PUSH2 0xB15 JUMP JUMPDEST JUMPDEST PUSH0 PUSH2 0xBC9 DUP6 DUP3 DUP7 ADD PUSH2 0xB5F JUMP JUMPDEST SWAP3 POP POP PUSH1 0x20 PUSH2 0xBDA DUP6 DUP3 DUP7 ADD PUSH2 0xB92 JUMP JUMPDEST SWAP2 POP POP SWAP3 POP SWAP3 SWAP1 POP JUMP JUMPDEST PUSH0 DUP2 ISZERO ISZERO SWAP1 POP SWAP2 SWAP1 POP JUMP JUMPDEST PUSH2 0xBF8 DUP2 PUSH2 0xBE4 JUMP JUMPDEST DUP3 MSTORE POP POP JUMP JUMPDEST PUSH0 PUSH1 0x20 DUP3 ADD SWAP1 POP PUSH2 0xC11 PUSH0 DUP4 ADD DUP5 PUSH2 0xBEF JUMP JUMPDEST SWAP3 SWAP2 POP POP JUMP JUMPDEST PUSH2 0xC20 DUP2 PUSH2 0xB73 JUMP JUMPDEST DUP3 MSTORE POP POP JUMP JUMPDEST PUSH0 PUSH1 0x20 DUP3 ADD SWAP1 POP PUSH2 0xC39 PUSH0 DUP4 ADD DUP5 PUSH2 0xC17 JUMP JUMPDEST SWAP3 SWAP2 POP POP JUMP JUMPDEST PUSH0 PUSH1 0x20 DUP3 DUP5 SUB SLT ISZERO PUSH2 0xC54 JUMPI PUSH2 0xC53 PUSH2 0xB15 JUMP JUMPDEST JUMPDEST PUSH0 PUSH2 0xC61 DUP5 DUP3 DUP6 ADD PUSH2 0xB92 JUMP JUMPDEST SWAP2 POP POP SWAP3 SWAP2 POP POP JUMP JUMPDEST PUSH0 PUSH0 PUSH0 PUSH1 0x60 DUP5 DUP7 SUB SLT ISZERO PUSH2 0xC81 JUMPI PUSH2 0xC80 PUSH2 0xB15 JUMP JUMPDEST JUMPDEST PUSH0 PUSH2 0xC8E DUP7 DUP3 DUP8 ADD PUSH2 0xB5F JUMP JUMPDEST SWAP4 POP POP PUSH1 0x20 PUSH2 0xC9F DUP7 DUP3 DUP8 ADD PUSH2 0xB5F JUMP JUMPDEST SWAP3 POP POP PUSH1 0x40 PUSH2 0xCB0 DUP7 DUP3 DUP8 ADD PUSH2 0xB92 JUMP JUMPDEST SWAP2 POP POP SWAP3 POP SWAP3 POP SWAP3 JUMP JUMPDEST PUSH0 PUSH1 0xFF DUP3 AND SWAP1 POP SWAP2 SWAP1 POP JUMP JUMPDEST PUSH2 0xCCF DUP2 PUSH2 0xCBA JUMP JUMPDEST DUP3 MSTORE POP POP JUMP JUMPDEST PUSH0 PUSH1 0x20 DUP3 ADD SWAP1 POP PUSH2 0xCE8 PUSH0 DUP4 ADD DUP5 PUSH2 0xCC6 JUMP JUMPDEST SWAP3 SWAP2 POP POP JUMP JUMPDEST PUSH0 PUSH1 0x20 DUP3 DUP5 SUB SLT ISZERO PUSH2 0xD03 JUMPI PUSH2 0xD02 PUSH2 0xB15 JUMP JUMPDEST JUMPDEST PUSH0 PUSH2 0xD10 DUP5 DUP3 DUP6 ADD PUSH2 0xB5F JUMP JUMPDEST SWAP2 POP POP SWAP3 SWAP2 POP POP JUMP JUMPDEST PUSH0 PUSH0 PUSH1 0x40 DUP4 DUP6 SUB SLT ISZERO PUSH2 0xD2F JUMPI PUSH2 0xD2E PUSH2 0xB15 JUMP JUMPDEST JUMPDEST PUSH0 PUSH2 0xD3C DUP6 DUP3 DUP7 ADD PUSH2 0xB5F JUMP JUMPDEST SWAP3 POP POP PUSH1 0x20 PUSH2 0xD4D DUP6 DUP3 DUP7 ADD PUSH2 0xB5F JUMP JUMPDEST SWAP2 POP POP SWAP3 POP SWAP3 SWAP1 POP JUMP JUMPDEST PUSH32 0x4E487B7100000000000000000000000000000000000000000000000000000000 PUSH0 MSTORE PUSH1 0x11 PUSH1 0x4 MSTORE PUSH1 0x24 PUSH0 REVERT JUMPDEST PUSH0 PUSH2 0xD8E DUP3 PUSH2 0xB73 JUMP JUMPDEST SWAP2 POP PUSH2 0xD99 DUP4 PUSH2 0xB73 JUMP JUMPDEST SWAP3 POP DUP3 DUP3 ADD SWAP1 POP DUP1 DUP3 GT ISZERO PUSH2 0xDB1 JUMPI PUSH2 0xDB0 PUSH2 0xD57 JUMP JUMPDEST JUMPDEST SWAP3 SWAP2 POP POP JUMP JUMPDEST PUSH32 0x696E73756666696369656E742062616C616E6365000000000000000000000000 PUSH0 DUP3 ADD MSTORE POP JUMP JUMPDEST PUSH0 PUSH2 0xDEB PUSH1 0x14 DUP4 PUSH2 0xA8F JUMP JUMPDEST SWAP2 POP PUSH2 0xDF6 DUP3 PUSH2 0xDB7 JUMP JUMPDEST PUSH1 0x20 DUP3 ADD SWAP1 POP SWAP2 SWAP1 POP JUMP JUMPDEST PUSH0 PUSH1 0x20 DUP3 ADD SWAP1 POP DUP2 DUP2 SUB PUSH0 DUP4 ADD MSTORE PUSH2 0xE18 DUP2 PUSH2 0xDDF JUMP JUMPDEST SWAP1 POP SWAP2 SWAP1 POP JUMP JUMPDEST PUSH32 0x4E487B7100000000000000000000000000000000000000000000000000000000 PUSH0 MSTORE PUSH1 0x1 PUSH1 0x4 MSTORE PUSH1 0x24 PUSH0 REVERT JUMPDEST PUSH0 PUSH2 0xE56 DUP3 PUSH2 0xB73 JUMP JUMPDEST SWAP2 POP PUSH2 0xE61 DUP4 PUSH2 0xB73 JUMP JUMPDEST SWAP3 POP DUP3 DUP3 SUB SWAP1 POP DUP2 DUP2 GT ISZERO PUSH2 0xE79 JUMPI PUSH2 0xE78 PUSH2 0xD57 JUMP JUMPDEST JUMPDEST SWAP3 SWAP2 POP POP JUMP INVALID LOG2 PUSH5 0x6970667358 0x22 SLT KECCAK256 0xB9 RETURNDATASIZE EXTCODESIZE SAR 0xCA 0x4C 0x4F BLOBBASEFEE 0xDD PUSH28 0x79BEE09312D928274937C3D774D66919DFDFFA04D6E464736F6C6343 STOP ADDMOD 0x1E STOP CALLER "
				},
				"gasEstimates": {
					"creation": {
						"codeDepositCost": "753000",
						"executionCost": "infinite",
						"totalCost": "infinite"
					},
					"external": {
						"allowance(address,address)": "infinite",
						"approve(address,uint256)": "infinite",
						"balanceOf(address)": "2850",
						"decimals()": "331",
						"increaseTotalSupply(uint256)": "infinite",
						"name()": "infinite",
						"symbol()": "infinite",
						"totalSupply()": "2477",
						"transfer(address,uint256)": "infinite",
						"transferFrom(address,address,uint256)": "infinite"
					}
				},
				"methodIdentifiers": {
					"allowance(address,address)": "dd62ed3e",
					"approve(address,uint256)": "095ea7b3",
					"balanceOf(address)": "70a08231",
					"decimals()": "313ce567",
					"increaseTotalSupply(uint256)": "1d43cc98",
					"name()": "06fdde03",
					"symbol()": "95d89b41",
					"totalSupply()": "18160ddd",
					"transfer(address,uint256)": "a9059cbb",
					"transferFrom(address,address,uint256)": "23b872dd"
				}
			},
			"storageLayout": {
				"storage": [
					{
						"astId": 88,
						"contract": "CustomToken/ERC20.sol:ERC20",
						"label": "balances",
						"offset": 0,
						"slot": "0",
						"type": "t_mapping(t_address,t_uint256)"
					},
					{
						"astId": 94,
						"contract": "CustomToken/ERC20.sol:ERC20",
						"label": "allowed",
						"offset": 0,
						"slot": "1",
						"type": "t_mapping(t_address,t_mapping(t_address,t_uint256))"
					},
					{
						"astId": 96,
						"contract": "CustomToken/ERC20.sol:ERC20",
						"label": "totalSupply_",
						"offset": 0,
						"slot": "2",
						"type": "t_uint256"
					}
				],
				"types": {
					"t_address": {
						"encoding": "inplace",
						"label": "address",
						"numberOfBytes": "20"
					},
					"t_mapping(t_address,t_mapping(t_address,t_uint256))": {
						"encoding": "mapping",
						"key": "t_address",
						"label": "mapping(address => mapping(address => uint256))",
						"numberOfBytes": "32",
						"value": "t_mapping(t_address,t_uint256)"
					},
					"t_mapping(t_address,t_uint256)": {
						"encoding": "mapping",
						"key": "t_address",
						"label": "mapping(address => uint256)",
						"numberOfBytes": "32",
						"value": "t_uint256"
					},
					"t_uint256": {
						"encoding": "inplace",
						"label": "uint256",
						"numberOfBytes": "32"
					}
				}
			},
			"userdoc": {
				"kind": "user",
				"methods": {},
				"version": 1
			}
		}
	}
}