{
	"OMS-Covid/oms.sol": {
		"oms": {
			"abi": [
				{
					"inputs": [],
					"stateMutability": "nonpayable",
					"type": "constructor"
				},
				{
					"anonymous": false,
					"inputs": [
						{
							"indexed": false,
							"internalType": "address",
							"name": "creater",
							"type": "address"
						},
						{
							"indexed": false,
							"internalType": "address",
							"name": "owner",
							"type": "address"
						}
					],
					"name": "NewContract",
					"type": "event"
				},
				{
					"anonymous": false,
					"inputs": [
						{
							"indexed": false,
							"internalType": "address",
							"name": "",
							"type": "address"
						}
					],
					"name": "NewContractValidated",
					"type": "event"
				},
				{
					"anonymous": false,
					"inputs": [
						{
							"indexed": false,
							"internalType": "address",
							"name": "",
							"type": "address"
						}
					],
					"name": "RequestedAccess",
					"type": "event"
				},
				{
					"inputs": [
						{
							"internalType": "address",
							"name": "_heathCenter",
							"type": "address"
						}
					],
					"name": "CreateHealthCenter",
					"outputs": [],
					"stateMutability": "nonpayable",
					"type": "function"
				},
				{
					"inputs": [],
					"name": "FactoryHealthCenter",
					"outputs": [],
					"stateMutability": "nonpayable",
					"type": "function"
				},
				{
					"inputs": [],
					"name": "OMS",
					"outputs": [
						{
							"internalType": "address",
							"name": "",
							"type": "address"
						}
					],
					"stateMutability": "view",
					"type": "function"
				},
				{
					"inputs": [],
					"name": "RequestAccess",
					"outputs": [],
					"stateMutability": "nonpayable",
					"type": "function"
				},
				{
					"inputs": [],
					"name": "ViewRequest",
					"outputs": [
						{
							"internalType": "address[]",
							"name": "",
							"type": "address[]"
						}
					],
					"stateMutability": "view",
					"type": "function"
				},
				{
					"inputs": [
						{
							"internalType": "uint256",
							"name": "",
							"type": "uint256"
						}
					],
					"name": "health_contract_addresses",
					"outputs": [
						{
							"internalType": "address",
							"name": "",
							"type": "address"
						}
					],
					"stateMutability": "view",
					"type": "function"
				}
			],
			"devdoc": {
				"kind": "dev",
				"methods": {},
				"version": 1
			},
			"evm": {
				"assembly": "    /* \"OMS-Covid/oms.sol\":104:1587  contract oms ... */\n  mstore(0x40, 0x80)\n    /* \"OMS-Covid/oms.sol\":153:210  constructor()   ... */\n  callvalue\n  dup1\n  iszero\n  tag_1\n  jumpi\n  revert(0x00, 0x00)\ntag_1:\n  pop\n    /* \"OMS-Covid/oms.sol\":192:202  msg.sender */\n  caller\n    /* \"OMS-Covid/oms.sol\":186:189  OMS */\n  0x00\n  0x00\n    /* \"OMS-Covid/oms.sol\":186:202  OMS = msg.sender */\n  0x0100\n  exp\n  dup2\n  sload\n  dup2\n  0xffffffffffffffffffffffffffffffffffffffff\n  mul\n  not\n  and\n  swap1\n  dup4\n  0xffffffffffffffffffffffffffffffffffffffff\n  and\n  mul\n  or\n  swap1\n  sstore\n  pop\n    /* \"OMS-Covid/oms.sol\":104:1587  contract oms ... */\n  dataSize(sub_0)\n  dup1\n  dataOffset(sub_0)\n  0x00\n  codecopy\n  0x00\n  return\nstop\n\nsub_0: assembly {\n        /* \"OMS-Covid/oms.sol\":104:1587  contract oms ... */\n      mstore(0x40, 0x80)\n      callvalue\n      dup1\n      iszero\n      tag_1\n      jumpi\n      revert(0x00, 0x00)\n    tag_1:\n      pop\n      jumpi(tag_2, lt(calldatasize, 0x04))\n      shr(0xe0, calldataload(0x00))\n      dup1\n      0x057dd608\n      eq\n      tag_3\n      jumpi\n      dup1\n      0x2813eabd\n      eq\n      tag_4\n      jumpi\n      dup1\n      0x6fdc01b6\n      eq\n      tag_5\n      jumpi\n      dup1\n      0x73defae0\n      eq\n      tag_6\n      jumpi\n      dup1\n      0x90eebe3b\n      eq\n      tag_7\n      jumpi\n      dup1\n      0xc9d51ca8\n      eq\n      tag_8\n      jumpi\n    tag_2:\n      revert(0x00, 0x00)\n        /* \"OMS-Covid/oms.sol\":126:144  address public OMS */\n    tag_3:\n      tag_9\n      tag_10\n      jump\t// in\n    tag_9:\n      mload(0x40)\n      tag_11\n      swap2\n      swap1\n      tag_12\n      jump\t// in\n    tag_11:\n      mload(0x40)\n      dup1\n      swap2\n      sub\n      swap1\n      return\n        /* \"OMS-Covid/oms.sol\":1327:1447  function ViewRequest() public view OnlyOMS(msg.sender) returns(address[] memory)... */\n    tag_4:\n      tag_13\n      tag_14\n      jump\t// in\n    tag_13:\n      mload(0x40)\n      tag_15\n      swap2\n      swap1\n      tag_16\n      jump\t// in\n    tag_15:\n      mload(0x40)\n      dup1\n      swap2\n      sub\n      swap1\n      return\n        /* \"OMS-Covid/oms.sol\":981:1321  function FactoryHealthCenter() public ... */\n    tag_5:\n      tag_17\n      tag_18\n      jump\t// in\n    tag_17:\n      stop\n        /* \"OMS-Covid/oms.sol\":455:497  address[] public health_contract_addresses */\n    tag_6:\n      tag_19\n      0x04\n      dup1\n      calldatasize\n      sub\n      dup2\n      add\n      swap1\n      tag_20\n      swap2\n      swap1\n      tag_21\n      jump\t// in\n    tag_20:\n      tag_22\n      jump\t// in\n    tag_19:\n      mload(0x40)\n      tag_23\n      swap2\n      swap1\n      tag_12\n      jump\t// in\n    tag_23:\n      mload(0x40)\n      dup1\n      swap2\n      sub\n      swap1\n      return\n        /* \"OMS-Covid/oms.sol\":778:973  function CreateHealthCenter(address _heathCenter) public OnlyOMS(msg.sender)... */\n    tag_7:\n      tag_24\n      0x04\n      dup1\n      calldatasize\n      sub\n      dup2\n      add\n      swap1\n      tag_25\n      swap2\n      swap1\n      tag_26\n      jump\t// in\n    tag_25:\n      tag_27\n      jump\t// in\n    tag_24:\n      stop\n        /* \"OMS-Covid/oms.sol\":1459:1584  function RequestAccess() public ... */\n    tag_8:\n      tag_28\n      tag_29\n      jump\t// in\n    tag_28:\n      stop\n        /* \"OMS-Covid/oms.sol\":126:144  address public OMS */\n    tag_10:\n      0x00\n      0x00\n      swap1\n      sload\n      swap1\n      0x0100\n      exp\n      swap1\n      div\n      0xffffffffffffffffffffffffffffffffffffffff\n      and\n      dup2\n      jump\t// out\n        /* \"OMS-Covid/oms.sol\":1327:1447  function ViewRequest() public view OnlyOMS(msg.sender) returns(address[] memory)... */\n    tag_14:\n        /* \"OMS-Covid/oms.sol\":1390:1406  address[] memory */\n      0x60\n        /* \"OMS-Covid/oms.sol\":1370:1380  msg.sender */\n      caller\n        /* \"OMS-Covid/oms.sol\":734:737  OMS */\n      0x00\n      0x00\n      swap1\n      sload\n      swap1\n      0x0100\n      exp\n      swap1\n      div\n      0xffffffffffffffffffffffffffffffffffffffff\n      and\n        /* \"OMS-Covid/oms.sol\":722:737  _address == OMS */\n      0xffffffffffffffffffffffffffffffffffffffff\n      and\n        /* \"OMS-Covid/oms.sol\":722:730  _address */\n      dup2\n        /* \"OMS-Covid/oms.sol\":722:737  _address == OMS */\n      0xffffffffffffffffffffffffffffffffffffffff\n      and\n      eq\n        /* \"OMS-Covid/oms.sol\":713:749  require (_address == OMS,\"Only OMS\") */\n      tag_31\n      jumpi\n      mload(0x40)\n      0x08c379a000000000000000000000000000000000000000000000000000000000\n      dup2\n      mstore\n      0x04\n      add\n      tag_32\n      swap1\n      tag_33\n      jump\t// in\n    tag_32:\n      mload(0x40)\n      dup1\n      swap2\n      sub\n      swap1\n      revert\n    tag_31:\n        /* \"OMS-Covid/oms.sol\":1431:1439  Requests */\n      0x03\n        /* \"OMS-Covid/oms.sol\":1424:1439  return Requests */\n      dup1\n      sload\n      dup1\n      0x20\n      mul\n      0x20\n      add\n      mload(0x40)\n      swap1\n      dup2\n      add\n      0x40\n      mstore\n      dup1\n      swap3\n      swap2\n      swap1\n      dup2\n      dup2\n      mstore\n      0x20\n      add\n      dup3\n      dup1\n      sload\n      dup1\n      iszero\n      tag_35\n      jumpi\n      0x20\n      mul\n      dup3\n      add\n      swap2\n      swap1\n      0x00\n      mstore\n      keccak256(0x00, 0x20)\n      swap1\n    tag_36:\n      dup2\n      0x00\n      swap1\n      sload\n      swap1\n      0x0100\n      exp\n      swap1\n      div\n      0xffffffffffffffffffffffffffffffffffffffff\n      and\n      0xffffffffffffffffffffffffffffffffffffffff\n      and\n      dup2\n      mstore\n      0x20\n      add\n      swap1\n      0x01\n      add\n      swap1\n      dup1\n      dup4\n      gt\n      tag_36\n      jumpi\n    tag_35:\n      pop\n      pop\n      pop\n      pop\n      pop\n      swap2\n      pop\n        /* \"OMS-Covid/oms.sol\":1327:1447  function ViewRequest() public view OnlyOMS(msg.sender) returns(address[] memory)... */\n      pop\n      swap1\n      jump\t// out\n        /* \"OMS-Covid/oms.sol\":981:1321  function FactoryHealthCenter() public ... */\n    tag_18:\n        /* \"OMS-Covid/oms.sol\":1083:1087  true */\n      0x01\n        /* \"OMS-Covid/oms.sol\":1044:1087  Validation_HealthCenter[msg.sender] == true */\n      iszero\n      iszero\n        /* \"OMS-Covid/oms.sol\":1044:1067  Validation_HealthCenter */\n      0x01\n        /* \"OMS-Covid/oms.sol\":1044:1079  Validation_HealthCenter[msg.sender] */\n      0x00\n        /* \"OMS-Covid/oms.sol\":1068:1078  msg.sender */\n      caller\n        /* \"OMS-Covid/oms.sol\":1044:1079  Validation_HealthCenter[msg.sender] */\n      0xffffffffffffffffffffffffffffffffffffffff\n      and\n      0xffffffffffffffffffffffffffffffffffffffff\n      and\n      dup2\n      mstore\n      0x20\n      add\n      swap1\n      dup2\n      mstore\n      0x20\n      add\n      0x00\n      keccak256\n      0x00\n      swap1\n      sload\n      swap1\n      0x0100\n      exp\n      swap1\n      div\n      0xff\n      and\n        /* \"OMS-Covid/oms.sol\":1044:1087  Validation_HealthCenter[msg.sender] == true */\n      iszero\n      iszero\n      eq\n        /* \"OMS-Covid/oms.sol\":1036:1107  require(Validation_HealthCenter[msg.sender] == true,\"Dont have access\") */\n      tag_38\n      jumpi\n      mload(0x40)\n      0x08c379a000000000000000000000000000000000000000000000000000000000\n      dup2\n      mstore\n      0x04\n      add\n      tag_39\n      swap1\n      tag_40\n      jump\t// in\n    tag_39:\n      mload(0x40)\n      dup1\n      swap2\n      sub\n      swap1\n      revert\n    tag_38:\n        /* \"OMS-Covid/oms.sol\":1118:1147  address contract_HealthCenter */\n      0x00\n        /* \"OMS-Covid/oms.sol\":1174:1184  msg.sender */\n      caller\n        /* \"OMS-Covid/oms.sol\":1157:1185  new HealthCenter(msg.sender) */\n      mload(0x40)\n      tag_41\n      swap1\n      tag_42\n      jump\t// in\n    tag_41:\n      tag_43\n      swap2\n      swap1\n      tag_12\n      jump\t// in\n    tag_43:\n      mload(0x40)\n      dup1\n      swap2\n      sub\n      swap1\n      0x00\n      create\n      dup1\n      iszero\n      dup1\n      iszero\n      tag_44\n      jumpi\n      returndatacopy(0x00, 0x00, returndatasize)\n      revert(0x00, returndatasize)\n    tag_44:\n      pop\n        /* \"OMS-Covid/oms.sol\":1118:1186  address contract_HealthCenter= address(new HealthCenter(msg.sender)) */\n      swap1\n      pop\n        /* \"OMS-Covid/oms.sol\":1199:1224  health_contract_addresses */\n      0x02\n        /* \"OMS-Covid/oms.sol\":1230:1251  contract_HealthCenter */\n      dup2\n        /* \"OMS-Covid/oms.sol\":1199:1252  health_contract_addresses.push(contract_HealthCenter) */\n      swap1\n      dup1\n      0x01\n      dup2\n      sload\n      add\n      dup1\n      dup3\n      sstore\n      dup1\n      swap2\n      pop\n      pop\n      0x01\n      swap1\n      sub\n      swap1\n      0x00\n      mstore\n      keccak256(0x00, 0x20)\n      add\n      0x00\n      swap1\n      swap2\n      swap1\n      swap2\n      swap1\n      swap2\n      0x0100\n      exp\n      dup2\n      sload\n      dup2\n      0xffffffffffffffffffffffffffffffffffffffff\n      mul\n      not\n      and\n      swap1\n      dup4\n      0xffffffffffffffffffffffffffffffffffffffff\n      and\n      mul\n      or\n      swap1\n      sstore\n      pop\n        /* \"OMS-Covid/oms.sol\":1268:1313  NewContract(contract_HealthCenter,msg.sender) */\n      0x17182ea1a6748f7923ea0bfb4bf8bc76cc894e662541ad1ea15797322d541db8\n        /* \"OMS-Covid/oms.sol\":1280:1301  contract_HealthCenter */\n      dup2\n        /* \"OMS-Covid/oms.sol\":1302:1312  msg.sender */\n      caller\n        /* \"OMS-Covid/oms.sol\":1268:1313  NewContract(contract_HealthCenter,msg.sender) */\n      mload(0x40)\n      tag_46\n      swap3\n      swap2\n      swap1\n      tag_47\n      jump\t// in\n    tag_46:\n      mload(0x40)\n      dup1\n      swap2\n      sub\n      swap1\n      log1\n        /* \"OMS-Covid/oms.sol\":1025:1321  {... */\n      pop\n        /* \"OMS-Covid/oms.sol\":981:1321  function FactoryHealthCenter() public ... */\n      jump\t// out\n        /* \"OMS-Covid/oms.sol\":455:497  address[] public health_contract_addresses */\n    tag_22:\n      0x02\n      dup2\n      dup2\n      sload\n      dup2\n      lt\n      tag_48\n      jumpi\n      0x00\n      dup1\n      revert\n    tag_48:\n      swap1\n      0x00\n      mstore\n      keccak256(0x00, 0x20)\n      add\n      0x00\n      swap2\n      pop\n      sload\n      swap1\n      0x0100\n      exp\n      swap1\n      div\n      0xffffffffffffffffffffffffffffffffffffffff\n      and\n      dup2\n      jump\t// out\n        /* \"OMS-Covid/oms.sol\":778:973  function CreateHealthCenter(address _heathCenter) public OnlyOMS(msg.sender)... */\n    tag_27:\n        /* \"OMS-Covid/oms.sol\":843:853  msg.sender */\n      caller\n        /* \"OMS-Covid/oms.sol\":734:737  OMS */\n      0x00\n      0x00\n      swap1\n      sload\n      swap1\n      0x0100\n      exp\n      swap1\n      div\n      0xffffffffffffffffffffffffffffffffffffffff\n      and\n        /* \"OMS-Covid/oms.sol\":722:737  _address == OMS */\n      0xffffffffffffffffffffffffffffffffffffffff\n      and\n        /* \"OMS-Covid/oms.sol\":722:730  _address */\n      dup2\n        /* \"OMS-Covid/oms.sol\":722:737  _address == OMS */\n      0xffffffffffffffffffffffffffffffffffffffff\n      and\n      eq\n        /* \"OMS-Covid/oms.sol\":713:749  require (_address == OMS,\"Only OMS\") */\n      tag_51\n      jumpi\n      mload(0x40)\n      0x08c379a000000000000000000000000000000000000000000000000000000000\n      dup2\n      mstore\n      0x04\n      add\n      tag_52\n      swap1\n      tag_33\n      jump\t// in\n    tag_52:\n      mload(0x40)\n      dup1\n      swap2\n      sub\n      swap1\n      revert\n    tag_51:\n        /* \"OMS-Covid/oms.sol\":911:915  true */\n      0x01\n        /* \"OMS-Covid/oms.sol\":871:894  Validation_HealthCenter */\n      dup1\n        /* \"OMS-Covid/oms.sol\":871:908  Validation_HealthCenter[_heathCenter] */\n      0x00\n        /* \"OMS-Covid/oms.sol\":895:907  _heathCenter */\n      dup5\n        /* \"OMS-Covid/oms.sol\":871:908  Validation_HealthCenter[_heathCenter] */\n      0xffffffffffffffffffffffffffffffffffffffff\n      and\n      0xffffffffffffffffffffffffffffffffffffffff\n      and\n      dup2\n      mstore\n      0x20\n      add\n      swap1\n      dup2\n      mstore\n      0x20\n      add\n      0x00\n      keccak256\n      0x00\n        /* \"OMS-Covid/oms.sol\":871:915  Validation_HealthCenter[_heathCenter] = true */\n      0x0100\n      exp\n      dup2\n      sload\n      dup2\n      0xff\n      mul\n      not\n      and\n      swap1\n      dup4\n      iszero\n      iszero\n      mul\n      or\n      swap1\n      sstore\n      pop\n        /* \"OMS-Covid/oms.sol\":931:965  NewContractValidated(_heathCenter) */\n      0x8bbdd2590ea2f491371a7a9bc0ebb7a0fd3a5220d29c26a8243fa17a423c3bbd\n        /* \"OMS-Covid/oms.sol\":952:964  _heathCenter */\n      dup3\n        /* \"OMS-Covid/oms.sol\":931:965  NewContractValidated(_heathCenter) */\n      mload(0x40)\n      tag_54\n      swap2\n      swap1\n      tag_12\n      jump\t// in\n    tag_54:\n      mload(0x40)\n      dup1\n      swap2\n      sub\n      swap1\n      log1\n        /* \"OMS-Covid/oms.sol\":778:973  function CreateHealthCenter(address _heathCenter) public OnlyOMS(msg.sender)... */\n      pop\n      pop\n      jump\t// out\n        /* \"OMS-Covid/oms.sol\":1459:1584  function RequestAccess() public ... */\n    tag_29:\n        /* \"OMS-Covid/oms.sol\":1508:1516  Requests */\n      0x03\n        /* \"OMS-Covid/oms.sol\":1522:1532  msg.sender */\n      caller\n        /* \"OMS-Covid/oms.sol\":1508:1533  Requests.push(msg.sender) */\n      swap1\n      dup1\n      0x01\n      dup2\n      sload\n      add\n      dup1\n      dup3\n      sstore\n      dup1\n      swap2\n      pop\n      pop\n      0x01\n      swap1\n      sub\n      swap1\n      0x00\n      mstore\n      keccak256(0x00, 0x20)\n      add\n      0x00\n      swap1\n      swap2\n      swap1\n      swap2\n      swap1\n      swap2\n      0x0100\n      exp\n      dup2\n      sload\n      dup2\n      0xffffffffffffffffffffffffffffffffffffffff\n      mul\n      not\n      and\n      swap1\n      dup4\n      0xffffffffffffffffffffffffffffffffffffffff\n      and\n      mul\n      or\n      swap1\n      sstore\n      pop\n        /* \"OMS-Covid/oms.sol\":1549:1576  RequestedAccess(msg.sender) */\n      0xd3e11ff7a43364483e47353d95ba01be4831f487a86d51ff7335a9a9c4852799\n        /* \"OMS-Covid/oms.sol\":1565:1575  msg.sender */\n      caller\n        /* \"OMS-Covid/oms.sol\":1549:1576  RequestedAccess(msg.sender) */\n      mload(0x40)\n      tag_57\n      swap2\n      swap1\n      tag_12\n      jump\t// in\n    tag_57:\n      mload(0x40)\n      dup1\n      swap2\n      sub\n      swap1\n      log1\n        /* \"OMS-Covid/oms.sol\":1459:1584  function RequestAccess() public ... */\n      jump\t// out\n    tag_42:\n      dataSize(sub_0)\n      dup1\n      dataOffset(sub_0)\n      dup4\n      codecopy\n      add\n      swap1\n      jump\t// out\n        /* \"#utility.yul\":7:133   */\n    tag_58:\n        /* \"#utility.yul\":44:51   */\n      0x00\n        /* \"#utility.yul\":84:126   */\n      0xffffffffffffffffffffffffffffffffffffffff\n        /* \"#utility.yul\":77:82   */\n      dup3\n        /* \"#utility.yul\":73:127   */\n      and\n        /* \"#utility.yul\":62:127   */\n      swap1\n      pop\n        /* \"#utility.yul\":7:133   */\n      swap2\n      swap1\n      pop\n      jump\t// out\n        /* \"#utility.yul\":139:235   */\n    tag_59:\n        /* \"#utility.yul\":176:183   */\n      0x00\n        /* \"#utility.yul\":205:229   */\n      tag_84\n        /* \"#utility.yul\":223:228   */\n      dup3\n        /* \"#utility.yul\":205:229   */\n      tag_58\n      jump\t// in\n    tag_84:\n        /* \"#utility.yul\":194:229   */\n      swap1\n      pop\n        /* \"#utility.yul\":139:235   */\n      swap2\n      swap1\n      pop\n      jump\t// out\n        /* \"#utility.yul\":241:359   */\n    tag_60:\n        /* \"#utility.yul\":328:352   */\n      tag_86\n        /* \"#utility.yul\":346:351   */\n      dup2\n        /* \"#utility.yul\":328:352   */\n      tag_59\n      jump\t// in\n    tag_86:\n        /* \"#utility.yul\":323:326   */\n      dup3\n        /* \"#utility.yul\":316:353   */\n      mstore\n        /* \"#utility.yul\":241:359   */\n      pop\n      pop\n      jump\t// out\n        /* \"#utility.yul\":365:587   */\n    tag_12:\n        /* \"#utility.yul\":458:462   */\n      0x00\n        /* \"#utility.yul\":496:498   */\n      0x20\n        /* \"#utility.yul\":485:494   */\n      dup3\n        /* \"#utility.yul\":481:499   */\n      add\n        /* \"#utility.yul\":473:499   */\n      swap1\n      pop\n        /* \"#utility.yul\":509:580   */\n      tag_88\n        /* \"#utility.yul\":577:578   */\n      0x00\n        /* \"#utility.yul\":566:575   */\n      dup4\n        /* \"#utility.yul\":562:579   */\n      add\n        /* \"#utility.yul\":553:559   */\n      dup5\n        /* \"#utility.yul\":509:580   */\n      tag_60\n      jump\t// in\n    tag_88:\n        /* \"#utility.yul\":365:587   */\n      swap3\n      swap2\n      pop\n      pop\n      jump\t// out\n        /* \"#utility.yul\":593:707   */\n    tag_61:\n        /* \"#utility.yul\":660:666   */\n      0x00\n        /* \"#utility.yul\":694:699   */\n      dup2\n        /* \"#utility.yul\":688:700   */\n      mload\n        /* \"#utility.yul\":678:700   */\n      swap1\n      pop\n        /* \"#utility.yul\":593:707   */\n      swap2\n      swap1\n      pop\n      jump\t// out\n        /* \"#utility.yul\":713:897   */\n    tag_62:\n        /* \"#utility.yul\":812:823   */\n      0x00\n        /* \"#utility.yul\":846:852   */\n      dup3\n        /* \"#utility.yul\":841:844   */\n      dup3\n        /* \"#utility.yul\":834:853   */\n      mstore\n        /* \"#utility.yul\":886:890   */\n      0x20\n        /* \"#utility.yul\":881:884   */\n      dup3\n        /* \"#utility.yul\":877:891   */\n      add\n        /* \"#utility.yul\":862:891   */\n      swap1\n      pop\n        /* \"#utility.yul\":713:897   */\n      swap3\n      swap2\n      pop\n      pop\n      jump\t// out\n        /* \"#utility.yul\":903:1035   */\n    tag_63:\n        /* \"#utility.yul\":970:974   */\n      0x00\n        /* \"#utility.yul\":993:996   */\n      dup2\n        /* \"#utility.yul\":985:996   */\n      swap1\n      pop\n        /* \"#utility.yul\":1023:1027   */\n      0x20\n        /* \"#utility.yul\":1018:1021   */\n      dup3\n        /* \"#utility.yul\":1014:1028   */\n      add\n        /* \"#utility.yul\":1006:1028   */\n      swap1\n      pop\n        /* \"#utility.yul\":903:1035   */\n      swap2\n      swap1\n      pop\n      jump\t// out\n        /* \"#utility.yul\":1041:1149   */\n    tag_64:\n        /* \"#utility.yul\":1118:1142   */\n      tag_93\n        /* \"#utility.yul\":1136:1141   */\n      dup2\n        /* \"#utility.yul\":1118:1142   */\n      tag_59\n      jump\t// in\n    tag_93:\n        /* \"#utility.yul\":1113:1116   */\n      dup3\n        /* \"#utility.yul\":1106:1143   */\n      mstore\n        /* \"#utility.yul\":1041:1149   */\n      pop\n      pop\n      jump\t// out\n        /* \"#utility.yul\":1155:1334   */\n    tag_65:\n        /* \"#utility.yul\":1224:1234   */\n      0x00\n        /* \"#utility.yul\":1245:1291   */\n      tag_95\n        /* \"#utility.yul\":1287:1290   */\n      dup4\n        /* \"#utility.yul\":1279:1285   */\n      dup4\n        /* \"#utility.yul\":1245:1291   */\n      tag_64\n      jump\t// in\n    tag_95:\n        /* \"#utility.yul\":1323:1327   */\n      0x20\n        /* \"#utility.yul\":1318:1321   */\n      dup4\n        /* \"#utility.yul\":1314:1328   */\n      add\n        /* \"#utility.yul\":1300:1328   */\n      swap1\n      pop\n        /* \"#utility.yul\":1155:1334   */\n      swap3\n      swap2\n      pop\n      pop\n      jump\t// out\n        /* \"#utility.yul\":1340:1453   */\n    tag_66:\n        /* \"#utility.yul\":1410:1414   */\n      0x00\n        /* \"#utility.yul\":1442:1446   */\n      0x20\n        /* \"#utility.yul\":1437:1440   */\n      dup3\n        /* \"#utility.yul\":1433:1447   */\n      add\n        /* \"#utility.yul\":1425:1447   */\n      swap1\n      pop\n        /* \"#utility.yul\":1340:1453   */\n      swap2\n      swap1\n      pop\n      jump\t// out\n        /* \"#utility.yul\":1489:2221   */\n    tag_67:\n        /* \"#utility.yul\":1608:1611   */\n      0x00\n        /* \"#utility.yul\":1637:1691   */\n      tag_98\n        /* \"#utility.yul\":1685:1690   */\n      dup3\n        /* \"#utility.yul\":1637:1691   */\n      tag_61\n      jump\t// in\n    tag_98:\n        /* \"#utility.yul\":1707:1793   */\n      tag_99\n        /* \"#utility.yul\":1786:1792   */\n      dup2\n        /* \"#utility.yul\":1781:1784   */\n      dup6\n        /* \"#utility.yul\":1707:1793   */\n      tag_62\n      jump\t// in\n    tag_99:\n        /* \"#utility.yul\":1700:1793   */\n      swap4\n      pop\n        /* \"#utility.yul\":1817:1873   */\n      tag_100\n        /* \"#utility.yul\":1867:1872   */\n      dup4\n        /* \"#utility.yul\":1817:1873   */\n      tag_63\n      jump\t// in\n    tag_100:\n        /* \"#utility.yul\":1896:1903   */\n      dup1\n        /* \"#utility.yul\":1927:1928   */\n      0x00\n        /* \"#utility.yul\":1912:2196   */\n    tag_101:\n        /* \"#utility.yul\":1937:1943   */\n      dup4\n        /* \"#utility.yul\":1934:1935   */\n      dup2\n        /* \"#utility.yul\":1931:1944   */\n      lt\n        /* \"#utility.yul\":1912:2196   */\n      iszero\n      tag_103\n      jumpi\n        /* \"#utility.yul\":2013:2019   */\n      dup2\n        /* \"#utility.yul\":2007:2020   */\n      mload\n        /* \"#utility.yul\":2040:2103   */\n      tag_104\n        /* \"#utility.yul\":2099:2102   */\n      dup9\n        /* \"#utility.yul\":2084:2097   */\n      dup3\n        /* \"#utility.yul\":2040:2103   */\n      tag_65\n      jump\t// in\n    tag_104:\n        /* \"#utility.yul\":2033:2103   */\n      swap8\n      pop\n        /* \"#utility.yul\":2126:2186   */\n      tag_105\n        /* \"#utility.yul\":2179:2185   */\n      dup4\n        /* \"#utility.yul\":2126:2186   */\n      tag_66\n      jump\t// in\n    tag_105:\n        /* \"#utility.yul\":2116:2186   */\n      swap3\n      pop\n        /* \"#utility.yul\":1972:2196   */\n      pop\n        /* \"#utility.yul\":1959:1960   */\n      0x01\n        /* \"#utility.yul\":1956:1957   */\n      dup2\n        /* \"#utility.yul\":1952:1961   */\n      add\n        /* \"#utility.yul\":1947:1961   */\n      swap1\n      pop\n        /* \"#utility.yul\":1912:2196   */\n      jump(tag_101)\n    tag_103:\n        /* \"#utility.yul\":1916:1930   */\n      pop\n        /* \"#utility.yul\":2212:2215   */\n      dup6\n        /* \"#utility.yul\":2205:2215   */\n      swap4\n      pop\n        /* \"#utility.yul\":1613:2221   */\n      pop\n      pop\n      pop\n        /* \"#utility.yul\":1489:2221   */\n      swap3\n      swap2\n      pop\n      pop\n      jump\t// out\n        /* \"#utility.yul\":2227:2600   */\n    tag_16:\n        /* \"#utility.yul\":2370:2374   */\n      0x00\n        /* \"#utility.yul\":2408:2410   */\n      0x20\n        /* \"#utility.yul\":2397:2406   */\n      dup3\n        /* \"#utility.yul\":2393:2411   */\n      add\n        /* \"#utility.yul\":2385:2411   */\n      swap1\n      pop\n        /* \"#utility.yul\":2457:2466   */\n      dup2\n        /* \"#utility.yul\":2451:2455   */\n      dup2\n        /* \"#utility.yul\":2447:2467   */\n      sub\n        /* \"#utility.yul\":2443:2444   */\n      0x00\n        /* \"#utility.yul\":2432:2441   */\n      dup4\n        /* \"#utility.yul\":2428:2445   */\n      add\n        /* \"#utility.yul\":2421:2468   */\n      mstore\n        /* \"#utility.yul\":2485:2593   */\n      tag_107\n        /* \"#utility.yul\":2588:2592   */\n      dup2\n        /* \"#utility.yul\":2579:2585   */\n      dup5\n        /* \"#utility.yul\":2485:2593   */\n      tag_67\n      jump\t// in\n    tag_107:\n        /* \"#utility.yul\":2477:2593   */\n      swap1\n      pop\n        /* \"#utility.yul\":2227:2600   */\n      swap3\n      swap2\n      pop\n      pop\n      jump\t// out\n        /* \"#utility.yul\":2687:2804   */\n    tag_69:\n        /* \"#utility.yul\":2796:2797   */\n      0x00\n        /* \"#utility.yul\":2793:2794   */\n      0x00\n        /* \"#utility.yul\":2786:2798   */\n      revert\n        /* \"#utility.yul\":2933:3010   */\n    tag_71:\n        /* \"#utility.yul\":2970:2977   */\n      0x00\n        /* \"#utility.yul\":2999:3004   */\n      dup2\n        /* \"#utility.yul\":2988:3004   */\n      swap1\n      pop\n        /* \"#utility.yul\":2933:3010   */\n      swap2\n      swap1\n      pop\n      jump\t// out\n        /* \"#utility.yul\":3016:3138   */\n    tag_72:\n        /* \"#utility.yul\":3089:3113   */\n      tag_113\n        /* \"#utility.yul\":3107:3112   */\n      dup2\n        /* \"#utility.yul\":3089:3113   */\n      tag_71\n      jump\t// in\n    tag_113:\n        /* \"#utility.yul\":3082:3087   */\n      dup2\n        /* \"#utility.yul\":3079:3114   */\n      eq\n        /* \"#utility.yul\":3069:3132   */\n      tag_114\n      jumpi\n        /* \"#utility.yul\":3128:3129   */\n      0x00\n        /* \"#utility.yul\":3125:3126   */\n      0x00\n        /* \"#utility.yul\":3118:3130   */\n      revert\n        /* \"#utility.yul\":3069:3132   */\n    tag_114:\n        /* \"#utility.yul\":3016:3138   */\n      pop\n      jump\t// out\n        /* \"#utility.yul\":3144:3283   */\n    tag_73:\n        /* \"#utility.yul\":3190:3195   */\n      0x00\n        /* \"#utility.yul\":3228:3234   */\n      dup2\n        /* \"#utility.yul\":3215:3235   */\n      calldataload\n        /* \"#utility.yul\":3206:3235   */\n      swap1\n      pop\n        /* \"#utility.yul\":3244:3277   */\n      tag_116\n        /* \"#utility.yul\":3271:3276   */\n      dup2\n        /* \"#utility.yul\":3244:3277   */\n      tag_72\n      jump\t// in\n    tag_116:\n        /* \"#utility.yul\":3144:3283   */\n      swap3\n      swap2\n      pop\n      pop\n      jump\t// out\n        /* \"#utility.yul\":3289:3618   */\n    tag_21:\n        /* \"#utility.yul\":3348:3354   */\n      0x00\n        /* \"#utility.yul\":3397:3399   */\n      0x20\n        /* \"#utility.yul\":3385:3394   */\n      dup3\n        /* \"#utility.yul\":3376:3383   */\n      dup5\n        /* \"#utility.yul\":3372:3395   */\n      sub\n        /* \"#utility.yul\":3368:3400   */\n      slt\n        /* \"#utility.yul\":3365:3484   */\n      iszero\n      tag_118\n      jumpi\n        /* \"#utility.yul\":3403:3482   */\n      tag_119\n      tag_69\n      jump\t// in\n    tag_119:\n        /* \"#utility.yul\":3365:3484   */\n    tag_118:\n        /* \"#utility.yul\":3523:3524   */\n      0x00\n        /* \"#utility.yul\":3548:3601   */\n      tag_120\n        /* \"#utility.yul\":3593:3600   */\n      dup5\n        /* \"#utility.yul\":3584:3590   */\n      dup3\n        /* \"#utility.yul\":3573:3582   */\n      dup6\n        /* \"#utility.yul\":3569:3591   */\n      add\n        /* \"#utility.yul\":3548:3601   */\n      tag_73\n      jump\t// in\n    tag_120:\n        /* \"#utility.yul\":3538:3601   */\n      swap2\n      pop\n        /* \"#utility.yul\":3494:3611   */\n      pop\n        /* \"#utility.yul\":3289:3618   */\n      swap3\n      swap2\n      pop\n      pop\n      jump\t// out\n        /* \"#utility.yul\":3624:3746   */\n    tag_74:\n        /* \"#utility.yul\":3697:3721   */\n      tag_122\n        /* \"#utility.yul\":3715:3720   */\n      dup2\n        /* \"#utility.yul\":3697:3721   */\n      tag_59\n      jump\t// in\n    tag_122:\n        /* \"#utility.yul\":3690:3695   */\n      dup2\n        /* \"#utility.yul\":3687:3722   */\n      eq\n        /* \"#utility.yul\":3677:3740   */\n      tag_123\n      jumpi\n        /* \"#utility.yul\":3736:3737   */\n      0x00\n        /* \"#utility.yul\":3733:3734   */\n      0x00\n        /* \"#utility.yul\":3726:3738   */\n      revert\n        /* \"#utility.yul\":3677:3740   */\n    tag_123:\n        /* \"#utility.yul\":3624:3746   */\n      pop\n      jump\t// out\n        /* \"#utility.yul\":3752:3891   */\n    tag_75:\n        /* \"#utility.yul\":3798:3803   */\n      0x00\n        /* \"#utility.yul\":3836:3842   */\n      dup2\n        /* \"#utility.yul\":3823:3843   */\n      calldataload\n        /* \"#utility.yul\":3814:3843   */\n      swap1\n      pop\n        /* \"#utility.yul\":3852:3885   */\n      tag_125\n        /* \"#utility.yul\":3879:3884   */\n      dup2\n        /* \"#utility.yul\":3852:3885   */\n      tag_74\n      jump\t// in\n    tag_125:\n        /* \"#utility.yul\":3752:3891   */\n      swap3\n      swap2\n      pop\n      pop\n      jump\t// out\n        /* \"#utility.yul\":3897:4226   */\n    tag_26:\n        /* \"#utility.yul\":3956:3962   */\n      0x00\n        /* \"#utility.yul\":4005:4007   */\n      0x20\n        /* \"#utility.yul\":3993:4002   */\n      dup3\n        /* \"#utility.yul\":3984:3991   */\n      dup5\n        /* \"#utility.yul\":3980:4003   */\n      sub\n        /* \"#utility.yul\":3976:4008   */\n      slt\n        /* \"#utility.yul\":3973:4092   */\n      iszero\n      tag_127\n      jumpi\n        /* \"#utility.yul\":4011:4090   */\n      tag_128\n      tag_69\n      jump\t// in\n    tag_128:\n        /* \"#utility.yul\":3973:4092   */\n    tag_127:\n        /* \"#utility.yul\":4131:4132   */\n      0x00\n        /* \"#utility.yul\":4156:4209   */\n      tag_129\n        /* \"#utility.yul\":4201:4208   */\n      dup5\n        /* \"#utility.yul\":4192:4198   */\n      dup3\n        /* \"#utility.yul\":4181:4190   */\n      dup6\n        /* \"#utility.yul\":4177:4199   */\n      add\n        /* \"#utility.yul\":4156:4209   */\n      tag_75\n      jump\t// in\n    tag_129:\n        /* \"#utility.yul\":4146:4209   */\n      swap2\n      pop\n        /* \"#utility.yul\":4102:4219   */\n      pop\n        /* \"#utility.yul\":3897:4226   */\n      swap3\n      swap2\n      pop\n      pop\n      jump\t// out\n        /* \"#utility.yul\":4232:4401   */\n    tag_76:\n        /* \"#utility.yul\":4316:4327   */\n      0x00\n        /* \"#utility.yul\":4350:4356   */\n      dup3\n        /* \"#utility.yul\":4345:4348   */\n      dup3\n        /* \"#utility.yul\":4338:4357   */\n      mstore\n        /* \"#utility.yul\":4390:4394   */\n      0x20\n        /* \"#utility.yul\":4385:4388   */\n      dup3\n        /* \"#utility.yul\":4381:4395   */\n      add\n        /* \"#utility.yul\":4366:4395   */\n      swap1\n      pop\n        /* \"#utility.yul\":4232:4401   */\n      swap3\n      swap2\n      pop\n      pop\n      jump\t// out\n        /* \"#utility.yul\":4407:4565   */\n    tag_77:\n        /* \"#utility.yul\":4547:4557   */\n      0x4f6e6c79204f4d53000000000000000000000000000000000000000000000000\n        /* \"#utility.yul\":4543:4544   */\n      0x00\n        /* \"#utility.yul\":4535:4541   */\n      dup3\n        /* \"#utility.yul\":4531:4545   */\n      add\n        /* \"#utility.yul\":4524:4558   */\n      mstore\n        /* \"#utility.yul\":4407:4565   */\n      pop\n      jump\t// out\n        /* \"#utility.yul\":4571:4936   */\n    tag_78:\n        /* \"#utility.yul\":4713:4716   */\n      0x00\n        /* \"#utility.yul\":4734:4800   */\n      tag_133\n        /* \"#utility.yul\":4798:4799   */\n      0x08\n        /* \"#utility.yul\":4793:4796   */\n      dup4\n        /* \"#utility.yul\":4734:4800   */\n      tag_76\n      jump\t// in\n    tag_133:\n        /* \"#utility.yul\":4727:4800   */\n      swap2\n      pop\n        /* \"#utility.yul\":4809:4902   */\n      tag_134\n        /* \"#utility.yul\":4898:4901   */\n      dup3\n        /* \"#utility.yul\":4809:4902   */\n      tag_77\n      jump\t// in\n    tag_134:\n        /* \"#utility.yul\":4927:4929   */\n      0x20\n        /* \"#utility.yul\":4922:4925   */\n      dup3\n        /* \"#utility.yul\":4918:4930   */\n      add\n        /* \"#utility.yul\":4911:4930   */\n      swap1\n      pop\n        /* \"#utility.yul\":4571:4936   */\n      swap2\n      swap1\n      pop\n      jump\t// out\n        /* \"#utility.yul\":4942:5361   */\n    tag_33:\n        /* \"#utility.yul\":5108:5112   */\n      0x00\n        /* \"#utility.yul\":5146:5148   */\n      0x20\n        /* \"#utility.yul\":5135:5144   */\n      dup3\n        /* \"#utility.yul\":5131:5149   */\n      add\n        /* \"#utility.yul\":5123:5149   */\n      swap1\n      pop\n        /* \"#utility.yul\":5195:5204   */\n      dup2\n        /* \"#utility.yul\":5189:5193   */\n      dup2\n        /* \"#utility.yul\":5185:5205   */\n      sub\n        /* \"#utility.yul\":5181:5182   */\n      0x00\n        /* \"#utility.yul\":5170:5179   */\n      dup4\n        /* \"#utility.yul\":5166:5183   */\n      add\n        /* \"#utility.yul\":5159:5206   */\n      mstore\n        /* \"#utility.yul\":5223:5354   */\n      tag_136\n        /* \"#utility.yul\":5349:5353   */\n      dup2\n        /* \"#utility.yul\":5223:5354   */\n      tag_78\n      jump\t// in\n    tag_136:\n        /* \"#utility.yul\":5215:5354   */\n      swap1\n      pop\n        /* \"#utility.yul\":4942:5361   */\n      swap2\n      swap1\n      pop\n      jump\t// out\n        /* \"#utility.yul\":5367:5533   */\n    tag_79:\n        /* \"#utility.yul\":5507:5525   */\n      0x446f6e7420686176652061636365737300000000000000000000000000000000\n        /* \"#utility.yul\":5503:5504   */\n      0x00\n        /* \"#utility.yul\":5495:5501   */\n      dup3\n        /* \"#utility.yul\":5491:5505   */\n      add\n        /* \"#utility.yul\":5484:5526   */\n      mstore\n        /* \"#utility.yul\":5367:5533   */\n      pop\n      jump\t// out\n        /* \"#utility.yul\":5539:5905   */\n    tag_80:\n        /* \"#utility.yul\":5681:5684   */\n      0x00\n        /* \"#utility.yul\":5702:5769   */\n      tag_139\n        /* \"#utility.yul\":5766:5768   */\n      0x10\n        /* \"#utility.yul\":5761:5764   */\n      dup4\n        /* \"#utility.yul\":5702:5769   */\n      tag_76\n      jump\t// in\n    tag_139:\n        /* \"#utility.yul\":5695:5769   */\n      swap2\n      pop\n        /* \"#utility.yul\":5778:5871   */\n      tag_140\n        /* \"#utility.yul\":5867:5870   */\n      dup3\n        /* \"#utility.yul\":5778:5871   */\n      tag_79\n      jump\t// in\n    tag_140:\n        /* \"#utility.yul\":5896:5898   */\n      0x20\n        /* \"#utility.yul\":5891:5894   */\n      dup3\n        /* \"#utility.yul\":5887:5899   */\n      add\n        /* \"#utility.yul\":5880:5899   */\n      swap1\n      pop\n        /* \"#utility.yul\":5539:5905   */\n      swap2\n      swap1\n      pop\n      jump\t// out\n        /* \"#utility.yul\":5911:6330   */\n    tag_40:\n        /* \"#utility.yul\":6077:6081   */\n      0x00\n        /* \"#utility.yul\":6115:6117   */\n      0x20\n        /* \"#utility.yul\":6104:6113   */\n      dup3\n        /* \"#utility.yul\":6100:6118   */\n      add\n        /* \"#utility.yul\":6092:6118   */\n      swap1\n      pop\n        /* \"#utility.yul\":6164:6173   */\n      dup2\n        /* \"#utility.yul\":6158:6162   */\n      dup2\n        /* \"#utility.yul\":6154:6174   */\n      sub\n        /* \"#utility.yul\":6150:6151   */\n      0x00\n        /* \"#utility.yul\":6139:6148   */\n      dup4\n        /* \"#utility.yul\":6135:6152   */\n      add\n        /* \"#utility.yul\":6128:6175   */\n      mstore\n        /* \"#utility.yul\":6192:6323   */\n      tag_142\n        /* \"#utility.yul\":6318:6322   */\n      dup2\n        /* \"#utility.yul\":6192:6323   */\n      tag_80\n      jump\t// in\n    tag_142:\n        /* \"#utility.yul\":6184:6323   */\n      swap1\n      pop\n        /* \"#utility.yul\":5911:6330   */\n      swap2\n      swap1\n      pop\n      jump\t// out\n        /* \"#utility.yul\":6336:6668   */\n    tag_47:\n        /* \"#utility.yul\":6457:6461   */\n      0x00\n        /* \"#utility.yul\":6495:6497   */\n      0x40\n        /* \"#utility.yul\":6484:6493   */\n      dup3\n        /* \"#utility.yul\":6480:6498   */\n      add\n        /* \"#utility.yul\":6472:6498   */\n      swap1\n      pop\n        /* \"#utility.yul\":6508:6579   */\n      tag_144\n        /* \"#utility.yul\":6576:6577   */\n      0x00\n        /* \"#utility.yul\":6565:6574   */\n      dup4\n        /* \"#utility.yul\":6561:6578   */\n      add\n        /* \"#utility.yul\":6552:6558   */\n      dup6\n        /* \"#utility.yul\":6508:6579   */\n      tag_60\n      jump\t// in\n    tag_144:\n        /* \"#utility.yul\":6589:6661   */\n      tag_145\n        /* \"#utility.yul\":6657:6659   */\n      0x20\n        /* \"#utility.yul\":6646:6655   */\n      dup4\n        /* \"#utility.yul\":6642:6660   */\n      add\n        /* \"#utility.yul\":6633:6639   */\n      dup5\n        /* \"#utility.yul\":6589:6661   */\n      tag_60\n      jump\t// in\n    tag_145:\n        /* \"#utility.yul\":6336:6668   */\n      swap4\n      swap3\n      pop\n      pop\n      pop\n      jump\t// out\n    stop\n\n    sub_0: assembly {\n            /* \"OMS-Covid/oms.sol\":1591:1842  contract HealthCenter... */\n          mstore(0x40, 0x80)\n            /* \"OMS-Covid/oms.sol\":1706:1839  constructor (address _address )  ... */\n          callvalue\n          dup1\n          iszero\n          tag_1\n          jumpi\n          revert(0x00, 0x00)\n        tag_1:\n          pop\n          mload(0x40)\n          sub(codesize, bytecodeSize)\n          dup1\n          bytecodeSize\n          dup4\n          codecopy\n          dup2\n          dup2\n          add\n          0x40\n          mstore\n          dup2\n          add\n          swap1\n          tag_2\n          swap2\n          swap1\n          tag_3\n          jump\t// in\n        tag_2:\n            /* \"OMS-Covid/oms.sol\":1779:1787  _address */\n          dup1\n            /* \"OMS-Covid/oms.sol\":1756:1776  ContractHealthCenter */\n          0x01\n          0x00\n            /* \"OMS-Covid/oms.sol\":1756:1787  ContractHealthCenter = _address */\n          0x0100\n          exp\n          dup2\n          sload\n          dup2\n          0xffffffffffffffffffffffffffffffffffffffff\n          mul\n          not\n          and\n          swap1\n          dup4\n          0xffffffffffffffffffffffffffffffffffffffff\n          and\n          mul\n          or\n          swap1\n          sstore\n          pop\n            /* \"OMS-Covid/oms.sol\":1826:1830  this */\n          address\n            /* \"OMS-Covid/oms.sol\":1798:1815  ContractDirection */\n          0x00\n          0x00\n            /* \"OMS-Covid/oms.sol\":1798:1831  ContractDirection = address(this) */\n          0x0100\n          exp\n          dup2\n          sload\n          dup2\n          0xffffffffffffffffffffffffffffffffffffffff\n          mul\n          not\n          and\n          swap1\n          dup4\n          0xffffffffffffffffffffffffffffffffffffffff\n          and\n          mul\n          or\n          swap1\n          sstore\n          pop\n            /* \"OMS-Covid/oms.sol\":1706:1839  constructor (address _address )  ... */\n          pop\n            /* \"OMS-Covid/oms.sol\":1591:1842  contract HealthCenter... */\n          jump(tag_6)\n            /* \"#utility.yul\":88:205   */\n        tag_8:\n            /* \"#utility.yul\":197:198   */\n          0x00\n            /* \"#utility.yul\":194:195   */\n          0x00\n            /* \"#utility.yul\":187:199   */\n          revert\n            /* \"#utility.yul\":334:460   */\n        tag_10:\n            /* \"#utility.yul\":371:378   */\n          0x00\n            /* \"#utility.yul\":411:453   */\n          0xffffffffffffffffffffffffffffffffffffffff\n            /* \"#utility.yul\":404:409   */\n          dup3\n            /* \"#utility.yul\":400:454   */\n          and\n            /* \"#utility.yul\":389:454   */\n          swap1\n          pop\n            /* \"#utility.yul\":334:460   */\n          swap2\n          swap1\n          pop\n          jump\t// out\n            /* \"#utility.yul\":466:562   */\n        tag_11:\n            /* \"#utility.yul\":503:510   */\n          0x00\n            /* \"#utility.yul\":532:556   */\n          tag_20\n            /* \"#utility.yul\":550:555   */\n          dup3\n            /* \"#utility.yul\":532:556   */\n          tag_10\n          jump\t// in\n        tag_20:\n            /* \"#utility.yul\":521:556   */\n          swap1\n          pop\n            /* \"#utility.yul\":466:562   */\n          swap2\n          swap1\n          pop\n          jump\t// out\n            /* \"#utility.yul\":568:690   */\n        tag_12:\n            /* \"#utility.yul\":641:665   */\n          tag_22\n            /* \"#utility.yul\":659:664   */\n          dup2\n            /* \"#utility.yul\":641:665   */\n          tag_11\n          jump\t// in\n        tag_22:\n            /* \"#utility.yul\":634:639   */\n          dup2\n            /* \"#utility.yul\":631:666   */\n          eq\n            /* \"#utility.yul\":621:684   */\n          tag_23\n          jumpi\n            /* \"#utility.yul\":680:681   */\n          0x00\n            /* \"#utility.yul\":677:678   */\n          0x00\n            /* \"#utility.yul\":670:682   */\n          revert\n            /* \"#utility.yul\":621:684   */\n        tag_23:\n            /* \"#utility.yul\":568:690   */\n          pop\n          jump\t// out\n            /* \"#utility.yul\":696:839   */\n        tag_13:\n            /* \"#utility.yul\":753:758   */\n          0x00\n            /* \"#utility.yul\":784:790   */\n          dup2\n            /* \"#utility.yul\":778:791   */\n          mload\n            /* \"#utility.yul\":769:791   */\n          swap1\n          pop\n            /* \"#utility.yul\":800:833   */\n          tag_25\n            /* \"#utility.yul\":827:832   */\n          dup2\n            /* \"#utility.yul\":800:833   */\n          tag_12\n          jump\t// in\n        tag_25:\n            /* \"#utility.yul\":696:839   */\n          swap3\n          swap2\n          pop\n          pop\n          jump\t// out\n            /* \"#utility.yul\":845:1196   */\n        tag_3:\n            /* \"#utility.yul\":915:921   */\n          0x00\n            /* \"#utility.yul\":964:966   */\n          0x20\n            /* \"#utility.yul\":952:961   */\n          dup3\n            /* \"#utility.yul\":943:950   */\n          dup5\n            /* \"#utility.yul\":939:962   */\n          sub\n            /* \"#utility.yul\":935:967   */\n          slt\n            /* \"#utility.yul\":932:1051   */\n          iszero\n          tag_27\n          jumpi\n            /* \"#utility.yul\":970:1049   */\n          tag_28\n          tag_8\n          jump\t// in\n        tag_28:\n            /* \"#utility.yul\":932:1051   */\n        tag_27:\n            /* \"#utility.yul\":1090:1091   */\n          0x00\n            /* \"#utility.yul\":1115:1179   */\n          tag_29\n            /* \"#utility.yul\":1171:1178   */\n          dup5\n            /* \"#utility.yul\":1162:1168   */\n          dup3\n            /* \"#utility.yul\":1151:1160   */\n          dup6\n            /* \"#utility.yul\":1147:1169   */\n          add\n            /* \"#utility.yul\":1115:1179   */\n          tag_13\n          jump\t// in\n        tag_29:\n            /* \"#utility.yul\":1105:1179   */\n          swap2\n          pop\n            /* \"#utility.yul\":1061:1189   */\n          pop\n            /* \"#utility.yul\":845:1196   */\n          swap3\n          swap2\n          pop\n          pop\n          jump\t// out\n            /* \"OMS-Covid/oms.sol\":1591:1842  contract HealthCenter... */\n        tag_6:\n          dataSize(sub_0)\n          dup1\n          dataOffset(sub_0)\n          0x00\n          codecopy\n          0x00\n          return\n        stop\n\n        sub_0: assembly {\n                /* \"OMS-Covid/oms.sol\":1591:1842  contract HealthCenter... */\n              mstore(0x40, 0x80)\n              callvalue\n              dup1\n              iszero\n              tag_1\n              jumpi\n              revert(0x00, 0x00)\n            tag_1:\n              pop\n              jumpi(tag_2, lt(calldatasize, 0x04))\n              shr(0xe0, calldataload(0x00))\n              dup1\n              0xb6d8c469\n              eq\n              tag_3\n              jumpi\n              dup1\n              0xc7704814\n              eq\n              tag_4\n              jumpi\n            tag_2:\n              revert(0x00, 0x00)\n                /* \"OMS-Covid/oms.sol\":1621:1654  address public  ContractDirection */\n            tag_3:\n              tag_5\n              tag_6\n              jump\t// in\n            tag_5:\n              mload(0x40)\n              tag_7\n              swap2\n              swap1\n              tag_8\n              jump\t// in\n            tag_7:\n              mload(0x40)\n              dup1\n              swap2\n              sub\n              swap1\n              return\n                /* \"OMS-Covid/oms.sol\":1661:1697  address public  ContractHealthCenter */\n            tag_4:\n              tag_9\n              tag_10\n              jump\t// in\n            tag_9:\n              mload(0x40)\n              tag_11\n              swap2\n              swap1\n              tag_8\n              jump\t// in\n            tag_11:\n              mload(0x40)\n              dup1\n              swap2\n              sub\n              swap1\n              return\n                /* \"OMS-Covid/oms.sol\":1621:1654  address public  ContractDirection */\n            tag_6:\n              0x00\n              0x00\n              swap1\n              sload\n              swap1\n              0x0100\n              exp\n              swap1\n              div\n              0xffffffffffffffffffffffffffffffffffffffff\n              and\n              dup2\n              jump\t// out\n                /* \"OMS-Covid/oms.sol\":1661:1697  address public  ContractHealthCenter */\n            tag_10:\n              0x01\n              0x00\n              swap1\n              sload\n              swap1\n              0x0100\n              exp\n              swap1\n              div\n              0xffffffffffffffffffffffffffffffffffffffff\n              and\n              dup2\n              jump\t// out\n                /* \"#utility.yul\":7:133   */\n            tag_12:\n                /* \"#utility.yul\":44:51   */\n              0x00\n                /* \"#utility.yul\":84:126   */\n              0xffffffffffffffffffffffffffffffffffffffff\n                /* \"#utility.yul\":77:82   */\n              dup3\n                /* \"#utility.yul\":73:127   */\n              and\n                /* \"#utility.yul\":62:127   */\n              swap1\n              pop\n                /* \"#utility.yul\":7:133   */\n              swap2\n              swap1\n              pop\n              jump\t// out\n                /* \"#utility.yul\":139:235   */\n            tag_13:\n                /* \"#utility.yul\":176:183   */\n              0x00\n                /* \"#utility.yul\":205:229   */\n              tag_18\n                /* \"#utility.yul\":223:228   */\n              dup3\n                /* \"#utility.yul\":205:229   */\n              tag_12\n              jump\t// in\n            tag_18:\n                /* \"#utility.yul\":194:229   */\n              swap1\n              pop\n                /* \"#utility.yul\":139:235   */\n              swap2\n              swap1\n              pop\n              jump\t// out\n                /* \"#utility.yul\":241:359   */\n            tag_14:\n                /* \"#utility.yul\":328:352   */\n              tag_20\n                /* \"#utility.yul\":346:351   */\n              dup2\n                /* \"#utility.yul\":328:352   */\n              tag_13\n              jump\t// in\n            tag_20:\n                /* \"#utility.yul\":323:326   */\n              dup3\n                /* \"#utility.yul\":316:353   */\n              mstore\n                /* \"#utility.yul\":241:359   */\n              pop\n              pop\n              jump\t// out\n                /* \"#utility.yul\":365:587   */\n            tag_8:\n                /* \"#utility.yul\":458:462   */\n              0x00\n                /* \"#utility.yul\":496:498   */\n              0x20\n                /* \"#utility.yul\":485:494   */\n              dup3\n                /* \"#utility.yul\":481:499   */\n              add\n                /* \"#utility.yul\":473:499   */\n              swap1\n              pop\n                /* \"#utility.yul\":509:580   */\n              tag_22\n                /* \"#utility.yul\":577:578   */\n              0x00\n                /* \"#utility.yul\":566:575   */\n              dup4\n                /* \"#utility.yul\":562:579   */\n              add\n                /* \"#utility.yul\":553:559   */\n              dup5\n                /* \"#utility.yul\":509:580   */\n              tag_14\n              jump\t// in\n            tag_22:\n                /* \"#utility.yul\":365:587   */\n              swap3\n              swap2\n              pop\n              pop\n              jump\t// out\n\n            auxdata: 0xa264697066735822122074c2bf6834cb93431d5ac0180cc09e6b5f88990b9cbff2bba4ec426e3bbc35f164736f6c634300081e0033\n        }\n    }\n\n    auxdata: 0xa2646970667358221220f7aa6a221b2a756fcef43b8514faf104f76a5f93e92758c15fb889b05689516d64736f6c634300081e0033\n}\n",
				"bytecode": {
					"linkReferences": {},
					"object": "6080604052348015600e575f5ffd5b50335f5f6101000a81548173ffffffffffffffffffffffffffffffffffffffff021916908373ffffffffffffffffffffffffffffffffffffffff160217905550610b588061005b5f395ff3fe608060405234801561000f575f5ffd5b5060043610610060575f3560e01c8063057dd608146100645780632813eabd146100825780636fdc01b6146100a057806373defae0146100aa57806390eebe3b146100da578063c9d51ca8146100f6575b5f5ffd5b61006c610100565b60405161007991906105dd565b60405180910390f35b61008a610124565b60405161009791906106ad565b60405180910390f35b6100a861023f565b005b6100c460048036038101906100bf9190610704565b61039f565b6040516100d191906105dd565b60405180910390f35b6100f460048036038101906100ef9190610759565b6103da565b005b6100fe6104f8565b005b5f5f9054906101000a900473ffffffffffffffffffffffffffffffffffffffff1681565b6060335f5f9054906101000a900473ffffffffffffffffffffffffffffffffffffffff1673ffffffffffffffffffffffffffffffffffffffff168173ffffffffffffffffffffffffffffffffffffffff16146101b5576040517f08c379a00000000000000000000000000000000000000000000000000000000081526004016101ac906107de565b60405180910390fd5b600380548060200260200160405190810160405280929190818152602001828054801561023457602002820191905f5260205f20905b815f9054906101000a900473ffffffffffffffffffffffffffffffffffffffff1673ffffffffffffffffffffffffffffffffffffffff16815260200190600101908083116101eb575b505050505091505090565b6001151560015f3373ffffffffffffffffffffffffffffffffffffffff1673ffffffffffffffffffffffffffffffffffffffff1681526020019081526020015f205f9054906101000a900460ff161515146102cf576040517f08c379a00000000000000000000000000000000000000000000000000000000081526004016102c690610846565b60405180910390fd5b5f336040516102dd90610591565b6102e791906105dd565b604051809103905ff080158015610300573d5f5f3e3d5ffd5b509050600281908060018154018082558091505060019003905f5260205f20015f9091909190916101000a81548173ffffffffffffffffffffffffffffffffffffffff021916908373ffffffffffffffffffffffffffffffffffffffff1602179055507f17182ea1a6748f7923ea0bfb4bf8bc76cc894e662541ad1ea15797322d541db88133604051610394929190610864565b60405180910390a150565b600281815481106103ae575f80fd5b905f5260205f20015f915054906101000a900473ffffffffffffffffffffffffffffffffffffffff1681565b335f5f9054906101000a900473ffffffffffffffffffffffffffffffffffffffff1673ffffffffffffffffffffffffffffffffffffffff168173ffffffffffffffffffffffffffffffffffffffff1614610469576040517f08c379a0000000000000000000000000000000000000000000000000000000008152600401610460906107de565b60405180910390fd5b6001805f8473ffffffffffffffffffffffffffffffffffffffff1673ffffffffffffffffffffffffffffffffffffffff1681526020019081526020015f205f6101000a81548160ff0219169083151502179055507f8bbdd2590ea2f491371a7a9bc0ebb7a0fd3a5220d29c26a8243fa17a423c3bbd826040516104ec91906105dd565b60405180910390a15050565b600333908060018154018082558091505060019003905f5260205f20015f9091909190916101000a81548173ffffffffffffffffffffffffffffffffffffffff021916908373ffffffffffffffffffffffffffffffffffffffff1602179055507fd3e11ff7a43364483e47353d95ba01be4831f487a86d51ff7335a9a9c48527993360405161058791906105dd565b60405180910390a1565b6102978061088c83390190565b5f73ffffffffffffffffffffffffffffffffffffffff82169050919050565b5f6105c78261059e565b9050919050565b6105d7816105bd565b82525050565b5f6020820190506105f05f8301846105ce565b92915050565b5f81519050919050565b5f82825260208201905092915050565b5f819050602082019050919050565b610628816105bd565b82525050565b5f610639838361061f565b60208301905092915050565b5f602082019050919050565b5f61065b826105f6565b6106658185610600565b935061067083610610565b805f5b838110156106a0578151610687888261062e565b975061069283610645565b925050600181019050610673565b5085935050505092915050565b5f6020820190508181035f8301526106c58184610651565b905092915050565b5f5ffd5b5f819050919050565b6106e3816106d1565b81146106ed575f5ffd5b50565b5f813590506106fe816106da565b92915050565b5f60208284031215610719576107186106cd565b5b5f610726848285016106f0565b91505092915050565b610738816105bd565b8114610742575f5ffd5b50565b5f813590506107538161072f565b92915050565b5f6020828403121561076e5761076d6106cd565b5b5f61077b84828501610745565b91505092915050565b5f82825260208201905092915050565b7f4f6e6c79204f4d530000000000000000000000000000000000000000000000005f82015250565b5f6107c8600883610784565b91506107d382610794565b602082019050919050565b5f6020820190508181035f8301526107f5816107bc565b9050919050565b7f446f6e74206861766520616363657373000000000000000000000000000000005f82015250565b5f610830601083610784565b915061083b826107fc565b602082019050919050565b5f6020820190508181035f83015261085d81610824565b9050919050565b5f6040820190506108775f8301856105ce565b61088460208301846105ce565b939250505056fe608060405234801561000f575f5ffd5b5060405161029738038061029783398181016040528101906100319190610114565b8060015f6101000a81548173ffffffffffffffffffffffffffffffffffffffff021916908373ffffffffffffffffffffffffffffffffffffffff160217905550305f5f6101000a81548173ffffffffffffffffffffffffffffffffffffffff021916908373ffffffffffffffffffffffffffffffffffffffff1602179055505061013f565b5f5ffd5b5f73ffffffffffffffffffffffffffffffffffffffff82169050919050565b5f6100e3826100ba565b9050919050565b6100f3816100d9565b81146100fd575f5ffd5b50565b5f8151905061010e816100ea565b92915050565b5f60208284031215610129576101286100b6565b5b5f61013684828501610100565b91505092915050565b61014b8061014c5f395ff3fe608060405234801561000f575f5ffd5b5060043610610034575f3560e01c8063b6d8c46914610038578063c770481414610056575b5f5ffd5b610040610074565b60405161004d91906100fc565b60405180910390f35b61005e610098565b60405161006b91906100fc565b60405180910390f35b5f5f9054906101000a900473ffffffffffffffffffffffffffffffffffffffff1681565b60015f9054906101000a900473ffffffffffffffffffffffffffffffffffffffff1681565b5f73ffffffffffffffffffffffffffffffffffffffff82169050919050565b5f6100e6826100bd565b9050919050565b6100f6816100dc565b82525050565b5f60208201905061010f5f8301846100ed565b9291505056fea264697066735822122074c2bf6834cb93431d5ac0180cc09e6b5f88990b9cbff2bba4ec426e3bbc35f164736f6c634300081e0033a2646970667358221220f7aa6a221b2a756fcef43b8514faf104f76a5f93e92758c15fb889b05689516d64736f6c634300081e0033",
					"opcodes": "PUSH1 0x80 PUSH1 0x40 MSTORE CALLVALUE DUP1 ISZERO PUSH1 0xE JUMPI PUSH0 PUSH0 REVERT JUMPDEST POP CALLER PUSH0 PUSH0 PUSH2 0x100 EXP DUP2 SLOAD DUP2 PUSH20 0xFFFFFFFFFFFFFFFFFFFFFFFFFFFFFFFFFFFFFFFF MUL NOT AND SWAP1 DUP4 PUSH20 0xFFFFFFFFFFFFFFFFFFFFFFFFFFFFFFFFFFFFFFFF AND MUL OR SWAP1 SSTORE POP PUSH2 0xB58 DUP1 PUSH2 0x5B PUSH0 CODECOPY PUSH0 RETURN INVALID PUSH1 0x80 PUSH1 0x40 MSTORE CALLVALUE DUP1 ISZERO PUSH2 0xF JUMPI PUSH0 PUSH0 REVERT JUMPDEST POP PUSH1 0x4 CALLDATASIZE LT PUSH2 0x60 JUMPI PUSH0 CALLDATALOAD PUSH1 0xE0 SHR DUP1 PUSH4 0x57DD608 EQ PUSH2 0x64 JUMPI DUP1 PUSH4 0x2813EABD EQ PUSH2 0x82 JUMPI DUP1 PUSH4 0x6FDC01B6 EQ PUSH2 0xA0 JUMPI DUP1 PUSH4 0x73DEFAE0 EQ PUSH2 0xAA JUMPI DUP1 PUSH4 0x90EEBE3B EQ PUSH2 0xDA JUMPI DUP1 PUSH4 0xC9D51CA8 EQ PUSH2 0xF6 JUMPI JUMPDEST PUSH0 PUSH0 REVERT JUMPDEST PUSH2 0x6C PUSH2 0x100 JUMP JUMPDEST PUSH1 0x40 MLOAD PUSH2 0x79 SWAP2 SWAP1 PUSH2 0x5DD JUMP JUMPDEST PUSH1 0x40 MLOAD DUP1 SWAP2 SUB SWAP1 RETURN JUMPDEST PUSH2 0x8A PUSH2 0x124 JUMP JUMPDEST PUSH1 0x40 MLOAD PUSH2 0x97 SWAP2 SWAP1 PUSH2 0x6AD JUMP JUMPDEST PUSH1 0x40 MLOAD DUP1 SWAP2 SUB SWAP1 RETURN JUMPDEST PUSH2 0xA8 PUSH2 0x23F JUMP JUMPDEST STOP JUMPDEST PUSH2 0xC4 PUSH1 0x4 DUP1 CALLDATASIZE SUB DUP2 ADD SWAP1 PUSH2 0xBF SWAP2 SWAP1 PUSH2 0x704 JUMP JUMPDEST PUSH2 0x39F JUMP JUMPDEST PUSH1 0x40 MLOAD PUSH2 0xD1 SWAP2 SWAP1 PUSH2 0x5DD JUMP JUMPDEST PUSH1 0x40 MLOAD DUP1 SWAP2 SUB SWAP1 RETURN JUMPDEST PUSH2 0xF4 PUSH1 0x4 DUP1 CALLDATASIZE SUB DUP2 ADD SWAP1 PUSH2 0xEF SWAP2 SWAP1 PUSH2 0x759 JUMP JUMPDEST PUSH2 0x3DA JUMP JUMPDEST STOP JUMPDEST PUSH2 0xFE PUSH2 0x4F8 JUMP JUMPDEST STOP JUMPDEST PUSH0 PUSH0 SWAP1 SLOAD SWAP1 PUSH2 0x100 EXP SWAP1 DIV PUSH20 0xFFFFFFFFFFFFFFFFFFFFFFFFFFFFFFFFFFFFFFFF AND DUP2 JUMP JUMPDEST PUSH1 0x60 CALLER PUSH0 PUSH0 SWAP1 SLOAD SWAP1 PUSH2 0x100 EXP SWAP1 DIV PUSH20 0xFFFFFFFFFFFFFFFFFFFFFFFFFFFFFFFFFFFFFFFF AND PUSH20 0xFFFFFFFFFFFFFFFFFFFFFFFFFFFFFFFFFFFFFFFF AND DUP2 PUSH20 0xFFFFFFFFFFFFFFFFFFFFFFFFFFFFFFFFFFFFFFFF AND EQ PUSH2 0x1B5 JUMPI PUSH1 0x40 MLOAD PUSH32 0x8C379A000000000000000000000000000000000000000000000000000000000 DUP2 MSTORE PUSH1 0x4 ADD PUSH2 0x1AC SWAP1 PUSH2 0x7DE JUMP JUMPDEST PUSH1 0x40 MLOAD DUP1 SWAP2 SUB SWAP1 REVERT JUMPDEST PUSH1 0x3 DUP1 SLOAD DUP1 PUSH1 0x20 MUL PUSH1 0x20 ADD PUSH1 0x40 MLOAD SWAP1 DUP2 ADD PUSH1 0x40 MSTORE DUP1 SWAP3 SWAP2 SWAP1 DUP2 DUP2 MSTORE PUSH1 0x20 ADD DUP3 DUP1 SLOAD DUP1 ISZERO PUSH2 0x234 JUMPI PUSH1 0x20 MUL DUP3 ADD SWAP2 SWAP1 PUSH0 MSTORE PUSH1 0x20 PUSH0 KECCAK256 SWAP1 JUMPDEST DUP2 PUSH0 SWAP1 SLOAD SWAP1 PUSH2 0x100 EXP SWAP1 DIV PUSH20 0xFFFFFFFFFFFFFFFFFFFFFFFFFFFFFFFFFFFFFFFF AND PUSH20 0xFFFFFFFFFFFFFFFFFFFFFFFFFFFFFFFFFFFFFFFF AND DUP2 MSTORE PUSH1 0x20 ADD SWAP1 PUSH1 0x1 ADD SWAP1 DUP1 DUP4 GT PUSH2 0x1EB JUMPI JUMPDEST POP POP POP POP POP SWAP2 POP POP SWAP1 JUMP JUMPDEST PUSH1 0x1 ISZERO ISZERO PUSH1 0x1 PUSH0 CALLER PUSH20 0xFFFFFFFFFFFFFFFFFFFFFFFFFFFFFFFFFFFFFFFF AND PUSH20 0xFFFFFFFFFFFFFFFFFFFFFFFFFFFFFFFFFFFFFFFF AND DUP2 MSTORE PUSH1 0x20 ADD SWAP1 DUP2 MSTORE PUSH1 0x20 ADD PUSH0 KECCAK256 PUSH0 SWAP1 SLOAD SWAP1 PUSH2 0x100 EXP SWAP1 DIV PUSH1 0xFF AND ISZERO ISZERO EQ PUSH2 0x2CF JUMPI PUSH1 0x40 MLOAD PUSH32 0x8C379A000000000000000000000000000000000000000000000000000000000 DUP2 MSTORE PUSH1 0x4 ADD PUSH2 0x2C6 SWAP1 PUSH2 0x846 JUMP JUMPDEST PUSH1 0x40 MLOAD DUP1 SWAP2 SUB SWAP1 REVERT JUMPDEST PUSH0 CALLER PUSH1 0x40 MLOAD PUSH2 0x2DD SWAP1 PUSH2 0x591 JUMP JUMPDEST PUSH2 0x2E7 SWAP2 SWAP1 PUSH2 0x5DD JUMP JUMPDEST PUSH1 0x40 MLOAD DUP1 SWAP2 SUB SWAP1 PUSH0 CREATE DUP1 ISZERO DUP1 ISZERO PUSH2 0x300 JUMPI RETURNDATASIZE PUSH0 PUSH0 RETURNDATACOPY RETURNDATASIZE PUSH0 REVERT JUMPDEST POP SWAP1 POP PUSH1 0x2 DUP2 SWAP1 DUP1 PUSH1 0x1 DUP2 SLOAD ADD DUP1 DUP3 SSTORE DUP1 SWAP2 POP POP PUSH1 0x1 SWAP1 SUB SWAP1 PUSH0 MSTORE PUSH1 0x20 PUSH0 KECCAK256 ADD PUSH0 SWAP1 SWAP2 SWAP1 SWAP2 SWAP1 SWAP2 PUSH2 0x100 EXP DUP2 SLOAD DUP2 PUSH20 0xFFFFFFFFFFFFFFFFFFFFFFFFFFFFFFFFFFFFFFFF MUL NOT AND SWAP1 DUP4 PUSH20 0xFFFFFFFFFFFFFFFFFFFFFFFFFFFFFFFFFFFFFFFF AND MUL OR SWAP1 SSTORE POP PUSH32 0x17182EA1A6748F7923EA0BFB4BF8BC76CC894E662541AD1EA15797322D541DB8 DUP2 CALLER PUSH1 0x40 MLOAD PUSH2 0x394 SWAP3 SWAP2 SWAP1 PUSH2 0x864 JUMP JUMPDEST PUSH1 0x40 MLOAD DUP1 SWAP2 SUB SWAP1 LOG1 POP JUMP JUMPDEST PUSH1 0x2 DUP2 DUP2 SLOAD DUP2 LT PUSH2 0x3AE JUMPI PUSH0 DUP1 REVERT JUMPDEST SWAP1 PUSH0 MSTORE PUSH1 0x20 PUSH0 KECCAK256 ADD PUSH0 SWAP2 POP SLOAD SWAP1 PUSH2 0x100 EXP SWAP1 DIV PUSH20 0xFFFFFFFFFFFFFFFFFFFFFFFFFFFFFFFFFFFFFFFF AND DUP2 JUMP JUMPDEST CALLER PUSH0 PUSH0 SWAP1 SLOAD SWAP1 PUSH2 0x100 EXP SWAP1 DIV PUSH20 0xFFFFFFFFFFFFFFFFFFFFFFFFFFFFFFFFFFFFFFFF AND PUSH20 0xFFFFFFFFFFFFFFFFFFFFFFFFFFFFFFFFFFFFFFFF AND DUP2 PUSH20 0xFFFFFFFFFFFFFFFFFFFFFFFFFFFFFFFFFFFFFFFF AND EQ PUSH2 0x469 JUMPI PUSH1 0x40 MLOAD PUSH32 0x8C379A000000000000000000000000000000000000000000000000000000000 DUP2 MSTORE PUSH1 0x4 ADD PUSH2 0x460 SWAP1 PUSH2 0x7DE JUMP JUMPDEST PUSH1 0x40 MLOAD DUP1 SWAP2 SUB SWAP1 REVERT JUMPDEST PUSH1 0x1 DUP1 PUSH0 DUP5 PUSH20 0xFFFFFFFFFFFFFFFFFFFFFFFFFFFFFFFFFFFFFFFF AND PUSH20 0xFFFFFFFFFFFFFFFFFFFFFFFFFFFFFFFFFFFFFFFF AND DUP2 MSTORE PUSH1 0x20 ADD SWAP1 DUP2 MSTORE PUSH1 0x20 ADD PUSH0 KECCAK256 PUSH0 PUSH2 0x100 EXP DUP2 SLOAD DUP2 PUSH1 0xFF MUL NOT AND SWAP1 DUP4 ISZERO ISZERO MUL OR SWAP1 SSTORE POP PUSH32 0x8BBDD2590EA2F491371A7A9BC0EBB7A0FD3A5220D29C26A8243FA17A423C3BBD DUP3 PUSH1 0x40 MLOAD PUSH2 0x4EC SWAP2 SWAP1 PUSH2 0x5DD JUMP JUMPDEST PUSH1 0x40 MLOAD DUP1 SWAP2 SUB SWAP1 LOG1 POP POP JUMP JUMPDEST PUSH1 0x3 CALLER SWAP1 DUP1 PUSH1 0x1 DUP2 SLOAD ADD DUP1 DUP3 SSTORE DUP1 SWAP2 POP POP PUSH1 0x1 SWAP1 SUB SWAP1 PUSH0 MSTORE PUSH1 0x20 PUSH0 KECCAK256 ADD PUSH0 SWAP1 SWAP2 SWAP1 SWAP2 SWAP1 SWAP2 PUSH2 0x100 EXP DUP2 SLOAD DUP2 PUSH20 0xFFFFFFFFFFFFFFFFFFFFFFFFFFFFFFFFFFFFFFFF MUL NOT AND SWAP1 DUP4 PUSH20 0xFFFFFFFFFFFFFFFFFFFFFFFFFFFFFFFFFFFFFFFF AND MUL OR SWAP1 SSTORE POP PUSH32 0xD3E11FF7A43364483E47353D95BA01BE4831F487A86D51FF7335A9A9C4852799 CALLER PUSH1 0x40 MLOAD PUSH2 0x587 SWAP2 SWAP1 PUSH2 0x5DD JUMP JUMPDEST PUSH1 0x40 MLOAD DUP1 SWAP2 SUB SWAP1 LOG1 JUMP JUMPDEST PUSH2 0x297 DUP1 PUSH2 0x88C DUP4 CODECOPY ADD SWAP1 JUMP JUMPDEST PUSH0 PUSH20 0xFFFFFFFFFFFFFFFFFFFFFFFFFFFFFFFFFFFFFFFF DUP3 AND SWAP1 POP SWAP2 SWAP1 POP JUMP JUMPDEST PUSH0 PUSH2 0x5C7 DUP3 PUSH2 0x59E JUMP JUMPDEST SWAP1 POP SWAP2 SWAP1 POP JUMP JUMPDEST PUSH2 0x5D7 DUP2 PUSH2 0x5BD JUMP JUMPDEST DUP3 MSTORE POP POP JUMP JUMPDEST PUSH0 PUSH1 0x20 DUP3 ADD SWAP1 POP PUSH2 0x5F0 PUSH0 DUP4 ADD DUP5 PUSH2 0x5CE JUMP JUMPDEST SWAP3 SWAP2 POP POP JUMP JUMPDEST PUSH0 DUP2 MLOAD SWAP1 POP SWAP2 SWAP1 POP JUMP JUMPDEST PUSH0 DUP3 DUP3 MSTORE PUSH1 0x20 DUP3 ADD SWAP1 POP SWAP3 SWAP2 POP POP JUMP JUMPDEST PUSH0 DUP2 SWAP1 POP PUSH1 0x20 DUP3 ADD SWAP1 POP SWAP2 SWAP1 POP JUMP JUMPDEST PUSH2 0x628 DUP2 PUSH2 0x5BD JUMP JUMPDEST DUP3 MSTORE POP POP JUMP JUMPDEST PUSH0 PUSH2 0x639 DUP4 DUP4 PUSH2 0x61F JUMP JUMPDEST PUSH1 0x20 DUP4 ADD SWAP1 POP SWAP3 SWAP2 POP POP JUMP JUMPDEST PUSH0 PUSH1 0x20 DUP3 ADD SWAP1 POP SWAP2 SWAP1 POP JUMP JUMPDEST PUSH0 PUSH2 0x65B DUP3 PUSH2 0x5F6 JUMP JUMPDEST PUSH2 0x665 DUP2 DUP6 PUSH2 0x600 JUMP JUMPDEST SWAP4 POP PUSH2 0x670 DUP4 PUSH2 0x610 JUMP JUMPDEST DUP1 PUSH0 JUMPDEST DUP4 DUP2 LT ISZERO PUSH2 0x6A0 JUMPI DUP2 MLOAD PUSH2 0x687 DUP9 DUP3 PUSH2 0x62E JUMP JUMPDEST SWAP8 POP PUSH2 0x692 DUP4 PUSH2 0x645 JUMP JUMPDEST SWAP3 POP POP PUSH1 0x1 DUP2 ADD SWAP1 POP PUSH2 0x673 JUMP JUMPDEST POP DUP6 SWAP4 POP POP POP POP SWAP3 SWAP2 POP POP JUMP JUMPDEST PUSH0 PUSH1 0x20 DUP3 ADD SWAP1 POP DUP2 DUP2 SUB PUSH0 DUP4 ADD MSTORE PUSH2 0x6C5 DUP2 DUP5 PUSH2 0x651 JUMP JUMPDEST SWAP1 POP SWAP3 SWAP2 POP POP JUMP JUMPDEST PUSH0 PUSH0 REVERT JUMPDEST PUSH0 DUP2 SWAP1 POP SWAP2 SWAP1 POP JUMP JUMPDEST PUSH2 0x6E3 DUP2 PUSH2 0x6D1 JUMP JUMPDEST DUP2 EQ PUSH2 0x6ED JUMPI PUSH0 PUSH0 REVERT JUMPDEST POP JUMP JUMPDEST PUSH0 DUP2 CALLDATALOAD SWAP1 POP PUSH2 0x6FE DUP2 PUSH2 0x6DA JUMP JUMPDEST SWAP3 SWAP2 POP POP JUMP JUMPDEST PUSH0 PUSH1 0x20 DUP3 DUP5 SUB SLT ISZERO PUSH2 0x719 JUMPI PUSH2 0x718 PUSH2 0x6CD JUMP JUMPDEST JUMPDEST PUSH0 PUSH2 0x726 DUP5 DUP3 DUP6 ADD PUSH2 0x6F0 JUMP JUMPDEST SWAP2 POP POP SWAP3 SWAP2 POP POP JUMP JUMPDEST PUSH2 0x738 DUP2 PUSH2 0x5BD JUMP JUMPDEST DUP2 EQ PUSH2 0x742 JUMPI PUSH0 PUSH0 REVERT JUMPDEST POP JUMP JUMPDEST PUSH0 DUP2 CALLDATALOAD SWAP1 POP PUSH2 0x753 DUP2 PUSH2 0x72F JUMP JUMPDEST SWAP3 SWAP2 POP POP JUMP JUMPDEST PUSH0 PUSH1 0x20 DUP3 DUP5 SUB SLT ISZERO PUSH2 0x76E JUMPI PUSH2 0x76D PUSH2 0x6CD JUMP JUMPDEST JUMPDEST PUSH0 PUSH2 0x77B DUP5 DUP3 DUP6 ADD PUSH2 0x745 JUMP JUMPDEST SWAP2 POP POP SWAP3 SWAP2 POP POP JUMP JUMPDEST PUSH0 DUP3 DUP3 MSTORE PUSH1 0x20 DUP3 ADD SWAP1 POP SWAP3 SWAP2 POP POP JUMP JUMPDEST PUSH32 0x4F6E6C79204F4D53000000000000000000000000000000000000000000000000 PUSH0 DUP3 ADD MSTORE POP JUMP JUMPDEST PUSH0 PUSH2 0x7C8 PUSH1 0x8 DUP4 PUSH2 0x784 JUMP JUMPDEST SWAP2 POP PUSH2 0x7D3 DUP3 PUSH2 0x794 JUMP JUMPDEST PUSH1 0x20 DUP3 ADD SWAP1 POP SWAP2 SWAP1 POP JUMP JUMPDEST PUSH0 PUSH1 0x20 DUP3 ADD SWAP1 POP DUP2 DUP2 SUB PUSH0 DUP4 ADD MSTORE PUSH2 0x7F5 DUP2 PUSH2 0x7BC JUMP JUMPDEST SWAP1 POP SWAP2 SWAP1 POP JUMP JUMPDEST PUSH32 0x446F6E7420686176652061636365737300000000000000000000000000000000 PUSH0 DUP3 ADD MSTORE POP JUMP JUMPDEST PUSH0 PUSH2 0x830 PUSH1 0x10 DUP4 PUSH2 0x784 JUMP JUMPDEST SWAP2 POP PUSH2 0x83B DUP3 PUSH2 0x7FC JUMP JUMPDEST PUSH1 0x20 DUP3 ADD SWAP1 POP SWAP2 SWAP1 POP JUMP JUMPDEST PUSH0 PUSH1 0x20 DUP3 ADD SWAP1 POP DUP2 DUP2 SUB PUSH0 DUP4 ADD MSTORE PUSH2 0x85D DUP2 PUSH2 0x824 JUMP JUMPDEST SWAP1 POP SWAP2 SWAP1 POP JUMP JUMPDEST PUSH0 PUSH1 0x40 DUP3 ADD SWAP1 POP PUSH2 0x877 PUSH0 DUP4 ADD DUP6 PUSH2 0x5CE JUMP JUMPDEST PUSH2 0x884 PUSH1 0x20 DUP4 ADD DUP5 PUSH2 0x5CE JUMP JUMPDEST SWAP4 SWAP3 POP POP POP JUMP INVALID PUSH1 0x80 PUSH1 0x40 MSTORE CALLVALUE DUP1 ISZERO PUSH2 0xF JUMPI PUSH0 PUSH0 REVERT JUMPDEST POP PUSH1 0x40 MLOAD PUSH2 0x297 CODESIZE SUB DUP1 PUSH2 0x297 DUP4 CODECOPY DUP2 DUP2 ADD PUSH1 0x40 MSTORE DUP2 ADD SWAP1 PUSH2 0x31 SWAP2 SWAP1 PUSH2 0x114 JUMP JUMPDEST DUP1 PUSH1 0x1 PUSH0 PUSH2 0x100 EXP DUP2 SLOAD DUP2 PUSH20 0xFFFFFFFFFFFFFFFFFFFFFFFFFFFFFFFFFFFFFFFF MUL NOT AND SWAP1 DUP4 PUSH20 0xFFFFFFFFFFFFFFFFFFFFFFFFFFFFFFFFFFFFFFFF AND MUL OR SWAP1 SSTORE POP ADDRESS PUSH0 PUSH0 PUSH2 0x100 EXP DUP2 SLOAD DUP2 PUSH20 0xFFFFFFFFFFFFFFFFFFFFFFFFFFFFFFFFFFFFFFFF MUL NOT AND SWAP1 DUP4 PUSH20 0xFFFFFFFFFFFFFFFFFFFFFFFFFFFFFFFFFFFFFFFF AND MUL OR SWAP1 SSTORE POP POP PUSH2 0x13F JUMP JUMPDEST PUSH0 PUSH0 REVERT JUMPDEST PUSH0 PUSH20 0xFFFFFFFFFFFFFFFFFFFFFFFFFFFFFFFFFFFFFFFF DUP3 AND SWAP1 POP SWAP2 SWAP1 POP JUMP JUMPDEST PUSH0 PUSH2 0xE3 DUP3 PUSH2 0xBA JUMP JUMPDEST SWAP1 POP SWAP2 SWAP1 POP JUMP JUMPDEST PUSH2 0xF3 DUP2 PUSH2 0xD9 JUMP JUMPDEST DUP2 EQ PUSH2 0xFD JUMPI PUSH0 PUSH0 REVERT JUMPDEST POP JUMP JUMPDEST PUSH0 DUP2 MLOAD SWAP1 POP PUSH2 0x10E DUP2 PUSH2 0xEA JUMP JUMPDEST SWAP3 SWAP2 POP POP JUMP JUMPDEST PUSH0 PUSH1 0x20 DUP3 DUP5 SUB SLT ISZERO PUSH2 0x129 JUMPI PUSH2 0x128 PUSH2 0xB6 JUMP JUMPDEST JUMPDEST PUSH0 PUSH2 0x136 DUP5 DUP3 DUP6 ADD PUSH2 0x100 JUMP JUMPDEST SWAP2 POP POP SWAP3 SWAP2 POP POP JUMP JUMPDEST PUSH2 0x14B DUP1 PUSH2 0x14C PUSH0 CODECOPY PUSH0 RETURN INVALID PUSH1 0x80 PUSH1 0x40 MSTORE CALLVALUE DUP1 ISZERO PUSH2 0xF JUMPI PUSH0 PUSH0 REVERT JUMPDEST POP PUSH1 0x4 CALLDATASIZE LT PUSH2 0x34 JUMPI PUSH0 CALLDATALOAD PUSH1 0xE0 SHR DUP1 PUSH4 0xB6D8C469 EQ PUSH2 0x38 JUMPI DUP1 PUSH4 0xC7704814 EQ PUSH2 0x56 JUMPI JUMPDEST PUSH0 PUSH0 REVERT JUMPDEST PUSH2 0x40 PUSH2 0x74 JUMP JUMPDEST PUSH1 0x40 MLOAD PUSH2 0x4D SWAP2 SWAP1 PUSH2 0xFC JUMP JUMPDEST PUSH1 0x40 MLOAD DUP1 SWAP2 SUB SWAP1 RETURN JUMPDEST PUSH2 0x5E PUSH2 0x98 JUMP JUMPDEST PUSH1 0x40 MLOAD PUSH2 0x6B SWAP2 SWAP1 PUSH2 0xFC JUMP JUMPDEST PUSH1 0x40 MLOAD DUP1 SWAP2 SUB SWAP1 RETURN JUMPDEST PUSH0 PUSH0 SWAP1 SLOAD SWAP1 PUSH2 0x100 EXP SWAP1 DIV PUSH20 0xFFFFFFFFFFFFFFFFFFFFFFFFFFFFFFFFFFFFFFFF AND DUP2 JUMP JUMPDEST PUSH1 0x1 PUSH0 SWAP1 SLOAD SWAP1 PUSH2 0x100 EXP SWAP1 DIV PUSH20 0xFFFFFFFFFFFFFFFFFFFFFFFFFFFFFFFFFFFFFFFF AND DUP2 JUMP JUMPDEST PUSH0 PUSH20 0xFFFFFFFFFFFFFFFFFFFFFFFFFFFFFFFFFFFFFFFF DUP3 AND SWAP1 POP SWAP2 SWAP1 POP JUMP JUMPDEST PUSH0 PUSH2 0xE6 DUP3 PUSH2 0xBD JUMP JUMPDEST SWAP1 POP SWAP2 SWAP1 POP JUMP JUMPDEST PUSH2 0xF6 DUP2 PUSH2 0xDC JUMP JUMPDEST DUP3 MSTORE POP POP JUMP JUMPDEST PUSH0 PUSH1 0x20 DUP3 ADD SWAP1 POP PUSH2 0x10F PUSH0 DUP4 ADD DUP5 PUSH2 0xED JUMP JUMPDEST SWAP3 SWAP2 POP POP JUMP INVALID LOG2 PUSH5 0x6970667358 0x22 SLT KECCAK256 PUSH21 0xC2BF6834CB93431D5AC0180CC09E6B5F88990B9CBF CALLCODE 0xBB LOG4 EOFCREATE 0x42 PUSH15 0x3BBC35F164736F6C634300081E0033 LOG2 PUSH5 0x6970667358 0x22 SLT KECCAK256 0xF7 0xAA PUSH11 0x221B2A756FCEF43B8514FA CALL DIV 0xF7 PUSH11 0x5F93E92758C15FB889B056 DUP10 MLOAD PUSH14 0x64736F6C634300081E0033000000 "
				},
				"gasEstimates": {
					"creation": {
						"codeDepositCost": "580800",
						"executionCost": "24875",
						"totalCost": "605675"
					},
					"external": {
						"CreateHealthCenter(address)": "infinite",
						"FactoryHealthCenter()": "infinite",
						"OMS()": "2485",
						"RequestAccess()": "50041",
						"ViewRequest()": "infinite",
						"health_contract_addresses(uint256)": "4988"
					}
				},
				"methodIdentifiers": {
					"CreateHealthCenter(address)": "90eebe3b",
					"FactoryHealthCenter()": "6fdc01b6",
					"OMS()": "057dd608",
					"RequestAccess()": "c9d51ca8",
					"ViewRequest()": "2813eabd",
					"health_contract_addresses(uint256)": "73defae0"
				}
			},
			"storageLayout": {
				"storage": [
					{
						"astId": 4,
						"contract": "OMS-Covid/oms.sol:oms",
						"label": "OMS",
						"offset": 0,
						"slot": "0",
						"type": "t_address"
					},
					{
						"astId": 17,
						"contract": "OMS-Covid/oms.sol:oms",
						"label": "Validation_HealthCenter",
						"offset": 0,
						"slot": "1",
						"type": "t_mapping(t_address,t_bool)"
					},
					{
						"astId": 20,
						"contract": "OMS-Covid/oms.sol:oms",
						"label": "health_contract_addresses",
						"offset": 0,
						"slot": "2",
						"type": "t_array(t_address)dyn_storage"
					},
					{
						"astId": 23,
						"contract": "OMS-Covid/oms.sol:oms",
						"label": "Requests",
						"offset": 0,
						"slot": "3",
						"type": "t_array(t_address)dyn_storage"
					}
				],
				"types": {
					"t_address": {
						"encoding": "inplace",
						"label": "address",
						"numberOfBytes": "20"
					},
					"t_array(t_address)dyn_storage": {
						"base": "t_address",
						"encoding": "dynamic_array",
						"label": "address[]",
						"numberOfBytes": "32"
					},
					"t_bool": {
						"encoding": "inplace",
						"label": "bool",
						"numberOfBytes": "1"
					},
					"t_mapping(t_address,t_bool)": {
						"encoding": "mapping",
						"key": "t_address",
						"label": "mapping(address => bool)",
						"numberOfBytes": "32",
						"value": "t_bool"
					}
				}
			},
			"userdoc": {
				"kind": "user",
				"methods": {},
				"version": 1
			}
		}
	}
}