{
	"Votes/votes.sol": {
		"vote": {
			"abi": [
				{
					"inputs": [],
					"stateMutability": "nonpayable",
					"type": "constructor"
				},
				{
					"inputs": [
						{
							"internalType": "string",
							"name": "_namePerson",
							"type": "string"
						},
						{
							"internalType": "uint256",
							"name": "_agePerson",
							"type": "uint256"
						},
						{
							"internalType": "string",
							"name": "_idPerson",
							"type": "string"
						}
					],
					"name": "Represent",
					"outputs": [],
					"stateMutability": "nonpayable",
					"type": "function"
				},
				{
					"inputs": [],
					"name": "ViewCanditates",
					"outputs": [
						{
							"internalType": "string[]",
							"name": "",
							"type": "string[]"
						}
					],
					"stateMutability": "view",
					"type": "function"
				},
				{
					"inputs": [],
					"name": "ViewResults",
					"outputs": [
						{
							"internalType": "string",
							"name": "",
							"type": "string"
						}
					],
					"stateMutability": "view",
					"type": "function"
				},
				{
					"inputs": [
						{
							"internalType": "string",
							"name": "_nameCandidate",
							"type": "string"
						}
					],
					"name": "VoteCandidate",
					"outputs": [],
					"stateMutability": "nonpayable",
					"type": "function"
				},
				{
					"inputs": [],
					"name": "Winner",
					"outputs": [
						{
							"internalType": "string",
							"name": "",
							"type": "string"
						}
					],
					"stateMutability": "view",
					"type": "function"
				},
				{
					"inputs": [],
					"name": "owner",
					"outputs": [
						{
							"internalType": "address",
							"name": "",
							"type": "address"
						}
					],
					"stateMutability": "view",
					"type": "function"
				},
				{
					"inputs": [
						{
							"internalType": "string",
							"name": "_nameCandidate",
							"type": "string"
						}
					],
					"name": "viewResultCandidate",
					"outputs": [
						{
							"internalType": "uint8",
							"name": "",
							"type": "uint8"
						}
					],
					"stateMutability": "view",
					"type": "function"
				}
			],
			"devdoc": {
				"kind": "dev",
				"methods": {},
				"version": 1
			},
			"evm": {
				"assembly": "    /* \"Votes/votes.sol\":98:3184  contract vote... */\n  mstore(0x40, 0x80)\n    /* \"Votes/votes.sol\":148:203  constructor ()... */\n  callvalue\n  dup1\n  iszero\n  tag_1\n  jumpi\n  revert(0x00, 0x00)\ntag_1:\n  pop\n    /* \"Votes/votes.sol\":185:195  msg.sender */\n  caller\n    /* \"Votes/votes.sol\":179:184  owner */\n  0x00\n  0x00\n    /* \"Votes/votes.sol\":179:195  owner=msg.sender */\n  0x0100\n  exp\n  dup2\n  sload\n  dup2\n  0xffffffffffffffffffffffffffffffffffffffff\n  mul\n  not\n  and\n  swap1\n  dup4\n  0xffffffffffffffffffffffffffffffffffffffff\n  and\n  mul\n  or\n  swap1\n  sstore\n  pop\n    /* \"Votes/votes.sol\":98:3184  contract vote... */\n  dataSize(sub_0)\n  dup1\n  dataOffset(sub_0)\n  0x00\n  codecopy\n  0x00\n  return\nstop\n\nsub_0: assembly {\n        /* \"Votes/votes.sol\":98:3184  contract vote... */\n      mstore(0x40, 0x80)\n      callvalue\n      dup1\n      iszero\n      tag_1\n      jumpi\n      revert(0x00, 0x00)\n    tag_1:\n      pop\n      jumpi(tag_2, lt(calldatasize, 0x04))\n      shr(0xe0, calldataload(0x00))\n      dup1\n      0x8896fedc\n      gt\n      tag_10\n      jumpi\n      dup1\n      0x8896fedc\n      eq\n      tag_6\n      jumpi\n      dup1\n      0x8da5cb5b\n      eq\n      tag_7\n      jumpi\n      dup1\n      0xb2b98ed2\n      eq\n      tag_8\n      jumpi\n      dup1\n      0xd4b8f48f\n      eq\n      tag_9\n      jumpi\n      jump(tag_2)\n    tag_10:\n      dup1\n      0x33070dfb\n      eq\n      tag_3\n      jumpi\n      dup1\n      0x57ccca42\n      eq\n      tag_4\n      jumpi\n      dup1\n      0x624a1179\n      eq\n      tag_5\n      jumpi\n    tag_2:\n      revert(0x00, 0x00)\n        /* \"Votes/votes.sol\":364:664  function Represent(string memory _namePerson, uint _agePerson,string memory _idPerson)   public ... */\n    tag_3:\n      tag_11\n      0x04\n      dup1\n      calldatasize\n      sub\n      dup2\n      add\n      swap1\n      tag_12\n      swap2\n      swap1\n      tag_13\n      jump\t// in\n    tag_12:\n      tag_14\n      jump\t// in\n    tag_11:\n      stop\n        /* \"Votes/votes.sol\":787:1164  function VoteCandidate(string memory _nameCandidate) public  ... */\n    tag_4:\n      tag_15\n      0x04\n      dup1\n      calldatasize\n      sub\n      dup2\n      add\n      swap1\n      tag_16\n      swap2\n      swap1\n      tag_17\n      jump\t// in\n    tag_16:\n      tag_18\n      jump\t// in\n    tag_15:\n      stop\n        /* \"Votes/votes.sol\":1172:1323  function viewResultCandidate(string memory _nameCandidate) public view   returns (uint8)... */\n    tag_5:\n      tag_19\n      0x04\n      dup1\n      calldatasize\n      sub\n      dup2\n      add\n      swap1\n      tag_20\n      swap2\n      swap1\n      tag_17\n      jump\t// in\n    tag_20:\n      tag_21\n      jump\t// in\n    tag_19:\n      mload(0x40)\n      tag_22\n      swap2\n      swap1\n      tag_23\n      jump\t// in\n    tag_22:\n      mload(0x40)\n      dup1\n      swap2\n      sub\n      swap1\n      return\n        /* \"Votes/votes.sol\":1332:1848  function ViewResults() public view returns(string memory){... */\n    tag_6:\n      tag_24\n      tag_25\n      jump\t// in\n    tag_24:\n      mload(0x40)\n      tag_26\n      swap2\n      swap1\n      tag_27\n      jump\t// in\n    tag_26:\n      mload(0x40)\n      dup1\n      swap2\n      sub\n      swap1\n      return\n        /* \"Votes/votes.sol\":120:141  address public  owner */\n    tag_7:\n      tag_28\n      tag_29\n      jump\t// in\n    tag_28:\n      mload(0x40)\n      tag_30\n      swap2\n      swap1\n      tag_31\n      jump\t// in\n    tag_30:\n      mload(0x40)\n      dup1\n      swap2\n      sub\n      swap1\n      return\n        /* \"Votes/votes.sol\":1856:2685  function Winner() public view returns(string memory){... */\n    tag_8:\n      tag_32\n      tag_33\n      jump\t// in\n    tag_32:\n      mload(0x40)\n      tag_34\n      swap2\n      swap1\n      tag_27\n      jump\t// in\n    tag_34:\n      mload(0x40)\n      dup1\n      swap2\n      sub\n      swap1\n      return\n        /* \"Votes/votes.sol\":672:779  function ViewCanditates() public view  returns (string[] memory)... */\n    tag_9:\n      tag_35\n      tag_36\n      jump\t// in\n    tag_35:\n      mload(0x40)\n      tag_37\n      swap2\n      swap1\n      tag_38\n      jump\t// in\n    tag_37:\n      mload(0x40)\n      dup1\n      swap2\n      sub\n      swap1\n      return\n        /* \"Votes/votes.sol\":364:664  function Represent(string memory _namePerson, uint _agePerson,string memory _idPerson)   public ... */\n    tag_14:\n        /* \"Votes/votes.sol\":477:499  bytes32 hash_candidate */\n      0x00\n        /* \"Votes/votes.sol\":529:540  _namePerson */\n      dup4\n        /* \"Votes/votes.sol\":541:551  _agePerson */\n      dup4\n        /* \"Votes/votes.sol\":552:561  _idPerson */\n      dup4\n        /* \"Votes/votes.sol\":512:563  abi.encodePacked(_namePerson,_agePerson,_idPerson ) */\n      add(0x20, mload(0x40))\n      tag_40\n      swap4\n      swap3\n      swap2\n      swap1\n      tag_41\n      jump\t// in\n    tag_40:\n      mload(0x40)\n      0x20\n      dup2\n      dup4\n      sub\n      sub\n      dup2\n      mstore\n      swap1\n      0x40\n      mstore\n        /* \"Votes/votes.sol\":502:564  keccak256(abi.encodePacked(_namePerson,_agePerson,_idPerson )) */\n      dup1\n      mload\n      swap1\n      0x20\n      add\n      keccak256\n        /* \"Votes/votes.sol\":477:564  bytes32 hash_candidate = keccak256(abi.encodePacked(_namePerson,_agePerson,_idPerson )) */\n      swap1\n      pop\n        /* \"Votes/votes.sol\":603:617  hash_candidate */\n      dup1\n        /* \"Votes/votes.sol\":575:587  ID_candidate */\n      0x01\n        /* \"Votes/votes.sol\":588:599  _namePerson */\n      dup6\n        /* \"Votes/votes.sol\":575:600  ID_candidate[_namePerson] */\n      mload(0x40)\n      tag_42\n      swap2\n      swap1\n      tag_43\n      jump\t// in\n    tag_42:\n      swap1\n      dup2\n      mstore\n      0x20\n      add\n      mload(0x40)\n      dup1\n      swap2\n      sub\n      swap1\n      keccak256\n        /* \"Votes/votes.sol\":575:617  ID_candidate[_namePerson] = hash_candidate */\n      dup2\n      swap1\n      sstore\n      pop\n        /* \"Votes/votes.sol\":628:638  candidates */\n      0x03\n        /* \"Votes/votes.sol\":644:655  _namePerson */\n      dup5\n        /* \"Votes/votes.sol\":628:656  candidates.push(_namePerson) */\n      swap1\n      dup1\n      0x01\n      dup2\n      sload\n      add\n      dup1\n      dup3\n      sstore\n      dup1\n      swap2\n      pop\n      pop\n      0x01\n      swap1\n      sub\n      swap1\n      0x00\n      mstore\n      keccak256(0x00, 0x20)\n      add\n      0x00\n      swap1\n      swap2\n      swap1\n      swap2\n      swap1\n      swap2\n      pop\n      swap1\n      dup2\n      tag_45\n      swap2\n      swap1\n      tag_46\n      jump\t// in\n    tag_45:\n      pop\n        /* \"Votes/votes.sol\":466:664  {... */\n      pop\n        /* \"Votes/votes.sol\":364:664  function Represent(string memory _namePerson, uint _agePerson,string memory _idPerson)   public ... */\n      pop\n      pop\n      pop\n      jump\t// out\n        /* \"Votes/votes.sol\":787:1164  function VoteCandidate(string memory _nameCandidate) public  ... */\n    tag_18:\n        /* \"Votes/votes.sol\":865:883  bytes32 hash_voter */\n      0x00\n        /* \"Votes/votes.sol\":913:923  msg.sender */\n      caller\n        /* \"Votes/votes.sol\":896:924  abi.encodePacked(msg.sender) */\n      add(0x20, mload(0x40))\n      tag_48\n      swap2\n      swap1\n      tag_49\n      jump\t// in\n    tag_48:\n      mload(0x40)\n      0x20\n      dup2\n      dup4\n      sub\n      sub\n      dup2\n      mstore\n      swap1\n      0x40\n      mstore\n        /* \"Votes/votes.sol\":886:925  keccak256(abi.encodePacked(msg.sender)) */\n      dup1\n      mload\n      swap1\n      0x20\n      add\n      keccak256\n        /* \"Votes/votes.sol\":865:925  bytes32 hash_voter = keccak256(abi.encodePacked(msg.sender)) */\n      swap1\n      pop\n        /* \"Votes/votes.sol\":941:947  uint i */\n      0x00\n        /* \"Votes/votes.sol\":950:951  0 */\n      0x00\n        /* \"Votes/votes.sol\":941:951  uint i = 0 */\n      swap1\n      pop\n        /* \"Votes/votes.sol\":936:1079  for (uint i = 0 ; i <voters.length; i++)... */\n    tag_50:\n        /* \"Votes/votes.sol\":957:963  voters */\n      0x04\n        /* \"Votes/votes.sol\":957:970  voters.length */\n      dup1\n      sload\n      swap1\n      pop\n        /* \"Votes/votes.sol\":954:955  i */\n      dup2\n        /* \"Votes/votes.sol\":954:970  i <voters.length */\n      lt\n        /* \"Votes/votes.sol\":936:1079  for (uint i = 0 ; i <voters.length; i++)... */\n      iszero\n      tag_51\n      jumpi\n        /* \"Votes/votes.sol\":1022:1032  hash_voter */\n      dup2\n        /* \"Votes/votes.sol\":1009:1015  voters */\n      0x04\n        /* \"Votes/votes.sol\":1016:1017  i */\n      dup3\n        /* \"Votes/votes.sol\":1009:1018  voters[i] */\n      dup2\n      sload\n      dup2\n      lt\n      tag_53\n      jumpi\n      tag_54\n      tag_55\n      jump\t// in\n    tag_54:\n    tag_53:\n      swap1\n      0x00\n      mstore\n      keccak256(0x00, 0x20)\n      add\n      sload\n        /* \"Votes/votes.sol\":1009:1032  voters[i] != hash_voter */\n      sub\n        /* \"Votes/votes.sol\":1001:1055  require(voters[i] != hash_voter, \"Vote already exist\") */\n      tag_57\n      jumpi\n      mload(0x40)\n      0x08c379a000000000000000000000000000000000000000000000000000000000\n      dup2\n      mstore\n      0x04\n      add\n      tag_58\n      swap1\n      tag_59\n      jump\t// in\n    tag_58:\n      mload(0x40)\n      dup1\n      swap2\n      sub\n      swap1\n      revert\n    tag_57:\n        /* \"Votes/votes.sol\":972:975  i++ */\n      dup1\n      dup1\n      0x01\n      add\n      swap2\n      pop\n      pop\n        /* \"Votes/votes.sol\":936:1079  for (uint i = 0 ; i <voters.length; i++)... */\n      jump(tag_50)\n    tag_51:\n      pop\n        /* \"Votes/votes.sol\":1089:1095  voters */\n      0x04\n        /* \"Votes/votes.sol\":1101:1111  hash_voter */\n      dup2\n        /* \"Votes/votes.sol\":1089:1112  voters.push(hash_voter) */\n      swap1\n      dup1\n      0x01\n      dup2\n      sload\n      add\n      dup1\n      dup3\n      sstore\n      dup1\n      swap2\n      pop\n      pop\n      0x01\n      swap1\n      sub\n      swap1\n      0x00\n      mstore\n      keccak256(0x00, 0x20)\n      add\n      0x00\n      swap1\n      swap2\n      swap1\n      swap2\n      swap1\n      swap2\n      pop\n      sstore\n        /* \"Votes/votes.sol\":1123:1138  votes_canditate */\n      0x02\n        /* \"Votes/votes.sol\":1139:1153  _nameCandidate */\n      dup3\n        /* \"Votes/votes.sol\":1123:1154  votes_canditate[_nameCandidate] */\n      mload(0x40)\n      tag_61\n      swap2\n      swap1\n      tag_43\n      jump\t// in\n    tag_61:\n      swap1\n      dup2\n      mstore\n      0x20\n      add\n      mload(0x40)\n      dup1\n      swap2\n      sub\n      swap1\n      keccak256\n      0x00\n        /* \"Votes/votes.sol\":1123:1156  votes_canditate[_nameCandidate]++ */\n      dup2\n      dup2\n      swap1\n      sload\n      swap1\n      0x0100\n      exp\n      swap1\n      div\n      0xff\n      and\n      dup1\n      swap3\n      swap2\n      swap1\n      tag_62\n      swap1\n      tag_63\n      jump\t// in\n    tag_62:\n      swap2\n      swap1\n      0x0100\n      exp\n      dup2\n      sload\n      dup2\n      0xff\n      mul\n      not\n      and\n      swap1\n      dup4\n      0xff\n      and\n      mul\n      or\n      swap1\n      sstore\n      pop\n      pop\n        /* \"Votes/votes.sol\":854:1164  {... */\n      pop\n        /* \"Votes/votes.sol\":787:1164  function VoteCandidate(string memory _nameCandidate) public  ... */\n      pop\n      jump\t// out\n        /* \"Votes/votes.sol\":1172:1323  function viewResultCandidate(string memory _nameCandidate) public view   returns (uint8)... */\n    tag_21:\n        /* \"Votes/votes.sol\":1254:1259  uint8 */\n      0x00\n        /* \"Votes/votes.sol\":1284:1299  votes_canditate */\n      0x02\n        /* \"Votes/votes.sol\":1300:1314  _nameCandidate */\n      dup3\n        /* \"Votes/votes.sol\":1284:1315  votes_canditate[_nameCandidate] */\n      mload(0x40)\n      tag_65\n      swap2\n      swap1\n      tag_43\n      jump\t// in\n    tag_65:\n      swap1\n      dup2\n      mstore\n      0x20\n      add\n      mload(0x40)\n      dup1\n      swap2\n      sub\n      swap1\n      keccak256\n      0x00\n      swap1\n      sload\n      swap1\n      0x0100\n      exp\n      swap1\n      div\n      0xff\n      and\n        /* \"Votes/votes.sol\":1277:1315  return votes_canditate[_nameCandidate] */\n      swap1\n      pop\n        /* \"Votes/votes.sol\":1172:1323  function viewResultCandidate(string memory _nameCandidate) public view   returns (uint8)... */\n      swap2\n      swap1\n      pop\n      jump\t// out\n        /* \"Votes/votes.sol\":1332:1848  function ViewResults() public view returns(string memory){... */\n    tag_25:\n        /* \"Votes/votes.sol\":1375:1388  string memory */\n      0x60\n        /* \"Votes/votes.sol\":1485:1509  string memory resultados */\n      0x00\n        /* \"Votes/votes.sol\":1485:1512  string memory resultados=\"\" */\n      mload(0x40)\n      dup1\n      0x20\n      add\n      0x40\n      mstore\n      dup1\n      0x00\n      dup2\n      mstore\n      pop\n      swap1\n      pop\n        /* \"Votes/votes.sol\":1619:1625  uint i */\n      0x00\n        /* \"Votes/votes.sol\":1626:1627  0 */\n      0x00\n        /* \"Votes/votes.sol\":1619:1627  uint i=0 */\n      swap1\n      pop\n        /* \"Votes/votes.sol\":1615:1813  for(uint i=0; i<candidates.length; i++){... */\n    tag_67:\n        /* \"Votes/votes.sol\":1631:1641  candidates */\n      0x03\n        /* \"Votes/votes.sol\":1631:1648  candidates.length */\n      dup1\n      sload\n      swap1\n      pop\n        /* \"Votes/votes.sol\":1629:1630  i */\n      dup2\n        /* \"Votes/votes.sol\":1629:1648  i<candidates.length */\n      lt\n        /* \"Votes/votes.sol\":1615:1813  for(uint i=0; i<candidates.length; i++){... */\n      iszero\n      tag_68\n      jumpi\n        /* \"Votes/votes.sol\":1706:1716  resultados */\n      dup2\n        /* \"Votes/votes.sol\":1723:1733  candidates */\n      0x03\n        /* \"Votes/votes.sol\":1734:1735  i */\n      dup3\n        /* \"Votes/votes.sol\":1723:1736  candidates[i] */\n      dup2\n      sload\n      dup2\n      lt\n      tag_70\n      jumpi\n      tag_71\n      tag_55\n      jump\t// in\n    tag_71:\n    tag_70:\n      swap1\n      0x00\n      mstore\n      keccak256(0x00, 0x20)\n      add\n        /* \"Votes/votes.sol\":1744:1788  uint2str(viewResultCandidate(candidates[i])) */\n      tag_73\n        /* \"Votes/votes.sol\":1753:1787  viewResultCandidate(candidates[i]) */\n      tag_74\n        /* \"Votes/votes.sol\":1773:1783  candidates */\n      0x03\n        /* \"Votes/votes.sol\":1784:1785  i */\n      dup6\n        /* \"Votes/votes.sol\":1773:1786  candidates[i] */\n      dup2\n      sload\n      dup2\n      lt\n      tag_75\n      jumpi\n      tag_76\n      tag_55\n      jump\t// in\n    tag_76:\n    tag_75:\n      swap1\n      0x00\n      mstore\n      keccak256(0x00, 0x20)\n      add\n        /* \"Votes/votes.sol\":1753:1787  viewResultCandidate(candidates[i]) */\n      dup1\n      sload\n      tag_78\n      swap1\n      tag_79\n      jump\t// in\n    tag_78:\n      dup1\n      0x1f\n      add\n      0x20\n      dup1\n      swap2\n      div\n      mul\n      0x20\n      add\n      mload(0x40)\n      swap1\n      dup2\n      add\n      0x40\n      mstore\n      dup1\n      swap3\n      swap2\n      swap1\n      dup2\n      dup2\n      mstore\n      0x20\n      add\n      dup3\n      dup1\n      sload\n      tag_80\n      swap1\n      tag_79\n      jump\t// in\n    tag_80:\n      dup1\n      iszero\n      tag_81\n      jumpi\n      dup1\n      0x1f\n      lt\n      tag_82\n      jumpi\n      0x0100\n      dup1\n      dup4\n      sload\n      div\n      mul\n      dup4\n      mstore\n      swap2\n      0x20\n      add\n      swap2\n      jump(tag_81)\n    tag_82:\n      dup3\n      add\n      swap2\n      swap1\n      0x00\n      mstore\n      keccak256(0x00, 0x20)\n      swap1\n    tag_83:\n      dup2\n      sload\n      dup2\n      mstore\n      swap1\n      0x01\n      add\n      swap1\n      0x20\n      add\n      dup1\n      dup4\n      gt\n      tag_83\n      jumpi\n      dup3\n      swap1\n      sub\n      0x1f\n      and\n      dup3\n      add\n      swap2\n    tag_81:\n      pop\n      pop\n      pop\n      pop\n      pop\n        /* \"Votes/votes.sol\":1753:1772  viewResultCandidate */\n      tag_21\n        /* \"Votes/votes.sol\":1753:1787  viewResultCandidate(candidates[i]) */\n      jump\t// in\n    tag_74:\n        /* \"Votes/votes.sol\":1744:1788  uint2str(viewResultCandidate(candidates[i])) */\n      0xff\n      and\n        /* \"Votes/votes.sol\":1744:1752  uint2str */\n      tag_84\n        /* \"Votes/votes.sol\":1744:1788  uint2str(viewResultCandidate(candidates[i])) */\n      jump\t// in\n    tag_73:\n        /* \"Votes/votes.sol\":1689:1800  abi.encodePacked(resultados, \"(\", candidates[i], \", \", uint2str(viewResultCandidate(candidates[i])), \") -----\") */\n      add(0x20, mload(0x40))\n      tag_85\n      swap4\n      swap3\n      swap2\n      swap1\n      tag_86\n      jump\t// in\n    tag_85:\n      mload(0x40)\n      0x20\n      dup2\n      dup4\n      sub\n      sub\n      dup2\n      mstore\n      swap1\n      0x40\n      mstore\n        /* \"Votes/votes.sol\":1669:1801  resultados = string(abi.encodePacked(resultados, \"(\", candidates[i], \", \", uint2str(viewResultCandidate(candidates[i])), \") -----\")) */\n      swap2\n      pop\n        /* \"Votes/votes.sol\":1650:1653  i++ */\n      dup1\n      dup1\n      0x01\n      add\n      swap2\n      pop\n      pop\n        /* \"Votes/votes.sol\":1615:1813  for(uint i=0; i<candidates.length; i++){... */\n      jump(tag_67)\n    tag_68:\n      pop\n        /* \"Votes/votes.sol\":1830:1840  resultados */\n      dup1\n        /* \"Votes/votes.sol\":1823:1840  return resultados */\n      swap2\n      pop\n      pop\n        /* \"Votes/votes.sol\":1332:1848  function ViewResults() public view returns(string memory){... */\n      swap1\n      jump\t// out\n        /* \"Votes/votes.sol\":120:141  address public  owner */\n    tag_29:\n      0x00\n      0x00\n      swap1\n      sload\n      swap1\n      0x0100\n      exp\n      swap1\n      div\n      0xffffffffffffffffffffffffffffffffffffffff\n      and\n      dup2\n      jump\t// out\n        /* \"Votes/votes.sol\":1856:2685  function Winner() public view returns(string memory){... */\n    tag_33:\n        /* \"Votes/votes.sol\":1894:1907  string memory */\n      0x60\n        /* \"Votes/votes.sol\":2003:2023  string memory winner */\n      0x00\n        /* \"Votes/votes.sol\":2025:2035  candidates */\n      0x03\n        /* \"Votes/votes.sol\":2036:2037  0 */\n      0x00\n        /* \"Votes/votes.sol\":2025:2038  candidates[0] */\n      dup2\n      sload\n      dup2\n      lt\n      tag_88\n      jumpi\n      tag_89\n      tag_55\n      jump\t// in\n    tag_89:\n    tag_88:\n      swap1\n      0x00\n      mstore\n      keccak256(0x00, 0x20)\n      add\n        /* \"Votes/votes.sol\":2003:2038  string memory winner= candidates[0] */\n      dup1\n      sload\n      tag_91\n      swap1\n      tag_79\n      jump\t// in\n    tag_91:\n      dup1\n      0x1f\n      add\n      0x20\n      dup1\n      swap2\n      div\n      mul\n      0x20\n      add\n      mload(0x40)\n      swap1\n      dup2\n      add\n      0x40\n      mstore\n      dup1\n      swap3\n      swap2\n      swap1\n      dup2\n      dup2\n      mstore\n      0x20\n      add\n      dup3\n      dup1\n      sload\n      tag_92\n      swap1\n      tag_79\n      jump\t// in\n    tag_92:\n      dup1\n      iszero\n      tag_93\n      jumpi\n      dup1\n      0x1f\n      lt\n      tag_94\n      jumpi\n      0x0100\n      dup1\n      dup4\n      sload\n      div\n      mul\n      dup4\n      mstore\n      swap2\n      0x20\n      add\n      swap2\n      jump(tag_93)\n    tag_94:\n      dup3\n      add\n      swap2\n      swap1\n      0x00\n      mstore\n      keccak256(0x00, 0x20)\n      swap1\n    tag_95:\n      dup2\n      sload\n      dup2\n      mstore\n      swap1\n      0x01\n      add\n      swap1\n      0x20\n      add\n      dup1\n      dup4\n      gt\n      tag_95\n      jumpi\n      dup3\n      swap1\n      sub\n      0x1f\n      and\n      dup3\n      add\n      swap2\n    tag_93:\n      pop\n      pop\n      pop\n      pop\n      pop\n      swap1\n      pop\n        /* \"Votes/votes.sol\":2049:2058  bool flag */\n      0x00\n        /* \"Votes/votes.sol\":2186:2192  uint i */\n      0x00\n        /* \"Votes/votes.sol\":2193:2194  1 */\n      0x01\n        /* \"Votes/votes.sol\":2186:2194  uint i=1 */\n      swap1\n      pop\n        /* \"Votes/votes.sol\":2182:2544  for(uint i=1; i<candidates.length; i++){... */\n    tag_96:\n        /* \"Votes/votes.sol\":2198:2208  candidates */\n      0x03\n        /* \"Votes/votes.sol\":2198:2215  candidates.length */\n      dup1\n      sload\n      swap1\n      pop\n        /* \"Votes/votes.sol\":2196:2197  i */\n      dup2\n        /* \"Votes/votes.sol\":2196:2215  i<candidates.length */\n      lt\n        /* \"Votes/votes.sol\":2182:2544  for(uint i=1; i<candidates.length; i++){... */\n      iszero\n      tag_97\n      jumpi\n        /* \"Votes/votes.sol\":2265:2280  votes_canditate */\n      0x02\n        /* \"Votes/votes.sol\":2281:2291  candidates */\n      0x03\n        /* \"Votes/votes.sol\":2292:2293  i */\n      dup3\n        /* \"Votes/votes.sol\":2281:2294  candidates[i] */\n      dup2\n      sload\n      dup2\n      lt\n      tag_99\n      jumpi\n      tag_100\n      tag_55\n      jump\t// in\n    tag_100:\n    tag_99:\n      swap1\n      0x00\n      mstore\n      keccak256(0x00, 0x20)\n      add\n        /* \"Votes/votes.sol\":2265:2295  votes_canditate[candidates[i]] */\n      mload(0x40)\n      tag_102\n      swap2\n      swap1\n      tag_103\n      jump\t// in\n    tag_102:\n      swap1\n      dup2\n      mstore\n      0x20\n      add\n      mload(0x40)\n      dup1\n      swap2\n      sub\n      swap1\n      keccak256\n      0x00\n      swap1\n      sload\n      swap1\n      0x0100\n      exp\n      swap1\n      div\n      0xff\n      and\n        /* \"Votes/votes.sol\":2239:2295  votes_canditate[winner] < votes_canditate[candidates[i]] */\n      0xff\n      and\n        /* \"Votes/votes.sol\":2239:2254  votes_canditate */\n      0x02\n        /* \"Votes/votes.sol\":2255:2261  winner */\n      dup5\n        /* \"Votes/votes.sol\":2239:2262  votes_canditate[winner] */\n      mload(0x40)\n      tag_104\n      swap2\n      swap1\n      tag_43\n      jump\t// in\n    tag_104:\n      swap1\n      dup2\n      mstore\n      0x20\n      add\n      mload(0x40)\n      dup1\n      swap2\n      sub\n      swap1\n      keccak256\n      0x00\n      swap1\n      sload\n      swap1\n      0x0100\n      exp\n      swap1\n      div\n      0xff\n      and\n        /* \"Votes/votes.sol\":2239:2295  votes_canditate[winner] < votes_canditate[candidates[i]] */\n      0xff\n      and\n      lt\n        /* \"Votes/votes.sol\":2236:2533  if(votes_canditate[winner] < votes_canditate[candidates[i]]){... */\n      iszero\n      tag_105\n      jumpi\n        /* \"Votes/votes.sol\":2324:2334  candidates */\n      0x03\n        /* \"Votes/votes.sol\":2335:2336  i */\n      dup2\n        /* \"Votes/votes.sol\":2324:2337  candidates[i] */\n      dup2\n      sload\n      dup2\n      lt\n      tag_106\n      jumpi\n      tag_107\n      tag_55\n      jump\t// in\n    tag_107:\n    tag_106:\n      swap1\n      0x00\n      mstore\n      keccak256(0x00, 0x20)\n      add\n        /* \"Votes/votes.sol\":2315:2337  winner = candidates[i] */\n      dup1\n      sload\n      tag_109\n      swap1\n      tag_79\n      jump\t// in\n    tag_109:\n      dup1\n      0x1f\n      add\n      0x20\n      dup1\n      swap2\n      div\n      mul\n      0x20\n      add\n      mload(0x40)\n      swap1\n      dup2\n      add\n      0x40\n      mstore\n      dup1\n      swap3\n      swap2\n      swap1\n      dup2\n      dup2\n      mstore\n      0x20\n      add\n      dup3\n      dup1\n      sload\n      tag_110\n      swap1\n      tag_79\n      jump\t// in\n    tag_110:\n      dup1\n      iszero\n      tag_111\n      jumpi\n      dup1\n      0x1f\n      lt\n      tag_112\n      jumpi\n      0x0100\n      dup1\n      dup4\n      sload\n      div\n      mul\n      dup4\n      mstore\n      swap2\n      0x20\n      add\n      swap2\n      jump(tag_111)\n    tag_112:\n      dup3\n      add\n      swap2\n      swap1\n      0x00\n      mstore\n      keccak256(0x00, 0x20)\n      swap1\n    tag_113:\n      dup2\n      sload\n      dup2\n      mstore\n      swap1\n      0x01\n      add\n      swap1\n      0x20\n      add\n      dup1\n      dup4\n      gt\n      tag_113\n      jumpi\n      dup3\n      swap1\n      sub\n      0x1f\n      and\n      dup3\n      add\n      swap2\n    tag_111:\n      pop\n      pop\n      pop\n      pop\n      pop\n      swap3\n      pop\n        /* \"Votes/votes.sol\":2361:2366  false */\n      0x00\n        /* \"Votes/votes.sol\":2356:2366  flag=false */\n      swap2\n      pop\n        /* \"Votes/votes.sol\":2236:2533  if(votes_canditate[winner] < votes_canditate[candidates[i]]){... */\n      jump(tag_114)\n    tag_105:\n        /* \"Votes/votes.sol\":2435:2450  votes_canditate */\n      0x02\n        /* \"Votes/votes.sol\":2451:2461  candidates */\n      0x03\n        /* \"Votes/votes.sol\":2462:2463  i */\n      dup3\n        /* \"Votes/votes.sol\":2451:2464  candidates[i] */\n      dup2\n      sload\n      dup2\n      lt\n      tag_115\n      jumpi\n      tag_116\n      tag_55\n      jump\t// in\n    tag_116:\n    tag_115:\n      swap1\n      0x00\n      mstore\n      keccak256(0x00, 0x20)\n      add\n        /* \"Votes/votes.sol\":2435:2465  votes_canditate[candidates[i]] */\n      mload(0x40)\n      tag_118\n      swap2\n      swap1\n      tag_103\n      jump\t// in\n    tag_118:\n      swap1\n      dup2\n      mstore\n      0x20\n      add\n      mload(0x40)\n      dup1\n      swap2\n      sub\n      swap1\n      keccak256\n      0x00\n      swap1\n      sload\n      swap1\n      0x0100\n      exp\n      swap1\n      div\n      0xff\n      and\n        /* \"Votes/votes.sol\":2408:2465  votes_canditate[winner] == votes_canditate[candidates[i]] */\n      0xff\n      and\n        /* \"Votes/votes.sol\":2408:2423  votes_canditate */\n      0x02\n        /* \"Votes/votes.sol\":2424:2430  winner */\n      dup5\n        /* \"Votes/votes.sol\":2408:2431  votes_canditate[winner] */\n      mload(0x40)\n      tag_119\n      swap2\n      swap1\n      tag_43\n      jump\t// in\n    tag_119:\n      swap1\n      dup2\n      mstore\n      0x20\n      add\n      mload(0x40)\n      dup1\n      swap2\n      sub\n      swap1\n      keccak256\n      0x00\n      swap1\n      sload\n      swap1\n      0x0100\n      exp\n      swap1\n      div\n      0xff\n      and\n        /* \"Votes/votes.sol\":2408:2465  votes_canditate[winner] == votes_canditate[candidates[i]] */\n      0xff\n      and\n      sub\n        /* \"Votes/votes.sol\":2405:2518  if(votes_canditate[winner] == votes_canditate[candidates[i]]){... */\n      tag_120\n      jumpi\n        /* \"Votes/votes.sol\":2494:2498  true */\n      0x01\n        /* \"Votes/votes.sol\":2489:2498  flag=true */\n      swap2\n      pop\n        /* \"Votes/votes.sol\":2405:2518  if(votes_canditate[winner] == votes_canditate[candidates[i]]){... */\n    tag_120:\n        /* \"Votes/votes.sol\":2236:2533  if(votes_canditate[winner] < votes_canditate[candidates[i]]){... */\n    tag_114:\n        /* \"Votes/votes.sol\":2217:2220  i++ */\n      dup1\n      dup1\n      0x01\n      add\n      swap2\n      pop\n      pop\n        /* \"Votes/votes.sol\":2182:2544  for(uint i=1; i<candidates.length; i++){... */\n      jump(tag_96)\n    tag_97:\n      pop\n        /* \"Votes/votes.sol\":2573:2577  true */\n      0x01\n        /* \"Votes/votes.sol\":2567:2577  flag==true */\n      iszero\n      iszero\n        /* \"Votes/votes.sol\":2567:2571  flag */\n      dup2\n        /* \"Votes/votes.sol\":2567:2577  flag==true */\n      iszero\n      iszero\n      sub\n        /* \"Votes/votes.sol\":2564:2654  if(flag==true){... */\n      tag_121\n      jumpi\n        /* \"Votes/votes.sol\":2593:2642  winner = \"There is a tie between the candidates!\" */\n      mload(0x40)\n      dup1\n      0x60\n      add\n      0x40\n      mstore\n      dup1\n      0x26\n      dup2\n      mstore\n      0x20\n      add\n      data_eee2584c38bccf16070da41b3608363c5998430631b4447f0b56c636fabe8d05\n      0x26\n      swap2\n      codecopy\n      swap2\n      pop\n        /* \"Votes/votes.sol\":2564:2654  if(flag==true){... */\n    tag_121:\n        /* \"Votes/votes.sol\":2671:2677  winner */\n      dup2\n        /* \"Votes/votes.sol\":2664:2677  return winner */\n      swap3\n      pop\n      pop\n      pop\n        /* \"Votes/votes.sol\":1856:2685  function Winner() public view returns(string memory){... */\n      swap1\n      jump\t// out\n        /* \"Votes/votes.sol\":672:779  function ViewCanditates() public view  returns (string[] memory)... */\n    tag_36:\n        /* \"Votes/votes.sol\":720:735  string[] memory */\n      0x60\n        /* \"Votes/votes.sol\":761:771  candidates */\n      0x03\n        /* \"Votes/votes.sol\":753:771  return  candidates */\n      dup1\n      sload\n      dup1\n      0x20\n      mul\n      0x20\n      add\n      mload(0x40)\n      swap1\n      dup2\n      add\n      0x40\n      mstore\n      dup1\n      swap3\n      swap2\n      swap1\n      dup2\n      dup2\n      mstore\n      0x20\n      add\n      0x00\n      swap1\n    tag_123:\n      dup3\n      dup3\n      lt\n      iszero\n      tag_124\n      jumpi\n      dup4\n      dup3\n      swap1\n      0x00\n      mstore\n      keccak256(0x00, 0x20)\n      add\n      dup1\n      sload\n      tag_126\n      swap1\n      tag_79\n      jump\t// in\n    tag_126:\n      dup1\n      0x1f\n      add\n      0x20\n      dup1\n      swap2\n      div\n      mul\n      0x20\n      add\n      mload(0x40)\n      swap1\n      dup2\n      add\n      0x40\n      mstore\n      dup1\n      swap3\n      swap2\n      swap1\n      dup2\n      dup2\n      mstore\n      0x20\n      add\n      dup3\n      dup1\n      sload\n      tag_127\n      swap1\n      tag_79\n      jump\t// in\n    tag_127:\n      dup1\n      iszero\n      tag_128\n      jumpi\n      dup1\n      0x1f\n      lt\n      tag_129\n      jumpi\n      0x0100\n      dup1\n      dup4\n      sload\n      div\n      mul\n      dup4\n      mstore\n      swap2\n      0x20\n      add\n      swap2\n      jump(tag_128)\n    tag_129:\n      dup3\n      add\n      swap2\n      swap1\n      0x00\n      mstore\n      keccak256(0x00, 0x20)\n      swap1\n    tag_130:\n      dup2\n      sload\n      dup2\n      mstore\n      swap1\n      0x01\n      add\n      swap1\n      0x20\n      add\n      dup1\n      dup4\n      gt\n      tag_130\n      jumpi\n      dup3\n      swap1\n      sub\n      0x1f\n      and\n      dup3\n      add\n      swap2\n    tag_128:\n      pop\n      pop\n      pop\n      pop\n      pop\n      dup2\n      mstore\n      0x20\n      add\n      swap1\n      0x01\n      add\n      swap1\n      jump(tag_123)\n    tag_124:\n      pop\n      pop\n      pop\n      pop\n      swap1\n      pop\n        /* \"Votes/votes.sol\":672:779  function ViewCanditates() public view  returns (string[] memory)... */\n      swap1\n      jump\t// out\n        /* \"Votes/votes.sol\":2696:3181  function uint2str(uint _i) internal pure returns (string memory _uintAsString) {... */\n    tag_84:\n        /* \"Votes/votes.sol\":2746:2773  string memory _uintAsString */\n      0x60\n        /* \"Votes/votes.sol\":2796:2797  0 */\n      0x00\n        /* \"Votes/votes.sol\":2790:2792  _i */\n      dup3\n        /* \"Votes/votes.sol\":2790:2797  _i == 0 */\n      sub\n        /* \"Votes/votes.sol\":2786:2836  if (_i == 0) {... */\n      tag_132\n      jumpi\n        /* \"Votes/votes.sol\":2814:2824  return \"0\" */\n      mload(0x40)\n      dup1\n      0x40\n      add\n      0x40\n      mstore\n      dup1\n      0x01\n      dup2\n      mstore\n      0x20\n      add\n      0x3000000000000000000000000000000000000000000000000000000000000000\n      dup2\n      mstore\n      pop\n      swap1\n      pop\n      jump(tag_131)\n        /* \"Votes/votes.sol\":2786:2836  if (_i == 0) {... */\n    tag_132:\n        /* \"Votes/votes.sol\":2846:2852  uint j */\n      0x00\n        /* \"Votes/votes.sol\":2855:2857  _i */\n      dup3\n        /* \"Votes/votes.sol\":2846:2857  uint j = _i */\n      swap1\n      pop\n        /* \"Votes/votes.sol\":2868:2876  uint len */\n      0x00\n        /* \"Votes/votes.sol\":2887:2956  while (j != 0) {... */\n    tag_133:\n        /* \"Votes/votes.sol\":2899:2900  0 */\n      0x00\n        /* \"Votes/votes.sol\":2894:2895  j */\n      dup3\n        /* \"Votes/votes.sol\":2894:2900  j != 0 */\n      eq\n        /* \"Votes/votes.sol\":2887:2956  while (j != 0) {... */\n      tag_134\n      jumpi\n        /* \"Votes/votes.sol\":2917:2922  len++ */\n      dup1\n      dup1\n      tag_135\n      swap1\n      tag_136\n      jump\t// in\n    tag_135:\n      swap2\n      pop\n      pop\n        /* \"Votes/votes.sol\":2942:2944  10 */\n      0x0a\n        /* \"Votes/votes.sol\":2937:2944  j /= 10 */\n      dup3\n      tag_137\n      swap2\n      swap1\n      tag_138\n      jump\t// in\n    tag_137:\n      swap2\n      pop\n        /* \"Votes/votes.sol\":2887:2956  while (j != 0) {... */\n      jump(tag_133)\n    tag_134:\n        /* \"Votes/votes.sol\":2966:2984  bytes  memory bstr */\n      0x00\n        /* \"Votes/votes.sol\":2997:3000  len */\n      dup2\n        /* \"Votes/votes.sol\":2987:3001  new bytes(len) */\n      0xffffffffffffffff\n      dup2\n      gt\n      iszero\n      tag_139\n      jumpi\n      tag_140\n      tag_141\n      jump\t// in\n    tag_140:\n    tag_139:\n      mload(0x40)\n      swap1\n      dup1\n      dup3\n      mstore\n      dup1\n      0x1f\n      add\n      not(0x1f)\n      and\n      0x20\n      add\n      dup3\n      add\n      0x40\n      mstore\n      dup1\n      iszero\n      tag_142\n      jumpi\n      dup2\n      0x20\n      add\n      0x01\n      dup3\n      mul\n      dup1\n      calldatasize\n      dup4\n      calldatacopy\n      dup1\n      dup3\n      add\n      swap2\n      pop\n      pop\n      swap1\n      pop\n    tag_142:\n      pop\n        /* \"Votes/votes.sol\":2966:3001  bytes  memory bstr = new bytes(len) */\n      swap1\n      pop\n        /* \"Votes/votes.sol\":3012:3018  uint k */\n      0x00\n        /* \"Votes/votes.sol\":3027:3028  1 */\n      0x01\n        /* \"Votes/votes.sol\":3021:3024  len */\n      dup4\n        /* \"Votes/votes.sol\":3021:3028  len - 1 */\n      tag_143\n      swap2\n      swap1\n      tag_144\n      jump\t// in\n    tag_143:\n        /* \"Votes/votes.sol\":3012:3028  uint k = len - 1 */\n      swap1\n      pop\n        /* \"Votes/votes.sol\":3039:3144  while (_i != 0) {... */\n    tag_145:\n        /* \"Votes/votes.sol\":3052:3053  0 */\n      0x00\n        /* \"Votes/votes.sol\":3046:3048  _i */\n      dup7\n        /* \"Votes/votes.sol\":3046:3053  _i != 0 */\n      eq\n        /* \"Votes/votes.sol\":3039:3144  while (_i != 0) {... */\n      tag_146\n      jumpi\n        /* \"Votes/votes.sol\":3105:3107  10 */\n      0x0a\n        /* \"Votes/votes.sol\":3100:3102  _i */\n      dup7\n        /* \"Votes/votes.sol\":3100:3107  _i % 10 */\n      tag_147\n      swap2\n      swap1\n      tag_148\n      jump\t// in\n    tag_147:\n        /* \"Votes/votes.sol\":3095:3097  48 */\n      0x30\n        /* \"Votes/votes.sol\":3095:3107  48 + _i % 10 */\n      tag_149\n      swap2\n      swap1\n      tag_150\n      jump\t// in\n    tag_149:\n        /* \"Votes/votes.sol\":3082:3109  bytes1(uint8(48 + _i % 10)) */\n      0xf8\n      shl\n        /* \"Votes/votes.sol\":3070:3074  bstr */\n      dup3\n        /* \"Votes/votes.sol\":3075:3078  k-- */\n      dup3\n      dup1\n      tag_151\n      swap1\n      tag_152\n      jump\t// in\n    tag_151:\n      swap4\n      pop\n        /* \"Votes/votes.sol\":3070:3079  bstr[k--] */\n      dup2\n      mload\n      dup2\n      lt\n      tag_153\n      jumpi\n      tag_154\n      tag_55\n      jump\t// in\n    tag_154:\n    tag_153:\n      0x20\n      add\n      add\n        /* \"Votes/votes.sol\":3070:3109  bstr[k--] = bytes1(uint8(48 + _i % 10)) */\n      swap1\n      not(0xffffffffffffffffffffffffffffffffffffffffffffffffffffffffffffff)\n      and\n      swap1\n      dup2\n      0x00\n      byte\n      swap1\n      mstore8\n      pop\n        /* \"Votes/votes.sol\":3130:3132  10 */\n      0x0a\n        /* \"Votes/votes.sol\":3124:3132  _i /= 10 */\n      dup7\n      tag_155\n      swap2\n      swap1\n      tag_138\n      jump\t// in\n    tag_155:\n      swap6\n      pop\n        /* \"Votes/votes.sol\":3039:3144  while (_i != 0) {... */\n      jump(tag_145)\n    tag_146:\n        /* \"Votes/votes.sol\":3168:3172  bstr */\n      dup2\n        /* \"Votes/votes.sol\":3154:3173  return string(bstr) */\n      swap5\n      pop\n      pop\n      pop\n      pop\n      pop\n        /* \"Votes/votes.sol\":2696:3181  function uint2str(uint _i) internal pure returns (string memory _uintAsString) {... */\n    tag_131:\n      swap2\n      swap1\n      pop\n      jump\t// out\n        /* \"#utility.yul\":7:82   */\n    tag_156:\n        /* \"#utility.yul\":40:46   */\n      0x00\n        /* \"#utility.yul\":73:75   */\n      0x40\n        /* \"#utility.yul\":67:76   */\n      mload\n        /* \"#utility.yul\":57:76   */\n      swap1\n      pop\n        /* \"#utility.yul\":7:82   */\n      swap1\n      jump\t// out\n        /* \"#utility.yul\":88:205   */\n    tag_157:\n        /* \"#utility.yul\":197:198   */\n      0x00\n        /* \"#utility.yul\":194:195   */\n      0x00\n        /* \"#utility.yul\":187:199   */\n      revert\n        /* \"#utility.yul\":211:328   */\n    tag_158:\n        /* \"#utility.yul\":320:321   */\n      0x00\n        /* \"#utility.yul\":317:318   */\n      0x00\n        /* \"#utility.yul\":310:322   */\n      revert\n        /* \"#utility.yul\":334:451   */\n    tag_159:\n        /* \"#utility.yul\":443:444   */\n      0x00\n        /* \"#utility.yul\":440:441   */\n      0x00\n        /* \"#utility.yul\":433:445   */\n      revert\n        /* \"#utility.yul\":457:574   */\n    tag_160:\n        /* \"#utility.yul\":566:567   */\n      0x00\n        /* \"#utility.yul\":563:564   */\n      0x00\n        /* \"#utility.yul\":556:568   */\n      revert\n        /* \"#utility.yul\":580:682   */\n    tag_161:\n        /* \"#utility.yul\":621:627   */\n      0x00\n        /* \"#utility.yul\":672:674   */\n      0x1f\n        /* \"#utility.yul\":668:675   */\n      not\n        /* \"#utility.yul\":663:665   */\n      0x1f\n        /* \"#utility.yul\":656:661   */\n      dup4\n        /* \"#utility.yul\":652:666   */\n      add\n        /* \"#utility.yul\":648:676   */\n      and\n        /* \"#utility.yul\":638:676   */\n      swap1\n      pop\n        /* \"#utility.yul\":580:682   */\n      swap2\n      swap1\n      pop\n      jump\t// out\n        /* \"#utility.yul\":688:868   */\n    tag_141:\n        /* \"#utility.yul\":736:813   */\n      0x4e487b7100000000000000000000000000000000000000000000000000000000\n        /* \"#utility.yul\":733:734   */\n      0x00\n        /* \"#utility.yul\":726:814   */\n      mstore\n        /* \"#utility.yul\":833:837   */\n      0x41\n        /* \"#utility.yul\":830:831   */\n      0x04\n        /* \"#utility.yul\":823:838   */\n      mstore\n        /* \"#utility.yul\":857:861   */\n      0x24\n        /* \"#utility.yul\":854:855   */\n      0x00\n        /* \"#utility.yul\":847:862   */\n      revert\n        /* \"#utility.yul\":874:1155   */\n    tag_162:\n        /* \"#utility.yul\":957:984   */\n      tag_232\n        /* \"#utility.yul\":979:983   */\n      dup3\n        /* \"#utility.yul\":957:984   */\n      tag_161\n      jump\t// in\n    tag_232:\n        /* \"#utility.yul\":949:955   */\n      dup2\n        /* \"#utility.yul\":945:985   */\n      add\n        /* \"#utility.yul\":1087:1093   */\n      dup2\n        /* \"#utility.yul\":1075:1085   */\n      dup2\n        /* \"#utility.yul\":1072:1094   */\n      lt\n        /* \"#utility.yul\":1051:1069   */\n      0xffffffffffffffff\n        /* \"#utility.yul\":1039:1049   */\n      dup3\n        /* \"#utility.yul\":1036:1070   */\n      gt\n        /* \"#utility.yul\":1033:1095   */\n      or\n        /* \"#utility.yul\":1030:1118   */\n      iszero\n      tag_233\n      jumpi\n        /* \"#utility.yul\":1098:1116   */\n      tag_234\n      tag_141\n      jump\t// in\n    tag_234:\n        /* \"#utility.yul\":1030:1118   */\n    tag_233:\n        /* \"#utility.yul\":1138:1148   */\n      dup1\n        /* \"#utility.yul\":1134:1136   */\n      0x40\n        /* \"#utility.yul\":1127:1149   */\n      mstore\n        /* \"#utility.yul\":917:1155   */\n      pop\n        /* \"#utility.yul\":874:1155   */\n      pop\n      pop\n      jump\t// out\n        /* \"#utility.yul\":1161:1290   */\n    tag_163:\n        /* \"#utility.yul\":1195:1201   */\n      0x00\n        /* \"#utility.yul\":1222:1242   */\n      tag_236\n      tag_156\n      jump\t// in\n    tag_236:\n        /* \"#utility.yul\":1212:1242   */\n      swap1\n      pop\n        /* \"#utility.yul\":1251:1284   */\n      tag_237\n        /* \"#utility.yul\":1279:1283   */\n      dup3\n        /* \"#utility.yul\":1271:1277   */\n      dup3\n        /* \"#utility.yul\":1251:1284   */\n      tag_162\n      jump\t// in\n    tag_237:\n        /* \"#utility.yul\":1161:1290   */\n      swap2\n      swap1\n      pop\n      jump\t// out\n        /* \"#utility.yul\":1296:1604   */\n    tag_164:\n        /* \"#utility.yul\":1358:1362   */\n      0x00\n        /* \"#utility.yul\":1448:1466   */\n      0xffffffffffffffff\n        /* \"#utility.yul\":1440:1446   */\n      dup3\n        /* \"#utility.yul\":1437:1467   */\n      gt\n        /* \"#utility.yul\":1434:1490   */\n      iszero\n      tag_239\n      jumpi\n        /* \"#utility.yul\":1470:1488   */\n      tag_240\n      tag_141\n      jump\t// in\n    tag_240:\n        /* \"#utility.yul\":1434:1490   */\n    tag_239:\n        /* \"#utility.yul\":1508:1537   */\n      tag_241\n        /* \"#utility.yul\":1530:1536   */\n      dup3\n        /* \"#utility.yul\":1508:1537   */\n      tag_161\n      jump\t// in\n    tag_241:\n        /* \"#utility.yul\":1500:1537   */\n      swap1\n      pop\n        /* \"#utility.yul\":1592:1596   */\n      0x20\n        /* \"#utility.yul\":1586:1590   */\n      dup2\n        /* \"#utility.yul\":1582:1597   */\n      add\n        /* \"#utility.yul\":1574:1597   */\n      swap1\n      pop\n        /* \"#utility.yul\":1296:1604   */\n      swap2\n      swap1\n      pop\n      jump\t// out\n        /* \"#utility.yul\":1610:1758   */\n    tag_165:\n        /* \"#utility.yul\":1708:1714   */\n      dup3\n        /* \"#utility.yul\":1703:1706   */\n      dup2\n        /* \"#utility.yul\":1698:1701   */\n      dup4\n        /* \"#utility.yul\":1685:1715   */\n      calldatacopy\n        /* \"#utility.yul\":1749:1750   */\n      0x00\n        /* \"#utility.yul\":1740:1746   */\n      dup4\n        /* \"#utility.yul\":1735:1738   */\n      dup4\n        /* \"#utility.yul\":1731:1747   */\n      add\n        /* \"#utility.yul\":1724:1751   */\n      mstore\n        /* \"#utility.yul\":1610:1758   */\n      pop\n      pop\n      pop\n      jump\t// out\n        /* \"#utility.yul\":1764:2189   */\n    tag_166:\n        /* \"#utility.yul\":1842:1847   */\n      0x00\n        /* \"#utility.yul\":1867:1933   */\n      tag_244\n        /* \"#utility.yul\":1883:1932   */\n      tag_245\n        /* \"#utility.yul\":1925:1931   */\n      dup5\n        /* \"#utility.yul\":1883:1932   */\n      tag_164\n      jump\t// in\n    tag_245:\n        /* \"#utility.yul\":1867:1933   */\n      tag_163\n      jump\t// in\n    tag_244:\n        /* \"#utility.yul\":1858:1933   */\n      swap1\n      pop\n        /* \"#utility.yul\":1956:1962   */\n      dup3\n        /* \"#utility.yul\":1949:1954   */\n      dup2\n        /* \"#utility.yul\":1942:1963   */\n      mstore\n        /* \"#utility.yul\":1994:1998   */\n      0x20\n        /* \"#utility.yul\":1987:1992   */\n      dup2\n        /* \"#utility.yul\":1983:1999   */\n      add\n        /* \"#utility.yul\":2032:2035   */\n      dup5\n        /* \"#utility.yul\":2023:2029   */\n      dup5\n        /* \"#utility.yul\":2018:2021   */\n      dup5\n        /* \"#utility.yul\":2014:2030   */\n      add\n        /* \"#utility.yul\":2011:2036   */\n      gt\n        /* \"#utility.yul\":2008:2120   */\n      iszero\n      tag_246\n      jumpi\n        /* \"#utility.yul\":2039:2118   */\n      tag_247\n      tag_160\n      jump\t// in\n    tag_247:\n        /* \"#utility.yul\":2008:2120   */\n    tag_246:\n        /* \"#utility.yul\":2129:2183   */\n      tag_248\n        /* \"#utility.yul\":2176:2182   */\n      dup5\n        /* \"#utility.yul\":2171:2174   */\n      dup3\n        /* \"#utility.yul\":2166:2169   */\n      dup6\n        /* \"#utility.yul\":2129:2183   */\n      tag_165\n      jump\t// in\n    tag_248:\n        /* \"#utility.yul\":1848:2189   */\n      pop\n        /* \"#utility.yul\":1764:2189   */\n      swap4\n      swap3\n      pop\n      pop\n      pop\n      jump\t// out\n        /* \"#utility.yul\":2209:2549   */\n    tag_167:\n        /* \"#utility.yul\":2265:2270   */\n      0x00\n        /* \"#utility.yul\":2314:2317   */\n      dup3\n        /* \"#utility.yul\":2307:2311   */\n      0x1f\n        /* \"#utility.yul\":2299:2305   */\n      dup4\n        /* \"#utility.yul\":2295:2312   */\n      add\n        /* \"#utility.yul\":2291:2318   */\n      slt\n        /* \"#utility.yul\":2281:2403   */\n      tag_250\n      jumpi\n        /* \"#utility.yul\":2322:2401   */\n      tag_251\n      tag_159\n      jump\t// in\n    tag_251:\n        /* \"#utility.yul\":2281:2403   */\n    tag_250:\n        /* \"#utility.yul\":2439:2445   */\n      dup2\n        /* \"#utility.yul\":2426:2446   */\n      calldataload\n        /* \"#utility.yul\":2464:2543   */\n      tag_252\n        /* \"#utility.yul\":2539:2542   */\n      dup5\n        /* \"#utility.yul\":2531:2537   */\n      dup3\n        /* \"#utility.yul\":2524:2528   */\n      0x20\n        /* \"#utility.yul\":2516:2522   */\n      dup7\n        /* \"#utility.yul\":2512:2529   */\n      add\n        /* \"#utility.yul\":2464:2543   */\n      tag_166\n      jump\t// in\n    tag_252:\n        /* \"#utility.yul\":2455:2543   */\n      swap2\n      pop\n        /* \"#utility.yul\":2271:2549   */\n      pop\n        /* \"#utility.yul\":2209:2549   */\n      swap3\n      swap2\n      pop\n      pop\n      jump\t// out\n        /* \"#utility.yul\":2555:2632   */\n    tag_168:\n        /* \"#utility.yul\":2592:2599   */\n      0x00\n        /* \"#utility.yul\":2621:2626   */\n      dup2\n        /* \"#utility.yul\":2610:2626   */\n      swap1\n      pop\n        /* \"#utility.yul\":2555:2632   */\n      swap2\n      swap1\n      pop\n      jump\t// out\n        /* \"#utility.yul\":2638:2760   */\n    tag_169:\n        /* \"#utility.yul\":2711:2735   */\n      tag_255\n        /* \"#utility.yul\":2729:2734   */\n      dup2\n        /* \"#utility.yul\":2711:2735   */\n      tag_168\n      jump\t// in\n    tag_255:\n        /* \"#utility.yul\":2704:2709   */\n      dup2\n        /* \"#utility.yul\":2701:2736   */\n      eq\n        /* \"#utility.yul\":2691:2754   */\n      tag_256\n      jumpi\n        /* \"#utility.yul\":2750:2751   */\n      0x00\n        /* \"#utility.yul\":2747:2748   */\n      0x00\n        /* \"#utility.yul\":2740:2752   */\n      revert\n        /* \"#utility.yul\":2691:2754   */\n    tag_256:\n        /* \"#utility.yul\":2638:2760   */\n      pop\n      jump\t// out\n        /* \"#utility.yul\":2766:2905   */\n    tag_170:\n        /* \"#utility.yul\":2812:2817   */\n      0x00\n        /* \"#utility.yul\":2850:2856   */\n      dup2\n        /* \"#utility.yul\":2837:2857   */\n      calldataload\n        /* \"#utility.yul\":2828:2857   */\n      swap1\n      pop\n        /* \"#utility.yul\":2866:2899   */\n      tag_258\n        /* \"#utility.yul\":2893:2898   */\n      dup2\n        /* \"#utility.yul\":2866:2899   */\n      tag_169\n      jump\t// in\n    tag_258:\n        /* \"#utility.yul\":2766:2905   */\n      swap3\n      swap2\n      pop\n      pop\n      jump\t// out\n        /* \"#utility.yul\":2911:3890   */\n    tag_13:\n        /* \"#utility.yul\":3008:3014   */\n      0x00\n        /* \"#utility.yul\":3016:3022   */\n      0x00\n        /* \"#utility.yul\":3024:3030   */\n      0x00\n        /* \"#utility.yul\":3073:3075   */\n      0x60\n        /* \"#utility.yul\":3061:3070   */\n      dup5\n        /* \"#utility.yul\":3052:3059   */\n      dup7\n        /* \"#utility.yul\":3048:3071   */\n      sub\n        /* \"#utility.yul\":3044:3076   */\n      slt\n        /* \"#utility.yul\":3041:3160   */\n      iszero\n      tag_260\n      jumpi\n        /* \"#utility.yul\":3079:3158   */\n      tag_261\n      tag_157\n      jump\t// in\n    tag_261:\n        /* \"#utility.yul\":3041:3160   */\n    tag_260:\n        /* \"#utility.yul\":3227:3228   */\n      0x00\n        /* \"#utility.yul\":3216:3225   */\n      dup5\n        /* \"#utility.yul\":3212:3229   */\n      add\n        /* \"#utility.yul\":3199:3230   */\n      calldataload\n        /* \"#utility.yul\":3257:3275   */\n      0xffffffffffffffff\n        /* \"#utility.yul\":3249:3255   */\n      dup2\n        /* \"#utility.yul\":3246:3276   */\n      gt\n        /* \"#utility.yul\":3243:3360   */\n      iszero\n      tag_262\n      jumpi\n        /* \"#utility.yul\":3279:3358   */\n      tag_263\n      tag_158\n      jump\t// in\n    tag_263:\n        /* \"#utility.yul\":3243:3360   */\n    tag_262:\n        /* \"#utility.yul\":3384:3447   */\n      tag_264\n        /* \"#utility.yul\":3439:3446   */\n      dup7\n        /* \"#utility.yul\":3430:3436   */\n      dup3\n        /* \"#utility.yul\":3419:3428   */\n      dup8\n        /* \"#utility.yul\":3415:3437   */\n      add\n        /* \"#utility.yul\":3384:3447   */\n      tag_167\n      jump\t// in\n    tag_264:\n        /* \"#utility.yul\":3374:3447   */\n      swap4\n      pop\n        /* \"#utility.yul\":3170:3457   */\n      pop\n        /* \"#utility.yul\":3496:3498   */\n      0x20\n        /* \"#utility.yul\":3522:3575   */\n      tag_265\n        /* \"#utility.yul\":3567:3574   */\n      dup7\n        /* \"#utility.yul\":3558:3564   */\n      dup3\n        /* \"#utility.yul\":3547:3556   */\n      dup8\n        /* \"#utility.yul\":3543:3565   */\n      add\n        /* \"#utility.yul\":3522:3575   */\n      tag_170\n      jump\t// in\n    tag_265:\n        /* \"#utility.yul\":3512:3575   */\n      swap3\n      pop\n        /* \"#utility.yul\":3467:3585   */\n      pop\n        /* \"#utility.yul\":3652:3654   */\n      0x40\n        /* \"#utility.yul\":3641:3650   */\n      dup5\n        /* \"#utility.yul\":3637:3655   */\n      add\n        /* \"#utility.yul\":3624:3656   */\n      calldataload\n        /* \"#utility.yul\":3683:3701   */\n      0xffffffffffffffff\n        /* \"#utility.yul\":3675:3681   */\n      dup2\n        /* \"#utility.yul\":3672:3702   */\n      gt\n        /* \"#utility.yul\":3669:3786   */\n      iszero\n      tag_266\n      jumpi\n        /* \"#utility.yul\":3705:3784   */\n      tag_267\n      tag_158\n      jump\t// in\n    tag_267:\n        /* \"#utility.yul\":3669:3786   */\n    tag_266:\n        /* \"#utility.yul\":3810:3873   */\n      tag_268\n        /* \"#utility.yul\":3865:3872   */\n      dup7\n        /* \"#utility.yul\":3856:3862   */\n      dup3\n        /* \"#utility.yul\":3845:3854   */\n      dup8\n        /* \"#utility.yul\":3841:3863   */\n      add\n        /* \"#utility.yul\":3810:3873   */\n      tag_167\n      jump\t// in\n    tag_268:\n        /* \"#utility.yul\":3800:3873   */\n      swap2\n      pop\n        /* \"#utility.yul\":3595:3883   */\n      pop\n        /* \"#utility.yul\":2911:3890   */\n      swap3\n      pop\n      swap3\n      pop\n      swap3\n      jump\t// out\n        /* \"#utility.yul\":3896:4405   */\n    tag_17:\n        /* \"#utility.yul\":3965:3971   */\n      0x00\n        /* \"#utility.yul\":4014:4016   */\n      0x20\n        /* \"#utility.yul\":4002:4011   */\n      dup3\n        /* \"#utility.yul\":3993:4000   */\n      dup5\n        /* \"#utility.yul\":3989:4012   */\n      sub\n        /* \"#utility.yul\":3985:4017   */\n      slt\n        /* \"#utility.yul\":3982:4101   */\n      iszero\n      tag_270\n      jumpi\n        /* \"#utility.yul\":4020:4099   */\n      tag_271\n      tag_157\n      jump\t// in\n    tag_271:\n        /* \"#utility.yul\":3982:4101   */\n    tag_270:\n        /* \"#utility.yul\":4168:4169   */\n      0x00\n        /* \"#utility.yul\":4157:4166   */\n      dup3\n        /* \"#utility.yul\":4153:4170   */\n      add\n        /* \"#utility.yul\":4140:4171   */\n      calldataload\n        /* \"#utility.yul\":4198:4216   */\n      0xffffffffffffffff\n        /* \"#utility.yul\":4190:4196   */\n      dup2\n        /* \"#utility.yul\":4187:4217   */\n      gt\n        /* \"#utility.yul\":4184:4301   */\n      iszero\n      tag_272\n      jumpi\n        /* \"#utility.yul\":4220:4299   */\n      tag_273\n      tag_158\n      jump\t// in\n    tag_273:\n        /* \"#utility.yul\":4184:4301   */\n    tag_272:\n        /* \"#utility.yul\":4325:4388   */\n      tag_274\n        /* \"#utility.yul\":4380:4387   */\n      dup5\n        /* \"#utility.yul\":4371:4377   */\n      dup3\n        /* \"#utility.yul\":4360:4369   */\n      dup6\n        /* \"#utility.yul\":4356:4378   */\n      add\n        /* \"#utility.yul\":4325:4388   */\n      tag_167\n      jump\t// in\n    tag_274:\n        /* \"#utility.yul\":4315:4388   */\n      swap2\n      pop\n        /* \"#utility.yul\":4111:4398   */\n      pop\n        /* \"#utility.yul\":3896:4405   */\n      swap3\n      swap2\n      pop\n      pop\n      jump\t// out\n        /* \"#utility.yul\":4411:4497   */\n    tag_171:\n        /* \"#utility.yul\":4446:4453   */\n      0x00\n        /* \"#utility.yul\":4486:4490   */\n      0xff\n        /* \"#utility.yul\":4479:4484   */\n      dup3\n        /* \"#utility.yul\":4475:4491   */\n      and\n        /* \"#utility.yul\":4464:4491   */\n      swap1\n      pop\n        /* \"#utility.yul\":4411:4497   */\n      swap2\n      swap1\n      pop\n      jump\t// out\n        /* \"#utility.yul\":4503:4615   */\n    tag_172:\n        /* \"#utility.yul\":4586:4608   */\n      tag_277\n        /* \"#utility.yul\":4602:4607   */\n      dup2\n        /* \"#utility.yul\":4586:4608   */\n      tag_171\n      jump\t// in\n    tag_277:\n        /* \"#utility.yul\":4581:4584   */\n      dup3\n        /* \"#utility.yul\":4574:4609   */\n      mstore\n        /* \"#utility.yul\":4503:4615   */\n      pop\n      pop\n      jump\t// out\n        /* \"#utility.yul\":4621:4835   */\n    tag_23:\n        /* \"#utility.yul\":4710:4714   */\n      0x00\n        /* \"#utility.yul\":4748:4750   */\n      0x20\n        /* \"#utility.yul\":4737:4746   */\n      dup3\n        /* \"#utility.yul\":4733:4751   */\n      add\n        /* \"#utility.yul\":4725:4751   */\n      swap1\n      pop\n        /* \"#utility.yul\":4761:4828   */\n      tag_279\n        /* \"#utility.yul\":4825:4826   */\n      0x00\n        /* \"#utility.yul\":4814:4823   */\n      dup4\n        /* \"#utility.yul\":4810:4827   */\n      add\n        /* \"#utility.yul\":4801:4807   */\n      dup5\n        /* \"#utility.yul\":4761:4828   */\n      tag_172\n      jump\t// in\n    tag_279:\n        /* \"#utility.yul\":4621:4835   */\n      swap3\n      swap2\n      pop\n      pop\n      jump\t// out\n        /* \"#utility.yul\":4841:4940   */\n    tag_173:\n        /* \"#utility.yul\":4893:4899   */\n      0x00\n        /* \"#utility.yul\":4927:4932   */\n      dup2\n        /* \"#utility.yul\":4921:4933   */\n      mload\n        /* \"#utility.yul\":4911:4933   */\n      swap1\n      pop\n        /* \"#utility.yul\":4841:4940   */\n      swap2\n      swap1\n      pop\n      jump\t// out\n        /* \"#utility.yul\":4946:5115   */\n    tag_174:\n        /* \"#utility.yul\":5030:5041   */\n      0x00\n        /* \"#utility.yul\":5064:5070   */\n      dup3\n        /* \"#utility.yul\":5059:5062   */\n      dup3\n        /* \"#utility.yul\":5052:5071   */\n      mstore\n        /* \"#utility.yul\":5104:5108   */\n      0x20\n        /* \"#utility.yul\":5099:5102   */\n      dup3\n        /* \"#utility.yul\":5095:5109   */\n      add\n        /* \"#utility.yul\":5080:5109   */\n      swap1\n      pop\n        /* \"#utility.yul\":4946:5115   */\n      swap3\n      swap2\n      pop\n      pop\n      jump\t// out\n        /* \"#utility.yul\":5121:5260   */\n    tag_175:\n        /* \"#utility.yul\":5210:5216   */\n      dup3\n        /* \"#utility.yul\":5205:5208   */\n      dup2\n        /* \"#utility.yul\":5200:5203   */\n      dup4\n        /* \"#utility.yul\":5194:5217   */\n      mcopy\n        /* \"#utility.yul\":5251:5252   */\n      0x00\n        /* \"#utility.yul\":5242:5248   */\n      dup4\n        /* \"#utility.yul\":5237:5240   */\n      dup4\n        /* \"#utility.yul\":5233:5249   */\n      add\n        /* \"#utility.yul\":5226:5253   */\n      mstore\n        /* \"#utility.yul\":5121:5260   */\n      pop\n      pop\n      pop\n      jump\t// out\n        /* \"#utility.yul\":5266:5643   */\n    tag_176:\n        /* \"#utility.yul\":5354:5357   */\n      0x00\n        /* \"#utility.yul\":5382:5421   */\n      tag_284\n        /* \"#utility.yul\":5415:5420   */\n      dup3\n        /* \"#utility.yul\":5382:5421   */\n      tag_173\n      jump\t// in\n    tag_284:\n        /* \"#utility.yul\":5437:5508   */\n      tag_285\n        /* \"#utility.yul\":5501:5507   */\n      dup2\n        /* \"#utility.yul\":5496:5499   */\n      dup6\n        /* \"#utility.yul\":5437:5508   */\n      tag_174\n      jump\t// in\n    tag_285:\n        /* \"#utility.yul\":5430:5508   */\n      swap4\n      pop\n        /* \"#utility.yul\":5517:5582   */\n      tag_286\n        /* \"#utility.yul\":5575:5581   */\n      dup2\n        /* \"#utility.yul\":5570:5573   */\n      dup6\n        /* \"#utility.yul\":5563:5567   */\n      0x20\n        /* \"#utility.yul\":5556:5561   */\n      dup7\n        /* \"#utility.yul\":5552:5568   */\n      add\n        /* \"#utility.yul\":5517:5582   */\n      tag_175\n      jump\t// in\n    tag_286:\n        /* \"#utility.yul\":5607:5636   */\n      tag_287\n        /* \"#utility.yul\":5629:5635   */\n      dup2\n        /* \"#utility.yul\":5607:5636   */\n      tag_161\n      jump\t// in\n    tag_287:\n        /* \"#utility.yul\":5602:5605   */\n      dup5\n        /* \"#utility.yul\":5598:5637   */\n      add\n        /* \"#utility.yul\":5591:5637   */\n      swap2\n      pop\n        /* \"#utility.yul\":5358:5643   */\n      pop\n        /* \"#utility.yul\":5266:5643   */\n      swap3\n      swap2\n      pop\n      pop\n      jump\t// out\n        /* \"#utility.yul\":5649:5962   */\n    tag_27:\n        /* \"#utility.yul\":5762:5766   */\n      0x00\n        /* \"#utility.yul\":5800:5802   */\n      0x20\n        /* \"#utility.yul\":5789:5798   */\n      dup3\n        /* \"#utility.yul\":5785:5803   */\n      add\n        /* \"#utility.yul\":5777:5803   */\n      swap1\n      pop\n        /* \"#utility.yul\":5849:5858   */\n      dup2\n        /* \"#utility.yul\":5843:5847   */\n      dup2\n        /* \"#utility.yul\":5839:5859   */\n      sub\n        /* \"#utility.yul\":5835:5836   */\n      0x00\n        /* \"#utility.yul\":5824:5833   */\n      dup4\n        /* \"#utility.yul\":5820:5837   */\n      add\n        /* \"#utility.yul\":5813:5860   */\n      mstore\n        /* \"#utility.yul\":5877:5955   */\n      tag_289\n        /* \"#utility.yul\":5950:5954   */\n      dup2\n        /* \"#utility.yul\":5941:5947   */\n      dup5\n        /* \"#utility.yul\":5877:5955   */\n      tag_176\n      jump\t// in\n    tag_289:\n        /* \"#utility.yul\":5869:5955   */\n      swap1\n      pop\n        /* \"#utility.yul\":5649:5962   */\n      swap3\n      swap2\n      pop\n      pop\n      jump\t// out\n        /* \"#utility.yul\":5968:6094   */\n    tag_177:\n        /* \"#utility.yul\":6005:6012   */\n      0x00\n        /* \"#utility.yul\":6045:6087   */\n      0xffffffffffffffffffffffffffffffffffffffff\n        /* \"#utility.yul\":6038:6043   */\n      dup3\n        /* \"#utility.yul\":6034:6088   */\n      and\n        /* \"#utility.yul\":6023:6088   */\n      swap1\n      pop\n        /* \"#utility.yul\":5968:6094   */\n      swap2\n      swap1\n      pop\n      jump\t// out\n        /* \"#utility.yul\":6100:6196   */\n    tag_178:\n        /* \"#utility.yul\":6137:6144   */\n      0x00\n        /* \"#utility.yul\":6166:6190   */\n      tag_292\n        /* \"#utility.yul\":6184:6189   */\n      dup3\n        /* \"#utility.yul\":6166:6190   */\n      tag_177\n      jump\t// in\n    tag_292:\n        /* \"#utility.yul\":6155:6190   */\n      swap1\n      pop\n        /* \"#utility.yul\":6100:6196   */\n      swap2\n      swap1\n      pop\n      jump\t// out\n        /* \"#utility.yul\":6202:6320   */\n    tag_179:\n        /* \"#utility.yul\":6289:6313   */\n      tag_294\n        /* \"#utility.yul\":6307:6312   */\n      dup2\n        /* \"#utility.yul\":6289:6313   */\n      tag_178\n      jump\t// in\n    tag_294:\n        /* \"#utility.yul\":6284:6287   */\n      dup3\n        /* \"#utility.yul\":6277:6314   */\n      mstore\n        /* \"#utility.yul\":6202:6320   */\n      pop\n      pop\n      jump\t// out\n        /* \"#utility.yul\":6326:6548   */\n    tag_31:\n        /* \"#utility.yul\":6419:6423   */\n      0x00\n        /* \"#utility.yul\":6457:6459   */\n      0x20\n        /* \"#utility.yul\":6446:6455   */\n      dup3\n        /* \"#utility.yul\":6442:6460   */\n      add\n        /* \"#utility.yul\":6434:6460   */\n      swap1\n      pop\n        /* \"#utility.yul\":6470:6541   */\n      tag_296\n        /* \"#utility.yul\":6538:6539   */\n      0x00\n        /* \"#utility.yul\":6527:6536   */\n      dup4\n        /* \"#utility.yul\":6523:6540   */\n      add\n        /* \"#utility.yul\":6514:6520   */\n      dup5\n        /* \"#utility.yul\":6470:6541   */\n      tag_179\n      jump\t// in\n    tag_296:\n        /* \"#utility.yul\":6326:6548   */\n      swap3\n      swap2\n      pop\n      pop\n      jump\t// out\n        /* \"#utility.yul\":6554:6678   */\n    tag_180:\n        /* \"#utility.yul\":6631:6637   */\n      0x00\n        /* \"#utility.yul\":6665:6670   */\n      dup2\n        /* \"#utility.yul\":6659:6671   */\n      mload\n        /* \"#utility.yul\":6649:6671   */\n      swap1\n      pop\n        /* \"#utility.yul\":6554:6678   */\n      swap2\n      swap1\n      pop\n      jump\t// out\n        /* \"#utility.yul\":6684:6878   */\n    tag_181:\n        /* \"#utility.yul\":6793:6804   */\n      0x00\n        /* \"#utility.yul\":6827:6833   */\n      dup3\n        /* \"#utility.yul\":6822:6825   */\n      dup3\n        /* \"#utility.yul\":6815:6834   */\n      mstore\n        /* \"#utility.yul\":6867:6871   */\n      0x20\n        /* \"#utility.yul\":6862:6865   */\n      dup3\n        /* \"#utility.yul\":6858:6872   */\n      add\n        /* \"#utility.yul\":6843:6872   */\n      swap1\n      pop\n        /* \"#utility.yul\":6684:6878   */\n      swap3\n      swap2\n      pop\n      pop\n      jump\t// out\n        /* \"#utility.yul\":6884:7026   */\n    tag_182:\n        /* \"#utility.yul\":6961:6965   */\n      0x00\n        /* \"#utility.yul\":6984:6987   */\n      dup2\n        /* \"#utility.yul\":6976:6987   */\n      swap1\n      pop\n        /* \"#utility.yul\":7014:7018   */\n      0x20\n        /* \"#utility.yul\":7009:7012   */\n      dup3\n        /* \"#utility.yul\":7005:7019   */\n      add\n        /* \"#utility.yul\":6997:7019   */\n      swap1\n      pop\n        /* \"#utility.yul\":6884:7026   */\n      swap2\n      swap1\n      pop\n      jump\t// out\n        /* \"#utility.yul\":7032:7191   */\n    tag_183:\n        /* \"#utility.yul\":7106:7117   */\n      0x00\n        /* \"#utility.yul\":7140:7146   */\n      dup3\n        /* \"#utility.yul\":7135:7138   */\n      dup3\n        /* \"#utility.yul\":7128:7147   */\n      mstore\n        /* \"#utility.yul\":7180:7184   */\n      0x20\n        /* \"#utility.yul\":7175:7178   */\n      dup3\n        /* \"#utility.yul\":7171:7185   */\n      add\n        /* \"#utility.yul\":7156:7185   */\n      swap1\n      pop\n        /* \"#utility.yul\":7032:7191   */\n      swap3\n      swap2\n      pop\n      pop\n      jump\t// out\n        /* \"#utility.yul\":7197:7554   */\n    tag_184:\n        /* \"#utility.yul\":7275:7278   */\n      0x00\n        /* \"#utility.yul\":7303:7342   */\n      tag_302\n        /* \"#utility.yul\":7336:7341   */\n      dup3\n        /* \"#utility.yul\":7303:7342   */\n      tag_173\n      jump\t// in\n    tag_302:\n        /* \"#utility.yul\":7358:7419   */\n      tag_303\n        /* \"#utility.yul\":7412:7418   */\n      dup2\n        /* \"#utility.yul\":7407:7410   */\n      dup6\n        /* \"#utility.yul\":7358:7419   */\n      tag_183\n      jump\t// in\n    tag_303:\n        /* \"#utility.yul\":7351:7419   */\n      swap4\n      pop\n        /* \"#utility.yul\":7428:7493   */\n      tag_304\n        /* \"#utility.yul\":7486:7492   */\n      dup2\n        /* \"#utility.yul\":7481:7484   */\n      dup6\n        /* \"#utility.yul\":7474:7478   */\n      0x20\n        /* \"#utility.yul\":7467:7472   */\n      dup7\n        /* \"#utility.yul\":7463:7479   */\n      add\n        /* \"#utility.yul\":7428:7493   */\n      tag_175\n      jump\t// in\n    tag_304:\n        /* \"#utility.yul\":7518:7547   */\n      tag_305\n        /* \"#utility.yul\":7540:7546   */\n      dup2\n        /* \"#utility.yul\":7518:7547   */\n      tag_161\n      jump\t// in\n    tag_305:\n        /* \"#utility.yul\":7513:7516   */\n      dup5\n        /* \"#utility.yul\":7509:7548   */\n      add\n        /* \"#utility.yul\":7502:7548   */\n      swap2\n      pop\n        /* \"#utility.yul\":7279:7554   */\n      pop\n        /* \"#utility.yul\":7197:7554   */\n      swap3\n      swap2\n      pop\n      pop\n      jump\t// out\n        /* \"#utility.yul\":7560:7756   */\n    tag_185:\n        /* \"#utility.yul\":7649:7659   */\n      0x00\n        /* \"#utility.yul\":7684:7750   */\n      tag_307\n        /* \"#utility.yul\":7746:7749   */\n      dup4\n        /* \"#utility.yul\":7738:7744   */\n      dup4\n        /* \"#utility.yul\":7684:7750   */\n      tag_184\n      jump\t// in\n    tag_307:\n        /* \"#utility.yul\":7670:7750   */\n      swap1\n      pop\n        /* \"#utility.yul\":7560:7756   */\n      swap3\n      swap2\n      pop\n      pop\n      jump\t// out\n        /* \"#utility.yul\":7762:7885   */\n    tag_186:\n        /* \"#utility.yul\":7842:7846   */\n      0x00\n        /* \"#utility.yul\":7874:7878   */\n      0x20\n        /* \"#utility.yul\":7869:7872   */\n      dup3\n        /* \"#utility.yul\":7865:7879   */\n      add\n        /* \"#utility.yul\":7857:7879   */\n      swap1\n      pop\n        /* \"#utility.yul\":7762:7885   */\n      swap2\n      swap1\n      pop\n      jump\t// out\n        /* \"#utility.yul\":7919:8910   */\n    tag_187:\n        /* \"#utility.yul\":8058:8061   */\n      0x00\n        /* \"#utility.yul\":8087:8151   */\n      tag_310\n        /* \"#utility.yul\":8145:8150   */\n      dup3\n        /* \"#utility.yul\":8087:8151   */\n      tag_180\n      jump\t// in\n    tag_310:\n        /* \"#utility.yul\":8167:8263   */\n      tag_311\n        /* \"#utility.yul\":8256:8262   */\n      dup2\n        /* \"#utility.yul\":8251:8254   */\n      dup6\n        /* \"#utility.yul\":8167:8263   */\n      tag_181\n      jump\t// in\n    tag_311:\n        /* \"#utility.yul\":8160:8263   */\n      swap4\n      pop\n        /* \"#utility.yul\":8289:8292   */\n      dup4\n        /* \"#utility.yul\":8334:8338   */\n      0x20\n        /* \"#utility.yul\":8326:8332   */\n      dup3\n        /* \"#utility.yul\":8322:8339   */\n      mul\n        /* \"#utility.yul\":8317:8320   */\n      dup6\n        /* \"#utility.yul\":8313:8340   */\n      add\n        /* \"#utility.yul\":8364:8430   */\n      tag_312\n        /* \"#utility.yul\":8424:8429   */\n      dup6\n        /* \"#utility.yul\":8364:8430   */\n      tag_182\n      jump\t// in\n    tag_312:\n        /* \"#utility.yul\":8453:8460   */\n      dup1\n        /* \"#utility.yul\":8484:8485   */\n      0x00\n        /* \"#utility.yul\":8469:8865   */\n    tag_313:\n        /* \"#utility.yul\":8494:8500   */\n      dup6\n        /* \"#utility.yul\":8491:8492   */\n      dup2\n        /* \"#utility.yul\":8488:8501   */\n      lt\n        /* \"#utility.yul\":8469:8865   */\n      iszero\n      tag_315\n      jumpi\n        /* \"#utility.yul\":8565:8574   */\n      dup5\n        /* \"#utility.yul\":8559:8563   */\n      dup5\n        /* \"#utility.yul\":8555:8575   */\n      sub\n        /* \"#utility.yul\":8550:8553   */\n      dup10\n        /* \"#utility.yul\":8543:8576   */\n      mstore\n        /* \"#utility.yul\":8616:8622   */\n      dup2\n        /* \"#utility.yul\":8610:8623   */\n      mload\n        /* \"#utility.yul\":8644:8728   */\n      tag_316\n        /* \"#utility.yul\":8723:8727   */\n      dup6\n        /* \"#utility.yul\":8708:8721   */\n      dup3\n        /* \"#utility.yul\":8644:8728   */\n      tag_185\n      jump\t// in\n    tag_316:\n        /* \"#utility.yul\":8636:8728   */\n      swap5\n      pop\n        /* \"#utility.yul\":8751:8821   */\n      tag_317\n        /* \"#utility.yul\":8814:8820   */\n      dup4\n        /* \"#utility.yul\":8751:8821   */\n      tag_186\n      jump\t// in\n    tag_317:\n        /* \"#utility.yul\":8741:8821   */\n      swap3\n      pop\n        /* \"#utility.yul\":8850:8854   */\n      0x20\n        /* \"#utility.yul\":8845:8848   */\n      dup11\n        /* \"#utility.yul\":8841:8855   */\n      add\n        /* \"#utility.yul\":8834:8855   */\n      swap10\n      pop\n        /* \"#utility.yul\":8529:8865   */\n      pop\n        /* \"#utility.yul\":8516:8517   */\n      0x01\n        /* \"#utility.yul\":8513:8514   */\n      dup2\n        /* \"#utility.yul\":8509:8518   */\n      add\n        /* \"#utility.yul\":8504:8518   */\n      swap1\n      pop\n        /* \"#utility.yul\":8469:8865   */\n      jump(tag_313)\n    tag_315:\n        /* \"#utility.yul\":8473:8487   */\n      pop\n        /* \"#utility.yul\":8881:8885   */\n      dup3\n        /* \"#utility.yul\":8874:8885   */\n      swap8\n      pop\n        /* \"#utility.yul\":8901:8904   */\n      dup8\n        /* \"#utility.yul\":8894:8904   */\n      swap6\n      pop\n        /* \"#utility.yul\":8063:8910   */\n      pop\n      pop\n      pop\n      pop\n      pop\n        /* \"#utility.yul\":7919:8910   */\n      swap3\n      swap2\n      pop\n      pop\n      jump\t// out\n        /* \"#utility.yul\":8916:9329   */\n    tag_38:\n        /* \"#utility.yul\":9079:9083   */\n      0x00\n        /* \"#utility.yul\":9117:9119   */\n      0x20\n        /* \"#utility.yul\":9106:9115   */\n      dup3\n        /* \"#utility.yul\":9102:9120   */\n      add\n        /* \"#utility.yul\":9094:9120   */\n      swap1\n      pop\n        /* \"#utility.yul\":9166:9175   */\n      dup2\n        /* \"#utility.yul\":9160:9164   */\n      dup2\n        /* \"#utility.yul\":9156:9176   */\n      sub\n        /* \"#utility.yul\":9152:9153   */\n      0x00\n        /* \"#utility.yul\":9141:9150   */\n      dup4\n        /* \"#utility.yul\":9137:9154   */\n      add\n        /* \"#utility.yul\":9130:9177   */\n      mstore\n        /* \"#utility.yul\":9194:9322   */\n      tag_319\n        /* \"#utility.yul\":9317:9321   */\n      dup2\n        /* \"#utility.yul\":9308:9314   */\n      dup5\n        /* \"#utility.yul\":9194:9322   */\n      tag_187\n      jump\t// in\n    tag_319:\n        /* \"#utility.yul\":9186:9322   */\n      swap1\n      pop\n        /* \"#utility.yul\":8916:9329   */\n      swap3\n      swap2\n      pop\n      pop\n      jump\t// out\n        /* \"#utility.yul\":9335:9483   */\n    tag_188:\n        /* \"#utility.yul\":9437:9448   */\n      0x00\n        /* \"#utility.yul\":9474:9477   */\n      dup2\n        /* \"#utility.yul\":9459:9477   */\n      swap1\n      pop\n        /* \"#utility.yul\":9335:9483   */\n      swap3\n      swap2\n      pop\n      pop\n      jump\t// out\n        /* \"#utility.yul\":9489:9879   */\n    tag_189:\n        /* \"#utility.yul\":9595:9598   */\n      0x00\n        /* \"#utility.yul\":9623:9662   */\n      tag_322\n        /* \"#utility.yul\":9656:9661   */\n      dup3\n        /* \"#utility.yul\":9623:9662   */\n      tag_173\n      jump\t// in\n    tag_322:\n        /* \"#utility.yul\":9678:9767   */\n      tag_323\n        /* \"#utility.yul\":9760:9766   */\n      dup2\n        /* \"#utility.yul\":9755:9758   */\n      dup6\n        /* \"#utility.yul\":9678:9767   */\n      tag_188\n      jump\t// in\n    tag_323:\n        /* \"#utility.yul\":9671:9767   */\n      swap4\n      pop\n        /* \"#utility.yul\":9776:9841   */\n      tag_324\n        /* \"#utility.yul\":9834:9840   */\n      dup2\n        /* \"#utility.yul\":9829:9832   */\n      dup6\n        /* \"#utility.yul\":9822:9826   */\n      0x20\n        /* \"#utility.yul\":9815:9820   */\n      dup7\n        /* \"#utility.yul\":9811:9827   */\n      add\n        /* \"#utility.yul\":9776:9841   */\n      tag_175\n      jump\t// in\n    tag_324:\n        /* \"#utility.yul\":9866:9872   */\n      dup1\n        /* \"#utility.yul\":9861:9864   */\n      dup5\n        /* \"#utility.yul\":9857:9873   */\n      add\n        /* \"#utility.yul\":9850:9873   */\n      swap2\n      pop\n        /* \"#utility.yul\":9599:9879   */\n      pop\n        /* \"#utility.yul\":9489:9879   */\n      swap3\n      swap2\n      pop\n      pop\n      jump\t// out\n        /* \"#utility.yul\":9885:9964   */\n    tag_190:\n        /* \"#utility.yul\":9924:9931   */\n      0x00\n        /* \"#utility.yul\":9953:9958   */\n      dup2\n        /* \"#utility.yul\":9942:9958   */\n      swap1\n      pop\n        /* \"#utility.yul\":9885:9964   */\n      swap2\n      swap1\n      pop\n      jump\t// out\n        /* \"#utility.yul\":9970:10127   */\n    tag_191:\n        /* \"#utility.yul\":10075:10120   */\n      tag_327\n        /* \"#utility.yul\":10095:10119   */\n      tag_328\n        /* \"#utility.yul\":10113:10118   */\n      dup3\n        /* \"#utility.yul\":10095:10119   */\n      tag_168\n      jump\t// in\n    tag_328:\n        /* \"#utility.yul\":10075:10120   */\n      tag_190\n      jump\t// in\n    tag_327:\n        /* \"#utility.yul\":10070:10073   */\n      dup3\n        /* \"#utility.yul\":10063:10121   */\n      mstore\n        /* \"#utility.yul\":9970:10127   */\n      pop\n      pop\n      jump\t// out\n        /* \"#utility.yul\":10133:10709   */\n    tag_41:\n        /* \"#utility.yul\":10341:10344   */\n      0x00\n        /* \"#utility.yul\":10363:10458   */\n      tag_330\n        /* \"#utility.yul\":10454:10457   */\n      dup3\n        /* \"#utility.yul\":10445:10451   */\n      dup7\n        /* \"#utility.yul\":10363:10458   */\n      tag_189\n      jump\t// in\n    tag_330:\n        /* \"#utility.yul\":10356:10458   */\n      swap2\n      pop\n        /* \"#utility.yul\":10468:10543   */\n      tag_331\n        /* \"#utility.yul\":10539:10542   */\n      dup3\n        /* \"#utility.yul\":10530:10536   */\n      dup6\n        /* \"#utility.yul\":10468:10543   */\n      tag_191\n      jump\t// in\n    tag_331:\n        /* \"#utility.yul\":10568:10570   */\n      0x20\n        /* \"#utility.yul\":10563:10566   */\n      dup3\n        /* \"#utility.yul\":10559:10571   */\n      add\n        /* \"#utility.yul\":10552:10571   */\n      swap2\n      pop\n        /* \"#utility.yul\":10588:10683   */\n      tag_332\n        /* \"#utility.yul\":10679:10682   */\n      dup3\n        /* \"#utility.yul\":10670:10676   */\n      dup5\n        /* \"#utility.yul\":10588:10683   */\n      tag_189\n      jump\t// in\n    tag_332:\n        /* \"#utility.yul\":10581:10683   */\n      swap2\n      pop\n        /* \"#utility.yul\":10700:10703   */\n      dup2\n        /* \"#utility.yul\":10693:10703   */\n      swap1\n      pop\n        /* \"#utility.yul\":10133:10709   */\n      swap5\n      swap4\n      pop\n      pop\n      pop\n      pop\n      jump\t// out\n        /* \"#utility.yul\":10715:10990   */\n    tag_43:\n        /* \"#utility.yul\":10847:10850   */\n      0x00\n        /* \"#utility.yul\":10869:10964   */\n      tag_334\n        /* \"#utility.yul\":10960:10963   */\n      dup3\n        /* \"#utility.yul\":10951:10957   */\n      dup5\n        /* \"#utility.yul\":10869:10964   */\n      tag_189\n      jump\t// in\n    tag_334:\n        /* \"#utility.yul\":10862:10964   */\n      swap2\n      pop\n        /* \"#utility.yul\":10981:10984   */\n      dup2\n        /* \"#utility.yul\":10974:10984   */\n      swap1\n      pop\n        /* \"#utility.yul\":10715:10990   */\n      swap3\n      swap2\n      pop\n      pop\n      jump\t// out\n        /* \"#utility.yul\":10996:11176   */\n    tag_192:\n        /* \"#utility.yul\":11044:11121   */\n      0x4e487b7100000000000000000000000000000000000000000000000000000000\n        /* \"#utility.yul\":11041:11042   */\n      0x00\n        /* \"#utility.yul\":11034:11122   */\n      mstore\n        /* \"#utility.yul\":11141:11145   */\n      0x22\n        /* \"#utility.yul\":11138:11139   */\n      0x04\n        /* \"#utility.yul\":11131:11146   */\n      mstore\n        /* \"#utility.yul\":11165:11169   */\n      0x24\n        /* \"#utility.yul\":11162:11163   */\n      0x00\n        /* \"#utility.yul\":11155:11170   */\n      revert\n        /* \"#utility.yul\":11182:11502   */\n    tag_79:\n        /* \"#utility.yul\":11226:11232   */\n      0x00\n        /* \"#utility.yul\":11263:11264   */\n      0x02\n        /* \"#utility.yul\":11257:11261   */\n      dup3\n        /* \"#utility.yul\":11253:11265   */\n      div\n        /* \"#utility.yul\":11243:11265   */\n      swap1\n      pop\n        /* \"#utility.yul\":11310:11311   */\n      0x01\n        /* \"#utility.yul\":11304:11308   */\n      dup3\n        /* \"#utility.yul\":11300:11312   */\n      and\n        /* \"#utility.yul\":11331:11349   */\n      dup1\n        /* \"#utility.yul\":11321:11402   */\n      tag_337\n      jumpi\n        /* \"#utility.yul\":11387:11391   */\n      0x7f\n        /* \"#utility.yul\":11379:11385   */\n      dup3\n        /* \"#utility.yul\":11375:11392   */\n      and\n        /* \"#utility.yul\":11365:11392   */\n      swap2\n      pop\n        /* \"#utility.yul\":11321:11402   */\n    tag_337:\n        /* \"#utility.yul\":11449:11451   */\n      0x20\n        /* \"#utility.yul\":11441:11447   */\n      dup3\n        /* \"#utility.yul\":11438:11452   */\n      lt\n        /* \"#utility.yul\":11418:11436   */\n      dup2\n        /* \"#utility.yul\":11415:11453   */\n      sub\n        /* \"#utility.yul\":11412:11496   */\n      tag_338\n      jumpi\n        /* \"#utility.yul\":11468:11486   */\n      tag_339\n      tag_192\n      jump\t// in\n    tag_339:\n        /* \"#utility.yul\":11412:11496   */\n    tag_338:\n        /* \"#utility.yul\":11233:11502   */\n      pop\n        /* \"#utility.yul\":11182:11502   */\n      swap2\n      swap1\n      pop\n      jump\t// out\n        /* \"#utility.yul\":11508:11649   */\n    tag_193:\n        /* \"#utility.yul\":11557:11561   */\n      0x00\n        /* \"#utility.yul\":11580:11583   */\n      dup2\n        /* \"#utility.yul\":11572:11583   */\n      swap1\n      pop\n        /* \"#utility.yul\":11603:11606   */\n      dup2\n        /* \"#utility.yul\":11600:11601   */\n      0x00\n        /* \"#utility.yul\":11593:11607   */\n      mstore\n        /* \"#utility.yul\":11637:11641   */\n      0x20\n        /* \"#utility.yul\":11634:11635   */\n      0x00\n        /* \"#utility.yul\":11624:11642   */\n      keccak256\n        /* \"#utility.yul\":11616:11642   */\n      swap1\n      pop\n        /* \"#utility.yul\":11508:11649   */\n      swap2\n      swap1\n      pop\n      jump\t// out\n        /* \"#utility.yul\":11655:11748   */\n    tag_194:\n        /* \"#utility.yul\":11692:11698   */\n      0x00\n        /* \"#utility.yul\":11739:11741   */\n      0x20\n        /* \"#utility.yul\":11734:11736   */\n      0x1f\n        /* \"#utility.yul\":11727:11732   */\n      dup4\n        /* \"#utility.yul\":11723:11737   */\n      add\n        /* \"#utility.yul\":11719:11742   */\n      div\n        /* \"#utility.yul\":11709:11742   */\n      swap1\n      pop\n        /* \"#utility.yul\":11655:11748   */\n      swap2\n      swap1\n      pop\n      jump\t// out\n        /* \"#utility.yul\":11754:11861   */\n    tag_195:\n        /* \"#utility.yul\":11798:11806   */\n      0x00\n        /* \"#utility.yul\":11848:11853   */\n      dup3\n        /* \"#utility.yul\":11842:11846   */\n      dup3\n        /* \"#utility.yul\":11838:11854   */\n      shl\n        /* \"#utility.yul\":11817:11854   */\n      swap1\n      pop\n        /* \"#utility.yul\":11754:11861   */\n      swap3\n      swap2\n      pop\n      pop\n      jump\t// out\n        /* \"#utility.yul\":11867:12260   */\n    tag_196:\n        /* \"#utility.yul\":11936:11942   */\n      0x00\n        /* \"#utility.yul\":11986:11987   */\n      0x08\n        /* \"#utility.yul\":11974:11984   */\n      dup4\n        /* \"#utility.yul\":11970:11988   */\n      mul\n        /* \"#utility.yul\":12009:12106   */\n      tag_344\n        /* \"#utility.yul\":12039:12105   */\n      0xffffffffffffffffffffffffffffffffffffffffffffffffffffffffffffffff\n        /* \"#utility.yul\":12028:12037   */\n      dup3\n        /* \"#utility.yul\":12009:12106   */\n      tag_195\n      jump\t// in\n    tag_344:\n        /* \"#utility.yul\":12127:12166   */\n      tag_345\n        /* \"#utility.yul\":12157:12165   */\n      dup7\n        /* \"#utility.yul\":12146:12155   */\n      dup4\n        /* \"#utility.yul\":12127:12166   */\n      tag_195\n      jump\t// in\n    tag_345:\n        /* \"#utility.yul\":12115:12166   */\n      swap6\n      pop\n        /* \"#utility.yul\":12199:12203   */\n      dup1\n        /* \"#utility.yul\":12195:12204   */\n      not\n        /* \"#utility.yul\":12188:12193   */\n      dup5\n        /* \"#utility.yul\":12184:12205   */\n      and\n        /* \"#utility.yul\":12175:12205   */\n      swap4\n      pop\n        /* \"#utility.yul\":12248:12252   */\n      dup1\n        /* \"#utility.yul\":12238:12246   */\n      dup7\n        /* \"#utility.yul\":12234:12253   */\n      and\n        /* \"#utility.yul\":12227:12232   */\n      dup5\n        /* \"#utility.yul\":12224:12254   */\n      or\n        /* \"#utility.yul\":12214:12254   */\n      swap3\n      pop\n        /* \"#utility.yul\":11943:12260   */\n      pop\n      pop\n        /* \"#utility.yul\":11867:12260   */\n      swap4\n      swap3\n      pop\n      pop\n      pop\n      jump\t// out\n        /* \"#utility.yul\":12266:12326   */\n    tag_197:\n        /* \"#utility.yul\":12294:12297   */\n      0x00\n        /* \"#utility.yul\":12315:12320   */\n      dup2\n        /* \"#utility.yul\":12308:12320   */\n      swap1\n      pop\n        /* \"#utility.yul\":12266:12326   */\n      swap2\n      swap1\n      pop\n      jump\t// out\n        /* \"#utility.yul\":12332:12474   */\n    tag_198:\n        /* \"#utility.yul\":12382:12391   */\n      0x00\n        /* \"#utility.yul\":12415:12468   */\n      tag_348\n        /* \"#utility.yul\":12433:12467   */\n      tag_349\n        /* \"#utility.yul\":12442:12466   */\n      tag_350\n        /* \"#utility.yul\":12460:12465   */\n      dup5\n        /* \"#utility.yul\":12442:12466   */\n      tag_168\n      jump\t// in\n    tag_350:\n        /* \"#utility.yul\":12433:12467   */\n      tag_197\n      jump\t// in\n    tag_349:\n        /* \"#utility.yul\":12415:12468   */\n      tag_168\n      jump\t// in\n    tag_348:\n        /* \"#utility.yul\":12402:12468   */\n      swap1\n      pop\n        /* \"#utility.yul\":12332:12474   */\n      swap2\n      swap1\n      pop\n      jump\t// out\n        /* \"#utility.yul\":12480:12555   */\n    tag_199:\n        /* \"#utility.yul\":12523:12526   */\n      0x00\n        /* \"#utility.yul\":12544:12549   */\n      dup2\n        /* \"#utility.yul\":12537:12549   */\n      swap1\n      pop\n        /* \"#utility.yul\":12480:12555   */\n      swap2\n      swap1\n      pop\n      jump\t// out\n        /* \"#utility.yul\":12561:12830   */\n    tag_200:\n        /* \"#utility.yul\":12671:12710   */\n      tag_353\n        /* \"#utility.yul\":12702:12709   */\n      dup4\n        /* \"#utility.yul\":12671:12710   */\n      tag_198\n      jump\t// in\n    tag_353:\n        /* \"#utility.yul\":12732:12823   */\n      tag_354\n        /* \"#utility.yul\":12781:12822   */\n      tag_355\n        /* \"#utility.yul\":12805:12821   */\n      dup3\n        /* \"#utility.yul\":12781:12822   */\n      tag_199\n      jump\t// in\n    tag_355:\n        /* \"#utility.yul\":12773:12779   */\n      dup5\n        /* \"#utility.yul\":12766:12770   */\n      dup5\n        /* \"#utility.yul\":12760:12771   */\n      sload\n        /* \"#utility.yul\":12732:12823   */\n      tag_196\n      jump\t// in\n    tag_354:\n        /* \"#utility.yul\":12726:12730   */\n      dup3\n        /* \"#utility.yul\":12719:12824   */\n      sstore\n        /* \"#utility.yul\":12637:12830   */\n      pop\n        /* \"#utility.yul\":12561:12830   */\n      pop\n      pop\n      pop\n      jump\t// out\n        /* \"#utility.yul\":12836:12909   */\n    tag_201:\n        /* \"#utility.yul\":12881:12884   */\n      0x00\n        /* \"#utility.yul\":12902:12903   */\n      0x00\n        /* \"#utility.yul\":12895:12903   */\n      swap1\n      pop\n        /* \"#utility.yul\":12836:12909   */\n      swap1\n      jump\t// out\n        /* \"#utility.yul\":12915:13104   */\n    tag_202:\n        /* \"#utility.yul\":12992:13024   */\n      tag_358\n      tag_201\n      jump\t// in\n    tag_358:\n        /* \"#utility.yul\":13033:13098   */\n      tag_359\n        /* \"#utility.yul\":13091:13097   */\n      dup2\n        /* \"#utility.yul\":13083:13089   */\n      dup5\n        /* \"#utility.yul\":13077:13081   */\n      dup5\n        /* \"#utility.yul\":13033:13098   */\n      tag_200\n      jump\t// in\n    tag_359:\n        /* \"#utility.yul\":12968:13104   */\n      pop\n        /* \"#utility.yul\":12915:13104   */\n      pop\n      pop\n      jump\t// out\n        /* \"#utility.yul\":13110:13296   */\n    tag_203:\n        /* \"#utility.yul\":13170:13290   */\n    tag_361:\n        /* \"#utility.yul\":13187:13190   */\n      dup2\n        /* \"#utility.yul\":13180:13185   */\n      dup2\n        /* \"#utility.yul\":13177:13191   */\n      lt\n        /* \"#utility.yul\":13170:13290   */\n      iszero\n      tag_363\n      jumpi\n        /* \"#utility.yul\":13241:13280   */\n      tag_364\n        /* \"#utility.yul\":13278:13279   */\n      0x00\n        /* \"#utility.yul\":13271:13276   */\n      dup3\n        /* \"#utility.yul\":13241:13280   */\n      tag_202\n      jump\t// in\n    tag_364:\n        /* \"#utility.yul\":13214:13215   */\n      0x01\n        /* \"#utility.yul\":13207:13212   */\n      dup2\n        /* \"#utility.yul\":13203:13216   */\n      add\n        /* \"#utility.yul\":13194:13216   */\n      swap1\n      pop\n        /* \"#utility.yul\":13170:13290   */\n      jump(tag_361)\n    tag_363:\n        /* \"#utility.yul\":13110:13296   */\n      pop\n      pop\n      jump\t// out\n        /* \"#utility.yul\":13302:13845   */\n    tag_204:\n        /* \"#utility.yul\":13403:13405   */\n      0x1f\n        /* \"#utility.yul\":13398:13401   */\n      dup3\n        /* \"#utility.yul\":13395:13406   */\n      gt\n        /* \"#utility.yul\":13392:13838   */\n      iszero\n      tag_366\n      jumpi\n        /* \"#utility.yul\":13437:13475   */\n      tag_367\n        /* \"#utility.yul\":13469:13474   */\n      dup2\n        /* \"#utility.yul\":13437:13475   */\n      tag_193\n      jump\t// in\n    tag_367:\n        /* \"#utility.yul\":13521:13550   */\n      tag_368\n        /* \"#utility.yul\":13539:13549   */\n      dup5\n        /* \"#utility.yul\":13521:13550   */\n      tag_194\n      jump\t// in\n    tag_368:\n        /* \"#utility.yul\":13511:13519   */\n      dup2\n        /* \"#utility.yul\":13507:13551   */\n      add\n        /* \"#utility.yul\":13704:13706   */\n      0x20\n        /* \"#utility.yul\":13692:13702   */\n      dup6\n        /* \"#utility.yul\":13689:13707   */\n      lt\n        /* \"#utility.yul\":13686:13735   */\n      iszero\n      tag_369\n      jumpi\n        /* \"#utility.yul\":13725:13733   */\n      dup2\n        /* \"#utility.yul\":13710:13733   */\n      swap1\n      pop\n        /* \"#utility.yul\":13686:13735   */\n    tag_369:\n        /* \"#utility.yul\":13748:13828   */\n      tag_370\n        /* \"#utility.yul\":13804:13826   */\n      tag_371\n        /* \"#utility.yul\":13822:13825   */\n      dup6\n        /* \"#utility.yul\":13804:13826   */\n      tag_194\n      jump\t// in\n    tag_371:\n        /* \"#utility.yul\":13794:13802   */\n      dup4\n        /* \"#utility.yul\":13790:13827   */\n      add\n        /* \"#utility.yul\":13777:13788   */\n      dup3\n        /* \"#utility.yul\":13748:13828   */\n      tag_203\n      jump\t// in\n    tag_370:\n        /* \"#utility.yul\":13407:13838   */\n      pop\n      pop\n        /* \"#utility.yul\":13392:13838   */\n    tag_366:\n        /* \"#utility.yul\":13302:13845   */\n      pop\n      pop\n      pop\n      jump\t// out\n        /* \"#utility.yul\":13851:13968   */\n    tag_205:\n        /* \"#utility.yul\":13905:13913   */\n      0x00\n        /* \"#utility.yul\":13955:13960   */\n      dup3\n        /* \"#utility.yul\":13949:13953   */\n      dup3\n        /* \"#utility.yul\":13945:13961   */\n      shr\n        /* \"#utility.yul\":13924:13961   */\n      swap1\n      pop\n        /* \"#utility.yul\":13851:13968   */\n      swap3\n      swap2\n      pop\n      pop\n      jump\t// out\n        /* \"#utility.yul\":13974:14143   */\n    tag_206:\n        /* \"#utility.yul\":14018:14024   */\n      0x00\n        /* \"#utility.yul\":14051:14102   */\n      tag_374\n        /* \"#utility.yul\":14099:14100   */\n      0x00\n        /* \"#utility.yul\":14095:14101   */\n      not\n        /* \"#utility.yul\":14087:14092   */\n      dup5\n        /* \"#utility.yul\":14084:14085   */\n      0x08\n        /* \"#utility.yul\":14080:14093   */\n      mul\n        /* \"#utility.yul\":14051:14102   */\n      tag_205\n      jump\t// in\n    tag_374:\n        /* \"#utility.yul\":14047:14103   */\n      not\n        /* \"#utility.yul\":14132:14136   */\n      dup1\n        /* \"#utility.yul\":14126:14130   */\n      dup4\n        /* \"#utility.yul\":14122:14137   */\n      and\n        /* \"#utility.yul\":14112:14137   */\n      swap2\n      pop\n        /* \"#utility.yul\":14025:14143   */\n      pop\n        /* \"#utility.yul\":13974:14143   */\n      swap3\n      swap2\n      pop\n      pop\n      jump\t// out\n        /* \"#utility.yul\":14148:14443   */\n    tag_207:\n        /* \"#utility.yul\":14224:14228   */\n      0x00\n        /* \"#utility.yul\":14370:14399   */\n      tag_376\n        /* \"#utility.yul\":14395:14398   */\n      dup4\n        /* \"#utility.yul\":14389:14393   */\n      dup4\n        /* \"#utility.yul\":14370:14399   */\n      tag_206\n      jump\t// in\n    tag_376:\n        /* \"#utility.yul\":14362:14399   */\n      swap2\n      pop\n        /* \"#utility.yul\":14432:14435   */\n      dup3\n        /* \"#utility.yul\":14429:14430   */\n      0x02\n        /* \"#utility.yul\":14425:14436   */\n      mul\n        /* \"#utility.yul\":14419:14423   */\n      dup3\n        /* \"#utility.yul\":14416:14437   */\n      or\n        /* \"#utility.yul\":14408:14437   */\n      swap1\n      pop\n        /* \"#utility.yul\":14148:14443   */\n      swap3\n      swap2\n      pop\n      pop\n      jump\t// out\n        /* \"#utility.yul\":14448:15843   */\n    tag_46:\n        /* \"#utility.yul\":14565:14602   */\n      tag_378\n        /* \"#utility.yul\":14598:14601   */\n      dup3\n        /* \"#utility.yul\":14565:14602   */\n      tag_173\n      jump\t// in\n    tag_378:\n        /* \"#utility.yul\":14667:14685   */\n      0xffffffffffffffff\n        /* \"#utility.yul\":14659:14665   */\n      dup2\n        /* \"#utility.yul\":14656:14686   */\n      gt\n        /* \"#utility.yul\":14653:14709   */\n      iszero\n      tag_379\n      jumpi\n        /* \"#utility.yul\":14689:14707   */\n      tag_380\n      tag_141\n      jump\t// in\n    tag_380:\n        /* \"#utility.yul\":14653:14709   */\n    tag_379:\n        /* \"#utility.yul\":14733:14771   */\n      tag_381\n        /* \"#utility.yul\":14765:14769   */\n      dup3\n        /* \"#utility.yul\":14759:14770   */\n      sload\n        /* \"#utility.yul\":14733:14771   */\n      tag_79\n      jump\t// in\n    tag_381:\n        /* \"#utility.yul\":14818:14885   */\n      tag_382\n        /* \"#utility.yul\":14878:14884   */\n      dup3\n        /* \"#utility.yul\":14870:14876   */\n      dup3\n        /* \"#utility.yul\":14864:14868   */\n      dup6\n        /* \"#utility.yul\":14818:14885   */\n      tag_204\n      jump\t// in\n    tag_382:\n        /* \"#utility.yul\":14912:14913   */\n      0x00\n        /* \"#utility.yul\":14936:14940   */\n      0x20\n        /* \"#utility.yul\":14923:14940   */\n      swap1\n      pop\n        /* \"#utility.yul\":14968:14970   */\n      0x1f\n        /* \"#utility.yul\":14960:14966   */\n      dup4\n        /* \"#utility.yul\":14957:14971   */\n      gt\n        /* \"#utility.yul\":14985:14986   */\n      0x01\n        /* \"#utility.yul\":14980:15598   */\n      dup2\n      eq\n      tag_384\n      jumpi\n        /* \"#utility.yul\":15642:15643   */\n      0x00\n        /* \"#utility.yul\":15659:15665   */\n      dup5\n        /* \"#utility.yul\":15656:15733   */\n      iszero\n      tag_385\n      jumpi\n        /* \"#utility.yul\":15708:15717   */\n      dup3\n        /* \"#utility.yul\":15703:15706   */\n      dup8\n        /* \"#utility.yul\":15699:15718   */\n      add\n        /* \"#utility.yul\":15693:15719   */\n      mload\n        /* \"#utility.yul\":15684:15719   */\n      swap1\n      pop\n        /* \"#utility.yul\":15656:15733   */\n    tag_385:\n        /* \"#utility.yul\":15759:15826   */\n      tag_386\n        /* \"#utility.yul\":15819:15825   */\n      dup6\n        /* \"#utility.yul\":15812:15817   */\n      dup3\n        /* \"#utility.yul\":15759:15826   */\n      tag_207\n      jump\t// in\n    tag_386:\n        /* \"#utility.yul\":15753:15757   */\n      dup7\n        /* \"#utility.yul\":15746:15827   */\n      sstore\n        /* \"#utility.yul\":15615:15837   */\n      pop\n        /* \"#utility.yul\":14950:15837   */\n      jump(tag_383)\n        /* \"#utility.yul\":14980:15598   */\n    tag_384:\n        /* \"#utility.yul\":15032:15036   */\n      0x1f\n        /* \"#utility.yul\":15028:15037   */\n      not\n        /* \"#utility.yul\":15020:15026   */\n      dup5\n        /* \"#utility.yul\":15016:15038   */\n      and\n        /* \"#utility.yul\":15066:15103   */\n      tag_387\n        /* \"#utility.yul\":15098:15102   */\n      dup7\n        /* \"#utility.yul\":15066:15103   */\n      tag_193\n      jump\t// in\n    tag_387:\n        /* \"#utility.yul\":15125:15126   */\n      0x00\n        /* \"#utility.yul\":15139:15347   */\n    tag_388:\n        /* \"#utility.yul\":15153:15160   */\n      dup3\n        /* \"#utility.yul\":15150:15151   */\n      dup2\n        /* \"#utility.yul\":15147:15161   */\n      lt\n        /* \"#utility.yul\":15139:15347   */\n      iszero\n      tag_390\n      jumpi\n        /* \"#utility.yul\":15232:15241   */\n      dup5\n        /* \"#utility.yul\":15227:15230   */\n      dup10\n        /* \"#utility.yul\":15223:15242   */\n      add\n        /* \"#utility.yul\":15217:15243   */\n      mload\n        /* \"#utility.yul\":15209:15215   */\n      dup3\n        /* \"#utility.yul\":15202:15244   */\n      sstore\n        /* \"#utility.yul\":15283:15284   */\n      0x01\n        /* \"#utility.yul\":15275:15281   */\n      dup3\n        /* \"#utility.yul\":15271:15285   */\n      add\n        /* \"#utility.yul\":15261:15285   */\n      swap2\n      pop\n        /* \"#utility.yul\":15330:15332   */\n      0x20\n        /* \"#utility.yul\":15319:15328   */\n      dup6\n        /* \"#utility.yul\":15315:15333   */\n      add\n        /* \"#utility.yul\":15302:15333   */\n      swap5\n      pop\n        /* \"#utility.yul\":15176:15180   */\n      0x20\n        /* \"#utility.yul\":15173:15174   */\n      dup2\n        /* \"#utility.yul\":15169:15181   */\n      add\n        /* \"#utility.yul\":15164:15181   */\n      swap1\n      pop\n        /* \"#utility.yul\":15139:15347   */\n      jump(tag_388)\n    tag_390:\n        /* \"#utility.yul\":15375:15381   */\n      dup7\n        /* \"#utility.yul\":15366:15373   */\n      dup4\n        /* \"#utility.yul\":15363:15382   */\n      lt\n        /* \"#utility.yul\":15360:15539   */\n      iszero\n      tag_391\n      jumpi\n        /* \"#utility.yul\":15433:15442   */\n      dup5\n        /* \"#utility.yul\":15428:15431   */\n      dup10\n        /* \"#utility.yul\":15424:15443   */\n      add\n        /* \"#utility.yul\":15418:15444   */\n      mload\n        /* \"#utility.yul\":15476:15524   */\n      tag_392\n        /* \"#utility.yul\":15518:15522   */\n      0x1f\n        /* \"#utility.yul\":15510:15516   */\n      dup10\n        /* \"#utility.yul\":15506:15523   */\n      and\n        /* \"#utility.yul\":15495:15504   */\n      dup3\n        /* \"#utility.yul\":15476:15524   */\n      tag_206\n      jump\t// in\n    tag_392:\n        /* \"#utility.yul\":15468:15474   */\n      dup4\n        /* \"#utility.yul\":15461:15525   */\n      sstore\n        /* \"#utility.yul\":15383:15539   */\n      pop\n        /* \"#utility.yul\":15360:15539   */\n    tag_391:\n        /* \"#utility.yul\":15585:15586   */\n      0x01\n        /* \"#utility.yul\":15581:15582   */\n      0x02\n        /* \"#utility.yul\":15573:15579   */\n      dup9\n        /* \"#utility.yul\":15569:15583   */\n      mul\n        /* \"#utility.yul\":15565:15587   */\n      add\n        /* \"#utility.yul\":15559:15563   */\n      dup9\n        /* \"#utility.yul\":15552:15588   */\n      sstore\n        /* \"#utility.yul\":14987:15598   */\n      pop\n      pop\n      pop\n        /* \"#utility.yul\":14950:15837   */\n    tag_383:\n      pop\n        /* \"#utility.yul\":14540:15843   */\n      pop\n      pop\n      pop\n        /* \"#utility.yul\":14448:15843   */\n      pop\n      pop\n      jump\t// out\n        /* \"#utility.yul\":15849:15943   */\n    tag_208:\n        /* \"#utility.yul\":15882:15890   */\n      0x00\n        /* \"#utility.yul\":15930:15935   */\n      dup2\n        /* \"#utility.yul\":15926:15928   */\n      0x60\n        /* \"#utility.yul\":15922:15936   */\n      shl\n        /* \"#utility.yul\":15901:15936   */\n      swap1\n      pop\n        /* \"#utility.yul\":15849:15943   */\n      swap2\n      swap1\n      pop\n      jump\t// out\n        /* \"#utility.yul\":15949:16043   */\n    tag_209:\n        /* \"#utility.yul\":15988:15995   */\n      0x00\n        /* \"#utility.yul\":16017:16037   */\n      tag_395\n        /* \"#utility.yul\":16031:16036   */\n      dup3\n        /* \"#utility.yul\":16017:16037   */\n      tag_208\n      jump\t// in\n    tag_395:\n        /* \"#utility.yul\":16006:16037   */\n      swap1\n      pop\n        /* \"#utility.yul\":15949:16043   */\n      swap2\n      swap1\n      pop\n      jump\t// out\n        /* \"#utility.yul\":16049:16149   */\n    tag_210:\n        /* \"#utility.yul\":16088:16095   */\n      0x00\n        /* \"#utility.yul\":16117:16143   */\n      tag_397\n        /* \"#utility.yul\":16137:16142   */\n      dup3\n        /* \"#utility.yul\":16117:16143   */\n      tag_209\n      jump\t// in\n    tag_397:\n        /* \"#utility.yul\":16106:16143   */\n      swap1\n      pop\n        /* \"#utility.yul\":16049:16149   */\n      swap2\n      swap1\n      pop\n      jump\t// out\n        /* \"#utility.yul\":16155:16312   */\n    tag_211:\n        /* \"#utility.yul\":16260:16305   */\n      tag_399\n        /* \"#utility.yul\":16280:16304   */\n      tag_400\n        /* \"#utility.yul\":16298:16303   */\n      dup3\n        /* \"#utility.yul\":16280:16304   */\n      tag_178\n      jump\t// in\n    tag_400:\n        /* \"#utility.yul\":16260:16305   */\n      tag_210\n      jump\t// in\n    tag_399:\n        /* \"#utility.yul\":16255:16258   */\n      dup3\n        /* \"#utility.yul\":16248:16306   */\n      mstore\n        /* \"#utility.yul\":16155:16312   */\n      pop\n      pop\n      jump\t// out\n        /* \"#utility.yul\":16318:16574   */\n    tag_49:\n        /* \"#utility.yul\":16430:16433   */\n      0x00\n        /* \"#utility.yul\":16445:16520   */\n      tag_402\n        /* \"#utility.yul\":16516:16519   */\n      dup3\n        /* \"#utility.yul\":16507:16513   */\n      dup5\n        /* \"#utility.yul\":16445:16520   */\n      tag_211\n      jump\t// in\n    tag_402:\n        /* \"#utility.yul\":16545:16547   */\n      0x14\n        /* \"#utility.yul\":16540:16543   */\n      dup3\n        /* \"#utility.yul\":16536:16548   */\n      add\n        /* \"#utility.yul\":16529:16548   */\n      swap2\n      pop\n        /* \"#utility.yul\":16565:16568   */\n      dup2\n        /* \"#utility.yul\":16558:16568   */\n      swap1\n      pop\n        /* \"#utility.yul\":16318:16574   */\n      swap3\n      swap2\n      pop\n      pop\n      jump\t// out\n        /* \"#utility.yul\":16580:16760   */\n    tag_55:\n        /* \"#utility.yul\":16628:16705   */\n      0x4e487b7100000000000000000000000000000000000000000000000000000000\n        /* \"#utility.yul\":16625:16626   */\n      0x00\n        /* \"#utility.yul\":16618:16706   */\n      mstore\n        /* \"#utility.yul\":16725:16729   */\n      0x32\n        /* \"#utility.yul\":16722:16723   */\n      0x04\n        /* \"#utility.yul\":16715:16730   */\n      mstore\n        /* \"#utility.yul\":16749:16753   */\n      0x24\n        /* \"#utility.yul\":16746:16747   */\n      0x00\n        /* \"#utility.yul\":16739:16754   */\n      revert\n        /* \"#utility.yul\":16766:16934   */\n    tag_212:\n        /* \"#utility.yul\":16906:16926   */\n      0x566f746520616c72656164792065786973740000000000000000000000000000\n        /* \"#utility.yul\":16902:16903   */\n      0x00\n        /* \"#utility.yul\":16894:16900   */\n      dup3\n        /* \"#utility.yul\":16890:16904   */\n      add\n        /* \"#utility.yul\":16883:16927   */\n      mstore\n        /* \"#utility.yul\":16766:16934   */\n      pop\n      jump\t// out\n        /* \"#utility.yul\":16940:17306   */\n    tag_213:\n        /* \"#utility.yul\":17082:17085   */\n      0x00\n        /* \"#utility.yul\":17103:17170   */\n      tag_406\n        /* \"#utility.yul\":17167:17169   */\n      0x12\n        /* \"#utility.yul\":17162:17165   */\n      dup4\n        /* \"#utility.yul\":17103:17170   */\n      tag_174\n      jump\t// in\n    tag_406:\n        /* \"#utility.yul\":17096:17170   */\n      swap2\n      pop\n        /* \"#utility.yul\":17179:17272   */\n      tag_407\n        /* \"#utility.yul\":17268:17271   */\n      dup3\n        /* \"#utility.yul\":17179:17272   */\n      tag_212\n      jump\t// in\n    tag_407:\n        /* \"#utility.yul\":17297:17299   */\n      0x20\n        /* \"#utility.yul\":17292:17295   */\n      dup3\n        /* \"#utility.yul\":17288:17300   */\n      add\n        /* \"#utility.yul\":17281:17300   */\n      swap1\n      pop\n        /* \"#utility.yul\":16940:17306   */\n      swap2\n      swap1\n      pop\n      jump\t// out\n        /* \"#utility.yul\":17312:17731   */\n    tag_59:\n        /* \"#utility.yul\":17478:17482   */\n      0x00\n        /* \"#utility.yul\":17516:17518   */\n      0x20\n        /* \"#utility.yul\":17505:17514   */\n      dup3\n        /* \"#utility.yul\":17501:17519   */\n      add\n        /* \"#utility.yul\":17493:17519   */\n      swap1\n      pop\n        /* \"#utility.yul\":17565:17574   */\n      dup2\n        /* \"#utility.yul\":17559:17563   */\n      dup2\n        /* \"#utility.yul\":17555:17575   */\n      sub\n        /* \"#utility.yul\":17551:17552   */\n      0x00\n        /* \"#utility.yul\":17540:17549   */\n      dup4\n        /* \"#utility.yul\":17536:17553   */\n      add\n        /* \"#utility.yul\":17529:17576   */\n      mstore\n        /* \"#utility.yul\":17593:17724   */\n      tag_409\n        /* \"#utility.yul\":17719:17723   */\n      dup2\n        /* \"#utility.yul\":17593:17724   */\n      tag_213\n      jump\t// in\n    tag_409:\n        /* \"#utility.yul\":17585:17724   */\n      swap1\n      pop\n        /* \"#utility.yul\":17312:17731   */\n      swap2\n      swap1\n      pop\n      jump\t// out\n        /* \"#utility.yul\":17737:17917   */\n    tag_214:\n        /* \"#utility.yul\":17785:17862   */\n      0x4e487b7100000000000000000000000000000000000000000000000000000000\n        /* \"#utility.yul\":17782:17783   */\n      0x00\n        /* \"#utility.yul\":17775:17863   */\n      mstore\n        /* \"#utility.yul\":17882:17886   */\n      0x11\n        /* \"#utility.yul\":17879:17880   */\n      0x04\n        /* \"#utility.yul\":17872:17887   */\n      mstore\n        /* \"#utility.yul\":17906:17910   */\n      0x24\n        /* \"#utility.yul\":17903:17904   */\n      0x00\n        /* \"#utility.yul\":17896:17911   */\n      revert\n        /* \"#utility.yul\":17923:18090   */\n    tag_63:\n        /* \"#utility.yul\":17960:17963   */\n      0x00\n        /* \"#utility.yul\":17983:18005   */\n      tag_412\n        /* \"#utility.yul\":17999:18004   */\n      dup3\n        /* \"#utility.yul\":17983:18005   */\n      tag_171\n      jump\t// in\n    tag_412:\n        /* \"#utility.yul\":17974:18005   */\n      swap2\n      pop\n        /* \"#utility.yul\":18027:18031   */\n      0xff\n        /* \"#utility.yul\":18020:18025   */\n      dup3\n        /* \"#utility.yul\":18017:18032   */\n      sub\n        /* \"#utility.yul\":18014:18055   */\n      tag_413\n      jumpi\n        /* \"#utility.yul\":18035:18053   */\n      tag_414\n      tag_214\n      jump\t// in\n    tag_414:\n        /* \"#utility.yul\":18014:18055   */\n    tag_413:\n        /* \"#utility.yul\":18082:18083   */\n      0x01\n        /* \"#utility.yul\":18075:18080   */\n      dup3\n        /* \"#utility.yul\":18071:18084   */\n      add\n        /* \"#utility.yul\":18064:18084   */\n      swap1\n      pop\n        /* \"#utility.yul\":17923:18090   */\n      swap2\n      swap1\n      pop\n      jump\t// out\n        /* \"#utility.yul\":18096:18251   */\n    tag_215:\n        /* \"#utility.yul\":18236:18239   */\n      0x2800000000000000000000000000000000000000000000000000000000000000\n        /* \"#utility.yul\":18232:18233   */\n      0x00\n        /* \"#utility.yul\":18224:18230   */\n      dup3\n        /* \"#utility.yul\":18220:18234   */\n      add\n        /* \"#utility.yul\":18213:18240   */\n      mstore\n        /* \"#utility.yul\":18096:18251   */\n      pop\n      jump\t// out\n        /* \"#utility.yul\":18261:18677   */\n    tag_216:\n        /* \"#utility.yul\":18421:18424   */\n      0x00\n        /* \"#utility.yul\":18446:18530   */\n      tag_417\n        /* \"#utility.yul\":18528:18529   */\n      0x01\n        /* \"#utility.yul\":18523:18526   */\n      dup4\n        /* \"#utility.yul\":18446:18530   */\n      tag_188\n      jump\t// in\n    tag_417:\n        /* \"#utility.yul\":18439:18530   */\n      swap2\n      pop\n        /* \"#utility.yul\":18543:18636   */\n      tag_418\n        /* \"#utility.yul\":18632:18635   */\n      dup3\n        /* \"#utility.yul\":18543:18636   */\n      tag_215\n      jump\t// in\n    tag_418:\n        /* \"#utility.yul\":18665:18666   */\n      0x01\n        /* \"#utility.yul\":18660:18663   */\n      dup3\n        /* \"#utility.yul\":18656:18667   */\n      add\n        /* \"#utility.yul\":18649:18667   */\n      swap1\n      pop\n        /* \"#utility.yul\":18261:18677   */\n      swap2\n      swap1\n      pop\n      jump\t// out\n        /* \"#utility.yul\":18715:19669   */\n    tag_217:\n        /* \"#utility.yul\":18818:18821   */\n      0x00\n        /* \"#utility.yul\":18859:18864   */\n      dup2\n        /* \"#utility.yul\":18853:18865   */\n      sload\n        /* \"#utility.yul\":18892:18928   */\n      tag_420\n        /* \"#utility.yul\":18918:18927   */\n      dup2\n        /* \"#utility.yul\":18892:18928   */\n      tag_79\n      jump\t// in\n    tag_420:\n        /* \"#utility.yul\":18948:19037   */\n      tag_421\n        /* \"#utility.yul\":19030:19036   */\n      dup2\n        /* \"#utility.yul\":19025:19028   */\n      dup7\n        /* \"#utility.yul\":18948:19037   */\n      tag_188\n      jump\t// in\n    tag_421:\n        /* \"#utility.yul\":18941:19037   */\n      swap5\n      pop\n        /* \"#utility.yul\":19072:19073   */\n      0x01\n        /* \"#utility.yul\":19061:19070   */\n      dup3\n        /* \"#utility.yul\":19057:19074   */\n      and\n        /* \"#utility.yul\":19092:19093   */\n      0x00\n        /* \"#utility.yul\":19087:19269   */\n      dup2\n      eq\n      tag_423\n      jumpi\n        /* \"#utility.yul\":19287:19288   */\n      0x01\n        /* \"#utility.yul\":19282:19659   */\n      dup2\n      eq\n      tag_424\n      jumpi\n        /* \"#utility.yul\":19050:19659   */\n      jump(tag_422)\n        /* \"#utility.yul\":19087:19269   */\n    tag_423:\n        /* \"#utility.yul\":19179:19183   */\n      0xff\n        /* \"#utility.yul\":19175:19184   */\n      not\n        /* \"#utility.yul\":19164:19173   */\n      dup4\n        /* \"#utility.yul\":19160:19185   */\n      and\n        /* \"#utility.yul\":19155:19158   */\n      dup7\n        /* \"#utility.yul\":19148:19186   */\n      mstore\n        /* \"#utility.yul\":19245:19251   */\n      dup2\n        /* \"#utility.yul\":19238:19252   */\n      iszero\n        /* \"#utility.yul\":19231:19253   */\n      iszero\n        /* \"#utility.yul\":19223:19229   */\n      dup3\n        /* \"#utility.yul\":19219:19254   */\n      mul\n        /* \"#utility.yul\":19214:19217   */\n      dup7\n        /* \"#utility.yul\":19210:19255   */\n      add\n        /* \"#utility.yul\":19203:19255   */\n      swap4\n      pop\n        /* \"#utility.yul\":19087:19269   */\n      jump(tag_422)\n        /* \"#utility.yul\":19282:19659   */\n    tag_424:\n        /* \"#utility.yul\":19357:19395   */\n      tag_425\n        /* \"#utility.yul\":19389:19394   */\n      dup6\n        /* \"#utility.yul\":19357:19395   */\n      tag_193\n      jump\t// in\n    tag_425:\n        /* \"#utility.yul\":19421:19422   */\n      0x00\n        /* \"#utility.yul\":19439:19605   */\n    tag_426:\n        /* \"#utility.yul\":19453:19459   */\n      dup4\n        /* \"#utility.yul\":19450:19451   */\n      dup2\n        /* \"#utility.yul\":19447:19460   */\n      lt\n        /* \"#utility.yul\":19439:19605   */\n      iszero\n      tag_428\n      jumpi\n        /* \"#utility.yul\":19531:19538   */\n      dup2\n        /* \"#utility.yul\":19525:19539   */\n      sload\n        /* \"#utility.yul\":19521:19522   */\n      dup2\n        /* \"#utility.yul\":19516:19519   */\n      dup10\n        /* \"#utility.yul\":19512:19523   */\n      add\n        /* \"#utility.yul\":19505:19540   */\n      mstore\n        /* \"#utility.yul\":19585:19586   */\n      0x01\n        /* \"#utility.yul\":19576:19583   */\n      dup3\n        /* \"#utility.yul\":19572:19587   */\n      add\n        /* \"#utility.yul\":19561:19587   */\n      swap2\n      pop\n        /* \"#utility.yul\":19475:19479   */\n      0x20\n        /* \"#utility.yul\":19472:19473   */\n      dup2\n        /* \"#utility.yul\":19468:19480   */\n      add\n        /* \"#utility.yul\":19463:19480   */\n      swap1\n      pop\n        /* \"#utility.yul\":19439:19605   */\n      jump(tag_426)\n    tag_428:\n        /* \"#utility.yul\":19638:19644   */\n      dup4\n        /* \"#utility.yul\":19633:19636   */\n      dup9\n        /* \"#utility.yul\":19629:19645   */\n      add\n        /* \"#utility.yul\":19622:19645   */\n      swap6\n      pop\n        /* \"#utility.yul\":19289:19659   */\n      pop\n      pop\n        /* \"#utility.yul\":19050:19659   */\n    tag_422:\n      pop\n        /* \"#utility.yul\":18822:19669   */\n      pop\n      pop\n        /* \"#utility.yul\":18715:19669   */\n      swap3\n      swap2\n      pop\n      pop\n      jump\t// out\n        /* \"#utility.yul\":19679:19839   */\n    tag_218:\n        /* \"#utility.yul\":19823:19827   */\n      0x2c20000000000000000000000000000000000000000000000000000000000000\n        /* \"#utility.yul\":19819:19820   */\n      0x00\n        /* \"#utility.yul\":19811:19817   */\n      dup3\n        /* \"#utility.yul\":19807:19821   */\n      add\n        /* \"#utility.yul\":19800:19828   */\n      mstore\n        /* \"#utility.yul\":19679:19839   */\n      pop\n      jump\t// out\n        /* \"#utility.yul\":19849:20265   */\n    tag_219:\n        /* \"#utility.yul\":20009:20012   */\n      0x00\n        /* \"#utility.yul\":20034:20118   */\n      tag_431\n        /* \"#utility.yul\":20116:20117   */\n      0x02\n        /* \"#utility.yul\":20111:20114   */\n      dup4\n        /* \"#utility.yul\":20034:20118   */\n      tag_188\n      jump\t// in\n    tag_431:\n        /* \"#utility.yul\":20027:20118   */\n      swap2\n      pop\n        /* \"#utility.yul\":20131:20224   */\n      tag_432\n        /* \"#utility.yul\":20220:20223   */\n      dup3\n        /* \"#utility.yul\":20131:20224   */\n      tag_218\n      jump\t// in\n    tag_432:\n        /* \"#utility.yul\":20253:20254   */\n      0x02\n        /* \"#utility.yul\":20248:20251   */\n      dup3\n        /* \"#utility.yul\":20244:20255   */\n      add\n        /* \"#utility.yul\":20237:20255   */\n      swap1\n      pop\n        /* \"#utility.yul\":19849:20265   */\n      swap2\n      swap1\n      pop\n      jump\t// out\n        /* \"#utility.yul\":20275:20432   */\n    tag_220:\n        /* \"#utility.yul\":20415:20424   */\n      0x29202d2d2d2d2d00000000000000000000000000000000000000000000000000\n        /* \"#utility.yul\":20411:20412   */\n      0x00\n        /* \"#utility.yul\":20403:20409   */\n      dup3\n        /* \"#utility.yul\":20399:20413   */\n      add\n        /* \"#utility.yul\":20392:20425   */\n      mstore\n        /* \"#utility.yul\":20275:20432   */\n      pop\n      jump\t// out\n        /* \"#utility.yul\":20438:20838   */\n    tag_221:\n        /* \"#utility.yul\":20598:20601   */\n      0x00\n        /* \"#utility.yul\":20619:20703   */\n      tag_435\n        /* \"#utility.yul\":20701:20702   */\n      0x07\n        /* \"#utility.yul\":20696:20699   */\n      dup4\n        /* \"#utility.yul\":20619:20703   */\n      tag_188\n      jump\t// in\n    tag_435:\n        /* \"#utility.yul\":20612:20703   */\n      swap2\n      pop\n        /* \"#utility.yul\":20712:20805   */\n      tag_436\n        /* \"#utility.yul\":20801:20804   */\n      dup3\n        /* \"#utility.yul\":20712:20805   */\n      tag_220\n      jump\t// in\n    tag_436:\n        /* \"#utility.yul\":20830:20831   */\n      0x07\n        /* \"#utility.yul\":20825:20828   */\n      dup3\n        /* \"#utility.yul\":20821:20832   */\n      add\n        /* \"#utility.yul\":20814:20832   */\n      swap1\n      pop\n        /* \"#utility.yul\":20438:20838   */\n      swap2\n      swap1\n      pop\n      jump\t// out\n        /* \"#utility.yul\":20844:22231   */\n    tag_86:\n        /* \"#utility.yul\":21372:21375   */\n      0x00\n        /* \"#utility.yul\":21394:21489   */\n      tag_438\n        /* \"#utility.yul\":21485:21488   */\n      dup3\n        /* \"#utility.yul\":21476:21482   */\n      dup7\n        /* \"#utility.yul\":21394:21489   */\n      tag_189\n      jump\t// in\n    tag_438:\n        /* \"#utility.yul\":21387:21489   */\n      swap2\n      pop\n        /* \"#utility.yul\":21506:21654   */\n      tag_439\n        /* \"#utility.yul\":21650:21653   */\n      dup3\n        /* \"#utility.yul\":21506:21654   */\n      tag_216\n      jump\t// in\n    tag_439:\n        /* \"#utility.yul\":21499:21654   */\n      swap2\n      pop\n        /* \"#utility.yul\":21671:21763   */\n      tag_440\n        /* \"#utility.yul\":21759:21762   */\n      dup3\n        /* \"#utility.yul\":21750:21756   */\n      dup6\n        /* \"#utility.yul\":21671:21763   */\n      tag_217\n      jump\t// in\n    tag_440:\n        /* \"#utility.yul\":21664:21763   */\n      swap2\n      pop\n        /* \"#utility.yul\":21780:21928   */\n      tag_441\n        /* \"#utility.yul\":21924:21927   */\n      dup3\n        /* \"#utility.yul\":21780:21928   */\n      tag_219\n      jump\t// in\n    tag_441:\n        /* \"#utility.yul\":21773:21928   */\n      swap2\n      pop\n        /* \"#utility.yul\":21945:22040   */\n      tag_442\n        /* \"#utility.yul\":22036:22039   */\n      dup3\n        /* \"#utility.yul\":22027:22033   */\n      dup5\n        /* \"#utility.yul\":21945:22040   */\n      tag_189\n      jump\t// in\n    tag_442:\n        /* \"#utility.yul\":21938:22040   */\n      swap2\n      pop\n        /* \"#utility.yul\":22057:22205   */\n      tag_443\n        /* \"#utility.yul\":22201:22204   */\n      dup3\n        /* \"#utility.yul\":22057:22205   */\n      tag_221\n      jump\t// in\n    tag_443:\n        /* \"#utility.yul\":22050:22205   */\n      swap2\n      pop\n        /* \"#utility.yul\":22222:22225   */\n      dup2\n        /* \"#utility.yul\":22215:22225   */\n      swap1\n      pop\n        /* \"#utility.yul\":20844:22231   */\n      swap5\n      swap4\n      pop\n      pop\n      pop\n      pop\n      jump\t// out\n        /* \"#utility.yul\":22237:22506   */\n    tag_103:\n        /* \"#utility.yul\":22366:22369   */\n      0x00\n        /* \"#utility.yul\":22388:22480   */\n      tag_445\n        /* \"#utility.yul\":22476:22479   */\n      dup3\n        /* \"#utility.yul\":22467:22473   */\n      dup5\n        /* \"#utility.yul\":22388:22480   */\n      tag_217\n      jump\t// in\n    tag_445:\n        /* \"#utility.yul\":22381:22480   */\n      swap2\n      pop\n        /* \"#utility.yul\":22497:22500   */\n      dup2\n        /* \"#utility.yul\":22490:22500   */\n      swap1\n      pop\n        /* \"#utility.yul\":22237:22506   */\n      swap3\n      swap2\n      pop\n      pop\n      jump\t// out\n        /* \"#utility.yul\":22512:22745   */\n    tag_136:\n        /* \"#utility.yul\":22551:22554   */\n      0x00\n        /* \"#utility.yul\":22574:22598   */\n      tag_447\n        /* \"#utility.yul\":22592:22597   */\n      dup3\n        /* \"#utility.yul\":22574:22598   */\n      tag_168\n      jump\t// in\n    tag_447:\n        /* \"#utility.yul\":22565:22598   */\n      swap2\n      pop\n        /* \"#utility.yul\":22620:22686   */\n      0xffffffffffffffffffffffffffffffffffffffffffffffffffffffffffffffff\n        /* \"#utility.yul\":22613:22618   */\n      dup3\n        /* \"#utility.yul\":22610:22687   */\n      sub\n        /* \"#utility.yul\":22607:22710   */\n      tag_448\n      jumpi\n        /* \"#utility.yul\":22690:22708   */\n      tag_449\n      tag_214\n      jump\t// in\n    tag_449:\n        /* \"#utility.yul\":22607:22710   */\n    tag_448:\n        /* \"#utility.yul\":22737:22738   */\n      0x01\n        /* \"#utility.yul\":22730:22735   */\n      dup3\n        /* \"#utility.yul\":22726:22739   */\n      add\n        /* \"#utility.yul\":22719:22739   */\n      swap1\n      pop\n        /* \"#utility.yul\":22512:22745   */\n      swap2\n      swap1\n      pop\n      jump\t// out\n        /* \"#utility.yul\":22751:22931   */\n    tag_222:\n        /* \"#utility.yul\":22799:22876   */\n      0x4e487b7100000000000000000000000000000000000000000000000000000000\n        /* \"#utility.yul\":22796:22797   */\n      0x00\n        /* \"#utility.yul\":22789:22877   */\n      mstore\n        /* \"#utility.yul\":22896:22900   */\n      0x12\n        /* \"#utility.yul\":22893:22894   */\n      0x04\n        /* \"#utility.yul\":22886:22901   */\n      mstore\n        /* \"#utility.yul\":22920:22924   */\n      0x24\n        /* \"#utility.yul\":22917:22918   */\n      0x00\n        /* \"#utility.yul\":22910:22925   */\n      revert\n        /* \"#utility.yul\":22937:23122   */\n    tag_138:\n        /* \"#utility.yul\":22977:22978   */\n      0x00\n        /* \"#utility.yul\":22994:23014   */\n      tag_452\n        /* \"#utility.yul\":23012:23013   */\n      dup3\n        /* \"#utility.yul\":22994:23014   */\n      tag_168\n      jump\t// in\n    tag_452:\n        /* \"#utility.yul\":22989:23014   */\n      swap2\n      pop\n        /* \"#utility.yul\":23028:23048   */\n      tag_453\n        /* \"#utility.yul\":23046:23047   */\n      dup4\n        /* \"#utility.yul\":23028:23048   */\n      tag_168\n      jump\t// in\n    tag_453:\n        /* \"#utility.yul\":23023:23048   */\n      swap3\n      pop\n        /* \"#utility.yul\":23067:23068   */\n      dup3\n        /* \"#utility.yul\":23057:23092   */\n      tag_454\n      jumpi\n        /* \"#utility.yul\":23072:23090   */\n      tag_455\n      tag_222\n      jump\t// in\n    tag_455:\n        /* \"#utility.yul\":23057:23092   */\n    tag_454:\n        /* \"#utility.yul\":23114:23115   */\n      dup3\n        /* \"#utility.yul\":23111:23112   */\n      dup3\n        /* \"#utility.yul\":23107:23116   */\n      div\n        /* \"#utility.yul\":23102:23116   */\n      swap1\n      pop\n        /* \"#utility.yul\":22937:23122   */\n      swap3\n      swap2\n      pop\n      pop\n      jump\t// out\n        /* \"#utility.yul\":23128:23322   */\n    tag_144:\n        /* \"#utility.yul\":23168:23172   */\n      0x00\n        /* \"#utility.yul\":23188:23208   */\n      tag_457\n        /* \"#utility.yul\":23206:23207   */\n      dup3\n        /* \"#utility.yul\":23188:23208   */\n      tag_168\n      jump\t// in\n    tag_457:\n        /* \"#utility.yul\":23183:23208   */\n      swap2\n      pop\n        /* \"#utility.yul\":23222:23242   */\n      tag_458\n        /* \"#utility.yul\":23240:23241   */\n      dup4\n        /* \"#utility.yul\":23222:23242   */\n      tag_168\n      jump\t// in\n    tag_458:\n        /* \"#utility.yul\":23217:23242   */\n      swap3\n      pop\n        /* \"#utility.yul\":23266:23267   */\n      dup3\n        /* \"#utility.yul\":23263:23264   */\n      dup3\n        /* \"#utility.yul\":23259:23268   */\n      sub\n        /* \"#utility.yul\":23251:23268   */\n      swap1\n      pop\n        /* \"#utility.yul\":23290:23291   */\n      dup2\n        /* \"#utility.yul\":23284:23288   */\n      dup2\n        /* \"#utility.yul\":23281:23292   */\n      gt\n        /* \"#utility.yul\":23278:23315   */\n      iszero\n      tag_459\n      jumpi\n        /* \"#utility.yul\":23295:23313   */\n      tag_460\n      tag_214\n      jump\t// in\n    tag_460:\n        /* \"#utility.yul\":23278:23315   */\n    tag_459:\n        /* \"#utility.yul\":23128:23322   */\n      swap3\n      swap2\n      pop\n      pop\n      jump\t// out\n        /* \"#utility.yul\":23328:23504   */\n    tag_148:\n        /* \"#utility.yul\":23360:23361   */\n      0x00\n        /* \"#utility.yul\":23377:23397   */\n      tag_462\n        /* \"#utility.yul\":23395:23396   */\n      dup3\n        /* \"#utility.yul\":23377:23397   */\n      tag_168\n      jump\t// in\n    tag_462:\n        /* \"#utility.yul\":23372:23397   */\n      swap2\n      pop\n        /* \"#utility.yul\":23411:23431   */\n      tag_463\n        /* \"#utility.yul\":23429:23430   */\n      dup4\n        /* \"#utility.yul\":23411:23431   */\n      tag_168\n      jump\t// in\n    tag_463:\n        /* \"#utility.yul\":23406:23431   */\n      swap3\n      pop\n        /* \"#utility.yul\":23450:23451   */\n      dup3\n        /* \"#utility.yul\":23440:23475   */\n      tag_464\n      jumpi\n        /* \"#utility.yul\":23455:23473   */\n      tag_465\n      tag_222\n      jump\t// in\n    tag_465:\n        /* \"#utility.yul\":23440:23475   */\n    tag_464:\n        /* \"#utility.yul\":23496:23497   */\n      dup3\n        /* \"#utility.yul\":23493:23494   */\n      dup3\n        /* \"#utility.yul\":23489:23498   */\n      mod\n        /* \"#utility.yul\":23484:23498   */\n      swap1\n      pop\n        /* \"#utility.yul\":23328:23504   */\n      swap3\n      swap2\n      pop\n      pop\n      jump\t// out\n        /* \"#utility.yul\":23510:23701   */\n    tag_150:\n        /* \"#utility.yul\":23550:23553   */\n      0x00\n        /* \"#utility.yul\":23569:23589   */\n      tag_467\n        /* \"#utility.yul\":23587:23588   */\n      dup3\n        /* \"#utility.yul\":23569:23589   */\n      tag_168\n      jump\t// in\n    tag_467:\n        /* \"#utility.yul\":23564:23589   */\n      swap2\n      pop\n        /* \"#utility.yul\":23603:23623   */\n      tag_468\n        /* \"#utility.yul\":23621:23622   */\n      dup4\n        /* \"#utility.yul\":23603:23623   */\n      tag_168\n      jump\t// in\n    tag_468:\n        /* \"#utility.yul\":23598:23623   */\n      swap3\n      pop\n        /* \"#utility.yul\":23646:23647   */\n      dup3\n        /* \"#utility.yul\":23643:23644   */\n      dup3\n        /* \"#utility.yul\":23639:23648   */\n      add\n        /* \"#utility.yul\":23632:23648   */\n      swap1\n      pop\n        /* \"#utility.yul\":23667:23670   */\n      dup1\n        /* \"#utility.yul\":23664:23665   */\n      dup3\n        /* \"#utility.yul\":23661:23671   */\n      gt\n        /* \"#utility.yul\":23658:23694   */\n      iszero\n      tag_469\n      jumpi\n        /* \"#utility.yul\":23674:23692   */\n      tag_470\n      tag_214\n      jump\t// in\n    tag_470:\n        /* \"#utility.yul\":23658:23694   */\n    tag_469:\n        /* \"#utility.yul\":23510:23701   */\n      swap3\n      swap2\n      pop\n      pop\n      jump\t// out\n        /* \"#utility.yul\":23707:23878   */\n    tag_152:\n        /* \"#utility.yul\":23746:23749   */\n      0x00\n        /* \"#utility.yul\":23769:23793   */\n      tag_472\n        /* \"#utility.yul\":23787:23792   */\n      dup3\n        /* \"#utility.yul\":23769:23793   */\n      tag_168\n      jump\t// in\n    tag_472:\n        /* \"#utility.yul\":23760:23793   */\n      swap2\n      pop\n        /* \"#utility.yul\":23815:23819   */\n      0x00\n        /* \"#utility.yul\":23808:23813   */\n      dup3\n        /* \"#utility.yul\":23805:23820   */\n      sub\n        /* \"#utility.yul\":23802:23843   */\n      tag_473\n      jumpi\n        /* \"#utility.yul\":23823:23841   */\n      tag_474\n      tag_214\n      jump\t// in\n    tag_474:\n        /* \"#utility.yul\":23802:23843   */\n    tag_473:\n        /* \"#utility.yul\":23870:23871   */\n      0x01\n        /* \"#utility.yul\":23863:23868   */\n      dup3\n        /* \"#utility.yul\":23859:23872   */\n      sub\n        /* \"#utility.yul\":23852:23872   */\n      swap1\n      pop\n        /* \"#utility.yul\":23707:23878   */\n      swap2\n      swap1\n      pop\n      jump\t// out\n    stop\n    data_eee2584c38bccf16070da41b3608363c5998430631b4447f0b56c636fabe8d05 5468657265206973206120746965206265747765656e207468652063616e6469646174657321\n\n    auxdata: 0xa26469706673582212202d75bfaa83c364fbd91155f0eb3540b7fec4d96b3cbf8f5a3d58d9c3f499005d64736f6c634300081e0033\n}\n",
				"bytecode": {
					"linkReferences": {},
					"object": "6080604052348015600e575f5ffd5b50335f5f6101000a81548173ffffffffffffffffffffffffffffffffffffffff021916908373ffffffffffffffffffffffffffffffffffffffff16021790555061162f8061005b5f395ff3fe608060405234801561000f575f5ffd5b506004361061007b575f3560e01c80638896fedc116100595780638896fedc146100e75780638da5cb5b14610105578063b2b98ed214610123578063d4b8f48f146101415761007b565b806333070dfb1461007f57806357ccca421461009b578063624a1179146100b7575b5f5ffd5b61009960048036038101906100949190610af6565b61015f565b005b6100b560048036038101906100b09190610b7e565b6101e8565b005b6100d160048036038101906100cc9190610b7e565b61030d565b6040516100de9190610be0565b60405180910390f35b6100ef610340565b6040516100fc9190610c59565b60405180910390f35b61010d610471565b60405161011a9190610cb8565b60405180910390f35b61012b610495565b6040516101389190610c59565b60405180910390f35b61014961073b565b6040516101569190610dd4565b60405180910390f35b5f83838360405160200161017593929190610e4e565b6040516020818303038152906040528051906020012090508060018560405161019e9190610e82565b908152602001604051809103902081905550600384908060018154018082558091505060019003905f5260205f20015f9091909190915090816101e19190611095565b5050505050565b5f336040516020016101fa91906111a9565b6040516020818303038152906040528051906020012090505f5f90505b60048054905081101561028f578160048281548110610239576102386111c3565b5b905f5260205f20015403610282576040517f08c379a00000000000000000000000000000000000000000000000000000000081526004016102799061123a565b60405180910390fd5b8080600101915050610217565b50600481908060018154018082558091505060019003905f5260205f20015f90919091909150556002826040516102c69190610e82565b90815260200160405180910390205f81819054906101000a900460ff16809291906102f090611285565b91906101000a81548160ff021916908360ff160217905550505050565b5f60028260405161031e9190610e82565b90815260200160405180910390205f9054906101000a900460ff169050919050565b60605f60405180602001604052805f81525090505f5f90505b60038054905081101561046957816003828154811061037b5761037a6111c3565b5b905f5260205f20016104396104316003858154811061039d5761039c6111c3565b5b905f5260205f200180546103b090610ec5565b80601f01602080910402602001604051908101604052809291908181526020018280546103dc90610ec5565b80156104275780601f106103fe57610100808354040283529160200191610427565b820191905f5260205f20905b81548152906001019060200180831161040a57829003601f168201915b505050505061030d565b60ff1661080f565b60405160200161044b9392919061140b565b60405160208183030381529060405291508080600101915050610359565b508091505090565b5f5f9054906101000a900473ffffffffffffffffffffffffffffffffffffffff1681565b60605f60035f815481106104ac576104ab6111c3565b5b905f5260205f200180546104bf90610ec5565b80601f01602080910402602001604051908101604052809291908181526020018280546104eb90610ec5565b80156105365780601f1061050d57610100808354040283529160200191610536565b820191905f5260205f20905b81548152906001019060200180831161051957829003601f168201915b505050505090505f5f600190505b60038054905081101561070a57600260038281548110610567576105666111c3565b5b905f5260205f200160405161057c919061145c565b90815260200160405180910390205f9054906101000a900460ff1660ff166002846040516105aa9190610e82565b90815260200160405180910390205f9054906101000a900460ff1660ff16101561067b57600381815481106105e2576105e16111c3565b5b905f5260205f200180546105f590610ec5565b80601f016020809104026020016040519081016040528092919081815260200182805461062190610ec5565b801561066c5780601f106106435761010080835404028352916020019161066c565b820191905f5260205f20905b81548152906001019060200180831161064f57829003601f168201915b505050505092505f91506106fd565b600260038281548110610691576106906111c3565b5b905f5260205f20016040516106a6919061145c565b90815260200160405180910390205f9054906101000a900460ff1660ff166002846040516106d49190610e82565b90815260200160405180910390205f9054906101000a900460ff1660ff16036106fc57600191505b5b8080600101915050610544565b506001151581151503610733576040518060600160405280602681526020016115d46026913991505b819250505090565b60606003805480602002602001604051908101604052809291908181526020015f905b82821015610806578382905f5260205f2001805461077b90610ec5565b80601f01602080910402602001604051908101604052809291908181526020018280546107a790610ec5565b80156107f25780601f106107c9576101008083540402835291602001916107f2565b820191905f5260205f20905b8154815290600101906020018083116107d557829003601f168201915b50505050508152602001906001019061075e565b50505050905090565b60605f8203610855576040518060400160405280600181526020017f30000000000000000000000000000000000000000000000000000000000000008152509050610971565b5f8290505f5b5f821461088457808061086d90611472565b915050600a8261087d91906114e6565b915061085b565b5f8167ffffffffffffffff81111561089f5761089e61099f565b5b6040519080825280601f01601f1916602001820160405280156108d15781602001600182028036833780820191505090505b5090505f6001836108e29190611516565b90505b5f861461096957600a866108f99190611549565b60306109059190611579565b60f81b828280610914906115ac565b935081518110610927576109266111c3565b5b60200101907effffffffffffffffffffffffffffffffffffffffffffffffffffffffffffff191690815f1a905350600a8661096291906114e6565b95506108e5565b819450505050505b919050565b5f604051905090565b5f5ffd5b5f5ffd5b5f5ffd5b5f5ffd5b5f601f19601f8301169050919050565b7f4e487b71000000000000000000000000000000000000000000000000000000005f52604160045260245ffd5b6109d58261098f565b810181811067ffffffffffffffff821117156109f4576109f361099f565b5b80604052505050565b5f610a06610976565b9050610a1282826109cc565b919050565b5f67ffffffffffffffff821115610a3157610a3061099f565b5b610a3a8261098f565b9050602081019050919050565b828183375f83830152505050565b5f610a67610a6284610a17565b6109fd565b905082815260208101848484011115610a8357610a8261098b565b5b610a8e848285610a47565b509392505050565b5f82601f830112610aaa57610aa9610987565b5b8135610aba848260208601610a55565b91505092915050565b5f819050919050565b610ad581610ac3565b8114610adf575f5ffd5b50565b5f81359050610af081610acc565b92915050565b5f5f5f60608486031215610b0d57610b0c61097f565b5b5f84013567ffffffffffffffff811115610b2a57610b29610983565b5b610b3686828701610a96565b9350506020610b4786828701610ae2565b925050604084013567ffffffffffffffff811115610b6857610b67610983565b5b610b7486828701610a96565b9150509250925092565b5f60208284031215610b9357610b9261097f565b5b5f82013567ffffffffffffffff811115610bb057610baf610983565b5b610bbc84828501610a96565b91505092915050565b5f60ff82169050919050565b610bda81610bc5565b82525050565b5f602082019050610bf35f830184610bd1565b92915050565b5f81519050919050565b5f82825260208201905092915050565b8281835e5f83830152505050565b5f610c2b82610bf9565b610c358185610c03565b9350610c45818560208601610c13565b610c4e8161098f565b840191505092915050565b5f6020820190508181035f830152610c718184610c21565b905092915050565b5f73ffffffffffffffffffffffffffffffffffffffff82169050919050565b5f610ca282610c79565b9050919050565b610cb281610c98565b82525050565b5f602082019050610ccb5f830184610ca9565b92915050565b5f81519050919050565b5f82825260208201905092915050565b5f819050602082019050919050565b5f82825260208201905092915050565b5f610d1482610bf9565b610d1e8185610cfa565b9350610d2e818560208601610c13565b610d378161098f565b840191505092915050565b5f610d4d8383610d0a565b905092915050565b5f602082019050919050565b5f610d6b82610cd1565b610d758185610cdb565b935083602082028501610d8785610ceb565b805f5b85811015610dc25784840389528151610da38582610d42565b9450610dae83610d55565b925060208a01995050600181019050610d8a565b50829750879550505050505092915050565b5f6020820190508181035f830152610dec8184610d61565b905092915050565b5f81905092915050565b5f610e0882610bf9565b610e128185610df4565b9350610e22818560208601610c13565b80840191505092915050565b5f819050919050565b610e48610e4382610ac3565b610e2e565b82525050565b5f610e598286610dfe565b9150610e658285610e37565b602082019150610e758284610dfe565b9150819050949350505050565b5f610e8d8284610dfe565b915081905092915050565b7f4e487b71000000000000000000000000000000000000000000000000000000005f52602260045260245ffd5b5f6002820490506001821680610edc57607f821691505b602082108103610eef57610eee610e98565b5b50919050565b5f819050815f5260205f209050919050565b5f6020601f8301049050919050565b5f82821b905092915050565b5f60088302610f517fffffffffffffffffffffffffffffffffffffffffffffffffffffffffffffffff82610f16565b610f5b8683610f16565b95508019841693508086168417925050509392505050565b5f819050919050565b5f610f96610f91610f8c84610ac3565b610f73565b610ac3565b9050919050565b5f819050919050565b610faf83610f7c565b610fc3610fbb82610f9d565b848454610f22565b825550505050565b5f5f905090565b610fda610fcb565b610fe5818484610fa6565b505050565b5b8181101561100857610ffd5f82610fd2565b600181019050610feb565b5050565b601f82111561104d5761101e81610ef5565b61102784610f07565b81016020851015611036578190505b61104a61104285610f07565b830182610fea565b50505b505050565b5f82821c905092915050565b5f61106d5f1984600802611052565b1980831691505092915050565b5f611085838361105e565b9150826002028217905092915050565b61109e82610bf9565b67ffffffffffffffff8111156110b7576110b661099f565b5b6110c18254610ec5565b6110cc82828561100c565b5f60209050601f8311600181146110fd575f84156110eb578287015190505b6110f5858261107a565b86555061115c565b601f19841661110b86610ef5565b5f5b828110156111325784890151825560018201915060208501945060208101905061110d565b8683101561114f578489015161114b601f89168261105e565b8355505b6001600288020188555050505b505050505050565b5f8160601b9050919050565b5f61117a82611164565b9050919050565b5f61118b82611170565b9050919050565b6111a361119e82610c98565b611181565b82525050565b5f6111b48284611192565b60148201915081905092915050565b7f4e487b71000000000000000000000000000000000000000000000000000000005f52603260045260245ffd5b7f566f746520616c726561647920657869737400000000000000000000000000005f82015250565b5f611224601283610c03565b915061122f826111f0565b602082019050919050565b5f6020820190508181035f83015261125181611218565b9050919050565b7f4e487b71000000000000000000000000000000000000000000000000000000005f52601160045260245ffd5b5f61128f82610bc5565b915060ff82036112a2576112a1611258565b5b600182019050919050565b7f28000000000000000000000000000000000000000000000000000000000000005f82015250565b5f6112e1600183610df4565b91506112ec826112ad565b600182019050919050565b5f815461130381610ec5565b61130d8186610df4565b9450600182165f8114611327576001811461133c5761136e565b60ff198316865281151582028601935061136e565b61134585610ef5565b5f5b8381101561136657815481890152600182019150602081019050611347565b838801955050505b50505092915050565b7f2c200000000000000000000000000000000000000000000000000000000000005f82015250565b5f6113ab600283610df4565b91506113b682611377565b600282019050919050565b7f29202d2d2d2d2d000000000000000000000000000000000000000000000000005f82015250565b5f6113f5600783610df4565b9150611400826113c1565b600782019050919050565b5f6114168286610dfe565b9150611421826112d5565b915061142d82856112f7565b91506114388261139f565b91506114448284610dfe565b915061144f826113e9565b9150819050949350505050565b5f61146782846112f7565b915081905092915050565b5f61147c82610ac3565b91507fffffffffffffffffffffffffffffffffffffffffffffffffffffffffffffffff82036114ae576114ad611258565b5b600182019050919050565b7f4e487b71000000000000000000000000000000000000000000000000000000005f52601260045260245ffd5b5f6114f082610ac3565b91506114fb83610ac3565b92508261150b5761150a6114b9565b5b828204905092915050565b5f61152082610ac3565b915061152b83610ac3565b925082820390508181111561154357611542611258565b5b92915050565b5f61155382610ac3565b915061155e83610ac3565b92508261156e5761156d6114b9565b5b828206905092915050565b5f61158382610ac3565b915061158e83610ac3565b92508282019050808211156115a6576115a5611258565b5b92915050565b5f6115b682610ac3565b91505f82036115c8576115c7611258565b5b60018203905091905056fe5468657265206973206120746965206265747765656e207468652063616e6469646174657321a26469706673582212202d75bfaa83c364fbd91155f0eb3540b7fec4d96b3cbf8f5a3d58d9c3f499005d64736f6c634300081e0033",
					"opcodes": "PUSH1 0x80 PUSH1 0x40 MSTORE CALLVALUE DUP1 ISZERO PUSH1 0xE JUMPI PUSH0 PUSH0 REVERT JUMPDEST POP CALLER PUSH0 PUSH0 PUSH2 0x100 EXP DUP2 SLOAD DUP2 PUSH20 0xFFFFFFFFFFFFFFFFFFFFFFFFFFFFFFFFFFFFFFFF MUL NOT AND SWAP1 DUP4 PUSH20 0xFFFFFFFFFFFFFFFFFFFFFFFFFFFFFFFFFFFFFFFF AND MUL OR SWAP1 SSTORE POP PUSH2 0x162F DUP1 PUSH2 0x5B PUSH0 CODECOPY PUSH0 RETURN INVALID PUSH1 0x80 PUSH1 0x40 MSTORE CALLVALUE DUP1 ISZERO PUSH2 0xF JUMPI PUSH0 PUSH0 REVERT JUMPDEST POP PUSH1 0x4 CALLDATASIZE LT PUSH2 0x7B JUMPI PUSH0 CALLDATALOAD PUSH1 0xE0 SHR DUP1 PUSH4 0x8896FEDC GT PUSH2 0x59 JUMPI DUP1 PUSH4 0x8896FEDC EQ PUSH2 0xE7 JUMPI DUP1 PUSH4 0x8DA5CB5B EQ PUSH2 0x105 JUMPI DUP1 PUSH4 0xB2B98ED2 EQ PUSH2 0x123 JUMPI DUP1 PUSH4 0xD4B8F48F EQ PUSH2 0x141 JUMPI PUSH2 0x7B JUMP JUMPDEST DUP1 PUSH4 0x33070DFB EQ PUSH2 0x7F JUMPI DUP1 PUSH4 0x57CCCA42 EQ PUSH2 0x9B JUMPI DUP1 PUSH4 0x624A1179 EQ PUSH2 0xB7 JUMPI JUMPDEST PUSH0 PUSH0 REVERT JUMPDEST PUSH2 0x99 PUSH1 0x4 DUP1 CALLDATASIZE SUB DUP2 ADD SWAP1 PUSH2 0x94 SWAP2 SWAP1 PUSH2 0xAF6 JUMP JUMPDEST PUSH2 0x15F JUMP JUMPDEST STOP JUMPDEST PUSH2 0xB5 PUSH1 0x4 DUP1 CALLDATASIZE SUB DUP2 ADD SWAP1 PUSH2 0xB0 SWAP2 SWAP1 PUSH2 0xB7E JUMP JUMPDEST PUSH2 0x1E8 JUMP JUMPDEST STOP JUMPDEST PUSH2 0xD1 PUSH1 0x4 DUP1 CALLDATASIZE SUB DUP2 ADD SWAP1 PUSH2 0xCC SWAP2 SWAP1 PUSH2 0xB7E JUMP JUMPDEST PUSH2 0x30D JUMP JUMPDEST PUSH1 0x40 MLOAD PUSH2 0xDE SWAP2 SWAP1 PUSH2 0xBE0 JUMP JUMPDEST PUSH1 0x40 MLOAD DUP1 SWAP2 SUB SWAP1 RETURN JUMPDEST PUSH2 0xEF PUSH2 0x340 JUMP JUMPDEST PUSH1 0x40 MLOAD PUSH2 0xFC SWAP2 SWAP1 PUSH2 0xC59 JUMP JUMPDEST PUSH1 0x40 MLOAD DUP1 SWAP2 SUB SWAP1 RETURN JUMPDEST PUSH2 0x10D PUSH2 0x471 JUMP JUMPDEST PUSH1 0x40 MLOAD PUSH2 0x11A SWAP2 SWAP1 PUSH2 0xCB8 JUMP JUMPDEST PUSH1 0x40 MLOAD DUP1 SWAP2 SUB SWAP1 RETURN JUMPDEST PUSH2 0x12B PUSH2 0x495 JUMP JUMPDEST PUSH1 0x40 MLOAD PUSH2 0x138 SWAP2 SWAP1 PUSH2 0xC59 JUMP JUMPDEST PUSH1 0x40 MLOAD DUP1 SWAP2 SUB SWAP1 RETURN JUMPDEST PUSH2 0x149 PUSH2 0x73B JUMP JUMPDEST PUSH1 0x40 MLOAD PUSH2 0x156 SWAP2 SWAP1 PUSH2 0xDD4 JUMP JUMPDEST PUSH1 0x40 MLOAD DUP1 SWAP2 SUB SWAP1 RETURN JUMPDEST PUSH0 DUP4 DUP4 DUP4 PUSH1 0x40 MLOAD PUSH1 0x20 ADD PUSH2 0x175 SWAP4 SWAP3 SWAP2 SWAP1 PUSH2 0xE4E JUMP JUMPDEST PUSH1 0x40 MLOAD PUSH1 0x20 DUP2 DUP4 SUB SUB DUP2 MSTORE SWAP1 PUSH1 0x40 MSTORE DUP1 MLOAD SWAP1 PUSH1 0x20 ADD KECCAK256 SWAP1 POP DUP1 PUSH1 0x1 DUP6 PUSH1 0x40 MLOAD PUSH2 0x19E SWAP2 SWAP1 PUSH2 0xE82 JUMP JUMPDEST SWAP1 DUP2 MSTORE PUSH1 0x20 ADD PUSH1 0x40 MLOAD DUP1 SWAP2 SUB SWAP1 KECCAK256 DUP2 SWAP1 SSTORE POP PUSH1 0x3 DUP5 SWAP1 DUP1 PUSH1 0x1 DUP2 SLOAD ADD DUP1 DUP3 SSTORE DUP1 SWAP2 POP POP PUSH1 0x1 SWAP1 SUB SWAP1 PUSH0 MSTORE PUSH1 0x20 PUSH0 KECCAK256 ADD PUSH0 SWAP1 SWAP2 SWAP1 SWAP2 SWAP1 SWAP2 POP SWAP1 DUP2 PUSH2 0x1E1 SWAP2 SWAP1 PUSH2 0x1095 JUMP JUMPDEST POP POP POP POP POP JUMP JUMPDEST PUSH0 CALLER PUSH1 0x40 MLOAD PUSH1 0x20 ADD PUSH2 0x1FA SWAP2 SWAP1 PUSH2 0x11A9 JUMP JUMPDEST PUSH1 0x40 MLOAD PUSH1 0x20 DUP2 DUP4 SUB SUB DUP2 MSTORE SWAP1 PUSH1 0x40 MSTORE DUP1 MLOAD SWAP1 PUSH1 0x20 ADD KECCAK256 SWAP1 POP PUSH0 PUSH0 SWAP1 POP JUMPDEST PUSH1 0x4 DUP1 SLOAD SWAP1 POP DUP2 LT ISZERO PUSH2 0x28F JUMPI DUP2 PUSH1 0x4 DUP3 DUP2 SLOAD DUP2 LT PUSH2 0x239 JUMPI PUSH2 0x238 PUSH2 0x11C3 JUMP JUMPDEST JUMPDEST SWAP1 PUSH0 MSTORE PUSH1 0x20 PUSH0 KECCAK256 ADD SLOAD SUB PUSH2 0x282 JUMPI PUSH1 0x40 MLOAD PUSH32 0x8C379A000000000000000000000000000000000000000000000000000000000 DUP2 MSTORE PUSH1 0x4 ADD PUSH2 0x279 SWAP1 PUSH2 0x123A JUMP JUMPDEST PUSH1 0x40 MLOAD DUP1 SWAP2 SUB SWAP1 REVERT JUMPDEST DUP1 DUP1 PUSH1 0x1 ADD SWAP2 POP POP PUSH2 0x217 JUMP JUMPDEST POP PUSH1 0x4 DUP2 SWAP1 DUP1 PUSH1 0x1 DUP2 SLOAD ADD DUP1 DUP3 SSTORE DUP1 SWAP2 POP POP PUSH1 0x1 SWAP1 SUB SWAP1 PUSH0 MSTORE PUSH1 0x20 PUSH0 KECCAK256 ADD PUSH0 SWAP1 SWAP2 SWAP1 SWAP2 SWAP1 SWAP2 POP SSTORE PUSH1 0x2 DUP3 PUSH1 0x40 MLOAD PUSH2 0x2C6 SWAP2 SWAP1 PUSH2 0xE82 JUMP JUMPDEST SWAP1 DUP2 MSTORE PUSH1 0x20 ADD PUSH1 0x40 MLOAD DUP1 SWAP2 SUB SWAP1 KECCAK256 PUSH0 DUP2 DUP2 SWAP1 SLOAD SWAP1 PUSH2 0x100 EXP SWAP1 DIV PUSH1 0xFF AND DUP1 SWAP3 SWAP2 SWAP1 PUSH2 0x2F0 SWAP1 PUSH2 0x1285 JUMP JUMPDEST SWAP2 SWAP1 PUSH2 0x100 EXP DUP2 SLOAD DUP2 PUSH1 0xFF MUL NOT AND SWAP1 DUP4 PUSH1 0xFF AND MUL OR SWAP1 SSTORE POP POP POP POP JUMP JUMPDEST PUSH0 PUSH1 0x2 DUP3 PUSH1 0x40 MLOAD PUSH2 0x31E SWAP2 SWAP1 PUSH2 0xE82 JUMP JUMPDEST SWAP1 DUP2 MSTORE PUSH1 0x20 ADD PUSH1 0x40 MLOAD DUP1 SWAP2 SUB SWAP1 KECCAK256 PUSH0 SWAP1 SLOAD SWAP1 PUSH2 0x100 EXP SWAP1 DIV PUSH1 0xFF AND SWAP1 POP SWAP2 SWAP1 POP JUMP JUMPDEST PUSH1 0x60 PUSH0 PUSH1 0x40 MLOAD DUP1 PUSH1 0x20 ADD PUSH1 0x40 MSTORE DUP1 PUSH0 DUP2 MSTORE POP SWAP1 POP PUSH0 PUSH0 SWAP1 POP JUMPDEST PUSH1 0x3 DUP1 SLOAD SWAP1 POP DUP2 LT ISZERO PUSH2 0x469 JUMPI DUP2 PUSH1 0x3 DUP3 DUP2 SLOAD DUP2 LT PUSH2 0x37B JUMPI PUSH2 0x37A PUSH2 0x11C3 JUMP JUMPDEST JUMPDEST SWAP1 PUSH0 MSTORE PUSH1 0x20 PUSH0 KECCAK256 ADD PUSH2 0x439 PUSH2 0x431 PUSH1 0x3 DUP6 DUP2 SLOAD DUP2 LT PUSH2 0x39D JUMPI PUSH2 0x39C PUSH2 0x11C3 JUMP JUMPDEST JUMPDEST SWAP1 PUSH0 MSTORE PUSH1 0x20 PUSH0 KECCAK256 ADD DUP1 SLOAD PUSH2 0x3B0 SWAP1 PUSH2 0xEC5 JUMP JUMPDEST DUP1 PUSH1 0x1F ADD PUSH1 0x20 DUP1 SWAP2 DIV MUL PUSH1 0x20 ADD PUSH1 0x40 MLOAD SWAP1 DUP2 ADD PUSH1 0x40 MSTORE DUP1 SWAP3 SWAP2 SWAP1 DUP2 DUP2 MSTORE PUSH1 0x20 ADD DUP3 DUP1 SLOAD PUSH2 0x3DC SWAP1 PUSH2 0xEC5 JUMP JUMPDEST DUP1 ISZERO PUSH2 0x427 JUMPI DUP1 PUSH1 0x1F LT PUSH2 0x3FE JUMPI PUSH2 0x100 DUP1 DUP4 SLOAD DIV MUL DUP4 MSTORE SWAP2 PUSH1 0x20 ADD SWAP2 PUSH2 0x427 JUMP JUMPDEST DUP3 ADD SWAP2 SWAP1 PUSH0 MSTORE PUSH1 0x20 PUSH0 KECCAK256 SWAP1 JUMPDEST DUP2 SLOAD DUP2 MSTORE SWAP1 PUSH1 0x1 ADD SWAP1 PUSH1 0x20 ADD DUP1 DUP4 GT PUSH2 0x40A JUMPI DUP3 SWAP1 SUB PUSH1 0x1F AND DUP3 ADD SWAP2 JUMPDEST POP POP POP POP POP PUSH2 0x30D JUMP JUMPDEST PUSH1 0xFF AND PUSH2 0x80F JUMP JUMPDEST PUSH1 0x40 MLOAD PUSH1 0x20 ADD PUSH2 0x44B SWAP4 SWAP3 SWAP2 SWAP1 PUSH2 0x140B JUMP JUMPDEST PUSH1 0x40 MLOAD PUSH1 0x20 DUP2 DUP4 SUB SUB DUP2 MSTORE SWAP1 PUSH1 0x40 MSTORE SWAP2 POP DUP1 DUP1 PUSH1 0x1 ADD SWAP2 POP POP PUSH2 0x359 JUMP JUMPDEST POP DUP1 SWAP2 POP POP SWAP1 JUMP JUMPDEST PUSH0 PUSH0 SWAP1 SLOAD SWAP1 PUSH2 0x100 EXP SWAP1 DIV PUSH20 0xFFFFFFFFFFFFFFFFFFFFFFFFFFFFFFFFFFFFFFFF AND DUP2 JUMP JUMPDEST PUSH1 0x60 PUSH0 PUSH1 0x3 PUSH0 DUP2 SLOAD DUP2 LT PUSH2 0x4AC JUMPI PUSH2 0x4AB PUSH2 0x11C3 JUMP JUMPDEST JUMPDEST SWAP1 PUSH0 MSTORE PUSH1 0x20 PUSH0 KECCAK256 ADD DUP1 SLOAD PUSH2 0x4BF SWAP1 PUSH2 0xEC5 JUMP JUMPDEST DUP1 PUSH1 0x1F ADD PUSH1 0x20 DUP1 SWAP2 DIV MUL PUSH1 0x20 ADD PUSH1 0x40 MLOAD SWAP1 DUP2 ADD PUSH1 0x40 MSTORE DUP1 SWAP3 SWAP2 SWAP1 DUP2 DUP2 MSTORE PUSH1 0x20 ADD DUP3 DUP1 SLOAD PUSH2 0x4EB SWAP1 PUSH2 0xEC5 JUMP JUMPDEST DUP1 ISZERO PUSH2 0x536 JUMPI DUP1 PUSH1 0x1F LT PUSH2 0x50D JUMPI PUSH2 0x100 DUP1 DUP4 SLOAD DIV MUL DUP4 MSTORE SWAP2 PUSH1 0x20 ADD SWAP2 PUSH2 0x536 JUMP JUMPDEST DUP3 ADD SWAP2 SWAP1 PUSH0 MSTORE PUSH1 0x20 PUSH0 KECCAK256 SWAP1 JUMPDEST DUP2 SLOAD DUP2 MSTORE SWAP1 PUSH1 0x1 ADD SWAP1 PUSH1 0x20 ADD DUP1 DUP4 GT PUSH2 0x519 JUMPI DUP3 SWAP1 SUB PUSH1 0x1F AND DUP3 ADD SWAP2 JUMPDEST POP POP POP POP POP SWAP1 POP PUSH0 PUSH0 PUSH1 0x1 SWAP1 POP JUMPDEST PUSH1 0x3 DUP1 SLOAD SWAP1 POP DUP2 LT ISZERO PUSH2 0x70A JUMPI PUSH1 0x2 PUSH1 0x3 DUP3 DUP2 SLOAD DUP2 LT PUSH2 0x567 JUMPI PUSH2 0x566 PUSH2 0x11C3 JUMP JUMPDEST JUMPDEST SWAP1 PUSH0 MSTORE PUSH1 0x20 PUSH0 KECCAK256 ADD PUSH1 0x40 MLOAD PUSH2 0x57C SWAP2 SWAP1 PUSH2 0x145C JUMP JUMPDEST SWAP1 DUP2 MSTORE PUSH1 0x20 ADD PUSH1 0x40 MLOAD DUP1 SWAP2 SUB SWAP1 KECCAK256 PUSH0 SWAP1 SLOAD SWAP1 PUSH2 0x100 EXP SWAP1 DIV PUSH1 0xFF AND PUSH1 0xFF AND PUSH1 0x2 DUP5 PUSH1 0x40 MLOAD PUSH2 0x5AA SWAP2 SWAP1 PUSH2 0xE82 JUMP JUMPDEST SWAP1 DUP2 MSTORE PUSH1 0x20 ADD PUSH1 0x40 MLOAD DUP1 SWAP2 SUB SWAP1 KECCAK256 PUSH0 SWAP1 SLOAD SWAP1 PUSH2 0x100 EXP SWAP1 DIV PUSH1 0xFF AND PUSH1 0xFF AND LT ISZERO PUSH2 0x67B JUMPI PUSH1 0x3 DUP2 DUP2 SLOAD DUP2 LT PUSH2 0x5E2 JUMPI PUSH2 0x5E1 PUSH2 0x11C3 JUMP JUMPDEST JUMPDEST SWAP1 PUSH0 MSTORE PUSH1 0x20 PUSH0 KECCAK256 ADD DUP1 SLOAD PUSH2 0x5F5 SWAP1 PUSH2 0xEC5 JUMP JUMPDEST DUP1 PUSH1 0x1F ADD PUSH1 0x20 DUP1 SWAP2 DIV MUL PUSH1 0x20 ADD PUSH1 0x40 MLOAD SWAP1 DUP2 ADD PUSH1 0x40 MSTORE DUP1 SWAP3 SWAP2 SWAP1 DUP2 DUP2 MSTORE PUSH1 0x20 ADD DUP3 DUP1 SLOAD PUSH2 0x621 SWAP1 PUSH2 0xEC5 JUMP JUMPDEST DUP1 ISZERO PUSH2 0x66C JUMPI DUP1 PUSH1 0x1F LT PUSH2 0x643 JUMPI PUSH2 0x100 DUP1 DUP4 SLOAD DIV MUL DUP4 MSTORE SWAP2 PUSH1 0x20 ADD SWAP2 PUSH2 0x66C JUMP JUMPDEST DUP3 ADD SWAP2 SWAP1 PUSH0 MSTORE PUSH1 0x20 PUSH0 KECCAK256 SWAP1 JUMPDEST DUP2 SLOAD DUP2 MSTORE SWAP1 PUSH1 0x1 ADD SWAP1 PUSH1 0x20 ADD DUP1 DUP4 GT PUSH2 0x64F JUMPI DUP3 SWAP1 SUB PUSH1 0x1F AND DUP3 ADD SWAP2 JUMPDEST POP POP POP POP POP SWAP3 POP PUSH0 SWAP2 POP PUSH2 0x6FD JUMP JUMPDEST PUSH1 0x2 PUSH1 0x3 DUP3 DUP2 SLOAD DUP2 LT PUSH2 0x691 JUMPI PUSH2 0x690 PUSH2 0x11C3 JUMP JUMPDEST JUMPDEST SWAP1 PUSH0 MSTORE PUSH1 0x20 PUSH0 KECCAK256 ADD PUSH1 0x40 MLOAD PUSH2 0x6A6 SWAP2 SWAP1 PUSH2 0x145C JUMP JUMPDEST SWAP1 DUP2 MSTORE PUSH1 0x20 ADD PUSH1 0x40 MLOAD DUP1 SWAP2 SUB SWAP1 KECCAK256 PUSH0 SWAP1 SLOAD SWAP1 PUSH2 0x100 EXP SWAP1 DIV PUSH1 0xFF AND PUSH1 0xFF AND PUSH1 0x2 DUP5 PUSH1 0x40 MLOAD PUSH2 0x6D4 SWAP2 SWAP1 PUSH2 0xE82 JUMP JUMPDEST SWAP1 DUP2 MSTORE PUSH1 0x20 ADD PUSH1 0x40 MLOAD DUP1 SWAP2 SUB SWAP1 KECCAK256 PUSH0 SWAP1 SLOAD SWAP1 PUSH2 0x100 EXP SWAP1 DIV PUSH1 0xFF AND PUSH1 0xFF AND SUB PUSH2 0x6FC JUMPI PUSH1 0x1 SWAP2 POP JUMPDEST JUMPDEST DUP1 DUP1 PUSH1 0x1 ADD SWAP2 POP POP PUSH2 0x544 JUMP JUMPDEST POP PUSH1 0x1 ISZERO ISZERO DUP2 ISZERO ISZERO SUB PUSH2 0x733 JUMPI PUSH1 0x40 MLOAD DUP1 PUSH1 0x60 ADD PUSH1 0x40 MSTORE DUP1 PUSH1 0x26 DUP2 MSTORE PUSH1 0x20 ADD PUSH2 0x15D4 PUSH1 0x26 SWAP2 CODECOPY SWAP2 POP JUMPDEST DUP2 SWAP3 POP POP POP SWAP1 JUMP JUMPDEST PUSH1 0x60 PUSH1 0x3 DUP1 SLOAD DUP1 PUSH1 0x20 MUL PUSH1 0x20 ADD PUSH1 0x40 MLOAD SWAP1 DUP2 ADD PUSH1 0x40 MSTORE DUP1 SWAP3 SWAP2 SWAP1 DUP2 DUP2 MSTORE PUSH1 0x20 ADD PUSH0 SWAP1 JUMPDEST DUP3 DUP3 LT ISZERO PUSH2 0x806 JUMPI DUP4 DUP3 SWAP1 PUSH0 MSTORE PUSH1 0x20 PUSH0 KECCAK256 ADD DUP1 SLOAD PUSH2 0x77B SWAP1 PUSH2 0xEC5 JUMP JUMPDEST DUP1 PUSH1 0x1F ADD PUSH1 0x20 DUP1 SWAP2 DIV MUL PUSH1 0x20 ADD PUSH1 0x40 MLOAD SWAP1 DUP2 ADD PUSH1 0x40 MSTORE DUP1 SWAP3 SWAP2 SWAP1 DUP2 DUP2 MSTORE PUSH1 0x20 ADD DUP3 DUP1 SLOAD PUSH2 0x7A7 SWAP1 PUSH2 0xEC5 JUMP JUMPDEST DUP1 ISZERO PUSH2 0x7F2 JUMPI DUP1 PUSH1 0x1F LT PUSH2 0x7C9 JUMPI PUSH2 0x100 DUP1 DUP4 SLOAD DIV MUL DUP4 MSTORE SWAP2 PUSH1 0x20 ADD SWAP2 PUSH2 0x7F2 JUMP JUMPDEST DUP3 ADD SWAP2 SWAP1 PUSH0 MSTORE PUSH1 0x20 PUSH0 KECCAK256 SWAP1 JUMPDEST DUP2 SLOAD DUP2 MSTORE SWAP1 PUSH1 0x1 ADD SWAP1 PUSH1 0x20 ADD DUP1 DUP4 GT PUSH2 0x7D5 JUMPI DUP3 SWAP1 SUB PUSH1 0x1F AND DUP3 ADD SWAP2 JUMPDEST POP POP POP POP POP DUP2 MSTORE PUSH1 0x20 ADD SWAP1 PUSH1 0x1 ADD SWAP1 PUSH2 0x75E JUMP JUMPDEST POP POP POP POP SWAP1 POP SWAP1 JUMP JUMPDEST PUSH1 0x60 PUSH0 DUP3 SUB PUSH2 0x855 JUMPI PUSH1 0x40 MLOAD DUP1 PUSH1 0x40 ADD PUSH1 0x40 MSTORE DUP1 PUSH1 0x1 DUP2 MSTORE PUSH1 0x20 ADD PUSH32 0x3000000000000000000000000000000000000000000000000000000000000000 DUP2 MSTORE POP SWAP1 POP PUSH2 0x971 JUMP JUMPDEST PUSH0 DUP3 SWAP1 POP PUSH0 JUMPDEST PUSH0 DUP3 EQ PUSH2 0x884 JUMPI DUP1 DUP1 PUSH2 0x86D SWAP1 PUSH2 0x1472 JUMP JUMPDEST SWAP2 POP POP PUSH1 0xA DUP3 PUSH2 0x87D SWAP2 SWAP1 PUSH2 0x14E6 JUMP JUMPDEST SWAP2 POP PUSH2 0x85B JUMP JUMPDEST PUSH0 DUP2 PUSH8 0xFFFFFFFFFFFFFFFF DUP2 GT ISZERO PUSH2 0x89F JUMPI PUSH2 0x89E PUSH2 0x99F JUMP JUMPDEST JUMPDEST PUSH1 0x40 MLOAD SWAP1 DUP1 DUP3 MSTORE DUP1 PUSH1 0x1F ADD PUSH1 0x1F NOT AND PUSH1 0x20 ADD DUP3 ADD PUSH1 0x40 MSTORE DUP1 ISZERO PUSH2 0x8D1 JUMPI DUP2 PUSH1 0x20 ADD PUSH1 0x1 DUP3 MUL DUP1 CALLDATASIZE DUP4 CALLDATACOPY DUP1 DUP3 ADD SWAP2 POP POP SWAP1 POP JUMPDEST POP SWAP1 POP PUSH0 PUSH1 0x1 DUP4 PUSH2 0x8E2 SWAP2 SWAP1 PUSH2 0x1516 JUMP JUMPDEST SWAP1 POP JUMPDEST PUSH0 DUP7 EQ PUSH2 0x969 JUMPI PUSH1 0xA DUP7 PUSH2 0x8F9 SWAP2 SWAP1 PUSH2 0x1549 JUMP JUMPDEST PUSH1 0x30 PUSH2 0x905 SWAP2 SWAP1 PUSH2 0x1579 JUMP JUMPDEST PUSH1 0xF8 SHL DUP3 DUP3 DUP1 PUSH2 0x914 SWAP1 PUSH2 0x15AC JUMP JUMPDEST SWAP4 POP DUP2 MLOAD DUP2 LT PUSH2 0x927 JUMPI PUSH2 0x926 PUSH2 0x11C3 JUMP JUMPDEST JUMPDEST PUSH1 0x20 ADD ADD SWAP1 PUSH31 0xFFFFFFFFFFFFFFFFFFFFFFFFFFFFFFFFFFFFFFFFFFFFFFFFFFFFFFFFFFFFFF NOT AND SWAP1 DUP2 PUSH0 BYTE SWAP1 MSTORE8 POP PUSH1 0xA DUP7 PUSH2 0x962 SWAP2 SWAP1 PUSH2 0x14E6 JUMP JUMPDEST SWAP6 POP PUSH2 0x8E5 JUMP JUMPDEST DUP2 SWAP5 POP POP POP POP POP JUMPDEST SWAP2 SWAP1 POP JUMP JUMPDEST PUSH0 PUSH1 0x40 MLOAD SWAP1 POP SWAP1 JUMP JUMPDEST PUSH0 PUSH0 REVERT JUMPDEST PUSH0 PUSH0 REVERT JUMPDEST PUSH0 PUSH0 REVERT JUMPDEST PUSH0 PUSH0 REVERT JUMPDEST PUSH0 PUSH1 0x1F NOT PUSH1 0x1F DUP4 ADD AND SWAP1 POP SWAP2 SWAP1 POP JUMP JUMPDEST PUSH32 0x4E487B7100000000000000000000000000000000000000000000000000000000 PUSH0 MSTORE PUSH1 0x41 PUSH1 0x4 MSTORE PUSH1 0x24 PUSH0 REVERT JUMPDEST PUSH2 0x9D5 DUP3 PUSH2 0x98F JUMP JUMPDEST DUP2 ADD DUP2 DUP2 LT PUSH8 0xFFFFFFFFFFFFFFFF DUP3 GT OR ISZERO PUSH2 0x9F4 JUMPI PUSH2 0x9F3 PUSH2 0x99F JUMP JUMPDEST JUMPDEST DUP1 PUSH1 0x40 MSTORE POP POP POP JUMP JUMPDEST PUSH0 PUSH2 0xA06 PUSH2 0x976 JUMP JUMPDEST SWAP1 POP PUSH2 0xA12 DUP3 DUP3 PUSH2 0x9CC JUMP JUMPDEST SWAP2 SWAP1 POP JUMP JUMPDEST PUSH0 PUSH8 0xFFFFFFFFFFFFFFFF DUP3 GT ISZERO PUSH2 0xA31 JUMPI PUSH2 0xA30 PUSH2 0x99F JUMP JUMPDEST JUMPDEST PUSH2 0xA3A DUP3 PUSH2 0x98F JUMP JUMPDEST SWAP1 POP PUSH1 0x20 DUP2 ADD SWAP1 POP SWAP2 SWAP1 POP JUMP JUMPDEST DUP3 DUP2 DUP4 CALLDATACOPY PUSH0 DUP4 DUP4 ADD MSTORE POP POP POP JUMP JUMPDEST PUSH0 PUSH2 0xA67 PUSH2 0xA62 DUP5 PUSH2 0xA17 JUMP JUMPDEST PUSH2 0x9FD JUMP JUMPDEST SWAP1 POP DUP3 DUP2 MSTORE PUSH1 0x20 DUP2 ADD DUP5 DUP5 DUP5 ADD GT ISZERO PUSH2 0xA83 JUMPI PUSH2 0xA82 PUSH2 0x98B JUMP JUMPDEST JUMPDEST PUSH2 0xA8E DUP5 DUP3 DUP6 PUSH2 0xA47 JUMP JUMPDEST POP SWAP4 SWAP3 POP POP POP JUMP JUMPDEST PUSH0 DUP3 PUSH1 0x1F DUP4 ADD SLT PUSH2 0xAAA JUMPI PUSH2 0xAA9 PUSH2 0x987 JUMP JUMPDEST JUMPDEST DUP2 CALLDATALOAD PUSH2 0xABA DUP5 DUP3 PUSH1 0x20 DUP7 ADD PUSH2 0xA55 JUMP JUMPDEST SWAP2 POP POP SWAP3 SWAP2 POP POP JUMP JUMPDEST PUSH0 DUP2 SWAP1 POP SWAP2 SWAP1 POP JUMP JUMPDEST PUSH2 0xAD5 DUP2 PUSH2 0xAC3 JUMP JUMPDEST DUP2 EQ PUSH2 0xADF JUMPI PUSH0 PUSH0 REVERT JUMPDEST POP JUMP JUMPDEST PUSH0 DUP2 CALLDATALOAD SWAP1 POP PUSH2 0xAF0 DUP2 PUSH2 0xACC JUMP JUMPDEST SWAP3 SWAP2 POP POP JUMP JUMPDEST PUSH0 PUSH0 PUSH0 PUSH1 0x60 DUP5 DUP7 SUB SLT ISZERO PUSH2 0xB0D JUMPI PUSH2 0xB0C PUSH2 0x97F JUMP JUMPDEST JUMPDEST PUSH0 DUP5 ADD CALLDATALOAD PUSH8 0xFFFFFFFFFFFFFFFF DUP2 GT ISZERO PUSH2 0xB2A JUMPI PUSH2 0xB29 PUSH2 0x983 JUMP JUMPDEST JUMPDEST PUSH2 0xB36 DUP7 DUP3 DUP8 ADD PUSH2 0xA96 JUMP JUMPDEST SWAP4 POP POP PUSH1 0x20 PUSH2 0xB47 DUP7 DUP3 DUP8 ADD PUSH2 0xAE2 JUMP JUMPDEST SWAP3 POP POP PUSH1 0x40 DUP5 ADD CALLDATALOAD PUSH8 0xFFFFFFFFFFFFFFFF DUP2 GT ISZERO PUSH2 0xB68 JUMPI PUSH2 0xB67 PUSH2 0x983 JUMP JUMPDEST JUMPDEST PUSH2 0xB74 DUP7 DUP3 DUP8 ADD PUSH2 0xA96 JUMP JUMPDEST SWAP2 POP POP SWAP3 POP SWAP3 POP SWAP3 JUMP JUMPDEST PUSH0 PUSH1 0x20 DUP3 DUP5 SUB SLT ISZERO PUSH2 0xB93 JUMPI PUSH2 0xB92 PUSH2 0x97F JUMP JUMPDEST JUMPDEST PUSH0 DUP3 ADD CALLDATALOAD PUSH8 0xFFFFFFFFFFFFFFFF DUP2 GT ISZERO PUSH2 0xBB0 JUMPI PUSH2 0xBAF PUSH2 0x983 JUMP JUMPDEST JUMPDEST PUSH2 0xBBC DUP5 DUP3 DUP6 ADD PUSH2 0xA96 JUMP JUMPDEST SWAP2 POP POP SWAP3 SWAP2 POP POP JUMP JUMPDEST PUSH0 PUSH1 0xFF DUP3 AND SWAP1 POP SWAP2 SWAP1 POP JUMP JUMPDEST PUSH2 0xBDA DUP2 PUSH2 0xBC5 JUMP JUMPDEST DUP3 MSTORE POP POP JUMP JUMPDEST PUSH0 PUSH1 0x20 DUP3 ADD SWAP1 POP PUSH2 0xBF3 PUSH0 DUP4 ADD DUP5 PUSH2 0xBD1 JUMP JUMPDEST SWAP3 SWAP2 POP POP JUMP JUMPDEST PUSH0 DUP2 MLOAD SWAP1 POP SWAP2 SWAP1 POP JUMP JUMPDEST PUSH0 DUP3 DUP3 MSTORE PUSH1 0x20 DUP3 ADD SWAP1 POP SWAP3 SWAP2 POP POP JUMP JUMPDEST DUP3 DUP2 DUP4 MCOPY PUSH0 DUP4 DUP4 ADD MSTORE POP POP POP JUMP JUMPDEST PUSH0 PUSH2 0xC2B DUP3 PUSH2 0xBF9 JUMP JUMPDEST PUSH2 0xC35 DUP2 DUP6 PUSH2 0xC03 JUMP JUMPDEST SWAP4 POP PUSH2 0xC45 DUP2 DUP6 PUSH1 0x20 DUP7 ADD PUSH2 0xC13 JUMP JUMPDEST PUSH2 0xC4E DUP2 PUSH2 0x98F JUMP JUMPDEST DUP5 ADD SWAP2 POP POP SWAP3 SWAP2 POP POP JUMP JUMPDEST PUSH0 PUSH1 0x20 DUP3 ADD SWAP1 POP DUP2 DUP2 SUB PUSH0 DUP4 ADD MSTORE PUSH2 0xC71 DUP2 DUP5 PUSH2 0xC21 JUMP JUMPDEST SWAP1 POP SWAP3 SWAP2 POP POP JUMP JUMPDEST PUSH0 PUSH20 0xFFFFFFFFFFFFFFFFFFFFFFFFFFFFFFFFFFFFFFFF DUP3 AND SWAP1 POP SWAP2 SWAP1 POP JUMP JUMPDEST PUSH0 PUSH2 0xCA2 DUP3 PUSH2 0xC79 JUMP JUMPDEST SWAP1 POP SWAP2 SWAP1 POP JUMP JUMPDEST PUSH2 0xCB2 DUP2 PUSH2 0xC98 JUMP JUMPDEST DUP3 MSTORE POP POP JUMP JUMPDEST PUSH0 PUSH1 0x20 DUP3 ADD SWAP1 POP PUSH2 0xCCB PUSH0 DUP4 ADD DUP5 PUSH2 0xCA9 JUMP JUMPDEST SWAP3 SWAP2 POP POP JUMP JUMPDEST PUSH0 DUP2 MLOAD SWAP1 POP SWAP2 SWAP1 POP JUMP JUMPDEST PUSH0 DUP3 DUP3 MSTORE PUSH1 0x20 DUP3 ADD SWAP1 POP SWAP3 SWAP2 POP POP JUMP JUMPDEST PUSH0 DUP2 SWAP1 POP PUSH1 0x20 DUP3 ADD SWAP1 POP SWAP2 SWAP1 POP JUMP JUMPDEST PUSH0 DUP3 DUP3 MSTORE PUSH1 0x20 DUP3 ADD SWAP1 POP SWAP3 SWAP2 POP POP JUMP JUMPDEST PUSH0 PUSH2 0xD14 DUP3 PUSH2 0xBF9 JUMP JUMPDEST PUSH2 0xD1E DUP2 DUP6 PUSH2 0xCFA JUMP JUMPDEST SWAP4 POP PUSH2 0xD2E DUP2 DUP6 PUSH1 0x20 DUP7 ADD PUSH2 0xC13 JUMP JUMPDEST PUSH2 0xD37 DUP2 PUSH2 0x98F JUMP JUMPDEST DUP5 ADD SWAP2 POP POP SWAP3 SWAP2 POP POP JUMP JUMPDEST PUSH0 PUSH2 0xD4D DUP4 DUP4 PUSH2 0xD0A JUMP JUMPDEST SWAP1 POP SWAP3 SWAP2 POP POP JUMP JUMPDEST PUSH0 PUSH1 0x20 DUP3 ADD SWAP1 POP SWAP2 SWAP1 POP JUMP JUMPDEST PUSH0 PUSH2 0xD6B DUP3 PUSH2 0xCD1 JUMP JUMPDEST PUSH2 0xD75 DUP2 DUP6 PUSH2 0xCDB JUMP JUMPDEST SWAP4 POP DUP4 PUSH1 0x20 DUP3 MUL DUP6 ADD PUSH2 0xD87 DUP6 PUSH2 0xCEB JUMP JUMPDEST DUP1 PUSH0 JUMPDEST DUP6 DUP2 LT ISZERO PUSH2 0xDC2 JUMPI DUP5 DUP5 SUB DUP10 MSTORE DUP2 MLOAD PUSH2 0xDA3 DUP6 DUP3 PUSH2 0xD42 JUMP JUMPDEST SWAP5 POP PUSH2 0xDAE DUP4 PUSH2 0xD55 JUMP JUMPDEST SWAP3 POP PUSH1 0x20 DUP11 ADD SWAP10 POP POP PUSH1 0x1 DUP2 ADD SWAP1 POP PUSH2 0xD8A JUMP JUMPDEST POP DUP3 SWAP8 POP DUP8 SWAP6 POP POP POP POP POP POP SWAP3 SWAP2 POP POP JUMP JUMPDEST PUSH0 PUSH1 0x20 DUP3 ADD SWAP1 POP DUP2 DUP2 SUB PUSH0 DUP4 ADD MSTORE PUSH2 0xDEC DUP2 DUP5 PUSH2 0xD61 JUMP JUMPDEST SWAP1 POP SWAP3 SWAP2 POP POP JUMP JUMPDEST PUSH0 DUP2 SWAP1 POP SWAP3 SWAP2 POP POP JUMP JUMPDEST PUSH0 PUSH2 0xE08 DUP3 PUSH2 0xBF9 JUMP JUMPDEST PUSH2 0xE12 DUP2 DUP6 PUSH2 0xDF4 JUMP JUMPDEST SWAP4 POP PUSH2 0xE22 DUP2 DUP6 PUSH1 0x20 DUP7 ADD PUSH2 0xC13 JUMP JUMPDEST DUP1 DUP5 ADD SWAP2 POP POP SWAP3 SWAP2 POP POP JUMP JUMPDEST PUSH0 DUP2 SWAP1 POP SWAP2 SWAP1 POP JUMP JUMPDEST PUSH2 0xE48 PUSH2 0xE43 DUP3 PUSH2 0xAC3 JUMP JUMPDEST PUSH2 0xE2E JUMP JUMPDEST DUP3 MSTORE POP POP JUMP JUMPDEST PUSH0 PUSH2 0xE59 DUP3 DUP7 PUSH2 0xDFE JUMP JUMPDEST SWAP2 POP PUSH2 0xE65 DUP3 DUP6 PUSH2 0xE37 JUMP JUMPDEST PUSH1 0x20 DUP3 ADD SWAP2 POP PUSH2 0xE75 DUP3 DUP5 PUSH2 0xDFE JUMP JUMPDEST SWAP2 POP DUP2 SWAP1 POP SWAP5 SWAP4 POP POP POP POP JUMP JUMPDEST PUSH0 PUSH2 0xE8D DUP3 DUP5 PUSH2 0xDFE JUMP JUMPDEST SWAP2 POP DUP2 SWAP1 POP SWAP3 SWAP2 POP POP JUMP JUMPDEST PUSH32 0x4E487B7100000000000000000000000000000000000000000000000000000000 PUSH0 MSTORE PUSH1 0x22 PUSH1 0x4 MSTORE PUSH1 0x24 PUSH0 REVERT JUMPDEST PUSH0 PUSH1 0x2 DUP3 DIV SWAP1 POP PUSH1 0x1 DUP3 AND DUP1 PUSH2 0xEDC JUMPI PUSH1 0x7F DUP3 AND SWAP2 POP JUMPDEST PUSH1 0x20 DUP3 LT DUP2 SUB PUSH2 0xEEF JUMPI PUSH2 0xEEE PUSH2 0xE98 JUMP JUMPDEST JUMPDEST POP SWAP2 SWAP1 POP JUMP JUMPDEST PUSH0 DUP2 SWAP1 POP DUP2 PUSH0 MSTORE PUSH1 0x20 PUSH0 KECCAK256 SWAP1 POP SWAP2 SWAP1 POP JUMP JUMPDEST PUSH0 PUSH1 0x20 PUSH1 0x1F DUP4 ADD DIV SWAP1 POP SWAP2 SWAP1 POP JUMP JUMPDEST PUSH0 DUP3 DUP3 SHL SWAP1 POP SWAP3 SWAP2 POP POP JUMP JUMPDEST PUSH0 PUSH1 0x8 DUP4 MUL PUSH2 0xF51 PUSH32 0xFFFFFFFFFFFFFFFFFFFFFFFFFFFFFFFFFFFFFFFFFFFFFFFFFFFFFFFFFFFFFFFF DUP3 PUSH2 0xF16 JUMP JUMPDEST PUSH2 0xF5B DUP7 DUP4 PUSH2 0xF16 JUMP JUMPDEST SWAP6 POP DUP1 NOT DUP5 AND SWAP4 POP DUP1 DUP7 AND DUP5 OR SWAP3 POP POP POP SWAP4 SWAP3 POP POP POP JUMP JUMPDEST PUSH0 DUP2 SWAP1 POP SWAP2 SWAP1 POP JUMP JUMPDEST PUSH0 PUSH2 0xF96 PUSH2 0xF91 PUSH2 0xF8C DUP5 PUSH2 0xAC3 JUMP JUMPDEST PUSH2 0xF73 JUMP JUMPDEST PUSH2 0xAC3 JUMP JUMPDEST SWAP1 POP SWAP2 SWAP1 POP JUMP JUMPDEST PUSH0 DUP2 SWAP1 POP SWAP2 SWAP1 POP JUMP JUMPDEST PUSH2 0xFAF DUP4 PUSH2 0xF7C JUMP JUMPDEST PUSH2 0xFC3 PUSH2 0xFBB DUP3 PUSH2 0xF9D JUMP JUMPDEST DUP5 DUP5 SLOAD PUSH2 0xF22 JUMP JUMPDEST DUP3 SSTORE POP POP POP POP JUMP JUMPDEST PUSH0 PUSH0 SWAP1 POP SWAP1 JUMP JUMPDEST PUSH2 0xFDA PUSH2 0xFCB JUMP JUMPDEST PUSH2 0xFE5 DUP2 DUP5 DUP5 PUSH2 0xFA6 JUMP JUMPDEST POP POP POP JUMP JUMPDEST JUMPDEST DUP2 DUP2 LT ISZERO PUSH2 0x1008 JUMPI PUSH2 0xFFD PUSH0 DUP3 PUSH2 0xFD2 JUMP JUMPDEST PUSH1 0x1 DUP2 ADD SWAP1 POP PUSH2 0xFEB JUMP JUMPDEST POP POP JUMP JUMPDEST PUSH1 0x1F DUP3 GT ISZERO PUSH2 0x104D JUMPI PUSH2 0x101E DUP2 PUSH2 0xEF5 JUMP JUMPDEST PUSH2 0x1027 DUP5 PUSH2 0xF07 JUMP JUMPDEST DUP2 ADD PUSH1 0x20 DUP6 LT ISZERO PUSH2 0x1036 JUMPI DUP2 SWAP1 POP JUMPDEST PUSH2 0x104A PUSH2 0x1042 DUP6 PUSH2 0xF07 JUMP JUMPDEST DUP4 ADD DUP3 PUSH2 0xFEA JUMP JUMPDEST POP POP JUMPDEST POP POP POP JUMP JUMPDEST PUSH0 DUP3 DUP3 SHR SWAP1 POP SWAP3 SWAP2 POP POP JUMP JUMPDEST PUSH0 PUSH2 0x106D PUSH0 NOT DUP5 PUSH1 0x8 MUL PUSH2 0x1052 JUMP JUMPDEST NOT DUP1 DUP4 AND SWAP2 POP POP SWAP3 SWAP2 POP POP JUMP JUMPDEST PUSH0 PUSH2 0x1085 DUP4 DUP4 PUSH2 0x105E JUMP JUMPDEST SWAP2 POP DUP3 PUSH1 0x2 MUL DUP3 OR SWAP1 POP SWAP3 SWAP2 POP POP JUMP JUMPDEST PUSH2 0x109E DUP3 PUSH2 0xBF9 JUMP JUMPDEST PUSH8 0xFFFFFFFFFFFFFFFF DUP2 GT ISZERO PUSH2 0x10B7 JUMPI PUSH2 0x10B6 PUSH2 0x99F JUMP JUMPDEST JUMPDEST PUSH2 0x10C1 DUP3 SLOAD PUSH2 0xEC5 JUMP JUMPDEST PUSH2 0x10CC DUP3 DUP3 DUP6 PUSH2 0x100C JUMP JUMPDEST PUSH0 PUSH1 0x20 SWAP1 POP PUSH1 0x1F DUP4 GT PUSH1 0x1 DUP2 EQ PUSH2 0x10FD JUMPI PUSH0 DUP5 ISZERO PUSH2 0x10EB JUMPI DUP3 DUP8 ADD MLOAD SWAP1 POP JUMPDEST PUSH2 0x10F5 DUP6 DUP3 PUSH2 0x107A JUMP JUMPDEST DUP7 SSTORE POP PUSH2 0x115C JUMP JUMPDEST PUSH1 0x1F NOT DUP5 AND PUSH2 0x110B DUP7 PUSH2 0xEF5 JUMP JUMPDEST PUSH0 JUMPDEST DUP3 DUP2 LT ISZERO PUSH2 0x1132 JUMPI DUP5 DUP10 ADD MLOAD DUP3 SSTORE PUSH1 0x1 DUP3 ADD SWAP2 POP PUSH1 0x20 DUP6 ADD SWAP5 POP PUSH1 0x20 DUP2 ADD SWAP1 POP PUSH2 0x110D JUMP JUMPDEST DUP7 DUP4 LT ISZERO PUSH2 0x114F JUMPI DUP5 DUP10 ADD MLOAD PUSH2 0x114B PUSH1 0x1F DUP10 AND DUP3 PUSH2 0x105E JUMP JUMPDEST DUP4 SSTORE POP JUMPDEST PUSH1 0x1 PUSH1 0x2 DUP9 MUL ADD DUP9 SSTORE POP POP POP JUMPDEST POP POP POP POP POP POP JUMP JUMPDEST PUSH0 DUP2 PUSH1 0x60 SHL SWAP1 POP SWAP2 SWAP1 POP JUMP JUMPDEST PUSH0 PUSH2 0x117A DUP3 PUSH2 0x1164 JUMP JUMPDEST SWAP1 POP SWAP2 SWAP1 POP JUMP JUMPDEST PUSH0 PUSH2 0x118B DUP3 PUSH2 0x1170 JUMP JUMPDEST SWAP1 POP SWAP2 SWAP1 POP JUMP JUMPDEST PUSH2 0x11A3 PUSH2 0x119E DUP3 PUSH2 0xC98 JUMP JUMPDEST PUSH2 0x1181 JUMP JUMPDEST DUP3 MSTORE POP POP JUMP JUMPDEST PUSH0 PUSH2 0x11B4 DUP3 DUP5 PUSH2 0x1192 JUMP JUMPDEST PUSH1 0x14 DUP3 ADD SWAP2 POP DUP2 SWAP1 POP SWAP3 SWAP2 POP POP JUMP JUMPDEST PUSH32 0x4E487B7100000000000000000000000000000000000000000000000000000000 PUSH0 MSTORE PUSH1 0x32 PUSH1 0x4 MSTORE PUSH1 0x24 PUSH0 REVERT JUMPDEST PUSH32 0x566F746520616C72656164792065786973740000000000000000000000000000 PUSH0 DUP3 ADD MSTORE POP JUMP JUMPDEST PUSH0 PUSH2 0x1224 PUSH1 0x12 DUP4 PUSH2 0xC03 JUMP JUMPDEST SWAP2 POP PUSH2 0x122F DUP3 PUSH2 0x11F0 JUMP JUMPDEST PUSH1 0x20 DUP3 ADD SWAP1 POP SWAP2 SWAP1 POP JUMP JUMPDEST PUSH0 PUSH1 0x20 DUP3 ADD SWAP1 POP DUP2 DUP2 SUB PUSH0 DUP4 ADD MSTORE PUSH2 0x1251 DUP2 PUSH2 0x1218 JUMP JUMPDEST SWAP1 POP SWAP2 SWAP1 POP JUMP JUMPDEST PUSH32 0x4E487B7100000000000000000000000000000000000000000000000000000000 PUSH0 MSTORE PUSH1 0x11 PUSH1 0x4 MSTORE PUSH1 0x24 PUSH0 REVERT JUMPDEST PUSH0 PUSH2 0x128F DUP3 PUSH2 0xBC5 JUMP JUMPDEST SWAP2 POP PUSH1 0xFF DUP3 SUB PUSH2 0x12A2 JUMPI PUSH2 0x12A1 PUSH2 0x1258 JUMP JUMPDEST JUMPDEST PUSH1 0x1 DUP3 ADD SWAP1 POP SWAP2 SWAP1 POP JUMP JUMPDEST PUSH32 0x2800000000000000000000000000000000000000000000000000000000000000 PUSH0 DUP3 ADD MSTORE POP JUMP JUMPDEST PUSH0 PUSH2 0x12E1 PUSH1 0x1 DUP4 PUSH2 0xDF4 JUMP JUMPDEST SWAP2 POP PUSH2 0x12EC DUP3 PUSH2 0x12AD JUMP JUMPDEST PUSH1 0x1 DUP3 ADD SWAP1 POP SWAP2 SWAP1 POP JUMP JUMPDEST PUSH0 DUP2 SLOAD PUSH2 0x1303 DUP2 PUSH2 0xEC5 JUMP JUMPDEST PUSH2 0x130D DUP2 DUP7 PUSH2 0xDF4 JUMP JUMPDEST SWAP5 POP PUSH1 0x1 DUP3 AND PUSH0 DUP2 EQ PUSH2 0x1327 JUMPI PUSH1 0x1 DUP2 EQ PUSH2 0x133C JUMPI PUSH2 0x136E JUMP JUMPDEST PUSH1 0xFF NOT DUP4 AND DUP7 MSTORE DUP2 ISZERO ISZERO DUP3 MUL DUP7 ADD SWAP4 POP PUSH2 0x136E JUMP JUMPDEST PUSH2 0x1345 DUP6 PUSH2 0xEF5 JUMP JUMPDEST PUSH0 JUMPDEST DUP4 DUP2 LT ISZERO PUSH2 0x1366 JUMPI DUP2 SLOAD DUP2 DUP10 ADD MSTORE PUSH1 0x1 DUP3 ADD SWAP2 POP PUSH1 0x20 DUP2 ADD SWAP1 POP PUSH2 0x1347 JUMP JUMPDEST DUP4 DUP9 ADD SWAP6 POP POP POP JUMPDEST POP POP POP SWAP3 SWAP2 POP POP JUMP JUMPDEST PUSH32 0x2C20000000000000000000000000000000000000000000000000000000000000 PUSH0 DUP3 ADD MSTORE POP JUMP JUMPDEST PUSH0 PUSH2 0x13AB PUSH1 0x2 DUP4 PUSH2 0xDF4 JUMP JUMPDEST SWAP2 POP PUSH2 0x13B6 DUP3 PUSH2 0x1377 JUMP JUMPDEST PUSH1 0x2 DUP3 ADD SWAP1 POP SWAP2 SWAP1 POP JUMP JUMPDEST PUSH32 0x29202D2D2D2D2D00000000000000000000000000000000000000000000000000 PUSH0 DUP3 ADD MSTORE POP JUMP JUMPDEST PUSH0 PUSH2 0x13F5 PUSH1 0x7 DUP4 PUSH2 0xDF4 JUMP JUMPDEST SWAP2 POP PUSH2 0x1400 DUP3 PUSH2 0x13C1 JUMP JUMPDEST PUSH1 0x7 DUP3 ADD SWAP1 POP SWAP2 SWAP1 POP JUMP JUMPDEST PUSH0 PUSH2 0x1416 DUP3 DUP7 PUSH2 0xDFE JUMP JUMPDEST SWAP2 POP PUSH2 0x1421 DUP3 PUSH2 0x12D5 JUMP JUMPDEST SWAP2 POP PUSH2 0x142D DUP3 DUP6 PUSH2 0x12F7 JUMP JUMPDEST SWAP2 POP PUSH2 0x1438 DUP3 PUSH2 0x139F JUMP JUMPDEST SWAP2 POP PUSH2 0x1444 DUP3 DUP5 PUSH2 0xDFE JUMP JUMPDEST SWAP2 POP PUSH2 0x144F DUP3 PUSH2 0x13E9 JUMP JUMPDEST SWAP2 POP DUP2 SWAP1 POP SWAP5 SWAP4 POP POP POP POP JUMP JUMPDEST PUSH0 PUSH2 0x1467 DUP3 DUP5 PUSH2 0x12F7 JUMP JUMPDEST SWAP2 POP DUP2 SWAP1 POP SWAP3 SWAP2 POP POP JUMP JUMPDEST PUSH0 PUSH2 0x147C DUP3 PUSH2 0xAC3 JUMP JUMPDEST SWAP2 POP PUSH32 0xFFFFFFFFFFFFFFFFFFFFFFFFFFFFFFFFFFFFFFFFFFFFFFFFFFFFFFFFFFFFFFFF DUP3 SUB PUSH2 0x14AE JUMPI PUSH2 0x14AD PUSH2 0x1258 JUMP JUMPDEST JUMPDEST PUSH1 0x1 DUP3 ADD SWAP1 POP SWAP2 SWAP1 POP JUMP JUMPDEST PUSH32 0x4E487B7100000000000000000000000000000000000000000000000000000000 PUSH0 MSTORE PUSH1 0x12 PUSH1 0x4 MSTORE PUSH1 0x24 PUSH0 REVERT JUMPDEST PUSH0 PUSH2 0x14F0 DUP3 PUSH2 0xAC3 JUMP JUMPDEST SWAP2 POP PUSH2 0x14FB DUP4 PUSH2 0xAC3 JUMP JUMPDEST SWAP3 POP DUP3 PUSH2 0x150B JUMPI PUSH2 0x150A PUSH2 0x14B9 JUMP JUMPDEST JUMPDEST DUP3 DUP3 DIV SWAP1 POP SWAP3 SWAP2 POP POP JUMP JUMPDEST PUSH0 PUSH2 0x1520 DUP3 PUSH2 0xAC3 JUMP JUMPDEST SWAP2 POP PUSH2 0x152B DUP4 PUSH2 0xAC3 JUMP JUMPDEST SWAP3 POP DUP3 DUP3 SUB SWAP1 POP DUP2 DUP2 GT ISZERO PUSH2 0x1543 JUMPI PUSH2 0x1542 PUSH2 0x1258 JUMP JUMPDEST JUMPDEST SWAP3 SWAP2 POP POP JUMP JUMPDEST PUSH0 PUSH2 0x1553 DUP3 PUSH2 0xAC3 JUMP JUMPDEST SWAP2 POP PUSH2 0x155E DUP4 PUSH2 0xAC3 JUMP JUMPDEST SWAP3 POP DUP3 PUSH2 0x156E JUMPI PUSH2 0x156D PUSH2 0x14B9 JUMP JUMPDEST JUMPDEST DUP3 DUP3 MOD SWAP1 POP SWAP3 SWAP2 POP POP JUMP JUMPDEST PUSH0 PUSH2 0x1583 DUP3 PUSH2 0xAC3 JUMP JUMPDEST SWAP2 POP PUSH2 0x158E DUP4 PUSH2 0xAC3 JUMP JUMPDEST SWAP3 POP DUP3 DUP3 ADD SWAP1 POP DUP1 DUP3 GT ISZERO PUSH2 0x15A6 JUMPI PUSH2 0x15A5 PUSH2 0x1258 JUMP JUMPDEST JUMPDEST SWAP3 SWAP2 POP POP JUMP JUMPDEST PUSH0 PUSH2 0x15B6 DUP3 PUSH2 0xAC3 JUMP JUMPDEST SWAP2 POP PUSH0 DUP3 SUB PUSH2 0x15C8 JUMPI PUSH2 0x15C7 PUSH2 0x1258 JUMP JUMPDEST JUMPDEST PUSH1 0x1 DUP3 SUB SWAP1 POP SWAP2 SWAP1 POP JUMP INVALID SLOAD PUSH9 0x657265206973206120 PUSH21 0x6965206265747765656E207468652063616E646964 PUSH2 0x7465 PUSH20 0x21A26469706673582212202D75BFAA83C364FBD9 GT SSTORE CREATE 0xEB CALLDATALOAD BLOCKHASH 0xB7 INVALID 0xC4 0xD9 PUSH12 0x3CBF8F5A3D58D9C3F499005D PUSH5 0x736F6C6343 STOP ADDMOD 0x1E STOP CALLER "
				},
				"gasEstimates": {
					"creation": {
						"codeDepositCost": "1135800",
						"executionCost": "25442",
						"totalCost": "1161242"
					},
					"external": {
						"Represent(string,uint256,string)": "infinite",
						"ViewCanditates()": "infinite",
						"ViewResults()": "infinite",
						"VoteCandidate(string)": "infinite",
						"Winner()": "infinite",
						"owner()": "2529",
						"viewResultCandidate(string)": "infinite"
					},
					"internal": {
						"uint2str(uint256)": "infinite"
					}
				},
				"methodIdentifiers": {
					"Represent(string,uint256,string)": "33070dfb",
					"ViewCanditates()": "d4b8f48f",
					"ViewResults()": "8896fedc",
					"VoteCandidate(string)": "57ccca42",
					"Winner()": "b2b98ed2",
					"owner()": "8da5cb5b",
					"viewResultCandidate(string)": "624a1179"
				}
			},
			"storageLayout": {
				"storage": [
					{
						"astId": 4,
						"contract": "Votes/votes.sol:vote",
						"label": "owner",
						"offset": 0,
						"slot": "0",
						"type": "t_address"
					},
					{
						"astId": 17,
						"contract": "Votes/votes.sol:vote",
						"label": "ID_candidate",
						"offset": 0,
						"slot": "1",
						"type": "t_mapping(t_string_memory_ptr,t_bytes32)"
					},
					{
						"astId": 21,
						"contract": "Votes/votes.sol:vote",
						"label": "votes_canditate",
						"offset": 0,
						"slot": "2",
						"type": "t_mapping(t_string_memory_ptr,t_uint8)"
					},
					{
						"astId": 24,
						"contract": "Votes/votes.sol:vote",
						"label": "candidates",
						"offset": 0,
						"slot": "3",
						"type": "t_array(t_string_storage)dyn_storage"
					},
					{
						"astId": 27,
						"contract": "Votes/votes.sol:vote",
						"label": "voters",
						"offset": 0,
						"slot": "4",
						"type": "t_array(t_bytes32)dyn_storage"
					}
				],
				"types": {
					"t_address": {
						"encoding": "inplace",
						"label": "address",
						"numberOfBytes": "20"
					},
					"t_array(t_bytes32)dyn_storage": {
						"base": "t_bytes32",
						"encoding": "dynamic_array",
						"label": "bytes32[]",
						"numberOfBytes": "32"
					},
					"t_array(t_string_storage)dyn_storage": {
						"base": "t_string_storage",
						"encoding": "dynamic_array",
						"label": "string[]",
						"numberOfBytes": "32"
					},
					"t_bytes32": {
						"encoding": "inplace",
						"label": "bytes32",
						"numberOfBytes": "32"
					},
					"t_mapping(t_string_memory_ptr,t_bytes32)": {
						"encoding": "mapping",
						"key": "t_string_memory_ptr",
						"label": "mapping(string => bytes32)",
						"numberOfBytes": "32",
						"value": "t_bytes32"
					},
					"t_mapping(t_string_memory_ptr,t_uint8)": {
						"encoding": "mapping",
						"key": "t_string_memory_ptr",
						"label": "mapping(string => uint8)",
						"numberOfBytes": "32",
						"value": "t_uint8"
					},
					"t_string_memory_ptr": {
						"encoding": "bytes",
						"label": "string",
						"numberOfBytes": "32"
					},
					"t_string_storage": {
						"encoding": "bytes",
						"label": "string",
						"numberOfBytes": "32"
					},
					"t_uint8": {
						"encoding": "inplace",
						"label": "uint8",
						"numberOfBytes": "1"
					}
				}
			},
			"userdoc": {
				"kind": "user",
				"methods": {},
				"version": 1
			}
		}
	}
}