{
	"Lottery/lottery.sol": {
		"Lottery": {
			"abi": [
				{
					"inputs": [],
					"stateMutability": "nonpayable",
					"type": "constructor"
				},
				{
					"anonymous": false,
					"inputs": [
						{
							"indexed": false,
							"internalType": "uint256",
							"name": "",
							"type": "uint256"
						},
						{
							"indexed": false,
							"internalType": "address",
							"name": "",
							"type": "address"
						}
					],
					"name": "BuyTokensEvent",
					"type": "event"
				},
				{
					"anonymous": false,
					"inputs": [
						{
							"indexed": false,
							"internalType": "uint256",
							"name": "",
							"type": "uint256"
						}
					],
					"name": "TicketPurchased",
					"type": "event"
				},
				{
					"anonymous": false,
					"inputs": [
						{
							"indexed": false,
							"internalType": "uint256",
							"name": "",
							"type": "uint256"
						}
					],
					"name": "TicketWinner",
					"type": "event"
				},
				{
					"inputs": [],
					"name": "AccumulatedWell",
					"outputs": [
						{
							"internalType": "uint256",
							"name": "",
							"type": "uint256"
						}
					],
					"stateMutability": "view",
					"type": "function"
				},
				{
					"inputs": [],
					"name": "AvailableTokens",
					"outputs": [
						{
							"internalType": "uint256",
							"name": "",
							"type": "uint256"
						}
					],
					"stateMutability": "view",
					"type": "function"
				},
				{
					"inputs": [
						{
							"internalType": "uint256",
							"name": "_tickets",
							"type": "uint256"
						}
					],
					"name": "BuyTickets",
					"outputs": [],
					"stateMutability": "nonpayable",
					"type": "function"
				},
				{
					"inputs": [
						{
							"internalType": "uint256",
							"name": "_numTokens",
							"type": "uint256"
						}
					],
					"name": "BuyTokens",
					"outputs": [],
					"stateMutability": "payable",
					"type": "function"
				},
				{
					"inputs": [
						{
							"internalType": "uint256",
							"name": "_numTokens",
							"type": "uint256"
						}
					],
					"name": "GenerateToken",
					"outputs": [],
					"stateMutability": "nonpayable",
					"type": "function"
				},
				{
					"inputs": [],
					"name": "GenerateWinner",
					"outputs": [],
					"stateMutability": "nonpayable",
					"type": "function"
				},
				{
					"inputs": [],
					"name": "MyTickets",
					"outputs": [
						{
							"internalType": "uint256[]",
							"name": "",
							"type": "uint256[]"
						}
					],
					"stateMutability": "view",
					"type": "function"
				},
				{
					"inputs": [
						{
							"internalType": "uint256",
							"name": "_numTokens",
							"type": "uint256"
						}
					],
					"name": "ReturnTokens",
					"outputs": [],
					"stateMutability": "payable",
					"type": "function"
				},
				{
					"inputs": [],
					"name": "TicketPrice",
					"outputs": [
						{
							"internalType": "uint256",
							"name": "",
							"type": "uint256"
						}
					],
					"stateMutability": "view",
					"type": "function"
				},
				{
					"inputs": [
						{
							"internalType": "uint256",
							"name": "_numTokens",
							"type": "uint256"
						}
					],
					"name": "TokenPrice",
					"outputs": [
						{
							"internalType": "uint256",
							"name": "",
							"type": "uint256"
						}
					],
					"stateMutability": "pure",
					"type": "function"
				},
				{
					"inputs": [],
					"name": "ViewMyTokens",
					"outputs": [
						{
							"internalType": "uint256",
							"name": "",
							"type": "uint256"
						}
					],
					"stateMutability": "view",
					"type": "function"
				},
				{
					"inputs": [],
					"name": "contract_created",
					"outputs": [
						{
							"internalType": "address",
							"name": "",
							"type": "address"
						}
					],
					"stateMutability": "view",
					"type": "function"
				},
				{
					"inputs": [],
					"name": "owner",
					"outputs": [
						{
							"internalType": "address",
							"name": "",
							"type": "address"
						}
					],
					"stateMutability": "view",
					"type": "function"
				}
			],
			"devdoc": {
				"kind": "dev",
				"methods": {},
				"version": 1
			},
			"evm": {
				"assembly": "    /* \"Lottery/lottery.sol\":126:3904  contract Lottery  ... */\n  mstore(0x40, 0x80)\n    /* \"Lottery/lottery.sol\":279:284  10000 */\n  0x2710\n    /* \"Lottery/lottery.sol\":257:284  uint tokens_created = 10000 */\n  0x03\n  sstore\n    /* \"Lottery/lottery.sol\":1825:1826  5 */\n  0x05\n    /* \"Lottery/lottery.sol\":1798:1826  uint public TicketPrice  = 5 */\n  0x04\n  sstore\n    /* \"Lottery/lottery.sol\":1955:1956  0 */\n  0x00\n    /* \"Lottery/lottery.sol\":1938:1956  uint randNonce = 0 */\n  0x07\n  sstore\n    /* \"Lottery/lottery.sol\":293:435  constructor() {... */\n  callvalue\n  dup1\n  iszero\n  tag_1\n  jumpi\n  revert(0x00, 0x00)\ntag_1:\n  pop\n    /* \"Lottery/lottery.sol\":342:356  tokens_created */\n  sload(0x03)\n    /* \"Lottery/lottery.sol\":325:357  new ERC20V2Basic(tokens_created) */\n  mload(0x40)\n  tag_4\n  swap1\n  tag_5\n  jump\t// in\ntag_4:\n  tag_6\n  swap2\n  swap1\n  tag_7\n  jump\t// in\ntag_6:\n  mload(0x40)\n  dup1\n  swap2\n  sub\n  swap1\n  0x00\n  create\n  dup1\n  iszero\n  dup1\n  iszero\n  tag_8\n  jumpi\n  returndatacopy(0x00, 0x00, returndatasize)\n  revert(0x00, returndatasize)\ntag_8:\n  pop\n    /* \"Lottery/lottery.sol\":317:322  token */\n  0x00\n  0x00\n    /* \"Lottery/lottery.sol\":317:357  token = new ERC20V2Basic(tokens_created) */\n  0x0100\n  exp\n  dup2\n  sload\n  dup2\n  0xffffffffffffffffffffffffffffffffffffffff\n  mul\n  not\n  and\n  swap1\n  dup4\n  0xffffffffffffffffffffffffffffffffffffffff\n  and\n  mul\n  or\n  swap1\n  sstore\n  pop\n    /* \"Lottery/lottery.sol\":375:385  msg.sender */\n  caller\n    /* \"Lottery/lottery.sol\":367:372  owner */\n  0x01\n  0x00\n    /* \"Lottery/lottery.sol\":367:385  owner = msg.sender */\n  0x0100\n  exp\n  dup2\n  sload\n  dup2\n  0xffffffffffffffffffffffffffffffffffffffff\n  mul\n  not\n  and\n  swap1\n  dup4\n  0xffffffffffffffffffffffffffffffffffffffff\n  and\n  mul\n  or\n  swap1\n  sstore\n  pop\n    /* \"Lottery/lottery.sol\":422:426  this */\n  address\n    /* \"Lottery/lottery.sol\":395:411  contract_created */\n  0x02\n  0x00\n    /* \"Lottery/lottery.sol\":395:427  contract_created = address(this) */\n  0x0100\n  exp\n  dup2\n  sload\n  dup2\n  0xffffffffffffffffffffffffffffffffffffffff\n  mul\n  not\n  and\n  swap1\n  dup4\n  0xffffffffffffffffffffffffffffffffffffffff\n  and\n  mul\n  or\n  swap1\n  sstore\n  pop\n    /* \"Lottery/lottery.sol\":126:3904  contract Lottery  ... */\n  jump(tag_9)\ntag_5:\n  dataSize(sub_1)\n  dup1\n  dataOffset(sub_1)\n  dup4\n  codecopy\n  add\n  swap1\n  jump\t// out\n    /* \"#utility.yul\":7:84   */\ntag_10:\n    /* \"#utility.yul\":44:51   */\n  0x00\n    /* \"#utility.yul\":73:78   */\n  dup2\n    /* \"#utility.yul\":62:78   */\n  swap1\n  pop\n    /* \"#utility.yul\":7:84   */\n  swap2\n  swap1\n  pop\n  jump\t// out\n    /* \"#utility.yul\":90:208   */\ntag_11:\n    /* \"#utility.yul\":177:201   */\n  tag_15\n    /* \"#utility.yul\":195:200   */\n  dup2\n    /* \"#utility.yul\":177:201   */\n  tag_10\n  jump\t// in\ntag_15:\n    /* \"#utility.yul\":172:175   */\n  dup3\n    /* \"#utility.yul\":165:202   */\n  mstore\n    /* \"#utility.yul\":90:208   */\n  pop\n  pop\n  jump\t// out\n    /* \"#utility.yul\":214:436   */\ntag_7:\n    /* \"#utility.yul\":307:311   */\n  0x00\n    /* \"#utility.yul\":345:347   */\n  0x20\n    /* \"#utility.yul\":334:343   */\n  dup3\n    /* \"#utility.yul\":330:348   */\n  add\n    /* \"#utility.yul\":322:348   */\n  swap1\n  pop\n    /* \"#utility.yul\":358:429   */\n  tag_17\n    /* \"#utility.yul\":426:427   */\n  0x00\n    /* \"#utility.yul\":415:424   */\n  dup4\n    /* \"#utility.yul\":411:428   */\n  add\n    /* \"#utility.yul\":402:408   */\n  dup5\n    /* \"#utility.yul\":358:429   */\n  tag_11\n  jump\t// in\ntag_17:\n    /* \"#utility.yul\":214:436   */\n  swap3\n  swap2\n  pop\n  pop\n  jump\t// out\n    /* \"Lottery/lottery.sol\":126:3904  contract Lottery  ... */\ntag_9:\n  dataSize(sub_0)\n  dup1\n  dataOffset(sub_0)\n  0x00\n  codecopy\n  0x00\n  return\nstop\n\nsub_0: assembly {\n        /* \"Lottery/lottery.sol\":126:3904  contract Lottery  ... */\n      mstore(0x40, 0x80)\n      jumpi(tag_1, lt(calldatasize, 0x04))\n      shr(0xe0, calldataload(0x00))\n      dup1\n      0x8bf972b2\n      gt\n      tag_15\n      jumpi\n      dup1\n      0xa4e8aeb8\n      gt\n      tag_16\n      jumpi\n      dup1\n      0xa4e8aeb8\n      eq\n      tag_11\n      jumpi\n      dup1\n      0xadbbe720\n      eq\n      tag_12\n      jumpi\n      dup1\n      0xb23fd3bd\n      eq\n      tag_13\n      jumpi\n      dup1\n      0xb8621c7c\n      eq\n      tag_14\n      jumpi\n      jump(tag_1)\n    tag_16:\n      dup1\n      0x8bf972b2\n      eq\n      tag_8\n      jumpi\n      dup1\n      0x8da5cb5b\n      eq\n      tag_9\n      jumpi\n      dup1\n      0xa19cb8c3\n      eq\n      tag_10\n      jumpi\n      jump(tag_1)\n    tag_15:\n      dup1\n      0x11973a23\n      eq\n      tag_2\n      jumpi\n      dup1\n      0x34e7d146\n      eq\n      tag_3\n      jumpi\n      dup1\n      0x53321c88\n      eq\n      tag_4\n      jumpi\n      dup1\n      0x59ab0306\n      eq\n      tag_5\n      jumpi\n      dup1\n      0x838c7dd0\n      eq\n      tag_6\n      jumpi\n      dup1\n      0x89749adb\n      eq\n      tag_7\n      jumpi\n    tag_1:\n      revert(0x00, 0x00)\n        /* \"Lottery/lottery.sol\":1705:1790  function AccumulatedWell() public view returns(uint){ return token.balanceOf(owner);} */\n    tag_2:\n      callvalue\n      dup1\n      iszero\n      tag_17\n      jumpi\n      revert(0x00, 0x00)\n    tag_17:\n      pop\n      tag_18\n      tag_19\n      jump\t// in\n    tag_18:\n      mload(0x40)\n      tag_20\n      swap2\n      swap1\n      tag_21\n      jump\t// in\n    tag_20:\n      mload(0x40)\n      dup1\n      swap2\n      sub\n      swap1\n      return\n        /* \"Lottery/lottery.sol\":2857:3364  function GenerateWinner() public OnlyOwner(msg.sender)... */\n    tag_3:\n      callvalue\n      dup1\n      iszero\n      tag_22\n      jumpi\n      revert(0x00, 0x00)\n    tag_22:\n      pop\n      tag_23\n      tag_24\n      jump\t// in\n    tag_23:\n      stop\n        /* \"Lottery/lottery.sol\":1798:1826  uint public TicketPrice  = 5 */\n    tag_4:\n      callvalue\n      dup1\n      iszero\n      tag_25\n      jumpi\n      revert(0x00, 0x00)\n    tag_25:\n      pop\n      tag_26\n      tag_27\n      jump\t// in\n    tag_26:\n      mload(0x40)\n      tag_28\n      swap2\n      swap1\n      tag_21\n      jump\t// in\n    tag_28:\n      mload(0x40)\n      dup1\n      swap2\n      sub\n      swap1\n      return\n        /* \"Lottery/lottery.sol\":2063:2746  function BuyTickets(uint _tickets) public ... */\n    tag_5:\n      callvalue\n      dup1\n      iszero\n      tag_29\n      jumpi\n      revert(0x00, 0x00)\n    tag_29:\n      pop\n      tag_30\n      0x04\n      dup1\n      calldatasize\n      sub\n      dup2\n      add\n      swap1\n      tag_31\n      swap2\n      swap1\n      tag_32\n      jump\t// in\n    tag_31:\n      tag_33\n      jump\t// in\n    tag_30:\n      stop\n        /* \"Lottery/lottery.sol\":616:746  function GenerateToken(uint _numTokens) public OnlyOwner(msg.sender)... */\n    tag_6:\n      callvalue\n      dup1\n      iszero\n      tag_34\n      jumpi\n      revert(0x00, 0x00)\n    tag_34:\n      pop\n      tag_35\n      0x04\n      dup1\n      calldatasize\n      sub\n      dup2\n      add\n      swap1\n      tag_36\n      swap2\n      swap1\n      tag_32\n      jump\t// in\n    tag_36:\n      tag_37\n      jump\t// in\n    tag_35:\n      stop\n        /* \"Lottery/lottery.sol\":753:1448  function BuyTokens(uint _numTokens) public payable {... */\n    tag_7:\n      tag_38\n      0x04\n      dup1\n      calldatasize\n      sub\n      dup2\n      add\n      swap1\n      tag_39\n      swap2\n      swap1\n      tag_32\n      jump\t// in\n    tag_39:\n      tag_40\n      jump\t// in\n    tag_38:\n      stop\n        /* \"Lottery/lottery.sol\":507:608  function TokenPrice(uint _numTokens) public  pure  returns (uint) { return (_numTokens * (1 ether));} */\n    tag_8:\n      callvalue\n      dup1\n      iszero\n      tag_41\n      jumpi\n      revert(0x00, 0x00)\n    tag_41:\n      pop\n      tag_42\n      0x04\n      dup1\n      calldatasize\n      sub\n      dup2\n      add\n      swap1\n      tag_43\n      swap2\n      swap1\n      tag_32\n      jump\t// in\n    tag_43:\n      tag_44\n      jump\t// in\n    tag_42:\n      mload(0x40)\n      tag_45\n      swap2\n      swap1\n      tag_21\n      jump\t// in\n    tag_45:\n      mload(0x40)\n      dup1\n      swap2\n      sub\n      swap1\n      return\n        /* \"Lottery/lottery.sol\":189:209  address public owner */\n    tag_9:\n      callvalue\n      dup1\n      iszero\n      tag_46\n      jumpi\n      revert(0x00, 0x00)\n    tag_46:\n      pop\n      tag_47\n      tag_48\n      jump\t// in\n    tag_47:\n      mload(0x40)\n      tag_49\n      swap2\n      swap1\n      tag_50\n      jump\t// in\n    tag_49:\n      mload(0x40)\n      dup1\n      swap2\n      sub\n      swap1\n      return\n        /* \"Lottery/lottery.sol\":216:248  address public  contract_created */\n    tag_10:\n      callvalue\n      dup1\n      iszero\n      tag_51\n      jumpi\n      revert(0x00, 0x00)\n    tag_51:\n      pop\n      tag_52\n      tag_53\n      jump\t// in\n    tag_52:\n      mload(0x40)\n      tag_54\n      swap2\n      swap1\n      tag_50\n      jump\t// in\n    tag_54:\n      mload(0x40)\n      dup1\n      swap2\n      sub\n      swap1\n      return\n        /* \"Lottery/lottery.sol\":2754:2849  function MyTickets() public  view returns(uint[] memory){return idCustomer_Ticket[msg.sender];} */\n    tag_11:\n      callvalue\n      dup1\n      iszero\n      tag_55\n      jumpi\n      revert(0x00, 0x00)\n    tag_55:\n      pop\n      tag_56\n      tag_57\n      jump\t// in\n    tag_56:\n      mload(0x40)\n      tag_58\n      swap2\n      swap1\n      tag_59\n      jump\t// in\n    tag_58:\n      mload(0x40)\n      dup1\n      swap2\n      sub\n      swap1\n      return\n        /* \"Lottery/lottery.sol\":1460:1568  function ViewMyTokens() public view returns(uint)... */\n    tag_12:\n      callvalue\n      dup1\n      iszero\n      tag_60\n      jumpi\n      revert(0x00, 0x00)\n    tag_60:\n      pop\n      tag_61\n      tag_62\n      jump\t// in\n    tag_61:\n      mload(0x40)\n      tag_63\n      swap2\n      swap1\n      tag_21\n      jump\t// in\n    tag_63:\n      mload(0x40)\n      dup1\n      swap2\n      sub\n      swap1\n      return\n        /* \"Lottery/lottery.sol\":3376:3756  function ReturnTokens(uint _numTokens) public payable ... */\n    tag_13:\n      tag_64\n      0x04\n      dup1\n      calldatasize\n      sub\n      dup2\n      add\n      swap1\n      tag_65\n      swap2\n      swap1\n      tag_32\n      jump\t// in\n    tag_65:\n      tag_66\n      jump\t// in\n    tag_64:\n      stop\n        /* \"Lottery/lottery.sol\":1576:1693  function AvailableTokens() public view returns(uint)... */\n    tag_14:\n      callvalue\n      dup1\n      iszero\n      tag_67\n      jumpi\n      revert(0x00, 0x00)\n    tag_67:\n      pop\n      tag_68\n      tag_69\n      jump\t// in\n    tag_68:\n      mload(0x40)\n      tag_70\n      swap2\n      swap1\n      tag_21\n      jump\t// in\n    tag_70:\n      mload(0x40)\n      dup1\n      swap2\n      sub\n      swap1\n      return\n        /* \"Lottery/lottery.sol\":1705:1790  function AccumulatedWell() public view returns(uint){ return token.balanceOf(owner);} */\n    tag_19:\n        /* \"Lottery/lottery.sol\":1752:1756  uint */\n      0x00\n        /* \"Lottery/lottery.sol\":1766:1771  token */\n      0x00\n      0x00\n      swap1\n      sload\n      swap1\n      0x0100\n      exp\n      swap1\n      div\n      0xffffffffffffffffffffffffffffffffffffffff\n      and\n        /* \"Lottery/lottery.sol\":1766:1781  token.balanceOf */\n      0xffffffffffffffffffffffffffffffffffffffff\n      and\n      0x70a08231\n        /* \"Lottery/lottery.sol\":1782:1787  owner */\n      0x01\n      0x00\n      swap1\n      sload\n      swap1\n      0x0100\n      exp\n      swap1\n      div\n      0xffffffffffffffffffffffffffffffffffffffff\n      and\n        /* \"Lottery/lottery.sol\":1766:1788  token.balanceOf(owner) */\n      mload(0x40)\n      dup3\n      0xffffffff\n      and\n      0xe0\n      shl\n      dup2\n      mstore\n      0x04\n      add\n      tag_72\n      swap2\n      swap1\n      tag_50\n      jump\t// in\n    tag_72:\n      0x20\n      mload(0x40)\n      dup1\n      dup4\n      sub\n      dup2\n      dup7\n      gas\n      staticcall\n      iszero\n      dup1\n      iszero\n      tag_74\n      jumpi\n      returndatacopy(0x00, 0x00, returndatasize)\n      revert(0x00, returndatasize)\n    tag_74:\n      pop\n      pop\n      pop\n      pop\n      mload(0x40)\n      returndatasize\n      not(0x1f)\n      0x1f\n      dup3\n      add\n      and\n      dup3\n      add\n      dup1\n      0x40\n      mstore\n      pop\n      dup2\n      add\n      swap1\n      tag_75\n      swap2\n      swap1\n      tag_76\n      jump\t// in\n    tag_75:\n        /* \"Lottery/lottery.sol\":1759:1788  return token.balanceOf(owner) */\n      swap1\n      pop\n        /* \"Lottery/lottery.sol\":1705:1790  function AccumulatedWell() public view returns(uint){ return token.balanceOf(owner);} */\n      swap1\n      jump\t// out\n        /* \"Lottery/lottery.sol\":2857:3364  function GenerateWinner() public OnlyOwner(msg.sender)... */\n    tag_24:\n        /* \"Lottery/lottery.sol\":2900:2910  msg.sender */\n      caller\n        /* \"Lottery/lottery.sol\":3835:3840  owner */\n      0x01\n      0x00\n      swap1\n      sload\n      swap1\n      0x0100\n      exp\n      swap1\n      div\n      0xffffffffffffffffffffffffffffffffffffffff\n      and\n        /* \"Lottery/lottery.sol\":3825:3840  _owner == owner */\n      0xffffffffffffffffffffffffffffffffffffffff\n      and\n        /* \"Lottery/lottery.sol\":3825:3831  _owner */\n      dup2\n        /* \"Lottery/lottery.sol\":3825:3840  _owner == owner */\n      0xffffffffffffffffffffffffffffffffffffffff\n      and\n      eq\n        /* \"Lottery/lottery.sol\":3817:3877  require(_owner == owner,\"You are not authorized to do this\") */\n      tag_78\n      jumpi\n      mload(0x40)\n      0x08c379a000000000000000000000000000000000000000000000000000000000\n      dup2\n      mstore\n      0x04\n      add\n      tag_79\n      swap1\n      tag_80\n      jump\t// in\n    tag_79:\n      mload(0x40)\n      dup1\n      swap2\n      sub\n      swap1\n      revert\n    tag_78:\n        /* \"Lottery/lottery.sol\":2963:2964  0 */\n      0x00\n        /* \"Lottery/lottery.sol\":2936:2953  tickets_purchased */\n      0x08\n        /* \"Lottery/lottery.sol\":2936:2960  tickets_purchased.length */\n      dup1\n      sload\n      swap1\n      pop\n        /* \"Lottery/lottery.sol\":2936:2964  tickets_purchased.length > 0 */\n      gt\n        /* \"Lottery/lottery.sol\":2928:2994  require(tickets_purchased.length > 0,\"No tickets purchased yet!\" ) */\n      tag_82\n      jumpi\n      mload(0x40)\n      0x08c379a000000000000000000000000000000000000000000000000000000000\n      dup2\n      mstore\n      0x04\n      add\n      tag_83\n      swap1\n      tag_84\n      jump\t// in\n    tag_83:\n      mload(0x40)\n      dup1\n      swap2\n      sub\n      swap1\n      revert\n    tag_82:\n        /* \"Lottery/lottery.sol\":3005:3014  uint long */\n      0x00\n        /* \"Lottery/lottery.sol\":3017:3034  tickets_purchased */\n      0x08\n        /* \"Lottery/lottery.sol\":3017:3041  tickets_purchased.length */\n      dup1\n      sload\n      swap1\n      pop\n        /* \"Lottery/lottery.sol\":3005:3041  uint long = tickets_purchased.length */\n      swap1\n      pop\n        /* \"Lottery/lottery.sol\":3052:3071  uint position_array */\n      0x00\n        /* \"Lottery/lottery.sol\":3127:3131  long */\n      dup2\n        /* \"Lottery/lottery.sol\":3106:3121  block.timestamp */\n      timestamp\n        /* \"Lottery/lottery.sol\":3089:3122  abi.encodePacked(block.timestamp) */\n      add(0x20, mload(0x40))\n      tag_85\n      swap2\n      swap1\n      tag_86\n      jump\t// in\n    tag_85:\n      mload(0x40)\n      0x20\n      dup2\n      dup4\n      sub\n      sub\n      dup2\n      mstore\n      swap1\n      0x40\n      mstore\n        /* \"Lottery/lottery.sol\":3079:3123  keccak256(abi.encodePacked(block.timestamp)) */\n      dup1\n      mload\n      swap1\n      0x20\n      add\n      keccak256\n        /* \"Lottery/lottery.sol\":3074:3124  uint(keccak256(abi.encodePacked(block.timestamp))) */\n      0x00\n      shr\n        /* \"Lottery/lottery.sol\":3074:3131  uint(keccak256(abi.encodePacked(block.timestamp))) % long */\n      tag_87\n      swap2\n      swap1\n      tag_88\n      jump\t// in\n    tag_87:\n        /* \"Lottery/lottery.sol\":3052:3131  uint position_array = uint(keccak256(abi.encodePacked(block.timestamp))) % long */\n      swap1\n      pop\n        /* \"Lottery/lottery.sol\":3143:3154  uint select */\n      0x00\n        /* \"Lottery/lottery.sol\":3157:3174  tickets_purchased */\n      0x08\n        /* \"Lottery/lottery.sol\":3175:3189  position_array */\n      dup3\n        /* \"Lottery/lottery.sol\":3157:3190  tickets_purchased[position_array] */\n      dup2\n      sload\n      dup2\n      lt\n      tag_89\n      jumpi\n      tag_90\n      tag_91\n      jump\t// in\n    tag_90:\n    tag_89:\n      swap1\n      0x00\n      mstore\n      keccak256(0x00, 0x20)\n      add\n      sload\n        /* \"Lottery/lottery.sol\":3143:3190  uint select = tickets_purchased[position_array] */\n      swap1\n      pop\n        /* \"Lottery/lottery.sol\":3208:3228  TicketWinner(select) */\n      0x3b75dca12ac0d72a73350cc1c2b6308d8bac70bf669eb8c842806848b759c86c\n        /* \"Lottery/lottery.sol\":3221:3227  select */\n      dup2\n        /* \"Lottery/lottery.sol\":3208:3228  TicketWinner(select) */\n      mload(0x40)\n      tag_93\n      swap2\n      swap1\n      tag_21\n      jump\t// in\n    tag_93:\n      mload(0x40)\n      dup1\n      swap2\n      sub\n      swap1\n      log1\n        /* \"Lottery/lottery.sol\":3241:3255  address winner */\n      0x00\n        /* \"Lottery/lottery.sol\":3258:3275  idTicket_Customer */\n      0x06\n        /* \"Lottery/lottery.sol\":3258:3283  idTicket_Customer[select] */\n      0x00\n        /* \"Lottery/lottery.sol\":3276:3282  select */\n      dup4\n        /* \"Lottery/lottery.sol\":3258:3283  idTicket_Customer[select] */\n      dup2\n      mstore\n      0x20\n      add\n      swap1\n      dup2\n      mstore\n      0x20\n      add\n      0x00\n      keccak256\n      0x00\n      swap1\n      sload\n      swap1\n      0x0100\n      exp\n      swap1\n      div\n      0xffffffffffffffffffffffffffffffffffffffff\n      and\n        /* \"Lottery/lottery.sol\":3241:3283  address winner = idTicket_Customer[select] */\n      swap1\n      pop\n        /* \"Lottery/lottery.sol\":3294:3299  token */\n      0x00\n      0x00\n      swap1\n      sload\n      swap1\n      0x0100\n      exp\n      swap1\n      div\n      0xffffffffffffffffffffffffffffffffffffffff\n      and\n        /* \"Lottery/lottery.sol\":3294:3317  token.transfer_customer */\n      0xffffffffffffffffffffffffffffffffffffffff\n      and\n      0xd44237aa\n        /* \"Lottery/lottery.sol\":3318:3328  msg.sender */\n      caller\n        /* \"Lottery/lottery.sol\":3330:3336  winner */\n      dup4\n        /* \"Lottery/lottery.sol\":3338:3355  AccumulatedWell() */\n      tag_94\n        /* \"Lottery/lottery.sol\":3338:3353  AccumulatedWell */\n      tag_19\n        /* \"Lottery/lottery.sol\":3338:3355  AccumulatedWell() */\n      jump\t// in\n    tag_94:\n        /* \"Lottery/lottery.sol\":3294:3356  token.transfer_customer(msg.sender, winner, AccumulatedWell()) */\n      mload(0x40)\n      dup5\n      0xffffffff\n      and\n      0xe0\n      shl\n      dup2\n      mstore\n      0x04\n      add\n      tag_95\n      swap4\n      swap3\n      swap2\n      swap1\n      tag_96\n      jump\t// in\n    tag_95:\n      0x20\n      mload(0x40)\n      dup1\n      dup4\n      sub\n      dup2\n      0x00\n      dup8\n      gas\n      call\n      iszero\n      dup1\n      iszero\n      tag_98\n      jumpi\n      returndatacopy(0x00, 0x00, returndatasize)\n      revert(0x00, returndatasize)\n    tag_98:\n      pop\n      pop\n      pop\n      pop\n      mload(0x40)\n      returndatasize\n      not(0x1f)\n      0x1f\n      dup3\n      add\n      and\n      dup3\n      add\n      dup1\n      0x40\n      mstore\n      pop\n      dup2\n      add\n      swap1\n      tag_99\n      swap2\n      swap1\n      tag_100\n      jump\t// in\n    tag_99:\n      pop\n        /* \"Lottery/lottery.sol\":2917:3364  {... */\n      pop\n      pop\n      pop\n      pop\n        /* \"Lottery/lottery.sol\":2857:3364  function GenerateWinner() public OnlyOwner(msg.sender)... */\n      pop\n      jump\t// out\n        /* \"Lottery/lottery.sol\":1798:1826  uint public TicketPrice  = 5 */\n    tag_27:\n      sload(0x04)\n      dup2\n      jump\t// out\n        /* \"Lottery/lottery.sol\":2063:2746  function BuyTickets(uint _tickets) public ... */\n    tag_33:\n        /* \"Lottery/lottery.sol\":2122:2138  uint total_price */\n      0x00\n        /* \"Lottery/lottery.sol\":2152:2163  TicketPrice */\n      sload(0x04)\n        /* \"Lottery/lottery.sol\":2141:2149  _tickets */\n      dup3\n        /* \"Lottery/lottery.sol\":2141:2163  _tickets * TicketPrice */\n      tag_102\n      swap2\n      swap1\n      tag_103\n      jump\t// in\n    tag_102:\n        /* \"Lottery/lottery.sol\":2122:2163  uint total_price = _tickets * TicketPrice */\n      swap1\n      pop\n        /* \"Lottery/lottery.sol\":2197:2211  ViewMyTokens() */\n      tag_104\n        /* \"Lottery/lottery.sol\":2197:2209  ViewMyTokens */\n      tag_62\n        /* \"Lottery/lottery.sol\":2197:2211  ViewMyTokens() */\n      jump\t// in\n    tag_104:\n        /* \"Lottery/lottery.sol\":2182:2193  total_price */\n      dup2\n        /* \"Lottery/lottery.sol\":2182:2211  total_price <= ViewMyTokens() */\n      gt\n      iszero\n        /* \"Lottery/lottery.sol\":2174:2251  require(total_price <= ViewMyTokens(),\"Not enough tokens available for sale\") */\n      tag_105\n      jumpi\n      mload(0x40)\n      0x08c379a000000000000000000000000000000000000000000000000000000000\n      dup2\n      mstore\n      0x04\n      add\n      tag_106\n      swap1\n      tag_107\n      jump\t// in\n    tag_106:\n      mload(0x40)\n      dup1\n      swap2\n      sub\n      swap1\n      revert\n    tag_105:\n        /* \"Lottery/lottery.sol\":2264:2269  token */\n      0x00\n      0x00\n      swap1\n      sload\n      swap1\n      0x0100\n      exp\n      swap1\n      div\n      0xffffffffffffffffffffffffffffffffffffffff\n      and\n        /* \"Lottery/lottery.sol\":2264:2287  token.transfer_customer */\n      0xffffffffffffffffffffffffffffffffffffffff\n      and\n      0xd44237aa\n        /* \"Lottery/lottery.sol\":2288:2298  msg.sender */\n      caller\n        /* \"Lottery/lottery.sol\":2300:2305  owner */\n      0x01\n      0x00\n      swap1\n      sload\n      swap1\n      0x0100\n      exp\n      swap1\n      div\n      0xffffffffffffffffffffffffffffffffffffffff\n      and\n        /* \"Lottery/lottery.sol\":2307:2318  total_price */\n      dup5\n        /* \"Lottery/lottery.sol\":2264:2319  token.transfer_customer(msg.sender, owner, total_price) */\n      mload(0x40)\n      dup5\n      0xffffffff\n      and\n      0xe0\n      shl\n      dup2\n      mstore\n      0x04\n      add\n      tag_108\n      swap4\n      swap3\n      swap2\n      swap1\n      tag_96\n      jump\t// in\n    tag_108:\n      0x20\n      mload(0x40)\n      dup1\n      dup4\n      sub\n      dup2\n      0x00\n      dup8\n      gas\n      call\n      iszero\n      dup1\n      iszero\n      tag_110\n      jumpi\n      returndatacopy(0x00, 0x00, returndatasize)\n      revert(0x00, returndatasize)\n    tag_110:\n      pop\n      pop\n      pop\n      pop\n      mload(0x40)\n      returndatasize\n      not(0x1f)\n      0x1f\n      dup3\n      add\n      and\n      dup3\n      add\n      dup1\n      0x40\n      mstore\n      pop\n      dup2\n      add\n      swap1\n      tag_111\n      swap2\n      swap1\n      tag_100\n      jump\t// in\n    tag_111:\n      pop\n        /* \"Lottery/lottery.sol\":2336:2342  uint i */\n      0x00\n        /* \"Lottery/lottery.sol\":2345:2346  0 */\n      0x00\n        /* \"Lottery/lottery.sol\":2336:2346  uint i = 0 */\n      swap1\n      pop\n        /* \"Lottery/lottery.sol\":2332:2739  for(uint i = 0 ; i < _tickets;i++)... */\n    tag_112:\n        /* \"Lottery/lottery.sol\":2353:2361  _tickets */\n      dup3\n        /* \"Lottery/lottery.sol\":2349:2350  i */\n      dup2\n        /* \"Lottery/lottery.sol\":2349:2361  i < _tickets */\n      lt\n        /* \"Lottery/lottery.sol\":2332:2739  for(uint i = 0 ; i < _tickets;i++)... */\n      iszero\n      tag_113\n      jumpi\n        /* \"Lottery/lottery.sol\":2391:2402  uint random */\n      0x00\n        /* \"Lottery/lottery.sol\":2482:2496  tokens_created */\n      sload(0x03)\n        /* \"Lottery/lottery.sol\":2438:2453  block.timestamp */\n      timestamp\n        /* \"Lottery/lottery.sol\":2455:2465  msg.sender */\n      caller\n        /* \"Lottery/lottery.sol\":2467:2476  randNonce */\n      sload(0x07)\n        /* \"Lottery/lottery.sol\":2420:2477  abi.encodePacked( block.timestamp, msg.sender, randNonce) */\n      add(0x20, mload(0x40))\n      tag_115\n      swap4\n      swap3\n      swap2\n      swap1\n      tag_116\n      jump\t// in\n    tag_115:\n      mload(0x40)\n      0x20\n      dup2\n      dup4\n      sub\n      sub\n      dup2\n      mstore\n      swap1\n      0x40\n      mstore\n        /* \"Lottery/lottery.sol\":2410:2478  keccak256(abi.encodePacked( block.timestamp, msg.sender, randNonce)) */\n      dup1\n      mload\n      swap1\n      0x20\n      add\n      keccak256\n        /* \"Lottery/lottery.sol\":2405:2479  uint(keccak256(abi.encodePacked( block.timestamp, msg.sender, randNonce))) */\n      0x00\n      shr\n        /* \"Lottery/lottery.sol\":2405:2496  uint(keccak256(abi.encodePacked( block.timestamp, msg.sender, randNonce))) % tokens_created */\n      tag_117\n      swap2\n      swap1\n      tag_88\n      jump\t// in\n    tag_117:\n        /* \"Lottery/lottery.sol\":2391:2496  uint random = uint(keccak256(abi.encodePacked( block.timestamp, msg.sender, randNonce))) % tokens_created */\n      swap1\n      pop\n        /* \"Lottery/lottery.sol\":2511:2520  randNonce */\n      0x07\n      0x00\n        /* \"Lottery/lottery.sol\":2511:2522  randNonce++ */\n      dup2\n      sload\n      dup1\n      swap3\n      swap2\n      swap1\n      tag_118\n      swap1\n      tag_119\n      jump\t// in\n    tag_118:\n      swap2\n      swap1\n      pop\n      sstore\n      pop\n        /* \"Lottery/lottery.sol\":2539:2556  idCustomer_Ticket */\n      0x05\n        /* \"Lottery/lottery.sol\":2539:2568  idCustomer_Ticket[msg.sender] */\n      0x00\n        /* \"Lottery/lottery.sol\":2557:2567  msg.sender */\n      caller\n        /* \"Lottery/lottery.sol\":2539:2568  idCustomer_Ticket[msg.sender] */\n      0xffffffffffffffffffffffffffffffffffffffff\n      and\n      0xffffffffffffffffffffffffffffffffffffffff\n      and\n      dup2\n      mstore\n      0x20\n      add\n      swap1\n      dup2\n      mstore\n      0x20\n      add\n      0x00\n      keccak256\n        /* \"Lottery/lottery.sol\":2574:2580  random */\n      dup2\n        /* \"Lottery/lottery.sol\":2539:2581  idCustomer_Ticket[msg.sender].push(random) */\n      swap1\n      dup1\n      0x01\n      dup2\n      sload\n      add\n      dup1\n      dup3\n      sstore\n      dup1\n      swap2\n      pop\n      pop\n      0x01\n      swap1\n      sub\n      swap1\n      0x00\n      mstore\n      keccak256(0x00, 0x20)\n      add\n      0x00\n      swap1\n      swap2\n      swap1\n      swap2\n      swap1\n      swap2\n      pop\n      sstore\n        /* \"Lottery/lottery.sol\":2598:2615  tickets_purchased */\n      0x08\n        /* \"Lottery/lottery.sol\":2621:2627  random */\n      dup2\n        /* \"Lottery/lottery.sol\":2598:2628  tickets_purchased.push(random) */\n      swap1\n      dup1\n      0x01\n      dup2\n      sload\n      add\n      dup1\n      dup3\n      sstore\n      dup1\n      swap2\n      pop\n      pop\n      0x01\n      swap1\n      sub\n      swap1\n      0x00\n      mstore\n      keccak256(0x00, 0x20)\n      add\n      0x00\n      swap1\n      swap2\n      swap1\n      swap2\n      swap1\n      swap2\n      pop\n      sstore\n        /* \"Lottery/lottery.sol\":2673:2683  msg.sender */\n      caller\n        /* \"Lottery/lottery.sol\":2645:2662  idTicket_Customer */\n      0x06\n        /* \"Lottery/lottery.sol\":2645:2670  idTicket_Customer[random] */\n      0x00\n        /* \"Lottery/lottery.sol\":2663:2669  random */\n      dup4\n        /* \"Lottery/lottery.sol\":2645:2670  idTicket_Customer[random] */\n      dup2\n      mstore\n      0x20\n      add\n      swap1\n      dup2\n      mstore\n      0x20\n      add\n      0x00\n      keccak256\n      0x00\n        /* \"Lottery/lottery.sol\":2645:2683  idTicket_Customer[random] = msg.sender */\n      0x0100\n      exp\n      dup2\n      sload\n      dup2\n      0xffffffffffffffffffffffffffffffffffffffff\n      mul\n      not\n      and\n      swap1\n      dup4\n      0xffffffffffffffffffffffffffffffffffffffff\n      and\n      mul\n      or\n      swap1\n      sstore\n      pop\n        /* \"Lottery/lottery.sol\":2704:2727  TicketPurchased(random) */\n      0x0e0f5c745de6637f5404ab23a3074a8a62a2285b098ff831750d40f08078a8e6\n        /* \"Lottery/lottery.sol\":2720:2726  random */\n      dup2\n        /* \"Lottery/lottery.sol\":2704:2727  TicketPurchased(random) */\n      mload(0x40)\n      tag_122\n      swap2\n      swap1\n      tag_21\n      jump\t// in\n    tag_122:\n      mload(0x40)\n      dup1\n      swap2\n      sub\n      swap1\n      log1\n        /* \"Lottery/lottery.sol\":2376:2739  {... */\n      pop\n        /* \"Lottery/lottery.sol\":2362:2365  i++ */\n      dup1\n      dup1\n      0x01\n      add\n      swap2\n      pop\n      pop\n        /* \"Lottery/lottery.sol\":2332:2739  for(uint i = 0 ; i < _tickets;i++)... */\n      jump(tag_112)\n    tag_113:\n      pop\n        /* \"Lottery/lottery.sol\":2111:2746  {... */\n      pop\n        /* \"Lottery/lottery.sol\":2063:2746  function BuyTickets(uint _tickets) public ... */\n      pop\n      jump\t// out\n        /* \"Lottery/lottery.sol\":616:746  function GenerateToken(uint _numTokens) public OnlyOwner(msg.sender)... */\n    tag_37:\n        /* \"Lottery/lottery.sol\":673:683  msg.sender */\n      caller\n        /* \"Lottery/lottery.sol\":3835:3840  owner */\n      0x01\n      0x00\n      swap1\n      sload\n      swap1\n      0x0100\n      exp\n      swap1\n      div\n      0xffffffffffffffffffffffffffffffffffffffff\n      and\n        /* \"Lottery/lottery.sol\":3825:3840  _owner == owner */\n      0xffffffffffffffffffffffffffffffffffffffff\n      and\n        /* \"Lottery/lottery.sol\":3825:3831  _owner */\n      dup2\n        /* \"Lottery/lottery.sol\":3825:3840  _owner == owner */\n      0xffffffffffffffffffffffffffffffffffffffff\n      and\n      eq\n        /* \"Lottery/lottery.sol\":3817:3877  require(_owner == owner,\"You are not authorized to do this\") */\n      tag_124\n      jumpi\n      mload(0x40)\n      0x08c379a000000000000000000000000000000000000000000000000000000000\n      dup2\n      mstore\n      0x04\n      add\n      tag_125\n      swap1\n      tag_80\n      jump\t// in\n    tag_125:\n      mload(0x40)\n      dup1\n      swap2\n      sub\n      swap1\n      revert\n    tag_124:\n        /* \"Lottery/lottery.sol\":701:706  token */\n      0x00\n      0x00\n      swap1\n      sload\n      swap1\n      0x0100\n      exp\n      swap1\n      div\n      0xffffffffffffffffffffffffffffffffffffffff\n      and\n        /* \"Lottery/lottery.sol\":701:726  token.increaseTotalSupply */\n      0xffffffffffffffffffffffffffffffffffffffff\n      and\n      0x1d43cc98\n        /* \"Lottery/lottery.sol\":727:737  _numTokens */\n      dup4\n        /* \"Lottery/lottery.sol\":701:738  token.increaseTotalSupply(_numTokens) */\n      mload(0x40)\n      dup3\n      0xffffffff\n      and\n      0xe0\n      shl\n      dup2\n      mstore\n      0x04\n      add\n      tag_127\n      swap2\n      swap1\n      tag_21\n      jump\t// in\n    tag_127:\n      0x00\n      mload(0x40)\n      dup1\n      dup4\n      sub\n      dup2\n      0x00\n      dup8\n      dup1\n      extcodesize\n      iszero\n      dup1\n      iszero\n      tag_128\n      jumpi\n      revert(0x00, 0x00)\n    tag_128:\n      pop\n      gas\n      call\n      iszero\n      dup1\n      iszero\n      tag_130\n      jumpi\n      returndatacopy(0x00, 0x00, returndatasize)\n      revert(0x00, returndatasize)\n    tag_130:\n      pop\n      pop\n      pop\n      pop\n        /* \"Lottery/lottery.sol\":616:746  function GenerateToken(uint _numTokens) public OnlyOwner(msg.sender)... */\n      pop\n      pop\n      jump\t// out\n        /* \"Lottery/lottery.sol\":753:1448  function BuyTokens(uint _numTokens) public payable {... */\n    tag_40:\n        /* \"Lottery/lottery.sol\":815:831  uint priceTokens */\n      0x00\n        /* \"Lottery/lottery.sol\":834:856  TokenPrice(_numTokens) */\n      tag_132\n        /* \"Lottery/lottery.sol\":845:855  _numTokens */\n      dup3\n        /* \"Lottery/lottery.sol\":834:844  TokenPrice */\n      tag_44\n        /* \"Lottery/lottery.sol\":834:856  TokenPrice(_numTokens) */\n      jump\t// in\n    tag_132:\n        /* \"Lottery/lottery.sol\":815:856  uint priceTokens = TokenPrice(_numTokens) */\n      swap1\n      pop\n        /* \"Lottery/lottery.sol\":890:901  priceTokens */\n      dup1\n        /* \"Lottery/lottery.sol\":877:886  msg.value */\n      callvalue\n        /* \"Lottery/lottery.sol\":877:901  msg.value >= priceTokens */\n      lt\n      iszero\n        /* \"Lottery/lottery.sol\":869:922  require(msg.value >= priceTokens, \"Not enough ether\") */\n      tag_133\n      jumpi\n      mload(0x40)\n      0x08c379a000000000000000000000000000000000000000000000000000000000\n      dup2\n      mstore\n      0x04\n      add\n      tag_134\n      swap1\n      tag_135\n      jump\t// in\n    tag_134:\n      mload(0x40)\n      dup1\n      swap2\n      sub\n      swap1\n      revert\n    tag_133:\n        /* \"Lottery/lottery.sol\":935:951  uint returnValue */\n      0x00\n        /* \"Lottery/lottery.sol\":966:977  priceTokens */\n      dup2\n        /* \"Lottery/lottery.sol\":954:963  msg.value */\n      callvalue\n        /* \"Lottery/lottery.sol\":954:977  msg.value - priceTokens */\n      tag_136\n      swap2\n      swap1\n      tag_137\n      jump\t// in\n    tag_136:\n        /* \"Lottery/lottery.sol\":935:977  uint returnValue = msg.value - priceTokens */\n      swap1\n      pop\n        /* \"Lottery/lottery.sol\":1085:1086  0 */\n      0x00\n        /* \"Lottery/lottery.sol\":1071:1082  returnValue */\n      dup2\n        /* \"Lottery/lottery.sol\":1071:1086  returnValue > 0 */\n      gt\n        /* \"Lottery/lottery.sol\":1067:1230  if (returnValue > 0) {... */\n      iszero\n      tag_138\n      jumpi\n        /* \"Lottery/lottery.sol\":1104:1116  bool success */\n      0x00\n        /* \"Lottery/lottery.sol\":1130:1140  msg.sender */\n      caller\n        /* \"Lottery/lottery.sol\":1122:1146  payable(msg.sender).call */\n      0xffffffffffffffffffffffffffffffffffffffff\n      and\n        /* \"Lottery/lottery.sol\":1154:1165  returnValue */\n      dup3\n        /* \"Lottery/lottery.sol\":1122:1170  payable(msg.sender).call{value: returnValue}(\"\") */\n      mload(0x40)\n      tag_139\n      swap1\n      tag_140\n      jump\t// in\n    tag_139:\n      0x00\n      mload(0x40)\n      dup1\n      dup4\n      sub\n      dup2\n      dup6\n      dup8\n      gas\n      call\n      swap3\n      pop\n      pop\n      pop\n      returndatasize\n      dup1\n      0x00\n      dup2\n      eq\n      tag_143\n      jumpi\n      mload(0x40)\n      swap2\n      pop\n      and(add(returndatasize, 0x3f), not(0x1f))\n      dup3\n      add\n      0x40\n      mstore\n      returndatasize\n      dup3\n      mstore\n      returndatasize\n      0x00\n      0x20\n      dup5\n      add\n      returndatacopy\n      jump(tag_142)\n    tag_143:\n      0x60\n      swap2\n      pop\n    tag_142:\n      pop\n        /* \"Lottery/lottery.sol\":1103:1170  (bool success, ) = payable(msg.sender).call{value: returnValue}(\"\") */\n      pop\n      swap1\n      pop\n        /* \"Lottery/lottery.sol\":1193:1200  success */\n      dup1\n        /* \"Lottery/lottery.sol\":1185:1218  require(success, \"Refund failed\") */\n      tag_144\n      jumpi\n      mload(0x40)\n      0x08c379a000000000000000000000000000000000000000000000000000000000\n      dup2\n      mstore\n      0x04\n      add\n      tag_145\n      swap1\n      tag_146\n      jump\t// in\n    tag_145:\n      mload(0x40)\n      dup1\n      swap2\n      sub\n      swap1\n      revert\n    tag_144:\n        /* \"Lottery/lottery.sol\":1088:1230  {... */\n      pop\n        /* \"Lottery/lottery.sol\":1067:1230  if (returnValue > 0) {... */\n    tag_138:\n        /* \"Lottery/lottery.sol\":1238:1250  uint balance */\n      0x00\n        /* \"Lottery/lottery.sol\":1253:1270  AvailableTokens() */\n      tag_147\n        /* \"Lottery/lottery.sol\":1253:1268  AvailableTokens */\n      tag_69\n        /* \"Lottery/lottery.sol\":1253:1270  AvailableTokens() */\n      jump\t// in\n    tag_147:\n        /* \"Lottery/lottery.sol\":1238:1270  uint balance = AvailableTokens() */\n      swap1\n      pop\n        /* \"Lottery/lottery.sol\":1299:1306  balance */\n      dup1\n        /* \"Lottery/lottery.sol\":1285:1295  _numTokens */\n      dup5\n        /* \"Lottery/lottery.sol\":1285:1306  _numTokens <= balance */\n      gt\n      iszero\n        /* \"Lottery/lottery.sol\":1277:1347  require(_numTokens <= balance, \"Not enough tokens available for sale\") */\n      tag_148\n      jumpi\n      mload(0x40)\n      0x08c379a000000000000000000000000000000000000000000000000000000000\n      dup2\n      mstore\n      0x04\n      add\n      tag_149\n      swap1\n      tag_107\n      jump\t// in\n    tag_149:\n      mload(0x40)\n      dup1\n      swap2\n      sub\n      swap1\n      revert\n    tag_148:\n        /* \"Lottery/lottery.sol\":1356:1361  token */\n      0x00\n      0x00\n      swap1\n      sload\n      swap1\n      0x0100\n      exp\n      swap1\n      div\n      0xffffffffffffffffffffffffffffffffffffffff\n      and\n        /* \"Lottery/lottery.sol\":1356:1370  token.transfer */\n      0xffffffffffffffffffffffffffffffffffffffff\n      and\n      0xa9059cbb\n        /* \"Lottery/lottery.sol\":1371:1381  msg.sender */\n      caller\n        /* \"Lottery/lottery.sol\":1383:1393  _numTokens */\n      dup7\n        /* \"Lottery/lottery.sol\":1356:1394  token.transfer(msg.sender, _numTokens) */\n      mload(0x40)\n      dup4\n      0xffffffff\n      and\n      0xe0\n      shl\n      dup2\n      mstore\n      0x04\n      add\n      tag_150\n      swap3\n      swap2\n      swap1\n      tag_151\n      jump\t// in\n    tag_150:\n      0x20\n      mload(0x40)\n      dup1\n      dup4\n      sub\n      dup2\n      0x00\n      dup8\n      gas\n      call\n      iszero\n      dup1\n      iszero\n      tag_153\n      jumpi\n      returndatacopy(0x00, 0x00, returndatasize)\n      revert(0x00, returndatasize)\n    tag_153:\n      pop\n      pop\n      pop\n      pop\n      mload(0x40)\n      returndatasize\n      not(0x1f)\n      0x1f\n      dup3\n      add\n      and\n      dup3\n      add\n      dup1\n      0x40\n      mstore\n      pop\n      dup2\n      add\n      swap1\n      tag_154\n      swap2\n      swap1\n      tag_100\n      jump\t// in\n    tag_154:\n      pop\n        /* \"Lottery/lottery.sol\":1406:1444  BuyTokensEvent(_numTokens, msg.sender) */\n      0xca73a6c98ab95630aa6925b7d7438fbb8e590211fe1911c531cb30155cf33d2d\n        /* \"Lottery/lottery.sol\":1421:1431  _numTokens */\n      dup5\n        /* \"Lottery/lottery.sol\":1433:1443  msg.sender */\n      caller\n        /* \"Lottery/lottery.sol\":1406:1444  BuyTokensEvent(_numTokens, msg.sender) */\n      mload(0x40)\n      tag_155\n      swap3\n      swap2\n      swap1\n      tag_156\n      jump\t// in\n    tag_155:\n      mload(0x40)\n      dup1\n      swap2\n      sub\n      swap1\n      log1\n        /* \"Lottery/lottery.sol\":804:1448  {... */\n      pop\n      pop\n      pop\n        /* \"Lottery/lottery.sol\":753:1448  function BuyTokens(uint _numTokens) public payable {... */\n      pop\n      jump\t// out\n        /* \"Lottery/lottery.sol\":507:608  function TokenPrice(uint _numTokens) public  pure  returns (uint) { return (_numTokens * (1 ether));} */\n    tag_44:\n        /* \"Lottery/lottery.sol\":567:571  uint */\n      0x00\n        /* \"Lottery/lottery.sol\":597:604  1 ether */\n      0x0de0b6b3a7640000\n        /* \"Lottery/lottery.sol\":583:593  _numTokens */\n      dup3\n        /* \"Lottery/lottery.sol\":583:605  _numTokens * (1 ether) */\n      tag_158\n      swap2\n      swap1\n      tag_103\n      jump\t// in\n    tag_158:\n        /* \"Lottery/lottery.sol\":575:606  return (_numTokens * (1 ether)) */\n      swap1\n      pop\n        /* \"Lottery/lottery.sol\":507:608  function TokenPrice(uint _numTokens) public  pure  returns (uint) { return (_numTokens * (1 ether));} */\n      swap2\n      swap1\n      pop\n      jump\t// out\n        /* \"Lottery/lottery.sol\":189:209  address public owner */\n    tag_48:\n      0x01\n      0x00\n      swap1\n      sload\n      swap1\n      0x0100\n      exp\n      swap1\n      div\n      0xffffffffffffffffffffffffffffffffffffffff\n      and\n      dup2\n      jump\t// out\n        /* \"Lottery/lottery.sol\":216:248  address public  contract_created */\n    tag_53:\n      0x02\n      0x00\n      swap1\n      sload\n      swap1\n      0x0100\n      exp\n      swap1\n      div\n      0xffffffffffffffffffffffffffffffffffffffff\n      and\n      dup2\n      jump\t// out\n        /* \"Lottery/lottery.sol\":2754:2849  function MyTickets() public  view returns(uint[] memory){return idCustomer_Ticket[msg.sender];} */\n    tag_57:\n        /* \"Lottery/lottery.sol\":2796:2809  uint[] memory */\n      0x60\n        /* \"Lottery/lottery.sol\":2818:2835  idCustomer_Ticket */\n      0x05\n        /* \"Lottery/lottery.sol\":2818:2847  idCustomer_Ticket[msg.sender] */\n      0x00\n        /* \"Lottery/lottery.sol\":2836:2846  msg.sender */\n      caller\n        /* \"Lottery/lottery.sol\":2818:2847  idCustomer_Ticket[msg.sender] */\n      0xffffffffffffffffffffffffffffffffffffffff\n      and\n      0xffffffffffffffffffffffffffffffffffffffff\n      and\n      dup2\n      mstore\n      0x20\n      add\n      swap1\n      dup2\n      mstore\n      0x20\n      add\n      0x00\n      keccak256\n        /* \"Lottery/lottery.sol\":2811:2847  return idCustomer_Ticket[msg.sender] */\n      dup1\n      sload\n      dup1\n      0x20\n      mul\n      0x20\n      add\n      mload(0x40)\n      swap1\n      dup2\n      add\n      0x40\n      mstore\n      dup1\n      swap3\n      swap2\n      swap1\n      dup2\n      dup2\n      mstore\n      0x20\n      add\n      dup3\n      dup1\n      sload\n      dup1\n      iszero\n      tag_160\n      jumpi\n      0x20\n      mul\n      dup3\n      add\n      swap2\n      swap1\n      0x00\n      mstore\n      keccak256(0x00, 0x20)\n      swap1\n    tag_161:\n      dup2\n      sload\n      dup2\n      mstore\n      0x20\n      add\n      swap1\n      0x01\n      add\n      swap1\n      dup1\n      dup4\n      gt\n      tag_161\n      jumpi\n    tag_160:\n      pop\n      pop\n      pop\n      pop\n      pop\n      swap1\n      pop\n        /* \"Lottery/lottery.sol\":2754:2849  function MyTickets() public  view returns(uint[] memory){return idCustomer_Ticket[msg.sender];} */\n      swap1\n      jump\t// out\n        /* \"Lottery/lottery.sol\":1460:1568  function ViewMyTokens() public view returns(uint)... */\n    tag_62:\n        /* \"Lottery/lottery.sol\":1504:1508  uint */\n      0x00\n        /* \"Lottery/lottery.sol\":1533:1538  token */\n      0x00\n      0x00\n      swap1\n      sload\n      swap1\n      0x0100\n      exp\n      swap1\n      div\n      0xffffffffffffffffffffffffffffffffffffffff\n      and\n        /* \"Lottery/lottery.sol\":1533:1548  token.balanceOf */\n      0xffffffffffffffffffffffffffffffffffffffff\n      and\n      0x70a08231\n        /* \"Lottery/lottery.sol\":1549:1559  msg.sender */\n      caller\n        /* \"Lottery/lottery.sol\":1533:1560  token.balanceOf(msg.sender) */\n      mload(0x40)\n      dup3\n      0xffffffff\n      and\n      0xe0\n      shl\n      dup2\n      mstore\n      0x04\n      add\n      tag_163\n      swap2\n      swap1\n      tag_50\n      jump\t// in\n    tag_163:\n      0x20\n      mload(0x40)\n      dup1\n      dup4\n      sub\n      dup2\n      dup7\n      gas\n      staticcall\n      iszero\n      dup1\n      iszero\n      tag_165\n      jumpi\n      returndatacopy(0x00, 0x00, returndatasize)\n      revert(0x00, returndatasize)\n    tag_165:\n      pop\n      pop\n      pop\n      pop\n      mload(0x40)\n      returndatasize\n      not(0x1f)\n      0x1f\n      dup3\n      add\n      and\n      dup3\n      add\n      dup1\n      0x40\n      mstore\n      pop\n      dup2\n      add\n      swap1\n      tag_166\n      swap2\n      swap1\n      tag_76\n      jump\t// in\n    tag_166:\n        /* \"Lottery/lottery.sol\":1526:1560  return token.balanceOf(msg.sender) */\n      swap1\n      pop\n        /* \"Lottery/lottery.sol\":1460:1568  function ViewMyTokens() public view returns(uint)... */\n      swap1\n      jump\t// out\n        /* \"Lottery/lottery.sol\":3376:3756  function ReturnTokens(uint _numTokens) public payable ... */\n    tag_66:\n        /* \"Lottery/lottery.sol\":3468:3469  0 */\n      0x00\n        /* \"Lottery/lottery.sol\":3455:3465  _numTokens */\n      dup2\n        /* \"Lottery/lottery.sol\":3455:3469  _numTokens > 0 */\n      gt\n        /* \"Lottery/lottery.sol\":3447:3519  require(_numTokens > 0,\"Must be at least 1 token for this transaction!\") */\n      tag_168\n      jumpi\n      mload(0x40)\n      0x08c379a000000000000000000000000000000000000000000000000000000000\n      dup2\n      mstore\n      0x04\n      add\n      tag_169\n      swap1\n      tag_170\n      jump\t// in\n    tag_169:\n      mload(0x40)\n      dup1\n      swap2\n      sub\n      swap1\n      revert\n    tag_168:\n        /* \"Lottery/lottery.sol\":3552:3566  ViewMyTokens() */\n      tag_171\n        /* \"Lottery/lottery.sol\":3552:3564  ViewMyTokens */\n      tag_62\n        /* \"Lottery/lottery.sol\":3552:3566  ViewMyTokens() */\n      jump\t// in\n    tag_171:\n        /* \"Lottery/lottery.sol\":3538:3548  _numTokens */\n      dup2\n        /* \"Lottery/lottery.sol\":3538:3566  _numTokens <= ViewMyTokens() */\n      gt\n      iszero\n        /* \"Lottery/lottery.sol\":3530:3607  require(_numTokens <= ViewMyTokens(), \"Not enough tokens available for sale\") */\n      tag_172\n      jumpi\n      mload(0x40)\n      0x08c379a000000000000000000000000000000000000000000000000000000000\n      dup2\n      mstore\n      0x04\n      add\n      tag_173\n      swap1\n      tag_107\n      jump\t// in\n    tag_173:\n      mload(0x40)\n      dup1\n      swap2\n      sub\n      swap1\n      revert\n    tag_172:\n        /* \"Lottery/lottery.sol\":3618:3623  token */\n      0x00\n      0x00\n      swap1\n      sload\n      swap1\n      0x0100\n      exp\n      swap1\n      div\n      0xffffffffffffffffffffffffffffffffffffffff\n      and\n        /* \"Lottery/lottery.sol\":3618:3641  token.transfer_customer */\n      0xffffffffffffffffffffffffffffffffffffffff\n      and\n      0xd44237aa\n        /* \"Lottery/lottery.sol\":3642:3652  msg.sender */\n      caller\n        /* \"Lottery/lottery.sol\":3662:3666  this */\n      address\n        /* \"Lottery/lottery.sol\":3669:3679  _numTokens */\n      dup5\n        /* \"Lottery/lottery.sol\":3618:3680  token.transfer_customer(msg.sender, address(this), _numTokens) */\n      mload(0x40)\n      dup5\n      0xffffffff\n      and\n      0xe0\n      shl\n      dup2\n      mstore\n      0x04\n      add\n      tag_174\n      swap4\n      swap3\n      swap2\n      swap1\n      tag_96\n      jump\t// in\n    tag_174:\n      0x20\n      mload(0x40)\n      dup1\n      dup4\n      sub\n      dup2\n      0x00\n      dup8\n      gas\n      call\n      iszero\n      dup1\n      iszero\n      tag_176\n      jumpi\n      returndatacopy(0x00, 0x00, returndatasize)\n      revert(0x00, returndatasize)\n    tag_176:\n      pop\n      pop\n      pop\n      pop\n      mload(0x40)\n      returndatasize\n      not(0x1f)\n      0x1f\n      dup3\n      add\n      and\n      dup3\n      add\n      dup1\n      0x40\n      mstore\n      pop\n      dup2\n      add\n      swap1\n      tag_177\n      swap2\n      swap1\n      tag_100\n      jump\t// in\n    tag_177:\n      pop\n        /* \"Lottery/lottery.sol\":3699:3709  msg.sender */\n      caller\n        /* \"Lottery/lottery.sol\":3691:3715  payable(msg.sender).call */\n      0xffffffffffffffffffffffffffffffffffffffff\n      and\n        /* \"Lottery/lottery.sol\":3723:3745  TokenPrice(_numTokens) */\n      tag_178\n        /* \"Lottery/lottery.sol\":3734:3744  _numTokens */\n      dup3\n        /* \"Lottery/lottery.sol\":3723:3733  TokenPrice */\n      tag_44\n        /* \"Lottery/lottery.sol\":3723:3745  TokenPrice(_numTokens) */\n      jump\t// in\n    tag_178:\n        /* \"Lottery/lottery.sol\":3691:3746  payable(msg.sender).call{value: TokenPrice(_numTokens)} */\n      pop\n      pop\n        /* \"Lottery/lottery.sol\":3376:3756  function ReturnTokens(uint _numTokens) public payable ... */\n      pop\n      jump\t// out\n        /* \"Lottery/lottery.sol\":1576:1693  function AvailableTokens() public view returns(uint)... */\n    tag_69:\n        /* \"Lottery/lottery.sol\":1623:1627  uint */\n      0x00\n        /* \"Lottery/lottery.sol\":1652:1657  token */\n      0x00\n      0x00\n      swap1\n      sload\n      swap1\n      0x0100\n      exp\n      swap1\n      div\n      0xffffffffffffffffffffffffffffffffffffffff\n      and\n        /* \"Lottery/lottery.sol\":1652:1667  token.balanceOf */\n      0xffffffffffffffffffffffffffffffffffffffff\n      and\n      0x70a08231\n        /* \"Lottery/lottery.sol\":1668:1684  contract_created */\n      0x02\n      0x00\n      swap1\n      sload\n      swap1\n      0x0100\n      exp\n      swap1\n      div\n      0xffffffffffffffffffffffffffffffffffffffff\n      and\n        /* \"Lottery/lottery.sol\":1652:1685  token.balanceOf(contract_created) */\n      mload(0x40)\n      dup3\n      0xffffffff\n      and\n      0xe0\n      shl\n      dup2\n      mstore\n      0x04\n      add\n      tag_180\n      swap2\n      swap1\n      tag_50\n      jump\t// in\n    tag_180:\n      0x20\n      mload(0x40)\n      dup1\n      dup4\n      sub\n      dup2\n      dup7\n      gas\n      staticcall\n      iszero\n      dup1\n      iszero\n      tag_182\n      jumpi\n      returndatacopy(0x00, 0x00, returndatasize)\n      revert(0x00, returndatasize)\n    tag_182:\n      pop\n      pop\n      pop\n      pop\n      mload(0x40)\n      returndatasize\n      not(0x1f)\n      0x1f\n      dup3\n      add\n      and\n      dup3\n      add\n      dup1\n      0x40\n      mstore\n      pop\n      dup2\n      add\n      swap1\n      tag_183\n      swap2\n      swap1\n      tag_76\n      jump\t// in\n    tag_183:\n        /* \"Lottery/lottery.sol\":1645:1685  return token.balanceOf(contract_created) */\n      swap1\n      pop\n        /* \"Lottery/lottery.sol\":1576:1693  function AvailableTokens() public view returns(uint)... */\n      swap1\n      jump\t// out\n        /* \"#utility.yul\":7:84   */\n    tag_184:\n        /* \"#utility.yul\":44:51   */\n      0x00\n        /* \"#utility.yul\":73:78   */\n      dup2\n        /* \"#utility.yul\":62:78   */\n      swap1\n      pop\n        /* \"#utility.yul\":7:84   */\n      swap2\n      swap1\n      pop\n      jump\t// out\n        /* \"#utility.yul\":90:208   */\n    tag_185:\n        /* \"#utility.yul\":177:201   */\n      tag_232\n        /* \"#utility.yul\":195:200   */\n      dup2\n        /* \"#utility.yul\":177:201   */\n      tag_184\n      jump\t// in\n    tag_232:\n        /* \"#utility.yul\":172:175   */\n      dup3\n        /* \"#utility.yul\":165:202   */\n      mstore\n        /* \"#utility.yul\":90:208   */\n      pop\n      pop\n      jump\t// out\n        /* \"#utility.yul\":214:436   */\n    tag_21:\n        /* \"#utility.yul\":307:311   */\n      0x00\n        /* \"#utility.yul\":345:347   */\n      0x20\n        /* \"#utility.yul\":334:343   */\n      dup3\n        /* \"#utility.yul\":330:348   */\n      add\n        /* \"#utility.yul\":322:348   */\n      swap1\n      pop\n        /* \"#utility.yul\":358:429   */\n      tag_234\n        /* \"#utility.yul\":426:427   */\n      0x00\n        /* \"#utility.yul\":415:424   */\n      dup4\n        /* \"#utility.yul\":411:428   */\n      add\n        /* \"#utility.yul\":402:408   */\n      dup5\n        /* \"#utility.yul\":358:429   */\n      tag_185\n      jump\t// in\n    tag_234:\n        /* \"#utility.yul\":214:436   */\n      swap3\n      swap2\n      pop\n      pop\n      jump\t// out\n        /* \"#utility.yul\":523:640   */\n    tag_187:\n        /* \"#utility.yul\":632:633   */\n      0x00\n        /* \"#utility.yul\":629:630   */\n      0x00\n        /* \"#utility.yul\":622:634   */\n      revert\n        /* \"#utility.yul\":769:891   */\n    tag_189:\n        /* \"#utility.yul\":842:866   */\n      tag_239\n        /* \"#utility.yul\":860:865   */\n      dup2\n        /* \"#utility.yul\":842:866   */\n      tag_184\n      jump\t// in\n    tag_239:\n        /* \"#utility.yul\":835:840   */\n      dup2\n        /* \"#utility.yul\":832:867   */\n      eq\n        /* \"#utility.yul\":822:885   */\n      tag_240\n      jumpi\n        /* \"#utility.yul\":881:882   */\n      0x00\n        /* \"#utility.yul\":878:879   */\n      0x00\n        /* \"#utility.yul\":871:883   */\n      revert\n        /* \"#utility.yul\":822:885   */\n    tag_240:\n        /* \"#utility.yul\":769:891   */\n      pop\n      jump\t// out\n        /* \"#utility.yul\":897:1036   */\n    tag_190:\n        /* \"#utility.yul\":943:948   */\n      0x00\n        /* \"#utility.yul\":981:987   */\n      dup2\n        /* \"#utility.yul\":968:988   */\n      calldataload\n        /* \"#utility.yul\":959:988   */\n      swap1\n      pop\n        /* \"#utility.yul\":997:1030   */\n      tag_242\n        /* \"#utility.yul\":1024:1029   */\n      dup2\n        /* \"#utility.yul\":997:1030   */\n      tag_189\n      jump\t// in\n    tag_242:\n        /* \"#utility.yul\":897:1036   */\n      swap3\n      swap2\n      pop\n      pop\n      jump\t// out\n        /* \"#utility.yul\":1042:1371   */\n    tag_32:\n        /* \"#utility.yul\":1101:1107   */\n      0x00\n        /* \"#utility.yul\":1150:1152   */\n      0x20\n        /* \"#utility.yul\":1138:1147   */\n      dup3\n        /* \"#utility.yul\":1129:1136   */\n      dup5\n        /* \"#utility.yul\":1125:1148   */\n      sub\n        /* \"#utility.yul\":1121:1153   */\n      slt\n        /* \"#utility.yul\":1118:1237   */\n      iszero\n      tag_244\n      jumpi\n        /* \"#utility.yul\":1156:1235   */\n      tag_245\n      tag_187\n      jump\t// in\n    tag_245:\n        /* \"#utility.yul\":1118:1237   */\n    tag_244:\n        /* \"#utility.yul\":1276:1277   */\n      0x00\n        /* \"#utility.yul\":1301:1354   */\n      tag_246\n        /* \"#utility.yul\":1346:1353   */\n      dup5\n        /* \"#utility.yul\":1337:1343   */\n      dup3\n        /* \"#utility.yul\":1326:1335   */\n      dup6\n        /* \"#utility.yul\":1322:1344   */\n      add\n        /* \"#utility.yul\":1301:1354   */\n      tag_190\n      jump\t// in\n    tag_246:\n        /* \"#utility.yul\":1291:1354   */\n      swap2\n      pop\n        /* \"#utility.yul\":1247:1364   */\n      pop\n        /* \"#utility.yul\":1042:1371   */\n      swap3\n      swap2\n      pop\n      pop\n      jump\t// out\n        /* \"#utility.yul\":1377:1503   */\n    tag_191:\n        /* \"#utility.yul\":1414:1421   */\n      0x00\n        /* \"#utility.yul\":1454:1496   */\n      0xffffffffffffffffffffffffffffffffffffffff\n        /* \"#utility.yul\":1447:1452   */\n      dup3\n        /* \"#utility.yul\":1443:1497   */\n      and\n        /* \"#utility.yul\":1432:1497   */\n      swap1\n      pop\n        /* \"#utility.yul\":1377:1503   */\n      swap2\n      swap1\n      pop\n      jump\t// out\n        /* \"#utility.yul\":1509:1605   */\n    tag_192:\n        /* \"#utility.yul\":1546:1553   */\n      0x00\n        /* \"#utility.yul\":1575:1599   */\n      tag_249\n        /* \"#utility.yul\":1593:1598   */\n      dup3\n        /* \"#utility.yul\":1575:1599   */\n      tag_191\n      jump\t// in\n    tag_249:\n        /* \"#utility.yul\":1564:1599   */\n      swap1\n      pop\n        /* \"#utility.yul\":1509:1605   */\n      swap2\n      swap1\n      pop\n      jump\t// out\n        /* \"#utility.yul\":1611:1729   */\n    tag_193:\n        /* \"#utility.yul\":1698:1722   */\n      tag_251\n        /* \"#utility.yul\":1716:1721   */\n      dup2\n        /* \"#utility.yul\":1698:1722   */\n      tag_192\n      jump\t// in\n    tag_251:\n        /* \"#utility.yul\":1693:1696   */\n      dup3\n        /* \"#utility.yul\":1686:1723   */\n      mstore\n        /* \"#utility.yul\":1611:1729   */\n      pop\n      pop\n      jump\t// out\n        /* \"#utility.yul\":1735:1957   */\n    tag_50:\n        /* \"#utility.yul\":1828:1832   */\n      0x00\n        /* \"#utility.yul\":1866:1868   */\n      0x20\n        /* \"#utility.yul\":1855:1864   */\n      dup3\n        /* \"#utility.yul\":1851:1869   */\n      add\n        /* \"#utility.yul\":1843:1869   */\n      swap1\n      pop\n        /* \"#utility.yul\":1879:1950   */\n      tag_253\n        /* \"#utility.yul\":1947:1948   */\n      0x00\n        /* \"#utility.yul\":1936:1945   */\n      dup4\n        /* \"#utility.yul\":1932:1949   */\n      add\n        /* \"#utility.yul\":1923:1929   */\n      dup5\n        /* \"#utility.yul\":1879:1950   */\n      tag_193\n      jump\t// in\n    tag_253:\n        /* \"#utility.yul\":1735:1957   */\n      swap3\n      swap2\n      pop\n      pop\n      jump\t// out\n        /* \"#utility.yul\":1963:2077   */\n    tag_194:\n        /* \"#utility.yul\":2030:2036   */\n      0x00\n        /* \"#utility.yul\":2064:2069   */\n      dup2\n        /* \"#utility.yul\":2058:2070   */\n      mload\n        /* \"#utility.yul\":2048:2070   */\n      swap1\n      pop\n        /* \"#utility.yul\":1963:2077   */\n      swap2\n      swap1\n      pop\n      jump\t// out\n        /* \"#utility.yul\":2083:2267   */\n    tag_195:\n        /* \"#utility.yul\":2182:2193   */\n      0x00\n        /* \"#utility.yul\":2216:2222   */\n      dup3\n        /* \"#utility.yul\":2211:2214   */\n      dup3\n        /* \"#utility.yul\":2204:2223   */\n      mstore\n        /* \"#utility.yul\":2256:2260   */\n      0x20\n        /* \"#utility.yul\":2251:2254   */\n      dup3\n        /* \"#utility.yul\":2247:2261   */\n      add\n        /* \"#utility.yul\":2232:2261   */\n      swap1\n      pop\n        /* \"#utility.yul\":2083:2267   */\n      swap3\n      swap2\n      pop\n      pop\n      jump\t// out\n        /* \"#utility.yul\":2273:2405   */\n    tag_196:\n        /* \"#utility.yul\":2340:2344   */\n      0x00\n        /* \"#utility.yul\":2363:2366   */\n      dup2\n        /* \"#utility.yul\":2355:2366   */\n      swap1\n      pop\n        /* \"#utility.yul\":2393:2397   */\n      0x20\n        /* \"#utility.yul\":2388:2391   */\n      dup3\n        /* \"#utility.yul\":2384:2398   */\n      add\n        /* \"#utility.yul\":2376:2398   */\n      swap1\n      pop\n        /* \"#utility.yul\":2273:2405   */\n      swap2\n      swap1\n      pop\n      jump\t// out\n        /* \"#utility.yul\":2411:2519   */\n    tag_197:\n        /* \"#utility.yul\":2488:2512   */\n      tag_258\n        /* \"#utility.yul\":2506:2511   */\n      dup2\n        /* \"#utility.yul\":2488:2512   */\n      tag_184\n      jump\t// in\n    tag_258:\n        /* \"#utility.yul\":2483:2486   */\n      dup3\n        /* \"#utility.yul\":2476:2513   */\n      mstore\n        /* \"#utility.yul\":2411:2519   */\n      pop\n      pop\n      jump\t// out\n        /* \"#utility.yul\":2525:2704   */\n    tag_198:\n        /* \"#utility.yul\":2594:2604   */\n      0x00\n        /* \"#utility.yul\":2615:2661   */\n      tag_260\n        /* \"#utility.yul\":2657:2660   */\n      dup4\n        /* \"#utility.yul\":2649:2655   */\n      dup4\n        /* \"#utility.yul\":2615:2661   */\n      tag_197\n      jump\t// in\n    tag_260:\n        /* \"#utility.yul\":2693:2697   */\n      0x20\n        /* \"#utility.yul\":2688:2691   */\n      dup4\n        /* \"#utility.yul\":2684:2698   */\n      add\n        /* \"#utility.yul\":2670:2698   */\n      swap1\n      pop\n        /* \"#utility.yul\":2525:2704   */\n      swap3\n      swap2\n      pop\n      pop\n      jump\t// out\n        /* \"#utility.yul\":2710:2823   */\n    tag_199:\n        /* \"#utility.yul\":2780:2784   */\n      0x00\n        /* \"#utility.yul\":2812:2816   */\n      0x20\n        /* \"#utility.yul\":2807:2810   */\n      dup3\n        /* \"#utility.yul\":2803:2817   */\n      add\n        /* \"#utility.yul\":2795:2817   */\n      swap1\n      pop\n        /* \"#utility.yul\":2710:2823   */\n      swap2\n      swap1\n      pop\n      jump\t// out\n        /* \"#utility.yul\":2859:3591   */\n    tag_200:\n        /* \"#utility.yul\":2978:2981   */\n      0x00\n        /* \"#utility.yul\":3007:3061   */\n      tag_263\n        /* \"#utility.yul\":3055:3060   */\n      dup3\n        /* \"#utility.yul\":3007:3061   */\n      tag_194\n      jump\t// in\n    tag_263:\n        /* \"#utility.yul\":3077:3163   */\n      tag_264\n        /* \"#utility.yul\":3156:3162   */\n      dup2\n        /* \"#utility.yul\":3151:3154   */\n      dup6\n        /* \"#utility.yul\":3077:3163   */\n      tag_195\n      jump\t// in\n    tag_264:\n        /* \"#utility.yul\":3070:3163   */\n      swap4\n      pop\n        /* \"#utility.yul\":3187:3243   */\n      tag_265\n        /* \"#utility.yul\":3237:3242   */\n      dup4\n        /* \"#utility.yul\":3187:3243   */\n      tag_196\n      jump\t// in\n    tag_265:\n        /* \"#utility.yul\":3266:3273   */\n      dup1\n        /* \"#utility.yul\":3297:3298   */\n      0x00\n        /* \"#utility.yul\":3282:3566   */\n    tag_266:\n        /* \"#utility.yul\":3307:3313   */\n      dup4\n        /* \"#utility.yul\":3304:3305   */\n      dup2\n        /* \"#utility.yul\":3301:3314   */\n      lt\n        /* \"#utility.yul\":3282:3566   */\n      iszero\n      tag_268\n      jumpi\n        /* \"#utility.yul\":3383:3389   */\n      dup2\n        /* \"#utility.yul\":3377:3390   */\n      mload\n        /* \"#utility.yul\":3410:3473   */\n      tag_269\n        /* \"#utility.yul\":3469:3472   */\n      dup9\n        /* \"#utility.yul\":3454:3467   */\n      dup3\n        /* \"#utility.yul\":3410:3473   */\n      tag_198\n      jump\t// in\n    tag_269:\n        /* \"#utility.yul\":3403:3473   */\n      swap8\n      pop\n        /* \"#utility.yul\":3496:3556   */\n      tag_270\n        /* \"#utility.yul\":3549:3555   */\n      dup4\n        /* \"#utility.yul\":3496:3556   */\n      tag_199\n      jump\t// in\n    tag_270:\n        /* \"#utility.yul\":3486:3556   */\n      swap3\n      pop\n        /* \"#utility.yul\":3342:3566   */\n      pop\n        /* \"#utility.yul\":3329:3330   */\n      0x01\n        /* \"#utility.yul\":3326:3327   */\n      dup2\n        /* \"#utility.yul\":3322:3331   */\n      add\n        /* \"#utility.yul\":3317:3331   */\n      swap1\n      pop\n        /* \"#utility.yul\":3282:3566   */\n      jump(tag_266)\n    tag_268:\n        /* \"#utility.yul\":3286:3300   */\n      pop\n        /* \"#utility.yul\":3582:3585   */\n      dup6\n        /* \"#utility.yul\":3575:3585   */\n      swap4\n      pop\n        /* \"#utility.yul\":2983:3591   */\n      pop\n      pop\n      pop\n        /* \"#utility.yul\":2859:3591   */\n      swap3\n      swap2\n      pop\n      pop\n      jump\t// out\n        /* \"#utility.yul\":3597:3970   */\n    tag_59:\n        /* \"#utility.yul\":3740:3744   */\n      0x00\n        /* \"#utility.yul\":3778:3780   */\n      0x20\n        /* \"#utility.yul\":3767:3776   */\n      dup3\n        /* \"#utility.yul\":3763:3781   */\n      add\n        /* \"#utility.yul\":3755:3781   */\n      swap1\n      pop\n        /* \"#utility.yul\":3827:3836   */\n      dup2\n        /* \"#utility.yul\":3821:3825   */\n      dup2\n        /* \"#utility.yul\":3817:3837   */\n      sub\n        /* \"#utility.yul\":3813:3814   */\n      0x00\n        /* \"#utility.yul\":3802:3811   */\n      dup4\n        /* \"#utility.yul\":3798:3815   */\n      add\n        /* \"#utility.yul\":3791:3838   */\n      mstore\n        /* \"#utility.yul\":3855:3963   */\n      tag_272\n        /* \"#utility.yul\":3958:3962   */\n      dup2\n        /* \"#utility.yul\":3949:3955   */\n      dup5\n        /* \"#utility.yul\":3855:3963   */\n      tag_200\n      jump\t// in\n    tag_272:\n        /* \"#utility.yul\":3847:3963   */\n      swap1\n      pop\n        /* \"#utility.yul\":3597:3970   */\n      swap3\n      swap2\n      pop\n      pop\n      jump\t// out\n        /* \"#utility.yul\":3976:4119   */\n    tag_201:\n        /* \"#utility.yul\":4033:4038   */\n      0x00\n        /* \"#utility.yul\":4064:4070   */\n      dup2\n        /* \"#utility.yul\":4058:4071   */\n      mload\n        /* \"#utility.yul\":4049:4071   */\n      swap1\n      pop\n        /* \"#utility.yul\":4080:4113   */\n      tag_274\n        /* \"#utility.yul\":4107:4112   */\n      dup2\n        /* \"#utility.yul\":4080:4113   */\n      tag_189\n      jump\t// in\n    tag_274:\n        /* \"#utility.yul\":3976:4119   */\n      swap3\n      swap2\n      pop\n      pop\n      jump\t// out\n        /* \"#utility.yul\":4125:4476   */\n    tag_76:\n        /* \"#utility.yul\":4195:4201   */\n      0x00\n        /* \"#utility.yul\":4244:4246   */\n      0x20\n        /* \"#utility.yul\":4232:4241   */\n      dup3\n        /* \"#utility.yul\":4223:4230   */\n      dup5\n        /* \"#utility.yul\":4219:4242   */\n      sub\n        /* \"#utility.yul\":4215:4247   */\n      slt\n        /* \"#utility.yul\":4212:4331   */\n      iszero\n      tag_276\n      jumpi\n        /* \"#utility.yul\":4250:4329   */\n      tag_277\n      tag_187\n      jump\t// in\n    tag_277:\n        /* \"#utility.yul\":4212:4331   */\n    tag_276:\n        /* \"#utility.yul\":4370:4371   */\n      0x00\n        /* \"#utility.yul\":4395:4459   */\n      tag_278\n        /* \"#utility.yul\":4451:4458   */\n      dup5\n        /* \"#utility.yul\":4442:4448   */\n      dup3\n        /* \"#utility.yul\":4431:4440   */\n      dup6\n        /* \"#utility.yul\":4427:4449   */\n      add\n        /* \"#utility.yul\":4395:4459   */\n      tag_201\n      jump\t// in\n    tag_278:\n        /* \"#utility.yul\":4385:4459   */\n      swap2\n      pop\n        /* \"#utility.yul\":4341:4469   */\n      pop\n        /* \"#utility.yul\":4125:4476   */\n      swap3\n      swap2\n      pop\n      pop\n      jump\t// out\n        /* \"#utility.yul\":4482:4651   */\n    tag_202:\n        /* \"#utility.yul\":4566:4577   */\n      0x00\n        /* \"#utility.yul\":4600:4606   */\n      dup3\n        /* \"#utility.yul\":4595:4598   */\n      dup3\n        /* \"#utility.yul\":4588:4607   */\n      mstore\n        /* \"#utility.yul\":4640:4644   */\n      0x20\n        /* \"#utility.yul\":4635:4638   */\n      dup3\n        /* \"#utility.yul\":4631:4645   */\n      add\n        /* \"#utility.yul\":4616:4645   */\n      swap1\n      pop\n        /* \"#utility.yul\":4482:4651   */\n      swap3\n      swap2\n      pop\n      pop\n      jump\t// out\n        /* \"#utility.yul\":4657:4877   */\n    tag_203:\n        /* \"#utility.yul\":4797:4831   */\n      0x596f7520617265206e6f7420617574686f72697a656420746f20646f20746869\n        /* \"#utility.yul\":4793:4794   */\n      0x00\n        /* \"#utility.yul\":4785:4791   */\n      dup3\n        /* \"#utility.yul\":4781:4795   */\n      add\n        /* \"#utility.yul\":4774:4832   */\n      mstore\n        /* \"#utility.yul\":4866:4869   */\n      0x7300000000000000000000000000000000000000000000000000000000000000\n        /* \"#utility.yul\":4861:4863   */\n      0x20\n        /* \"#utility.yul\":4853:4859   */\n      dup3\n        /* \"#utility.yul\":4849:4864   */\n      add\n        /* \"#utility.yul\":4842:4870   */\n      mstore\n        /* \"#utility.yul\":4657:4877   */\n      pop\n      jump\t// out\n        /* \"#utility.yul\":4883:5249   */\n    tag_204:\n        /* \"#utility.yul\":5025:5028   */\n      0x00\n        /* \"#utility.yul\":5046:5113   */\n      tag_282\n        /* \"#utility.yul\":5110:5112   */\n      0x21\n        /* \"#utility.yul\":5105:5108   */\n      dup4\n        /* \"#utility.yul\":5046:5113   */\n      tag_202\n      jump\t// in\n    tag_282:\n        /* \"#utility.yul\":5039:5113   */\n      swap2\n      pop\n        /* \"#utility.yul\":5122:5215   */\n      tag_283\n        /* \"#utility.yul\":5211:5214   */\n      dup3\n        /* \"#utility.yul\":5122:5215   */\n      tag_203\n      jump\t// in\n    tag_283:\n        /* \"#utility.yul\":5240:5242   */\n      0x40\n        /* \"#utility.yul\":5235:5238   */\n      dup3\n        /* \"#utility.yul\":5231:5243   */\n      add\n        /* \"#utility.yul\":5224:5243   */\n      swap1\n      pop\n        /* \"#utility.yul\":4883:5249   */\n      swap2\n      swap1\n      pop\n      jump\t// out\n        /* \"#utility.yul\":5255:5674   */\n    tag_80:\n        /* \"#utility.yul\":5421:5425   */\n      0x00\n        /* \"#utility.yul\":5459:5461   */\n      0x20\n        /* \"#utility.yul\":5448:5457   */\n      dup3\n        /* \"#utility.yul\":5444:5462   */\n      add\n        /* \"#utility.yul\":5436:5462   */\n      swap1\n      pop\n        /* \"#utility.yul\":5508:5517   */\n      dup2\n        /* \"#utility.yul\":5502:5506   */\n      dup2\n        /* \"#utility.yul\":5498:5518   */\n      sub\n        /* \"#utility.yul\":5494:5495   */\n      0x00\n        /* \"#utility.yul\":5483:5492   */\n      dup4\n        /* \"#utility.yul\":5479:5496   */\n      add\n        /* \"#utility.yul\":5472:5519   */\n      mstore\n        /* \"#utility.yul\":5536:5667   */\n      tag_285\n        /* \"#utility.yul\":5662:5666   */\n      dup2\n        /* \"#utility.yul\":5536:5667   */\n      tag_204\n      jump\t// in\n    tag_285:\n        /* \"#utility.yul\":5528:5667   */\n      swap1\n      pop\n        /* \"#utility.yul\":5255:5674   */\n      swap2\n      swap1\n      pop\n      jump\t// out\n        /* \"#utility.yul\":5680:5855   */\n    tag_205:\n        /* \"#utility.yul\":5820:5847   */\n      0x4e6f207469636b65747320707572636861736564207965742100000000000000\n        /* \"#utility.yul\":5816:5817   */\n      0x00\n        /* \"#utility.yul\":5808:5814   */\n      dup3\n        /* \"#utility.yul\":5804:5818   */\n      add\n        /* \"#utility.yul\":5797:5848   */\n      mstore\n        /* \"#utility.yul\":5680:5855   */\n      pop\n      jump\t// out\n        /* \"#utility.yul\":5861:6227   */\n    tag_206:\n        /* \"#utility.yul\":6003:6006   */\n      0x00\n        /* \"#utility.yul\":6024:6091   */\n      tag_288\n        /* \"#utility.yul\":6088:6090   */\n      0x19\n        /* \"#utility.yul\":6083:6086   */\n      dup4\n        /* \"#utility.yul\":6024:6091   */\n      tag_202\n      jump\t// in\n    tag_288:\n        /* \"#utility.yul\":6017:6091   */\n      swap2\n      pop\n        /* \"#utility.yul\":6100:6193   */\n      tag_289\n        /* \"#utility.yul\":6189:6192   */\n      dup3\n        /* \"#utility.yul\":6100:6193   */\n      tag_205\n      jump\t// in\n    tag_289:\n        /* \"#utility.yul\":6218:6220   */\n      0x20\n        /* \"#utility.yul\":6213:6216   */\n      dup3\n        /* \"#utility.yul\":6209:6221   */\n      add\n        /* \"#utility.yul\":6202:6221   */\n      swap1\n      pop\n        /* \"#utility.yul\":5861:6227   */\n      swap2\n      swap1\n      pop\n      jump\t// out\n        /* \"#utility.yul\":6233:6652   */\n    tag_84:\n        /* \"#utility.yul\":6399:6403   */\n      0x00\n        /* \"#utility.yul\":6437:6439   */\n      0x20\n        /* \"#utility.yul\":6426:6435   */\n      dup3\n        /* \"#utility.yul\":6422:6440   */\n      add\n        /* \"#utility.yul\":6414:6440   */\n      swap1\n      pop\n        /* \"#utility.yul\":6486:6495   */\n      dup2\n        /* \"#utility.yul\":6480:6484   */\n      dup2\n        /* \"#utility.yul\":6476:6496   */\n      sub\n        /* \"#utility.yul\":6472:6473   */\n      0x00\n        /* \"#utility.yul\":6461:6470   */\n      dup4\n        /* \"#utility.yul\":6457:6474   */\n      add\n        /* \"#utility.yul\":6450:6497   */\n      mstore\n        /* \"#utility.yul\":6514:6645   */\n      tag_291\n        /* \"#utility.yul\":6640:6644   */\n      dup2\n        /* \"#utility.yul\":6514:6645   */\n      tag_206\n      jump\t// in\n    tag_291:\n        /* \"#utility.yul\":6506:6645   */\n      swap1\n      pop\n        /* \"#utility.yul\":6233:6652   */\n      swap2\n      swap1\n      pop\n      jump\t// out\n        /* \"#utility.yul\":6658:6737   */\n    tag_207:\n        /* \"#utility.yul\":6697:6704   */\n      0x00\n        /* \"#utility.yul\":6726:6731   */\n      dup2\n        /* \"#utility.yul\":6715:6731   */\n      swap1\n      pop\n        /* \"#utility.yul\":6658:6737   */\n      swap2\n      swap1\n      pop\n      jump\t// out\n        /* \"#utility.yul\":6743:6900   */\n    tag_208:\n        /* \"#utility.yul\":6848:6893   */\n      tag_294\n        /* \"#utility.yul\":6868:6892   */\n      tag_295\n        /* \"#utility.yul\":6886:6891   */\n      dup3\n        /* \"#utility.yul\":6868:6892   */\n      tag_184\n      jump\t// in\n    tag_295:\n        /* \"#utility.yul\":6848:6893   */\n      tag_207\n      jump\t// in\n    tag_294:\n        /* \"#utility.yul\":6843:6846   */\n      dup3\n        /* \"#utility.yul\":6836:6894   */\n      mstore\n        /* \"#utility.yul\":6743:6900   */\n      pop\n      pop\n      jump\t// out\n        /* \"#utility.yul\":6906:7162   */\n    tag_86:\n        /* \"#utility.yul\":7018:7021   */\n      0x00\n        /* \"#utility.yul\":7033:7108   */\n      tag_297\n        /* \"#utility.yul\":7104:7107   */\n      dup3\n        /* \"#utility.yul\":7095:7101   */\n      dup5\n        /* \"#utility.yul\":7033:7108   */\n      tag_208\n      jump\t// in\n    tag_297:\n        /* \"#utility.yul\":7133:7135   */\n      0x20\n        /* \"#utility.yul\":7128:7131   */\n      dup3\n        /* \"#utility.yul\":7124:7136   */\n      add\n        /* \"#utility.yul\":7117:7136   */\n      swap2\n      pop\n        /* \"#utility.yul\":7153:7156   */\n      dup2\n        /* \"#utility.yul\":7146:7156   */\n      swap1\n      pop\n        /* \"#utility.yul\":6906:7162   */\n      swap3\n      swap2\n      pop\n      pop\n      jump\t// out\n        /* \"#utility.yul\":7168:7348   */\n    tag_209:\n        /* \"#utility.yul\":7216:7293   */\n      0x4e487b7100000000000000000000000000000000000000000000000000000000\n        /* \"#utility.yul\":7213:7214   */\n      0x00\n        /* \"#utility.yul\":7206:7294   */\n      mstore\n        /* \"#utility.yul\":7313:7317   */\n      0x12\n        /* \"#utility.yul\":7310:7311   */\n      0x04\n        /* \"#utility.yul\":7303:7318   */\n      mstore\n        /* \"#utility.yul\":7337:7341   */\n      0x24\n        /* \"#utility.yul\":7334:7335   */\n      0x00\n        /* \"#utility.yul\":7327:7342   */\n      revert\n        /* \"#utility.yul\":7354:7530   */\n    tag_88:\n        /* \"#utility.yul\":7386:7387   */\n      0x00\n        /* \"#utility.yul\":7403:7423   */\n      tag_300\n        /* \"#utility.yul\":7421:7422   */\n      dup3\n        /* \"#utility.yul\":7403:7423   */\n      tag_184\n      jump\t// in\n    tag_300:\n        /* \"#utility.yul\":7398:7423   */\n      swap2\n      pop\n        /* \"#utility.yul\":7437:7457   */\n      tag_301\n        /* \"#utility.yul\":7455:7456   */\n      dup4\n        /* \"#utility.yul\":7437:7457   */\n      tag_184\n      jump\t// in\n    tag_301:\n        /* \"#utility.yul\":7432:7457   */\n      swap3\n      pop\n        /* \"#utility.yul\":7476:7477   */\n      dup3\n        /* \"#utility.yul\":7466:7501   */\n      tag_302\n      jumpi\n        /* \"#utility.yul\":7481:7499   */\n      tag_303\n      tag_209\n      jump\t// in\n    tag_303:\n        /* \"#utility.yul\":7466:7501   */\n    tag_302:\n        /* \"#utility.yul\":7522:7523   */\n      dup3\n        /* \"#utility.yul\":7519:7520   */\n      dup3\n        /* \"#utility.yul\":7515:7524   */\n      mod\n        /* \"#utility.yul\":7510:7524   */\n      swap1\n      pop\n        /* \"#utility.yul\":7354:7530   */\n      swap3\n      swap2\n      pop\n      pop\n      jump\t// out\n        /* \"#utility.yul\":7536:7716   */\n    tag_91:\n        /* \"#utility.yul\":7584:7661   */\n      0x4e487b7100000000000000000000000000000000000000000000000000000000\n        /* \"#utility.yul\":7581:7582   */\n      0x00\n        /* \"#utility.yul\":7574:7662   */\n      mstore\n        /* \"#utility.yul\":7681:7685   */\n      0x32\n        /* \"#utility.yul\":7678:7679   */\n      0x04\n        /* \"#utility.yul\":7671:7686   */\n      mstore\n        /* \"#utility.yul\":7705:7709   */\n      0x24\n        /* \"#utility.yul\":7702:7703   */\n      0x00\n        /* \"#utility.yul\":7695:7710   */\n      revert\n        /* \"#utility.yul\":7722:8164   */\n    tag_96:\n        /* \"#utility.yul\":7871:7875   */\n      0x00\n        /* \"#utility.yul\":7909:7911   */\n      0x60\n        /* \"#utility.yul\":7898:7907   */\n      dup3\n        /* \"#utility.yul\":7894:7912   */\n      add\n        /* \"#utility.yul\":7886:7912   */\n      swap1\n      pop\n        /* \"#utility.yul\":7922:7993   */\n      tag_306\n        /* \"#utility.yul\":7990:7991   */\n      0x00\n        /* \"#utility.yul\":7979:7988   */\n      dup4\n        /* \"#utility.yul\":7975:7992   */\n      add\n        /* \"#utility.yul\":7966:7972   */\n      dup7\n        /* \"#utility.yul\":7922:7993   */\n      tag_193\n      jump\t// in\n    tag_306:\n        /* \"#utility.yul\":8003:8075   */\n      tag_307\n        /* \"#utility.yul\":8071:8073   */\n      0x20\n        /* \"#utility.yul\":8060:8069   */\n      dup4\n        /* \"#utility.yul\":8056:8074   */\n      add\n        /* \"#utility.yul\":8047:8053   */\n      dup6\n        /* \"#utility.yul\":8003:8075   */\n      tag_193\n      jump\t// in\n    tag_307:\n        /* \"#utility.yul\":8085:8157   */\n      tag_308\n        /* \"#utility.yul\":8153:8155   */\n      0x40\n        /* \"#utility.yul\":8142:8151   */\n      dup4\n        /* \"#utility.yul\":8138:8156   */\n      add\n        /* \"#utility.yul\":8129:8135   */\n      dup5\n        /* \"#utility.yul\":8085:8157   */\n      tag_185\n      jump\t// in\n    tag_308:\n        /* \"#utility.yul\":7722:8164   */\n      swap5\n      swap4\n      pop\n      pop\n      pop\n      pop\n      jump\t// out\n        /* \"#utility.yul\":8170:8260   */\n    tag_210:\n        /* \"#utility.yul\":8204:8211   */\n      0x00\n        /* \"#utility.yul\":8247:8252   */\n      dup2\n        /* \"#utility.yul\":8240:8253   */\n      iszero\n        /* \"#utility.yul\":8233:8254   */\n      iszero\n        /* \"#utility.yul\":8222:8254   */\n      swap1\n      pop\n        /* \"#utility.yul\":8170:8260   */\n      swap2\n      swap1\n      pop\n      jump\t// out\n        /* \"#utility.yul\":8266:8382   */\n    tag_211:\n        /* \"#utility.yul\":8336:8357   */\n      tag_311\n        /* \"#utility.yul\":8351:8356   */\n      dup2\n        /* \"#utility.yul\":8336:8357   */\n      tag_210\n      jump\t// in\n    tag_311:\n        /* \"#utility.yul\":8329:8334   */\n      dup2\n        /* \"#utility.yul\":8326:8358   */\n      eq\n        /* \"#utility.yul\":8316:8376   */\n      tag_312\n      jumpi\n        /* \"#utility.yul\":8372:8373   */\n      0x00\n        /* \"#utility.yul\":8369:8370   */\n      0x00\n        /* \"#utility.yul\":8362:8374   */\n      revert\n        /* \"#utility.yul\":8316:8376   */\n    tag_312:\n        /* \"#utility.yul\":8266:8382   */\n      pop\n      jump\t// out\n        /* \"#utility.yul\":8388:8525   */\n    tag_212:\n        /* \"#utility.yul\":8442:8447   */\n      0x00\n        /* \"#utility.yul\":8473:8479   */\n      dup2\n        /* \"#utility.yul\":8467:8480   */\n      mload\n        /* \"#utility.yul\":8458:8480   */\n      swap1\n      pop\n        /* \"#utility.yul\":8489:8519   */\n      tag_314\n        /* \"#utility.yul\":8513:8518   */\n      dup2\n        /* \"#utility.yul\":8489:8519   */\n      tag_211\n      jump\t// in\n    tag_314:\n        /* \"#utility.yul\":8388:8525   */\n      swap3\n      swap2\n      pop\n      pop\n      jump\t// out\n        /* \"#utility.yul\":8531:8876   */\n    tag_100:\n        /* \"#utility.yul\":8598:8604   */\n      0x00\n        /* \"#utility.yul\":8647:8649   */\n      0x20\n        /* \"#utility.yul\":8635:8644   */\n      dup3\n        /* \"#utility.yul\":8626:8633   */\n      dup5\n        /* \"#utility.yul\":8622:8645   */\n      sub\n        /* \"#utility.yul\":8618:8650   */\n      slt\n        /* \"#utility.yul\":8615:8734   */\n      iszero\n      tag_316\n      jumpi\n        /* \"#utility.yul\":8653:8732   */\n      tag_317\n      tag_187\n      jump\t// in\n    tag_317:\n        /* \"#utility.yul\":8615:8734   */\n    tag_316:\n        /* \"#utility.yul\":8773:8774   */\n      0x00\n        /* \"#utility.yul\":8798:8859   */\n      tag_318\n        /* \"#utility.yul\":8851:8858   */\n      dup5\n        /* \"#utility.yul\":8842:8848   */\n      dup3\n        /* \"#utility.yul\":8831:8840   */\n      dup6\n        /* \"#utility.yul\":8827:8849   */\n      add\n        /* \"#utility.yul\":8798:8859   */\n      tag_212\n      jump\t// in\n    tag_318:\n        /* \"#utility.yul\":8788:8859   */\n      swap2\n      pop\n        /* \"#utility.yul\":8744:8869   */\n      pop\n        /* \"#utility.yul\":8531:8876   */\n      swap3\n      swap2\n      pop\n      pop\n      jump\t// out\n        /* \"#utility.yul\":8882:9062   */\n    tag_213:\n        /* \"#utility.yul\":8930:9007   */\n      0x4e487b7100000000000000000000000000000000000000000000000000000000\n        /* \"#utility.yul\":8927:8928   */\n      0x00\n        /* \"#utility.yul\":8920:9008   */\n      mstore\n        /* \"#utility.yul\":9027:9031   */\n      0x11\n        /* \"#utility.yul\":9024:9025   */\n      0x04\n        /* \"#utility.yul\":9017:9032   */\n      mstore\n        /* \"#utility.yul\":9051:9055   */\n      0x24\n        /* \"#utility.yul\":9048:9049   */\n      0x00\n        /* \"#utility.yul\":9041:9056   */\n      revert\n        /* \"#utility.yul\":9068:9478   */\n    tag_103:\n        /* \"#utility.yul\":9108:9115   */\n      0x00\n        /* \"#utility.yul\":9131:9151   */\n      tag_321\n        /* \"#utility.yul\":9149:9150   */\n      dup3\n        /* \"#utility.yul\":9131:9151   */\n      tag_184\n      jump\t// in\n    tag_321:\n        /* \"#utility.yul\":9126:9151   */\n      swap2\n      pop\n        /* \"#utility.yul\":9165:9185   */\n      tag_322\n        /* \"#utility.yul\":9183:9184   */\n      dup4\n        /* \"#utility.yul\":9165:9185   */\n      tag_184\n      jump\t// in\n    tag_322:\n        /* \"#utility.yul\":9160:9185   */\n      swap3\n      pop\n        /* \"#utility.yul\":9220:9221   */\n      dup3\n        /* \"#utility.yul\":9217:9218   */\n      dup3\n        /* \"#utility.yul\":9213:9222   */\n      mul\n        /* \"#utility.yul\":9242:9272   */\n      tag_323\n        /* \"#utility.yul\":9260:9271   */\n      dup2\n        /* \"#utility.yul\":9242:9272   */\n      tag_184\n      jump\t// in\n    tag_323:\n        /* \"#utility.yul\":9231:9272   */\n      swap2\n      pop\n        /* \"#utility.yul\":9421:9422   */\n      dup3\n        /* \"#utility.yul\":9412:9419   */\n      dup3\n        /* \"#utility.yul\":9408:9423   */\n      div\n        /* \"#utility.yul\":9405:9406   */\n      dup5\n        /* \"#utility.yul\":9402:9424   */\n      eq\n        /* \"#utility.yul\":9382:9383   */\n      dup4\n        /* \"#utility.yul\":9375:9384   */\n      iszero\n        /* \"#utility.yul\":9355:9438   */\n      or\n        /* \"#utility.yul\":9332:9471   */\n      tag_324\n      jumpi\n        /* \"#utility.yul\":9451:9469   */\n      tag_325\n      tag_213\n      jump\t// in\n    tag_325:\n        /* \"#utility.yul\":9332:9471   */\n    tag_324:\n        /* \"#utility.yul\":9116:9478   */\n      pop\n        /* \"#utility.yul\":9068:9478   */\n      swap3\n      swap2\n      pop\n      pop\n      jump\t// out\n        /* \"#utility.yul\":9484:9707   */\n    tag_214:\n        /* \"#utility.yul\":9624:9658   */\n      0x4e6f7420656e6f75676820746f6b656e7320617661696c61626c6520666f7220\n        /* \"#utility.yul\":9620:9621   */\n      0x00\n        /* \"#utility.yul\":9612:9618   */\n      dup3\n        /* \"#utility.yul\":9608:9622   */\n      add\n        /* \"#utility.yul\":9601:9659   */\n      mstore\n        /* \"#utility.yul\":9693:9699   */\n      0x73616c6500000000000000000000000000000000000000000000000000000000\n        /* \"#utility.yul\":9688:9690   */\n      0x20\n        /* \"#utility.yul\":9680:9686   */\n      dup3\n        /* \"#utility.yul\":9676:9691   */\n      add\n        /* \"#utility.yul\":9669:9700   */\n      mstore\n        /* \"#utility.yul\":9484:9707   */\n      pop\n      jump\t// out\n        /* \"#utility.yul\":9713:10079   */\n    tag_215:\n        /* \"#utility.yul\":9855:9858   */\n      0x00\n        /* \"#utility.yul\":9876:9943   */\n      tag_328\n        /* \"#utility.yul\":9940:9942   */\n      0x24\n        /* \"#utility.yul\":9935:9938   */\n      dup4\n        /* \"#utility.yul\":9876:9943   */\n      tag_202\n      jump\t// in\n    tag_328:\n        /* \"#utility.yul\":9869:9943   */\n      swap2\n      pop\n        /* \"#utility.yul\":9952:10045   */\n      tag_329\n        /* \"#utility.yul\":10041:10044   */\n      dup3\n        /* \"#utility.yul\":9952:10045   */\n      tag_214\n      jump\t// in\n    tag_329:\n        /* \"#utility.yul\":10070:10072   */\n      0x40\n        /* \"#utility.yul\":10065:10068   */\n      dup3\n        /* \"#utility.yul\":10061:10073   */\n      add\n        /* \"#utility.yul\":10054:10073   */\n      swap1\n      pop\n        /* \"#utility.yul\":9713:10079   */\n      swap2\n      swap1\n      pop\n      jump\t// out\n        /* \"#utility.yul\":10085:10504   */\n    tag_107:\n        /* \"#utility.yul\":10251:10255   */\n      0x00\n        /* \"#utility.yul\":10289:10291   */\n      0x20\n        /* \"#utility.yul\":10278:10287   */\n      dup3\n        /* \"#utility.yul\":10274:10292   */\n      add\n        /* \"#utility.yul\":10266:10292   */\n      swap1\n      pop\n        /* \"#utility.yul\":10338:10347   */\n      dup2\n        /* \"#utility.yul\":10332:10336   */\n      dup2\n        /* \"#utility.yul\":10328:10348   */\n      sub\n        /* \"#utility.yul\":10324:10325   */\n      0x00\n        /* \"#utility.yul\":10313:10322   */\n      dup4\n        /* \"#utility.yul\":10309:10326   */\n      add\n        /* \"#utility.yul\":10302:10349   */\n      mstore\n        /* \"#utility.yul\":10366:10497   */\n      tag_331\n        /* \"#utility.yul\":10492:10496   */\n      dup2\n        /* \"#utility.yul\":10366:10497   */\n      tag_215\n      jump\t// in\n    tag_331:\n        /* \"#utility.yul\":10358:10497   */\n      swap1\n      pop\n        /* \"#utility.yul\":10085:10504   */\n      swap2\n      swap1\n      pop\n      jump\t// out\n        /* \"#utility.yul\":10510:10604   */\n    tag_216:\n        /* \"#utility.yul\":10543:10551   */\n      0x00\n        /* \"#utility.yul\":10591:10596   */\n      dup2\n        /* \"#utility.yul\":10587:10589   */\n      0x60\n        /* \"#utility.yul\":10583:10597   */\n      shl\n        /* \"#utility.yul\":10562:10597   */\n      swap1\n      pop\n        /* \"#utility.yul\":10510:10604   */\n      swap2\n      swap1\n      pop\n      jump\t// out\n        /* \"#utility.yul\":10610:10704   */\n    tag_217:\n        /* \"#utility.yul\":10649:10656   */\n      0x00\n        /* \"#utility.yul\":10678:10698   */\n      tag_334\n        /* \"#utility.yul\":10692:10697   */\n      dup3\n        /* \"#utility.yul\":10678:10698   */\n      tag_216\n      jump\t// in\n    tag_334:\n        /* \"#utility.yul\":10667:10698   */\n      swap1\n      pop\n        /* \"#utility.yul\":10610:10704   */\n      swap2\n      swap1\n      pop\n      jump\t// out\n        /* \"#utility.yul\":10710:10810   */\n    tag_218:\n        /* \"#utility.yul\":10749:10756   */\n      0x00\n        /* \"#utility.yul\":10778:10804   */\n      tag_336\n        /* \"#utility.yul\":10798:10803   */\n      dup3\n        /* \"#utility.yul\":10778:10804   */\n      tag_217\n      jump\t// in\n    tag_336:\n        /* \"#utility.yul\":10767:10804   */\n      swap1\n      pop\n        /* \"#utility.yul\":10710:10810   */\n      swap2\n      swap1\n      pop\n      jump\t// out\n        /* \"#utility.yul\":10816:10973   */\n    tag_219:\n        /* \"#utility.yul\":10921:10966   */\n      tag_338\n        /* \"#utility.yul\":10941:10965   */\n      tag_339\n        /* \"#utility.yul\":10959:10964   */\n      dup3\n        /* \"#utility.yul\":10941:10965   */\n      tag_192\n      jump\t// in\n    tag_339:\n        /* \"#utility.yul\":10921:10966   */\n      tag_218\n      jump\t// in\n    tag_338:\n        /* \"#utility.yul\":10916:10919   */\n      dup3\n        /* \"#utility.yul\":10909:10967   */\n      mstore\n        /* \"#utility.yul\":10816:10973   */\n      pop\n      pop\n      jump\t// out\n        /* \"#utility.yul\":10979:11517   */\n    tag_116:\n        /* \"#utility.yul\":11147:11150   */\n      0x00\n        /* \"#utility.yul\":11162:11237   */\n      tag_341\n        /* \"#utility.yul\":11233:11236   */\n      dup3\n        /* \"#utility.yul\":11224:11230   */\n      dup7\n        /* \"#utility.yul\":11162:11237   */\n      tag_208\n      jump\t// in\n    tag_341:\n        /* \"#utility.yul\":11262:11264   */\n      0x20\n        /* \"#utility.yul\":11257:11260   */\n      dup3\n        /* \"#utility.yul\":11253:11265   */\n      add\n        /* \"#utility.yul\":11246:11265   */\n      swap2\n      pop\n        /* \"#utility.yul\":11275:11350   */\n      tag_342\n        /* \"#utility.yul\":11346:11349   */\n      dup3\n        /* \"#utility.yul\":11337:11343   */\n      dup6\n        /* \"#utility.yul\":11275:11350   */\n      tag_219\n      jump\t// in\n    tag_342:\n        /* \"#utility.yul\":11375:11377   */\n      0x14\n        /* \"#utility.yul\":11370:11373   */\n      dup3\n        /* \"#utility.yul\":11366:11378   */\n      add\n        /* \"#utility.yul\":11359:11378   */\n      swap2\n      pop\n        /* \"#utility.yul\":11388:11463   */\n      tag_343\n        /* \"#utility.yul\":11459:11462   */\n      dup3\n        /* \"#utility.yul\":11450:11456   */\n      dup5\n        /* \"#utility.yul\":11388:11463   */\n      tag_208\n      jump\t// in\n    tag_343:\n        /* \"#utility.yul\":11488:11490   */\n      0x20\n        /* \"#utility.yul\":11483:11486   */\n      dup3\n        /* \"#utility.yul\":11479:11491   */\n      add\n        /* \"#utility.yul\":11472:11491   */\n      swap2\n      pop\n        /* \"#utility.yul\":11508:11511   */\n      dup2\n        /* \"#utility.yul\":11501:11511   */\n      swap1\n      pop\n        /* \"#utility.yul\":10979:11517   */\n      swap5\n      swap4\n      pop\n      pop\n      pop\n      pop\n      jump\t// out\n        /* \"#utility.yul\":11523:11756   */\n    tag_119:\n        /* \"#utility.yul\":11562:11565   */\n      0x00\n        /* \"#utility.yul\":11585:11609   */\n      tag_345\n        /* \"#utility.yul\":11603:11608   */\n      dup3\n        /* \"#utility.yul\":11585:11609   */\n      tag_184\n      jump\t// in\n    tag_345:\n        /* \"#utility.yul\":11576:11609   */\n      swap2\n      pop\n        /* \"#utility.yul\":11631:11697   */\n      0xffffffffffffffffffffffffffffffffffffffffffffffffffffffffffffffff\n        /* \"#utility.yul\":11624:11629   */\n      dup3\n        /* \"#utility.yul\":11621:11698   */\n      sub\n        /* \"#utility.yul\":11618:11721   */\n      tag_346\n      jumpi\n        /* \"#utility.yul\":11701:11719   */\n      tag_347\n      tag_213\n      jump\t// in\n    tag_347:\n        /* \"#utility.yul\":11618:11721   */\n    tag_346:\n        /* \"#utility.yul\":11748:11749   */\n      0x01\n        /* \"#utility.yul\":11741:11746   */\n      dup3\n        /* \"#utility.yul\":11737:11750   */\n      add\n        /* \"#utility.yul\":11730:11750   */\n      swap1\n      pop\n        /* \"#utility.yul\":11523:11756   */\n      swap2\n      swap1\n      pop\n      jump\t// out\n        /* \"#utility.yul\":11762:11928   */\n    tag_220:\n        /* \"#utility.yul\":11902:11920   */\n      0x4e6f7420656e6f75676820657468657200000000000000000000000000000000\n        /* \"#utility.yul\":11898:11899   */\n      0x00\n        /* \"#utility.yul\":11890:11896   */\n      dup3\n        /* \"#utility.yul\":11886:11900   */\n      add\n        /* \"#utility.yul\":11879:11921   */\n      mstore\n        /* \"#utility.yul\":11762:11928   */\n      pop\n      jump\t// out\n        /* \"#utility.yul\":11934:12300   */\n    tag_221:\n        /* \"#utility.yul\":12076:12079   */\n      0x00\n        /* \"#utility.yul\":12097:12164   */\n      tag_350\n        /* \"#utility.yul\":12161:12163   */\n      0x10\n        /* \"#utility.yul\":12156:12159   */\n      dup4\n        /* \"#utility.yul\":12097:12164   */\n      tag_202\n      jump\t// in\n    tag_350:\n        /* \"#utility.yul\":12090:12164   */\n      swap2\n      pop\n        /* \"#utility.yul\":12173:12266   */\n      tag_351\n        /* \"#utility.yul\":12262:12265   */\n      dup3\n        /* \"#utility.yul\":12173:12266   */\n      tag_220\n      jump\t// in\n    tag_351:\n        /* \"#utility.yul\":12291:12293   */\n      0x20\n        /* \"#utility.yul\":12286:12289   */\n      dup3\n        /* \"#utility.yul\":12282:12294   */\n      add\n        /* \"#utility.yul\":12275:12294   */\n      swap1\n      pop\n        /* \"#utility.yul\":11934:12300   */\n      swap2\n      swap1\n      pop\n      jump\t// out\n        /* \"#utility.yul\":12306:12725   */\n    tag_135:\n        /* \"#utility.yul\":12472:12476   */\n      0x00\n        /* \"#utility.yul\":12510:12512   */\n      0x20\n        /* \"#utility.yul\":12499:12508   */\n      dup3\n        /* \"#utility.yul\":12495:12513   */\n      add\n        /* \"#utility.yul\":12487:12513   */\n      swap1\n      pop\n        /* \"#utility.yul\":12559:12568   */\n      dup2\n        /* \"#utility.yul\":12553:12557   */\n      dup2\n        /* \"#utility.yul\":12549:12569   */\n      sub\n        /* \"#utility.yul\":12545:12546   */\n      0x00\n        /* \"#utility.yul\":12534:12543   */\n      dup4\n        /* \"#utility.yul\":12530:12547   */\n      add\n        /* \"#utility.yul\":12523:12570   */\n      mstore\n        /* \"#utility.yul\":12587:12718   */\n      tag_353\n        /* \"#utility.yul\":12713:12717   */\n      dup2\n        /* \"#utility.yul\":12587:12718   */\n      tag_221\n      jump\t// in\n    tag_353:\n        /* \"#utility.yul\":12579:12718   */\n      swap1\n      pop\n        /* \"#utility.yul\":12306:12725   */\n      swap2\n      swap1\n      pop\n      jump\t// out\n        /* \"#utility.yul\":12731:12925   */\n    tag_137:\n        /* \"#utility.yul\":12771:12775   */\n      0x00\n        /* \"#utility.yul\":12791:12811   */\n      tag_355\n        /* \"#utility.yul\":12809:12810   */\n      dup3\n        /* \"#utility.yul\":12791:12811   */\n      tag_184\n      jump\t// in\n    tag_355:\n        /* \"#utility.yul\":12786:12811   */\n      swap2\n      pop\n        /* \"#utility.yul\":12825:12845   */\n      tag_356\n        /* \"#utility.yul\":12843:12844   */\n      dup4\n        /* \"#utility.yul\":12825:12845   */\n      tag_184\n      jump\t// in\n    tag_356:\n        /* \"#utility.yul\":12820:12845   */\n      swap3\n      pop\n        /* \"#utility.yul\":12869:12870   */\n      dup3\n        /* \"#utility.yul\":12866:12867   */\n      dup3\n        /* \"#utility.yul\":12862:12871   */\n      sub\n        /* \"#utility.yul\":12854:12871   */\n      swap1\n      pop\n        /* \"#utility.yul\":12893:12894   */\n      dup2\n        /* \"#utility.yul\":12887:12891   */\n      dup2\n        /* \"#utility.yul\":12884:12895   */\n      gt\n        /* \"#utility.yul\":12881:12918   */\n      iszero\n      tag_357\n      jumpi\n        /* \"#utility.yul\":12898:12916   */\n      tag_358\n      tag_213\n      jump\t// in\n    tag_358:\n        /* \"#utility.yul\":12881:12918   */\n    tag_357:\n        /* \"#utility.yul\":12731:12925   */\n      swap3\n      swap2\n      pop\n      pop\n      jump\t// out\n        /* \"#utility.yul\":12931:13078   */\n    tag_222:\n        /* \"#utility.yul\":13032:13043   */\n      0x00\n        /* \"#utility.yul\":13069:13072   */\n      dup2\n        /* \"#utility.yul\":13054:13072   */\n      swap1\n      pop\n        /* \"#utility.yul\":12931:13078   */\n      swap3\n      swap2\n      pop\n      pop\n      jump\t// out\n        /* \"#utility.yul\":13084:13198   */\n    tag_223:\n      pop\n      jump\t// out\n        /* \"#utility.yul\":13204:13602   */\n    tag_224:\n        /* \"#utility.yul\":13363:13366   */\n      0x00\n        /* \"#utility.yul\":13384:13467   */\n      tag_362\n        /* \"#utility.yul\":13465:13466   */\n      0x00\n        /* \"#utility.yul\":13460:13463   */\n      dup4\n        /* \"#utility.yul\":13384:13467   */\n      tag_222\n      jump\t// in\n    tag_362:\n        /* \"#utility.yul\":13377:13467   */\n      swap2\n      pop\n        /* \"#utility.yul\":13476:13569   */\n      tag_363\n        /* \"#utility.yul\":13565:13568   */\n      dup3\n        /* \"#utility.yul\":13476:13569   */\n      tag_223\n      jump\t// in\n    tag_363:\n        /* \"#utility.yul\":13594:13595   */\n      0x00\n        /* \"#utility.yul\":13589:13592   */\n      dup3\n        /* \"#utility.yul\":13585:13596   */\n      add\n        /* \"#utility.yul\":13578:13596   */\n      swap1\n      pop\n        /* \"#utility.yul\":13204:13602   */\n      swap2\n      swap1\n      pop\n      jump\t// out\n        /* \"#utility.yul\":13608:13987   */\n    tag_140:\n        /* \"#utility.yul\":13792:13795   */\n      0x00\n        /* \"#utility.yul\":13814:13961   */\n      tag_365\n        /* \"#utility.yul\":13957:13960   */\n      dup3\n        /* \"#utility.yul\":13814:13961   */\n      tag_224\n      jump\t// in\n    tag_365:\n        /* \"#utility.yul\":13807:13961   */\n      swap2\n      pop\n        /* \"#utility.yul\":13978:13981   */\n      dup2\n        /* \"#utility.yul\":13971:13981   */\n      swap1\n      pop\n        /* \"#utility.yul\":13608:13987   */\n      swap2\n      swap1\n      pop\n      jump\t// out\n        /* \"#utility.yul\":13993:14156   */\n    tag_225:\n        /* \"#utility.yul\":14133:14148   */\n      0x526566756e64206661696c656400000000000000000000000000000000000000\n        /* \"#utility.yul\":14129:14130   */\n      0x00\n        /* \"#utility.yul\":14121:14127   */\n      dup3\n        /* \"#utility.yul\":14117:14131   */\n      add\n        /* \"#utility.yul\":14110:14149   */\n      mstore\n        /* \"#utility.yul\":13993:14156   */\n      pop\n      jump\t// out\n        /* \"#utility.yul\":14162:14528   */\n    tag_226:\n        /* \"#utility.yul\":14304:14307   */\n      0x00\n        /* \"#utility.yul\":14325:14392   */\n      tag_368\n        /* \"#utility.yul\":14389:14391   */\n      0x0d\n        /* \"#utility.yul\":14384:14387   */\n      dup4\n        /* \"#utility.yul\":14325:14392   */\n      tag_202\n      jump\t// in\n    tag_368:\n        /* \"#utility.yul\":14318:14392   */\n      swap2\n      pop\n        /* \"#utility.yul\":14401:14494   */\n      tag_369\n        /* \"#utility.yul\":14490:14493   */\n      dup3\n        /* \"#utility.yul\":14401:14494   */\n      tag_225\n      jump\t// in\n    tag_369:\n        /* \"#utility.yul\":14519:14521   */\n      0x20\n        /* \"#utility.yul\":14514:14517   */\n      dup3\n        /* \"#utility.yul\":14510:14522   */\n      add\n        /* \"#utility.yul\":14503:14522   */\n      swap1\n      pop\n        /* \"#utility.yul\":14162:14528   */\n      swap2\n      swap1\n      pop\n      jump\t// out\n        /* \"#utility.yul\":14534:14953   */\n    tag_146:\n        /* \"#utility.yul\":14700:14704   */\n      0x00\n        /* \"#utility.yul\":14738:14740   */\n      0x20\n        /* \"#utility.yul\":14727:14736   */\n      dup3\n        /* \"#utility.yul\":14723:14741   */\n      add\n        /* \"#utility.yul\":14715:14741   */\n      swap1\n      pop\n        /* \"#utility.yul\":14787:14796   */\n      dup2\n        /* \"#utility.yul\":14781:14785   */\n      dup2\n        /* \"#utility.yul\":14777:14797   */\n      sub\n        /* \"#utility.yul\":14773:14774   */\n      0x00\n        /* \"#utility.yul\":14762:14771   */\n      dup4\n        /* \"#utility.yul\":14758:14775   */\n      add\n        /* \"#utility.yul\":14751:14798   */\n      mstore\n        /* \"#utility.yul\":14815:14946   */\n      tag_371\n        /* \"#utility.yul\":14941:14945   */\n      dup2\n        /* \"#utility.yul\":14815:14946   */\n      tag_226\n      jump\t// in\n    tag_371:\n        /* \"#utility.yul\":14807:14946   */\n      swap1\n      pop\n        /* \"#utility.yul\":14534:14953   */\n      swap2\n      swap1\n      pop\n      jump\t// out\n        /* \"#utility.yul\":14959:15291   */\n    tag_151:\n        /* \"#utility.yul\":15080:15084   */\n      0x00\n        /* \"#utility.yul\":15118:15120   */\n      0x40\n        /* \"#utility.yul\":15107:15116   */\n      dup3\n        /* \"#utility.yul\":15103:15121   */\n      add\n        /* \"#utility.yul\":15095:15121   */\n      swap1\n      pop\n        /* \"#utility.yul\":15131:15202   */\n      tag_373\n        /* \"#utility.yul\":15199:15200   */\n      0x00\n        /* \"#utility.yul\":15188:15197   */\n      dup4\n        /* \"#utility.yul\":15184:15201   */\n      add\n        /* \"#utility.yul\":15175:15181   */\n      dup6\n        /* \"#utility.yul\":15131:15202   */\n      tag_193\n      jump\t// in\n    tag_373:\n        /* \"#utility.yul\":15212:15284   */\n      tag_374\n        /* \"#utility.yul\":15280:15282   */\n      0x20\n        /* \"#utility.yul\":15269:15278   */\n      dup4\n        /* \"#utility.yul\":15265:15283   */\n      add\n        /* \"#utility.yul\":15256:15262   */\n      dup5\n        /* \"#utility.yul\":15212:15284   */\n      tag_185\n      jump\t// in\n    tag_374:\n        /* \"#utility.yul\":14959:15291   */\n      swap4\n      swap3\n      pop\n      pop\n      pop\n      jump\t// out\n        /* \"#utility.yul\":15297:15629   */\n    tag_156:\n        /* \"#utility.yul\":15418:15422   */\n      0x00\n        /* \"#utility.yul\":15456:15458   */\n      0x40\n        /* \"#utility.yul\":15445:15454   */\n      dup3\n        /* \"#utility.yul\":15441:15459   */\n      add\n        /* \"#utility.yul\":15433:15459   */\n      swap1\n      pop\n        /* \"#utility.yul\":15469:15540   */\n      tag_376\n        /* \"#utility.yul\":15537:15538   */\n      0x00\n        /* \"#utility.yul\":15526:15535   */\n      dup4\n        /* \"#utility.yul\":15522:15539   */\n      add\n        /* \"#utility.yul\":15513:15519   */\n      dup6\n        /* \"#utility.yul\":15469:15540   */\n      tag_185\n      jump\t// in\n    tag_376:\n        /* \"#utility.yul\":15550:15622   */\n      tag_377\n        /* \"#utility.yul\":15618:15620   */\n      0x20\n        /* \"#utility.yul\":15607:15616   */\n      dup4\n        /* \"#utility.yul\":15603:15621   */\n      add\n        /* \"#utility.yul\":15594:15600   */\n      dup5\n        /* \"#utility.yul\":15550:15622   */\n      tag_193\n      jump\t// in\n    tag_377:\n        /* \"#utility.yul\":15297:15629   */\n      swap4\n      swap3\n      pop\n      pop\n      pop\n      jump\t// out\n        /* \"#utility.yul\":15635:15868   */\n    tag_227:\n        /* \"#utility.yul\":15775:15809   */\n      0x4d757374206265206174206c65617374203120746f6b656e20666f7220746869\n        /* \"#utility.yul\":15771:15772   */\n      0x00\n        /* \"#utility.yul\":15763:15769   */\n      dup3\n        /* \"#utility.yul\":15759:15773   */\n      add\n        /* \"#utility.yul\":15752:15810   */\n      mstore\n        /* \"#utility.yul\":15844:15860   */\n      0x73207472616e73616374696f6e21000000000000000000000000000000000000\n        /* \"#utility.yul\":15839:15841   */\n      0x20\n        /* \"#utility.yul\":15831:15837   */\n      dup3\n        /* \"#utility.yul\":15827:15842   */\n      add\n        /* \"#utility.yul\":15820:15861   */\n      mstore\n        /* \"#utility.yul\":15635:15868   */\n      pop\n      jump\t// out\n        /* \"#utility.yul\":15874:16240   */\n    tag_228:\n        /* \"#utility.yul\":16016:16019   */\n      0x00\n        /* \"#utility.yul\":16037:16104   */\n      tag_380\n        /* \"#utility.yul\":16101:16103   */\n      0x2e\n        /* \"#utility.yul\":16096:16099   */\n      dup4\n        /* \"#utility.yul\":16037:16104   */\n      tag_202\n      jump\t// in\n    tag_380:\n        /* \"#utility.yul\":16030:16104   */\n      swap2\n      pop\n        /* \"#utility.yul\":16113:16206   */\n      tag_381\n        /* \"#utility.yul\":16202:16205   */\n      dup3\n        /* \"#utility.yul\":16113:16206   */\n      tag_227\n      jump\t// in\n    tag_381:\n        /* \"#utility.yul\":16231:16233   */\n      0x40\n        /* \"#utility.yul\":16226:16229   */\n      dup3\n        /* \"#utility.yul\":16222:16234   */\n      add\n        /* \"#utility.yul\":16215:16234   */\n      swap1\n      pop\n        /* \"#utility.yul\":15874:16240   */\n      swap2\n      swap1\n      pop\n      jump\t// out\n        /* \"#utility.yul\":16246:16665   */\n    tag_170:\n        /* \"#utility.yul\":16412:16416   */\n      0x00\n        /* \"#utility.yul\":16450:16452   */\n      0x20\n        /* \"#utility.yul\":16439:16448   */\n      dup3\n        /* \"#utility.yul\":16435:16453   */\n      add\n        /* \"#utility.yul\":16427:16453   */\n      swap1\n      pop\n        /* \"#utility.yul\":16499:16508   */\n      dup2\n        /* \"#utility.yul\":16493:16497   */\n      dup2\n        /* \"#utility.yul\":16489:16509   */\n      sub\n        /* \"#utility.yul\":16485:16486   */\n      0x00\n        /* \"#utility.yul\":16474:16483   */\n      dup4\n        /* \"#utility.yul\":16470:16487   */\n      add\n        /* \"#utility.yul\":16463:16510   */\n      mstore\n        /* \"#utility.yul\":16527:16658   */\n      tag_383\n        /* \"#utility.yul\":16653:16657   */\n      dup2\n        /* \"#utility.yul\":16527:16658   */\n      tag_228\n      jump\t// in\n    tag_383:\n        /* \"#utility.yul\":16519:16658   */\n      swap1\n      pop\n        /* \"#utility.yul\":16246:16665   */\n      swap2\n      swap1\n      pop\n      jump\t// out\n\n    auxdata: 0xa26469706673582212207c54e255928c8ad9e3c1fe9c6b7f38f058d4aac4aa4c53aaffa5f0d676720da364736f6c634300081e0033\n}\n\nsub_1: assembly {\n        /* \"Lottery/ERC20V2Basic.sol\":1159:3839  contract ERC20V2Basic is IERC20... */\n      mstore(0x40, 0x80)\n        /* \"Lottery/ERC20V2Basic.sol\":1507:1640  constructor(uint256 initialSupply)... */\n      callvalue\n      dup1\n      iszero\n      tag_1\n      jumpi\n      revert(0x00, 0x00)\n    tag_1:\n      pop\n      mload(0x40)\n      sub(codesize, bytecodeSize)\n      dup1\n      bytecodeSize\n      dup4\n      codecopy\n      dup2\n      dup2\n      add\n      0x40\n      mstore\n      dup2\n      add\n      swap1\n      tag_2\n      swap2\n      swap1\n      tag_3\n      jump\t// in\n    tag_2:\n        /* \"Lottery/ERC20V2Basic.sol\":1573:1586  initialSupply */\n      dup1\n        /* \"Lottery/ERC20V2Basic.sol\":1558:1570  totalSupply_ */\n      0x02\n        /* \"Lottery/ERC20V2Basic.sol\":1558:1586  totalSupply_ = initialSupply */\n      dup2\n      swap1\n      sstore\n      pop\n        /* \"Lottery/ERC20V2Basic.sol\":1620:1632  totalSupply_ */\n      sload(0x02)\n        /* \"Lottery/ERC20V2Basic.sol\":1597:1605  balances */\n      0x00\n        /* \"Lottery/ERC20V2Basic.sol\":1597:1617  balances[msg.sender] */\n      0x00\n        /* \"Lottery/ERC20V2Basic.sol\":1606:1616  msg.sender */\n      caller\n        /* \"Lottery/ERC20V2Basic.sol\":1597:1617  balances[msg.sender] */\n      0xffffffffffffffffffffffffffffffffffffffff\n      and\n      0xffffffffffffffffffffffffffffffffffffffff\n      and\n      dup2\n      mstore\n      0x20\n      add\n      swap1\n      dup2\n      mstore\n      0x20\n      add\n      0x00\n      keccak256\n        /* \"Lottery/ERC20V2Basic.sol\":1597:1632  balances[msg.sender] = totalSupply_ */\n      dup2\n      swap1\n      sstore\n      pop\n        /* \"Lottery/ERC20V2Basic.sol\":1507:1640  constructor(uint256 initialSupply)... */\n      pop\n        /* \"Lottery/ERC20V2Basic.sol\":1159:3839  contract ERC20V2Basic is IERC20... */\n      jump(tag_6)\n        /* \"#utility.yul\":88:205   */\n    tag_8:\n        /* \"#utility.yul\":197:198   */\n      0x00\n        /* \"#utility.yul\":194:195   */\n      0x00\n        /* \"#utility.yul\":187:199   */\n      revert\n        /* \"#utility.yul\":334:411   */\n    tag_10:\n        /* \"#utility.yul\":371:378   */\n      0x00\n        /* \"#utility.yul\":400:405   */\n      dup2\n        /* \"#utility.yul\":389:405   */\n      swap1\n      pop\n        /* \"#utility.yul\":334:411   */\n      swap2\n      swap1\n      pop\n      jump\t// out\n        /* \"#utility.yul\":417:539   */\n    tag_11:\n        /* \"#utility.yul\":490:514   */\n      tag_19\n        /* \"#utility.yul\":508:513   */\n      dup2\n        /* \"#utility.yul\":490:514   */\n      tag_10\n      jump\t// in\n    tag_19:\n        /* \"#utility.yul\":483:488   */\n      dup2\n        /* \"#utility.yul\":480:515   */\n      eq\n        /* \"#utility.yul\":470:533   */\n      tag_20\n      jumpi\n        /* \"#utility.yul\":529:530   */\n      0x00\n        /* \"#utility.yul\":526:527   */\n      0x00\n        /* \"#utility.yul\":519:531   */\n      revert\n        /* \"#utility.yul\":470:533   */\n    tag_20:\n        /* \"#utility.yul\":417:539   */\n      pop\n      jump\t// out\n        /* \"#utility.yul\":545:688   */\n    tag_12:\n        /* \"#utility.yul\":602:607   */\n      0x00\n        /* \"#utility.yul\":633:639   */\n      dup2\n        /* \"#utility.yul\":627:640   */\n      mload\n        /* \"#utility.yul\":618:640   */\n      swap1\n      pop\n        /* \"#utility.yul\":649:682   */\n      tag_22\n        /* \"#utility.yul\":676:681   */\n      dup2\n        /* \"#utility.yul\":649:682   */\n      tag_11\n      jump\t// in\n    tag_22:\n        /* \"#utility.yul\":545:688   */\n      swap3\n      swap2\n      pop\n      pop\n      jump\t// out\n        /* \"#utility.yul\":694:1045   */\n    tag_3:\n        /* \"#utility.yul\":764:770   */\n      0x00\n        /* \"#utility.yul\":813:815   */\n      0x20\n        /* \"#utility.yul\":801:810   */\n      dup3\n        /* \"#utility.yul\":792:799   */\n      dup5\n        /* \"#utility.yul\":788:811   */\n      sub\n        /* \"#utility.yul\":784:816   */\n      slt\n        /* \"#utility.yul\":781:900   */\n      iszero\n      tag_24\n      jumpi\n        /* \"#utility.yul\":819:898   */\n      tag_25\n      tag_8\n      jump\t// in\n    tag_25:\n        /* \"#utility.yul\":781:900   */\n    tag_24:\n        /* \"#utility.yul\":939:940   */\n      0x00\n        /* \"#utility.yul\":964:1028   */\n      tag_26\n        /* \"#utility.yul\":1020:1027   */\n      dup5\n        /* \"#utility.yul\":1011:1017   */\n      dup3\n        /* \"#utility.yul\":1000:1009   */\n      dup6\n        /* \"#utility.yul\":996:1018   */\n      add\n        /* \"#utility.yul\":964:1028   */\n      tag_12\n      jump\t// in\n    tag_26:\n        /* \"#utility.yul\":954:1028   */\n      swap2\n      pop\n        /* \"#utility.yul\":910:1038   */\n      pop\n        /* \"#utility.yul\":694:1045   */\n      swap3\n      swap2\n      pop\n      pop\n      jump\t// out\n        /* \"Lottery/ERC20V2Basic.sol\":1159:3839  contract ERC20V2Basic is IERC20... */\n    tag_6:\n      dataSize(sub_0)\n      dup1\n      dataOffset(sub_0)\n      0x00\n      codecopy\n      0x00\n      return\n    stop\n\n    sub_0: assembly {\n            /* \"Lottery/ERC20V2Basic.sol\":1159:3839  contract ERC20V2Basic is IERC20... */\n          mstore(0x40, 0x80)\n          callvalue\n          dup1\n          iszero\n          tag_1\n          jumpi\n          revert(0x00, 0x00)\n        tag_1:\n          pop\n          jumpi(tag_2, lt(calldatasize, 0x04))\n          shr(0xe0, calldataload(0x00))\n          dup1\n          0x313ce567\n          gt\n          tag_14\n          jumpi\n          dup1\n          0x313ce567\n          eq\n          tag_8\n          jumpi\n          dup1\n          0x70a08231\n          eq\n          tag_9\n          jumpi\n          dup1\n          0x95d89b41\n          eq\n          tag_10\n          jumpi\n          dup1\n          0xa9059cbb\n          eq\n          tag_11\n          jumpi\n          dup1\n          0xd44237aa\n          eq\n          tag_12\n          jumpi\n          dup1\n          0xdd62ed3e\n          eq\n          tag_13\n          jumpi\n          jump(tag_2)\n        tag_14:\n          dup1\n          0x06fdde03\n          eq\n          tag_3\n          jumpi\n          dup1\n          0x095ea7b3\n          eq\n          tag_4\n          jumpi\n          dup1\n          0x18160ddd\n          eq\n          tag_5\n          jumpi\n          dup1\n          0x1d43cc98\n          eq\n          tag_6\n          jumpi\n          dup1\n          0x23b872dd\n          eq\n          tag_7\n          jumpi\n        tag_2:\n          revert(0x00, 0x00)\n            /* \"Lottery/ERC20V2Basic.sol\":1199:1248  string public  constant  name = \"ERC20JosueChain\" */\n        tag_3:\n          tag_15\n          tag_16\n          jump\t// in\n        tag_15:\n          mload(0x40)\n          tag_17\n          swap2\n          swap1\n          tag_18\n          jump\t// in\n        tag_17:\n          mload(0x40)\n          dup1\n          swap2\n          sub\n          swap1\n          return\n            /* \"Lottery/ERC20V2Basic.sol\":3087:3325  function approve(address delegate, uint256 numTokens) external  override  returns (bool)... */\n        tag_4:\n          tag_19\n          0x04\n          dup1\n          calldatasize\n          sub\n          dup2\n          add\n          swap1\n          tag_20\n          swap2\n          swap1\n          tag_21\n          jump\t// in\n        tag_20:\n          tag_22\n          jump\t// in\n        tag_19:\n          mload(0x40)\n          tag_23\n          swap2\n          swap1\n          tag_24\n          jump\t// in\n        tag_23:\n          mload(0x40)\n          dup1\n          swap2\n          sub\n          swap1\n          return\n            /* \"Lottery/ERC20V2Basic.sol\":1648:1757  function totalSupply () external override  view returns (uint256)... */\n        tag_5:\n          tag_25\n          tag_26\n          jump\t// in\n        tag_25:\n          mload(0x40)\n          tag_27\n          swap2\n          swap1\n          tag_28\n          jump\t// in\n        tag_27:\n          mload(0x40)\n          dup1\n          swap2\n          sub\n          swap1\n          return\n            /* \"Lottery/ERC20V2Basic.sol\":1769:1934  function  increaseTotalSupply(uint newTokensAmount) public ... */\n        tag_6:\n          tag_29\n          0x04\n          dup1\n          calldatasize\n          sub\n          dup2\n          add\n          swap1\n          tag_30\n          swap2\n          swap1\n          tag_31\n          jump\t// in\n        tag_30:\n          tag_32\n          jump\t// in\n        tag_29:\n          stop\n            /* \"Lottery/ERC20V2Basic.sol\":3333:3836  function transferFrom(address owner, address buyer, uint256 numTokens ) external override  returns (bool)... */\n        tag_7:\n          tag_33\n          0x04\n          dup1\n          calldatasize\n          sub\n          dup2\n          add\n          swap1\n          tag_34\n          swap2\n          swap1\n          tag_35\n          jump\t// in\n        tag_34:\n          tag_36\n          jump\t// in\n        tag_33:\n          mload(0x40)\n          tag_37\n          swap2\n          swap1\n          tag_24\n          jump\t// in\n        tag_37:\n          mload(0x40)\n          dup1\n          swap2\n          sub\n          swap1\n          return\n            /* \"Lottery/ERC20V2Basic.sol\":1301:1335  uint8 public constant decimals = 2 */\n        tag_8:\n          tag_38\n          tag_39\n          jump\t// in\n        tag_38:\n          mload(0x40)\n          tag_40\n          swap2\n          swap1\n          tag_41\n          jump\t// in\n        tag_40:\n          mload(0x40)\n          dup1\n          swap2\n          sub\n          swap1\n          return\n            /* \"Lottery/ERC20V2Basic.sol\":1942:2074  function balanceOf(address tokenOwner) external override  view returns (uint256)... */\n        tag_9:\n          tag_42\n          0x04\n          dup1\n          calldatasize\n          sub\n          dup2\n          add\n          swap1\n          tag_43\n          swap2\n          swap1\n          tag_44\n          jump\t// in\n        tag_43:\n          tag_45\n          jump\t// in\n        tag_42:\n          mload(0x40)\n          tag_46\n          swap2\n          swap1\n          tag_28\n          jump\t// in\n        tag_46:\n          mload(0x40)\n          dup1\n          swap2\n          sub\n          swap1\n          return\n            /* \"Lottery/ERC20V2Basic.sol\":1255:1294  string public constant symbol = \"ETHJC\" */\n        tag_10:\n          tag_47\n          tag_48\n          jump\t// in\n        tag_47:\n          mload(0x40)\n          tag_49\n          swap2\n          swap1\n          tag_18\n          jump\t// in\n        tag_49:\n          mload(0x40)\n          dup1\n          swap2\n          sub\n          swap1\n          return\n            /* \"Lottery/ERC20V2Basic.sol\":2239:2639  function transfer(address recipient, uint256 numTokens) external override  returns (bool)... */\n        tag_11:\n          tag_50\n          0x04\n          dup1\n          calldatasize\n          sub\n          dup2\n          add\n          swap1\n          tag_51\n          swap2\n          swap1\n          tag_21\n          jump\t// in\n        tag_51:\n          tag_52\n          jump\t// in\n        tag_50:\n          mload(0x40)\n          tag_53\n          swap2\n          swap1\n          tag_24\n          jump\t// in\n        tag_53:\n          mload(0x40)\n          dup1\n          swap2\n          sub\n          swap1\n          return\n            /* \"Lottery/ERC20V2Basic.sol\":2652:3075  function transfer_customer(address _customer,address recipient, uint256 numTokens) external override  returns (bool)... */\n        tag_12:\n          tag_54\n          0x04\n          dup1\n          calldatasize\n          sub\n          dup2\n          add\n          swap1\n          tag_55\n          swap2\n          swap1\n          tag_35\n          jump\t// in\n        tag_55:\n          tag_56\n          jump\t// in\n        tag_54:\n          mload(0x40)\n          tag_57\n          swap2\n          swap1\n          tag_24\n          jump\t// in\n        tag_57:\n          mload(0x40)\n          dup1\n          swap2\n          sub\n          swap1\n          return\n            /* \"Lottery/ERC20V2Basic.sol\":2082:2231  function allowance(address owner, address delegate) external override  view returns (uint256)... */\n        tag_13:\n          tag_58\n          0x04\n          dup1\n          calldatasize\n          sub\n          dup2\n          add\n          swap1\n          tag_59\n          swap2\n          swap1\n          tag_60\n          jump\t// in\n        tag_59:\n          tag_61\n          jump\t// in\n        tag_58:\n          mload(0x40)\n          tag_62\n          swap2\n          swap1\n          tag_28\n          jump\t// in\n        tag_62:\n          mload(0x40)\n          dup1\n          swap2\n          sub\n          swap1\n          return\n            /* \"Lottery/ERC20V2Basic.sol\":1199:1248  string public  constant  name = \"ERC20JosueChain\" */\n        tag_16:\n          mload(0x40)\n          dup1\n          0x40\n          add\n          0x40\n          mstore\n          dup1\n          0x0f\n          dup2\n          mstore\n          0x20\n          add\n          0x45524332304a6f737565436861696e0000000000000000000000000000000000\n          dup2\n          mstore\n          pop\n          dup2\n          jump\t// out\n            /* \"Lottery/ERC20V2Basic.sol\":3087:3325  function approve(address delegate, uint256 numTokens) external  override  returns (bool)... */\n        tag_22:\n            /* \"Lottery/ERC20V2Basic.sol\":3170:3174  bool */\n          0x00\n            /* \"Lottery/ERC20V2Basic.sol\":3224:3233  numTokens */\n          dup2\n            /* \"Lottery/ERC20V2Basic.sol\":3192:3199  allowed */\n          0x01\n            /* \"Lottery/ERC20V2Basic.sol\":3192:3211  allowed[msg.sender] */\n          0x00\n            /* \"Lottery/ERC20V2Basic.sol\":3200:3210  msg.sender */\n          caller\n            /* \"Lottery/ERC20V2Basic.sol\":3192:3211  allowed[msg.sender] */\n          0xffffffffffffffffffffffffffffffffffffffff\n          and\n          0xffffffffffffffffffffffffffffffffffffffff\n          and\n          dup2\n          mstore\n          0x20\n          add\n          swap1\n          dup2\n          mstore\n          0x20\n          add\n          0x00\n          keccak256\n            /* \"Lottery/ERC20V2Basic.sol\":3192:3221  allowed[msg.sender][delegate] */\n          0x00\n            /* \"Lottery/ERC20V2Basic.sol\":3212:3220  delegate */\n          dup6\n            /* \"Lottery/ERC20V2Basic.sol\":3192:3221  allowed[msg.sender][delegate] */\n          0xffffffffffffffffffffffffffffffffffffffff\n          and\n          0xffffffffffffffffffffffffffffffffffffffff\n          and\n          dup2\n          mstore\n          0x20\n          add\n          swap1\n          dup2\n          mstore\n          0x20\n          add\n          0x00\n          keccak256\n            /* \"Lottery/ERC20V2Basic.sol\":3192:3233  allowed[msg.sender][delegate] = numTokens */\n          dup2\n          swap1\n          sstore\n          pop\n            /* \"Lottery/ERC20V2Basic.sol\":3275:3283  delegate */\n          dup3\n            /* \"Lottery/ERC20V2Basic.sol\":3249:3295  approvalEvent(msg.sender, delegate, numTokens) */\n          0xffffffffffffffffffffffffffffffffffffffff\n          and\n            /* \"Lottery/ERC20V2Basic.sol\":3263:3273  msg.sender */\n          caller\n            /* \"Lottery/ERC20V2Basic.sol\":3249:3295  approvalEvent(msg.sender, delegate, numTokens) */\n          0xffffffffffffffffffffffffffffffffffffffff\n          and\n          0xd04c27822ed43674489d02367b63f0c5d0b6b232088b6515b73d546217b3457d\n            /* \"Lottery/ERC20V2Basic.sol\":3285:3294  numTokens */\n          dup5\n            /* \"Lottery/ERC20V2Basic.sol\":3249:3295  approvalEvent(msg.sender, delegate, numTokens) */\n          mload(0x40)\n          tag_64\n          swap2\n          swap1\n          tag_28\n          jump\t// in\n        tag_64:\n          mload(0x40)\n          dup1\n          swap2\n          sub\n          swap1\n          log3\n            /* \"Lottery/ERC20V2Basic.sol\":3313:3317  true */\n          0x01\n            /* \"Lottery/ERC20V2Basic.sol\":3306:3317  return true */\n          swap1\n          pop\n            /* \"Lottery/ERC20V2Basic.sol\":3087:3325  function approve(address delegate, uint256 numTokens) external  override  returns (bool)... */\n          swap3\n          swap2\n          pop\n          pop\n          jump\t// out\n            /* \"Lottery/ERC20V2Basic.sol\":1648:1757  function totalSupply () external override  view returns (uint256)... */\n        tag_26:\n            /* \"Lottery/ERC20V2Basic.sol\":1705:1712  uint256 */\n          0x00\n            /* \"Lottery/ERC20V2Basic.sol\":1737:1749  totalSupply_ */\n          sload(0x02)\n            /* \"Lottery/ERC20V2Basic.sol\":1730:1749  return totalSupply_ */\n          swap1\n          pop\n            /* \"Lottery/ERC20V2Basic.sol\":1648:1757  function totalSupply () external override  view returns (uint256)... */\n          swap1\n          jump\t// out\n            /* \"Lottery/ERC20V2Basic.sol\":1769:1934  function  increaseTotalSupply(uint newTokensAmount) public ... */\n        tag_32:\n            /* \"Lottery/ERC20V2Basic.sol\":1861:1876  newTokensAmount */\n          dup1\n            /* \"Lottery/ERC20V2Basic.sol\":1845:1857  totalSupply_ */\n          0x02\n          0x00\n            /* \"Lottery/ERC20V2Basic.sol\":1845:1876  totalSupply_ += newTokensAmount */\n          dup3\n          dup3\n          sload\n          tag_67\n          swap2\n          swap1\n          tag_68\n          jump\t// in\n        tag_67:\n          swap3\n          pop\n          pop\n          dup2\n          swap1\n          sstore\n          pop\n            /* \"Lottery/ERC20V2Basic.sol\":1911:1926  newTokensAmount */\n          dup1\n            /* \"Lottery/ERC20V2Basic.sol\":1887:1895  balances */\n          0x00\n            /* \"Lottery/ERC20V2Basic.sol\":1887:1907  balances[msg.sender] */\n          0x00\n            /* \"Lottery/ERC20V2Basic.sol\":1896:1906  msg.sender */\n          caller\n            /* \"Lottery/ERC20V2Basic.sol\":1887:1907  balances[msg.sender] */\n          0xffffffffffffffffffffffffffffffffffffffff\n          and\n          0xffffffffffffffffffffffffffffffffffffffff\n          and\n          dup2\n          mstore\n          0x20\n          add\n          swap1\n          dup2\n          mstore\n          0x20\n          add\n          0x00\n          keccak256\n          0x00\n            /* \"Lottery/ERC20V2Basic.sol\":1887:1926  balances[msg.sender] += newTokensAmount */\n          dup3\n          dup3\n          sload\n          tag_69\n          swap2\n          swap1\n          tag_68\n          jump\t// in\n        tag_69:\n          swap3\n          pop\n          pop\n          dup2\n          swap1\n          sstore\n          pop\n            /* \"Lottery/ERC20V2Basic.sol\":1769:1934  function  increaseTotalSupply(uint newTokensAmount) public ... */\n          pop\n          jump\t// out\n            /* \"Lottery/ERC20V2Basic.sol\":3333:3836  function transferFrom(address owner, address buyer, uint256 numTokens ) external override  returns (bool)... */\n        tag_36:\n            /* \"Lottery/ERC20V2Basic.sol\":3433:3437  bool */\n          0x00\n            /* \"Lottery/ERC20V2Basic.sol\":3476:3484  balances */\n          0x00\n            /* \"Lottery/ERC20V2Basic.sol\":3476:3491  balances[owner] */\n          0x00\n            /* \"Lottery/ERC20V2Basic.sol\":3485:3490  owner */\n          dup6\n            /* \"Lottery/ERC20V2Basic.sol\":3476:3491  balances[owner] */\n          0xffffffffffffffffffffffffffffffffffffffff\n          and\n          0xffffffffffffffffffffffffffffffffffffffff\n          and\n          dup2\n          mstore\n          0x20\n          add\n          swap1\n          dup2\n          mstore\n          0x20\n          add\n          0x00\n          keccak256\n          sload\n            /* \"Lottery/ERC20V2Basic.sol\":3463:3472  numTokens */\n          dup3\n            /* \"Lottery/ERC20V2Basic.sol\":3463:3491  numTokens <= balances[owner] */\n          gt\n          iszero\n            /* \"Lottery/ERC20V2Basic.sol\":3455:3492  require(numTokens <= balances[owner]) */\n          tag_71\n          jumpi\n          revert(0x00, 0x00)\n        tag_71:\n            /* \"Lottery/ERC20V2Basic.sol\":3524:3531  allowed */\n          0x01\n            /* \"Lottery/ERC20V2Basic.sol\":3524:3538  allowed[owner] */\n          0x00\n            /* \"Lottery/ERC20V2Basic.sol\":3532:3537  owner */\n          dup6\n            /* \"Lottery/ERC20V2Basic.sol\":3524:3538  allowed[owner] */\n          0xffffffffffffffffffffffffffffffffffffffff\n          and\n          0xffffffffffffffffffffffffffffffffffffffff\n          and\n          dup2\n          mstore\n          0x20\n          add\n          swap1\n          dup2\n          mstore\n          0x20\n          add\n          0x00\n          keccak256\n            /* \"Lottery/ERC20V2Basic.sol\":3524:3550  allowed[owner][msg.sender] */\n          0x00\n            /* \"Lottery/ERC20V2Basic.sol\":3539:3549  msg.sender */\n          caller\n            /* \"Lottery/ERC20V2Basic.sol\":3524:3550  allowed[owner][msg.sender] */\n          0xffffffffffffffffffffffffffffffffffffffff\n          and\n          0xffffffffffffffffffffffffffffffffffffffff\n          and\n          dup2\n          mstore\n          0x20\n          add\n          swap1\n          dup2\n          mstore\n          0x20\n          add\n          0x00\n          keccak256\n          sload\n            /* \"Lottery/ERC20V2Basic.sol\":3511:3520  numTokens */\n          dup3\n            /* \"Lottery/ERC20V2Basic.sol\":3511:3550  numTokens <= allowed[owner][msg.sender] */\n          gt\n          iszero\n            /* \"Lottery/ERC20V2Basic.sol\":3503:3551  require(numTokens <= allowed[owner][msg.sender]) */\n          tag_72\n          jumpi\n          revert(0x00, 0x00)\n        tag_72:\n            /* \"Lottery/ERC20V2Basic.sol\":3580:3610  balances[owner].sub(numTokens) */\n          tag_73\n            /* \"Lottery/ERC20V2Basic.sol\":3600:3609  numTokens */\n          dup3\n            /* \"Lottery/ERC20V2Basic.sol\":3580:3588  balances */\n          0x00\n            /* \"Lottery/ERC20V2Basic.sol\":3580:3595  balances[owner] */\n          0x00\n            /* \"Lottery/ERC20V2Basic.sol\":3589:3594  owner */\n          dup8\n            /* \"Lottery/ERC20V2Basic.sol\":3580:3595  balances[owner] */\n          0xffffffffffffffffffffffffffffffffffffffff\n          and\n          0xffffffffffffffffffffffffffffffffffffffff\n          and\n          dup2\n          mstore\n          0x20\n          add\n          swap1\n          dup2\n          mstore\n          0x20\n          add\n          0x00\n          keccak256\n          sload\n            /* \"Lottery/ERC20V2Basic.sol\":3580:3599  balances[owner].sub */\n          tag_74\n          swap1\n            /* \"Lottery/ERC20V2Basic.sol\":3580:3610  balances[owner].sub(numTokens) */\n          swap2\n          swap1\n          0xffffffff\n          and\n          jump\t// in\n        tag_73:\n            /* \"Lottery/ERC20V2Basic.sol\":3562:3570  balances */\n          0x00\n            /* \"Lottery/ERC20V2Basic.sol\":3562:3577  balances[owner] */\n          0x00\n            /* \"Lottery/ERC20V2Basic.sol\":3571:3576  owner */\n          dup7\n            /* \"Lottery/ERC20V2Basic.sol\":3562:3577  balances[owner] */\n          0xffffffffffffffffffffffffffffffffffffffff\n          and\n          0xffffffffffffffffffffffffffffffffffffffff\n          and\n          dup2\n          mstore\n          0x20\n          add\n          swap1\n          dup2\n          mstore\n          0x20\n          add\n          0x00\n          keccak256\n            /* \"Lottery/ERC20V2Basic.sol\":3562:3610  balances[owner] = balances[owner].sub(numTokens) */\n          dup2\n          swap1\n          sstore\n          pop\n            /* \"Lottery/ERC20V2Basic.sol\":3650:3691  allowed[owner][msg.sender].sub(numTokens) */\n          tag_75\n            /* \"Lottery/ERC20V2Basic.sol\":3681:3690  numTokens */\n          dup3\n            /* \"Lottery/ERC20V2Basic.sol\":3650:3657  allowed */\n          0x01\n            /* \"Lottery/ERC20V2Basic.sol\":3650:3664  allowed[owner] */\n          0x00\n            /* \"Lottery/ERC20V2Basic.sol\":3658:3663  owner */\n          dup8\n            /* \"Lottery/ERC20V2Basic.sol\":3650:3664  allowed[owner] */\n          0xffffffffffffffffffffffffffffffffffffffff\n          and\n          0xffffffffffffffffffffffffffffffffffffffff\n          and\n          dup2\n          mstore\n          0x20\n          add\n          swap1\n          dup2\n          mstore\n          0x20\n          add\n          0x00\n          keccak256\n            /* \"Lottery/ERC20V2Basic.sol\":3650:3676  allowed[owner][msg.sender] */\n          0x00\n            /* \"Lottery/ERC20V2Basic.sol\":3665:3675  msg.sender */\n          caller\n            /* \"Lottery/ERC20V2Basic.sol\":3650:3676  allowed[owner][msg.sender] */\n          0xffffffffffffffffffffffffffffffffffffffff\n          and\n          0xffffffffffffffffffffffffffffffffffffffff\n          and\n          dup2\n          mstore\n          0x20\n          add\n          swap1\n          dup2\n          mstore\n          0x20\n          add\n          0x00\n          keccak256\n          sload\n            /* \"Lottery/ERC20V2Basic.sol\":3650:3680  allowed[owner][msg.sender].sub */\n          tag_74\n          swap1\n            /* \"Lottery/ERC20V2Basic.sol\":3650:3691  allowed[owner][msg.sender].sub(numTokens) */\n          swap2\n          swap1\n          0xffffffff\n          and\n          jump\t// in\n        tag_75:\n            /* \"Lottery/ERC20V2Basic.sol\":3621:3628  allowed */\n          0x01\n            /* \"Lottery/ERC20V2Basic.sol\":3621:3635  allowed[owner] */\n          0x00\n            /* \"Lottery/ERC20V2Basic.sol\":3629:3634  owner */\n          dup7\n            /* \"Lottery/ERC20V2Basic.sol\":3621:3635  allowed[owner] */\n          0xffffffffffffffffffffffffffffffffffffffff\n          and\n          0xffffffffffffffffffffffffffffffffffffffff\n          and\n          dup2\n          mstore\n          0x20\n          add\n          swap1\n          dup2\n          mstore\n          0x20\n          add\n          0x00\n          keccak256\n            /* \"Lottery/ERC20V2Basic.sol\":3621:3647  allowed[owner][msg.sender] */\n          0x00\n            /* \"Lottery/ERC20V2Basic.sol\":3636:3646  msg.sender */\n          caller\n            /* \"Lottery/ERC20V2Basic.sol\":3621:3647  allowed[owner][msg.sender] */\n          0xffffffffffffffffffffffffffffffffffffffff\n          and\n          0xffffffffffffffffffffffffffffffffffffffff\n          and\n          dup2\n          mstore\n          0x20\n          add\n          swap1\n          dup2\n          mstore\n          0x20\n          add\n          0x00\n          keccak256\n            /* \"Lottery/ERC20V2Basic.sol\":3621:3691  allowed[owner][msg.sender] = allowed[owner][msg.sender].sub(numTokens) */\n          dup2\n          swap1\n          sstore\n          pop\n            /* \"Lottery/ERC20V2Basic.sol\":3720:3750  balances[buyer].add(numTokens) */\n          tag_76\n            /* \"Lottery/ERC20V2Basic.sol\":3740:3749  numTokens */\n          dup3\n            /* \"Lottery/ERC20V2Basic.sol\":3720:3728  balances */\n          0x00\n            /* \"Lottery/ERC20V2Basic.sol\":3720:3735  balances[buyer] */\n          0x00\n            /* \"Lottery/ERC20V2Basic.sol\":3729:3734  buyer */\n          dup7\n            /* \"Lottery/ERC20V2Basic.sol\":3720:3735  balances[buyer] */\n          0xffffffffffffffffffffffffffffffffffffffff\n          and\n          0xffffffffffffffffffffffffffffffffffffffff\n          and\n          dup2\n          mstore\n          0x20\n          add\n          swap1\n          dup2\n          mstore\n          0x20\n          add\n          0x00\n          keccak256\n          sload\n            /* \"Lottery/ERC20V2Basic.sol\":3720:3739  balances[buyer].add */\n          tag_77\n          swap1\n            /* \"Lottery/ERC20V2Basic.sol\":3720:3750  balances[buyer].add(numTokens) */\n          swap2\n          swap1\n          0xffffffff\n          and\n          jump\t// in\n        tag_76:\n            /* \"Lottery/ERC20V2Basic.sol\":3702:3710  balances */\n          0x00\n            /* \"Lottery/ERC20V2Basic.sol\":3702:3717  balances[buyer] */\n          0x00\n            /* \"Lottery/ERC20V2Basic.sol\":3711:3716  buyer */\n          dup6\n            /* \"Lottery/ERC20V2Basic.sol\":3702:3717  balances[buyer] */\n          0xffffffffffffffffffffffffffffffffffffffff\n          and\n          0xffffffffffffffffffffffffffffffffffffffff\n          and\n          dup2\n          mstore\n          0x20\n          add\n          swap1\n          dup2\n          mstore\n          0x20\n          add\n          0x00\n          keccak256\n            /* \"Lottery/ERC20V2Basic.sol\":3702:3750  balances[buyer] = balances[buyer].add(numTokens) */\n          dup2\n          swap1\n          sstore\n          pop\n            /* \"Lottery/ERC20V2Basic.sol\":3787:3792  buyer */\n          dup3\n            /* \"Lottery/ERC20V2Basic.sol\":3766:3805  transferEvent(owner, buyer , numTokens) */\n          0xffffffffffffffffffffffffffffffffffffffff\n          and\n            /* \"Lottery/ERC20V2Basic.sol\":3780:3785  owner */\n          dup5\n            /* \"Lottery/ERC20V2Basic.sol\":3766:3805  transferEvent(owner, buyer , numTokens) */\n          0xffffffffffffffffffffffffffffffffffffffff\n          and\n          0x5d439cf3a1f6215b41908e5b0b300f39679a3ff1cc010691c1d4ec4d0e2a4ebb\n            /* \"Lottery/ERC20V2Basic.sol\":3795:3804  numTokens */\n          dup5\n            /* \"Lottery/ERC20V2Basic.sol\":3766:3805  transferEvent(owner, buyer , numTokens) */\n          mload(0x40)\n          tag_78\n          swap2\n          swap1\n          tag_28\n          jump\t// in\n        tag_78:\n          mload(0x40)\n          dup1\n          swap2\n          sub\n          swap1\n          log3\n            /* \"Lottery/ERC20V2Basic.sol\":3824:3828  true */\n          0x01\n            /* \"Lottery/ERC20V2Basic.sol\":3817:3828  return true */\n          swap1\n          pop\n            /* \"Lottery/ERC20V2Basic.sol\":3333:3836  function transferFrom(address owner, address buyer, uint256 numTokens ) external override  returns (bool)... */\n          swap4\n          swap3\n          pop\n          pop\n          pop\n          jump\t// out\n            /* \"Lottery/ERC20V2Basic.sol\":1301:1335  uint8 public constant decimals = 2 */\n        tag_39:\n            /* \"Lottery/ERC20V2Basic.sol\":1334:1335  2 */\n          0x02\n            /* \"Lottery/ERC20V2Basic.sol\":1301:1335  uint8 public constant decimals = 2 */\n          dup2\n          jump\t// out\n            /* \"Lottery/ERC20V2Basic.sol\":1942:2074  function balanceOf(address tokenOwner) external override  view returns (uint256)... */\n        tag_45:\n            /* \"Lottery/ERC20V2Basic.sol\":2014:2021  uint256 */\n          0x00\n            /* \"Lottery/ERC20V2Basic.sol\":2046:2054  balances */\n          0x00\n            /* \"Lottery/ERC20V2Basic.sol\":2046:2066  balances[tokenOwner] */\n          0x00\n            /* \"Lottery/ERC20V2Basic.sol\":2055:2065  tokenOwner */\n          dup4\n            /* \"Lottery/ERC20V2Basic.sol\":2046:2066  balances[tokenOwner] */\n          0xffffffffffffffffffffffffffffffffffffffff\n          and\n          0xffffffffffffffffffffffffffffffffffffffff\n          and\n          dup2\n          mstore\n          0x20\n          add\n          swap1\n          dup2\n          mstore\n          0x20\n          add\n          0x00\n          keccak256\n          sload\n            /* \"Lottery/ERC20V2Basic.sol\":2039:2066  return balances[tokenOwner] */\n          swap1\n          pop\n            /* \"Lottery/ERC20V2Basic.sol\":1942:2074  function balanceOf(address tokenOwner) external override  view returns (uint256)... */\n          swap2\n          swap1\n          pop\n          jump\t// out\n            /* \"Lottery/ERC20V2Basic.sol\":1255:1294  string public constant symbol = \"ETHJC\" */\n        tag_48:\n          mload(0x40)\n          dup1\n          0x40\n          add\n          0x40\n          mstore\n          dup1\n          0x05\n          dup2\n          mstore\n          0x20\n          add\n          0x4554484a43000000000000000000000000000000000000000000000000000000\n          dup2\n          mstore\n          pop\n          dup2\n          jump\t// out\n            /* \"Lottery/ERC20V2Basic.sol\":2239:2639  function transfer(address recipient, uint256 numTokens) external override  returns (bool)... */\n        tag_52:\n            /* \"Lottery/ERC20V2Basic.sol\":2323:2327  bool */\n          0x00\n            /* \"Lottery/ERC20V2Basic.sol\":2366:2374  balances */\n          0x00\n            /* \"Lottery/ERC20V2Basic.sol\":2366:2386  balances[msg.sender] */\n          0x00\n            /* \"Lottery/ERC20V2Basic.sol\":2375:2385  msg.sender */\n          caller\n            /* \"Lottery/ERC20V2Basic.sol\":2366:2386  balances[msg.sender] */\n          0xffffffffffffffffffffffffffffffffffffffff\n          and\n          0xffffffffffffffffffffffffffffffffffffffff\n          and\n          dup2\n          mstore\n          0x20\n          add\n          swap1\n          dup2\n          mstore\n          0x20\n          add\n          0x00\n          keccak256\n          sload\n            /* \"Lottery/ERC20V2Basic.sol\":2353:2362  numTokens */\n          dup3\n            /* \"Lottery/ERC20V2Basic.sol\":2353:2386  numTokens <= balances[msg.sender] */\n          gt\n          iszero\n            /* \"Lottery/ERC20V2Basic.sol\":2345:2410  require(numTokens <= balances[msg.sender],\"insufficient balance\") */\n          tag_81\n          jumpi\n          mload(0x40)\n          0x08c379a000000000000000000000000000000000000000000000000000000000\n          dup2\n          mstore\n          0x04\n          add\n          tag_82\n          swap1\n          tag_83\n          jump\t// in\n        tag_82:\n          mload(0x40)\n          dup1\n          swap2\n          sub\n          swap1\n          revert\n        tag_81:\n            /* \"Lottery/ERC20V2Basic.sol\":2444:2479  balances[msg.sender].sub(numTokens) */\n          tag_84\n            /* \"Lottery/ERC20V2Basic.sol\":2469:2478  numTokens */\n          dup3\n            /* \"Lottery/ERC20V2Basic.sol\":2444:2452  balances */\n          0x00\n            /* \"Lottery/ERC20V2Basic.sol\":2444:2464  balances[msg.sender] */\n          0x00\n            /* \"Lottery/ERC20V2Basic.sol\":2453:2463  msg.sender */\n          caller\n            /* \"Lottery/ERC20V2Basic.sol\":2444:2464  balances[msg.sender] */\n          0xffffffffffffffffffffffffffffffffffffffff\n          and\n          0xffffffffffffffffffffffffffffffffffffffff\n          and\n          dup2\n          mstore\n          0x20\n          add\n          swap1\n          dup2\n          mstore\n          0x20\n          add\n          0x00\n          keccak256\n          sload\n            /* \"Lottery/ERC20V2Basic.sol\":2444:2468  balances[msg.sender].sub */\n          tag_74\n          swap1\n            /* \"Lottery/ERC20V2Basic.sol\":2444:2479  balances[msg.sender].sub(numTokens) */\n          swap2\n          swap1\n          0xffffffff\n          and\n          jump\t// in\n        tag_84:\n            /* \"Lottery/ERC20V2Basic.sol\":2421:2429  balances */\n          0x00\n            /* \"Lottery/ERC20V2Basic.sol\":2421:2441  balances[msg.sender] */\n          0x00\n            /* \"Lottery/ERC20V2Basic.sol\":2430:2440  msg.sender */\n          caller\n            /* \"Lottery/ERC20V2Basic.sol\":2421:2441  balances[msg.sender] */\n          0xffffffffffffffffffffffffffffffffffffffff\n          and\n          0xffffffffffffffffffffffffffffffffffffffff\n          and\n          dup2\n          mstore\n          0x20\n          add\n          swap1\n          dup2\n          mstore\n          0x20\n          add\n          0x00\n          keccak256\n            /* \"Lottery/ERC20V2Basic.sol\":2421:2479  balances[msg.sender] = balances[msg.sender].sub(numTokens) */\n          dup2\n          swap1\n          sstore\n          pop\n            /* \"Lottery/ERC20V2Basic.sol\":2512:2546  balances[recipient].add(numTokens) */\n          tag_85\n            /* \"Lottery/ERC20V2Basic.sol\":2536:2545  numTokens */\n          dup3\n            /* \"Lottery/ERC20V2Basic.sol\":2512:2520  balances */\n          0x00\n            /* \"Lottery/ERC20V2Basic.sol\":2512:2531  balances[recipient] */\n          0x00\n            /* \"Lottery/ERC20V2Basic.sol\":2521:2530  recipient */\n          dup7\n            /* \"Lottery/ERC20V2Basic.sol\":2512:2531  balances[recipient] */\n          0xffffffffffffffffffffffffffffffffffffffff\n          and\n          0xffffffffffffffffffffffffffffffffffffffff\n          and\n          dup2\n          mstore\n          0x20\n          add\n          swap1\n          dup2\n          mstore\n          0x20\n          add\n          0x00\n          keccak256\n          sload\n            /* \"Lottery/ERC20V2Basic.sol\":2512:2535  balances[recipient].add */\n          tag_77\n          swap1\n            /* \"Lottery/ERC20V2Basic.sol\":2512:2546  balances[recipient].add(numTokens) */\n          swap2\n          swap1\n          0xffffffff\n          and\n          jump\t// in\n        tag_85:\n            /* \"Lottery/ERC20V2Basic.sol\":2490:2498  balances */\n          0x00\n            /* \"Lottery/ERC20V2Basic.sol\":2490:2509  balances[recipient] */\n          0x00\n            /* \"Lottery/ERC20V2Basic.sol\":2499:2508  recipient */\n          dup6\n            /* \"Lottery/ERC20V2Basic.sol\":2490:2509  balances[recipient] */\n          0xffffffffffffffffffffffffffffffffffffffff\n          and\n          0xffffffffffffffffffffffffffffffffffffffff\n          and\n          dup2\n          mstore\n          0x20\n          add\n          swap1\n          dup2\n          mstore\n          0x20\n          add\n          0x00\n          keccak256\n            /* \"Lottery/ERC20V2Basic.sol\":2490:2546  balances[recipient] = balances[recipient].add(numTokens) */\n          dup2\n          swap1\n          sstore\n          pop\n            /* \"Lottery/ERC20V2Basic.sol\":2588:2597  recipient */\n          dup3\n            /* \"Lottery/ERC20V2Basic.sol\":2562:2609  transferEvent(msg.sender, recipient ,numTokens) */\n          0xffffffffffffffffffffffffffffffffffffffff\n          and\n            /* \"Lottery/ERC20V2Basic.sol\":2576:2586  msg.sender */\n          caller\n            /* \"Lottery/ERC20V2Basic.sol\":2562:2609  transferEvent(msg.sender, recipient ,numTokens) */\n          0xffffffffffffffffffffffffffffffffffffffff\n          and\n          0x5d439cf3a1f6215b41908e5b0b300f39679a3ff1cc010691c1d4ec4d0e2a4ebb\n            /* \"Lottery/ERC20V2Basic.sol\":2599:2608  numTokens */\n          dup5\n            /* \"Lottery/ERC20V2Basic.sol\":2562:2609  transferEvent(msg.sender, recipient ,numTokens) */\n          mload(0x40)\n          tag_86\n          swap2\n          swap1\n          tag_28\n          jump\t// in\n        tag_86:\n          mload(0x40)\n          dup1\n          swap2\n          sub\n          swap1\n          log3\n            /* \"Lottery/ERC20V2Basic.sol\":2627:2631  true */\n          0x01\n            /* \"Lottery/ERC20V2Basic.sol\":2620:2631  return true */\n          swap1\n          pop\n            /* \"Lottery/ERC20V2Basic.sol\":2239:2639  function transfer(address recipient, uint256 numTokens) external override  returns (bool)... */\n          swap3\n          swap2\n          pop\n          pop\n          jump\t// out\n            /* \"Lottery/ERC20V2Basic.sol\":2652:3075  function transfer_customer(address _customer,address recipient, uint256 numTokens) external override  returns (bool)... */\n        tag_56:\n            /* \"Lottery/ERC20V2Basic.sol\":2763:2767  bool */\n          0x00\n            /* \"Lottery/ERC20V2Basic.sol\":2806:2814  balances */\n          0x00\n            /* \"Lottery/ERC20V2Basic.sol\":2806:2825  balances[_customer] */\n          0x00\n            /* \"Lottery/ERC20V2Basic.sol\":2815:2824  _customer */\n          dup6\n            /* \"Lottery/ERC20V2Basic.sol\":2806:2825  balances[_customer] */\n          0xffffffffffffffffffffffffffffffffffffffff\n          and\n          0xffffffffffffffffffffffffffffffffffffffff\n          and\n          dup2\n          mstore\n          0x20\n          add\n          swap1\n          dup2\n          mstore\n          0x20\n          add\n          0x00\n          keccak256\n          sload\n            /* \"Lottery/ERC20V2Basic.sol\":2793:2802  numTokens */\n          dup3\n            /* \"Lottery/ERC20V2Basic.sol\":2793:2825  numTokens <= balances[_customer] */\n          gt\n          iszero\n            /* \"Lottery/ERC20V2Basic.sol\":2785:2849  require(numTokens <= balances[_customer],\"insufficient balance\") */\n          tag_88\n          jumpi\n          mload(0x40)\n          0x08c379a000000000000000000000000000000000000000000000000000000000\n          dup2\n          mstore\n          0x04\n          add\n          tag_89\n          swap1\n          tag_83\n          jump\t// in\n        tag_89:\n          mload(0x40)\n          dup1\n          swap2\n          sub\n          swap1\n          revert\n        tag_88:\n            /* \"Lottery/ERC20V2Basic.sol\":2882:2916  balances[_customer].sub(numTokens) */\n          tag_90\n            /* \"Lottery/ERC20V2Basic.sol\":2906:2915  numTokens */\n          dup3\n            /* \"Lottery/ERC20V2Basic.sol\":2882:2890  balances */\n          0x00\n            /* \"Lottery/ERC20V2Basic.sol\":2882:2901  balances[_customer] */\n          0x00\n            /* \"Lottery/ERC20V2Basic.sol\":2891:2900  _customer */\n          dup8\n            /* \"Lottery/ERC20V2Basic.sol\":2882:2901  balances[_customer] */\n          0xffffffffffffffffffffffffffffffffffffffff\n          and\n          0xffffffffffffffffffffffffffffffffffffffff\n          and\n          dup2\n          mstore\n          0x20\n          add\n          swap1\n          dup2\n          mstore\n          0x20\n          add\n          0x00\n          keccak256\n          sload\n            /* \"Lottery/ERC20V2Basic.sol\":2882:2905  balances[_customer].sub */\n          tag_74\n          swap1\n            /* \"Lottery/ERC20V2Basic.sol\":2882:2916  balances[_customer].sub(numTokens) */\n          swap2\n          swap1\n          0xffffffff\n          and\n          jump\t// in\n        tag_90:\n            /* \"Lottery/ERC20V2Basic.sol\":2860:2868  balances */\n          0x00\n            /* \"Lottery/ERC20V2Basic.sol\":2860:2879  balances[_customer] */\n          0x00\n            /* \"Lottery/ERC20V2Basic.sol\":2869:2878  _customer */\n          dup7\n            /* \"Lottery/ERC20V2Basic.sol\":2860:2879  balances[_customer] */\n          0xffffffffffffffffffffffffffffffffffffffff\n          and\n          0xffffffffffffffffffffffffffffffffffffffff\n          and\n          dup2\n          mstore\n          0x20\n          add\n          swap1\n          dup2\n          mstore\n          0x20\n          add\n          0x00\n          keccak256\n            /* \"Lottery/ERC20V2Basic.sol\":2860:2916  balances[_customer] = balances[_customer].sub(numTokens) */\n          dup2\n          swap1\n          sstore\n          pop\n            /* \"Lottery/ERC20V2Basic.sol\":2949:2983  balances[recipient].add(numTokens) */\n          tag_91\n            /* \"Lottery/ERC20V2Basic.sol\":2973:2982  numTokens */\n          dup3\n            /* \"Lottery/ERC20V2Basic.sol\":2949:2957  balances */\n          0x00\n            /* \"Lottery/ERC20V2Basic.sol\":2949:2968  balances[recipient] */\n          0x00\n            /* \"Lottery/ERC20V2Basic.sol\":2958:2967  recipient */\n          dup7\n            /* \"Lottery/ERC20V2Basic.sol\":2949:2968  balances[recipient] */\n          0xffffffffffffffffffffffffffffffffffffffff\n          and\n          0xffffffffffffffffffffffffffffffffffffffff\n          and\n          dup2\n          mstore\n          0x20\n          add\n          swap1\n          dup2\n          mstore\n          0x20\n          add\n          0x00\n          keccak256\n          sload\n            /* \"Lottery/ERC20V2Basic.sol\":2949:2972  balances[recipient].add */\n          tag_77\n          swap1\n            /* \"Lottery/ERC20V2Basic.sol\":2949:2983  balances[recipient].add(numTokens) */\n          swap2\n          swap1\n          0xffffffff\n          and\n          jump\t// in\n        tag_91:\n            /* \"Lottery/ERC20V2Basic.sol\":2927:2935  balances */\n          0x00\n            /* \"Lottery/ERC20V2Basic.sol\":2927:2946  balances[recipient] */\n          0x00\n            /* \"Lottery/ERC20V2Basic.sol\":2936:2945  recipient */\n          dup6\n            /* \"Lottery/ERC20V2Basic.sol\":2927:2946  balances[recipient] */\n          0xffffffffffffffffffffffffffffffffffffffff\n          and\n          0xffffffffffffffffffffffffffffffffffffffff\n          and\n          dup2\n          mstore\n          0x20\n          add\n          swap1\n          dup2\n          mstore\n          0x20\n          add\n          0x00\n          keccak256\n            /* \"Lottery/ERC20V2Basic.sol\":2927:2983  balances[recipient] = balances[recipient].add(numTokens) */\n          dup2\n          swap1\n          sstore\n          pop\n            /* \"Lottery/ERC20V2Basic.sol\":3024:3033  recipient */\n          dup3\n            /* \"Lottery/ERC20V2Basic.sol\":2999:3045  transferEvent(_customer, recipient ,numTokens) */\n          0xffffffffffffffffffffffffffffffffffffffff\n          and\n            /* \"Lottery/ERC20V2Basic.sol\":3013:3022  _customer */\n          dup5\n            /* \"Lottery/ERC20V2Basic.sol\":2999:3045  transferEvent(_customer, recipient ,numTokens) */\n          0xffffffffffffffffffffffffffffffffffffffff\n          and\n          0x5d439cf3a1f6215b41908e5b0b300f39679a3ff1cc010691c1d4ec4d0e2a4ebb\n            /* \"Lottery/ERC20V2Basic.sol\":3035:3044  numTokens */\n          dup5\n            /* \"Lottery/ERC20V2Basic.sol\":2999:3045  transferEvent(_customer, recipient ,numTokens) */\n          mload(0x40)\n          tag_92\n          swap2\n          swap1\n          tag_28\n          jump\t// in\n        tag_92:\n          mload(0x40)\n          dup1\n          swap2\n          sub\n          swap1\n          log3\n            /* \"Lottery/ERC20V2Basic.sol\":3063:3067  true */\n          0x01\n            /* \"Lottery/ERC20V2Basic.sol\":3056:3067  return true */\n          swap1\n          pop\n            /* \"Lottery/ERC20V2Basic.sol\":2652:3075  function transfer_customer(address _customer,address recipient, uint256 numTokens) external override  returns (bool)... */\n          swap4\n          swap3\n          pop\n          pop\n          pop\n          jump\t// out\n            /* \"Lottery/ERC20V2Basic.sol\":2082:2231  function allowance(address owner, address delegate) external override  view returns (uint256)... */\n        tag_61:\n            /* \"Lottery/ERC20V2Basic.sol\":2167:2174  uint256 */\n          0x00\n            /* \"Lottery/ERC20V2Basic.sol\":2199:2206  allowed */\n          0x01\n            /* \"Lottery/ERC20V2Basic.sol\":2199:2213  allowed[owner] */\n          0x00\n            /* \"Lottery/ERC20V2Basic.sol\":2207:2212  owner */\n          dup5\n            /* \"Lottery/ERC20V2Basic.sol\":2199:2213  allowed[owner] */\n          0xffffffffffffffffffffffffffffffffffffffff\n          and\n          0xffffffffffffffffffffffffffffffffffffffff\n          and\n          dup2\n          mstore\n          0x20\n          add\n          swap1\n          dup2\n          mstore\n          0x20\n          add\n          0x00\n          keccak256\n            /* \"Lottery/ERC20V2Basic.sol\":2199:2223  allowed[owner][delegate] */\n          0x00\n            /* \"Lottery/ERC20V2Basic.sol\":2214:2222  delegate */\n          dup4\n            /* \"Lottery/ERC20V2Basic.sol\":2199:2223  allowed[owner][delegate] */\n          0xffffffffffffffffffffffffffffffffffffffff\n          and\n          0xffffffffffffffffffffffffffffffffffffffff\n          and\n          dup2\n          mstore\n          0x20\n          add\n          swap1\n          dup2\n          mstore\n          0x20\n          add\n          0x00\n          keccak256\n          sload\n            /* \"Lottery/ERC20V2Basic.sol\":2192:2223  return allowed[owner][delegate] */\n          swap1\n          pop\n            /* \"Lottery/ERC20V2Basic.sol\":2082:2231  function allowance(address owner, address delegate) external override  view returns (uint256)... */\n          swap3\n          swap2\n          pop\n          pop\n          jump\t// out\n            /* \"Libs/SafeMath.sol\":311:430  function sub(uint256 a, uint256 b) internal pure returns (uint256) {... */\n        tag_74:\n            /* \"Libs/SafeMath.sol\":369:376  uint256 */\n          0x00\n            /* \"Libs/SafeMath.sol\":399:400  a */\n          dup3\n            /* \"Libs/SafeMath.sol\":394:395  b */\n          dup3\n            /* \"Libs/SafeMath.sol\":394:400  b <= a */\n          gt\n          iszero\n            /* \"Libs/SafeMath.sol\":387:401  assert(b <= a) */\n          tag_95\n          jumpi\n          tag_96\n          tag_97\n          jump\t// in\n        tag_96:\n        tag_95:\n            /* \"Libs/SafeMath.sol\":421:422  b */\n          dup2\n            /* \"Libs/SafeMath.sol\":417:418  a */\n          dup4\n            /* \"Libs/SafeMath.sol\":417:422  a - b */\n          tag_98\n          swap2\n          swap1\n          tag_99\n          jump\t// in\n        tag_98:\n            /* \"Libs/SafeMath.sol\":410:422  return a - b */\n          swap1\n          pop\n            /* \"Libs/SafeMath.sol\":311:430  function sub(uint256 a, uint256 b) internal pure returns (uint256) {... */\n          swap3\n          swap2\n          pop\n          pop\n          jump\t// out\n            /* \"Libs/SafeMath.sol\":456:597  function add(uint256 a, uint256 b) internal pure returns (uint256) {... */\n        tag_77:\n            /* \"Libs/SafeMath.sol\":514:521  uint256 */\n          0x00\n            /* \"Libs/SafeMath.sol\":532:541  uint256 c */\n          0x00\n            /* \"Libs/SafeMath.sol\":548:549  b */\n          dup3\n            /* \"Libs/SafeMath.sol\":544:545  a */\n          dup5\n            /* \"Libs/SafeMath.sol\":544:549  a + b */\n          tag_101\n          swap2\n          swap1\n          tag_68\n          jump\t// in\n        tag_101:\n            /* \"Libs/SafeMath.sol\":532:549  uint256 c = a + b */\n          swap1\n          pop\n            /* \"Libs/SafeMath.sol\":570:571  a */\n          dup4\n            /* \"Libs/SafeMath.sol\":565:566  c */\n          dup2\n            /* \"Libs/SafeMath.sol\":565:571  c >= a */\n          lt\n          iszero\n            /* \"Libs/SafeMath.sol\":558:572  assert(c >= a) */\n          tag_102\n          jumpi\n          tag_103\n          tag_97\n          jump\t// in\n        tag_103:\n        tag_102:\n            /* \"Libs/SafeMath.sol\":588:589  c */\n          dup1\n            /* \"Libs/SafeMath.sol\":581:589  return c */\n          swap2\n          pop\n          pop\n            /* \"Libs/SafeMath.sol\":456:597  function add(uint256 a, uint256 b) internal pure returns (uint256) {... */\n          swap3\n          swap2\n          pop\n          pop\n          jump\t// out\n            /* \"#utility.yul\":7:106   */\n        tag_104:\n            /* \"#utility.yul\":59:65   */\n          0x00\n            /* \"#utility.yul\":93:98   */\n          dup2\n            /* \"#utility.yul\":87:99   */\n          mload\n            /* \"#utility.yul\":77:99   */\n          swap1\n          pop\n            /* \"#utility.yul\":7:106   */\n          swap2\n          swap1\n          pop\n          jump\t// out\n            /* \"#utility.yul\":112:281   */\n        tag_105:\n            /* \"#utility.yul\":196:207   */\n          0x00\n            /* \"#utility.yul\":230:236   */\n          dup3\n            /* \"#utility.yul\":225:228   */\n          dup3\n            /* \"#utility.yul\":218:237   */\n          mstore\n            /* \"#utility.yul\":270:274   */\n          0x20\n            /* \"#utility.yul\":265:268   */\n          dup3\n            /* \"#utility.yul\":261:275   */\n          add\n            /* \"#utility.yul\":246:275   */\n          swap1\n          pop\n            /* \"#utility.yul\":112:281   */\n          swap3\n          swap2\n          pop\n          pop\n          jump\t// out\n            /* \"#utility.yul\":287:426   */\n        tag_106:\n            /* \"#utility.yul\":376:382   */\n          dup3\n            /* \"#utility.yul\":371:374   */\n          dup2\n            /* \"#utility.yul\":366:369   */\n          dup4\n            /* \"#utility.yul\":360:383   */\n          mcopy\n            /* \"#utility.yul\":417:418   */\n          0x00\n            /* \"#utility.yul\":408:414   */\n          dup4\n            /* \"#utility.yul\":403:406   */\n          dup4\n            /* \"#utility.yul\":399:415   */\n          add\n            /* \"#utility.yul\":392:419   */\n          mstore\n            /* \"#utility.yul\":287:426   */\n          pop\n          pop\n          pop\n          jump\t// out\n            /* \"#utility.yul\":432:534   */\n        tag_107:\n            /* \"#utility.yul\":473:479   */\n          0x00\n            /* \"#utility.yul\":524:526   */\n          0x1f\n            /* \"#utility.yul\":520:527   */\n          not\n            /* \"#utility.yul\":515:517   */\n          0x1f\n            /* \"#utility.yul\":508:513   */\n          dup4\n            /* \"#utility.yul\":504:518   */\n          add\n            /* \"#utility.yul\":500:528   */\n          and\n            /* \"#utility.yul\":490:528   */\n          swap1\n          pop\n            /* \"#utility.yul\":432:534   */\n          swap2\n          swap1\n          pop\n          jump\t// out\n            /* \"#utility.yul\":540:917   */\n        tag_108:\n            /* \"#utility.yul\":628:631   */\n          0x00\n            /* \"#utility.yul\":656:695   */\n          tag_133\n            /* \"#utility.yul\":689:694   */\n          dup3\n            /* \"#utility.yul\":656:695   */\n          tag_104\n          jump\t// in\n        tag_133:\n            /* \"#utility.yul\":711:782   */\n          tag_134\n            /* \"#utility.yul\":775:781   */\n          dup2\n            /* \"#utility.yul\":770:773   */\n          dup6\n            /* \"#utility.yul\":711:782   */\n          tag_105\n          jump\t// in\n        tag_134:\n            /* \"#utility.yul\":704:782   */\n          swap4\n          pop\n            /* \"#utility.yul\":791:856   */\n          tag_135\n            /* \"#utility.yul\":849:855   */\n          dup2\n            /* \"#utility.yul\":844:847   */\n          dup6\n            /* \"#utility.yul\":837:841   */\n          0x20\n            /* \"#utility.yul\":830:835   */\n          dup7\n            /* \"#utility.yul\":826:842   */\n          add\n            /* \"#utility.yul\":791:856   */\n          tag_106\n          jump\t// in\n        tag_135:\n            /* \"#utility.yul\":881:910   */\n          tag_136\n            /* \"#utility.yul\":903:909   */\n          dup2\n            /* \"#utility.yul\":881:910   */\n          tag_107\n          jump\t// in\n        tag_136:\n            /* \"#utility.yul\":876:879   */\n          dup5\n            /* \"#utility.yul\":872:911   */\n          add\n            /* \"#utility.yul\":865:911   */\n          swap2\n          pop\n            /* \"#utility.yul\":632:917   */\n          pop\n            /* \"#utility.yul\":540:917   */\n          swap3\n          swap2\n          pop\n          pop\n          jump\t// out\n            /* \"#utility.yul\":923:1236   */\n        tag_18:\n            /* \"#utility.yul\":1036:1040   */\n          0x00\n            /* \"#utility.yul\":1074:1076   */\n          0x20\n            /* \"#utility.yul\":1063:1072   */\n          dup3\n            /* \"#utility.yul\":1059:1077   */\n          add\n            /* \"#utility.yul\":1051:1077   */\n          swap1\n          pop\n            /* \"#utility.yul\":1123:1132   */\n          dup2\n            /* \"#utility.yul\":1117:1121   */\n          dup2\n            /* \"#utility.yul\":1113:1133   */\n          sub\n            /* \"#utility.yul\":1109:1110   */\n          0x00\n            /* \"#utility.yul\":1098:1107   */\n          dup4\n            /* \"#utility.yul\":1094:1111   */\n          add\n            /* \"#utility.yul\":1087:1134   */\n          mstore\n            /* \"#utility.yul\":1151:1229   */\n          tag_138\n            /* \"#utility.yul\":1224:1228   */\n          dup2\n            /* \"#utility.yul\":1215:1221   */\n          dup5\n            /* \"#utility.yul\":1151:1229   */\n          tag_108\n          jump\t// in\n        tag_138:\n            /* \"#utility.yul\":1143:1229   */\n          swap1\n          pop\n            /* \"#utility.yul\":923:1236   */\n          swap3\n          swap2\n          pop\n          pop\n          jump\t// out\n            /* \"#utility.yul\":1323:1440   */\n        tag_110:\n            /* \"#utility.yul\":1432:1433   */\n          0x00\n            /* \"#utility.yul\":1429:1430   */\n          0x00\n            /* \"#utility.yul\":1422:1434   */\n          revert\n            /* \"#utility.yul\":1569:1695   */\n        tag_112:\n            /* \"#utility.yul\":1606:1613   */\n          0x00\n            /* \"#utility.yul\":1646:1688   */\n          0xffffffffffffffffffffffffffffffffffffffff\n            /* \"#utility.yul\":1639:1644   */\n          dup3\n            /* \"#utility.yul\":1635:1689   */\n          and\n            /* \"#utility.yul\":1624:1689   */\n          swap1\n          pop\n            /* \"#utility.yul\":1569:1695   */\n          swap2\n          swap1\n          pop\n          jump\t// out\n            /* \"#utility.yul\":1701:1797   */\n        tag_113:\n            /* \"#utility.yul\":1738:1745   */\n          0x00\n            /* \"#utility.yul\":1767:1791   */\n          tag_144\n            /* \"#utility.yul\":1785:1790   */\n          dup3\n            /* \"#utility.yul\":1767:1791   */\n          tag_112\n          jump\t// in\n        tag_144:\n            /* \"#utility.yul\":1756:1791   */\n          swap1\n          pop\n            /* \"#utility.yul\":1701:1797   */\n          swap2\n          swap1\n          pop\n          jump\t// out\n            /* \"#utility.yul\":1803:1925   */\n        tag_114:\n            /* \"#utility.yul\":1876:1900   */\n          tag_146\n            /* \"#utility.yul\":1894:1899   */\n          dup2\n            /* \"#utility.yul\":1876:1900   */\n          tag_113\n          jump\t// in\n        tag_146:\n            /* \"#utility.yul\":1869:1874   */\n          dup2\n            /* \"#utility.yul\":1866:1901   */\n          eq\n            /* \"#utility.yul\":1856:1919   */\n          tag_147\n          jumpi\n            /* \"#utility.yul\":1915:1916   */\n          0x00\n            /* \"#utility.yul\":1912:1913   */\n          0x00\n            /* \"#utility.yul\":1905:1917   */\n          revert\n            /* \"#utility.yul\":1856:1919   */\n        tag_147:\n            /* \"#utility.yul\":1803:1925   */\n          pop\n          jump\t// out\n            /* \"#utility.yul\":1931:2070   */\n        tag_115:\n            /* \"#utility.yul\":1977:1982   */\n          0x00\n            /* \"#utility.yul\":2015:2021   */\n          dup2\n            /* \"#utility.yul\":2002:2022   */\n          calldataload\n            /* \"#utility.yul\":1993:2022   */\n          swap1\n          pop\n            /* \"#utility.yul\":2031:2064   */\n          tag_149\n            /* \"#utility.yul\":2058:2063   */\n          dup2\n            /* \"#utility.yul\":2031:2064   */\n          tag_114\n          jump\t// in\n        tag_149:\n            /* \"#utility.yul\":1931:2070   */\n          swap3\n          swap2\n          pop\n          pop\n          jump\t// out\n            /* \"#utility.yul\":2076:2153   */\n        tag_116:\n            /* \"#utility.yul\":2113:2120   */\n          0x00\n            /* \"#utility.yul\":2142:2147   */\n          dup2\n            /* \"#utility.yul\":2131:2147   */\n          swap1\n          pop\n            /* \"#utility.yul\":2076:2153   */\n          swap2\n          swap1\n          pop\n          jump\t// out\n            /* \"#utility.yul\":2159:2281   */\n        tag_117:\n            /* \"#utility.yul\":2232:2256   */\n          tag_152\n            /* \"#utility.yul\":2250:2255   */\n          dup2\n            /* \"#utility.yul\":2232:2256   */\n          tag_116\n          jump\t// in\n        tag_152:\n            /* \"#utility.yul\":2225:2230   */\n          dup2\n            /* \"#utility.yul\":2222:2257   */\n          eq\n            /* \"#utility.yul\":2212:2275   */\n          tag_153\n          jumpi\n            /* \"#utility.yul\":2271:2272   */\n          0x00\n            /* \"#utility.yul\":2268:2269   */\n          0x00\n            /* \"#utility.yul\":2261:2273   */\n          revert\n            /* \"#utility.yul\":2212:2275   */\n        tag_153:\n            /* \"#utility.yul\":2159:2281   */\n          pop\n          jump\t// out\n            /* \"#utility.yul\":2287:2426   */\n        tag_118:\n            /* \"#utility.yul\":2333:2338   */\n          0x00\n            /* \"#utility.yul\":2371:2377   */\n          dup2\n            /* \"#utility.yul\":2358:2378   */\n          calldataload\n            /* \"#utility.yul\":2349:2378   */\n          swap1\n          pop\n            /* \"#utility.yul\":2387:2420   */\n          tag_155\n            /* \"#utility.yul\":2414:2419   */\n          dup2\n            /* \"#utility.yul\":2387:2420   */\n          tag_117\n          jump\t// in\n        tag_155:\n            /* \"#utility.yul\":2287:2426   */\n          swap3\n          swap2\n          pop\n          pop\n          jump\t// out\n            /* \"#utility.yul\":2432:2906   */\n        tag_21:\n            /* \"#utility.yul\":2500:2506   */\n          0x00\n            /* \"#utility.yul\":2508:2514   */\n          0x00\n            /* \"#utility.yul\":2557:2559   */\n          0x40\n            /* \"#utility.yul\":2545:2554   */\n          dup4\n            /* \"#utility.yul\":2536:2543   */\n          dup6\n            /* \"#utility.yul\":2532:2555   */\n          sub\n            /* \"#utility.yul\":2528:2560   */\n          slt\n            /* \"#utility.yul\":2525:2644   */\n          iszero\n          tag_157\n          jumpi\n            /* \"#utility.yul\":2563:2642   */\n          tag_158\n          tag_110\n          jump\t// in\n        tag_158:\n            /* \"#utility.yul\":2525:2644   */\n        tag_157:\n            /* \"#utility.yul\":2683:2684   */\n          0x00\n            /* \"#utility.yul\":2708:2761   */\n          tag_159\n            /* \"#utility.yul\":2753:2760   */\n          dup6\n            /* \"#utility.yul\":2744:2750   */\n          dup3\n            /* \"#utility.yul\":2733:2742   */\n          dup7\n            /* \"#utility.yul\":2729:2751   */\n          add\n            /* \"#utility.yul\":2708:2761   */\n          tag_115\n          jump\t// in\n        tag_159:\n            /* \"#utility.yul\":2698:2761   */\n          swap3\n          pop\n            /* \"#utility.yul\":2654:2771   */\n          pop\n            /* \"#utility.yul\":2810:2812   */\n          0x20\n            /* \"#utility.yul\":2836:2889   */\n          tag_160\n            /* \"#utility.yul\":2881:2888   */\n          dup6\n            /* \"#utility.yul\":2872:2878   */\n          dup3\n            /* \"#utility.yul\":2861:2870   */\n          dup7\n            /* \"#utility.yul\":2857:2879   */\n          add\n            /* \"#utility.yul\":2836:2889   */\n          tag_118\n          jump\t// in\n        tag_160:\n            /* \"#utility.yul\":2826:2889   */\n          swap2\n          pop\n            /* \"#utility.yul\":2781:2899   */\n          pop\n            /* \"#utility.yul\":2432:2906   */\n          swap3\n          pop\n          swap3\n          swap1\n          pop\n          jump\t// out\n            /* \"#utility.yul\":2912:3002   */\n        tag_119:\n            /* \"#utility.yul\":2946:2953   */\n          0x00\n            /* \"#utility.yul\":2989:2994   */\n          dup2\n            /* \"#utility.yul\":2982:2995   */\n          iszero\n            /* \"#utility.yul\":2975:2996   */\n          iszero\n            /* \"#utility.yul\":2964:2996   */\n          swap1\n          pop\n            /* \"#utility.yul\":2912:3002   */\n          swap2\n          swap1\n          pop\n          jump\t// out\n            /* \"#utility.yul\":3008:3117   */\n        tag_120:\n            /* \"#utility.yul\":3089:3110   */\n          tag_163\n            /* \"#utility.yul\":3104:3109   */\n          dup2\n            /* \"#utility.yul\":3089:3110   */\n          tag_119\n          jump\t// in\n        tag_163:\n            /* \"#utility.yul\":3084:3087   */\n          dup3\n            /* \"#utility.yul\":3077:3111   */\n          mstore\n            /* \"#utility.yul\":3008:3117   */\n          pop\n          pop\n          jump\t// out\n            /* \"#utility.yul\":3123:3333   */\n        tag_24:\n            /* \"#utility.yul\":3210:3214   */\n          0x00\n            /* \"#utility.yul\":3248:3250   */\n          0x20\n            /* \"#utility.yul\":3237:3246   */\n          dup3\n            /* \"#utility.yul\":3233:3251   */\n          add\n            /* \"#utility.yul\":3225:3251   */\n          swap1\n          pop\n            /* \"#utility.yul\":3261:3326   */\n          tag_165\n            /* \"#utility.yul\":3323:3324   */\n          0x00\n            /* \"#utility.yul\":3312:3321   */\n          dup4\n            /* \"#utility.yul\":3308:3325   */\n          add\n            /* \"#utility.yul\":3299:3305   */\n          dup5\n            /* \"#utility.yul\":3261:3326   */\n          tag_120\n          jump\t// in\n        tag_165:\n            /* \"#utility.yul\":3123:3333   */\n          swap3\n          swap2\n          pop\n          pop\n          jump\t// out\n            /* \"#utility.yul\":3339:3457   */\n        tag_121:\n            /* \"#utility.yul\":3426:3450   */\n          tag_167\n            /* \"#utility.yul\":3444:3449   */\n          dup2\n            /* \"#utility.yul\":3426:3450   */\n          tag_116\n          jump\t// in\n        tag_167:\n            /* \"#utility.yul\":3421:3424   */\n          dup3\n            /* \"#utility.yul\":3414:3451   */\n          mstore\n            /* \"#utility.yul\":3339:3457   */\n          pop\n          pop\n          jump\t// out\n            /* \"#utility.yul\":3463:3685   */\n        tag_28:\n            /* \"#utility.yul\":3556:3560   */\n          0x00\n            /* \"#utility.yul\":3594:3596   */\n          0x20\n            /* \"#utility.yul\":3583:3592   */\n          dup3\n            /* \"#utility.yul\":3579:3597   */\n          add\n            /* \"#utility.yul\":3571:3597   */\n          swap1\n          pop\n            /* \"#utility.yul\":3607:3678   */\n          tag_169\n            /* \"#utility.yul\":3675:3676   */\n          0x00\n            /* \"#utility.yul\":3664:3673   */\n          dup4\n            /* \"#utility.yul\":3660:3677   */\n          add\n            /* \"#utility.yul\":3651:3657   */\n          dup5\n            /* \"#utility.yul\":3607:3678   */\n          tag_121\n          jump\t// in\n        tag_169:\n            /* \"#utility.yul\":3463:3685   */\n          swap3\n          swap2\n          pop\n          pop\n          jump\t// out\n            /* \"#utility.yul\":3691:4020   */\n        tag_31:\n            /* \"#utility.yul\":3750:3756   */\n          0x00\n            /* \"#utility.yul\":3799:3801   */\n          0x20\n            /* \"#utility.yul\":3787:3796   */\n          dup3\n            /* \"#utility.yul\":3778:3785   */\n          dup5\n            /* \"#utility.yul\":3774:3797   */\n          sub\n            /* \"#utility.yul\":3770:3802   */\n          slt\n            /* \"#utility.yul\":3767:3886   */\n          iszero\n          tag_171\n          jumpi\n            /* \"#utility.yul\":3805:3884   */\n          tag_172\n          tag_110\n          jump\t// in\n        tag_172:\n            /* \"#utility.yul\":3767:3886   */\n        tag_171:\n            /* \"#utility.yul\":3925:3926   */\n          0x00\n            /* \"#utility.yul\":3950:4003   */\n          tag_173\n            /* \"#utility.yul\":3995:4002   */\n          dup5\n            /* \"#utility.yul\":3986:3992   */\n          dup3\n            /* \"#utility.yul\":3975:3984   */\n          dup6\n            /* \"#utility.yul\":3971:3993   */\n          add\n            /* \"#utility.yul\":3950:4003   */\n          tag_118\n          jump\t// in\n        tag_173:\n            /* \"#utility.yul\":3940:4003   */\n          swap2\n          pop\n            /* \"#utility.yul\":3896:4013   */\n          pop\n            /* \"#utility.yul\":3691:4020   */\n          swap3\n          swap2\n          pop\n          pop\n          jump\t// out\n            /* \"#utility.yul\":4026:4645   */\n        tag_35:\n            /* \"#utility.yul\":4103:4109   */\n          0x00\n            /* \"#utility.yul\":4111:4117   */\n          0x00\n            /* \"#utility.yul\":4119:4125   */\n          0x00\n            /* \"#utility.yul\":4168:4170   */\n          0x60\n            /* \"#utility.yul\":4156:4165   */\n          dup5\n            /* \"#utility.yul\":4147:4154   */\n          dup7\n            /* \"#utility.yul\":4143:4166   */\n          sub\n            /* \"#utility.yul\":4139:4171   */\n          slt\n            /* \"#utility.yul\":4136:4255   */\n          iszero\n          tag_175\n          jumpi\n            /* \"#utility.yul\":4174:4253   */\n          tag_176\n          tag_110\n          jump\t// in\n        tag_176:\n            /* \"#utility.yul\":4136:4255   */\n        tag_175:\n            /* \"#utility.yul\":4294:4295   */\n          0x00\n            /* \"#utility.yul\":4319:4372   */\n          tag_177\n            /* \"#utility.yul\":4364:4371   */\n          dup7\n            /* \"#utility.yul\":4355:4361   */\n          dup3\n            /* \"#utility.yul\":4344:4353   */\n          dup8\n            /* \"#utility.yul\":4340:4362   */\n          add\n            /* \"#utility.yul\":4319:4372   */\n          tag_115\n          jump\t// in\n        tag_177:\n            /* \"#utility.yul\":4309:4372   */\n          swap4\n          pop\n            /* \"#utility.yul\":4265:4382   */\n          pop\n            /* \"#utility.yul\":4421:4423   */\n          0x20\n            /* \"#utility.yul\":4447:4500   */\n          tag_178\n            /* \"#utility.yul\":4492:4499   */\n          dup7\n            /* \"#utility.yul\":4483:4489   */\n          dup3\n            /* \"#utility.yul\":4472:4481   */\n          dup8\n            /* \"#utility.yul\":4468:4490   */\n          add\n            /* \"#utility.yul\":4447:4500   */\n          tag_115\n          jump\t// in\n        tag_178:\n            /* \"#utility.yul\":4437:4500   */\n          swap3\n          pop\n            /* \"#utility.yul\":4392:4510   */\n          pop\n            /* \"#utility.yul\":4549:4551   */\n          0x40\n            /* \"#utility.yul\":4575:4628   */\n          tag_179\n            /* \"#utility.yul\":4620:4627   */\n          dup7\n            /* \"#utility.yul\":4611:4617   */\n          dup3\n            /* \"#utility.yul\":4600:4609   */\n          dup8\n            /* \"#utility.yul\":4596:4618   */\n          add\n            /* \"#utility.yul\":4575:4628   */\n          tag_118\n          jump\t// in\n        tag_179:\n            /* \"#utility.yul\":4565:4628   */\n          swap2\n          pop\n            /* \"#utility.yul\":4520:4638   */\n          pop\n            /* \"#utility.yul\":4026:4645   */\n          swap3\n          pop\n          swap3\n          pop\n          swap3\n          jump\t// out\n            /* \"#utility.yul\":4651:4737   */\n        tag_122:\n            /* \"#utility.yul\":4686:4693   */\n          0x00\n            /* \"#utility.yul\":4726:4730   */\n          0xff\n            /* \"#utility.yul\":4719:4724   */\n          dup3\n            /* \"#utility.yul\":4715:4731   */\n          and\n            /* \"#utility.yul\":4704:4731   */\n          swap1\n          pop\n            /* \"#utility.yul\":4651:4737   */\n          swap2\n          swap1\n          pop\n          jump\t// out\n            /* \"#utility.yul\":4743:4855   */\n        tag_123:\n            /* \"#utility.yul\":4826:4848   */\n          tag_182\n            /* \"#utility.yul\":4842:4847   */\n          dup2\n            /* \"#utility.yul\":4826:4848   */\n          tag_122\n          jump\t// in\n        tag_182:\n            /* \"#utility.yul\":4821:4824   */\n          dup3\n            /* \"#utility.yul\":4814:4849   */\n          mstore\n            /* \"#utility.yul\":4743:4855   */\n          pop\n          pop\n          jump\t// out\n            /* \"#utility.yul\":4861:5075   */\n        tag_41:\n            /* \"#utility.yul\":4950:4954   */\n          0x00\n            /* \"#utility.yul\":4988:4990   */\n          0x20\n            /* \"#utility.yul\":4977:4986   */\n          dup3\n            /* \"#utility.yul\":4973:4991   */\n          add\n            /* \"#utility.yul\":4965:4991   */\n          swap1\n          pop\n            /* \"#utility.yul\":5001:5068   */\n          tag_184\n            /* \"#utility.yul\":5065:5066   */\n          0x00\n            /* \"#utility.yul\":5054:5063   */\n          dup4\n            /* \"#utility.yul\":5050:5067   */\n          add\n            /* \"#utility.yul\":5041:5047   */\n          dup5\n            /* \"#utility.yul\":5001:5068   */\n          tag_123\n          jump\t// in\n        tag_184:\n            /* \"#utility.yul\":4861:5075   */\n          swap3\n          swap2\n          pop\n          pop\n          jump\t// out\n            /* \"#utility.yul\":5081:5410   */\n        tag_44:\n            /* \"#utility.yul\":5140:5146   */\n          0x00\n            /* \"#utility.yul\":5189:5191   */\n          0x20\n            /* \"#utility.yul\":5177:5186   */\n          dup3\n            /* \"#utility.yul\":5168:5175   */\n          dup5\n            /* \"#utility.yul\":5164:5187   */\n          sub\n            /* \"#utility.yul\":5160:5192   */\n          slt\n            /* \"#utility.yul\":5157:5276   */\n          iszero\n          tag_186\n          jumpi\n            /* \"#utility.yul\":5195:5274   */\n          tag_187\n          tag_110\n          jump\t// in\n        tag_187:\n            /* \"#utility.yul\":5157:5276   */\n        tag_186:\n            /* \"#utility.yul\":5315:5316   */\n          0x00\n            /* \"#utility.yul\":5340:5393   */\n          tag_188\n            /* \"#utility.yul\":5385:5392   */\n          dup5\n            /* \"#utility.yul\":5376:5382   */\n          dup3\n            /* \"#utility.yul\":5365:5374   */\n          dup6\n            /* \"#utility.yul\":5361:5383   */\n          add\n            /* \"#utility.yul\":5340:5393   */\n          tag_115\n          jump\t// in\n        tag_188:\n            /* \"#utility.yul\":5330:5393   */\n          swap2\n          pop\n            /* \"#utility.yul\":5286:5403   */\n          pop\n            /* \"#utility.yul\":5081:5410   */\n          swap3\n          swap2\n          pop\n          pop\n          jump\t// out\n            /* \"#utility.yul\":5416:5890   */\n        tag_60:\n            /* \"#utility.yul\":5484:5490   */\n          0x00\n            /* \"#utility.yul\":5492:5498   */\n          0x00\n            /* \"#utility.yul\":5541:5543   */\n          0x40\n            /* \"#utility.yul\":5529:5538   */\n          dup4\n            /* \"#utility.yul\":5520:5527   */\n          dup6\n            /* \"#utility.yul\":5516:5539   */\n          sub\n            /* \"#utility.yul\":5512:5544   */\n          slt\n            /* \"#utility.yul\":5509:5628   */\n          iszero\n          tag_190\n          jumpi\n            /* \"#utility.yul\":5547:5626   */\n          tag_191\n          tag_110\n          jump\t// in\n        tag_191:\n            /* \"#utility.yul\":5509:5628   */\n        tag_190:\n            /* \"#utility.yul\":5667:5668   */\n          0x00\n            /* \"#utility.yul\":5692:5745   */\n          tag_192\n            /* \"#utility.yul\":5737:5744   */\n          dup6\n            /* \"#utility.yul\":5728:5734   */\n          dup3\n            /* \"#utility.yul\":5717:5726   */\n          dup7\n            /* \"#utility.yul\":5713:5735   */\n          add\n            /* \"#utility.yul\":5692:5745   */\n          tag_115\n          jump\t// in\n        tag_192:\n            /* \"#utility.yul\":5682:5745   */\n          swap3\n          pop\n            /* \"#utility.yul\":5638:5755   */\n          pop\n            /* \"#utility.yul\":5794:5796   */\n          0x20\n            /* \"#utility.yul\":5820:5873   */\n          tag_193\n            /* \"#utility.yul\":5865:5872   */\n          dup6\n            /* \"#utility.yul\":5856:5862   */\n          dup3\n            /* \"#utility.yul\":5845:5854   */\n          dup7\n            /* \"#utility.yul\":5841:5863   */\n          add\n            /* \"#utility.yul\":5820:5873   */\n          tag_115\n          jump\t// in\n        tag_193:\n            /* \"#utility.yul\":5810:5873   */\n          swap2\n          pop\n            /* \"#utility.yul\":5765:5883   */\n          pop\n            /* \"#utility.yul\":5416:5890   */\n          swap3\n          pop\n          swap3\n          swap1\n          pop\n          jump\t// out\n            /* \"#utility.yul\":5896:6076   */\n        tag_124:\n            /* \"#utility.yul\":5944:6021   */\n          0x4e487b7100000000000000000000000000000000000000000000000000000000\n            /* \"#utility.yul\":5941:5942   */\n          0x00\n            /* \"#utility.yul\":5934:6022   */\n          mstore\n            /* \"#utility.yul\":6041:6045   */\n          0x11\n            /* \"#utility.yul\":6038:6039   */\n          0x04\n            /* \"#utility.yul\":6031:6046   */\n          mstore\n            /* \"#utility.yul\":6065:6069   */\n          0x24\n            /* \"#utility.yul\":6062:6063   */\n          0x00\n            /* \"#utility.yul\":6055:6070   */\n          revert\n            /* \"#utility.yul\":6082:6273   */\n        tag_68:\n            /* \"#utility.yul\":6122:6125   */\n          0x00\n            /* \"#utility.yul\":6141:6161   */\n          tag_196\n            /* \"#utility.yul\":6159:6160   */\n          dup3\n            /* \"#utility.yul\":6141:6161   */\n          tag_116\n          jump\t// in\n        tag_196:\n            /* \"#utility.yul\":6136:6161   */\n          swap2\n          pop\n            /* \"#utility.yul\":6175:6195   */\n          tag_197\n            /* \"#utility.yul\":6193:6194   */\n          dup4\n            /* \"#utility.yul\":6175:6195   */\n          tag_116\n          jump\t// in\n        tag_197:\n            /* \"#utility.yul\":6170:6195   */\n          swap3\n          pop\n            /* \"#utility.yul\":6218:6219   */\n          dup3\n            /* \"#utility.yul\":6215:6216   */\n          dup3\n            /* \"#utility.yul\":6211:6220   */\n          add\n            /* \"#utility.yul\":6204:6220   */\n          swap1\n          pop\n            /* \"#utility.yul\":6239:6242   */\n          dup1\n            /* \"#utility.yul\":6236:6237   */\n          dup3\n            /* \"#utility.yul\":6233:6243   */\n          gt\n            /* \"#utility.yul\":6230:6266   */\n          iszero\n          tag_198\n          jumpi\n            /* \"#utility.yul\":6246:6264   */\n          tag_199\n          tag_124\n          jump\t// in\n        tag_199:\n            /* \"#utility.yul\":6230:6266   */\n        tag_198:\n            /* \"#utility.yul\":6082:6273   */\n          swap3\n          swap2\n          pop\n          pop\n          jump\t// out\n            /* \"#utility.yul\":6279:6449   */\n        tag_125:\n            /* \"#utility.yul\":6419:6441   */\n          0x696e73756666696369656e742062616c616e6365000000000000000000000000\n            /* \"#utility.yul\":6415:6416   */\n          0x00\n            /* \"#utility.yul\":6407:6413   */\n          dup3\n            /* \"#utility.yul\":6403:6417   */\n          add\n            /* \"#utility.yul\":6396:6442   */\n          mstore\n            /* \"#utility.yul\":6279:6449   */\n          pop\n          jump\t// out\n            /* \"#utility.yul\":6455:6821   */\n        tag_126:\n            /* \"#utility.yul\":6597:6600   */\n          0x00\n            /* \"#utility.yul\":6618:6685   */\n          tag_202\n            /* \"#utility.yul\":6682:6684   */\n          0x14\n            /* \"#utility.yul\":6677:6680   */\n          dup4\n            /* \"#utility.yul\":6618:6685   */\n          tag_105\n          jump\t// in\n        tag_202:\n            /* \"#utility.yul\":6611:6685   */\n          swap2\n          pop\n            /* \"#utility.yul\":6694:6787   */\n          tag_203\n            /* \"#utility.yul\":6783:6786   */\n          dup3\n            /* \"#utility.yul\":6694:6787   */\n          tag_125\n          jump\t// in\n        tag_203:\n            /* \"#utility.yul\":6812:6814   */\n          0x20\n            /* \"#utility.yul\":6807:6810   */\n          dup3\n            /* \"#utility.yul\":6803:6815   */\n          add\n            /* \"#utility.yul\":6796:6815   */\n          swap1\n          pop\n            /* \"#utility.yul\":6455:6821   */\n          swap2\n          swap1\n          pop\n          jump\t// out\n            /* \"#utility.yul\":6827:7246   */\n        tag_83:\n            /* \"#utility.yul\":6993:6997   */\n          0x00\n            /* \"#utility.yul\":7031:7033   */\n          0x20\n            /* \"#utility.yul\":7020:7029   */\n          dup3\n            /* \"#utility.yul\":7016:7034   */\n          add\n            /* \"#utility.yul\":7008:7034   */\n          swap1\n          pop\n            /* \"#utility.yul\":7080:7089   */\n          dup2\n            /* \"#utility.yul\":7074:7078   */\n          dup2\n            /* \"#utility.yul\":7070:7090   */\n          sub\n            /* \"#utility.yul\":7066:7067   */\n          0x00\n            /* \"#utility.yul\":7055:7064   */\n          dup4\n            /* \"#utility.yul\":7051:7068   */\n          add\n            /* \"#utility.yul\":7044:7091   */\n          mstore\n            /* \"#utility.yul\":7108:7239   */\n          tag_205\n            /* \"#utility.yul\":7234:7238   */\n          dup2\n            /* \"#utility.yul\":7108:7239   */\n          tag_126\n          jump\t// in\n        tag_205:\n            /* \"#utility.yul\":7100:7239   */\n          swap1\n          pop\n            /* \"#utility.yul\":6827:7246   */\n          swap2\n          swap1\n          pop\n          jump\t// out\n            /* \"#utility.yul\":7252:7432   */\n        tag_97:\n            /* \"#utility.yul\":7300:7377   */\n          0x4e487b7100000000000000000000000000000000000000000000000000000000\n            /* \"#utility.yul\":7297:7298   */\n          0x00\n            /* \"#utility.yul\":7290:7378   */\n          mstore\n            /* \"#utility.yul\":7397:7401   */\n          0x01\n            /* \"#utility.yul\":7394:7395   */\n          0x04\n            /* \"#utility.yul\":7387:7402   */\n          mstore\n            /* \"#utility.yul\":7421:7425   */\n          0x24\n            /* \"#utility.yul\":7418:7419   */\n          0x00\n            /* \"#utility.yul\":7411:7426   */\n          revert\n            /* \"#utility.yul\":7438:7632   */\n        tag_99:\n            /* \"#utility.yul\":7478:7482   */\n          0x00\n            /* \"#utility.yul\":7498:7518   */\n          tag_208\n            /* \"#utility.yul\":7516:7517   */\n          dup3\n            /* \"#utility.yul\":7498:7518   */\n          tag_116\n          jump\t// in\n        tag_208:\n            /* \"#utility.yul\":7493:7518   */\n          swap2\n          pop\n            /* \"#utility.yul\":7532:7552   */\n          tag_209\n            /* \"#utility.yul\":7550:7551   */\n          dup4\n            /* \"#utility.yul\":7532:7552   */\n          tag_116\n          jump\t// in\n        tag_209:\n            /* \"#utility.yul\":7527:7552   */\n          swap3\n          pop\n            /* \"#utility.yul\":7576:7577   */\n          dup3\n            /* \"#utility.yul\":7573:7574   */\n          dup3\n            /* \"#utility.yul\":7569:7578   */\n          sub\n            /* \"#utility.yul\":7561:7578   */\n          swap1\n          pop\n            /* \"#utility.yul\":7600:7601   */\n          dup2\n            /* \"#utility.yul\":7594:7598   */\n          dup2\n            /* \"#utility.yul\":7591:7602   */\n          gt\n            /* \"#utility.yul\":7588:7625   */\n          iszero\n          tag_210\n          jumpi\n            /* \"#utility.yul\":7605:7623   */\n          tag_211\n          tag_124\n          jump\t// in\n        tag_211:\n            /* \"#utility.yul\":7588:7625   */\n        tag_210:\n            /* \"#utility.yul\":7438:7632   */\n          swap3\n          swap2\n          pop\n          pop\n          jump\t// out\n\n        auxdata: 0xa264697066735822122009c2d974cc29dd624d32bc760e5222b2c77d84f7804d63c5492b2880ca04bd3164736f6c634300081e0033\n    }\n}\n",
				"bytecode": {
					"linkReferences": {},
					"object": "608060405261271060035560056004555f60075534801561001e575f5ffd5b5060035460405161002e90610115565b610038919061013a565b604051809103905ff080158015610051573d5f5f3e3d5ffd5b505f5f6101000a81548173ffffffffffffffffffffffffffffffffffffffff021916908373ffffffffffffffffffffffffffffffffffffffff1602179055503360015f6101000a81548173ffffffffffffffffffffffffffffffffffffffff021916908373ffffffffffffffffffffffffffffffffffffffff1602179055503060025f6101000a81548173ffffffffffffffffffffffffffffffffffffffff021916908373ffffffffffffffffffffffffffffffffffffffff160217905550610153565b6111e08061193c83390190565b5f819050919050565b61013481610122565b82525050565b5f60208201905061014d5f83018461012b565b92915050565b6117dc806101605f395ff3fe6080604052600436106100c1575f3560e01c80638bf972b21161007e578063a4e8aeb811610058578063a4e8aeb81461022b578063adbbe72014610255578063b23fd3bd1461027f578063b8621c7c1461029b576100c1565b80638bf972b21461019b5780638da5cb5b146101d7578063a19cb8c314610201576100c1565b806311973a23146100c557806334e7d146146100ef57806353321c881461010557806359ab03061461012f578063838c7dd01461015757806389749adb1461017f575b5f5ffd5b3480156100d0575f5ffd5b506100d96102c5565b6040516100e69190610f83565b60405180910390f35b3480156100fa575f5ffd5b50610103610384565b005b348015610110575f5ffd5b506101196105d2565b6040516101269190610f83565b60405180910390f35b34801561013a575f5ffd5b5061015560048036038101906101509190610fca565b6105d8565b005b348015610162575f5ffd5b5061017d60048036038101906101789190610fca565b610875565b005b61019960048036038101906101949190610fca565b61098f565b005b3480156101a6575f5ffd5b506101c160048036038101906101bc9190610fca565b610bc8565b6040516101ce9190610f83565b60405180910390f35b3480156101e2575f5ffd5b506101eb610be4565b6040516101f89190611034565b60405180910390f35b34801561020c575f5ffd5b50610215610c09565b6040516102229190611034565b60405180910390f35b348015610236575f5ffd5b5061023f610c2e565b60405161024c9190611104565b60405180910390f35b348015610260575f5ffd5b50610269610cbf565b6040516102769190610f83565b60405180910390f35b61029960048036038101906102949190610fca565b610d5d565b005b3480156102a6575f5ffd5b506102af610eac565b6040516102bc9190610f83565b60405180910390f35b5f5f5f9054906101000a900473ffffffffffffffffffffffffffffffffffffffff1673ffffffffffffffffffffffffffffffffffffffff166370a0823160015f9054906101000a900473ffffffffffffffffffffffffffffffffffffffff166040518263ffffffff1660e01b81526004016103409190611034565b602060405180830381865afa15801561035b573d5f5f3e3d5ffd5b505050506040513d601f19601f8201168201806040525081019061037f9190611138565b905090565b3360015f9054906101000a900473ffffffffffffffffffffffffffffffffffffffff1673ffffffffffffffffffffffffffffffffffffffff168173ffffffffffffffffffffffffffffffffffffffff1614610414576040517f08c379a000000000000000000000000000000000000000000000000000000000815260040161040b906111e3565b60405180910390fd5b5f6008805490501161045b576040517f08c379a00000000000000000000000000000000000000000000000000000000081526004016104529061124b565b60405180910390fd5b5f60088054905090505f81426040516020016104779190611289565b604051602081830303815290604052805190602001205f1c61049991906112d0565b90505f600882815481106104b0576104af611300565b5b905f5260205f20015490507f3b75dca12ac0d72a73350cc1c2b6308d8bac70bf669eb8c842806848b759c86c816040516104ea9190610f83565b60405180910390a15f60065f8381526020019081526020015f205f9054906101000a900473ffffffffffffffffffffffffffffffffffffffff1690505f5f9054906101000a900473ffffffffffffffffffffffffffffffffffffffff1673ffffffffffffffffffffffffffffffffffffffff1663d44237aa338361056c6102c5565b6040518463ffffffff1660e01b815260040161058a9392919061132d565b6020604051808303815f875af11580156105a6573d5f5f3e3d5ffd5b505050506040513d601f19601f820116820180604052508101906105ca9190611397565b505050505050565b60045481565b5f600454826105e791906113ef565b90506105f1610cbf565b811115610633576040517f08c379a000000000000000000000000000000000000000000000000000000000815260040161062a906114a0565b60405180910390fd5b5f5f9054906101000a900473ffffffffffffffffffffffffffffffffffffffff1673ffffffffffffffffffffffffffffffffffffffff1663d44237aa3360015f9054906101000a900473ffffffffffffffffffffffffffffffffffffffff16846040518463ffffffff1660e01b81526004016106b19392919061132d565b6020604051808303815f875af11580156106cd573d5f5f3e3d5ffd5b505050506040513d601f19601f820116820180604052508101906106f19190611397565b505f5f90505b82811015610870575f600354423360075460405160200161071a93929190611503565b604051602081830303815290604052805190602001205f1c61073c91906112d0565b905060075f8154809291906107509061153f565b919050555060055f3373ffffffffffffffffffffffffffffffffffffffff1673ffffffffffffffffffffffffffffffffffffffff1681526020019081526020015f2081908060018154018082558091505060019003905f5260205f20015f9091909190915055600881908060018154018082558091505060019003905f5260205f20015f90919091909150553360065f8381526020019081526020015f205f6101000a81548173ffffffffffffffffffffffffffffffffffffffff021916908373ffffffffffffffffffffffffffffffffffffffff1602179055507f0e0f5c745de6637f5404ab23a3074a8a62a2285b098ff831750d40f08078a8e68160405161085a9190610f83565b60405180910390a15080806001019150506106f7565b505050565b3360015f9054906101000a900473ffffffffffffffffffffffffffffffffffffffff1673ffffffffffffffffffffffffffffffffffffffff168173ffffffffffffffffffffffffffffffffffffffff1614610905576040517f08c379a00000000000000000000000000000000000000000000000000000000081526004016108fc906111e3565b60405180910390fd5b5f5f9054906101000a900473ffffffffffffffffffffffffffffffffffffffff1673ffffffffffffffffffffffffffffffffffffffff16631d43cc98836040518263ffffffff1660e01b815260040161095e9190610f83565b5f604051808303815f87803b158015610975575f5ffd5b505af1158015610987573d5f5f3e3d5ffd5b505050505050565b5f61099982610bc8565b9050803410156109de576040517f08c379a00000000000000000000000000000000000000000000000000000000081526004016109d5906115d0565b60405180910390fd5b5f81346109eb91906115ee565b90505f811115610a9f575f3373ffffffffffffffffffffffffffffffffffffffff1682604051610a1a9061164e565b5f6040518083038185875af1925050503d805f8114610a54576040519150601f19603f3d011682016040523d82523d5f602084013e610a59565b606091505b5050905080610a9d576040517f08c379a0000000000000000000000000000000000000000000000000000000008152600401610a94906116ac565b60405180910390fd5b505b5f610aa8610eac565b905080841115610aed576040517f08c379a0000000000000000000000000000000000000000000000000000000008152600401610ae4906114a0565b60405180910390fd5b5f5f9054906101000a900473ffffffffffffffffffffffffffffffffffffffff1673ffffffffffffffffffffffffffffffffffffffff1663a9059cbb33866040518363ffffffff1660e01b8152600401610b489291906116ca565b6020604051808303815f875af1158015610b64573d5f5f3e3d5ffd5b505050506040513d601f19601f82011682018060405250810190610b889190611397565b507fca73a6c98ab95630aa6925b7d7438fbb8e590211fe1911c531cb30155cf33d2d8433604051610bba9291906116f1565b60405180910390a150505050565b5f670de0b6b3a764000082610bdd91906113ef565b9050919050565b60015f9054906101000a900473ffffffffffffffffffffffffffffffffffffffff1681565b60025f9054906101000a900473ffffffffffffffffffffffffffffffffffffffff1681565b606060055f3373ffffffffffffffffffffffffffffffffffffffff1673ffffffffffffffffffffffffffffffffffffffff1681526020019081526020015f20805480602002602001604051908101604052809291908181526020018280548015610cb557602002820191905f5260205f20905b815481526020019060010190808311610ca1575b5050505050905090565b5f5f5f9054906101000a900473ffffffffffffffffffffffffffffffffffffffff1673ffffffffffffffffffffffffffffffffffffffff166370a08231336040518263ffffffff1660e01b8152600401610d199190611034565b602060405180830381865afa158015610d34573d5f5f3e3d5ffd5b505050506040513d601f19601f82011682018060405250810190610d589190611138565b905090565b5f8111610d9f576040517f08c379a0000000000000000000000000000000000000000000000000000000008152600401610d9690611788565b60405180910390fd5b610da7610cbf565b811115610de9576040517f08c379a0000000000000000000000000000000000000000000000000000000008152600401610de0906114a0565b60405180910390fd5b5f5f9054906101000a900473ffffffffffffffffffffffffffffffffffffffff1673ffffffffffffffffffffffffffffffffffffffff1663d44237aa3330846040518463ffffffff1660e01b8152600401610e469392919061132d565b6020604051808303815f875af1158015610e62573d5f5f3e3d5ffd5b505050506040513d601f19601f82011682018060405250810190610e869190611397565b503373ffffffffffffffffffffffffffffffffffffffff16610ea782610bc8565b505050565b5f5f5f9054906101000a900473ffffffffffffffffffffffffffffffffffffffff1673ffffffffffffffffffffffffffffffffffffffff166370a0823160025f9054906101000a900473ffffffffffffffffffffffffffffffffffffffff166040518263ffffffff1660e01b8152600401610f279190611034565b602060405180830381865afa158015610f42573d5f5f3e3d5ffd5b505050506040513d601f19601f82011682018060405250810190610f669190611138565b905090565b5f819050919050565b610f7d81610f6b565b82525050565b5f602082019050610f965f830184610f74565b92915050565b5f5ffd5b610fa981610f6b565b8114610fb3575f5ffd5b50565b5f81359050610fc481610fa0565b92915050565b5f60208284031215610fdf57610fde610f9c565b5b5f610fec84828501610fb6565b91505092915050565b5f73ffffffffffffffffffffffffffffffffffffffff82169050919050565b5f61101e82610ff5565b9050919050565b61102e81611014565b82525050565b5f6020820190506110475f830184611025565b92915050565b5f81519050919050565b5f82825260208201905092915050565b5f819050602082019050919050565b61107f81610f6b565b82525050565b5f6110908383611076565b60208301905092915050565b5f602082019050919050565b5f6110b28261104d565b6110bc8185611057565b93506110c783611067565b805f5b838110156110f75781516110de8882611085565b97506110e98361109c565b9250506001810190506110ca565b5085935050505092915050565b5f6020820190508181035f83015261111c81846110a8565b905092915050565b5f8151905061113281610fa0565b92915050565b5f6020828403121561114d5761114c610f9c565b5b5f61115a84828501611124565b91505092915050565b5f82825260208201905092915050565b7f596f7520617265206e6f7420617574686f72697a656420746f20646f207468695f8201527f7300000000000000000000000000000000000000000000000000000000000000602082015250565b5f6111cd602183611163565b91506111d882611173565b604082019050919050565b5f6020820190508181035f8301526111fa816111c1565b9050919050565b7f4e6f207469636b657473207075726368617365642079657421000000000000005f82015250565b5f611235601983611163565b915061124082611201565b602082019050919050565b5f6020820190508181035f83015261126281611229565b9050919050565b5f819050919050565b61128361127e82610f6b565b611269565b82525050565b5f6112948284611272565b60208201915081905092915050565b7f4e487b71000000000000000000000000000000000000000000000000000000005f52601260045260245ffd5b5f6112da82610f6b565b91506112e583610f6b565b9250826112f5576112f46112a3565b5b828206905092915050565b7f4e487b71000000000000000000000000000000000000000000000000000000005f52603260045260245ffd5b5f6060820190506113405f830186611025565b61134d6020830185611025565b61135a6040830184610f74565b949350505050565b5f8115159050919050565b61137681611362565b8114611380575f5ffd5b50565b5f815190506113918161136d565b92915050565b5f602082840312156113ac576113ab610f9c565b5b5f6113b984828501611383565b91505092915050565b7f4e487b71000000000000000000000000000000000000000000000000000000005f52601160045260245ffd5b5f6113f982610f6b565b915061140483610f6b565b925082820261141281610f6b565b91508282048414831517611429576114286113c2565b5b5092915050565b7f4e6f7420656e6f75676820746f6b656e7320617661696c61626c6520666f72205f8201527f73616c6500000000000000000000000000000000000000000000000000000000602082015250565b5f61148a602483611163565b915061149582611430565b604082019050919050565b5f6020820190508181035f8301526114b78161147e565b9050919050565b5f8160601b9050919050565b5f6114d4826114be565b9050919050565b5f6114e5826114ca565b9050919050565b6114fd6114f882611014565b6114db565b82525050565b5f61150e8286611272565b60208201915061151e82856114ec565b60148201915061152e8284611272565b602082019150819050949350505050565b5f61154982610f6b565b91507fffffffffffffffffffffffffffffffffffffffffffffffffffffffffffffffff820361157b5761157a6113c2565b5b600182019050919050565b7f4e6f7420656e6f756768206574686572000000000000000000000000000000005f82015250565b5f6115ba601083611163565b91506115c582611586565b602082019050919050565b5f6020820190508181035f8301526115e7816115ae565b9050919050565b5f6115f882610f6b565b915061160383610f6b565b925082820390508181111561161b5761161a6113c2565b5b92915050565b5f81905092915050565b50565b5f6116395f83611621565b91506116448261162b565b5f82019050919050565b5f6116588261162e565b9150819050919050565b7f526566756e64206661696c6564000000000000000000000000000000000000005f82015250565b5f611696600d83611163565b91506116a182611662565b602082019050919050565b5f6020820190508181035f8301526116c38161168a565b9050919050565b5f6040820190506116dd5f830185611025565b6116ea6020830184610f74565b9392505050565b5f6040820190506117045f830185610f74565b6117116020830184611025565b9392505050565b7f4d757374206265206174206c65617374203120746f6b656e20666f72207468695f8201527f73207472616e73616374696f6e21000000000000000000000000000000000000602082015250565b5f611772602e83611163565b915061177d82611718565b604082019050919050565b5f6020820190508181035f83015261179f81611766565b905091905056fea26469706673582212207c54e255928c8ad9e3c1fe9c6b7f38f058d4aac4aa4c53aaffa5f0d676720da364736f6c634300081e00336080604052348015600e575f5ffd5b506040516111e03803806111e08339818101604052810190602e919060af565b806002819055506002545f5f3373ffffffffffffffffffffffffffffffffffffffff1673ffffffffffffffffffffffffffffffffffffffff1681526020019081526020015f20819055505060d5565b5f5ffd5b5f819050919050565b6091816081565b8114609a575f5ffd5b50565b5f8151905060a981608a565b92915050565b5f6020828403121560c15760c0607d565b5b5f60cc84828501609d565b91505092915050565b6110fe806100e25f395ff3fe608060405234801561000f575f5ffd5b50600436106100a7575f3560e01c8063313ce5671161006f578063313ce5671461016357806370a082311461018157806395d89b41146101b1578063a9059cbb146101cf578063d44237aa146101ff578063dd62ed3e1461022f576100a7565b806306fdde03146100ab578063095ea7b3146100c957806318160ddd146100f95780631d43cc981461011757806323b872dd14610133575b5f5ffd5b6100b361025f565b6040516100c09190610d3e565b60405180910390f35b6100e360048036038101906100de9190610def565b610298565b6040516100f09190610e47565b60405180910390f35b610101610385565b60405161010e9190610e6f565b60405180910390f35b610131600480360381019061012c9190610e88565b61038e565b005b61014d60048036038101906101489190610eb3565b6103fb565b60405161015a9190610e47565b60405180910390f35b61016b61075d565b6040516101789190610f1e565b60405180910390f35b61019b60048036038101906101969190610f37565b610762565b6040516101a89190610e6f565b60405180910390f35b6101b96107a7565b6040516101c69190610d3e565b60405180910390f35b6101e960048036038101906101e49190610def565b6107e0565b6040516101f69190610e47565b60405180910390f35b61021960048036038101906102149190610eb3565b6109ed565b6040516102269190610e47565b60405180910390f35b61024960048036038101906102449190610f62565b610bfb565b6040516102569190610e6f565b60405180910390f35b6040518060400160405280600f81526020017f45524332304a6f737565436861696e000000000000000000000000000000000081525081565b5f8160015f3373ffffffffffffffffffffffffffffffffffffffff1673ffffffffffffffffffffffffffffffffffffffff1681526020019081526020015f205f8573ffffffffffffffffffffffffffffffffffffffff1673ffffffffffffffffffffffffffffffffffffffff1681526020019081526020015f20819055508273ffffffffffffffffffffffffffffffffffffffff163373ffffffffffffffffffffffffffffffffffffffff167fd04c27822ed43674489d02367b63f0c5d0b6b232088b6515b73d546217b3457d846040516103739190610e6f565b60405180910390a36001905092915050565b5f600254905090565b8060025f82825461039f9190610fcd565b92505081905550805f5f3373ffffffffffffffffffffffffffffffffffffffff1673ffffffffffffffffffffffffffffffffffffffff1681526020019081526020015f205f8282546103f19190610fcd565b9250508190555050565b5f5f5f8573ffffffffffffffffffffffffffffffffffffffff1673ffffffffffffffffffffffffffffffffffffffff1681526020019081526020015f2054821115610444575f5ffd5b60015f8573ffffffffffffffffffffffffffffffffffffffff1673ffffffffffffffffffffffffffffffffffffffff1681526020019081526020015f205f3373ffffffffffffffffffffffffffffffffffffffff1673ffffffffffffffffffffffffffffffffffffffff1681526020019081526020015f20548211156104c8575f5ffd5b610517825f5f8773ffffffffffffffffffffffffffffffffffffffff1673ffffffffffffffffffffffffffffffffffffffff1681526020019081526020015f2054610c7d90919063ffffffff16565b5f5f8673ffffffffffffffffffffffffffffffffffffffff1673ffffffffffffffffffffffffffffffffffffffff1681526020019081526020015f20819055506105e28260015f8773ffffffffffffffffffffffffffffffffffffffff1673ffffffffffffffffffffffffffffffffffffffff1681526020019081526020015f205f3373ffffffffffffffffffffffffffffffffffffffff1673ffffffffffffffffffffffffffffffffffffffff1681526020019081526020015f2054610c7d90919063ffffffff16565b60015f8673ffffffffffffffffffffffffffffffffffffffff1673ffffffffffffffffffffffffffffffffffffffff1681526020019081526020015f205f3373ffffffffffffffffffffffffffffffffffffffff1673ffffffffffffffffffffffffffffffffffffffff1681526020019081526020015f20819055506106ad825f5f8673ffffffffffffffffffffffffffffffffffffffff1673ffffffffffffffffffffffffffffffffffffffff1681526020019081526020015f2054610ca390919063ffffffff16565b5f5f8573ffffffffffffffffffffffffffffffffffffffff1673ffffffffffffffffffffffffffffffffffffffff1681526020019081526020015f20819055508273ffffffffffffffffffffffffffffffffffffffff168473ffffffffffffffffffffffffffffffffffffffff167f5d439cf3a1f6215b41908e5b0b300f39679a3ff1cc010691c1d4ec4d0e2a4ebb8460405161074a9190610e6f565b60405180910390a3600190509392505050565b600281565b5f5f5f8373ffffffffffffffffffffffffffffffffffffffff1673ffffffffffffffffffffffffffffffffffffffff1681526020019081526020015f20549050919050565b6040518060400160405280600581526020017f4554484a4300000000000000000000000000000000000000000000000000000081525081565b5f5f5f3373ffffffffffffffffffffffffffffffffffffffff1673ffffffffffffffffffffffffffffffffffffffff1681526020019081526020015f2054821115610860576040517f08c379a00000000000000000000000000000000000000000000000000000000081526004016108579061104a565b60405180910390fd5b6108af825f5f3373ffffffffffffffffffffffffffffffffffffffff1673ffffffffffffffffffffffffffffffffffffffff1681526020019081526020015f2054610c7d90919063ffffffff16565b5f5f3373ffffffffffffffffffffffffffffffffffffffff1673ffffffffffffffffffffffffffffffffffffffff1681526020019081526020015f208190555061093e825f5f8673ffffffffffffffffffffffffffffffffffffffff1673ffffffffffffffffffffffffffffffffffffffff1681526020019081526020015f2054610ca390919063ffffffff16565b5f5f8573ffffffffffffffffffffffffffffffffffffffff1673ffffffffffffffffffffffffffffffffffffffff1681526020019081526020015f20819055508273ffffffffffffffffffffffffffffffffffffffff163373ffffffffffffffffffffffffffffffffffffffff167f5d439cf3a1f6215b41908e5b0b300f39679a3ff1cc010691c1d4ec4d0e2a4ebb846040516109db9190610e6f565b60405180910390a36001905092915050565b5f5f5f8573ffffffffffffffffffffffffffffffffffffffff1673ffffffffffffffffffffffffffffffffffffffff1681526020019081526020015f2054821115610a6d576040517f08c379a0000000000000000000000000000000000000000000000000000000008152600401610a649061104a565b60405180910390fd5b610abc825f5f8773ffffffffffffffffffffffffffffffffffffffff1673ffffffffffffffffffffffffffffffffffffffff1681526020019081526020015f2054610c7d90919063ffffffff16565b5f5f8673ffffffffffffffffffffffffffffffffffffffff1673ffffffffffffffffffffffffffffffffffffffff1681526020019081526020015f2081905550610b4b825f5f8673ffffffffffffffffffffffffffffffffffffffff1673ffffffffffffffffffffffffffffffffffffffff1681526020019081526020015f2054610ca390919063ffffffff16565b5f5f8573ffffffffffffffffffffffffffffffffffffffff1673ffffffffffffffffffffffffffffffffffffffff1681526020019081526020015f20819055508273ffffffffffffffffffffffffffffffffffffffff168473ffffffffffffffffffffffffffffffffffffffff167f5d439cf3a1f6215b41908e5b0b300f39679a3ff1cc010691c1d4ec4d0e2a4ebb84604051610be89190610e6f565b60405180910390a3600190509392505050565b5f60015f8473ffffffffffffffffffffffffffffffffffffffff1673ffffffffffffffffffffffffffffffffffffffff1681526020019081526020015f205f8373ffffffffffffffffffffffffffffffffffffffff1673ffffffffffffffffffffffffffffffffffffffff1681526020019081526020015f2054905092915050565b5f82821115610c8f57610c8e611068565b5b8183610c9b9190611095565b905092915050565b5f5f8284610cb19190610fcd565b905083811015610cc457610cc3611068565b5b8091505092915050565b5f81519050919050565b5f82825260208201905092915050565b8281835e5f83830152505050565b5f601f19601f8301169050919050565b5f610d1082610cce565b610d1a8185610cd8565b9350610d2a818560208601610ce8565b610d3381610cf6565b840191505092915050565b5f6020820190508181035f830152610d568184610d06565b905092915050565b5f5ffd5b5f73ffffffffffffffffffffffffffffffffffffffff82169050919050565b5f610d8b82610d62565b9050919050565b610d9b81610d81565b8114610da5575f5ffd5b50565b5f81359050610db681610d92565b92915050565b5f819050919050565b610dce81610dbc565b8114610dd8575f5ffd5b50565b5f81359050610de981610dc5565b92915050565b5f5f60408385031215610e0557610e04610d5e565b5b5f610e1285828601610da8565b9250506020610e2385828601610ddb565b9150509250929050565b5f8115159050919050565b610e4181610e2d565b82525050565b5f602082019050610e5a5f830184610e38565b92915050565b610e6981610dbc565b82525050565b5f602082019050610e825f830184610e60565b92915050565b5f60208284031215610e9d57610e9c610d5e565b5b5f610eaa84828501610ddb565b91505092915050565b5f5f5f60608486031215610eca57610ec9610d5e565b5b5f610ed786828701610da8565b9350506020610ee886828701610da8565b9250506040610ef986828701610ddb565b9150509250925092565b5f60ff82169050919050565b610f1881610f03565b82525050565b5f602082019050610f315f830184610f0f565b92915050565b5f60208284031215610f4c57610f4b610d5e565b5b5f610f5984828501610da8565b91505092915050565b5f5f60408385031215610f7857610f77610d5e565b5b5f610f8585828601610da8565b9250506020610f9685828601610da8565b9150509250929050565b7f4e487b71000000000000000000000000000000000000000000000000000000005f52601160045260245ffd5b5f610fd782610dbc565b9150610fe283610dbc565b9250828201905080821115610ffa57610ff9610fa0565b5b92915050565b7f696e73756666696369656e742062616c616e63650000000000000000000000005f82015250565b5f611034601483610cd8565b915061103f82611000565b602082019050919050565b5f6020820190508181035f83015261106181611028565b9050919050565b7f4e487b71000000000000000000000000000000000000000000000000000000005f52600160045260245ffd5b5f61109f82610dbc565b91506110aa83610dbc565b92508282039050818111156110c2576110c1610fa0565b5b9291505056fea264697066735822122009c2d974cc29dd624d32bc760e5222b2c77d84f7804d63c5492b2880ca04bd3164736f6c634300081e0033",
					"opcodes": "PUSH1 0x80 PUSH1 0x40 MSTORE PUSH2 0x2710 PUSH1 0x3 SSTORE PUSH1 0x5 PUSH1 0x4 SSTORE PUSH0 PUSH1 0x7 SSTORE CALLVALUE DUP1 ISZERO PUSH2 0x1E JUMPI PUSH0 PUSH0 REVERT JUMPDEST POP PUSH1 0x3 SLOAD PUSH1 0x40 MLOAD PUSH2 0x2E SWAP1 PUSH2 0x115 JUMP JUMPDEST PUSH2 0x38 SWAP2 SWAP1 PUSH2 0x13A JUMP JUMPDEST PUSH1 0x40 MLOAD DUP1 SWAP2 SUB SWAP1 PUSH0 CREATE DUP1 ISZERO DUP1 ISZERO PUSH2 0x51 JUMPI RETURNDATASIZE PUSH0 PUSH0 RETURNDATACOPY RETURNDATASIZE PUSH0 REVERT JUMPDEST POP PUSH0 PUSH0 PUSH2 0x100 EXP DUP2 SLOAD DUP2 PUSH20 0xFFFFFFFFFFFFFFFFFFFFFFFFFFFFFFFFFFFFFFFF MUL NOT AND SWAP1 DUP4 PUSH20 0xFFFFFFFFFFFFFFFFFFFFFFFFFFFFFFFFFFFFFFFF AND MUL OR SWAP1 SSTORE POP CALLER PUSH1 0x1 PUSH0 PUSH2 0x100 EXP DUP2 SLOAD DUP2 PUSH20 0xFFFFFFFFFFFFFFFFFFFFFFFFFFFFFFFFFFFFFFFF MUL NOT AND SWAP1 DUP4 PUSH20 0xFFFFFFFFFFFFFFFFFFFFFFFFFFFFFFFFFFFFFFFF AND MUL OR SWAP1 SSTORE POP ADDRESS PUSH1 0x2 PUSH0 PUSH2 0x100 EXP DUP2 SLOAD DUP2 PUSH20 0xFFFFFFFFFFFFFFFFFFFFFFFFFFFFFFFFFFFFFFFF MUL NOT AND SWAP1 DUP4 PUSH20 0xFFFFFFFFFFFFFFFFFFFFFFFFFFFFFFFFFFFFFFFF AND MUL OR SWAP1 SSTORE POP PUSH2 0x153 JUMP JUMPDEST PUSH2 0x11E0 DUP1 PUSH2 0x193C DUP4 CODECOPY ADD SWAP1 JUMP JUMPDEST PUSH0 DUP2 SWAP1 POP SWAP2 SWAP1 POP JUMP JUMPDEST PUSH2 0x134 DUP2 PUSH2 0x122 JUMP JUMPDEST DUP3 MSTORE POP POP JUMP JUMPDEST PUSH0 PUSH1 0x20 DUP3 ADD SWAP1 POP PUSH2 0x14D PUSH0 DUP4 ADD DUP5 PUSH2 0x12B JUMP JUMPDEST SWAP3 SWAP2 POP POP JUMP JUMPDEST PUSH2 0x17DC DUP1 PUSH2 0x160 PUSH0 CODECOPY PUSH0 RETURN INVALID PUSH1 0x80 PUSH1 0x40 MSTORE PUSH1 0x4 CALLDATASIZE LT PUSH2 0xC1 JUMPI PUSH0 CALLDATALOAD PUSH1 0xE0 SHR DUP1 PUSH4 0x8BF972B2 GT PUSH2 0x7E JUMPI DUP1 PUSH4 0xA4E8AEB8 GT PUSH2 0x58 JUMPI DUP1 PUSH4 0xA4E8AEB8 EQ PUSH2 0x22B JUMPI DUP1 PUSH4 0xADBBE720 EQ PUSH2 0x255 JUMPI DUP1 PUSH4 0xB23FD3BD EQ PUSH2 0x27F JUMPI DUP1 PUSH4 0xB8621C7C EQ PUSH2 0x29B JUMPI PUSH2 0xC1 JUMP JUMPDEST DUP1 PUSH4 0x8BF972B2 EQ PUSH2 0x19B JUMPI DUP1 PUSH4 0x8DA5CB5B EQ PUSH2 0x1D7 JUMPI DUP1 PUSH4 0xA19CB8C3 EQ PUSH2 0x201 JUMPI PUSH2 0xC1 JUMP JUMPDEST DUP1 PUSH4 0x11973A23 EQ PUSH2 0xC5 JUMPI DUP1 PUSH4 0x34E7D146 EQ PUSH2 0xEF JUMPI DUP1 PUSH4 0x53321C88 EQ PUSH2 0x105 JUMPI DUP1 PUSH4 0x59AB0306 EQ PUSH2 0x12F JUMPI DUP1 PUSH4 0x838C7DD0 EQ PUSH2 0x157 JUMPI DUP1 PUSH4 0x89749ADB EQ PUSH2 0x17F JUMPI JUMPDEST PUSH0 PUSH0 REVERT JUMPDEST CALLVALUE DUP1 ISZERO PUSH2 0xD0 JUMPI PUSH0 PUSH0 REVERT JUMPDEST POP PUSH2 0xD9 PUSH2 0x2C5 JUMP JUMPDEST PUSH1 0x40 MLOAD PUSH2 0xE6 SWAP2 SWAP1 PUSH2 0xF83 JUMP JUMPDEST PUSH1 0x40 MLOAD DUP1 SWAP2 SUB SWAP1 RETURN JUMPDEST CALLVALUE DUP1 ISZERO PUSH2 0xFA JUMPI PUSH0 PUSH0 REVERT JUMPDEST POP PUSH2 0x103 PUSH2 0x384 JUMP JUMPDEST STOP JUMPDEST CALLVALUE DUP1 ISZERO PUSH2 0x110 JUMPI PUSH0 PUSH0 REVERT JUMPDEST POP PUSH2 0x119 PUSH2 0x5D2 JUMP JUMPDEST PUSH1 0x40 MLOAD PUSH2 0x126 SWAP2 SWAP1 PUSH2 0xF83 JUMP JUMPDEST PUSH1 0x40 MLOAD DUP1 SWAP2 SUB SWAP1 RETURN JUMPDEST CALLVALUE DUP1 ISZERO PUSH2 0x13A JUMPI PUSH0 PUSH0 REVERT JUMPDEST POP PUSH2 0x155 PUSH1 0x4 DUP1 CALLDATASIZE SUB DUP2 ADD SWAP1 PUSH2 0x150 SWAP2 SWAP1 PUSH2 0xFCA JUMP JUMPDEST PUSH2 0x5D8 JUMP JUMPDEST STOP JUMPDEST CALLVALUE DUP1 ISZERO PUSH2 0x162 JUMPI PUSH0 PUSH0 REVERT JUMPDEST POP PUSH2 0x17D PUSH1 0x4 DUP1 CALLDATASIZE SUB DUP2 ADD SWAP1 PUSH2 0x178 SWAP2 SWAP1 PUSH2 0xFCA JUMP JUMPDEST PUSH2 0x875 JUMP JUMPDEST STOP JUMPDEST PUSH2 0x199 PUSH1 0x4 DUP1 CALLDATASIZE SUB DUP2 ADD SWAP1 PUSH2 0x194 SWAP2 SWAP1 PUSH2 0xFCA JUMP JUMPDEST PUSH2 0x98F JUMP JUMPDEST STOP JUMPDEST CALLVALUE DUP1 ISZERO PUSH2 0x1A6 JUMPI PUSH0 PUSH0 REVERT JUMPDEST POP PUSH2 0x1C1 PUSH1 0x4 DUP1 CALLDATASIZE SUB DUP2 ADD SWAP1 PUSH2 0x1BC SWAP2 SWAP1 PUSH2 0xFCA JUMP JUMPDEST PUSH2 0xBC8 JUMP JUMPDEST PUSH1 0x40 MLOAD PUSH2 0x1CE SWAP2 SWAP1 PUSH2 0xF83 JUMP JUMPDEST PUSH1 0x40 MLOAD DUP1 SWAP2 SUB SWAP1 RETURN JUMPDEST CALLVALUE DUP1 ISZERO PUSH2 0x1E2 JUMPI PUSH0 PUSH0 REVERT JUMPDEST POP PUSH2 0x1EB PUSH2 0xBE4 JUMP JUMPDEST PUSH1 0x40 MLOAD PUSH2 0x1F8 SWAP2 SWAP1 PUSH2 0x1034 JUMP JUMPDEST PUSH1 0x40 MLOAD DUP1 SWAP2 SUB SWAP1 RETURN JUMPDEST CALLVALUE DUP1 ISZERO PUSH2 0x20C JUMPI PUSH0 PUSH0 REVERT JUMPDEST POP PUSH2 0x215 PUSH2 0xC09 JUMP JUMPDEST PUSH1 0x40 MLOAD PUSH2 0x222 SWAP2 SWAP1 PUSH2 0x1034 JUMP JUMPDEST PUSH1 0x40 MLOAD DUP1 SWAP2 SUB SWAP1 RETURN JUMPDEST CALLVALUE DUP1 ISZERO PUSH2 0x236 JUMPI PUSH0 PUSH0 REVERT JUMPDEST POP PUSH2 0x23F PUSH2 0xC2E JUMP JUMPDEST PUSH1 0x40 MLOAD PUSH2 0x24C SWAP2 SWAP1 PUSH2 0x1104 JUMP JUMPDEST PUSH1 0x40 MLOAD DUP1 SWAP2 SUB SWAP1 RETURN JUMPDEST CALLVALUE DUP1 ISZERO PUSH2 0x260 JUMPI PUSH0 PUSH0 REVERT JUMPDEST POP PUSH2 0x269 PUSH2 0xCBF JUMP JUMPDEST PUSH1 0x40 MLOAD PUSH2 0x276 SWAP2 SWAP1 PUSH2 0xF83 JUMP JUMPDEST PUSH1 0x40 MLOAD DUP1 SWAP2 SUB SWAP1 RETURN JUMPDEST PUSH2 0x299 PUSH1 0x4 DUP1 CALLDATASIZE SUB DUP2 ADD SWAP1 PUSH2 0x294 SWAP2 SWAP1 PUSH2 0xFCA JUMP JUMPDEST PUSH2 0xD5D JUMP JUMPDEST STOP JUMPDEST CALLVALUE DUP1 ISZERO PUSH2 0x2A6 JUMPI PUSH0 PUSH0 REVERT JUMPDEST POP PUSH2 0x2AF PUSH2 0xEAC JUMP JUMPDEST PUSH1 0x40 MLOAD PUSH2 0x2BC SWAP2 SWAP1 PUSH2 0xF83 JUMP JUMPDEST PUSH1 0x40 MLOAD DUP1 SWAP2 SUB SWAP1 RETURN JUMPDEST PUSH0 PUSH0 PUSH0 SWAP1 SLOAD SWAP1 PUSH2 0x100 EXP SWAP1 DIV PUSH20 0xFFFFFFFFFFFFFFFFFFFFFFFFFFFFFFFFFFFFFFFF AND PUSH20 0xFFFFFFFFFFFFFFFFFFFFFFFFFFFFFFFFFFFFFFFF AND PUSH4 0x70A08231 PUSH1 0x1 PUSH0 SWAP1 SLOAD SWAP1 PUSH2 0x100 EXP SWAP1 DIV PUSH20 0xFFFFFFFFFFFFFFFFFFFFFFFFFFFFFFFFFFFFFFFF AND PUSH1 0x40 MLOAD DUP3 PUSH4 0xFFFFFFFF AND PUSH1 0xE0 SHL DUP2 MSTORE PUSH1 0x4 ADD PUSH2 0x340 SWAP2 SWAP1 PUSH2 0x1034 JUMP JUMPDEST PUSH1 0x20 PUSH1 0x40 MLOAD DUP1 DUP4 SUB DUP2 DUP7 GAS STATICCALL ISZERO DUP1 ISZERO PUSH2 0x35B JUMPI RETURNDATASIZE PUSH0 PUSH0 RETURNDATACOPY RETURNDATASIZE PUSH0 REVERT JUMPDEST POP POP POP POP PUSH1 0x40 MLOAD RETURNDATASIZE PUSH1 0x1F NOT PUSH1 0x1F DUP3 ADD AND DUP3 ADD DUP1 PUSH1 0x40 MSTORE POP DUP2 ADD SWAP1 PUSH2 0x37F SWAP2 SWAP1 PUSH2 0x1138 JUMP JUMPDEST SWAP1 POP SWAP1 JUMP JUMPDEST CALLER PUSH1 0x1 PUSH0 SWAP1 SLOAD SWAP1 PUSH2 0x100 EXP SWAP1 DIV PUSH20 0xFFFFFFFFFFFFFFFFFFFFFFFFFFFFFFFFFFFFFFFF AND PUSH20 0xFFFFFFFFFFFFFFFFFFFFFFFFFFFFFFFFFFFFFFFF AND DUP2 PUSH20 0xFFFFFFFFFFFFFFFFFFFFFFFFFFFFFFFFFFFFFFFF AND EQ PUSH2 0x414 JUMPI PUSH1 0x40 MLOAD PUSH32 0x8C379A000000000000000000000000000000000000000000000000000000000 DUP2 MSTORE PUSH1 0x4 ADD PUSH2 0x40B SWAP1 PUSH2 0x11E3 JUMP JUMPDEST PUSH1 0x40 MLOAD DUP1 SWAP2 SUB SWAP1 REVERT JUMPDEST PUSH0 PUSH1 0x8 DUP1 SLOAD SWAP1 POP GT PUSH2 0x45B JUMPI PUSH1 0x40 MLOAD PUSH32 0x8C379A000000000000000000000000000000000000000000000000000000000 DUP2 MSTORE PUSH1 0x4 ADD PUSH2 0x452 SWAP1 PUSH2 0x124B JUMP JUMPDEST PUSH1 0x40 MLOAD DUP1 SWAP2 SUB SWAP1 REVERT JUMPDEST PUSH0 PUSH1 0x8 DUP1 SLOAD SWAP1 POP SWAP1 POP PUSH0 DUP2 TIMESTAMP PUSH1 0x40 MLOAD PUSH1 0x20 ADD PUSH2 0x477 SWAP2 SWAP1 PUSH2 0x1289 JUMP JUMPDEST PUSH1 0x40 MLOAD PUSH1 0x20 DUP2 DUP4 SUB SUB DUP2 MSTORE SWAP1 PUSH1 0x40 MSTORE DUP1 MLOAD SWAP1 PUSH1 0x20 ADD KECCAK256 PUSH0 SHR PUSH2 0x499 SWAP2 SWAP1 PUSH2 0x12D0 JUMP JUMPDEST SWAP1 POP PUSH0 PUSH1 0x8 DUP3 DUP2 SLOAD DUP2 LT PUSH2 0x4B0 JUMPI PUSH2 0x4AF PUSH2 0x1300 JUMP JUMPDEST JUMPDEST SWAP1 PUSH0 MSTORE PUSH1 0x20 PUSH0 KECCAK256 ADD SLOAD SWAP1 POP PUSH32 0x3B75DCA12AC0D72A73350CC1C2B6308D8BAC70BF669EB8C842806848B759C86C DUP2 PUSH1 0x40 MLOAD PUSH2 0x4EA SWAP2 SWAP1 PUSH2 0xF83 JUMP JUMPDEST PUSH1 0x40 MLOAD DUP1 SWAP2 SUB SWAP1 LOG1 PUSH0 PUSH1 0x6 PUSH0 DUP4 DUP2 MSTORE PUSH1 0x20 ADD SWAP1 DUP2 MSTORE PUSH1 0x20 ADD PUSH0 KECCAK256 PUSH0 SWAP1 SLOAD SWAP1 PUSH2 0x100 EXP SWAP1 DIV PUSH20 0xFFFFFFFFFFFFFFFFFFFFFFFFFFFFFFFFFFFFFFFF AND SWAP1 POP PUSH0 PUSH0 SWAP1 SLOAD SWAP1 PUSH2 0x100 EXP SWAP1 DIV PUSH20 0xFFFFFFFFFFFFFFFFFFFFFFFFFFFFFFFFFFFFFFFF AND PUSH20 0xFFFFFFFFFFFFFFFFFFFFFFFFFFFFFFFFFFFFFFFF AND PUSH4 0xD44237AA CALLER DUP4 PUSH2 0x56C PUSH2 0x2C5 JUMP JUMPDEST PUSH1 0x40 MLOAD DUP5 PUSH4 0xFFFFFFFF AND PUSH1 0xE0 SHL DUP2 MSTORE PUSH1 0x4 ADD PUSH2 0x58A SWAP4 SWAP3 SWAP2 SWAP1 PUSH2 0x132D JUMP JUMPDEST PUSH1 0x20 PUSH1 0x40 MLOAD DUP1 DUP4 SUB DUP2 PUSH0 DUP8 GAS CALL ISZERO DUP1 ISZERO PUSH2 0x5A6 JUMPI RETURNDATASIZE PUSH0 PUSH0 RETURNDATACOPY RETURNDATASIZE PUSH0 REVERT JUMPDEST POP POP POP POP PUSH1 0x40 MLOAD RETURNDATASIZE PUSH1 0x1F NOT PUSH1 0x1F DUP3 ADD AND DUP3 ADD DUP1 PUSH1 0x40 MSTORE POP DUP2 ADD SWAP1 PUSH2 0x5CA SWAP2 SWAP1 PUSH2 0x1397 JUMP JUMPDEST POP POP POP POP POP POP JUMP JUMPDEST PUSH1 0x4 SLOAD DUP2 JUMP JUMPDEST PUSH0 PUSH1 0x4 SLOAD DUP3 PUSH2 0x5E7 SWAP2 SWAP1 PUSH2 0x13EF JUMP JUMPDEST SWAP1 POP PUSH2 0x5F1 PUSH2 0xCBF JUMP JUMPDEST DUP2 GT ISZERO PUSH2 0x633 JUMPI PUSH1 0x40 MLOAD PUSH32 0x8C379A000000000000000000000000000000000000000000000000000000000 DUP2 MSTORE PUSH1 0x4 ADD PUSH2 0x62A SWAP1 PUSH2 0x14A0 JUMP JUMPDEST PUSH1 0x40 MLOAD DUP1 SWAP2 SUB SWAP1 REVERT JUMPDEST PUSH0 PUSH0 SWAP1 SLOAD SWAP1 PUSH2 0x100 EXP SWAP1 DIV PUSH20 0xFFFFFFFFFFFFFFFFFFFFFFFFFFFFFFFFFFFFFFFF AND PUSH20 0xFFFFFFFFFFFFFFFFFFFFFFFFFFFFFFFFFFFFFFFF AND PUSH4 0xD44237AA CALLER PUSH1 0x1 PUSH0 SWAP1 SLOAD SWAP1 PUSH2 0x100 EXP SWAP1 DIV PUSH20 0xFFFFFFFFFFFFFFFFFFFFFFFFFFFFFFFFFFFFFFFF AND DUP5 PUSH1 0x40 MLOAD DUP5 PUSH4 0xFFFFFFFF AND PUSH1 0xE0 SHL DUP2 MSTORE PUSH1 0x4 ADD PUSH2 0x6B1 SWAP4 SWAP3 SWAP2 SWAP1 PUSH2 0x132D JUMP JUMPDEST PUSH1 0x20 PUSH1 0x40 MLOAD DUP1 DUP4 SUB DUP2 PUSH0 DUP8 GAS CALL ISZERO DUP1 ISZERO PUSH2 0x6CD JUMPI RETURNDATASIZE PUSH0 PUSH0 RETURNDATACOPY RETURNDATASIZE PUSH0 REVERT JUMPDEST POP POP POP POP PUSH1 0x40 MLOAD RETURNDATASIZE PUSH1 0x1F NOT PUSH1 0x1F DUP3 ADD AND DUP3 ADD DUP1 PUSH1 0x40 MSTORE POP DUP2 ADD SWAP1 PUSH2 0x6F1 SWAP2 SWAP1 PUSH2 0x1397 JUMP JUMPDEST POP PUSH0 PUSH0 SWAP1 POP JUMPDEST DUP3 DUP2 LT ISZERO PUSH2 0x870 JUMPI PUSH0 PUSH1 0x3 SLOAD TIMESTAMP CALLER PUSH1 0x7 SLOAD PUSH1 0x40 MLOAD PUSH1 0x20 ADD PUSH2 0x71A SWAP4 SWAP3 SWAP2 SWAP1 PUSH2 0x1503 JUMP JUMPDEST PUSH1 0x40 MLOAD PUSH1 0x20 DUP2 DUP4 SUB SUB DUP2 MSTORE SWAP1 PUSH1 0x40 MSTORE DUP1 MLOAD SWAP1 PUSH1 0x20 ADD KECCAK256 PUSH0 SHR PUSH2 0x73C SWAP2 SWAP1 PUSH2 0x12D0 JUMP JUMPDEST SWAP1 POP PUSH1 0x7 PUSH0 DUP2 SLOAD DUP1 SWAP3 SWAP2 SWAP1 PUSH2 0x750 SWAP1 PUSH2 0x153F JUMP JUMPDEST SWAP2 SWAP1 POP SSTORE POP PUSH1 0x5 PUSH0 CALLER PUSH20 0xFFFFFFFFFFFFFFFFFFFFFFFFFFFFFFFFFFFFFFFF AND PUSH20 0xFFFFFFFFFFFFFFFFFFFFFFFFFFFFFFFFFFFFFFFF AND DUP2 MSTORE PUSH1 0x20 ADD SWAP1 DUP2 MSTORE PUSH1 0x20 ADD PUSH0 KECCAK256 DUP2 SWAP1 DUP1 PUSH1 0x1 DUP2 SLOAD ADD DUP1 DUP3 SSTORE DUP1 SWAP2 POP POP PUSH1 0x1 SWAP1 SUB SWAP1 PUSH0 MSTORE PUSH1 0x20 PUSH0 KECCAK256 ADD PUSH0 SWAP1 SWAP2 SWAP1 SWAP2 SWAP1 SWAP2 POP SSTORE PUSH1 0x8 DUP2 SWAP1 DUP1 PUSH1 0x1 DUP2 SLOAD ADD DUP1 DUP3 SSTORE DUP1 SWAP2 POP POP PUSH1 0x1 SWAP1 SUB SWAP1 PUSH0 MSTORE PUSH1 0x20 PUSH0 KECCAK256 ADD PUSH0 SWAP1 SWAP2 SWAP1 SWAP2 SWAP1 SWAP2 POP SSTORE CALLER PUSH1 0x6 PUSH0 DUP4 DUP2 MSTORE PUSH1 0x20 ADD SWAP1 DUP2 MSTORE PUSH1 0x20 ADD PUSH0 KECCAK256 PUSH0 PUSH2 0x100 EXP DUP2 SLOAD DUP2 PUSH20 0xFFFFFFFFFFFFFFFFFFFFFFFFFFFFFFFFFFFFFFFF MUL NOT AND SWAP1 DUP4 PUSH20 0xFFFFFFFFFFFFFFFFFFFFFFFFFFFFFFFFFFFFFFFF AND MUL OR SWAP1 SSTORE POP PUSH32 0xE0F5C745DE6637F5404AB23A3074A8A62A2285B098FF831750D40F08078A8E6 DUP2 PUSH1 0x40 MLOAD PUSH2 0x85A SWAP2 SWAP1 PUSH2 0xF83 JUMP JUMPDEST PUSH1 0x40 MLOAD DUP1 SWAP2 SUB SWAP1 LOG1 POP DUP1 DUP1 PUSH1 0x1 ADD SWAP2 POP POP PUSH2 0x6F7 JUMP JUMPDEST POP POP POP JUMP JUMPDEST CALLER PUSH1 0x1 PUSH0 SWAP1 SLOAD SWAP1 PUSH2 0x100 EXP SWAP1 DIV PUSH20 0xFFFFFFFFFFFFFFFFFFFFFFFFFFFFFFFFFFFFFFFF AND PUSH20 0xFFFFFFFFFFFFFFFFFFFFFFFFFFFFFFFFFFFFFFFF AND DUP2 PUSH20 0xFFFFFFFFFFFFFFFFFFFFFFFFFFFFFFFFFFFFFFFF AND EQ PUSH2 0x905 JUMPI PUSH1 0x40 MLOAD PUSH32 0x8C379A000000000000000000000000000000000000000000000000000000000 DUP2 MSTORE PUSH1 0x4 ADD PUSH2 0x8FC SWAP1 PUSH2 0x11E3 JUMP JUMPDEST PUSH1 0x40 MLOAD DUP1 SWAP2 SUB SWAP1 REVERT JUMPDEST PUSH0 PUSH0 SWAP1 SLOAD SWAP1 PUSH2 0x100 EXP SWAP1 DIV PUSH20 0xFFFFFFFFFFFFFFFFFFFFFFFFFFFFFFFFFFFFFFFF AND PUSH20 0xFFFFFFFFFFFFFFFFFFFFFFFFFFFFFFFFFFFFFFFF AND PUSH4 0x1D43CC98 DUP4 PUSH1 0x40 MLOAD DUP3 PUSH4 0xFFFFFFFF AND PUSH1 0xE0 SHL DUP2 MSTORE PUSH1 0x4 ADD PUSH2 0x95E SWAP2 SWAP1 PUSH2 0xF83 JUMP JUMPDEST PUSH0 PUSH1 0x40 MLOAD DUP1 DUP4 SUB DUP2 PUSH0 DUP8 DUP1 EXTCODESIZE ISZERO DUP1 ISZERO PUSH2 0x975 JUMPI PUSH0 PUSH0 REVERT JUMPDEST POP GAS CALL ISZERO DUP1 ISZERO PUSH2 0x987 JUMPI RETURNDATASIZE PUSH0 PUSH0 RETURNDATACOPY RETURNDATASIZE PUSH0 REVERT JUMPDEST POP POP POP POP POP POP JUMP JUMPDEST PUSH0 PUSH2 0x999 DUP3 PUSH2 0xBC8 JUMP JUMPDEST SWAP1 POP DUP1 CALLVALUE LT ISZERO PUSH2 0x9DE JUMPI PUSH1 0x40 MLOAD PUSH32 0x8C379A000000000000000000000000000000000000000000000000000000000 DUP2 MSTORE PUSH1 0x4 ADD PUSH2 0x9D5 SWAP1 PUSH2 0x15D0 JUMP JUMPDEST PUSH1 0x40 MLOAD DUP1 SWAP2 SUB SWAP1 REVERT JUMPDEST PUSH0 DUP2 CALLVALUE PUSH2 0x9EB SWAP2 SWAP1 PUSH2 0x15EE JUMP JUMPDEST SWAP1 POP PUSH0 DUP2 GT ISZERO PUSH2 0xA9F JUMPI PUSH0 CALLER PUSH20 0xFFFFFFFFFFFFFFFFFFFFFFFFFFFFFFFFFFFFFFFF AND DUP3 PUSH1 0x40 MLOAD PUSH2 0xA1A SWAP1 PUSH2 0x164E JUMP JUMPDEST PUSH0 PUSH1 0x40 MLOAD DUP1 DUP4 SUB DUP2 DUP6 DUP8 GAS CALL SWAP3 POP POP POP RETURNDATASIZE DUP1 PUSH0 DUP2 EQ PUSH2 0xA54 JUMPI PUSH1 0x40 MLOAD SWAP2 POP PUSH1 0x1F NOT PUSH1 0x3F RETURNDATASIZE ADD AND DUP3 ADD PUSH1 0x40 MSTORE RETURNDATASIZE DUP3 MSTORE RETURNDATASIZE PUSH0 PUSH1 0x20 DUP5 ADD RETURNDATACOPY PUSH2 0xA59 JUMP JUMPDEST PUSH1 0x60 SWAP2 POP JUMPDEST POP POP SWAP1 POP DUP1 PUSH2 0xA9D JUMPI PUSH1 0x40 MLOAD PUSH32 0x8C379A000000000000000000000000000000000000000000000000000000000 DUP2 MSTORE PUSH1 0x4 ADD PUSH2 0xA94 SWAP1 PUSH2 0x16AC JUMP JUMPDEST PUSH1 0x40 MLOAD DUP1 SWAP2 SUB SWAP1 REVERT JUMPDEST POP JUMPDEST PUSH0 PUSH2 0xAA8 PUSH2 0xEAC JUMP JUMPDEST SWAP1 POP DUP1 DUP5 GT ISZERO PUSH2 0xAED JUMPI PUSH1 0x40 MLOAD PUSH32 0x8C379A000000000000000000000000000000000000000000000000000000000 DUP2 MSTORE PUSH1 0x4 ADD PUSH2 0xAE4 SWAP1 PUSH2 0x14A0 JUMP JUMPDEST PUSH1 0x40 MLOAD DUP1 SWAP2 SUB SWAP1 REVERT JUMPDEST PUSH0 PUSH0 SWAP1 SLOAD SWAP1 PUSH2 0x100 EXP SWAP1 DIV PUSH20 0xFFFFFFFFFFFFFFFFFFFFFFFFFFFFFFFFFFFFFFFF AND PUSH20 0xFFFFFFFFFFFFFFFFFFFFFFFFFFFFFFFFFFFFFFFF AND PUSH4 0xA9059CBB CALLER DUP7 PUSH1 0x40 MLOAD DUP4 PUSH4 0xFFFFFFFF AND PUSH1 0xE0 SHL DUP2 MSTORE PUSH1 0x4 ADD PUSH2 0xB48 SWAP3 SWAP2 SWAP1 PUSH2 0x16CA JUMP JUMPDEST PUSH1 0x20 PUSH1 0x40 MLOAD DUP1 DUP4 SUB DUP2 PUSH0 DUP8 GAS CALL ISZERO DUP1 ISZERO PUSH2 0xB64 JUMPI RETURNDATASIZE PUSH0 PUSH0 RETURNDATACOPY RETURNDATASIZE PUSH0 REVERT JUMPDEST POP POP POP POP PUSH1 0x40 MLOAD RETURNDATASIZE PUSH1 0x1F NOT PUSH1 0x1F DUP3 ADD AND DUP3 ADD DUP1 PUSH1 0x40 MSTORE POP DUP2 ADD SWAP1 PUSH2 0xB88 SWAP2 SWAP1 PUSH2 0x1397 JUMP JUMPDEST POP PUSH32 0xCA73A6C98AB95630AA6925B7D7438FBB8E590211FE1911C531CB30155CF33D2D DUP5 CALLER PUSH1 0x40 MLOAD PUSH2 0xBBA SWAP3 SWAP2 SWAP1 PUSH2 0x16F1 JUMP JUMPDEST PUSH1 0x40 MLOAD DUP1 SWAP2 SUB SWAP1 LOG1 POP POP POP POP JUMP JUMPDEST PUSH0 PUSH8 0xDE0B6B3A7640000 DUP3 PUSH2 0xBDD SWAP2 SWAP1 PUSH2 0x13EF JUMP JUMPDEST SWAP1 POP SWAP2 SWAP1 POP JUMP JUMPDEST PUSH1 0x1 PUSH0 SWAP1 SLOAD SWAP1 PUSH2 0x100 EXP SWAP1 DIV PUSH20 0xFFFFFFFFFFFFFFFFFFFFFFFFFFFFFFFFFFFFFFFF AND DUP2 JUMP JUMPDEST PUSH1 0x2 PUSH0 SWAP1 SLOAD SWAP1 PUSH2 0x100 EXP SWAP1 DIV PUSH20 0xFFFFFFFFFFFFFFFFFFFFFFFFFFFFFFFFFFFFFFFF AND DUP2 JUMP JUMPDEST PUSH1 0x60 PUSH1 0x5 PUSH0 CALLER PUSH20 0xFFFFFFFFFFFFFFFFFFFFFFFFFFFFFFFFFFFFFFFF AND PUSH20 0xFFFFFFFFFFFFFFFFFFFFFFFFFFFFFFFFFFFFFFFF AND DUP2 MSTORE PUSH1 0x20 ADD SWAP1 DUP2 MSTORE PUSH1 0x20 ADD PUSH0 KECCAK256 DUP1 SLOAD DUP1 PUSH1 0x20 MUL PUSH1 0x20 ADD PUSH1 0x40 MLOAD SWAP1 DUP2 ADD PUSH1 0x40 MSTORE DUP1 SWAP3 SWAP2 SWAP1 DUP2 DUP2 MSTORE PUSH1 0x20 ADD DUP3 DUP1 SLOAD DUP1 ISZERO PUSH2 0xCB5 JUMPI PUSH1 0x20 MUL DUP3 ADD SWAP2 SWAP1 PUSH0 MSTORE PUSH1 0x20 PUSH0 KECCAK256 SWAP1 JUMPDEST DUP2 SLOAD DUP2 MSTORE PUSH1 0x20 ADD SWAP1 PUSH1 0x1 ADD SWAP1 DUP1 DUP4 GT PUSH2 0xCA1 JUMPI JUMPDEST POP POP POP POP POP SWAP1 POP SWAP1 JUMP JUMPDEST PUSH0 PUSH0 PUSH0 SWAP1 SLOAD SWAP1 PUSH2 0x100 EXP SWAP1 DIV PUSH20 0xFFFFFFFFFFFFFFFFFFFFFFFFFFFFFFFFFFFFFFFF AND PUSH20 0xFFFFFFFFFFFFFFFFFFFFFFFFFFFFFFFFFFFFFFFF AND PUSH4 0x70A08231 CALLER PUSH1 0x40 MLOAD DUP3 PUSH4 0xFFFFFFFF AND PUSH1 0xE0 SHL DUP2 MSTORE PUSH1 0x4 ADD PUSH2 0xD19 SWAP2 SWAP1 PUSH2 0x1034 JUMP JUMPDEST PUSH1 0x20 PUSH1 0x40 MLOAD DUP1 DUP4 SUB DUP2 DUP7 GAS STATICCALL ISZERO DUP1 ISZERO PUSH2 0xD34 JUMPI RETURNDATASIZE PUSH0 PUSH0 RETURNDATACOPY RETURNDATASIZE PUSH0 REVERT JUMPDEST POP POP POP POP PUSH1 0x40 MLOAD RETURNDATASIZE PUSH1 0x1F NOT PUSH1 0x1F DUP3 ADD AND DUP3 ADD DUP1 PUSH1 0x40 MSTORE POP DUP2 ADD SWAP1 PUSH2 0xD58 SWAP2 SWAP1 PUSH2 0x1138 JUMP JUMPDEST SWAP1 POP SWAP1 JUMP JUMPDEST PUSH0 DUP2 GT PUSH2 0xD9F JUMPI PUSH1 0x40 MLOAD PUSH32 0x8C379A000000000000000000000000000000000000000000000000000000000 DUP2 MSTORE PUSH1 0x4 ADD PUSH2 0xD96 SWAP1 PUSH2 0x1788 JUMP JUMPDEST PUSH1 0x40 MLOAD DUP1 SWAP2 SUB SWAP1 REVERT JUMPDEST PUSH2 0xDA7 PUSH2 0xCBF JUMP JUMPDEST DUP2 GT ISZERO PUSH2 0xDE9 JUMPI PUSH1 0x40 MLOAD PUSH32 0x8C379A000000000000000000000000000000000000000000000000000000000 DUP2 MSTORE PUSH1 0x4 ADD PUSH2 0xDE0 SWAP1 PUSH2 0x14A0 JUMP JUMPDEST PUSH1 0x40 MLOAD DUP1 SWAP2 SUB SWAP1 REVERT JUMPDEST PUSH0 PUSH0 SWAP1 SLOAD SWAP1 PUSH2 0x100 EXP SWAP1 DIV PUSH20 0xFFFFFFFFFFFFFFFFFFFFFFFFFFFFFFFFFFFFFFFF AND PUSH20 0xFFFFFFFFFFFFFFFFFFFFFFFFFFFFFFFFFFFFFFFF AND PUSH4 0xD44237AA CALLER ADDRESS DUP5 PUSH1 0x40 MLOAD DUP5 PUSH4 0xFFFFFFFF AND PUSH1 0xE0 SHL DUP2 MSTORE PUSH1 0x4 ADD PUSH2 0xE46 SWAP4 SWAP3 SWAP2 SWAP1 PUSH2 0x132D JUMP JUMPDEST PUSH1 0x20 PUSH1 0x40 MLOAD DUP1 DUP4 SUB DUP2 PUSH0 DUP8 GAS CALL ISZERO DUP1 ISZERO PUSH2 0xE62 JUMPI RETURNDATASIZE PUSH0 PUSH0 RETURNDATACOPY RETURNDATASIZE PUSH0 REVERT JUMPDEST POP POP POP POP PUSH1 0x40 MLOAD RETURNDATASIZE PUSH1 0x1F NOT PUSH1 0x1F DUP3 ADD AND DUP3 ADD DUP1 PUSH1 0x40 MSTORE POP DUP2 ADD SWAP1 PUSH2 0xE86 SWAP2 SWAP1 PUSH2 0x1397 JUMP JUMPDEST POP CALLER PUSH20 0xFFFFFFFFFFFFFFFFFFFFFFFFFFFFFFFFFFFFFFFF AND PUSH2 0xEA7 DUP3 PUSH2 0xBC8 JUMP JUMPDEST POP POP POP JUMP JUMPDEST PUSH0 PUSH0 PUSH0 SWAP1 SLOAD SWAP1 PUSH2 0x100 EXP SWAP1 DIV PUSH20 0xFFFFFFFFFFFFFFFFFFFFFFFFFFFFFFFFFFFFFFFF AND PUSH20 0xFFFFFFFFFFFFFFFFFFFFFFFFFFFFFFFFFFFFFFFF AND PUSH4 0x70A08231 PUSH1 0x2 PUSH0 SWAP1 SLOAD SWAP1 PUSH2 0x100 EXP SWAP1 DIV PUSH20 0xFFFFFFFFFFFFFFFFFFFFFFFFFFFFFFFFFFFFFFFF AND PUSH1 0x40 MLOAD DUP3 PUSH4 0xFFFFFFFF AND PUSH1 0xE0 SHL DUP2 MSTORE PUSH1 0x4 ADD PUSH2 0xF27 SWAP2 SWAP1 PUSH2 0x1034 JUMP JUMPDEST PUSH1 0x20 PUSH1 0x40 MLOAD DUP1 DUP4 SUB DUP2 DUP7 GAS STATICCALL ISZERO DUP1 ISZERO PUSH2 0xF42 JUMPI RETURNDATASIZE PUSH0 PUSH0 RETURNDATACOPY RETURNDATASIZE PUSH0 REVERT JUMPDEST POP POP POP POP PUSH1 0x40 MLOAD RETURNDATASIZE PUSH1 0x1F NOT PUSH1 0x1F DUP3 ADD AND DUP3 ADD DUP1 PUSH1 0x40 MSTORE POP DUP2 ADD SWAP1 PUSH2 0xF66 SWAP2 SWAP1 PUSH2 0x1138 JUMP JUMPDEST SWAP1 POP SWAP1 JUMP JUMPDEST PUSH0 DUP2 SWAP1 POP SWAP2 SWAP1 POP JUMP JUMPDEST PUSH2 0xF7D DUP2 PUSH2 0xF6B JUMP JUMPDEST DUP3 MSTORE POP POP JUMP JUMPDEST PUSH0 PUSH1 0x20 DUP3 ADD SWAP1 POP PUSH2 0xF96 PUSH0 DUP4 ADD DUP5 PUSH2 0xF74 JUMP JUMPDEST SWAP3 SWAP2 POP POP JUMP JUMPDEST PUSH0 PUSH0 REVERT JUMPDEST PUSH2 0xFA9 DUP2 PUSH2 0xF6B JUMP JUMPDEST DUP2 EQ PUSH2 0xFB3 JUMPI PUSH0 PUSH0 REVERT JUMPDEST POP JUMP JUMPDEST PUSH0 DUP2 CALLDATALOAD SWAP1 POP PUSH2 0xFC4 DUP2 PUSH2 0xFA0 JUMP JUMPDEST SWAP3 SWAP2 POP POP JUMP JUMPDEST PUSH0 PUSH1 0x20 DUP3 DUP5 SUB SLT ISZERO PUSH2 0xFDF JUMPI PUSH2 0xFDE PUSH2 0xF9C JUMP JUMPDEST JUMPDEST PUSH0 PUSH2 0xFEC DUP5 DUP3 DUP6 ADD PUSH2 0xFB6 JUMP JUMPDEST SWAP2 POP POP SWAP3 SWAP2 POP POP JUMP JUMPDEST PUSH0 PUSH20 0xFFFFFFFFFFFFFFFFFFFFFFFFFFFFFFFFFFFFFFFF DUP3 AND SWAP1 POP SWAP2 SWAP1 POP JUMP JUMPDEST PUSH0 PUSH2 0x101E DUP3 PUSH2 0xFF5 JUMP JUMPDEST SWAP1 POP SWAP2 SWAP1 POP JUMP JUMPDEST PUSH2 0x102E DUP2 PUSH2 0x1014 JUMP JUMPDEST DUP3 MSTORE POP POP JUMP JUMPDEST PUSH0 PUSH1 0x20 DUP3 ADD SWAP1 POP PUSH2 0x1047 PUSH0 DUP4 ADD DUP5 PUSH2 0x1025 JUMP JUMPDEST SWAP3 SWAP2 POP POP JUMP JUMPDEST PUSH0 DUP2 MLOAD SWAP1 POP SWAP2 SWAP1 POP JUMP JUMPDEST PUSH0 DUP3 DUP3 MSTORE PUSH1 0x20 DUP3 ADD SWAP1 POP SWAP3 SWAP2 POP POP JUMP JUMPDEST PUSH0 DUP2 SWAP1 POP PUSH1 0x20 DUP3 ADD SWAP1 POP SWAP2 SWAP1 POP JUMP JUMPDEST PUSH2 0x107F DUP2 PUSH2 0xF6B JUMP JUMPDEST DUP3 MSTORE POP POP JUMP JUMPDEST PUSH0 PUSH2 0x1090 DUP4 DUP4 PUSH2 0x1076 JUMP JUMPDEST PUSH1 0x20 DUP4 ADD SWAP1 POP SWAP3 SWAP2 POP POP JUMP JUMPDEST PUSH0 PUSH1 0x20 DUP3 ADD SWAP1 POP SWAP2 SWAP1 POP JUMP JUMPDEST PUSH0 PUSH2 0x10B2 DUP3 PUSH2 0x104D JUMP JUMPDEST PUSH2 0x10BC DUP2 DUP6 PUSH2 0x1057 JUMP JUMPDEST SWAP4 POP PUSH2 0x10C7 DUP4 PUSH2 0x1067 JUMP JUMPDEST DUP1 PUSH0 JUMPDEST DUP4 DUP2 LT ISZERO PUSH2 0x10F7 JUMPI DUP2 MLOAD PUSH2 0x10DE DUP9 DUP3 PUSH2 0x1085 JUMP JUMPDEST SWAP8 POP PUSH2 0x10E9 DUP4 PUSH2 0x109C JUMP JUMPDEST SWAP3 POP POP PUSH1 0x1 DUP2 ADD SWAP1 POP PUSH2 0x10CA JUMP JUMPDEST POP DUP6 SWAP4 POP POP POP POP SWAP3 SWAP2 POP POP JUMP JUMPDEST PUSH0 PUSH1 0x20 DUP3 ADD SWAP1 POP DUP2 DUP2 SUB PUSH0 DUP4 ADD MSTORE PUSH2 0x111C DUP2 DUP5 PUSH2 0x10A8 JUMP JUMPDEST SWAP1 POP SWAP3 SWAP2 POP POP JUMP JUMPDEST PUSH0 DUP2 MLOAD SWAP1 POP PUSH2 0x1132 DUP2 PUSH2 0xFA0 JUMP JUMPDEST SWAP3 SWAP2 POP POP JUMP JUMPDEST PUSH0 PUSH1 0x20 DUP3 DUP5 SUB SLT ISZERO PUSH2 0x114D JUMPI PUSH2 0x114C PUSH2 0xF9C JUMP JUMPDEST JUMPDEST PUSH0 PUSH2 0x115A DUP5 DUP3 DUP6 ADD PUSH2 0x1124 JUMP JUMPDEST SWAP2 POP POP SWAP3 SWAP2 POP POP JUMP JUMPDEST PUSH0 DUP3 DUP3 MSTORE PUSH1 0x20 DUP3 ADD SWAP1 POP SWAP3 SWAP2 POP POP JUMP JUMPDEST PUSH32 0x596F7520617265206E6F7420617574686F72697A656420746F20646F20746869 PUSH0 DUP3 ADD MSTORE PUSH32 0x7300000000000000000000000000000000000000000000000000000000000000 PUSH1 0x20 DUP3 ADD MSTORE POP JUMP JUMPDEST PUSH0 PUSH2 0x11CD PUSH1 0x21 DUP4 PUSH2 0x1163 JUMP JUMPDEST SWAP2 POP PUSH2 0x11D8 DUP3 PUSH2 0x1173 JUMP JUMPDEST PUSH1 0x40 DUP3 ADD SWAP1 POP SWAP2 SWAP1 POP JUMP JUMPDEST PUSH0 PUSH1 0x20 DUP3 ADD SWAP1 POP DUP2 DUP2 SUB PUSH0 DUP4 ADD MSTORE PUSH2 0x11FA DUP2 PUSH2 0x11C1 JUMP JUMPDEST SWAP1 POP SWAP2 SWAP1 POP JUMP JUMPDEST PUSH32 0x4E6F207469636B65747320707572636861736564207965742100000000000000 PUSH0 DUP3 ADD MSTORE POP JUMP JUMPDEST PUSH0 PUSH2 0x1235 PUSH1 0x19 DUP4 PUSH2 0x1163 JUMP JUMPDEST SWAP2 POP PUSH2 0x1240 DUP3 PUSH2 0x1201 JUMP JUMPDEST PUSH1 0x20 DUP3 ADD SWAP1 POP SWAP2 SWAP1 POP JUMP JUMPDEST PUSH0 PUSH1 0x20 DUP3 ADD SWAP1 POP DUP2 DUP2 SUB PUSH0 DUP4 ADD MSTORE PUSH2 0x1262 DUP2 PUSH2 0x1229 JUMP JUMPDEST SWAP1 POP SWAP2 SWAP1 POP JUMP JUMPDEST PUSH0 DUP2 SWAP1 POP SWAP2 SWAP1 POP JUMP JUMPDEST PUSH2 0x1283 PUSH2 0x127E DUP3 PUSH2 0xF6B JUMP JUMPDEST PUSH2 0x1269 JUMP JUMPDEST DUP3 MSTORE POP POP JUMP JUMPDEST PUSH0 PUSH2 0x1294 DUP3 DUP5 PUSH2 0x1272 JUMP JUMPDEST PUSH1 0x20 DUP3 ADD SWAP2 POP DUP2 SWAP1 POP SWAP3 SWAP2 POP POP JUMP JUMPDEST PUSH32 0x4E487B7100000000000000000000000000000000000000000000000000000000 PUSH0 MSTORE PUSH1 0x12 PUSH1 0x4 MSTORE PUSH1 0x24 PUSH0 REVERT JUMPDEST PUSH0 PUSH2 0x12DA DUP3 PUSH2 0xF6B JUMP JUMPDEST SWAP2 POP PUSH2 0x12E5 DUP4 PUSH2 0xF6B JUMP JUMPDEST SWAP3 POP DUP3 PUSH2 0x12F5 JUMPI PUSH2 0x12F4 PUSH2 0x12A3 JUMP JUMPDEST JUMPDEST DUP3 DUP3 MOD SWAP1 POP SWAP3 SWAP2 POP POP JUMP JUMPDEST PUSH32 0x4E487B7100000000000000000000000000000000000000000000000000000000 PUSH0 MSTORE PUSH1 0x32 PUSH1 0x4 MSTORE PUSH1 0x24 PUSH0 REVERT JUMPDEST PUSH0 PUSH1 0x60 DUP3 ADD SWAP1 POP PUSH2 0x1340 PUSH0 DUP4 ADD DUP7 PUSH2 0x1025 JUMP JUMPDEST PUSH2 0x134D PUSH1 0x20 DUP4 ADD DUP6 PUSH2 0x1025 JUMP JUMPDEST PUSH2 0x135A PUSH1 0x40 DUP4 ADD DUP5 PUSH2 0xF74 JUMP JUMPDEST SWAP5 SWAP4 POP POP POP POP JUMP JUMPDEST PUSH0 DUP2 ISZERO ISZERO SWAP1 POP SWAP2 SWAP1 POP JUMP JUMPDEST PUSH2 0x1376 DUP2 PUSH2 0x1362 JUMP JUMPDEST DUP2 EQ PUSH2 0x1380 JUMPI PUSH0 PUSH0 REVERT JUMPDEST POP JUMP JUMPDEST PUSH0 DUP2 MLOAD SWAP1 POP PUSH2 0x1391 DUP2 PUSH2 0x136D JUMP JUMPDEST SWAP3 SWAP2 POP POP JUMP JUMPDEST PUSH0 PUSH1 0x20 DUP3 DUP5 SUB SLT ISZERO PUSH2 0x13AC JUMPI PUSH2 0x13AB PUSH2 0xF9C JUMP JUMPDEST JUMPDEST PUSH0 PUSH2 0x13B9 DUP5 DUP3 DUP6 ADD PUSH2 0x1383 JUMP JUMPDEST SWAP2 POP POP SWAP3 SWAP2 POP POP JUMP JUMPDEST PUSH32 0x4E487B7100000000000000000000000000000000000000000000000000000000 PUSH0 MSTORE PUSH1 0x11 PUSH1 0x4 MSTORE PUSH1 0x24 PUSH0 REVERT JUMPDEST PUSH0 PUSH2 0x13F9 DUP3 PUSH2 0xF6B JUMP JUMPDEST SWAP2 POP PUSH2 0x1404 DUP4 PUSH2 0xF6B JUMP JUMPDEST SWAP3 POP DUP3 DUP3 MUL PUSH2 0x1412 DUP2 PUSH2 0xF6B JUMP JUMPDEST SWAP2 POP DUP3 DUP3 DIV DUP5 EQ DUP4 ISZERO OR PUSH2 0x1429 JUMPI PUSH2 0x1428 PUSH2 0x13C2 JUMP JUMPDEST JUMPDEST POP SWAP3 SWAP2 POP POP JUMP JUMPDEST PUSH32 0x4E6F7420656E6F75676820746F6B656E7320617661696C61626C6520666F7220 PUSH0 DUP3 ADD MSTORE PUSH32 0x73616C6500000000000000000000000000000000000000000000000000000000 PUSH1 0x20 DUP3 ADD MSTORE POP JUMP JUMPDEST PUSH0 PUSH2 0x148A PUSH1 0x24 DUP4 PUSH2 0x1163 JUMP JUMPDEST SWAP2 POP PUSH2 0x1495 DUP3 PUSH2 0x1430 JUMP JUMPDEST PUSH1 0x40 DUP3 ADD SWAP1 POP SWAP2 SWAP1 POP JUMP JUMPDEST PUSH0 PUSH1 0x20 DUP3 ADD SWAP1 POP DUP2 DUP2 SUB PUSH0 DUP4 ADD MSTORE PUSH2 0x14B7 DUP2 PUSH2 0x147E JUMP JUMPDEST SWAP1 POP SWAP2 SWAP1 POP JUMP JUMPDEST PUSH0 DUP2 PUSH1 0x60 SHL SWAP1 POP SWAP2 SWAP1 POP JUMP JUMPDEST PUSH0 PUSH2 0x14D4 DUP3 PUSH2 0x14BE JUMP JUMPDEST SWAP1 POP SWAP2 SWAP1 POP JUMP JUMPDEST PUSH0 PUSH2 0x14E5 DUP3 PUSH2 0x14CA JUMP JUMPDEST SWAP1 POP SWAP2 SWAP1 POP JUMP JUMPDEST PUSH2 0x14FD PUSH2 0x14F8 DUP3 PUSH2 0x1014 JUMP JUMPDEST PUSH2 0x14DB JUMP JUMPDEST DUP3 MSTORE POP POP JUMP JUMPDEST PUSH0 PUSH2 0x150E DUP3 DUP7 PUSH2 0x1272 JUMP JUMPDEST PUSH1 0x20 DUP3 ADD SWAP2 POP PUSH2 0x151E DUP3 DUP6 PUSH2 0x14EC JUMP JUMPDEST PUSH1 0x14 DUP3 ADD SWAP2 POP PUSH2 0x152E DUP3 DUP5 PUSH2 0x1272 JUMP JUMPDEST PUSH1 0x20 DUP3 ADD SWAP2 POP DUP2 SWAP1 POP SWAP5 SWAP4 POP POP POP POP JUMP JUMPDEST PUSH0 PUSH2 0x1549 DUP3 PUSH2 0xF6B JUMP JUMPDEST SWAP2 POP PUSH32 0xFFFFFFFFFFFFFFFFFFFFFFFFFFFFFFFFFFFFFFFFFFFFFFFFFFFFFFFFFFFFFFFF DUP3 SUB PUSH2 0x157B JUMPI PUSH2 0x157A PUSH2 0x13C2 JUMP JUMPDEST JUMPDEST PUSH1 0x1 DUP3 ADD SWAP1 POP SWAP2 SWAP1 POP JUMP JUMPDEST PUSH32 0x4E6F7420656E6F75676820657468657200000000000000000000000000000000 PUSH0 DUP3 ADD MSTORE POP JUMP JUMPDEST PUSH0 PUSH2 0x15BA PUSH1 0x10 DUP4 PUSH2 0x1163 JUMP JUMPDEST SWAP2 POP PUSH2 0x15C5 DUP3 PUSH2 0x1586 JUMP JUMPDEST PUSH1 0x20 DUP3 ADD SWAP1 POP SWAP2 SWAP1 POP JUMP JUMPDEST PUSH0 PUSH1 0x20 DUP3 ADD SWAP1 POP DUP2 DUP2 SUB PUSH0 DUP4 ADD MSTORE PUSH2 0x15E7 DUP2 PUSH2 0x15AE JUMP JUMPDEST SWAP1 POP SWAP2 SWAP1 POP JUMP JUMPDEST PUSH0 PUSH2 0x15F8 DUP3 PUSH2 0xF6B JUMP JUMPDEST SWAP2 POP PUSH2 0x1603 DUP4 PUSH2 0xF6B JUMP JUMPDEST SWAP3 POP DUP3 DUP3 SUB SWAP1 POP DUP2 DUP2 GT ISZERO PUSH2 0x161B JUMPI PUSH2 0x161A PUSH2 0x13C2 JUMP JUMPDEST JUMPDEST SWAP3 SWAP2 POP POP JUMP JUMPDEST PUSH0 DUP2 SWAP1 POP SWAP3 SWAP2 POP POP JUMP JUMPDEST POP JUMP JUMPDEST PUSH0 PUSH2 0x1639 PUSH0 DUP4 PUSH2 0x1621 JUMP JUMPDEST SWAP2 POP PUSH2 0x1644 DUP3 PUSH2 0x162B JUMP JUMPDEST PUSH0 DUP3 ADD SWAP1 POP SWAP2 SWAP1 POP JUMP JUMPDEST PUSH0 PUSH2 0x1658 DUP3 PUSH2 0x162E JUMP JUMPDEST SWAP2 POP DUP2 SWAP1 POP SWAP2 SWAP1 POP JUMP JUMPDEST PUSH32 0x526566756E64206661696C656400000000000000000000000000000000000000 PUSH0 DUP3 ADD MSTORE POP JUMP JUMPDEST PUSH0 PUSH2 0x1696 PUSH1 0xD DUP4 PUSH2 0x1163 JUMP JUMPDEST SWAP2 POP PUSH2 0x16A1 DUP3 PUSH2 0x1662 JUMP JUMPDEST PUSH1 0x20 DUP3 ADD SWAP1 POP SWAP2 SWAP1 POP JUMP JUMPDEST PUSH0 PUSH1 0x20 DUP3 ADD SWAP1 POP DUP2 DUP2 SUB PUSH0 DUP4 ADD MSTORE PUSH2 0x16C3 DUP2 PUSH2 0x168A JUMP JUMPDEST SWAP1 POP SWAP2 SWAP1 POP JUMP JUMPDEST PUSH0 PUSH1 0x40 DUP3 ADD SWAP1 POP PUSH2 0x16DD PUSH0 DUP4 ADD DUP6 PUSH2 0x1025 JUMP JUMPDEST PUSH2 0x16EA PUSH1 0x20 DUP4 ADD DUP5 PUSH2 0xF74 JUMP JUMPDEST SWAP4 SWAP3 POP POP POP JUMP JUMPDEST PUSH0 PUSH1 0x40 DUP3 ADD SWAP1 POP PUSH2 0x1704 PUSH0 DUP4 ADD DUP6 PUSH2 0xF74 JUMP JUMPDEST PUSH2 0x1711 PUSH1 0x20 DUP4 ADD DUP5 PUSH2 0x1025 JUMP JUMPDEST SWAP4 SWAP3 POP POP POP JUMP JUMPDEST PUSH32 0x4D757374206265206174206C65617374203120746F6B656E20666F7220746869 PUSH0 DUP3 ADD MSTORE PUSH32 0x73207472616E73616374696F6E21000000000000000000000000000000000000 PUSH1 0x20 DUP3 ADD MSTORE POP JUMP JUMPDEST PUSH0 PUSH2 0x1772 PUSH1 0x2E DUP4 PUSH2 0x1163 JUMP JUMPDEST SWAP2 POP PUSH2 0x177D DUP3 PUSH2 0x1718 JUMP JUMPDEST PUSH1 0x40 DUP3 ADD SWAP1 POP SWAP2 SWAP1 POP JUMP JUMPDEST PUSH0 PUSH1 0x20 DUP3 ADD SWAP1 POP DUP2 DUP2 SUB PUSH0 DUP4 ADD MSTORE PUSH2 0x179F DUP2 PUSH2 0x1766 JUMP JUMPDEST SWAP1 POP SWAP2 SWAP1 POP JUMP INVALID LOG2 PUSH5 0x6970667358 0x22 SLT KECCAK256 PUSH29 0x54E255928C8AD9E3C1FE9C6B7F38F058D4AAC4AA4C53AAFFA5F0D67672 0xD LOG3 PUSH5 0x736F6C6343 STOP ADDMOD 0x1E STOP CALLER PUSH1 0x80 PUSH1 0x40 MSTORE CALLVALUE DUP1 ISZERO PUSH1 0xE JUMPI PUSH0 PUSH0 REVERT JUMPDEST POP PUSH1 0x40 MLOAD PUSH2 0x11E0 CODESIZE SUB DUP1 PUSH2 0x11E0 DUP4 CODECOPY DUP2 DUP2 ADD PUSH1 0x40 MSTORE DUP2 ADD SWAP1 PUSH1 0x2E SWAP2 SWAP1 PUSH1 0xAF JUMP JUMPDEST DUP1 PUSH1 0x2 DUP2 SWAP1 SSTORE POP PUSH1 0x2 SLOAD PUSH0 PUSH0 CALLER PUSH20 0xFFFFFFFFFFFFFFFFFFFFFFFFFFFFFFFFFFFFFFFF AND PUSH20 0xFFFFFFFFFFFFFFFFFFFFFFFFFFFFFFFFFFFFFFFF AND DUP2 MSTORE PUSH1 0x20 ADD SWAP1 DUP2 MSTORE PUSH1 0x20 ADD PUSH0 KECCAK256 DUP2 SWAP1 SSTORE POP POP PUSH1 0xD5 JUMP JUMPDEST PUSH0 PUSH0 REVERT JUMPDEST PUSH0 DUP2 SWAP1 POP SWAP2 SWAP1 POP JUMP JUMPDEST PUSH1 0x91 DUP2 PUSH1 0x81 JUMP JUMPDEST DUP2 EQ PUSH1 0x9A JUMPI PUSH0 PUSH0 REVERT JUMPDEST POP JUMP JUMPDEST PUSH0 DUP2 MLOAD SWAP1 POP PUSH1 0xA9 DUP2 PUSH1 0x8A JUMP JUMPDEST SWAP3 SWAP2 POP POP JUMP JUMPDEST PUSH0 PUSH1 0x20 DUP3 DUP5 SUB SLT ISZERO PUSH1 0xC1 JUMPI PUSH1 0xC0 PUSH1 0x7D JUMP JUMPDEST JUMPDEST PUSH0 PUSH1 0xCC DUP5 DUP3 DUP6 ADD PUSH1 0x9D JUMP JUMPDEST SWAP2 POP POP SWAP3 SWAP2 POP POP JUMP JUMPDEST PUSH2 0x10FE DUP1 PUSH2 0xE2 PUSH0 CODECOPY PUSH0 RETURN INVALID PUSH1 0x80 PUSH1 0x40 MSTORE CALLVALUE DUP1 ISZERO PUSH2 0xF JUMPI PUSH0 PUSH0 REVERT JUMPDEST POP PUSH1 0x4 CALLDATASIZE LT PUSH2 0xA7 JUMPI PUSH0 CALLDATALOAD PUSH1 0xE0 SHR DUP1 PUSH4 0x313CE567 GT PUSH2 0x6F JUMPI DUP1 PUSH4 0x313CE567 EQ PUSH2 0x163 JUMPI DUP1 PUSH4 0x70A08231 EQ PUSH2 0x181 JUMPI DUP1 PUSH4 0x95D89B41 EQ PUSH2 0x1B1 JUMPI DUP1 PUSH4 0xA9059CBB EQ PUSH2 0x1CF JUMPI DUP1 PUSH4 0xD44237AA EQ PUSH2 0x1FF JUMPI DUP1 PUSH4 0xDD62ED3E EQ PUSH2 0x22F JUMPI PUSH2 0xA7 JUMP JUMPDEST DUP1 PUSH4 0x6FDDE03 EQ PUSH2 0xAB JUMPI DUP1 PUSH4 0x95EA7B3 EQ PUSH2 0xC9 JUMPI DUP1 PUSH4 0x18160DDD EQ PUSH2 0xF9 JUMPI DUP1 PUSH4 0x1D43CC98 EQ PUSH2 0x117 JUMPI DUP1 PUSH4 0x23B872DD EQ PUSH2 0x133 JUMPI JUMPDEST PUSH0 PUSH0 REVERT JUMPDEST PUSH2 0xB3 PUSH2 0x25F JUMP JUMPDEST PUSH1 0x40 MLOAD PUSH2 0xC0 SWAP2 SWAP1 PUSH2 0xD3E JUMP JUMPDEST PUSH1 0x40 MLOAD DUP1 SWAP2 SUB SWAP1 RETURN JUMPDEST PUSH2 0xE3 PUSH1 0x4 DUP1 CALLDATASIZE SUB DUP2 ADD SWAP1 PUSH2 0xDE SWAP2 SWAP1 PUSH2 0xDEF JUMP JUMPDEST PUSH2 0x298 JUMP JUMPDEST PUSH1 0x40 MLOAD PUSH2 0xF0 SWAP2 SWAP1 PUSH2 0xE47 JUMP JUMPDEST PUSH1 0x40 MLOAD DUP1 SWAP2 SUB SWAP1 RETURN JUMPDEST PUSH2 0x101 PUSH2 0x385 JUMP JUMPDEST PUSH1 0x40 MLOAD PUSH2 0x10E SWAP2 SWAP1 PUSH2 0xE6F JUMP JUMPDEST PUSH1 0x40 MLOAD DUP1 SWAP2 SUB SWAP1 RETURN JUMPDEST PUSH2 0x131 PUSH1 0x4 DUP1 CALLDATASIZE SUB DUP2 ADD SWAP1 PUSH2 0x12C SWAP2 SWAP1 PUSH2 0xE88 JUMP JUMPDEST PUSH2 0x38E JUMP JUMPDEST STOP JUMPDEST PUSH2 0x14D PUSH1 0x4 DUP1 CALLDATASIZE SUB DUP2 ADD SWAP1 PUSH2 0x148 SWAP2 SWAP1 PUSH2 0xEB3 JUMP JUMPDEST PUSH2 0x3FB JUMP JUMPDEST PUSH1 0x40 MLOAD PUSH2 0x15A SWAP2 SWAP1 PUSH2 0xE47 JUMP JUMPDEST PUSH1 0x40 MLOAD DUP1 SWAP2 SUB SWAP1 RETURN JUMPDEST PUSH2 0x16B PUSH2 0x75D JUMP JUMPDEST PUSH1 0x40 MLOAD PUSH2 0x178 SWAP2 SWAP1 PUSH2 0xF1E JUMP JUMPDEST PUSH1 0x40 MLOAD DUP1 SWAP2 SUB SWAP1 RETURN JUMPDEST PUSH2 0x19B PUSH1 0x4 DUP1 CALLDATASIZE SUB DUP2 ADD SWAP1 PUSH2 0x196 SWAP2 SWAP1 PUSH2 0xF37 JUMP JUMPDEST PUSH2 0x762 JUMP JUMPDEST PUSH1 0x40 MLOAD PUSH2 0x1A8 SWAP2 SWAP1 PUSH2 0xE6F JUMP JUMPDEST PUSH1 0x40 MLOAD DUP1 SWAP2 SUB SWAP1 RETURN JUMPDEST PUSH2 0x1B9 PUSH2 0x7A7 JUMP JUMPDEST PUSH1 0x40 MLOAD PUSH2 0x1C6 SWAP2 SWAP1 PUSH2 0xD3E JUMP JUMPDEST PUSH1 0x40 MLOAD DUP1 SWAP2 SUB SWAP1 RETURN JUMPDEST PUSH2 0x1E9 PUSH1 0x4 DUP1 CALLDATASIZE SUB DUP2 ADD SWAP1 PUSH2 0x1E4 SWAP2 SWAP1 PUSH2 0xDEF JUMP JUMPDEST PUSH2 0x7E0 JUMP JUMPDEST PUSH1 0x40 MLOAD PUSH2 0x1F6 SWAP2 SWAP1 PUSH2 0xE47 JUMP JUMPDEST PUSH1 0x40 MLOAD DUP1 SWAP2 SUB SWAP1 RETURN JUMPDEST PUSH2 0x219 PUSH1 0x4 DUP1 CALLDATASIZE SUB DUP2 ADD SWAP1 PUSH2 0x214 SWAP2 SWAP1 PUSH2 0xEB3 JUMP JUMPDEST PUSH2 0x9ED JUMP JUMPDEST PUSH1 0x40 MLOAD PUSH2 0x226 SWAP2 SWAP1 PUSH2 0xE47 JUMP JUMPDEST PUSH1 0x40 MLOAD DUP1 SWAP2 SUB SWAP1 RETURN JUMPDEST PUSH2 0x249 PUSH1 0x4 DUP1 CALLDATASIZE SUB DUP2 ADD SWAP1 PUSH2 0x244 SWAP2 SWAP1 PUSH2 0xF62 JUMP JUMPDEST PUSH2 0xBFB JUMP JUMPDEST PUSH1 0x40 MLOAD PUSH2 0x256 SWAP2 SWAP1 PUSH2 0xE6F JUMP JUMPDEST PUSH1 0x40 MLOAD DUP1 SWAP2 SUB SWAP1 RETURN JUMPDEST PUSH1 0x40 MLOAD DUP1 PUSH1 0x40 ADD PUSH1 0x40 MSTORE DUP1 PUSH1 0xF DUP2 MSTORE PUSH1 0x20 ADD PUSH32 0x45524332304A6F737565436861696E0000000000000000000000000000000000 DUP2 MSTORE POP DUP2 JUMP JUMPDEST PUSH0 DUP2 PUSH1 0x1 PUSH0 CALLER PUSH20 0xFFFFFFFFFFFFFFFFFFFFFFFFFFFFFFFFFFFFFFFF AND PUSH20 0xFFFFFFFFFFFFFFFFFFFFFFFFFFFFFFFFFFFFFFFF AND DUP2 MSTORE PUSH1 0x20 ADD SWAP1 DUP2 MSTORE PUSH1 0x20 ADD PUSH0 KECCAK256 PUSH0 DUP6 PUSH20 0xFFFFFFFFFFFFFFFFFFFFFFFFFFFFFFFFFFFFFFFF AND PUSH20 0xFFFFFFFFFFFFFFFFFFFFFFFFFFFFFFFFFFFFFFFF AND DUP2 MSTORE PUSH1 0x20 ADD SWAP1 DUP2 MSTORE PUSH1 0x20 ADD PUSH0 KECCAK256 DUP2 SWAP1 SSTORE POP DUP3 PUSH20 0xFFFFFFFFFFFFFFFFFFFFFFFFFFFFFFFFFFFFFFFF AND CALLER PUSH20 0xFFFFFFFFFFFFFFFFFFFFFFFFFFFFFFFFFFFFFFFF AND PUSH32 0xD04C27822ED43674489D02367B63F0C5D0B6B232088B6515B73D546217B3457D DUP5 PUSH1 0x40 MLOAD PUSH2 0x373 SWAP2 SWAP1 PUSH2 0xE6F JUMP JUMPDEST PUSH1 0x40 MLOAD DUP1 SWAP2 SUB SWAP1 LOG3 PUSH1 0x1 SWAP1 POP SWAP3 SWAP2 POP POP JUMP JUMPDEST PUSH0 PUSH1 0x2 SLOAD SWAP1 POP SWAP1 JUMP JUMPDEST DUP1 PUSH1 0x2 PUSH0 DUP3 DUP3 SLOAD PUSH2 0x39F SWAP2 SWAP1 PUSH2 0xFCD JUMP JUMPDEST SWAP3 POP POP DUP2 SWAP1 SSTORE POP DUP1 PUSH0 PUSH0 CALLER PUSH20 0xFFFFFFFFFFFFFFFFFFFFFFFFFFFFFFFFFFFFFFFF AND PUSH20 0xFFFFFFFFFFFFFFFFFFFFFFFFFFFFFFFFFFFFFFFF AND DUP2 MSTORE PUSH1 0x20 ADD SWAP1 DUP2 MSTORE PUSH1 0x20 ADD PUSH0 KECCAK256 PUSH0 DUP3 DUP3 SLOAD PUSH2 0x3F1 SWAP2 SWAP1 PUSH2 0xFCD JUMP JUMPDEST SWAP3 POP POP DUP2 SWAP1 SSTORE POP POP JUMP JUMPDEST PUSH0 PUSH0 PUSH0 DUP6 PUSH20 0xFFFFFFFFFFFFFFFFFFFFFFFFFFFFFFFFFFFFFFFF AND PUSH20 0xFFFFFFFFFFFFFFFFFFFFFFFFFFFFFFFFFFFFFFFF AND DUP2 MSTORE PUSH1 0x20 ADD SWAP1 DUP2 MSTORE PUSH1 0x20 ADD PUSH0 KECCAK256 SLOAD DUP3 GT ISZERO PUSH2 0x444 JUMPI PUSH0 PUSH0 REVERT JUMPDEST PUSH1 0x1 PUSH0 DUP6 PUSH20 0xFFFFFFFFFFFFFFFFFFFFFFFFFFFFFFFFFFFFFFFF AND PUSH20 0xFFFFFFFFFFFFFFFFFFFFFFFFFFFFFFFFFFFFFFFF AND DUP2 MSTORE PUSH1 0x20 ADD SWAP1 DUP2 MSTORE PUSH1 0x20 ADD PUSH0 KECCAK256 PUSH0 CALLER PUSH20 0xFFFFFFFFFFFFFFFFFFFFFFFFFFFFFFFFFFFFFFFF AND PUSH20 0xFFFFFFFFFFFFFFFFFFFFFFFFFFFFFFFFFFFFFFFF AND DUP2 MSTORE PUSH1 0x20 ADD SWAP1 DUP2 MSTORE PUSH1 0x20 ADD PUSH0 KECCAK256 SLOAD DUP3 GT ISZERO PUSH2 0x4C8 JUMPI PUSH0 PUSH0 REVERT JUMPDEST PUSH2 0x517 DUP3 PUSH0 PUSH0 DUP8 PUSH20 0xFFFFFFFFFFFFFFFFFFFFFFFFFFFFFFFFFFFFFFFF AND PUSH20 0xFFFFFFFFFFFFFFFFFFFFFFFFFFFFFFFFFFFFFFFF AND DUP2 MSTORE PUSH1 0x20 ADD SWAP1 DUP2 MSTORE PUSH1 0x20 ADD PUSH0 KECCAK256 SLOAD PUSH2 0xC7D SWAP1 SWAP2 SWAP1 PUSH4 0xFFFFFFFF AND JUMP JUMPDEST PUSH0 PUSH0 DUP7 PUSH20 0xFFFFFFFFFFFFFFFFFFFFFFFFFFFFFFFFFFFFFFFF AND PUSH20 0xFFFFFFFFFFFFFFFFFFFFFFFFFFFFFFFFFFFFFFFF AND DUP2 MSTORE PUSH1 0x20 ADD SWAP1 DUP2 MSTORE PUSH1 0x20 ADD PUSH0 KECCAK256 DUP2 SWAP1 SSTORE POP PUSH2 0x5E2 DUP3 PUSH1 0x1 PUSH0 DUP8 PUSH20 0xFFFFFFFFFFFFFFFFFFFFFFFFFFFFFFFFFFFFFFFF AND PUSH20 0xFFFFFFFFFFFFFFFFFFFFFFFFFFFFFFFFFFFFFFFF AND DUP2 MSTORE PUSH1 0x20 ADD SWAP1 DUP2 MSTORE PUSH1 0x20 ADD PUSH0 KECCAK256 PUSH0 CALLER PUSH20 0xFFFFFFFFFFFFFFFFFFFFFFFFFFFFFFFFFFFFFFFF AND PUSH20 0xFFFFFFFFFFFFFFFFFFFFFFFFFFFFFFFFFFFFFFFF AND DUP2 MSTORE PUSH1 0x20 ADD SWAP1 DUP2 MSTORE PUSH1 0x20 ADD PUSH0 KECCAK256 SLOAD PUSH2 0xC7D SWAP1 SWAP2 SWAP1 PUSH4 0xFFFFFFFF AND JUMP JUMPDEST PUSH1 0x1 PUSH0 DUP7 PUSH20 0xFFFFFFFFFFFFFFFFFFFFFFFFFFFFFFFFFFFFFFFF AND PUSH20 0xFFFFFFFFFFFFFFFFFFFFFFFFFFFFFFFFFFFFFFFF AND DUP2 MSTORE PUSH1 0x20 ADD SWAP1 DUP2 MSTORE PUSH1 0x20 ADD PUSH0 KECCAK256 PUSH0 CALLER PUSH20 0xFFFFFFFFFFFFFFFFFFFFFFFFFFFFFFFFFFFFFFFF AND PUSH20 0xFFFFFFFFFFFFFFFFFFFFFFFFFFFFFFFFFFFFFFFF AND DUP2 MSTORE PUSH1 0x20 ADD SWAP1 DUP2 MSTORE PUSH1 0x20 ADD PUSH0 KECCAK256 DUP2 SWAP1 SSTORE POP PUSH2 0x6AD DUP3 PUSH0 PUSH0 DUP7 PUSH20 0xFFFFFFFFFFFFFFFFFFFFFFFFFFFFFFFFFFFFFFFF AND PUSH20 0xFFFFFFFFFFFFFFFFFFFFFFFFFFFFFFFFFFFFFFFF AND DUP2 MSTORE PUSH1 0x20 ADD SWAP1 DUP2 MSTORE PUSH1 0x20 ADD PUSH0 KECCAK256 SLOAD PUSH2 0xCA3 SWAP1 SWAP2 SWAP1 PUSH4 0xFFFFFFFF AND JUMP JUMPDEST PUSH0 PUSH0 DUP6 PUSH20 0xFFFFFFFFFFFFFFFFFFFFFFFFFFFFFFFFFFFFFFFF AND PUSH20 0xFFFFFFFFFFFFFFFFFFFFFFFFFFFFFFFFFFFFFFFF AND DUP2 MSTORE PUSH1 0x20 ADD SWAP1 DUP2 MSTORE PUSH1 0x20 ADD PUSH0 KECCAK256 DUP2 SWAP1 SSTORE POP DUP3 PUSH20 0xFFFFFFFFFFFFFFFFFFFFFFFFFFFFFFFFFFFFFFFF AND DUP5 PUSH20 0xFFFFFFFFFFFFFFFFFFFFFFFFFFFFFFFFFFFFFFFF AND PUSH32 0x5D439CF3A1F6215B41908E5B0B300F39679A3FF1CC010691C1D4EC4D0E2A4EBB DUP5 PUSH1 0x40 MLOAD PUSH2 0x74A SWAP2 SWAP1 PUSH2 0xE6F JUMP JUMPDEST PUSH1 0x40 MLOAD DUP1 SWAP2 SUB SWAP1 LOG3 PUSH1 0x1 SWAP1 POP SWAP4 SWAP3 POP POP POP JUMP JUMPDEST PUSH1 0x2 DUP2 JUMP JUMPDEST PUSH0 PUSH0 PUSH0 DUP4 PUSH20 0xFFFFFFFFFFFFFFFFFFFFFFFFFFFFFFFFFFFFFFFF AND PUSH20 0xFFFFFFFFFFFFFFFFFFFFFFFFFFFFFFFFFFFFFFFF AND DUP2 MSTORE PUSH1 0x20 ADD SWAP1 DUP2 MSTORE PUSH1 0x20 ADD PUSH0 KECCAK256 SLOAD SWAP1 POP SWAP2 SWAP1 POP JUMP JUMPDEST PUSH1 0x40 MLOAD DUP1 PUSH1 0x40 ADD PUSH1 0x40 MSTORE DUP1 PUSH1 0x5 DUP2 MSTORE PUSH1 0x20 ADD PUSH32 0x4554484A43000000000000000000000000000000000000000000000000000000 DUP2 MSTORE POP DUP2 JUMP JUMPDEST PUSH0 PUSH0 PUSH0 CALLER PUSH20 0xFFFFFFFFFFFFFFFFFFFFFFFFFFFFFFFFFFFFFFFF AND PUSH20 0xFFFFFFFFFFFFFFFFFFFFFFFFFFFFFFFFFFFFFFFF AND DUP2 MSTORE PUSH1 0x20 ADD SWAP1 DUP2 MSTORE PUSH1 0x20 ADD PUSH0 KECCAK256 SLOAD DUP3 GT ISZERO PUSH2 0x860 JUMPI PUSH1 0x40 MLOAD PUSH32 0x8C379A000000000000000000000000000000000000000000000000000000000 DUP2 MSTORE PUSH1 0x4 ADD PUSH2 0x857 SWAP1 PUSH2 0x104A JUMP JUMPDEST PUSH1 0x40 MLOAD DUP1 SWAP2 SUB SWAP1 REVERT JUMPDEST PUSH2 0x8AF DUP3 PUSH0 PUSH0 CALLER PUSH20 0xFFFFFFFFFFFFFFFFFFFFFFFFFFFFFFFFFFFFFFFF AND PUSH20 0xFFFFFFFFFFFFFFFFFFFFFFFFFFFFFFFFFFFFFFFF AND DUP2 MSTORE PUSH1 0x20 ADD SWAP1 DUP2 MSTORE PUSH1 0x20 ADD PUSH0 KECCAK256 SLOAD PUSH2 0xC7D SWAP1 SWAP2 SWAP1 PUSH4 0xFFFFFFFF AND JUMP JUMPDEST PUSH0 PUSH0 CALLER PUSH20 0xFFFFFFFFFFFFFFFFFFFFFFFFFFFFFFFFFFFFFFFF AND PUSH20 0xFFFFFFFFFFFFFFFFFFFFFFFFFFFFFFFFFFFFFFFF AND DUP2 MSTORE PUSH1 0x20 ADD SWAP1 DUP2 MSTORE PUSH1 0x20 ADD PUSH0 KECCAK256 DUP2 SWAP1 SSTORE POP PUSH2 0x93E DUP3 PUSH0 PUSH0 DUP7 PUSH20 0xFFFFFFFFFFFFFFFFFFFFFFFFFFFFFFFFFFFFFFFF AND PUSH20 0xFFFFFFFFFFFFFFFFFFFFFFFFFFFFFFFFFFFFFFFF AND DUP2 MSTORE PUSH1 0x20 ADD SWAP1 DUP2 MSTORE PUSH1 0x20 ADD PUSH0 KECCAK256 SLOAD PUSH2 0xCA3 SWAP1 SWAP2 SWAP1 PUSH4 0xFFFFFFFF AND JUMP JUMPDEST PUSH0 PUSH0 DUP6 PUSH20 0xFFFFFFFFFFFFFFFFFFFFFFFFFFFFFFFFFFFFFFFF AND PUSH20 0xFFFFFFFFFFFFFFFFFFFFFFFFFFFFFFFFFFFFFFFF AND DUP2 MSTORE PUSH1 0x20 ADD SWAP1 DUP2 MSTORE PUSH1 0x20 ADD PUSH0 KECCAK256 DUP2 SWAP1 SSTORE POP DUP3 PUSH20 0xFFFFFFFFFFFFFFFFFFFFFFFFFFFFFFFFFFFFFFFF AND CALLER PUSH20 0xFFFFFFFFFFFFFFFFFFFFFFFFFFFFFFFFFFFFFFFF AND PUSH32 0x5D439CF3A1F6215B41908E5B0B300F39679A3FF1CC010691C1D4EC4D0E2A4EBB DUP5 PUSH1 0x40 MLOAD PUSH2 0x9DB SWAP2 SWAP1 PUSH2 0xE6F JUMP JUMPDEST PUSH1 0x40 MLOAD DUP1 SWAP2 SUB SWAP1 LOG3 PUSH1 0x1 SWAP1 POP SWAP3 SWAP2 POP POP JUMP JUMPDEST PUSH0 PUSH0 PUSH0 DUP6 PUSH20 0xFFFFFFFFFFFFFFFFFFFFFFFFFFFFFFFFFFFFFFFF AND PUSH20 0xFFFFFFFFFFFFFFFFFFFFFFFFFFFFFFFFFFFFFFFF AND DUP2 MSTORE PUSH1 0x20 ADD SWAP1 DUP2 MSTORE PUSH1 0x20 ADD PUSH0 KECCAK256 SLOAD DUP3 GT ISZERO PUSH2 0xA6D JUMPI PUSH1 0x40 MLOAD PUSH32 0x8C379A000000000000000000000000000000000000000000000000000000000 DUP2 MSTORE PUSH1 0x4 ADD PUSH2 0xA64 SWAP1 PUSH2 0x104A JUMP JUMPDEST PUSH1 0x40 MLOAD DUP1 SWAP2 SUB SWAP1 REVERT JUMPDEST PUSH2 0xABC DUP3 PUSH0 PUSH0 DUP8 PUSH20 0xFFFFFFFFFFFFFFFFFFFFFFFFFFFFFFFFFFFFFFFF AND PUSH20 0xFFFFFFFFFFFFFFFFFFFFFFFFFFFFFFFFFFFFFFFF AND DUP2 MSTORE PUSH1 0x20 ADD SWAP1 DUP2 MSTORE PUSH1 0x20 ADD PUSH0 KECCAK256 SLOAD PUSH2 0xC7D SWAP1 SWAP2 SWAP1 PUSH4 0xFFFFFFFF AND JUMP JUMPDEST PUSH0 PUSH0 DUP7 PUSH20 0xFFFFFFFFFFFFFFFFFFFFFFFFFFFFFFFFFFFFFFFF AND PUSH20 0xFFFFFFFFFFFFFFFFFFFFFFFFFFFFFFFFFFFFFFFF AND DUP2 MSTORE PUSH1 0x20 ADD SWAP1 DUP2 MSTORE PUSH1 0x20 ADD PUSH0 KECCAK256 DUP2 SWAP1 SSTORE POP PUSH2 0xB4B DUP3 PUSH0 PUSH0 DUP7 PUSH20 0xFFFFFFFFFFFFFFFFFFFFFFFFFFFFFFFFFFFFFFFF AND PUSH20 0xFFFFFFFFFFFFFFFFFFFFFFFFFFFFFFFFFFFFFFFF AND DUP2 MSTORE PUSH1 0x20 ADD SWAP1 DUP2 MSTORE PUSH1 0x20 ADD PUSH0 KECCAK256 SLOAD PUSH2 0xCA3 SWAP1 SWAP2 SWAP1 PUSH4 0xFFFFFFFF AND JUMP JUMPDEST PUSH0 PUSH0 DUP6 PUSH20 0xFFFFFFFFFFFFFFFFFFFFFFFFFFFFFFFFFFFFFFFF AND PUSH20 0xFFFFFFFFFFFFFFFFFFFFFFFFFFFFFFFFFFFFFFFF AND DUP2 MSTORE PUSH1 0x20 ADD SWAP1 DUP2 MSTORE PUSH1 0x20 ADD PUSH0 KECCAK256 DUP2 SWAP1 SSTORE POP DUP3 PUSH20 0xFFFFFFFFFFFFFFFFFFFFFFFFFFFFFFFFFFFFFFFF AND DUP5 PUSH20 0xFFFFFFFFFFFFFFFFFFFFFFFFFFFFFFFFFFFFFFFF AND PUSH32 0x5D439CF3A1F6215B41908E5B0B300F39679A3FF1CC010691C1D4EC4D0E2A4EBB DUP5 PUSH1 0x40 MLOAD PUSH2 0xBE8 SWAP2 SWAP1 PUSH2 0xE6F JUMP JUMPDEST PUSH1 0x40 MLOAD DUP1 SWAP2 SUB SWAP1 LOG3 PUSH1 0x1 SWAP1 POP SWAP4 SWAP3 POP POP POP JUMP JUMPDEST PUSH0 PUSH1 0x1 PUSH0 DUP5 PUSH20 0xFFFFFFFFFFFFFFFFFFFFFFFFFFFFFFFFFFFFFFFF AND PUSH20 0xFFFFFFFFFFFFFFFFFFFFFFFFFFFFFFFFFFFFFFFF AND DUP2 MSTORE PUSH1 0x20 ADD SWAP1 DUP2 MSTORE PUSH1 0x20 ADD PUSH0 KECCAK256 PUSH0 DUP4 PUSH20 0xFFFFFFFFFFFFFFFFFFFFFFFFFFFFFFFFFFFFFFFF AND PUSH20 0xFFFFFFFFFFFFFFFFFFFFFFFFFFFFFFFFFFFFFFFF AND DUP2 MSTORE PUSH1 0x20 ADD SWAP1 DUP2 MSTORE PUSH1 0x20 ADD PUSH0 KECCAK256 SLOAD SWAP1 POP SWAP3 SWAP2 POP POP JUMP JUMPDEST PUSH0 DUP3 DUP3 GT ISZERO PUSH2 0xC8F JUMPI PUSH2 0xC8E PUSH2 0x1068 JUMP JUMPDEST JUMPDEST DUP2 DUP4 PUSH2 0xC9B SWAP2 SWAP1 PUSH2 0x1095 JUMP JUMPDEST SWAP1 POP SWAP3 SWAP2 POP POP JUMP JUMPDEST PUSH0 PUSH0 DUP3 DUP5 PUSH2 0xCB1 SWAP2 SWAP1 PUSH2 0xFCD JUMP JUMPDEST SWAP1 POP DUP4 DUP2 LT ISZERO PUSH2 0xCC4 JUMPI PUSH2 0xCC3 PUSH2 0x1068 JUMP JUMPDEST JUMPDEST DUP1 SWAP2 POP POP SWAP3 SWAP2 POP POP JUMP JUMPDEST PUSH0 DUP2 MLOAD SWAP1 POP SWAP2 SWAP1 POP JUMP JUMPDEST PUSH0 DUP3 DUP3 MSTORE PUSH1 0x20 DUP3 ADD SWAP1 POP SWAP3 SWAP2 POP POP JUMP JUMPDEST DUP3 DUP2 DUP4 MCOPY PUSH0 DUP4 DUP4 ADD MSTORE POP POP POP JUMP JUMPDEST PUSH0 PUSH1 0x1F NOT PUSH1 0x1F DUP4 ADD AND SWAP1 POP SWAP2 SWAP1 POP JUMP JUMPDEST PUSH0 PUSH2 0xD10 DUP3 PUSH2 0xCCE JUMP JUMPDEST PUSH2 0xD1A DUP2 DUP6 PUSH2 0xCD8 JUMP JUMPDEST SWAP4 POP PUSH2 0xD2A DUP2 DUP6 PUSH1 0x20 DUP7 ADD PUSH2 0xCE8 JUMP JUMPDEST PUSH2 0xD33 DUP2 PUSH2 0xCF6 JUMP JUMPDEST DUP5 ADD SWAP2 POP POP SWAP3 SWAP2 POP POP JUMP JUMPDEST PUSH0 PUSH1 0x20 DUP3 ADD SWAP1 POP DUP2 DUP2 SUB PUSH0 DUP4 ADD MSTORE PUSH2 0xD56 DUP2 DUP5 PUSH2 0xD06 JUMP JUMPDEST SWAP1 POP SWAP3 SWAP2 POP POP JUMP JUMPDEST PUSH0 PUSH0 REVERT JUMPDEST PUSH0 PUSH20 0xFFFFFFFFFFFFFFFFFFFFFFFFFFFFFFFFFFFFFFFF DUP3 AND SWAP1 POP SWAP2 SWAP1 POP JUMP JUMPDEST PUSH0 PUSH2 0xD8B DUP3 PUSH2 0xD62 JUMP JUMPDEST SWAP1 POP SWAP2 SWAP1 POP JUMP JUMPDEST PUSH2 0xD9B DUP2 PUSH2 0xD81 JUMP JUMPDEST DUP2 EQ PUSH2 0xDA5 JUMPI PUSH0 PUSH0 REVERT JUMPDEST POP JUMP JUMPDEST PUSH0 DUP2 CALLDATALOAD SWAP1 POP PUSH2 0xDB6 DUP2 PUSH2 0xD92 JUMP JUMPDEST SWAP3 SWAP2 POP POP JUMP JUMPDEST PUSH0 DUP2 SWAP1 POP SWAP2 SWAP1 POP JUMP JUMPDEST PUSH2 0xDCE DUP2 PUSH2 0xDBC JUMP JUMPDEST DUP2 EQ PUSH2 0xDD8 JUMPI PUSH0 PUSH0 REVERT JUMPDEST POP JUMP JUMPDEST PUSH0 DUP2 CALLDATALOAD SWAP1 POP PUSH2 0xDE9 DUP2 PUSH2 0xDC5 JUMP JUMPDEST SWAP3 SWAP2 POP POP JUMP JUMPDEST PUSH0 PUSH0 PUSH1 0x40 DUP4 DUP6 SUB SLT ISZERO PUSH2 0xE05 JUMPI PUSH2 0xE04 PUSH2 0xD5E JUMP JUMPDEST JUMPDEST PUSH0 PUSH2 0xE12 DUP6 DUP3 DUP7 ADD PUSH2 0xDA8 JUMP JUMPDEST SWAP3 POP POP PUSH1 0x20 PUSH2 0xE23 DUP6 DUP3 DUP7 ADD PUSH2 0xDDB JUMP JUMPDEST SWAP2 POP POP SWAP3 POP SWAP3 SWAP1 POP JUMP JUMPDEST PUSH0 DUP2 ISZERO ISZERO SWAP1 POP SWAP2 SWAP1 POP JUMP JUMPDEST PUSH2 0xE41 DUP2 PUSH2 0xE2D JUMP JUMPDEST DUP3 MSTORE POP POP JUMP JUMPDEST PUSH0 PUSH1 0x20 DUP3 ADD SWAP1 POP PUSH2 0xE5A PUSH0 DUP4 ADD DUP5 PUSH2 0xE38 JUMP JUMPDEST SWAP3 SWAP2 POP POP JUMP JUMPDEST PUSH2 0xE69 DUP2 PUSH2 0xDBC JUMP JUMPDEST DUP3 MSTORE POP POP JUMP JUMPDEST PUSH0 PUSH1 0x20 DUP3 ADD SWAP1 POP PUSH2 0xE82 PUSH0 DUP4 ADD DUP5 PUSH2 0xE60 JUMP JUMPDEST SWAP3 SWAP2 POP POP JUMP JUMPDEST PUSH0 PUSH1 0x20 DUP3 DUP5 SUB SLT ISZERO PUSH2 0xE9D JUMPI PUSH2 0xE9C PUSH2 0xD5E JUMP JUMPDEST JUMPDEST PUSH0 PUSH2 0xEAA DUP5 DUP3 DUP6 ADD PUSH2 0xDDB JUMP JUMPDEST SWAP2 POP POP SWAP3 SWAP2 POP POP JUMP JUMPDEST PUSH0 PUSH0 PUSH0 PUSH1 0x60 DUP5 DUP7 SUB SLT ISZERO PUSH2 0xECA JUMPI PUSH2 0xEC9 PUSH2 0xD5E JUMP JUMPDEST JUMPDEST PUSH0 PUSH2 0xED7 DUP7 DUP3 DUP8 ADD PUSH2 0xDA8 JUMP JUMPDEST SWAP4 POP POP PUSH1 0x20 PUSH2 0xEE8 DUP7 DUP3 DUP8 ADD PUSH2 0xDA8 JUMP JUMPDEST SWAP3 POP POP PUSH1 0x40 PUSH2 0xEF9 DUP7 DUP3 DUP8 ADD PUSH2 0xDDB JUMP JUMPDEST SWAP2 POP POP SWAP3 POP SWAP3 POP SWAP3 JUMP JUMPDEST PUSH0 PUSH1 0xFF DUP3 AND SWAP1 POP SWAP2 SWAP1 POP JUMP JUMPDEST PUSH2 0xF18 DUP2 PUSH2 0xF03 JUMP JUMPDEST DUP3 MSTORE POP POP JUMP JUMPDEST PUSH0 PUSH1 0x20 DUP3 ADD SWAP1 POP PUSH2 0xF31 PUSH0 DUP4 ADD DUP5 PUSH2 0xF0F JUMP JUMPDEST SWAP3 SWAP2 POP POP JUMP JUMPDEST PUSH0 PUSH1 0x20 DUP3 DUP5 SUB SLT ISZERO PUSH2 0xF4C JUMPI PUSH2 0xF4B PUSH2 0xD5E JUMP JUMPDEST JUMPDEST PUSH0 PUSH2 0xF59 DUP5 DUP3 DUP6 ADD PUSH2 0xDA8 JUMP JUMPDEST SWAP2 POP POP SWAP3 SWAP2 POP POP JUMP JUMPDEST PUSH0 PUSH0 PUSH1 0x40 DUP4 DUP6 SUB SLT ISZERO PUSH2 0xF78 JUMPI PUSH2 0xF77 PUSH2 0xD5E JUMP JUMPDEST JUMPDEST PUSH0 PUSH2 0xF85 DUP6 DUP3 DUP7 ADD PUSH2 0xDA8 JUMP JUMPDEST SWAP3 POP POP PUSH1 0x20 PUSH2 0xF96 DUP6 DUP3 DUP7 ADD PUSH2 0xDA8 JUMP JUMPDEST SWAP2 POP POP SWAP3 POP SWAP3 SWAP1 POP JUMP JUMPDEST PUSH32 0x4E487B7100000000000000000000000000000000000000000000000000000000 PUSH0 MSTORE PUSH1 0x11 PUSH1 0x4 MSTORE PUSH1 0x24 PUSH0 REVERT JUMPDEST PUSH0 PUSH2 0xFD7 DUP3 PUSH2 0xDBC JUMP JUMPDEST SWAP2 POP PUSH2 0xFE2 DUP4 PUSH2 0xDBC JUMP JUMPDEST SWAP3 POP DUP3 DUP3 ADD SWAP1 POP DUP1 DUP3 GT ISZERO PUSH2 0xFFA JUMPI PUSH2 0xFF9 PUSH2 0xFA0 JUMP JUMPDEST JUMPDEST SWAP3 SWAP2 POP POP JUMP JUMPDEST PUSH32 0x696E73756666696369656E742062616C616E6365000000000000000000000000 PUSH0 DUP3 ADD MSTORE POP JUMP JUMPDEST PUSH0 PUSH2 0x1034 PUSH1 0x14 DUP4 PUSH2 0xCD8 JUMP JUMPDEST SWAP2 POP PUSH2 0x103F DUP3 PUSH2 0x1000 JUMP JUMPDEST PUSH1 0x20 DUP3 ADD SWAP1 POP SWAP2 SWAP1 POP JUMP JUMPDEST PUSH0 PUSH1 0x20 DUP3 ADD SWAP1 POP DUP2 DUP2 SUB PUSH0 DUP4 ADD MSTORE PUSH2 0x1061 DUP2 PUSH2 0x1028 JUMP JUMPDEST SWAP1 POP SWAP2 SWAP1 POP JUMP JUMPDEST PUSH32 0x4E487B7100000000000000000000000000000000000000000000000000000000 PUSH0 MSTORE PUSH1 0x1 PUSH1 0x4 MSTORE PUSH1 0x24 PUSH0 REVERT JUMPDEST PUSH0 PUSH2 0x109F DUP3 PUSH2 0xDBC JUMP JUMPDEST SWAP2 POP PUSH2 0x10AA DUP4 PUSH2 0xDBC JUMP JUMPDEST SWAP3 POP DUP3 DUP3 SUB SWAP1 POP DUP2 DUP2 GT ISZERO PUSH2 0x10C2 JUMPI PUSH2 0x10C1 PUSH2 0xFA0 JUMP JUMPDEST JUMPDEST SWAP3 SWAP2 POP POP JUMP INVALID LOG2 PUSH5 0x6970667358 0x22 SLT KECCAK256 MULMOD 0xC2 0xD9 PUSH21 0xCC29DD624D32BC760E5222B2C77D84F7804D63C549 0x2B 0x28 DUP1 0xCA DIV 0xBD BALANCE PUSH5 0x736F6C6343 STOP ADDMOD 0x1E STOP CALLER "
				},
				"gasEstimates": {
					"creation": {
						"codeDepositCost": "1221600",
						"executionCost": "infinite",
						"totalCost": "infinite"
					},
					"external": {
						"AccumulatedWell()": "infinite",
						"AvailableTokens()": "infinite",
						"BuyTickets(uint256)": "infinite",
						"BuyTokens(uint256)": "infinite",
						"GenerateToken(uint256)": "infinite",
						"GenerateWinner()": "infinite",
						"MyTickets()": "infinite",
						"ReturnTokens(uint256)": "infinite",
						"TicketPrice()": "2470",
						"TokenPrice(uint256)": "infinite",
						"ViewMyTokens()": "infinite",
						"contract_created()": "2575",
						"owner()": "2553"
					}
				},
				"methodIdentifiers": {
					"AccumulatedWell()": "11973a23",
					"AvailableTokens()": "b8621c7c",
					"BuyTickets(uint256)": "59ab0306",
					"BuyTokens(uint256)": "89749adb",
					"GenerateToken(uint256)": "838c7dd0",
					"GenerateWinner()": "34e7d146",
					"MyTickets()": "a4e8aeb8",
					"ReturnTokens(uint256)": "b23fd3bd",
					"TicketPrice()": "53321c88",
					"TokenPrice(uint256)": "8bf972b2",
					"ViewMyTokens()": "adbbe720",
					"contract_created()": "a19cb8c3",
					"owner()": "8da5cb5b"
				}
			},
			"storageLayout": {
				"storage": [
					{
						"astId": 484,
						"contract": "Lottery/lottery.sol:Lottery",
						"label": "token",
						"offset": 0,
						"slot": "0",
						"type": "t_contract(ERC20V2Basic)477"
					},
					{
						"astId": 486,
						"contract": "Lottery/lottery.sol:Lottery",
						"label": "owner",
						"offset": 0,
						"slot": "1",
						"type": "t_address"
					},
					{
						"astId": 488,
						"contract": "Lottery/lottery.sol:Lottery",
						"label": "contract_created",
						"offset": 0,
						"slot": "2",
						"type": "t_address"
					},
					{
						"astId": 491,
						"contract": "Lottery/lottery.sol:Lottery",
						"label": "tokens_created",
						"offset": 0,
						"slot": "3",
						"type": "t_uint256"
					},
					{
						"astId": 664,
						"contract": "Lottery/lottery.sol:Lottery",
						"label": "TicketPrice",
						"offset": 0,
						"slot": "4",
						"type": "t_uint256"
					},
					{
						"astId": 669,
						"contract": "Lottery/lottery.sol:Lottery",
						"label": "idCustomer_Ticket",
						"offset": 0,
						"slot": "5",
						"type": "t_mapping(t_address,t_array(t_uint256)dyn_storage)"
					},
					{
						"astId": 673,
						"contract": "Lottery/lottery.sol:Lottery",
						"label": "idTicket_Customer",
						"offset": 0,
						"slot": "6",
						"type": "t_mapping(t_uint256,t_address)"
					},
					{
						"astId": 676,
						"contract": "Lottery/lottery.sol:Lottery",
						"label": "randNonce",
						"offset": 0,
						"slot": "7",
						"type": "t_uint256"
					},
					{
						"astId": 679,
						"contract": "Lottery/lottery.sol:Lottery",
						"label": "tickets_purchased",
						"offset": 0,
						"slot": "8",
						"type": "t_array(t_uint256)dyn_storage"
					}
				],
				"types": {
					"t_address": {
						"encoding": "inplace",
						"label": "address",
						"numberOfBytes": "20"
					},
					"t_array(t_uint256)dyn_storage": {
						"base": "t_uint256",
						"encoding": "dynamic_array",
						"label": "uint256[]",
						"numberOfBytes": "32"
					},
					"t_contract(ERC20V2Basic)477": {
						"encoding": "inplace",
						"label": "contract ERC20V2Basic",
						"numberOfBytes": "20"
					},
					"t_mapping(t_address,t_array(t_uint256)dyn_storage)": {
						"encoding": "mapping",
						"key": "t_address",
						"label": "mapping(address => uint256[])",
						"numberOfBytes": "32",
						"value": "t_array(t_uint256)dyn_storage"
					},
					"t_mapping(t_uint256,t_address)": {
						"encoding": "mapping",
						"key": "t_uint256",
						"label": "mapping(uint256 => address)",
						"numberOfBytes": "32",
						"value": "t_address"
					},
					"t_uint256": {
						"encoding": "inplace",
						"label": "uint256",
						"numberOfBytes": "32"
					}
				}
			},
			"userdoc": {
				"kind": "user",
				"methods": {},
				"version": 1
			}
		}
	}
}